:100000000C94D4040C9498310C941B050C941B058F
:100010000C941B050C941B050C941B050C941B05E0
:100020000C941B050C941B050C94D32F0C94A93035
:100030000C94882F0C941B050C941B050C941B0529
:100040000C941B050C941B050C941B050C941B05B0
:100050000C941B050C94AF2F0C941B050C941B05E2
:100060000C941B050C941B050C941B050C941B0590
:100070000C941B050C941B050C941B050C941B0580
:100080000C941B050C941B050C941B050C941B0570
:100090000C941B050C941B050C941B050C941B0560
:1000A0000C941B050C941B050C941B050501098081
:1000B000A101850319012AB700150126B700950192
:1000C00075108100C0050C0901A101850419012AE0
:1000D000A002150126A002950175108100C00660DE
:1000E000FF0961A1010962150026FF00952075082E
:1000F00081020963150026FF00952075089102C052
:1001000005010906A101050719E029E715002501E8
:10011000950875018102950175088101050719008F
:1001200029FF150026FF00950675088100050819AE
:10013000012905950575019102950175039101C08D
:1001400009025B00030100A0FA0904000001030199
:100150000100092111010001224000070581030867
:10016000000A090401000203000000092111010036
:100170000122220007058203200001070503032056
:10018000000109040200010300000009211101001F
:10019000012232000705840320000A120100020038
:1001A0000000084D4436350100010203011C0376AE
:1001B00000690061006C003A00660036003400639C
:1001C00000320062003300630000002C0344006131
:1001D000006300740079006C002D004D0061006E1A
:1001E00000750066006F0072006D00200028003569
:1001F0000078003600290000000E037400730068C8
:10020000006F007200740000000403090429001E3E
:10021000001F002000210022002B0014001A0008FB
:100220000015001700E10004001600070009000A8D
:1002300000E0001D001B0006001900050000000082
:10024000003500000FE200010000000000E3002C78
:10025000004C000251230024002500260027002D19
:10026000001C0018000C00120013002E000B000DE3
:10027000000E000F0033003400110010003600376C
:10028000003800310001002A002F0030000000007B
:100290000001514B0028004E000000000001001E2C
:1002A000021F0220022102220201001E001F002064
:1002B00000210022000100390049004A004D00469B
:1002C0000001007A007B007C007D0001000000003E
:1002D0000001000100010001000000000001000118
:1002E00000010003512302240225022602270201F5
:1002F0000023002400250026002700010001000142
:1003000000010001000100010001000100010001E5
:100310000001000100010001002F02300200000076
:100320000001000100005C0100000000000100016C
:100330000001000100010001000100010001005264
:10034000000100010001000100500051004F0001B8
:100350000001003A003B003C003D003E0000000070
:100360000001000100010001000000000001000088
:100370005C01000100010001000100010001000119
:100380000001000100010001000100010001000165
:100390000001000100010001003F00400041004257
:1003A000004300010001000100440045000000007E
:1003B0000003514F01010050010000000001000145
:1003C0000001000100010001000100010001000125
:1003D0000001000100C25CC55CC75CC95C01000192
:1003E00000C35CC65CC85CCA5C0100010000000080
:1003F00000010001000100010000000000010001F7
:1004000000010001000100010001000100010001E4
:10041000000100010001000100010001000100AA2B
:1004200000A800A900010001000100AC00AE00AB73
:1004300000010001000100010001000100000000B6
:10044000000100010001000100000000002223253E
:100450002628292A2C2D2F3032333536383A3B3D89
:100460003E4042434547494A4C4E505153555759D7
:100470005A5C5E6062646668696B6D6F71737577F4
:10048000797B7D7F81838587898A8C8E90929496F3
:10049000989A9C9E9FA1A3A5A7A8AAACAEAFB1B302
:1004A000B4B6B8B9BBBCBEBFC1C2C3C5C6C7C9CA52
:1004B000CBCCCDCED0D1D2D2D3D4D5D6D7D7D8D914
:1004C000D9DADADBDBDBDCDCDCDCDCDDDDDDDDDC72
:1004D000DCDCDCDCDBDBDBDADAD9D9D8D7D7D6D584
:1004E000D4D3D2D2D1D0CECDCCCBCAC9C7C6C5C346
:1004F000C2C1BFBEBCBBB9B8B6B4B3B1AFAEACAA93
:10050000A8A7A5A3A19F9E9C9A98969492908E8C42
:100510008A89878583817F7D7B79777573716F6D1C
:100520006B6968666462605E5C5A595755535150F6
:100530004E4C4A4947454342403E3D3B3A383635AA
:100540003332302F2D2C2A29282625232200010181
:100550000101010101010102020202020202020282
:100560000303030303030303040404040404040552
:100570000505050506060606060707070707080816
:100580000808090909090A0A0A0B0B0B0C0C0C0DC7
:100590000D0D0E0E0E0F0F0F101011111112121360
:1005A000131414151516161717181819191A1A1BDB
:1005B0001B1C1D1D1E1E1F2020212222232424253A
:1005C0002626272829292A2B2C2D2D2E2F30313273
:1005D00032333435363738393A3B3C3D3E3F404183
:1005E00042434445464748494A4C4D4E4F5051536B
:1005F00054555658595A5B5D5E5F61626465666822
:10060000696B6C6D6F7072737577787A7B7D7E80A5
:1006100082838587888A8C8E8F91939596989A9CF1
:100620009EA0A2A3A5A7A9ABADAFB1B3B5B7BABC05
:10063000BEC0C2C4C6C9CBCDCFD1D4D6D8DBDDDFD6
:10064000E2E4E7E9EBEEF0F3F5F8FAFDFF643214CB
:10065000783C1E1E140A0501000100370400000248
:10066000000200330400000300010038040000040D
:100670000002001D048B080500010039040000067B
:100680000002001F040000070002003504000008FB
:100690000001003A040000120002003B04000013B5
:1006A0000002003D040000FD377A585A000004E6BD
:1006B000D6B4460200210116000000742FE5A3E025
:1006C000073002105D003D8889C65436C3174FE4D9
:1006D000DD5C7431C9895FE41655C0286371F47715
:1006E000888567D766777E86E94C18C5F9B8A85023
:1006F0006F12264BC321E72D7BB0F0957D88D80D76
:10070000AEED908AE972B71E51E32E7DC809328F93
:1007100039129B0B806396E5B6C650FDF8B4188479
:100720002C140F00C504A0884ADD61E45BC11E38AB
:1007300061E39F5FCB805A0475D080EB721D7237E6
:10074000B4F0BD3A4AFA4709F5F17D690D5EBF552F
:10075000EDC343586151082255F0B97FA140DB5EDB
:100760008EC595725E343DEB6E62AB4FCF791079DA
:100770000C2D931B03A677023EF0230D41C01BEE08
:10078000FA5B9A7A44F3E968507155FA789FCCFC89
:100790000D7861C4BE6175A5DA7F798E7D87FC5CBA
:1007A0004C9E929A116856FEC8D9159E17DF338B5E
:1007B000DF7085DBF4693ADE9E68D78E9147237738
:1007C000034EBBADCB381233B002640A35B0C262FF
:1007D000FD54E2B0021EC1A4A9815E20DF79274743
:1007E0006EAD9750F420FFEAFDDAE9DF2092B57D87
:1007F00031FA2C3008B03437DF6B71A548C5D8C743
:10080000E976253A7EF27112F90C1D9A4451E9D12C
:10081000FF5FE2FE1E816DCBB4F53804B19D51EE51
:100820009E5DC3420CB3E547BA4343D64DC1BCC934
:10083000A0E52550B0657EA0A74BEDE0F9849A3D78
:1008400033A7297B334B84DBCAA1E387DB39C73865
:100850004107516AEE551236FA851BCBB117269522
:100860004CA1800D28F42E8D13822754776FD95216
:10087000F6DE222094D3DEB5801143579885CB8FC6
:10088000C2606E5723C2A6D38417D88ED8D7158AD4
:10089000B854609BCD8783F69C9048CB82C0C6EC51
:1008A0002E88C271F79988BF86273BC18026AD3755
:1008B00025062C95B8346A35ED5B371D1846092995
:1008C0009E9B399BB1C0CD3B67AE641787A53AEBC1
:1008D000B48F6196120000923495872CFF819400AA
:1008E00001AC04B10E00007DA75BF7B1C467FB0249
:1008F0000000000004595A00000000000000000041
:1009000000000000000000000000000000000000E7
:1009100000000000000000000000007E0F00D4FF77
:10092000FFFFC70000007800000000000000002A60
:100930002B28000000000000000000000000000064
:10094000000029000000002C1E342021222434261F
:1009500027252E362D3738271E1F20212223242518
:10096000263333362E37381F0405060708090A0BCD
:100970000C0D0E0F101112131415161718191A1B3F
:100980001C1D2F3130232D350405060708090A0BDD
:100990000C0D0E0F101112131415161718191A1B1F
:1009A0001C1D2F3130354C0011241FBECFEFDAE073
:1009B000DEBFCDBF04B603FE27C0809141049091F5
:1009C0004204A0914304B09144048730904BA74067
:1009D000B04BD1F41092410410924204109243049F
:1009E0001092440414BE84B7877F84BF0FB6F89476
:1009F000A8958091600088618093600010926000EB
:100A00000FBEE0E0F8E3099511E0A0E0B1E0ECE60C
:100A1000F8E602C005900D92AC3CB107D9F724E08E
:100A2000ACECB1E001C01D92A134B207E1F70E9425
:100A30001D290C94DB330C940000282F892F8295FC
:100A40008F70903C80F48A30B0F4843020F482308F
:100A500090F480E008958630E1F781E0283E88F048
:100A6000213FB9F70EC08C3011F08F3091F793FB16
:100A7000882780F9089581E0203F39F018F4283E56
:100A800040F70895243F29F7FCCF08959E3F69F170
:100A9000E92FEE0FE90FEE0FE80F8E2F877041E080
:100AA00001C0440F8A95EAF7E695E695E69583E05E
:100AB000E89FF0011124E15CFC4F30E020E070E0A1
:100AC0005191DF011197CB01022E02C096958795B7
:100AD0000A94E2F7817081958527842385278C937A
:100AE0002F5F3F4F2330310559F708959E3F49F15D
:100AF000E92FEE0FE90FEE0FE80F9E2F9770E695A6
:100B0000E695E69583E0E89FF0011124E15CFC4F57
:100B100050E040E080E0219130E0092E02C036959F
:100B200027950A94E2F721703327042E01C0220F83
:100B30000A94EAF7822B4F5F5F4F4330510559F714
:100B4000089580E008958091F6029091F50298133F
:100B500001C008958F5F8770FACFA1EDB1E0EFEF8C
:100B600090E02D91821751F0EF3F19F4211101C04F
:100B7000E92F9F5F9630A9F7EF3F09F408950E2EF5
:100B8000000CFF0BE153FE4F82830895E1EDF1E08D
:100B90009191891303C0DF0111971C9291E0E73D09
:100BA000F907B1F70895982F9095809170038923E4
:100BB00080937003089580916D03882331F0109223
:100BC0006D0310926A0310926903089590916B036C
:100BD00092FF06C0282F28712830F9F4877F84609F
:100BE00093FF06C0282F28712831F1F4877E846195
:100BF00020916C0320FF06C0382F38713830D9F4AB
:100C0000877F816021FF06C0282F28712831D1F409
:100C1000877E816194FD877E0895282F247124307A
:100C2000F9F68B7F8860DCCF282F2471243101F7FF
:100C30008B7E8861DDCF382F3171313019F78E7F8F
:100C40008860E0CF282F2171213121F78E7E8861C5
:100C5000E1CFCF93DF93EC01803E910509F45EC0B4
:100C600048F58133910509F4A1C088F489329105D2
:100C700009F495C08A9709F4A0C0C130D10529F1C3
:100C8000CE010497813A910508F054C01EC0893303
:100C90009105E9F182389105D1F1C59709F478C041
:100CA000C83AD10508F090C0C53AD10530F3A497F1
:100CB000D0640BC0843E910509F44FC050F4823ECD
:100CC0009105D9F1833E9105E9F1CE01DF91CF91F4
:100CD0000895863E910509F44BC0873E910509F4BD
:100CE0004CC0811523E5920708F08BC0811532E5D1
:100CF000930708F0FDC0C11580E5D80708F077C05C
:100D0000C11520E4D20760F2DF70D06ADECF809197
:100D10006B038370D1F2C0EED0E0D7CF80916B032C
:100D200080FD11C190916C0390FFCFCFC3EED0E056
:100D300084FFCBCFD0E0C0E0C8CF80916B0382FDB1
:100D4000F5CFC3CF80916B0382FD00C190916C03FE
:100D500090FDE1CF84FFB9CFEDCF80916C0381FF8F
:100D6000B4CF80916B03C7EED0E084FDE3CFADCF6D
:100D700080916B0383FDF7CFA8CF80916B0383FD38
:100D8000E8C090916C0391FFE5CFC4EED0E09DCF19
:100D900080916B0385FF99CFC9E2D0E096CF809117
:100DA0006B0385FF92CFC5E3D0E08FCF80916B03BB
:100DB00086FF8BCFCAE2D0E088CF80916B0386FF9D
:100DC00084CFC1E3D0E081CFCF3BD10508F468C028
:100DD000C83ED10528F4C03ED10508F4ABCF75CF8D
:100DE000CE019A9581159F4108F0A4CF6ECFC11511
:100DF00081E5D80708F45FC0DC2FCC27C16FD06A2B
:100E000064CF811529E59207A0F5811538E5930790
:100E100008F086C0C11585E5D807C8F4C11524E5DA
:100E2000D20708F078C09E012370332781E090E05C
:100E300002C0880F991F2A95E2F7C695C69530E241
:100E4000C39FE0011124C82BD92BDA683ECFCE0115
:100E500095558F3F910511F008F06CCF8C2F0E94B3
:100E6000E605C82FD0E0DC2FCC27CC27DF71D0627D
:100E70002CCFC1158AE5D80708F457C0CE0190568B
:100E80008115904208F056CF8D2F8F710E94E60594
:100E900090E0982F882788279F718C2BEC01E7CF53
:100EA000C85AD0E0CC0FDD1FC256DE4F0990D88162
:100EB000C02DD4640ACF9E0174E0369527957A95AB
:100EC000E1F723708C2F86958695837030E2839F9F
:100ED000C0011124922BC37021E030E002C0220F28
:100EE000331FCA95E2F7822B932BEC01DC68EDCE21
:100EF0009C012370332781E090E002C0880F991F86
:100F00002A95E2F7C695C69520E2C29FE00111241A
:100F1000C82BD92BEBCFDC2FCC27C46FD06AD5CE12
:100F2000D82FCC27C06FD06AD0CE8C2F8F700E9464
:100F3000E60534E0D695C7953A95E1F7CF709C2F3A
:100F4000EC01D069C2CEC9E3D0E0BFCEC2EED0E0A2
:100F5000BCCEC6EED0E0B9CE80E00895F894E82F7C
:100F6000E295EF70F0E041A18F7021E030E0B9012F
:100F700002C0660F771F8A95E2F7CB01962F9095F6
:100F8000942391A392A1892B82A378940895089524
:100F90006F927F928F929F92AF92BF92CF92DF9289
:100FA000EF92FF920F931F93CF93DF93B82EA62E4D
:100FB0008901E42FF0E0E35BFA4F611119C0E4917D
:100FC0008E2F2E2FD80111962C931197EC931296F9
:100FD0008C93DF91CF911F910F91FF90EF90DF9055
:100FE000CF90BF90AF909F908F907F906F9008951B
:100FF000E62EF12C249186E0B89E60011124CFEFFB
:10100000D0E0C601BE010E9413338B2D90E0880F03
:10101000991F35E5369FA001379F500D1124841B81
:10102000950B982F990F980FAE014E195F09249FC9
:10103000D001259FB00D1124EB2FA99E5001112442
:10104000AB2CBB24AE014A195B09249F5001259F9C
:10105000B00C11248B2D3E01691A71086E9C400161
:101060006F9C900C7E9C900C1124892C9924C8199B
:10107000D9092C9FA0012D9F500D112463307105BB
:10108000D1F09CEFC91693E0D90670F46130710578
:10109000B1F062307105B9F0FFEFCF16D10408F05E
:1010A00091CF8B2FE52F8ECF6430710579F06630AC
:1010B0007105B9F387CFEB2D822F2B2F83CFE22F32
:1010C0002B2D8B2F7FCF852FE22FF7CF822F252F30
:1010D00079CF80916403982F9E7F61F48170826044
:1010E0008093640380916703873918F086E98093C1
:1010F000670308958E31B0F381708C61F1CFE1E622
:10110000F3E011828281846082830895FA01811163
:101110000994FB01FDCF80911D0490911E049093D2
:101120003B0180933A01089510927F0310927E0351
:10113000E5EEF3E08581811102C0148216823796B4
:1011400084E0ED31F807B1F70895AC0130918103E7
:1011500060918003232F621301C00895822F90E0D5
:10116000FC01EE0FFF1FEA58FC4F0190F081E02DCB
:10117000E417F50791F467E0649FF001659FF00DB7
:101180001124EB51FC4F41E044832313E6CF019639
:10119000837099278093810308950196282F2370E7
:1011A000DACF2091F3013091F4012817390771F05B
:1011B0009093F4018093F301E091F302F091F40233
:1011C000309721F00680F781E02D09940895209151
:1011D000F1013091F2012817390771F09093F20173
:1011E0008093F101E091F302F091F402309721F045
:1011F0000084F185E02D099408952FB7F89480912B
:10120000A2029091A302A091A402B091A5022FBFC7
:10121000089580911F0490912004892B91F00E94E1
:10122000FD082091690330916A03AC01421B530B06
:101230009A0181E040911F04509120042417350742
:1012400008F480E08170089580917003909172039A
:10125000892B90915A03892B8093CF0180916D0344
:10126000882309F180911F0490912004892B29F093
:101270000E94090981110E94DB058091CF019091A4
:101280006D03892B8093CF0120E081ED91E0FC017B
:101290003081019631112F5F31E0873D9307B9F717
:1012A00021110E94DB05E091F302F091F4023097E6
:1012B00031F00280F381E02D8FEC91E009940895E4
:1012C000882339F090917003892B809370030C94DC
:1012D00024090895882321F00E94D3050C94240941
:1012E000089590E080E00E94D10890E080E00E94A4
:1012F000E7081092720310925A030C942409809309
:101300006E030C94710980936F030C94710921E0B2
:1013100030E001C0220F8A95EAF780916F03822B9B
:101320000C94830921E030E001C0220F8A95EAF78E
:10133000209580916F0382230C948309909173030D
:101340008095892380937303282F277039F4282FE1
:10135000082E000C330B9217130621F490916C03A6
:1013600092FF0BC08595859585950E9492091092F4
:1013700073031092750310927403089590916C0397
:1013800092FD10C098E0899F90011124622B609318
:1013900073030E9487090E94FD0890937503809350
:1013A000740308950C948709CF93DF9300D000D085
:1013B000CDB7DEB78FB7F8942091A2023091A30287
:1013C0004091A4025091A50229833A834B835C8308
:1013D0008FBF69817A818B819C810F900F900F90D4
:1013E0000F90DF91CF9108959C014FB7F8948091B1
:1013F000A2029091A302A091A402B091A5024FBFB6
:10140000821B930B089587E797E7909301088093D9
:10141000000888E19AE00FB6F894A89580936000E0
:101420000FBE90936000FFCF8091F0010895089562
:10143000FC01CB012091E3013091E401261737072D
:1014400090F0009729F42091E8002E772093E8008F
:1014500040E0009751F4411108C08091E80082FFFC
:1014600031C080E00895C901F3CF2091C302222347
:10147000A9F12530A9F12091E80023FD2DC020918C
:10148000E80022FDEACF2091E80020FFE2CF309172
:10149000F3002091F200009719F02830310558F040
:1014A00041E02830310509F040E02091E8002E7736
:1014B0002093E800CECF41914093F10001972F5F38
:1014C0003F4FE9CF8091C302882341F0853041F03E
:1014D0008091E80083FFC1CF81E0089582E0089504
:1014E00083E008958091DD0187FF13C08091E800BB
:1014F00082FF06C08091E8008B778093E80004C0EB
:101500008091C3028111F2CF08958091C302882394
:10151000D9F38091E80080FFF8CF8091E8008E77C2
:10152000ECCF2091E4003091E50095E6A9012091EF
:10153000EC00822F817020FF06C08091E80080FFC0
:1015400006C080E008952091E80022FD1AC0809135
:10155000C302882389F0853089F08091EB0085FDF6
:101560000FC02091E4003091E50042175307F9F2D3
:101570009150E1F684E0089582E0089583E00895B3
:1015800081E00895E8EDF0E080818E7F8083109205
:10159000E2001092DA001092E100A0EEB0E08C912F
:1015A00081608C9380818F77808319BCA7EDB0E038
:1015B0008C918E7F8C9380818F7E80831092DC0152
:1015C0000895EF92FF920F931F93CF937C018B01AD
:1015D0000E94910AC82F811117C08091E80085FDF3
:1015E0000BC08091E8008E778093E8000E94910AFA
:1015F000882399F3C82F08C0F70181917F01809358
:10160000F1000150110949F78C2FCF911F910F91D3
:10161000FF90EF900895CF932091C3022430F1F40E
:101620002091E900C091EC00C795CC27C7952F7099
:10163000C22B22E02093E9002091E80020FF0BC09C
:1016400050E040E060E270E00E94E10A8091E80032
:101650008E778093E800CF70C093E900CF91089512
:10166000FC01AC014A5F5F4F8FEF91E3219182272C
:1016700028E030E087FF09C0880F89272150310911
:10168000C9F7E417F50791F70895880FF7CF809110
:101690006F03982F9670963019F488600C94830924
:1016A000877FFCCF982F9093E900242F762F50E06E
:1016B000891731F07091EC002091ED005091F0000D
:1016C00021FD06C09F5F973071F78093E900089570
:1016D0003091EB003E7F3093EB003091ED003D7F89
:1016E0003093ED003091EB0031603093EB0070935C
:1016F000EC002093ED005093F0002091EE0027FDC8
:10170000E1CF0895CF92DF92EF92FF920F931F9354
:10171000CF93DF93C8EDD0E088818F7E8883E7ED9B
:10172000F0E080818160808384E082BF81E08093EB
:10173000DC0188818E7F888302EE10E0F801108240
:101740001092DA0081EEC82ED12CF6011082888129
:101750008F77888388818068888388818F7D88835C
:1017600019BC1092C3021092DB01109299021092E0
:10177000DA0190EEE92EF12CF70180818B7F8083D6
:1017800088818160888342E060E080E00E94520BA3
:10179000F60180818E7F8083F80180818160808363
:1017A000808188608083F70180818E7F808388813B
:1017B00080618883DF91CF911F910F91FF90EF900F
:1017C000DF90CF9008959C012115310509F408950B
:1017D0008FE99FE00197F1F700C000002150310927
:1017E000F3CF8091C402811110C08091D800806134
:1017F0008093D8008AE18A95F1F700C08091D900E2
:1018000080FF0AC081E08093C40281E09091C4020D
:10181000913009F080E0089582E08093C4020E9434
:10182000C20A1092C302F1CF0E94F10B882351F03B
:10183000E091F302F091F402309721F00190F081F1
:10184000E02D099480E00895CF93C82F882309F4F0
:1018500088C08238C1F40E94140C81FD82C089E3E3
:101860000E94AD050E9424092FEF31EE84E0215043
:1018700030408040E1F700C0000089E30E94C605C7
:10188000CF910C9424098338A1F40E94140C80FD9C
:1018900068C083E50E94AD050E9424099FEF21EEF8
:1018A00034E0915020403040E1F700C0000083E573
:1018B000E5CF8438A1F40E94140C82FD52C087E465
:1018C0000E94AD050E9424098FEF91EE24E0815023
:1018D00090402040E1F700C0000087E4CFCF8CEFBC
:1018E0008C0F813A70F4E1EDF1E087ED91E0219108
:1018F000C21789F18E179F07D1F78C2F0E94AD0573
:10190000BFCF80E28C0F883068F4C77021E030E0F0
:1019100001C0220FCA95EAF780917003822B809351
:101920007003AECF8BE58C0F833038F42C2F24520C
:10193000330BC901CF910C94D108C85AC73188F430
:10194000EC2FF0E0EE0FFF1FE256FE4F80819181F9
:10195000CF910C94E7088C2F0E94C6050E942409A1
:10196000CCCFCF910895882309F44BC0823871F40D
:101970000E94140C81FF45C089E30E94AD050E94BE
:10198000240989E30E94C6050C942409833859F47C
:101990000E94140C80FF35C083E50E94AD050E94B3
:1019A000240983E5EFCF843859F40E94140C82FF98
:1019B00028C087E40E94AD050E94240987E4E2CF95
:1019C0009CEF980F913AF0F290E2980F983050F413
:1019D000877091E001C0990F8A95EAF7892F0E94DC
:1019E000D305D2CF9BE5980F933020F490E080E0B0
:1019F0000C94D108885A873120F490E080E00C9450
:101A0000E70808950F931F93CF93C82F00913D04CB
:101A100010913E04893321F000913B0410913C0465
:101A20008C2F0E94240C0115110531F48C2FCF91BD
:101A30001F910F910C94B30C8FE99FE00197F1F780
:101A400000C0000001501109EECFAF92BF92CF92BB
:101A5000DF92EF92FF920F931F93CF93DF93EC01EE
:101A60008AE0A82E8881882309F48EC08130D9F5B8
:101A700099818A81913021F422960E94020D05C03D
:101A8000923029F422960E94240C2196EBCF9330B9
:101A900021F422960E94B30CF8CF943011F02196D5
:101AA000F4CF229620E030E0AE014F5F5F4F8053CD
:101AB000990B8A30910560F02115310531F38FE9DA
:101AC0009FE00197F1F700C0000021503109F4CFE9
:101AD000A29EB001A39E700D11249C01260F371FFA
:101AE0008981EA01E1CFE82FF0E0E95DF64FB4909B
:101AF000282F26952695269530E0F901E95EF64FC8
:101B0000E4908770F12C082E02C0F594E7940A94B3
:101B1000E2F791E0E922FF24F901E95FF64FC49072
:101B2000D12C082E02C0D594C7940A94E2F791E014
:101B3000C922DD24F901E950F74F049110E002C0F9
:101B4000159507958A95E2F701701127E114F104C4
:101B500019F081EE0E94240CC114D10419F086EE14
:101B60000E94240C8B2D0E94020DCD2819F086EEC8
:101B70000E94B30CEF2819F081EE0E94B30C012BE8
:101B800009F483CF8CE279CFDF91CF911F910F9130
:101B9000FF90EF90DF90CF90BF90AF900895FF92AD
:101BA0000F931F93CF93DF93C62FD42F122F882329
:101BB000A9F060935F030E94FD089093D801809381
:101BC000D701C77081E001C0880FCA95EAF7DF919D
:101BD000CF911F910F91FF900C94600980915F034A
:101BE000681338C08091D7019091D8010E94F40900
:101BF00020913504309136048217930758F500E29E
:101C00000D0FCD17A9F0C770FF24F3948F2D01C0DD
:101C1000880FCA95EAF70E946A09083048F48D2FA8
:101C2000877001C0FF0C8A95EAF78F2D0E9460092A
:101C3000812F0E94020D0830A0F4D77081E001C00E
:101C4000880FDA95EAF7DF91CF911F910F91FF90FE
:101C50000C946A09C77081E001C0880FCA95EAF741
:101C6000F2CFDF91CF911F910F91FF900895FF92D6
:101C70000F931F93CF93DF938C01EB01F42E809190
:101C80003C0182FF45C08B7F80933C0180915B03C8
:101C900020915D0330915E03AB01421B530B9A010F
:101CA00040913A0150913B0124173507B8F40E9446
:101CB000240C80913C018D7F80933C0180913B04FA
:101CC00090913C040E94E30B80915B030E94B30C53
:101CD000809172038D7F8093720324C09091720370
:101CE0009260909372030E94240C80913C01826068
:101CF00080933C018091380485FFE0CF86FDDECFE4
:101D0000FF20E1F2DF91CF911F910F91FF90089595
:101D1000802F0E94B30C80915B0390915C0380172D
:101D20009107B1F20E942409D0935E03C0935D0332
:101D3000E9CFCF93DF9300D000D0CDB7DEB70E94BC
:101D4000F10B882341F00F900F900F900F90DF91CF
:101D5000CF910C94D4090E94D40969837A838B8330
:101D60009C838091CB029091CC02A091CD02B09146
:101D7000CE0229813A814B815C81280F391F4A1F8D
:101D80005B1FCA01B9010F900F900F900F90DF9168
:101D9000CF9108950E94F10B81110C94FD080E94CF
:101DA000990ECB010895AF92BF92CF92DF92EF923E
:101DB000FF920F931F93CF93DF93F82EE92ED62E29
:101DC000C72E89018091C802AA24A394B12C8A301D
:101DD00018F48AE0A82EB12CC1E0D0E0F8946D2D63
:101DE0007C2D8F2D9E2DF80109957894811104C0CA
:101DF0002196AC16BD065CF4DF91CF911F910F9137
:101E0000FF90EF90DF90CF90BF90AF900895CC9F60
:101E10009001CD9F300D300D112490E080E045E31E
:101E20004A95F1F70000019628173907C1F7D6CF78
:101E3000609103018091640380FF20C080910201C2
:101E400043E0849FC00111248A5B9D4F519A2BB1BE
:101E50002D7F3BB132605FB7F894FC01649FE00DC9
:101E6000F11D1124BF0168177907D1F45FBF8FE519
:101E700094E00197F1F700C00000089580910401FB
:101E80009091050123E0829FF0011124EA5BFD4F50
:101E90008917A0F61182108212828F5F3396F8CFD5
:101EA000FC014191CF01E8E03BB9000000C047FFD1
:101EB0002BB9440F000000C000C000C02BB900C007
:101EC000EA9591F7D0CFEF92FF921F93CF93DF93D4
:101ED000EC0110E0EE24EA94F12C60910601161753
:101EE00070F00E94180F9A818C8190FF28C08F5F3C
:101EF0008C83DF91CF911F91FF90EF900895809197
:101F00000401810F9927991F9C01220F331F280F6D
:101F1000391F2A5B3D4F40916703473908F046E976
:101F200070E0C7010E942733962F8C816091660371
:101F3000199F800D11240E94C8071F5FCECF8150CA
:101F4000D7CFE4E6F3E080818E7F80830E947F0814
:101F5000E1E6F3E08281816082832FEF80E792E007
:101F6000215080409040E1F700C000000C94180F11
:101F70009091640390FF14C0909104012091050199
:101F800033E0939FF0011124EA5BFD4F921710F0AC
:101F90000C94180F8183608342839F5F3396F6CF42
:101FA0000895CF93DF9300D00F92CDB7DEB7909115
:101FB000640390FF12C0473908F046E99E012F5F85
:101FC0003F4F0E94C8074B8169818A810F900F9013
:101FD0000F90DF91CF910C94B80F0F900F900F904E
:101FE000DF91CF910895CF93DF93EC01EC81F0E086
:101FF000E35BFB4F4491E4E6F3E0628181810E9460
:10200000D10F8C818F5F8C83DF91CF910895CF9317
:10201000DF93EC01E4E6F3E0438162818C810E946E
:10202000D10F8C818F5F8C83DF91CF910895CF93F7
:10203000DF93D82FC92F81E08093E9008FEF909133
:10204000E800815095FD06C095ED9A95F1F70000E6
:102050008111F5CF8091E80085FF16C050E040E087
:1020600068E070E08D2F9C2F0E94E10A8091E800CB
:102070008E778093E80088E0ED2FFC2FA8EEB1E08A
:1020800001900D928A95E1F7DF91CF91089590919B
:10209000C302943029F58093E5016093E6017093C3
:1020A000E7019093E9008FEF9091E800815095FD52
:1020B00006C095ED9A95F1F700008111F5CF80915A
:1020C000E80085FF0DC050E040E063E070E085EE81
:1020D00091E00E94E10A8091E8008E778093E80009
:1020E0000895BC0183E00C944710BC0184E00C947B
:1020F0004710CF93C0916C03C2FB992790F99817B2
:1021000081F080FBC2F9C0936C0360916B0384E0A3
:1021100090E00E949F336C2F82E290E0CF910C946C
:102120009F33CF910895CF93C82F6FEF81116CE546
:1021300083E290E00E949F336FEFC11168E284E276
:1021400090E00E949F336FEFC11160E485E290E060
:10215000CF910C949F330F931F93CF93DF938901FB
:10216000843048F56C3038F5463028F521153C456B
:1021700031F42091950230919602232BE1F0C42F87
:10218000D0E0CC0FDD1F9CE0699FC00DD11D112454
:1021900090E9899FC00DD11D1124612FCE01879632
:1021A0000E949F33602FCE018896DF91CF911F91BF
:1021B0000F910C949F33DF91CF911F910F91089550
:1021C000CF93DF93C9EDD2E060E0CE010E949F3350
:1021D0002196C11584E0D807B9F7DF91CF91089512
:1021E000CF9384E090E00E948B33C82F82E290E08E
:1021F0000E948B33982F8C2FCF91089583E290E02B
:102200000E948B338C3589F484E290E00E948B33FA
:10221000883259F485E290E00E948B3391E080345B
:1022200009F090E0892F8170089580E0FCCF0F9332
:102230001F93CF93DF93843030F56C3020F5463018
:1022400010F5C42FD0E0CC0FDD1F2CE0629FC00D35
:10225000D11D112430E9839FC00DD11D1124CE0161
:1022600087960E948B33082F10E0102F0027CE0195
:1022700088960E948B339801282BC901DF91CF915A
:102280001F910F91089590E080E0F8CF462F672FBF
:102290002091970230919802232B41F4843030F43E
:1022A0007C3020F4463010F40C94171190E080E05C
:1022B0000895DF92EF92FF920F931F93CF93DF93D6
:1022C0007C0100916F0380916E03082BC7E0D0E082
:1022D00010E0DC2EC8010C2E02C0959587950A945B
:1022E000E2F780FD0CC02197A0F7D12C8D2DDF9156
:1022F000CF911F910F91FF90EF90DF900895B7015C
:102300008C2F0E9446110E942906019761F3EECF9F
:10231000CF93DF93D82FC92F0E9459116D2F7C2F97
:102320000E944611DF91CF910C942906FC01868111
:102330009781009721F00E9429060C941D05808149
:1023400091810E948811F9CF1F93CF93DF93182FAB
:10235000D92F662391F0442381F00E945911C82F90
:10236000682F812F9D2F0E944605612F7D2F8C2F76
:10237000DF91CF911F910C9446110E947605C82FD2
:10238000F4CFFC01462F86819781009729F4628162
:10239000808191810C94A41108950F931F93CF9382
:1023A000DF930DE114E0C7E6D2E0CE010E948B334B
:1023B000F80161918F01681719F0CE010E949F33D7
:1023C0002196C938F2E0DF0781F7DF91CF911F91A5
:1023D0000F9108950F931F93CF93DF930DE114E0B6
:1023E000C7E6D2E0CE010E948B33F80181938F01C2
:1023F0002196C938F2E0DF07A9F7CDE5D6E0FE0166
:1024000085919491009711F0FC0109952896F6E0CA
:10241000CD3ADF07A1F7DF91CF911F910F9108957A
:10242000EDE1F4E0128E138E8FEA90E091838083C9
:1024300085E0848F88E893E19383828382E390E050
:10244000978B868B88EC90E0918F808F158E8AE039
:1024500090E0978F868F80E590E091A380A30E9403
:10246000CD110C94EA1110927003E1EDF1E086E0D9
:10247000DF011D928A95E9F70C9471091F93CF93A0
:10248000DF93CDB7DEB7AA970FB6F894DEBF0FBEC5
:10249000CDBF8DED91E0FC0101962091F1002083EC
:1024A00021E0853E9207B9F78091DE01893009F479
:1024B00056C0C8F4823009F4B2C0833009F481C038
:1024C000813071F18091E80083FF8EC28091DD013F
:1024D0009091DE019A3008F087C2E92FF0E0E352D4
:1024E000FC4C0C943B338A3009F488C08B3051F794
:1024F0008091DD01813231F78091E1019091E2011B
:10250000892B01F78091E800877F8093E8000E9483
:10251000720A8091DF01809300010E943312D2CFB2
:102520008091DD01813A71F68091E800877F809388
:10253000E8008091E1019091E201892B61F468E06B
:1025400088EE91E070E00E94180A8091E8008B7795
:102550008093E800B7CF60E090E080E0F3CF809117
:10256000DD01813209F0AECF8091E1019091E2016D
:102570008D7F892B09F0A6CF8091E800877F80931B
:10258000E8008091E80082FF17C09091F3008091ED
:10259000F200029729F48091F1008B7F813021F4C1
:1025A0008091F1008093F0018091E8008B77809317
:1025B000E8000E94720A86CF8091C3028111E1CFA8
:1025C00081CF8091DD01813A09F07CCF8091E101DA
:1025D0009091E201892B09F075CF8091E800877F07
:1025E0008093E8008091E80080FFFCCF809100019B
:1025F0008093F1008091E8008E77D9CF8091DD0142
:10260000813209F05FCF8091E800877F8093E800F6
:102610000E94720A8091E0018093D90153CF80918A
:10262000DD01813A09F04ECF8091E800877F8093E9
:10263000E8008091E80080FFFCCF8091D901D8CFDD
:10264000803899F0823809F0CFC18091E1018F7014
:10265000873008F0C9C18093E9008091EB0085FBC9
:10266000882780F91092E90006C08091DA019091E4
:102670009902911182609091E800977F9093E80011
:102680008093F1001092F1008091E8008E77A8C14C
:10269000882309F496C1823009F0A6C18091DF0138
:1026A000811199C18091E1018F702FEF280F2630A1
:1026B00008F09AC18093E9002091EB0020FF8BC1C4
:1026C000933031F48091EB0080628093EB0083C102
:1026D0009091EB0090619093EB0021E030E001C01D
:1026E000220F8A95EAF72093EA001092EA0080917F
:1026F000EB008860EACF811177C11091DF011F776D
:102700008091E3008078812B8093E3008091E80042
:10271000877F8093E8000E94720A8091E80080FF22
:10272000FCCF8091E30080688093E30082E0111188
:1027300083E08093C30258C18058823008F054C1AE
:102740004091DF015091E0014C3D83E0580799F53D
:1027500083E08A838AE289834FB7F894DE01139677
:1027600020E03EE051E2E32FF0E0509357008491E7
:1027700020FF03C082958F703F5F8F708A30C8F052
:10278000895C90E08D939D932F5F243161F74FBF5B
:102790008091E800877F8093E8006AE270E0CE01D4
:1027A00001960E94180A8091E8008B778093E800D8
:1027B0001BC1805DE6CF8091E1019091E201252F60
:1027C00033272330310509F44AC078F5213031052B
:1027D00009F486C08BE590E0E0E4F1E022303105B9
:1027E00009F002C12091E800277F2093E8002091A2
:1027F000E3013091E4018217930708F49C0140E063
:102800002115310509F071C041116FC08091E800B8
:1028100082FDC9CF8091C302882329F2853019F245
:102820008091E80083FFF2CFBECF2132310509F459
:1028300048C02232310509F0D7C08330910508F035
:10284000D3C0FC01EE0FFF1FE159FE4F0190F08154
:10285000E02D84599E4FDC018C9190E026C0CA0186
:102860009927423031F18330910568F40097B1F037
:10287000019709F0B9C0E9EFF1E0E4918E2F90E003
:10288000E9EFF1E012C0039709F0AEC0EDEAF1E024
:10289000E4918E2F90E0EDEAF1E007C0E9E0F2E08C
:1028A000E4918E2F90E0E9E0F2E0009709F49CC0FB
:1028B00099CFEBECF1E0E4918E2F90E0EBECF1E0BE
:1028C000F4CF8330910508F08FC0880F991FFC0169
:1028D000EB58FE4F0190F081E02D89E090E082CF2F
:1028E00082E190E0EBE9F1E07DCF8091C3028823A3
:1028F00009F459CF853009F456CF8091E80083FD63
:1029000052CF8091E80082FD81CF8091E80080FF66
:1029100077CF9091F3008091F2002115310519F0E5
:102920008830910550F041E0089709F040E080912F
:10293000E8008E778093E80063CF44914093F100E4
:102940003196215031090196E8CF803809F04CC00A
:102950008091E800877F8093E8008091DB0180937D
:10296000F10092CE811140C01091DF011230E0F5EC
:102970008091E800877F8093E8001093DB010E943C
:10298000720A112311F084E005C08091E30087FDF5
:10299000FACF81E08093C30242E061EC81E00E94C3
:1029A000520B42E261EC84E00E94520B42E261EC85
:1029B00082E00E94520B42E260EC83E00E94520BE4
:1029C00013C08091DF01813079F481E0933009F008
:1029D00080E0809399021092E9008091E800877F5F
:1029E0008093E8000E94720A8091E80083FF0AC089
:1029F0008091E800877F8093E8008091EB008062FF
:102A00008093EB00AA960FB6F894DEBF0FBECDBF41
:102A1000DF91CF911F9108950F931F93CF93DF9371
:102A20008B01D82FC92F0E946908A8016D2F7C2F18
:102A300088E090E0DF91CF911F910F910C94B1331A
:102A4000E4E6F3E08DE0808311828FEF828386E9F4
:102A500083831482E1E6F3E08281836082836DE008
:102A600070E08FEF96E90C940C15CF93DF9300D0B4
:102A700000D0CDB7DEB780916803833018F48F5F44
:102A8000809368038091640390916503A09166032D
:102A9000B091670389839A83AB83BC83BC01CD016A
:102AA0000F900F900F900F90DF91CF910C940C1519
:102AB000CF93DF9300D000D0CDB7DEB7809168030D
:102AC000882319F08150809368038091640390916A
:102AD0006503A0916603B091670389839A83AB83F2
:102AE000BC83BC01CD010F900F900F900F90DF9130
:102AF000CF910C940C15EF92FF920F931F93CF93ED
:102B0000DF9300D000D000D00F92CDB7DEB7082FF2
:102B1000F62E142FE22E8091640380FF5EC0E82F12
:102B2000E695F0E0E558FE4F9081909361038E7F2B
:102B3000823009F044C0473908F046E99E012F5F12
:102B40003F4F6F2D802F0E94C8074B8169818A817A
:102B50000E94B80F80916503801308C080916603BE
:102B60008F1104C080916703811729F0809163035E
:102B700082608093630300936503F0926603109371
:102B80006703EE2051F18091640390916503A09159
:102B90006603B09167038C839D83AE83BF83BC01C2
:102BA000CD0127960FB6F894DEBF0FBECDBFDF91E3
:102BB000CF911F910F91FF90EF900C940C159230D4
:102BC00019F410916703C6CF80916503963019F010
:102BD000993009F0BFCF082FBDCF27960FB6F894D4
:102BE000DEBF0FBECDBFDF91CF911F910F91FF9040
:102BF000EF900895E4E6F3E0818121E04381628172
:102C0000885F0C947B15E4E6F3E0818121E0438149
:102C1000628188500C947B15E4E6F3E0628121E147
:102C2000620F08F46FEF21E0438181810C947B15E2
:102C3000E4E6F3E0628121E1621B08F460E021E058
:102C4000438181810C947B15E4E6F3E0438121E12B
:102C5000420F08F44FEF21E0628181810C947B15D3
:102C6000E4E6F3E0438121E1421B08F440E021E087
:102C7000628181810C947B1590E080E00E94993301
:102C80008A3E9E4F11F40C94FE1080E00895CF937D
:102C9000DF93CDB7DEB728970FB6F894DEBF0FBE2F
:102CA000CDBF40919E0250919F026091A002709111
:102CB000A1022FB7F8948091A2029091A302A09153
:102CC000A402B091A5022FBF841B950BA60BB70BD6
:102CD00084369105A105B10570F10E94990EDC01C1
:102CE000CB010296A11DB11D89839A83AB83BC835E
:102CF0008091290190912A018A559D4F20912801A8
:102D0000422F50E0253010F044E050E0BE016F5FEC
:102D10007F4F0E946B3382E090E00E945F32892BEC
:102D200061F40E94D40960939E0270939F02809385
:102D3000A0029093A10281E001C080E028960FB626
:102D4000F894DEBF0FBECDBFDF91CF9108950F93F2
:102D50001F93CF93DF9300D000D000D00F92CDB758
:102D6000DEB78B0190E080E00E945F32892B09F092
:102D70007EC080911701482F50E0882311F041E078
:102D800050E060911801709119016A557D4FCE0194
:102D900007960E946B334091BF025091C002609130
:102DA000C1027091C2022FB7F8948091A202909153
:102DB000A302A091A402B091A5022FBF841B950B82
:102DC000A60BB70B84369105A105B10540F487EA3F
:102DD00092E00E94300B9F81891709F455C081E071
:102DE00090E00E945F32892BA1F080E096E0E9EB51
:102DF000F2E0D80101900D929A95E1F727960FB66F
:102E0000F894DEBF0FBECDBFDF91CF911F910F9120
:102E1000089580912101482F50E0873010F046E05E
:102E200050E060912201709123016A557D4FCE01DF
:102E300001960E946B3387EA92E00E94300B9F81DB
:102E40008913D3CF0E94D4096093BF027093C0024C
:102E50008093C1029093C20286E0FE013196A9EBF5
:102E6000B2E001900D928A95E1F781E0BFCF80E05A
:102E700096E0E7EAF2E0DE01119601900D929A9554
:102E8000E1F78111E9CFB2CF81E0F2CFCF92DF92AB
:102E9000EF92FF92CF93DF93CDB7DEB728970FB6AF
:102EA000F894DEBF0FBECDBF85E0E4E6F3E09E01FF
:102EB0002F5F3F4FD90101900D928A95E1F7409124
:102EC000610390916203809163034E839F8388879F
:102ED000C0909A02D0909B02E0909C02F0909D02DC
:102EE0009FB7F8944091A2025091A3026091A4026E
:102EF0007091A5029FBF4C195D096E097F09E22FF1
:102F0000443651056105710510F4882311F1809153
:102F10003301909134018A559D4F20913201422F07
:102F200050E0293010F048E050E06E2F732F0E94DF
:102F30006B3383E090E00E945F32892BD1F40E94D2
:102F4000D40960939A0270939B0280939C029093A1
:102F50009D021092630381E028960FB6F894DEBFBD
:102F60000FBECDBFDF91CF91FF90EF90DF90CF905C
:102F7000089580E0F1CFCF92DF92EF92FF920F930E
:102F80001F93CF93DF93CDB7DEB72A970FB6F89490
:102F9000DEBF0FBECDBFE6EFF1E080E5DF011D92A1
:102FA0008A95E9F7E5EEF3E088E3DF011D928A9563
:102FB000E9F786EFC82E81E0D82E7F0109E812E0FC
:102FC000F701D182C0824AE050E0B801CE010196FB
:102FD0000E947B3388E0FE013196D60101900D926C
:102FE0008A95E1F789859A85D70113969C938E93EC
:102FF0001297BAE0CB0ED11CE7E0EE0EF11C065F93
:103000001F4F093DF2E01F07D9F62A960FB6F89434
:10301000DEBF0FBECDBFDF91CF911F910F91FF900B
:10302000EF90DF90CF9008957F928F929F92AF9212
:10303000BF92CF92DF92EF92FF920F931F93CF93A5
:10304000DF93CDB7DEB72A970FB6F894DEBF0FBE79
:10305000CDBFA0909502B090960281E090E0909351
:10306000960280939502912C812CE12C6401F12C25
:1030700015C0F80125913491472D6F2D8E2D0E949A
:10308000AB100E5F1F4F739486E07812F2CFA6E06C
:10309000CA0ED11CF394BCE0FB1639F08601000F78
:1030A000111F035F1D4F712CE4CFE39488E4880E59
:1030B000911CA4E0EA12DACF0E941012FE013196B0
:1030C0008AE0DF011D928A95E9F709E812E07F01A5
:1030D0004AE050E0B801C7010E94C333065F1F4FAA
:1030E000093DB2E01B07A1F7B0929602A0929502AB
:1030F0002A960FB6F894DEBF0FBECDBFDF91CF91F9
:103100001F910F91FF90EF90DF90CF90BF90AF9005
:103110009F908F907F90089580E00E94931060E0D0
:1031200086E290E00E949F330E9414180E94E010F3
:1031300081E00C9493106AEE7EEF90E080E00E94B4
:10314000BD3360E082E090E00E949F3360E083E066
:1031500090E00E949F3310926E0360E084E090E064
:103160000E949F3360E082E290E00E949F3360E023
:1031700085E090E00E949F3360E086E090E00E944E
:103180009F336FEF87E090E00E949F3340E050E074
:10319000BA0188E090E00E94B13360E08DE090E0F9
:1031A0000E949F3340E050E0BA0188E190E00E9425
:1031B000B13360E087E190E00E949F3340E050E04F
:1031C000BA018CE190E00E94B13370E060E080E2EF
:1031D00090E00E94BD3340E050E0BA0188E190E009
:1031E0000E94B13380E00E9493100E948C1840E04E
:1031F00050E0BA018FE090E00E94B13340E050E02F
:10320000BA0183E190E00C94B13360916403669558
:1032100070E041E050E081E091E00E945133892B61
:1032200019F481E0809362030E94CA0E9093D40245
:103230008093D30280916303846080936303089535
:10324000CF93DF9300D000D0CDB7DEB79091640369
:1032500090FF4CC0882309F442C08F3008F041C071
:103260008F77880F909164039170892B809364030A
:1032700080916303816080936303662381F0809172
:10328000640390916503A0916603B09167038983FD
:103290009A83AB83BC83BC01CD010E940C15609165
:1032A0006403669570E041E050E081E091E00E94A7
:1032B0005133892BC1F00E947F0881E08093D602B0
:1032C00020E04091670360916603809165030F9051
:1032D0000F900F900F90DF91CF910C947B1581E0B0
:1032E000C0CF8EE0BECF0E940519E7CF0F900F90A0
:1032F0000F900F90DF91CF91089580916403869590
:103300008F5F8F3008F081E061E00C94201990917C
:10331000640396958FEF890F913009F48EE061E098
:103320000C9420199091640390FF07C0969598170C
:1033300020F0961710F40C947D1961E00C9420197C
:103340009F92AF92BF92CF92DF92EF92FF920F9334
:103350001F93CF93DF93CDB7DEB728970FB6F894BE
:10336000DEBF0FBECDBF6C01DC019C9111968C912C
:10337000119713962D913C91232B21F089238F3F98
:1033800009F05DC628960FB6F894DEBF0FBECDBF1C
:10339000DF91CF911F910F91FF90EF90DF90CF9031
:1033A000BF90AF909F900895C80182519F4540976C
:1033B00008F0DFC58FEF93E00E948B332EEEF22EE4
:1033C000F00E09ED12E0882349F1809173038770B4
:1033D000C9F2D60112968C918823A1F282E0289638
:1033E0000FB6F894DEBF0FBECDBFDF91CF911F9116
:1033F0000F91FF90EF90DF90CF90BF90AF909F9094
:103400000C949E090115B4E01B07F9F2C8010E9453
:103410008B33811101C0FA940F5F1F4FF110F2CF6F
:1034200080913E0190913F01A0914001B0914101F6
:1034300089839A83AB83BC8399249A947801EFEFB4
:10344000EE1AFE0AC8010E948B3389831A828823F0
:1034500009F4BBCF813009F048C05801F2E0AF0E4B
:10346000B11CC7010E948B33E82E8A83882309F49C
:10347000ACCFC5010E948B33F82E8FEF8E0D8330B9
:1034800068F4580123E0A20EB11CFB82FF2021F05A
:10349000CE0101960E94250D8501D0CF34E0E312C4
:1034A000FBCF580144E0A40EB11CC80103960E9452
:1034B0008B33FF2009F489CF882309F486CF81500C
:1034C000990B989E9001999E300D1124AF2DA1501B
:1034D000BB0BCD01820F931F0197F0F2EFE9FFE0E4
:1034E0003197F1F700C00000F7CFCE0101960E949E
:1034F000250D5701D1CF81E00E9487090E94470B1B
:1035000064CF81E00E949209F9CF82E0F5CF8091EB
:103510003C01816080933C01D60112963C9133239B
:1035200009F4A3C510925F030631BCE51B0708F040
:10353000B6C00230ECE51E0708F47DC20E94F01010
:1035400090936C0380936B030631FCE51F0708F032
:10355000ECC002302CE5120708F0DAC060916B0372
:1035600010916C0384E090E00E949F33612F82E20F
:1035700090E00E949F330E94331227CF80913C013C
:103580008E7FC8CF0933110560F40D32110520F488
:103590000B32110509F034C58091380482FD30C525
:1035A00008C004361105C1F32BC58091380484FD91
:1035B00027C5D60112968C91882309F446C08091C4
:1035C0003C0180FF1DC59091380491FD04C02091FD
:1035D0007003211115C595FF27C020915D0330911F
:1035E0005E03F701E21BF30B9F0196FD02C081FD14
:1035F0001BC0283C3105C0F420915B0330915C0373
:103600000217130789F481FD09C0802F0E94240C42
:10361000DCCE8091380483FDF3C4CBCF809172035C
:10362000826080937203F1CF10935C0300935B037D
:10363000F0925E03E0925D0380913C018460809390
:103640003C0182E00E949E09C0CE40E0B701C80163
:103650000E94370EBACE053F4CE51407C9F027E2A9
:1036600045EE66EE063F5CE5150709F4E5C427E282
:1036700045EE64EE043F9CE5190709F4DDC44CCF28
:1036800027E245EE65EED8C426E241EE60EED4C4F2
:1036900026E241EE62EED0C428E241E0F3CFC80159
:1036A0008A5F9C45099708F449CF06314CE5140719
:1036B00009F0BDC180917003982F9A7A2091370448
:1036C00020FF04C0482F447409F090E021FF04C09B
:1036D000482F417109F090E022FF04C0482F48783C
:1036E00009F090E023FF03C0827209F090E03323D9
:1036F00009F4B6C081E0911101C080E080936003BD
:1037000089E2911185E30E94AD050E9424095DCEF6
:10371000F801E350FC4580916B038160E331F105D2
:10372000B8F4E951FC4C0C943B33C8018A5F9C45CA
:10373000099708F013CFF801EB5FFC45E830F1057D
:1037400090F4E650FC4C0C943B3380916B03826008
:1037500080936B0303CF80916B038460F9CF8091DA
:103760006B038860F5CF80916C03816080936C035C
:10377000F5CE80916C038260F9CF80916B038061FC
:10378000E7CF80916B038062E3CF80916B0380640D
:10379000DFCF0E94331280916B038068D9CF809174
:1037A0006B038C60D5CF80916C038360DFCF8091F9
:1037B0006B038E7FCDCF80916B038D7FC9CF8091BE
:1037C0006B038B7FC5CF80916B03877FC1CF8091C7
:1037D0006C038E7FCBCF80916C038D7FC7CF8091A0
:1037E0006B038F7EB5CF80916B038F7DB1CF8091BE
:1037F0006B038F7BADCF0E94331280916B038F7769
:10380000A7CF80916B03837FA3CF80916C038C7FC4
:10381000ADCF80916B0382FB992790F921E092272D
:1038200090FB82F990FB83F993CF80916C03982FE2
:10383000909591708E7F892B90FB81F997CF0E9494
:10384000331290916B03892F97FB87F9805880CFB3
:1038500061E08EE090E00E949F3380CE60E0F9CF7F
:1038600080916003811104C089E20E94C6054DCF9A
:1038700085E3FBCF0D351D4509F4A7CDF601868103
:103880009781009709F409C10E942906182FF92E83
:10389000F601B280E580E2949FE0E9228091730313
:1038A0008770A1F0AB2CBB2091F08F2D807F8034EE
:1038B00021F080E2810F883048F082E00E949E096A
:1038C000809173038770AA24A3948111A12C9F2C4B
:1038D00092948FE09822F8E09F1609F40CC2F91533
:1038E00008F434C123E0291508F4EEC08F2D807F41
:1038F0000F2D0F7031E0391508F03BC1803211F007
:103900000295007F112309F46CC1113009F4B9C18B
:10391000BB2009F4C2C1EE2009F490C140E0F601D9
:103920006281808191810E94A41180913A0481FD7D
:1039300035C1D60115968C91159780FF2FC18F70D8
:1039400015968C937BC18091640380FF26C08E7F87
:103950008093640320916403309165034091660372
:10396000509167032D833E834F835887CA01B90165
:103970000E940C150E947F088091630381608093F0
:1039800063033FEF40E752E0315040405040E1F7E1
:1039900000C000000E94180F18CD8160809364035E
:1039A00061E086950E94201910CD47E859E16DE746
:1039B00079E10E94860809CD4DE759E167E879E190
:1039C000F8CF43E056E16AEF75E1F3CF4AEF55E1F6
:1039D00063E076E1EECF48E156E16CE076E1E9CFD5
:1039E0004CE056E168E176E1E4CF40E356E164E281
:1039F00076E1DFCF44E256E160E376E1DACF48E5F5
:103A000055E165E375E1D5CF45E355E168E575E13D
:103A1000D0CF61E081E0C6CF65E082E00E949219DC
:103A2000D4CC68E086E0FACF6EE089E0F7CF0A35C3
:103A30008DE5180771F10B359DE5190758F401154F
:103A4000ACE51A07C9F00E3D1C4509F017CF0E94DE
:103A50009B18BBCC0B35EDE51E07E9F00C351D4579
:103A600009F00CCF80916C0382FB882780F991E0EC
:103A700089270E94791002CF0E9433122FEF34E37E
:103A80004CE0215030404040E1F700C000000E946F
:103A9000030A81E0EECF80E0ECCF8281E080F1800C
:103AA000882369F0C7010E945911182F682FC70198
:103AB0000E944605B701812F0E944611E5CEC7013D
:103AC0000E947605182FF6CF44E0941609F4F7C04B
:103AD000292D2850330B2430310510F40E94140C8A
:103AE000812F9F2D0E941D05811124C21092400438
:103AF00010923F04AA20A9F08091730380FD11C0A9
:103B0000F60112828595859585950E948709C601E3
:103B10000E94A019809173038595859585950E94D3
:103B2000920960E0C60128960FB6F894DEBF0FBE7A
:103B3000CDBFDF91CF911F910F91FF90EF90DF905C
:103B4000CF90BF90AF909F900C94C11159E0951603
:103B500009F443C186E0890D8F70823008F0B8CF38
:103B6000123F09F04AC18F2D8F71BB2009F491C11A
:103B700041C1882311F00295007FBB20C9F00023CA
:103B800069F080E2810F883010F011110BC0809134
:103B90007003802B809370030E942409812F0E9460
:103BA000240C96CF80917203802B80937203F4CF04
:103BB000812F0E94B30C002309F48ACF80E2810F89
:103BC000883010F0111106C0802F0E94D3050E948A
:103BD00024097ECF00958091720380238093720325
:103BE000F6CFBB2069F1E11006C080916D03802BF8
:103BF0000E9460096DCF81E0E81213C080916C03D0
:103C000082FD66CF80916D03082B081709F460CF01
:103C10000E94FD0890936A038093690300936D03EB
:103C200057CF80913904823000F3E812DECF0E9432
:103C3000DB0580917103081300937103802FD8CFA7
:103C4000E11006C00E94DB05802F0E946A0940CF68
:103C50008091390491E0E9120FC0823008F438CF26
:103C600080917003802309F433CF809171038823FE
:103C700049F310927103E6CF823020F3E812E2CFCD
:103C800027CFBB2029F0A5E0AE1508F421CFD6CF71
:103C9000B4E0BE1508F41CCFD7CFEE20A9F2809176
:103CA0003D0490913E04193321F080913B049091A2
:103CB0003C040E94E30B812F0E94B30C09CF8F2D8F
:103CC00086958695837069F0813009F001CF812F48
:103CD0009F2D9370B11002C090E080E00E94E70831
:103CE000F7CE812F9F2D9370B11002C090E080E03D
:103CF0000E94D108EDCE8F2D8370A9F5B110E8CECA
:103D0000812F829586958770880F880F412F4F707D
:103D1000082E01C0440F0A94EAF7212F207114FFE6
:103D200007C02FE030E001C0220F8A95EAF7209506
:103D30009F2D969596959370923081F0822F842BCB
:103D4000933031F080916E03913029F0242B82233F
:103D50000E947F09BDCE842B822BFACF242B809129
:103D60006E038227F5CFBB2069F1F0FEB1CE812F23
:103D7000829586958770880F880F412F4F70082E87
:103D800001C0440F0A94EAF7212F207114FF07C0E5
:103D90002FE030E001C0220F8A95EAF720959F2D91
:103DA000969596959370923099F0822F842B93304C
:103DB00031F080916F03913041F0242B82230E94D7
:103DC000830986CEF1FE84CED2CF842B822BF7CF0F
:103DD000242B80916F038227F2CF0F2D0F70BB2011
:103DE00029F0802F0E948709812F02CF812F0E9406
:103DF0006A09802F0E9492096BCE133F68F4103F2E
:103E000061F1113F09F440C0BB2009F48EC0E110FC
:103E1000C5CE8F2D8F713DC0133FF1F1143FA1F737
:103E200020913904223008F469C080917103BB20CD
:103E300009F44CC00E94D3058091730387708430CD
:103E4000B9F51092730310927503109274038F2DBD
:103E50008F710E949209A12C3BCEBB2081F0B4E06F
:103E6000BE1508F435CE2F2D2F7181E090E001C0F2
:103E7000880F2A95EAF790916F038927A0CFE5E094
:103E8000EE1508F425CEEFCF8F2D8F71BB2009F4EE
:103E9000B1CF0E9487091CCE80E0BB2009F48FCFF0
:103EA00081E09F2D9F7101C0880F9A95EAF787CF17
:103EB00080913904E81678F60F2D0F71802F0E943B
:103EC000870963E0802F0E94BE09C5CF90917003DF
:103ED000982B90937003E21668F01092730310927F
:103EE00075031092740381111092710364E08F2D99
:103EF0008F71E9CF81E00E949E09ADCFBB2051F0C8
:103F00000F2D0F71802F0E94870963E0802F0E9480
:103F1000BE09DECD81E00E949E09F1E0FE1508F0A9
:103F2000D7CD82E00E949E09D3CDE110B8CE8F2D6F
:103F30008F7160CFBB2019F0E110D8CDDBCDE1103F
:103F4000D5CD40E0D60112966C9112978D919C913F
:103F50000E94A41180913A0483FFC8CD80913F0450
:103F600090914004029709F0C1CD812F0E94020D6B
:103F7000BDCD0031FFE51F0709F4BDCA01312FE5B2
:103F8000120709F4C2CA8091380480FF39C00E9428
:103F9000FD087C01D60112968C91882321F1809135
:103FA0003C0182FF06C040E0B70190E080E00E9443
:103FB000370E809172038D7F809372030B31BCE5C5
:103FC0001B0709F4A4CA0C31ECE51E0709F4D6CA94
:103FD00090913C01892F8E7F90FF81600A31FCE532
:103FE0001F0709F497CA0832110508F0CBCA0E3131
:103FF000110508F00ECBC80104974A9708F4D5CAFA
:10400000D60112968C91033FBCE51B0709F43CCB0B
:1040100008F021CB083DFCE51F0709F431CB093D31
:104020002CE5120709F438CB26E241EE61EE073D9C
:104030003CE5130709F070CA0E94CF0DC6C961E0C4
:10404000C6010E94C1118C01D60112968C9181117A
:10405000ABC900313FE5130709F453CA01314FE5FD
:10406000140709F090CF82E04DCA0631BCE51B076A
:1040700009F420CB809170038272063D5CE5150740
:1040800008F0F8CB023C9CE5190708F4F7CBF801DF
:10409000E35CFC45E331F10508F055CCEE5FFB4CE9
:1040A0000C943B33EF92FF920F931F93CF93DF93C8
:1040B00080913C03807F31F480913903C091F602F6
:1040C000811119C0DF91CF911F910F91FF90EF9057
:1040D0000895809137039091380320913A033091ED
:1040E0003B03D0E02115310521F0492F48234F3FF4
:1040F00039F42196C7708091F5028C13EACFE2CF94
:104100008E0143E0000F111F4A95E1F7F801E950D5
:10411000FD4F41819413EDCF90819813EACF8281B6
:104120008111E7CFE380F480E21AF30A60E087E3CD
:1041300093E00E94C1118091350490913604E816F5
:10414000F906B8F680913C038F70806180933C0340
:10415000F801E450FD4F80818F708061808387E398
:1041600093E00E94A019DF91CF911F910F91FF90D2
:10417000EF900C94A3057F928F929F92AF92BF9283
:10418000CF92DF92EF92FF920F931F93CF93DF9323
:10419000CDB7DEB72D970FB6F894DEBF0FBECDBFFB
:1041A0008C0185E0F801DE01199601900D928A9547
:1041B000E1F7D801BC901196AC9011971296EC9053
:1041C00012971396CD90DC9090913703809138032D
:1041D00020913A0330913B032115310521F08923C9
:1041E0008F3F09F0A7C1EE2009F4A0C0C8010E94CA
:1041F0009611F82E882309F499C088E0F801A7E306
:10420000B3E001900D928A95E1F70E94522027C1F8
:1042100060E087E393E00E94C11180913A0480FD41
:10422000C1C1CD2829F08B2D8A218F3F09F0EEC026
:1042300080E0A82FA170DA2EE091F6022091F5021D
:1042400080FD1EC0EE2009F40AC180913C0381600C
:1042500080933C03F12C03C18E2F90E0B8E0EB9FDC
:10426000F0011124E950FD4F31813A1106C030812F
:104270003B1103C032813E11E5CF0196E82FE77074
:10428000E213EACF89859A850E948811292F229509
:104290002F70903260F0225F2F70223078F49F7080
:1042A00051F0F8019581907F31F4D12C0AC09F70B4
:1042B00011F08823D1F3805E8830B8F3C8010E94E2
:1042C000A019FD2CCCC0452B29F0282F29232F3FE6
:1042D00009F0DAC0C8010E949611882339F1EE2056
:1042E00029F180913C038032A0F0809137039091B6
:1042F00038039A8389831B82DD82CC827E828091FF
:104300003D0390913E0398878F83CE0101960E94D2
:10431000A01988E0F801A7E3B3E001900D928A9517
:10432000E1F70E945220FF24F39499C0C8010E9433
:10433000A019F9CF872D807F61F487E393E00E9475
:10434000A01988E0E7E3F3E0DF011D928A95E9F721
:1043500081CF809137039091380320913A033091B7
:104360003B03232B09F4B6CF282F29232F3F09F431
:10437000B1CFF80121812913ADCFF80190819813B5
:10438000A9CF20913D0330913E0386819781281764
:10439000390709F09FCFE1109DCF7582C8010E94B7
:1043A000A019E7E3F3E088E0DF011D928A95E9F7C1
:1043B00056C060E087E393E00E94C111809135040C
:1043C000909136048816990660F7FE2CEE2009F4C9
:1043D000ADCF809137039091380320913A0330910B
:1043E0003B03232B29F0282F29232F3F09F071C0ED
:1043F000C8010E94961181118CCF80913C0381608D
:1044000080933C03C8010E94A01929C081E08E2539
:1044100010CF81E08E25CFC0F80121812913B5C0CE
:10442000F80190819813B1C020913D0330913E0373
:10443000868197812817390709F0A7C0E110A5C028
:1044400080913C038F70806180933C0387E393E00D
:104450000E94A01980913C03D80115968C938F2D52
:104460002D960FB6F894DEBF0FBECDBFDF91CF9172
:104470001F910F91FF90EF90DF90CF90BF90AF9082
:104480009F908F907F900895D80111962C912913B9
:1044900021CFD8019C9198131DCF20913D033091DD
:1044A0003E0316968D919C9117972817390709F0AE
:1044B00011CFE1100FCF15967C92C8010E94A01970
:1044C00088E0F801A7E3B3E001900D928A95E1F747
:1044D000C6CFD80111962C9129138ACFF80190816B
:1044E000981386CF20913D0330913E0386819781BA
:1044F0002817390709F07CCF60E087E393E00E943A
:10450000C11180913A0482FDDBCF80913C0380FD94
:10451000D7CF982F907FA1F2D80115968C9315973D
:10452000903F59F2982F907F905F8F70892B15964E
:104530008C93C3CFF09039034601821A930AFF206F
:1045400009F437CF60E087E393E00E94C1118091C6
:1045500035049091360470903C038816990608F053
:10456000E9CE809137039091380340913A035091FE
:104570003B03272D207F09F0A6CEFE2C452B29F0EA
:10458000282F29232F3F09F047CF60E087E393E0EE
:104590000E94C1118091350490913604843F91406E
:1045A00008F436CEC114D10429F08B2D8A218F3F17
:1045B00009F02FCF80E0E091F6022091F50280FF14
:1045C00030CEE21709F42DCE8E2F90E038E0E39F35
:1045D000F0011124E950FD4F31813A1106C03081BC
:1045E0003B1103C032813E11A8CE0196E82FE7703F
:1045F000E8CFCF93DF93CDB7DEB760970FB6F894CF
:10460000DEBF0FBECDBF29873A874B875C876D879A
:104610007E878F87988BCE0109960E94BB208111DF
:1046200016C088E0FE013996DE01119601900D92C8
:104630008A95E1F799858A85A091F5022091F60285
:104640004C855D85452B19F089238F3FA9F5809115
:10465000F6029091F50289131CC060960FB6F8948B
:10466000DEBF0FBECDBFDF91CF91089593E0AA0FBB
:10467000BB1F9A95E1F7A950BD4F98E0FE01319616
:1046800001900D929A95E1F78093F5020E94A3059F
:10469000DECFB8E08B9FC001112489509D4F0E944E
:1046A000BB208823D1F28091F60290E001968770BA
:1046B00099278093F602CBCFB0E0CD0101968770A9
:1046C00099272817190691F60E9433121092F502C5
:1046D0001092F60288E0E7E3F3E0DF011D928A958D
:1046E000E9F7B5CF0F931F93CF93DF938091E20348
:1046F000E091F5011CE081111EC0DF91CF911F9167
:104700000F91089501E00E0F0093F501CE2FD0E038
:104710001E9FD0011124AE57BC4F13968D919C91D2
:104720001497892B39F08C9111969C9111978923BC
:104730008F3F51F4E02F8091E203E81718F31092B5
:10474000E2031092F501D9CF16968D919C9117979F
:10475000892B29F418968D919C91019679F4E19F0B
:10476000F0011124EE57FC4F2081318142815381A9
:1047700064817581868197810E94F9221C9FF001D6
:104780001D9FF00D1124EE57FC4F14821382D2CFDF
:104790003F924F925F926F927F928F929F92AF92D1
:1047A000BF92CF92DF92EF92FF920F931F93CF931E
:1047B000DF9300D000D0CDB7DEB7209181032983ED
:1047C00017E0812E01E010E08CE0382E9EEF992E4C
:1047D0004424439480918003F9818F1319C00E946F
:1047E00072230F900F900F900F90DF91CF911F9138
:1047F0000F91FF90EF90DF90CF90BF90AF909F9080
:104800008F907F906F905F904F903F900C949408A2
:104810009981892F90E09C838B83FC01EE0FFF1F11
:10482000EA58FC4F80819181889ED001899EB00D0D
:104830001124FD01EB51FC4FFA83E98324812111FE
:1048400057C05090E203E2E8F3E050E040E0712C02
:10485000451508F04BC0A284B384A981BA81CD90DC
:10486000DC902FEF3FEF612C662D70E07B01EE0CAA
:10487000FF1CEC0CFD1CD701ED90FC90E114F10441
:1048800031F0AE14BF0409F49B016394EDCF2F3FC8
:104890003207C1F1D80102C0AA0FBB1F2A95E2F767
:1048A0007A2A980102C0220F331F6A94E2F721503E
:1048B00031097216130621F5349EF001359EF00D74
:1048C0001124EE57FC4F889ED001899EB00D112413
:1048D000AB51BC4F12962D913C9113973783268391
:1048E000908291829187808715964C920E94A508AC
:1048F000EB81FC813196FA83E983E370E9836ACF27
:10490000148213824F5F5F4F3C96A2CF7F928F92AB
:104910009F92AF92BF92CF92DF92EF92FF920F934E
:104920001F93CF93DF93CDB7DEB766970FB6F8949A
:10493000DEBF0FBECDBF1A821982FE0133968AE018
:10494000DF011D928A95E9F78AE8E82E81E0F82ECA
:104950008E010F5F1F4F90E9A92E91E0B92E4801FB
:10496000CC24C394D12CF70181917F018F3F09F4AE
:1049700047C0F894E82FE295EF70F0E021A18F7026
:10498000A60102C0440F551F8A95E2F7CA01922F73
:10499000982B91A392A18095892382A3789400C03B
:1049A000E6E9F1E030E020E0712C81918F3F09F4DD
:1049B0007AC0A82FA295AF70A05EB0E04C9150E0F5
:1049C0008F7002C0559547958A95E2F740FD6BC000
:1049D0008C2D022E01C0880F0A94EAF7782A2F5FE7
:1049E0003F4F2630310509F7F701319780818F3F1E
:1049F00011F00E94AE0750EA5A95F1F7D8017C9267
:104A00000F5F1F4FAE14BF0409F0ADCF4CE050E074
:104A1000B40187EE92E00E945E338C01892B41F055
:104A20008CE0F401A7EEB2E001900D928A95E1F7D7
:104A3000F090E60201151105C1F181E08093C702F3
:104A40000E94FD089093C6028093C5028091C50222
:104A50009091C6020E94F409059768F0AF2DB0E06E
:104A6000A652BD4F86E0E7EEF2E001900D928A95E6
:104A7000E1F71092C70281E090E0012BD1F0669639
:104A80000FB6F894DEBF0FBECDBFDF91CF911F915F
:104A90000F91FF90EF90DF90CF90BF90AF909F90DD
:104AA0008F907F90089580E099CF8091C702811107
:104AB000CDCF0E94F10BD82EE091E602882309F4B5
:104AC000CEC01E861D869E01215F3F4F84E0D90126
:104AD0001D928A95E9F70E2F10E006521D4F809126
:104AE000C802FE013D967F018A3008F083C027EAA4
:104AF00036E142E451E0B701C8010E94D30E882399
:104B000009F493C027E436E14FE451E0B701C8014E
:104B10000E94D30E882309F488C026E437E14AE5D1
:104B200051E0B701C8010E94D30E882309F47DC06B
:104B30001092C802E091D902F0E0BF0166527D4FA9
:104B4000D7019E012D5E3F4F10E0FB019191BF0107
:104B50008D91981731F0AF0141505109FA018083CE
:104B60001D2D2A173B0789F780913D01882301F10C
:104B70008091E3039091E4030097D1F00E94F4093F
:104B800020917E0330917F032817390788F4909194
:104B9000810380918003981709F458C00E94C823AC
:104BA00010927F0310927E031092E4031092E303AD
:104BB0008091380480FF1CC080913C0182FF18C0A6
:104BC0000E94FD08BC0180915D0390915E039B01F2
:104BD000281B390B80913A0190913B012817390726
:104BE00038F041E080915B0390915C030E94370EA6
:104BF000812F45CF8091C9029091CA020E94F40989
:104C0000843F914008F073CFE091D902F0E0E65282
:104C1000FD4F86E0DF01282F1D922A95E9F7D70185
:104C20001D928A95E9F71D2D9FCF8091C8028F3F75
:104C300031F08F5F8093C8028A3008F47BCF0E94E6
:104C4000FD089093CA028093C902DECF0E947223AE
:104C50001092E4031092E3030E949408A9CFF0E0BD
:104C6000E652FD4FF89486E0A7EAB2E001900D927B
:104C70008A95E1F787EA92E00E94300B8093A602C2
:104C80007894F894C090AD02D090AE02E090AF025C
:104C9000F090B0028091CF029091D002A091D10209
:104CA000B091D202C816D906EA06FB06F1F0C0920E
:104CB000CF02D092D002E092D102F092D2020E94B2
:104CC000F10B811112C00E94D4096B8B7C8B8D8BF0
:104CD0009E8BC61AD70AE80AF90AC092CB02D09274
:104CE000CC02E092CD02F092CE027894F8948091BA
:104CF000B802882379F180FF0DC08091B10280FF56
:104D00002CC09091640391609093640360E0869559
:104D10000E9420198091B80281FF09C020E04091D3
:104D2000B4026091B3028091B2020E947B1580911F
:104D3000B80282FF06C08091B702882389F00E94E2
:104D400005198091B80283FF03C081E08093D602E9
:104D50001092B802789480E092CE0E94A10FDACF30
:104D60000E947F08EECF1092E4031092E3031092AA
:104D70003D0180918003809381030E9494080C94EC
:104D800072232F923F924F925F926F927F928F92F7
:104D90009F92AF92BF92CF92DF92EF92FF920F93CA
:104DA0001F93CF93DF93CDB7DEB76A970FB6F89412
:104DB000DEBF0FBECDBF498B5A8B262F6B8B7C8BF2
:104DC0008D8B8C899D89892B29F0852F84238F3F9A
:104DD00009F029C22111109272031E861F86188ABB
:104DE00085E0FE017196DE01199601900D928A957B
:104DF000E1F780911F0490912004892BC1F00E945B
:104E0000FD082091740330917503821B930B209150
:104E10001F04309120048217930720F080917303C0
:104E200082FFFDC10E94090981110E94DB0589856D
:104E30009A852C853D85232B21F089238F3F09F00E
:104E4000DAC129853A854B855C856D857E858F85A0
:104E500098890E94F922C6C028EFC2162CE5D20616
:104E600029F4882379F00E94B326EBCF39EFC316DB
:104E70003CE5D30639F4882329F080913D01811166
:104E8000F2CFC9C105EE13E0512C912C812C2224C4
:104E90002394312C9EEF492EF80140815181AA24A0
:104EA000AA94BB24BA9420E0822F90E0FC01EE0F7C
:104EB000FF1FE40FF51F608171816115710531F0ED
:104EC000C616D70609F45C012F5FEECFF12CFFEF79
:104ED000AF16BF0609F448C0F8014481F0903D01C7
:104EE0008F2D411180E0F82FF170FF2EF801E58041
:104EF00086819B85992309F411C1FF2009F40EC115
:104F00006090330470903404E11012C0A10101C01C
:104F1000440FAA94EAF7842B868380917E039091B4
:104F20007F038615970520F470927F0360927E03BD
:104F3000C10102C0880F991F2A95E2F70197F80175
:104F400026812817190681F48091E3039091E403E8
:104F5000009709F460C00E94F4096816790608F009
:104F60005AC021E0F80124835F28FFEF8F1A9F0ABF
:104F7000095F1F4F28E08216910409F08DCF8B85C1
:104F8000882309F423C1552009F420C10E94FD089B
:104F90009093E4038093E3038091E203883010F55B
:104FA00091E0980F9093E20398E0FE013996DE01BC
:104FB000119601900D929A95E1F73CE0839FC00114
:104FC00011248E579C4F28E0FE013196DC010190A0
:104FD0000D922A95E1F72FEF3FEFFC0131872087F3
:104FE000D386C2866A960FB6F894DEBF0FBECDBFD9
:104FF000DF91CF911F910F91FF90EF90DF90CF90B5
:10500000BF90AF909F908F907F906F905F904F90E8
:105010003F902F90089580918103309180033E8BC3
:10502000982FE0E0F0E0E02E512F2E89821314C07B
:10503000909381030E171F0709F496CF90E0FC01AF
:10504000EE0FFF1FEA58FC4F918280820196837019
:1050500099278093800388CFA82EB12CF501EE0FFD
:10506000FF1FEA58FC4F60817181E7E0E69FD001A5
:10507000E79FB00D1124AB51BC4F2D913C9111977E
:105080003A8F298F40E020E030E0E32FF0E0EE0F90
:10509000FF1F698D7A8DE60FF71F608071806114A4
:1050A0007104E1F0F8010190F081E02DF88FEF8BB1
:1050B00020E005C06616770609F44F2D2F5FE22F1A
:1050C000F0E0EE0FFF1F6F89788DE60FF71F60810C
:1050D00071816115710571F73F5FD7CF4423D9F016
:1050E000EE2DF52F231708F0FD0121E024830E1784
:1050F0001F0721F490938103F42E36CF891305C046
:10510000AE17BF0711F49F5F937095012F5F3F4F5C
:10511000822F83708ACFE0E0F0E0F7CF90E0E110DB
:105120001FC0B10102C0660F771F2A95E2F79B01ED
:10513000215031098217930731F4442309F444C004
:10514000C4010E94A508C10101C0880FAA94EAF712
:10515000982F9095F801868189238683FE2C04CFB1
:10516000AC010A2C02C0559547950A94E2F79C01C0
:105170002150310982239323892B11F540FF20C050
:10518000F80182819381892BC1F01B821C821D82D0
:105190001E8249824A820E94FD088160582F692F31
:1051A0009D838C83F801828193818F8398872981E5
:1051B0003A814B817E810E94F922F8011582C3CF8A
:1051C000F42FF170EF2EBFCFEF2CBDCF9091810364
:1051D00080918003981731F00E94C823552009F46C
:1051E00030CE00CF0E9472231092E4031092E303AA
:1051F0000E949408F3CF61E0CE0109960E94C1118C
:105200006C018B8537EFC3163CE5D30609F024CE3D
:10521000882309F437CE81E080933D0112CE82E0ED
:105220000E949E09FFCD80913F0490914004019619
:105230009093400480933F04CDCDCDB7DEB7AE97B9
:105240000FB6F894DEBF0FBECDBF84B7877F84BF93
:105250000FB6F894A89580916000886180936000F3
:10526000109260000FBE80E890E00FB6F894809333
:105270006100909361000FBE85B7806885BF85B7D8
:10528000806885BF8CEA97E09093CD018093CC0134
:105290000E94BB170E94EA110E94C20A0E94820B60
:1052A0008091E20084608093E20078948091C30250
:1052B000882399F08091E9001091EC00179511274F
:1052C00017958F70182B1092E9008091E80083FDEC
:1052D0000E943E121F701093E90082E084BD93E0AB
:1052E00095BD9AEF97BD80936E001092CB021092FD
:1052F000CC021092CD021092CE020E94FE108111BB
:1053000002C00E948C180E94F10B809307018091CB
:105310000701882309F46EC080E08093020189E0D0
:10532000809303010E94F10B81110E945131809101
:1053300007018091070196E0811190E09093E602C9
:1053400086E0891B8093D9020AE811E080E9E82E03
:1053500081E0F82ED8018D918D018F3F11F00E94D0
:10536000AE07E016F106B1F706E911E0BCE9EB2E55
:10537000B1E0FB2EF80181918F018F3F11F00E9467
:10538000AE07E016F106B1F78CE0E7EEF2E0DF01E0
:10539000282F1D922A95E9F7EAEDF2E0DF011D9230
:1053A0008A95E9F70E943C16811102C00E949B1861
:1053B00082E090E00E948B33809384020E94F01080
:1053C00090936C0380936B030E948624EFE3FCE9C7
:1053D0003197F1F700C000000E9486248091DA0224
:1053E00080FF0AC06FEF7FEF90E080E00E94BD3346
:1053F0000E94030A89E091CF83E090E00E948B3302
:105400000E947F090E94F10B811102C00E94543159
:1054100080917C02811138C00E943C16811104C029
:105420000E949B180E94201588E090E00E94933310
:10543000609364037093650380936603909367039E
:10544000809163038360809363036E7F71F40E9495
:10545000201588E090E00E9493336093640370937A
:10546000650380936603909367030E9469080E9416
:105470007F088091640380FF04C060E086950E94ED
:10548000201981E080937C0288E091E09093F402FF
:105490008093F302A6EE2A2EA2E03A2E9E012F5F01
:1054A0003F4F79018091C302DD24D39400E112E1E2
:1054B000853009F431C10E94862481110E94D409EB
:1054C000EAEDF2E0A5E8B2E010E000E0A02EC19025
:1054D0008D918C1509F440C18C25B12CDD24D39419
:1054E000982F9D2109F433C10E94F10B882399F074
:1054F000B982AA82CD2081E009F480E08B830E94EA
:10550000FD088160782F9D838C8349815A816B814E
:10551000892F0E94C126F801EB57FD4F80818D2510
:10552000808380916203882309F465C080916103C0
:10553000E0916403E695E81BE093D502823009F020
:1055400022C1F0E0ED5AF94FE4910E2F10E0F3EF95
:10555000CF2EFFE0DF2E8091D602882361F01092DB
:10556000D6020E94CA0E9093D4028093D302109266
:10557000D8021092D7020E94CA0E9C018091D302D9
:105580009091D402A901481B590B4F3F5F4798F5F2
:10559000409182024423B1F0109282024091800235
:1055A00050918102241B350B2F3F3F4758F4405D3B
:1055B0005A485093810240938002209163032860EF
:1055C00020936303A090D702B090D802800F911F60
:1055D0009093D4028093D30283ED92E0F601099573
:1055E0008091D7029091D802892B29F4AB2819F029
:1055F00081E0809382020E94140C909183028917AB
:1056000021F00E94140C809383028091C3028430A5
:1056100009F048CF83E08093E9008091E80082FFA1
:1056200041CF8091E80090E085FF0CC00E94910A74
:1056300050E2C52ED12C8E010F5F1F4F882309F435
:10564000CEC091E08091E8008B778093E8009923A9
:1056500009F428CF0091970210919802E981011571
:10566000110509F4CAC0EE3F09F0ECC08A8183300D
:1056700020F08550833008F0E5C0EA81EE3008F074
:10568000E1C0F0E0EB5EFB4C0C943B338091C30235
:10569000843009F433C00E947F0880917F02811119
:1056A00009C0D0927F0280916403817080937E0252
:1056B0000E94A10F10927D0288E190E0A0E40FB655
:1056C000F894A895809360000FBEA093600083B704
:1056D000817F846083BF83B7816083BF789488951E
:1056E00083B78E7F83BF0FB6F894A8958091600032
:1056F000886180936000109260000FBE80919902D3
:10570000882351F00E948624EAEDF2E08191811114
:10571000A9C32E163F06D1F78091C302853009F444
:10572000B5CF0E9433120E94140C10927F02809118
:105730007E02882349F08091640381608093640332
:1057400060E086950E9420190E940519B4CEB3949A
:10575000DD0C26E0B212C4CE0F5F1F4F0C301105D6
:1057600009F0B4CE8FEF89838A831B820E94FD08E3
:105770008160782F9D838C8349815A816B81892F29
:105780000E94C126CECE863059F4F0E0E05BF94F9E
:10579000E4910E2F10E0E7E0CE2EE0E1DE2EDBCE2E
:1057A00000ED17E067ECC62E67E0D62E893009F0D1
:1057B000D2CEE695F0E0E35BF94FE4910E2F10E0D6
:1057C00073E6C72E7FE0D72EC6CE8091F100D801B8
:1057D0008D938D01B1E0CB1AD10809F432CF8091BD
:1057E000E80085FDF2CF8091E8008B778093E80098
:1057F0000E94910A882399F324CFE43150F4EE23D8
:1058000059F0E150E33140F4F0E0ED5DFB4C0C94D5
:105810003B33EE3F09F431CF8FEF50C31A8289E05A
:105820008B8310C08A81823009F46AC3833071F09F
:10583000813091F70E94D4090E9441336B837C83AD
:105840008D839E83C7010E940B0B2CCE8091950205
:1058500090919602892BB1F38CE0EAEDF2E0DE0143
:10586000139601900D928A95E1F7ECCF8A818230F0
:1058700099F68B819C81AD81BE818BA79CA7ADA73A
:10588000BEA7BC01CD010E94413386E290E00E9498
:105890009F33D8CF4C816B818A810E941711982742
:1058A000892798279E838D83CDCF2D813E813227F6
:1058B000232732274C816B818A810E94AB10C2CF93
:1058C0000E941418BFCF8A81823861F178F4803841
:1058D000B1F0813809F0B6CF60E08B810E942019C9
:1058E0008B81811115C00E94A10FACCF833809F0C4
:1058F000A9CF20E0409167036C818B8106C020E036
:105900004B8160916603809165030E947B159ACF5D
:105910008091640381608093640360E086950E94B7
:10592000201990CF8B81809368038CCF8A81823835
:10593000D9F058F4803899F0813809F083CF8091FC
:10594000640380FF0FC086956BCF833809F07ACF50
:10595000809165038B83809166038C8373CF8091E4
:1059600067035ECF80E05CCF8091680359CF809160
:10597000640390916503A0916603B09167038BA7C0
:105980009CA7ADA7BEA7BC01CD010E940C155ACFA4
:1059900080E18A8357CF81E08A8387E241CF8C817F
:1059A000C82ED12C8D3108F04DCF0A811B811027D4
:1059B00001271027C00ED11E5E0195E0A90EB11C73
:1059C000C80187529D4F0C151D0509F43BCF0732C6
:1059D000A1E01A0740F40E948B33F50181935F0127
:1059E0000F5F1F4FEDCF80E0F8CF8091950290912F
:1059F0009602892B09F426CF8C81A82EB12C8D31EB
:105A000008F020CF0A811B811027012710279E0153
:105A10002F5F3F4F6901A20EB31EC80187529D4FF1
:105A2000AC14BD0409F40ECF073231E0130728F49B
:105A3000D60114966C910E949F330F5F1F4FBFEFEA
:105A4000CB1ADB0AEACF0E94E010FCCE84E0A1CFA3
:105A50008C81C82ED12C8D3108F0F4CE0A811B81A7
:105A6000102701271027C00ED11E5E01E5E0AE0E03
:105A7000B11CC80187960C151D0509F4E3CE00344E
:105A8000F2E01F0740F40E948B33D5018D935D0136
:105A90000F5F1F4FEECF80E0F8CF8C81C82ED12C46
:105AA0008D3108F0CFCE0A811B81102701271027E6
:105AB0000034B2E01B0708F0C5CE80E492E0801B02
:105AC000910B8C159D0508F4BDCE3801E7E26E0EF2
:105AD000711C8091950290919602892BB9F558011D
