:100000000C94B2090C94F9090C94F9090C948530FC
:100010000C94F9090C94F9090C94F9090C94F90958
:100020000C94F9090C94F9090C941C2D0C94F22DE4
:100030000C94C6190C94F9090C94F9090C94F9095B
:100040000C94F9090C94F9090C94F9090C94F90928
:100050000C94F9090C94C21B0C94F9090C94F9093D
:100060000C94F9090C94F9090C94F9090C94F90908
:100070000C94F9090C94F9090C94F9090C94F909F8
:100080000C94F9090C94F9090C94F9090C94F909E8
:100090000C94F9090C94F9090C94F9090C94F909D8
:1000A0000C94F9090C94F9090C94F90900AF00AE0D
:1000B00005010980A101850319012AB70015012650
:1000C000B700950175108100C0050C0901A10185DB
:1000D0000419012AA002150126A0029501751081BC
:1000E00000C005010906A101050719E029E715006F
:1000F00025019508750181029501750881010507A3
:10010000190029FF150026FF0095067508810005D6
:10011000081901290595057501910295017503914D
:1001200001C009023B00020100A0FA09040000011D
:10013000030101000921110100012240000705818E
:100140000308000A0904010001030000000921114D
:100150000100012232000705820320000A1201106B
:10016000010000000832FC87020100010200010CBE
:100170000353006F0066006C00650000001A034A1C
:10018000006F007300650066004100640061006D4F
:1001900000630069006B0000000403090400DA0238
:1001A00081FFD9F1DB20A4A62EAF00A0C000A1C81A
:1001B00000AED580A81FD300408D142000643214F7
:1001C0004350534C4B000A0A00556E64656600416B
:1001D000646A0A004C6F776572005261697365004A
:1001E000426173650A004C41594552000A0A0055A4
:1001F0006E64656600517772740057494E004D4138
:100200004300004D4F4445000A0A00000501050265
:10021000050305040505050006010602060306049C
:100220000605060007010702070307040705070084
:10023000080108020803080408050800090109026A
:100240000903090409050900000100020003000474
:100250000005000001010102010301040105010084
:10026000020102020203020402050200030103026A
:10027000030303040305030004010402040304044C
:1002800004050407087F0807003E5B4F5B3E003E05
:100290006B4F6B3E001C3E7C3E1C00183C7E3C18A5
:1002A000001C577D571C001C5E7F5E1C0000183C24
:1002B000180000FFE7C3E7FF00001824180000FF44
:1002C000E7DBE7FF0030483A060E002629792926A9
:1002D00000407F05050700407F05253F005A3CE7A9
:1002E0003C5A007F3E1C1C0800081C1C3E7F00146A
:1002F000227F2214005F5F005F5F0006097F017F9D
:1003000000006689956A0060606060600094A2FFEA
:10031000A2940008047E04080010207E201000082B
:10032000082A1C0800081C2A0808001E10101010BB
:10033000000C1E0C1E0C0030383E383000060E3EFD
:100340000E060000000000000000005F000000003A
:100350000700070000147F147F1400242A7F2A124C
:100360000023130864620036495620500000080735
:10037000030000001C224100000041221C00002A52
:100380001C7F1C2A0008083E08080000807030000E
:10039000000808080808000000606000002010083D
:1003A0000402003E5149453E0000427F4000007279
:1003B00049494946002141494D33001814127F1024
:1003C000002745454539003C4A4949310041211142
:1003D000090700364949493600464949291E0000A7
:1003E0000014000000004034000000000814224106
:1003F00000141414141400004122140800020159BE
:100400000906003E415D594E007C1211127C007FAE
:1004100049494936003E41414122007F4141413E28
:10042000007F49494941007F09090901003E4141D6
:100430005173007F0808087F0000417F41000020C1
:1004400040413F01007F08142241007F404040406E
:10045000007F021C027F007F0408107F003E4141A4
:10046000413E007F09090906003E4151215E007F9F
:10047000091929460026494949320003017F010331
:10048000003F4040403F001F2040201F003F4038B9
:10049000403F006314081463000304780403006100
:1004A00059494D4300007F4141410002040810209A
:1004B00000004141417F000402010204004040402D
:1004C0004040000003070800002054547840007F9B
:1004D0002844443800384444442800384444287FA1
:1004E0000038545454180000087E09020018A4A4CF
:1004F0009C78007F080404780000447D40000020C0
:1005000040403D00007F102844000000417F400033
:10051000007C04780478007C0804047800384444A3
:10052000443800FC182424180018242418FC007CEB
:10053000080404080048545454240004043F44248C
:10054000003C4040207C001C2040201C003C4030EF
:10055000403C004428102844004C9090907C00447B
:1005600064544C440000083641000000007700004D
:10057000000041360800000201020402003C26236C
:10058000263C00000000000000404040F0F8F8FF6A
:1005900038FFF8F83FF8F8FF38FFF8F8F04040402F
:1005A00000000000000080C0C0C0800000C0C0800B
:1005B00000000080C0C000C0C0000080C0C00000BB
:1005C000000000C0C0C0C0C000C0C00000000000EB
:1005D000000000000000000000000000000000001B
:1005E000000000000000000000000000000000000B
:1005F00000000000000000000000000000000000FB
:100600000000C0F0F8FC3E1E06010000007F4141E2
:10061000417F007F4141417F000080C0E07E5B4F11
:100620005BFEC00000C000DCD7DEDEDED7DC00C031
:1006300000000000000000000000000000000000BA
:10064000000000000000000000494949FFFFFFFFD3
:10065000E0DFBFBF00BFBFDFE0FFFFFFFF49494949
:1006600000000000001F3F6060E0BF1F007F7F07A9
:100670001E381E077F7F007F7F0E1F3B71600000CA
:100680000000007F7F0C0C0C007E7E007F7E030349
:10069000007F7E03037E7E03037F7E000F3E703C5F
:1006A000063C703E0F00327B49493F7E007F7E034F
:1006B00003001E3F69696F26000000000000000073
:1006C0000000030F1F3F3C7870600000007F414135
:1006D000417F007F4141417F00307B7F7830202087
:1006E00030787F3B0003000F7F0F0F0F7F0F000359
:1006F00000000000000000000000000000000000FA
:10070000000000000000000000010101070F0F7F42
:100710000F7F0F0F7E0F0F7F0F7F0F0F070101015C
:1007200000000000000000000000010100000000C7
:1007300000000000000000000000000000000000B9
:1007400000000000000000000000000000000000A9
:100750000000000000000000000000000000000099
:100760000000000000000000000000000000000089
:100770000000000000000000000000000000000079
:100780000000000000000000000000000000000069
:100790000000000000000000000000000000000059
:1007A0000000000000000000000000000000000049
:1007B0000000000000000000000000000000000039
:1007C000000000000101010101010101010202021A
:1007D00002020202020203030303030303030404ED
:1007E00004040404040505050505060606060607B7
:1007F0000707070708080808090909090A0A0A0B70
:100800000B0B0C0C0C0D0D0D0E0E0E0F0F0F101010
:100810001111111212131314141515161617171897
:100820001819191A1A1B1B1C1D1D1E1E1F20202102
:100830002222232424252626272829292A2B2C2D49
:100840002D2E2F30313232333435363738393A3B6A
:100850003C3D3E3F404142434445464748494A4C5F
:100860004D4E4F50515354555658595A5B5D5E5F2B
:10087000616264656668696B6C6D6F7072737577C1
:10088000787A7B7D7E8082838587888A8C8E8F9123
:10089000939596989A9C9EA0A2A3A5A7A9ABADAF4D
:1008A000B1B3B5B7BABCBEC0C2C4C6C9CBCDCFD137
:1008B000D4D6D8DBDDDFE2E4E7E9EBEEF0F3F5F8E0
:1008C000FAFDFF35001E001F002000210022002934
:1008D0000014001A000800150017002B0004001671
:1008E00000070009000A00E1001D001B00060019B6
:1008F000000500E300E200E000605D2800A8002A97
:1009000000270026002500240023003100130012D8
:10091000000C0018001C00340033000F000E000D06
:10092000000B00E50038003700360010001100E72A
:1009300000E600E400615D2C00300001003A003B5D
:10094000003C003D003E0035001E001F002000213D
:1009500000220001001E021F0220022102220201C9
:10096000002E002D002E022F023002010001000196
:10097000000100010001004400430042004100402A
:10098000003F0045002700260025002400230031F9
:10099000022702260225022402230201003100332D
:1009A00002330030002F00010001000100010001AE
:1009B000000100010001000100010001000100012F
:1009C00000490046006500000000000100E200E070
:1009D00000E1000000390001007A007B007C007D0E
:1009E0000000000100010001000100010001000100
:1009F00000010001000100010001002A00675D64A0
:100A00005D5200635D4B002A004C004F00510050C6
:100A1000004E0001000000665D0000655D00000101
:100A20000001000100010001000100005C00000065
:100A300000000000000000000000000000000001B5
:100A40005D0000C35CC65CC85CCA5C00000000C4FA
:100A50005CC75CC95CCB5C000000000100010001C8
:100A60000001000100000000000000000000000084
:100A70000000000000000000000000000000000076
:100A8000000000A900A800AA00000000000000ABC0
:100A900000AE00AC000000010001000100010001F7
:100AA00000000000C03E01000000C0FCFFFFFF7C12
:100AB000704040615E80C0BC030000000000000088
:100AC0000000003C0300000080788700030F3FF81F
:100AD000F0F0204080800000010102040810204056
:100AE00080000000000000F887000106186080C048
:100AF0003F038078070000000000000000000000B5
:100B00000102040000F0CF00010618608080790720
:100B1000807807000000000000003838380000002E
:100B2000000000E01E0100030C30C000F9078078CF
:100B300007000000000000C02C322200000000006E
:100B400000000007030C30C00000F00F80780700A1
:100B50000000000000000001020000000000000092
:100B60000000001860800000E11E01F08F8080808E
:100B70000000000E0E0E000000000000000000004B
:100B80000000000808090E0E01F00F000000000030
:100B900001011919410A22847800000000000000B8
:100BA00080601800000000F00F0202020202020240
:100BB0000202020101010100000000000000000625
:100BC0000970800000F01F101010101008080804B1
:100BD00004020201010101010202020202020202F8
:100BE00004020100C03E01000000C0FC0300030C31
:100BF00030C000E11E00C0BC838080808080000087
:100C00000000003C0300000080788700030C30C027
:100C100000E01F01C03C030000000000003031056F
:100C200041120400000000F887000106186080C02F
:100C30003F0380780702020202020202020202015E
:100C40000103050000F0CF000106186080807907DD
:100C500080780700000000000000383838000000ED
:100C6000000000E0FEFFFFFFFCF0C000F907807805
:100C700007000000000000C02C322200000000002D
:100C800000000007030F3FFF0301030718F80700E8
:100C90000000000000000001020000000000000051
:100CA000000000186080000FF000000000033C000E
:100CB0000000000E0E0E000000000000000000000A
:100CC0000000000808090E0E01F30F0000000000EC
:100CD0000000000000000000000000000000000014
:100CE00080601800000000F00F000000000000000D
:100CF00000000000000000000000000000000006EE
:100D00000970800000F01F1010101010080808046F
:100D100004020201010101010202020202020202B6
:100D200004020100C03E01000000C0FC0300030CEF
:100D300030C000E11E00C0BC838080808080000045
:100D40000000003C0300000080788700030C30C0E6
:100D500000E01F01C03C030000000000003031052E
:100D600041120400000000F887000106186080C0EE
:100D70003F0380780702020202020202020202011D
:100D80000103050000F0CF0001061860808079079C
:100D900080780700000000000000383838000000AC
:100DA000000000E01E0100030C30C000F90780784D
:100DB00007000000000000C02C32220000000000EC
:100DC00000000007030C30C00000F00F807807001F
:100DD0000000000000000001020000000000000010
:100DE0000000001860800000E11E01F08F8080800C
:100DF0000000000E0E0E00000000000000000000C9
:100E00000000000808090E0E01F00F0000000000AD
:100E100001011919410A2284780000000000000035
:100E200080601800000000F00F02020202020202BD
:100E300002020201010101000000000000000006A2
:100E40000970800000F01F1010101010080808042E
:100E50000402020101010101020202020202020275
:100E6000040201000000000000000000000000007B
:100E70000000000000000000000000000000000072
:100E80000000000000000000000000000000000062
:100E90000000000000000000000000000000000052
:100EA0000000000000000000000000000000000042
:101360000000000011241FBECFEFDAE0DEBFCDBFCA
:1013700004B603FE27C08091B6059091B705A091F1
:10138000B805B091B9058730904BA740B04BD1F468
:101390001092B6051092B7051092B8051092B905D3
:1013A00014BE84B7877F84BF0FB6F894A895809148
:1013B0006000886180936000109260000FBEE0E0E2
:1013C000F8E3099511E0A0E0B1E0ECE1FFE602C02E
:1013D00005900D92A239B107D9F725E0A2E9B1E055
:1013E00001C01D92A63BB207E1F70E9456270C945C
:1013F00039370C9400000F931F93462F572FBC01D1
:10140000CB01AA27BB270097A105B105E9F1AC01E3
:10141000BD0180E1052F162F272F33270115110558
:101420002105310519F0885FB901A8018A019B01E6
:10143000F4E03695279517950795FA95D1F701159C
:1014400011052105310519F08C5FB901A8018A0148
:101450009B01E2E03695279517950795EA95D1F718
:10146000011511052105310519F08E5FB901A8019B
:101470007695679557954795452B462B472B09F051
:101480008F5F1F910F91089580E0C4CF90919A05CE
:1014900092FF06C0282F28712830F9F4877F8460D6
:1014A00093FF06C0282F28712831F1F4877E8461CC
:1014B00020919B0520FF06C0382F38713830D9F4B1
:1014C000877F816021FF06C0282F28712831D1F441
:1014D000877E816194FD877E0895282F24712430B2
:1014E000F9F68B7F8860DCCF282F2471243101F737
:1014F0008B7E8861DDCF382F3171313019F78E7FC7
:101500008860E0CF282F2171213121F78E7E8861FC
:10151000E1CF0F931F93CF93DF93972F70E026E0D7
:10152000929F600D711D1124FB019CE3899FE00DCA
:10153000F11D1124EE0FFF1FED53F74F059114918C
:10154000E801003E110509F467C070F5013311058B
:1015500009F4AAC090F40932110509F49EC00A32B8
:10156000110509F4A8C00130110559F10450110901
:10157000013A110508F05CC024C00933110509F4D3
:1015800044C00238110509F440C00533110509F4BF
:101590007DC0083A110508F095C0053A110518F309
:1015A000E801A497D0640DC0043E110509F453C0AE
:1015B00070F4023E110509F43EC0033E110509F422
:1015C0003FC0CE01DF91CF911F910F910895063E4C
:1015D000110509F44BC0073E110509F44CC0011573
:1015E00024E5120708F0B7C0011583E5180708F0D5
:1015F000FBC0011590E5190708F076C0011520E43D
:10160000120738F2DF70D06ADCCF80919A058370C0
:10161000C1F2C0EED0E0D5CF80919A0580FD16C111
:1016200090919B0590FFCDCFC3EED0E084FFC9CF52
:10163000D0E0C0E0C6CF80919A0582FDF5CFC1CF42
:1016400080919A0582FD05C190919B0590FDE1CFA7
:1016500084FFB7CFEDCF80919B0581FFB2CF809102
:101660009A05C7EED0E084FDE3CFABCF80919A0519
:1016700083FDF7CFA6CF80919A0583FDEDC09091B1
:101680009B0591FFE5CFC4EED0E09BCF80919A05FA
:1016900085FF97CFC9E2D0E094CF80919A0585FF6E
:1016A00090CFC5E3D0E08DCF80919A0586FF89CF9A
:1016B000CAE2D0E086CF80919A0586FF82CFC1E34F
:1016C000D0E07FCF0F3B110508F47DC0083E110527
:1016D00028F4003E110508F4ABCF73CF1A9501151D
:1016E0001F4108F0A5CF6DCF011592E5190700F550
:1016F000011521E5120708F072C0C80174E0969543
:1017000087957A95E1F78370C695C695C37090E288
:10171000C99FE0011124D82B037081E090E002C042
:10172000880F991F0A95E2F7C82BD92BDC6849CF9F
:10173000C80183709927C1E0D0E002C0CC0FDD1F43
:101740008A95E2F70695069520E2029F8001112412
:10175000C02BD12BEBCF011589E51807E8F4011553
:1017600098E5190708F05FC0011526E5120750F447
:10177000011585E5180708F04BC0D02FCC27C46FA2
:10178000D06A1FCFC80196558F3F910511F008F020
:101790004FCFDD27D06615CF01159AE5190708F45C
:1017A00047C0C80190568115904208F041CF812F63
:1017B0008F710E94460AC82FD0E0DC2FCC27CC279F
:1017C000DF71C02B2EC0085AC02FD0E0CC0FDD1F18
:1017D000CC59DE4F0990D881C02DD464F2CED02FE1
:1017E000CC27C16FD06AEDCE98012370332781E0FA
:1017F00090E002C0880F991F2A95E2F7C695C6951A
:1018000020E2C29FE0011124C82BD92BDA68D9CE7F
:10181000802F0E94460AC82FD0E0DC2FCC27CC278F
:10182000DF71D062CECED02FCC27C06FD06AC9CEA8
:10183000802F8F700E94460A94E0D695C7959A959E
:10184000E1F7CF709C2FEC01D069BBCEC9E3D0E0AB
:10185000B8CEC2EED0E0B5CEC6EED0E0B2CEF894AF
:10186000E82FE295EF70F0E041A18F7021E030E0C9
:10187000B90102C0660F771F8A95E2F7CB01962F58
:101880009095942391A392A1892B82A37894089593
:101890006F927F928F929F92AF92BF92CF92DF9280
:1018A000EF92FF920F931F93CF93DF93B82EA62E44
:1018B0008901E42FF0E0ED53F84F611119C0E49174
:1018C0008E2F2E2FD80111962C931197EC931296F0
:1018D0008C93DF91CF911F910F91FF90EF90DF904C
:1018E000CF90BF90AF909F908F907F906F90089512
:1018F000E62EF12C249186E0B89E60011124CFEFF2
:10190000D0E0C601BE010E948E338B2D90E0880F7F
:10191000991F35E5369FA001379F500D1124841B78
:10192000950B982F990F980FAE014E195F09249FC0
:10193000D001259FB00D1124EB2FA99E5001112439
:10194000AB2CBB24AE014A195B09249F5001259F93
:10195000B00C11248B2D3E01691A71086E9C400158
:101960006F9C900C7E9C900C1124892C9924C81992
:10197000D9092C9FA0012D9F500D112463307105B2
:10198000D1F09CEFC91693E0D90670F4613071056F
:10199000B1F062307105B9F0FFEFCF16D10408F055
:1019A00091CF8B2FE52F8ECF6430710579F06630A3
:1019B0007105B9F387CFEB2D822F2B2F83CFE22F29
:1019C0002B2D8B2F7FCF852FE22FF7CF822F252F27
:1019D00079CF80917705982F9E7F61F48170826026
:1019E0008093770580917A05873918F086E980938E
:1019F0007A0508958031B0F381708E60F1CFE4E70D
:101A0000F5E0118282818460828308950895FA014D
:101A100081110994FB01FDCFE0918502F0918602CE
:101A2000309721F00190F081E02D099480E0089535
:101A300020918302309184022817390771F0909326
:101A4000840280938302E0918502F09186023097B0
:101A500021F00680F781E02D0994089520918102FC
:101A6000309182022817390771F090938202809397
:101A70008102E0918502F0918602309721F0008486
:101A8000F185E02D0994089580914A0290914902D0
:101A9000981301C008958F5F8770FACFE92FEE0F7A
:101AA000E90FEE0FE80F8E2F877041E001C0440F61
:101AB0008A95EAF7E695E695E69585E0E89FF001D8
:101AC0001124EB5FFD4F30E020E070E05191DF0129
:101AD0001197CB01022E02C0969587950A94E2F7E2
:101AE000817081958527842385278C932F5F3F4FB5
:101AF0002530310559F70895E92FEE0FE90FEE0F64
:101B0000E80F9E2F9770E695E695E69585E0E89FAD
:101B1000F0011124EB5FFD4F50E040E080E02191A7
:101B200030E0092E02C0369527950A94E2F721701D
:101B30003327042E01C0220F0A94EAF7822B4F5F4D
:101B40005F4F4530510559F70895BF92CF92DF920C
:101B5000EF92FF920F931F93CF93DF938C01C0906E
:101B60003602D0903702E0903802F090390280912E
:101B7000320290913302A0913402B0913502C82A0A
:101B8000D92AEA2AFB2ACFE1D0E0BC2ED701C60130
:101B90000C2E04C0B695A795979587950A94D2F711
:101BA00080FD0EC0219788F7B12C8B2DDF91CF914E
:101BB0001F910F91FF90EF90DF90CF90BF9008950D
:101BC000B8018C2F0E94890A019761F3EECFFF9232
:101BD0000F931F93CF93DF93FC01828100811181CA
:101BE000C081F180882311F1662301F1C8010E94B0
:101BF000A50DD82F682FC8010E944E0DEC2FF0E0E4
:101C000086E0F89EE00DF11D11248CE3D89FE00DD5
:101C1000F11D1124EE0FFF1FED53F74F85919491A5
:101C2000DF91CF911F910F91FF900895C8010E94FD
:101C30007C0DD82FE3CFCF93DF93D82FC92F0E94ED
:101C4000A50D6D2F7C2FDF91CF910C94890A0E94F6
:101C50001B0E282F892F8F70392F32953F70903CA3
:101C600080F43A30B0F4343020F4323090F480E034
:101C700008953630E1F781E0283E88F0213FB9F73A
:101C80000EC03C3011F03F3091F7869586958695D1
:101C9000089581E0203F39F018F4283E40F7089578
:101CA000243F29F7FCCF0895E6E9F1E091918913EB
:101CB00003C0DF0111971C9291E0EC39F907B1F7ED
:101CC000089580913102811110923102089580911E
:101CD000300290913D02892B90912D02892B8093A7
:101CE000940190913102992391F0892B8093940172
:101CF00020E086E991E0FC013081019631112F5FEF
:101D000031E08C399307B9F721110E94610EE091FF
:101D10008502F0918602309731F00280F381E02D48
:101D200084E991E009940895882361F19CEF980F6C
:101D3000913A20F40E94540E0C94670E90E2980F92
:101D4000983088F4877021E030E0A90102C0440F88
:101D5000551F8A95E2F7CA01809590913002892338
:101D600080933002E9CF9BE5980F933020F490E008
:101D700080E00C94180D885A873120F490E080E0C0
:101D80000C942E0D0895882339F090913002892B00
:101D9000809330020C94670E0895882341F080955B
:101DA000909130028923809330020C94670E08953D
:101DB00090E080E00E94180D90E080E00E942E0DDF
:101DC00010923D0210922D020C94670E6093320225
:101DD0007093330280933402909335020C94D80EA2
:101DE00060933602709337028093380290933902E1
:101DF0000C94D80E0F931F93CF93DF9300D000D095
:101E0000CDB7DEB741E050E060E070E004C0440FC1
:101E1000551F661F771F8A95D2F7809136029091E1
:101E20003702A0913802B09139028A019B01082B38
:101E3000192B2A2B3B2B09831A832B833C83C90143
:101E4000B8010F900F900F900F90DF91CF911F91DD
:101E50000F910C94F00E0F931F93CF93DF9300D04C
:101E600000D0CDB7DEB741E050E060E070E004C0E4
:101E7000440F551F661F771F8A95D2F740955095DE
:101E8000609570958091360290913702A09138024A
:101E9000B09139028A019B01082319232A233B238D
:101EA00009831A832B833C83C901B8010F900F90DB
:101EB0000F900F90DF91CF911F910F910C94F00E26
:101EC00090913B028095892380933B02282F2770B5
:101ED00039F4282F082E000C330B9217130621F427
:101EE00090919B0592FF07C08595859585950E94E9
:101EF0002B0F10923B02089580E008959C01FC0195
:101F000032968FEF90E04191461751F08F3F19F4D0
:101F1000411101C0892F9F5F9630A9F78F3F09F4C7
:101F20000895280F311D87FD3A95F90162830895C0
:101F3000CF93C82F882309F445C08CEF8C0F813ACA
:101F400088F4E6E9F1E08191C817B1F121E0EC39BC
:101F5000F207C9F76C2F84E991E00E947E0FCF91C0
:101F60000C94670E80E28C0F883068F4C77021E013
:101F700030E001C0220FCA95EAF780913002822B2F
:101F800080933002ECCF8BE58C0F833038F42C2F0C
:101F90002452330BC901CF910C94180DC85AC73184
:101FA00088F4EC2FF0E0EE0FFF1FEC59FE4F80811C
:101FB0009181CF910C942E0D8C2F0E94540E0E9473
:101FC000670EC8CFCF910895CF93DF9300D000D094
:101FD000CDB7DEB78FB7F89420910002309101029F
:101FE000409102025091030229833A834B835C8320
:101FF0008FBF69817A818B819C810F900F900F90A8
:102000000F90DF91CF9108950C94E40F9C014FB78E
:10201000F8948091000290910102A0910202B09187
:1020200003024FBF821B930B08958091FB0108951B
:102030000895FC01CB012091A8013091A901261738
:10204000370790F0009729F42091E8002E7720932D
:10205000E80040E0009751F4411108C08091E80089
:1020600082FF31C080E00895C901F3CF20917C0543
:102070002223A9F12530A9F12091E80023FD2DC0EC
:102080002091E80022FDEACF2091E80020FFE2CF76
:102090003091F3002091F200009719F028303105BB
:1020A00058F041E02830310509F040E02091E80087
:1020B0002E772093E800CECF41914093F100019715
:1020C0002F5F3F4FE9CF80917C05882341F0853019
:1020D00041F08091E80083FFC1CF81E0089582E064
:1020E000089583E008958091A20187FF13C0809135
:1020F000E80082FF06C08091E8008B778093E800BB
:1021000004C080917C058111F2CF089580917C05F7
:102110008823D9F38091E80080FFF8CF8091E80010
:102120008E77ECCF2091E4003091E50095E6A9018F
:102130002091EC00822F817020FF06C08091E80082
:1021400080FF06C080E008952091E80022FD1AC0BB
:1021500080917C05882389F0853089F08091EB009F
:1021600085FD0FC02091E4003091E5004217530730
:10217000F9F29150E1F684E0089582E0089583E059
:10218000089581E00895E8EDF0E080818E7F8083FE
:102190001092E2001092DA001092E100A0EEB0E09E
:1021A0008C9181608C9380818F77808319BCA7ED9F
:1021B000B0E08C918E7F8C9380818F7E8083109293
:1021C000A1010895EF92FF920F931F93CF937C018B
:1021D0008B010E949210C82F811117C08091E800D6
:1021E00085FD0BC08091E8008E778093E8000E9407
:1021F0009210882399F3C82F08C0F70181917F01BD
:102200008093F1000150110949F78C2FCF911F9154
:102210000F91FF90EF900895CF93DF9300D000D0FF
:10222000CDB7DEB78091360290913702A091380287
:10223000B0913902AC01BD0146705527662777275A
:102240009C01463051056105710591F4AD0128608E
:1022500029833A834B835C8369817A818B819C815A
:102260000F900F900F900F90DF91CF910C94F00E84
:10227000AD01277FEDCFCF93DF93482F20919004BE
:1022800030919104B901605972402055314021309C
:102290003240C8F020E032E0261B370BC0918702A5
:1022A000D0918802E42FF92FCB01260F371F61E070
:1022B00070E08217930750F0D0938802C093870292
:1022C000DF91CF91089520E431E0E8CF4491DC0123
:1022D000A057BD4F5C91451781F04C93AC01A5E030
:1022E00056954795AA95E1F7DB0102C0AA0FBB1FDF
:1022F0004A95E2F7AD01CA2BD52B01963196D9CF7D
:1023000080919C05893220F483E29DE00C943B117E
:102310008C33C0F080919D0590E0019681709927E3
:1023200080939D0521E030E0281B390B40E451E00B
:10233000249FC001259F900D349F900D11248D5531
:10234000954FE4CF0895982F9093E900242F762F8E
:1023500050E0891731F07091EC002091ED00509120
:10236000F00021FD06C09F5F973071F78093E90070
:1023700008953091EB003E7F3093EB003091ED00FB
:102380003D7F3093ED003091EB0031603093EB00F6
:102390007093EC002093ED005093F0002091EE003C
:1023A00027FDE1CF0895CF92DF92EF92FF920F9336
:1023B0001F93CF93DF93C8EDD0E088818F7E888311
:1023C000E7EDF0E080818160808384E082BF81E07E
:1023D0008093A10188818E7F888302EE10E0F8014E
:1023E00010821092DA0081EEC82ED12CF6011082F4
:1023F00088818F77888388818068888388818F7DB2
:10240000888319BC10927C051092A0011092F201F1
:1024100010929F0190EEE92EF12CF70180818B7FC5
:10242000808388818160888342E060E080E00E9450
:10243000A311F60180818E7F8083F8018081816005
:102440008083808188608083F70180818E7F808394
:10245000888180618883DF91CF911F910F91FF90D8
:10246000EF90DF90CF90089580917D05811110C08D
:102470008091D80080618093D8008AE18A95F1F735
:1024800000C08091D90080FF0AC081E080937D0563
:1024900081E090917D05913009F080E0089582E01F
:1024A00080937D050E94C31010927C05F1CF60914E
:1024B00016018091770580FF20C08091150143E0CF
:1024C000849FC00111248A569B4F539A2BB1277FBA
:1024D0003BB138605FB7F894FC01649FE00DF11DDB
:1024E0001124BF0168177907D1F45FBF8FE594E02D
:1024F0000197F1F700C000000895809117019091B5
:10250000180123E0829FF0011124EA56FB4F89173E
:10251000A0F61182108212828F5F3396F8CFFC01F1
:102520004191CF01E8E03BB9000000C047FF2BB963
:10253000440F000000C000C000C02BB900C0EA95E5
:1025400091F7D0CFEF92FF921F93CF93DF93EC01DF
:1025500010E0EE24EA94F12C60911901161770F046
:102560000E9457129A818C8190FF28C08F5F8C83C4
:10257000DF91CF911F91FF90EF9008958091170107
:10258000810F9927991F9C01220F331F280F391F94
:102590002A563B4F40917A05473908F046E970E0EA
:1025A000C7010E94A233962F8C8160917905199FF3
:1025B000800D11240E94480C1F5FCECF8150D7CFD1
:1025C0001F93CF93DF93182FEB010E94980F8FE991
:1025D0009FE00197F1F700C000002197C1F7812F1C
:1025E000DF91CF911F910C94940E81110BC0662343
:1025F00029F06AE070E089EA0C94E0126AE070E089
:102600008AEAFACF813051F4662321F06AE070E063
:102610008BE4F2CF6AE070E08EE4EECF0895CF93C2
:10262000DF93D82FC92F81E08093E9008FEF90913D
:10263000E800815095FD06C095ED9A95F1F70000F0
:102640008111F5CF8091E80085FF16C050E040E091
:1026500068E070E08D2F9C2F0E94E2108091E800CE
:102660008E778093E80088E0ED2FFC2FA3EFB1E098
:1026700001900D928A95E1F7DF91CF910895CF9364
:10268000DF9300D00F92CDB7DEB790917C059430E8
:1026900019F589836A837B8382E08093E9008FEF59
:1026A0009091E800815095FD06C095ED9A95F1F75F
:1026B00000008111F5CF8091E80085FF0DC050E04A
:1026C00040E063E070E0CE0101960E94E21080914C
:1026D000E8008E778093E8000F900F900F90DF91C5
:1026E000CF910895BC0183E00C943F13BC0184E0BA
:1026F0000C943F130F931F93CF93DF938B01D82F2D
:10270000C92F0E94E90CA8016D2F7C2F88E090E072
:10271000DF91CF911F910F910C941737E7E7F5E008
:1027200085E0808311828FEF828386E98383148220
:10273000E4E7F5E082818360828365E070E08FEFFB
:1027400096E90C947A13CF93DF9300D000D0CDB7E5
:10275000DEB780917B05833018F48F5F80937B0513
:102760008091770590917805A0917905B0917A05CF
:1027700089839A83AB83BC83BC01CD010F900F90FA
:102780000F900F90DF91CF910C947A13CF93DF933A
:1027900000D000D0CDB7DEB780917B05882319F03B
:1027A000815080937B058091770590917805A09169
:1027B0007905B0917A0589839A83AB83BC83BC0188
:1027C000CD010F900F900F900F90DF91CF910C944F
:1027D0007A13EF92FF920F931F93CF93DF9300D062
:1027E00000D000D00F92CDB7DEB7082FF62E142FF1
:1027F000E22E8091770580FF6BC0E82FE695F0E030
:10280000E45BFE4F9081909374058E7F823009F0D7
:102810005AC0473908F046E99E012F5F3F4F6F2DA0
:10282000802F0E94480C8091770580FF11C02B817A
:1028300039814A81809117019091180153E0859F59
:10284000F0011124EA56FB4F8917B8F10E94571284
:1028500080917805801308C0809179058F1104C09C
:1028600080917A05811729F08091760582608093A6
:10287000760500937805F092790510937A05EE209D
:1028800039F18091770590917805A0917905B09103
:102890007A058C839D83AE83BF83BC01CD012796CF
:1028A0000FB6F894DEBF0FBECDBFDF91CF911F9161
:1028B0000F91FF90EF900C947A1341833083228321
:1028C0008F5F3396C1CF923019F600917805C0CF53
:1028D00027960FB6F894DEBF0FBECDBFDF91CF9124
:1028E0001F910F91FF90EF900895E7E7F5E0818148
:1028F00021E043816281865F0C94E913E7E7F5E00C
:10290000818121E0438162818A500C94E913E7E7D9
:10291000F5E0628121E1620F08F46FEF21E043816D
:1029200081810C94E913E7E7F5E0628121E1621B04
:1029300008F460E021E0438181810C94E913E7E72A
:10294000F5E0438121E1420F08F44FEF21E062817D
:1029500081810C94E913E7E7F5E0438121E1421B13
:1029600008F440E021E0628181810C94E9131F9317
:10297000CF93DF93982F162F81E09A3019F09D3076
:1029800031F480E0DF91CF911F910C944A15C091F2
:102990009004D091910486E0FE01A9E8B2E0019094
:1029A0000D928A95E1F7903EA8F186E0FE01119222
:1029B0008A95E9F7C0919004D0919104111136C025
:1029C00046E050E0BE0189E892E00E944A349E0150
:1029D00020593240892BA9F52A5F3F4F40918F0241
:1029E000642F70E0C9010E948E33481B463010F4FA
:1029F000240F311D211572E0370710F030E020E080
:102A000020573D4F3093910420939004DF91CF9154
:102A10001F910895F6E09F9FB00111246D577D4FDF
:102A200046E050E0CE010E943434C4CF9E012A5FBC
:102A30003F4FFE012E173F0719F280818095819349
:102A4000F9CFC90145E0969587954A95E1F741E0B0
:102A500050E0BA0102C0660F771F8A95E2F7CB01FA
:102A60006091870270918802862B972BB9016B5F6A
:102A70007F4FE5E076956795EA95E1F702C0440F50
:102A8000551F6A95E2F7842B952B909388028093CB
:102A90008702A2CFCF93E82F209190043091910428
:102AA0002059324040918F02642F70E0C9010E948A
:102AB0008E33481B842FEE2369F066E00E94823338
:102AC000C82FC15010F4CF91089560E080E20E94B9
:102AD000B714F7CFA901480F511D4115524018F006
:102AE00080E030E020E0280F311D20573D4F30932B
:102AF000910420939004E7CF1F93CF93DF93EC01D1
:102B0000162FFE018491811104C0DF91CF911F9196
:102B10000895612F0E94B7142196F3CF0E947C156F
:102B200081E00C944A1510923002E6E9F1E086E06B
:102B3000DF011D928A95E9F70C94D80E1F93CF936D
:102B4000DF93CDB7DEB7AA970FB6F894DEBF0FBEFE
:102B5000CDBF82EA91E0FC0101962091F100208333
:102B600021E08A3A9207B9F78091A301893009F4EC
:102B700056C0C8F4823009F4B1C0833009F480C073
:102B8000813071F18091E80083FF78C28091A201C9
:102B90009091A3019A3008F071C2E92FF0E0E55C52
:102BA000F84C0C94D5338A3009F487C08B3051F738
:102BB0008091A201813231F78091A6019091A70105
:102BC000892B01F78091E800877F8093E8000E94BD
:102BD00073108091A401809314010E949315D2CFA9
:102BE0008091A201813A71F68091E800877F8093FD
:102BF000E8008091A6019091A701892B61F468E01B
:102C000083EF91E070E00E9419108091E8008B77CB
:102C10008093E800B7CF60E090E080E0F3CF809150
:102C2000A201813209F0AECF8091A6019091A70157
:102C3000029708F0A7CF8091E800877F8093E80093
:102C40008091E80082FF17C09091F3008091F2001C
:102C5000029729F48091F1008B7F813021F48091DB
:102C6000F1008093FB018091E8008B778093E8006E
:102C70000E94731087CF80917C058111E1CF82CFB4
:102C80008091A201813A09F07DCF8091A6019091B7
:102C9000A701892B09F076CF8091E800877F809388
:102CA000E8008091E80080FFFCCF809114018093C0
:102CB000F1008091E8008E77D9CF8091A201813216
:102CC00009F060CF8091E800877F8093E8000E9440
:102CD00073108091A50180939E0154CF8091A20131
:102CE000813A09F04FCF8091E800877F8093E80018
:102CF0008091E80080FFFCCF80919E01D8CF803882
:102D000099F0823809F0BAC18091A6018F7087309E
:102D100008F0B4C18093E9008091EB0085FB88271F
:102D200080F91092E90006C080919F019091F20114
:102D3000911182609091E800977F9093E8008093D2
:102D4000F1001092F1008091E8008E7793C1882302
:102D500009F481C1823009F091C18091A4018111EF
:102D600084C18091A6018F702FEF280F263008F0C4
:102D700085C18093E9002091EB0020FF76C193305C
:102D800031F48091EB0080628093EB006EC19091F2
:102D9000EB0090619093EB0021E030E001C0220F46
:102DA0008A95EAF72093EA001092EA008091EB00FE
:102DB0008860EACF811162C11091A4011F778091D0
:102DC000E3008078812B8093E3008091E800877F87
:102DD0008093E8000E9473108091E80080FFFCCF90
:102DE0008091E30080688093E30082E0111183E02A
:102DF00080937C0543C18058823008F03FC14091E8
:102E0000A4015091A5014C3D83E0580799F583E05A
:102E10008A838AE289834FB7F894DE01139620E013
:102E20003EE051E2E32FF0E050935700849120FF01
:102E300003C082958F703F5F8F708A30C8F0895CC5
:102E400090E08D939D932F5F243161F74FBF809168
:102E5000E800877F8093E8006AE270E0CE01019687
:102E60000E9419108091E8008B778093E80006C1DA
:102E7000805DE6CF2091A6013091A701852F99278B
:102E80008330910509F160F48130910509F472C035
:102E9000029709F0F3C08BE390E0E2E2F1E029C091
:102EA0008132910509F45AC0829709F0E7C02115D3
:102EB000310509F469C02130310509F0DFC082E332
:102EC00090E0E0EBF0E015C0CA0199274130B1F184
:102ED0008230910509F43AC0892B09F0CFC0E9E9A5
:102EE000F1E0E4918E2F90E0E9E9F1E0009709F438
:102EF000C5C02091E800277F2093E8002091A80119
:102F00003091A9018217930708F49C0140E0211534
:102F1000310509F03EC041113CC08091E80082FDBE
:102F2000A1CF80917C05882309F49CCF853009F4DA
:102F300099CF8091E80083FFF0CF94CFEDE7F1E0E7
:102F4000E4918E2F90E0EDE7F1E0D0CFEFE6F1E0F5
:102F5000E4918E2F90E0EFE6F1E0C8CF2115310526
:102F600071F02130310509F089C089E090E0EDE48D
:102F7000F1E0BFCF82E190E0EDE5F1E0BACF89E08A
:102F800090E0E4E3F1E0B5CF80E490E0E2EEF0E041
:102F9000B0CF80917C05882309F464CF853009F493
:102FA00061CF8091E80083FD5DCF8091E80082FDD4
:102FB000B4CF8091E80080FFAACF9091F300809178
:102FC000F2002115310519F08830910550F041E0EB
:102FD000089709F040E08091E8008E778093E80040
:102FE00096CF44914093F1003196215031090196DA
:102FF000E8CF803809F042C08091E800877F809355
:10300000E8008091A0018093F1009DCE811136C02F
:103010001091A401123090F58091E800877F809391
:10302000E8001093A0010E947310112311F084E0B6
:1030300005C08091E30087FDFACF81E080937C0595
:1030400042E061EC81E00E94A31142E261EC82E087
:103050000E94A31113C08091A401813079F481E012
:10306000933009F080E08093F2011092E9008091A2
:10307000E800877F8093E8000E9473108091E80049
:1030800083FF0AC08091E800877F8093E8008091E9
:10309000EB0080628093EB00AA960FB6F894DEBF37
:1030A0000FBECDBFDF91CF911F910895CF93C091F7
:1030B0009B05C2FB992790F9981781F080FBC2F914
:1030C000C0939B0560919A0584E090E00E940537CB
:1030D0006C2F82E290E0CF910C940537CF91089548
:1030E0006AEE7EEF90E080E00E94233760E082E0AD
:1030F00090E00E94053760E083E090E00E94053791
:103100001092320210923302109234021092350261
:1031100060E084E090E00E94053760E082E290E0A9
:103120000E94053760E085E090E00E94053760E08E
:1031300086E090E00E9405376FEF87E090E00E9404
:10314000053740E050E0BA0188E090E00E94173770
:1031500060E08DE090E00E94053740E050E0BA0169
:1031600088E190E00E94173760E087E190E00E94DC
:10317000053740E050E0BA018CE190E00E9417373B
:1031800070E060E080E290E00E94233740E050E091
:10319000BA0188E190E00E94173740E050E0BA01A0
:1031A0008FE090E00E94173740E050E0BA0183E1E1
:1031B00090E00C941737CF9384E090E00E94F136B2
:1031C000C82F82E290E00E94F136982F8C2FCF9189
:1031D0000895CF92DF92EF92FF920F931F93CF93B8
:1031E000DF936C017B0164E670E088E70E94E22EC9
:1031F000EC018601EC0CFD1C97FD0EC0F8018491DA
:1032000064E670E00E943E2FEC01892B29F40F5FE9
:103210001F4FE016F10691F70E94CB2FCE01DF91F0
:10322000CF911F910F91FF90EF90DF90CF90089575
:103230008091E501882371F08091E201882351F0AB
:1032400062E070E08EEA90E00E94E918892B11F4A8
:103250001092E2010895CF93DF9300D000D0CDB754
:10326000DEB78091E5018823F9F00E94E40FDC01CC
:10327000CB01805A9541AF4FBF4F8093DE019093B1
:10328000DF01A093E001B093E1018091E20181119F
:103290000BC062E070E08CEA90E00E94E918892B94
:1032A00019F481E08093E2010F900F900F900F903E
:1032B000DF91CF91089580919C05089580917605C6
:1032C0000895109276050895CF93DF93EC0185E081
:1032D000E7E7F5E0DE0101900D928A95E1F7809134
:1032E000740590917505A09176058D839E83AF83BB
:1032F000DF91CF91089580939C050895E091950406
:10330000F0E0ED56FB4F2081FC0120830895FF92F1
:103310000F931F93CF93DF93D09192040D2F10E062
:103320000D561B4FFC01C081F8018081C81BFC2E8B
:1033300080E01F147CF09C2FC7FD90E0C91BC111D9
:1033400014C08823E9F0DF91CF911F910F91FF9076
:103350000C940410FA94F80180818F5F808361E0FF
:103360008D2F0E94F51281E0E4CFCF5FF8018081BC
:103370008150808360E08D2F0E94F51281E0DFCFC5
:10338000DF91CF911F910F91FF9008951F921FB66B
:103390001F9211248F939F93AF93BF938091040248
:1033A000811113C08091000290910102A09102024C
:1033B000B09103024196A11DB11D8093000290932C
:1033C0000102A0930202B0930302BF91AF919F91BB
:1033D0008F911F901FBE1F9018952FB7F894809162
:1033E000000290910102A0910202B09103022FBF4E
:1033F0000895AF92BF92CF92DF92EF92FF920F9318
:103400001F93CF93DF93CDB7DEB729970FB6F8940C
:10341000DEBF0FBECDBF84E5E82E81E0F82E90E937
:10342000A92E95E0B92E00E0CC24C394D12CD7016D
:103430008D917D01F894E82FE295EF70F0E021A1E5
:103440008F70A60102C0440F551F8A95E2F7CA018A
:10345000922F982B91A392A18095892382A378948F
:1034600000C0EEE5F1E030E020E010E04191A42F53
:10347000A295AF70A05EB0E08C9190E04F7002C05A
:10348000959587954A95E2F780FD47C08C2D022ED1
:1034900001C0880F0A94EAF7182B2F5F3F4F2630A0
:1034A000310521F7F701319780810E942F0C50EAF6
:1034B0005A95F1F7D5018D915D01181781F1FD0144
:1034C0003197108381E0082BB9E5EB16B1E0FB06DC
:1034D00009F0ADCF10918F05002319F181E08093A1
:1034E00080050E94ED1990937F0580937E05809161
:1034F0007E0590917F050E9406100697B0F0A12FDF
:10350000B0E0AB57BA4F85E0E0E9F5E001900D92ED
:103510008A95E1F71092800508C080E0BDCF80E079
:10352000D2CF809180058111E2CF0E943412182FF2
:1035300060918F05882309F4B4C01A821982FE01B4
:10354000339683E0DF011D928A95E9F7862F90E09C
:1035500032977F01BF018B579A4F0E94642E8111D1
:1035600083C0809184058F5F80938405863008F442
:1035700096C0E0918305F0E0EB57FA4F85E0DF015C
:10358000282F1D922A95E9F7D7011D928A95E9F710
:1035900080918105909182050E940610893E93409A
:1035A00008F44DC0E0909C05F12C882799278E19CE
:1035B0009F099C01990F440B550B2E833F8348872D
:1035C0005987CA01B9010E94B23227EA39E747E4B4
:1035D0005DE36E837F83888799876E817F8188858D
:1035E00099850E9415335B016C01C701FF0CAA0B82
:1035F000BB0B8E839F83A887B987BC01CD010E9436
:10360000B2329B01AC01AE82BF82C886D9866E8180
:103610007F81888599850E9415326E837F83888794
:1036200099876E817F81888599850E948132609318
:103630009C050E94ED1990938205809381050111EC
:1036400001C0012F802F29960FB6F894DEBF0FBE60
:10365000CDBFDF91CF911F910F91FF90EF90DF9041
:10366000CF90BF90AF90089510928405A0918305EC
:10367000B0E0AB57BA4F9E012A5F3F4F10E04D912B
:10368000F70191917F01491731F0AD014150510986
:10369000FA019083182FE216F30689F779CF10E02C
:1036A00077CF70E06B577A4F8091830590E08B570E
:1036B0009A4F0E94A42EC3CFFF920F931F93CF93D4
:1036C000DF93C62FD42F122F8823A9F060932E02E8
:1036D0000E94ED1990939D0180939C01C77081E039
:1036E00001C0880FCA95EAF7DF91CF911F910F9122
:1036F000FF900C94C30E80912E02681336C0809107
:103700009C0190919D010E9406108436910568F5F8
:1037100000E20D0FCD17A9F0C770FF24F3948F2D91
:1037200001C0880FCA95EAF70E94CD0E083048F410
:103730008D2F877001C0FF0C8A95EAF78F2D0E94AC
:10374000C30E6AE070E0812F0E94E0120830A0F4FE
:10375000D77081E001C0880FDA95EAF7DF91CF9149
:103760001F910F91FF900C94CD0EC77081E001C0A6
:10377000880FCA95EAF7F2CFDF91CF911F910F9191
:10378000FF90089578941F921FB61F9211248F9373
:103790009F93AF93BF938091000290910102A091FB
:1037A0000202B09103020196A11DB11D8093000297
:1037B00090930102A0930202B0930302BF91AF91D4
:1037C0009F918F911F901FBE1F901895CF92DF92EF
:1037D000EF92FF92CF93DF9300D000D0CDB7DEB74A
:1037E0006B017C010E94341281110EC00E94E40F13
:1037F000C61AD70AE80AF90AC092FC01D092FD0164
:10380000E092FE01F092FF010F900F900F900F9049
:10381000DF91CF91FF90EF90DF90CF900895CF93FD
:10382000DF9300D000D0CDB7DEB70E9434128823DA
:1038300041F00F900F900F900F90DF91CF910C946B
:10384000E40F0E94E40F69837A838B839C838091C9
:10385000FC019091FD01A091FE01B091FF01298131
:103860003A814B815C81280F391F4A1F5B1FCA01B7
:10387000B9010F900F900F900F90DF91CF910895A5
:103880000E94341281110C94ED190E940F1CCB017F
:10389000089560917705669570E041E050E08AE117
:1038A00091E00E943D34892B19F481E080937505E5
:1038B0000E94401C90936F0580936E058091760561
:1038C0008460809376050895CF93DF9300D000D075
:1038D000CDB7DEB79091770590FF4CC0882309F4EF
:1038E00042C0883008F041C08F77880F90917705EB
:1038F0009170892B80937705809176058160809304
:103900007605662381F08091770590917805A091E6
:103910007905B0917A0589839A83AB83BC83BC0116
:10392000CD010E947A1360917705669570E041E0C1
:1039300050E08AE191E00E943D34892BC1F00E9461
:10394000FF0C81E08093710520E040917A05609141
:103950007905809178050F900F900F900F90DF916F
:10396000CF910C94E91381E0C0CF87E0BECF0E94D5
:10397000491CE7CF0F900F900F900F90DF91CF91E0
:1039800008958091770586958F5F883008F081E0F3
:1039900061E00C94641C9091770596958FEF890FE8
:1039A000913009F487E061E00C94641C8091770504
:1039B00080FF07C0869582588F77853010F40C946D
:1039C000C11C61E082E00C94641C4F925F926F9284
:1039D0007F928F929F92AF92BF92CF92DF92EF929F
:1039E000FF920F931F93CF93DF9300D000D000D0AE
:1039F0000F92CDB7DEB77C01DC019C9111968C91C2
:103A0000119713962D913C91232B21F089238F3F01
:103A100009F065C627960FB6F894DEBF0FBECDBF7E
:103A2000DF91CF911F910F91FF90EF90DF90CF909A
:103A3000BF90AF909F908F907F906F905F904F90CE
:103A400008952D813E8190E080E02F3F310511F0F7
:103A500008F066C68D819E8163C6ED81FE81E056C9
:103A6000FD45E830F10598F5EB5BF84C0C94D53347
:103A70008D819E818D37910509F4E2C06D807E8035
:103A800024EF62162CE5720609F41FC16D807E805A
:103A900025EF62162CE5720608F0F9C039ED6316C1
:103AA0003CE5730609F40DC14AED64164CE5740655
:103AB00009F413C126E241EE61EE58ED65165CE5AE
:103AC000750609F0CBC6812F0E945C1B0DC0112327
:103AD00059F061E083E090E00E94053761E070E01A
:103AE00080E090E00E94E60E80913B02877009F42E
:103AF00091CFD70112968C91882309F48BCF82E065
:103B000027960FB6F894DEBF0FBECDBFDF91CF91E1
:103B10001F910F91FF90EF90DF90CF90BF90AF90EB
:103B20009F908F907F906F905F904F900C94600F5C
:103B300081E0112339F00E94FA0E0E940C11D4CFBB
:103B400082E0F7CF0E942B0FF8CF83E0112319F00A
:103B50000E94FA0EC9CF0E942B0FC6CF80919B0501
:103B60008170112369F0882349F084E00E94460A9D
:103B70000E94C30E80E50E94980F70C681E0F6CFC8
:103B8000882349F084E00E94460A0E94CD0E80E519
:103B90000E94940E63C681E0F6CF80919B058170F0
:103BA000112359F0882339F084E00E94460A0E94CC
:103BB000C30E8FE4E0CF81E0F8CF882339F084E0B2
:103BC0000E94460A0E94CD0E8FE4E2CF81E0F8CF3A
:103BD00080919B058170112321F08111CFCF8AE460
:103BE000CACF8111D8CF8AE4D3CF80919B05817051
:103BF000112321F08111DFCF8DE4BDCF8111E6CFFC
:103C00008DE4C6CF81E00E94460A112321F00E9474
:103C1000C30E8AE2B0CF0E94CD0E8AE2B9CF81E016
:103C20000E94460A112331F00E94C30E86E00E94D2
:103C3000980F5ACF0E94CD0E86E00E94940E54CF6A
:103C400081E00E94460A112321F00E94C30E89E1FF
:103C5000EECF0E94CD0E89E1F0CF81E00E94460AAE
:103C6000112321F00E94C30E8BE1E1CF0E94CD0E03
:103C70008BE1E3CF81E00E94460A112321F00E94EC
:103C8000C30E8DE1D4CF0E94CD0E8DE1D6CF6D80D5
:103C90007E8026EF62162CE57206D9F027E245EE0B
:103CA00066EE37EF63163CE5730609F40CCF45EF7B
:103CB00064164CE5740609F0D1C527E245EE64EEC2
:103CC00002CF27E245EE65EEFECE26E241EE60EE43
:103CD000FACE26E241EE62EEF6CE28E241E0F3CFE4
:103CE0002D813E812B5F3C452930310508F4CBC541
:103CF0008D809E8026E182162CE5920609F086C111
:103D000080913002992309F4BBC08A7A91E009F4CA
:103D100090E090932F0269E2811165E384E991E0DC
:103D20000E947E0F0E94670EDFCEED81FE81E35080
:103D3000FC4580919A058160E331F105C8F4E35BAD
:103D4000F84C0C94D5338D819E818B5F9C450997EF
:103D500008F0ADC5ED81FE81EC5FFC45E830F10572
:103D600090F4E05AF84C0C94D53380919A05826017
:103D700080939A059CC580919A058460F9CF8091C3
:103D80009A058860F5CF80919B05816080939B05A3
:103D90008EC580919B058260F9CF80919A058061E4
:103DA000E7CF80919A058062E3CF80919A05806485
:103DB000DFCF0E94931580919A058068D9CF8091BA
:103DC0009A058C60D5CF80919B058360DFCF809171
:103DD0009A058E7FCDCF80919A058D7FC9CF809136
:103DE0009A058B7FC5CF80919A05877FC1CF80913F
:103DF0009B058E7FCBCF80919B058D7FC7CF809118
:103E00009A058F7EB5CF80919A058F7DB1CF809135
:103E10009A058F7BADCF0E94931580919A058F777D
:103E2000A7CF80919A05837FA3CF80919B058C7F3C
:103E3000ADCF80919A0582FB992790F921E09227D6
:103E400090FB82F990FB83F993CF80919B05982F8B
:103E5000909591708E7F892B90FB81F997CF0E946E
:103E6000931590919A05892F97FB87F9805880CFF9
:103E700061E08EE090E00E94053719C560E0F9CF5F
:103E800080912F02811104C089E20E94540E4ACF12
:103E900085E3FBCF6D807E802EE562162DE57206F0
:103EA00009F422CEF701828100811181882309F46F
:103EB000FDC0C8010E94A50D8983682FC8010E941A
:103EC0004E0DB80189810E94890A8D839F83D70195
:103ED00012961C91129715960C9102950F70809175
:103EE0003B028770C9F0B12E1123B9F0892F807F72
:103EF000803449F09D81905E983070F0803619F4DE
:103F0000BD81B63F49F082E00E94600F80913B0284
:103F10008770BB24B3948111B12C8F8182958F70EF
:103F2000C82ED12C8C3008F0FDC0F601E859F84CB1
:103F30000C94D5338091770580FF26C08E7F8093C7
:103F400077058091770590917805A0917905B091DA
:103F50007A0589839A83AB83BC83BC01CD010E941F
:103F60007A130E94FF0C809176058160809376051C
:103F70009FEFA0E7B2E09150A040B040E1F700C051
:103F800000000E945712B0CD81608093770561E0F8
:103F900086950E94641CA8CD4BEC5CE161EC7CE151
:103FA0000E94070DA1CD41EC5CE16BEC7CE1F8CF08
:103FB0004EE754E165E774E1F3CF45E754E16EE77E
:103FC00074E1EECF43E954E167E874E1E9CF47E8F3
:103FD00054E163E974E1E4CF4BEA54E16FE974E141
:103FE000DFCF4FE954E16BEA74E1DACF46EC53E1FD
:103FF00063EA73E1D5CF43EA53E166EC73E1D0CFD6
:1040000061E081E0C6CF0E94D61C6ECD6D807E80BF
:1040100081E02BE562162DE5720639F16D807E8018
:104020002CE562162DE5720668F461143CE5730612
:10403000F9F04FED64164CE5740609F033CF0E9499
:10404000701852CD6D807E802CE562162DE57206CB
:1040500059F13DE56316730609F024CF80919B0565
:1040600082FB882780F991E089270E9456181ACF91
:104070000E9493154FEF54E38CE041505040804034
:10408000E1F700C0000087E797E79093010880936D
:10409000000888E19AE00FB6F894A8958093600034
:1040A0000FBE90936000FFCF80E0DFCFC8010E9479
:1040B0007C0D898306CF0F810F708F81807F11F077
:1040C0000295007F1123D1F0002371F08D81805E75
:1040D000883018F06D8061100BC080913002802B09
:1040E000809330020E94670E8D810E94980F1AC043
:1040F00080913D02802B80933D02F4CF8D810E9400
:10410000940E002379F000958D81805E883018F040
:104110007D80711053C080913002802380933002E3
:104120000E94670EB8E0CB1AD108E4E0CE16D104A5
:1041300010F40E940C0D112379F0FF81F07FF0360E
:1041400019F42D81263F41F080913A02823009F026
:10415000BEC283E080933A02BB20B1F080913B0263
:1041600080FD12C0D70112961C9285958595859584
:104170000E94FA0EC7010E94E51C80913B028595C2
:10418000859585950E942B0F60E0C70127960FB695
:10419000F894DEBF0FBECDBFDF91CF911F910F917D
:1041A000FF90EF90DF90CF90BF90AF909F908F9057
:1041B0007F906F905F904F900C94E70D80913D023F
:1041C000802380933D02ACCF2F812F70A22E8F8150
:1041D000807F803219F0A29480EFA8226D80662043
:1041E00089F0262D213089F11123D1F1002391F19D
:1041F000D70115968C91159780FF76CF8F70159605
:104200008C9328C01123A9F0909131028A2D892B1B
:10421000011103C00E94C30E85CF0130D9F7209150
:104220009B0522FD7FCF891709F47CCF8093310253
:1042300079CF011106C00E94610E8A2D0E94CD0E19
:1042400071CF013009F46ECFF6CF112329F006307B
:1042500008F068CF8A2DDECF053008F063CFEDCFB0
:10426000002359F3BD81B93369F4EFEFF7EE23E092
:10427000E150F0402040E1F700C000008D810E9435
:10428000940E50CF8FE39CE90197F1F7F5CF8F8122
:1042900086958695837069F0813009F043CF8D81D2
:1042A0009F819370111102C090E080E00E942E0D5A
:1042B00039CF8D819F819370111102C090E080E011
:1042C0000E94180D2FCF8F81837009F07BC01111D0
:1042D00029CF2D81229526952770220F220F4D81FF
:1042E0004F7050E070E060E0022E04C0440F551F94
:1042F000661F771F0A94D2F76D8080E090E0DC01A2
:1043000064FE0FC08FE090E0A0E0B0E004C0880F32
:10431000991FAA1FBB1F2A95D2F780959095A0954B
:10432000B0952F81269526952370223059F12330A0
:1043300009F441C040903202509033026090340240
:1043400070903502213099F0842B952BA62BB72B3A
:104350009C01AD01242135214621572129833A832F
:104360004B835C83CA01B9010E94E60EDBCE442A6E
:10437000552A662A772AA3019201282B392B4A2B2A
:104380005B2BECCF842B952BA62BB72B40913202C5
:104390005091330260913402709135023C014D011D
:1043A000642675268626972669827A828B829C826D
:1043B000C401B301D9CF3A014B01682A792A8A2A6C
:1043C0009B2AF2CF112309F451C07F8070FEAACE40
:1043D0002D81229526952770220F220F4D814F7037
:1043E00050E070E060E0022E04C0440F551F661FCD
:1043F000771F0A94D2F79D8080E090E0DC0194FE64
:104400000FC08FE090E0A0E0B0E004C0880F991FDB
:10441000AA1FBB1F2A95D2F780959095A095B095BD
:104420002F81269526952370223079F1233009F4C7
:104430003FC0409036025090370260903802709032
:1044400039022130B9F0842B952BA62BB72B9C0178
:10445000AD01242135214621572129833A834B83FD
:104460005C83CA01B9010E94F00E5CCE8F8081FE90
:1044700059CEAECF442A552A662A772AA301920143
:10448000282B392B4A2B5B2BE8CF842B952BA62B83
:10449000B72B4091360250913702609138027091EB
:1044A00039023C014D01642675268626972606C0F2
:1044B0003A014B01682A792A8A2A9B2A69827A82E0
:1044C0008B829C82C401B301CECF0F810F70112368
:1044D00029F0802F0E94FA0E8D819CCE8D810E9442
:1044E000CD0E802F0E942B0F1DCE2D81223F09F46F
:1044F00046C060F4203F21F1213FC9F1112309F4A6
:1045000063C00111F1CD8F818F7136C03D81333F82
:10451000D9F1343F99F7112309F44CC00F810F7181
:10452000802F0E94FA0E80919B0582FD07C028E033
:10453000029FC0011124836080933B02802F1CC026
:10454000112389F0053008F0EDCD2F812F7181E026
:1045500090E0A0E0B0E004C0880F991FAA1FBB1F25
:104560002A95D2F796CF063008F0DCCDEECF8F81BA
:104570008F71112309F4B6CF0E94FA0ED3CD8F812B
:104580008F711123C9F3AECF60E070E0CB0111232E
:1045900009F469CF8F818F7141E050E060E070E0F5
:1045A0003A014B0104C0660C771C881C991C8A9543
:1045B000D2F784CF81E00E94600F023008F4B2CDC0
:1045C00082E00E94600FAECD002381F03D8139333F
:1045D00041F44FEF57EE83E0415050408040E1F707
:1045E0004BCEAFE3BCE91197F1F746CE8F818F71C7
:1045F00079CFED81E05FE73008F03EC0F0E0EC58A5
:10460000F84C0C94D533112309F48CCD80914802D9
:1046100091E089278093480285CD1093480282CD8E
:1046200081E08127F7CF11117DCD81E0F3CF11110A
:1046300079CD1092480276CD112321F082E080934B
:104640003A02F3CF80913A02823021F481E08093E4
:104650003A0268CD833009F065CD10923A02E9CF75
:10466000112339F080913C02882381F210923C02A0
:1046700059CD053058F256CD80913C020023D9F037
:10468000882341F08091480291E089278093480275
:1046900010923C02111128CDEFE3FCE93197F1F7BC
:1046A00000C000008D810E94940E86E0D7011D920B
:1046B0008A95E9F737CD882309F434CD111132CD2D
:1046C0008091480291E0892780934802CFCF8130C2
:1046D00009F042CD10923A02109248023DCD61E0BD
:1046E000C7010E94E70D8D839E83F7018281882395
:1046F00009F494C08D819E8190568115904268F096
:104700008D819E8190548115904138F08D819E81DC
:104710009A9581159F4108F094C98D819E819927B2
:104720009C01245031092432310520F08B970E97DB
:1047300008F074C08091810590918205009709F47A
:1047400067C00E94061000919C059C0150E040E06B
:1047500060E67AEE80E090E00E94B633CA01B901CB
:1047600025E030E040E050E00E94B6332F3F3105B5
:1047700019F010F02FEF30E010E0201B310BC901D1
:10478000B0E0A0E089839A83AB83BC83B901CD01FB
:104790000E94B03227EA39E747E45DE369837A8310
:1047A0008B839C8369817A818B819C810E941533E4
:1047B00069837A838B839C8369817A818B819C81D5
:1047C0000E9493315B016C013801110F8808990830
:1047D00069827A828B829C82C401B3010E94B232C8
:1047E0009501A60169837A838B839C8369817A8191
:1047F0008B819C810E94153269837A838B839C8391
:1048000069817A818B819C810E94813260939C05B1
:104810000E94ED199093820580938105D70112962D
:104820001C916D807E8028E662162DE5720608F0E8
:104830002DC93FE563163DE5730608F00EC9A301D7
:104840004C37510509F4EBC908F012C94A37510534
:1048500009F410CA4B37510509F4FFC9D701129664
:104860009C919923A9F110922E026D807E8026E101
:1048700062162CE5720608F033CA32E063163CE596
:10488000730608F4CBCB0E94DB1890939B058093B2
:104890009A056D807E8026E162162CE5720608F08E
:1048A00052CA32E063163CE5730608F03ECA6091D6
:1048B0009A0560909B05698284E090E00E9405372C
:1048C000698182E290E00E9405370E9493150CC92D
:1048D0006D807E8026E162162CE5720609F410CA0E
:1048E0008091300282726D807E8027ED62162CE509
:1048F000720608F0CFCA33EC63163CE5730608F481
:10490000D1CAF301E45CFC45E331F10508F012CBB8
:10491000E558F84C0C94D5331F93CF93DF938091D7
:104920008002807FA9F480917D02882389F08091A4
:104930004A02C091490270917B0260917C02A09171
:104940007E02B0917F02D62FD72316E0C81304C091
:10495000DF91CF911F91089590E0109711F0DF3F04
:1049600019F401968770F2CF189F9001199F300DAE
:104970001124F901E55BFD4F41816413F2CF4081C1
:104980004713EFCF42814111ECCF438154814A1B41
:104990005B0B4436510528F7809180028F7080614F
:1049A00080938002F901E05BFD4F80818F70806110
:1049B00080838BE792E00E94E51CDF91CF911F91ED
:1049C0000C94440DAF92BF92CF92DF92EF92FF9280
:1049D0000F931F93CF93DF93CDB7DEB72B970FB60F
:1049E000F894DEBF0FBECDBF8C0185E0F801DE017B
:1049F000179601900D928A95E1F7F801E2803081D7
:104A00002181C380D4808BE7A82E82E0B82E9091BC
:104A10007B0240917C0260917E0270917F02611561
:104A2000710529F0892F84238F3F09F01AC1EE20E8
:104A300009F425C18F8198850E94270EF82E8823BE
:104A400009F41DC186E0F801ABE7B2E001900D92D8
:104A50008A95E1F780917B0290917C020E941B0E67
:104A600092959F70963051F4863F41F080914802B4
:104A700091E089278093480290933C020E948C2405
:104A80001DC080918002582F507F6436710508F058
:104A9000A1C05111AEC0FE2C241322C0931320C01C
:104AA000E1101EC08F708061809380028BE792E0DE
:104AB0000E94E51C80918002F80185838F2D2B9642
:104AC0000FB6F894DEBF0FBECDBFDF91CF911F911F
:104AD0000F91FF90EF90DF90CF90BF90AF9008952F
:104AE000CD2829F0822F83238F3F09F07FC080E0FB
:104AF000F82FF170DF2EE0914A024091490256E012
:104B000080FD1CC0EE20D1F28091800281608093F4
:104B10008002F12CD3CF8E2F90E05E9FF001112404
:104B2000E55BFD4F6181261306C06081361303C02B
:104B300062816E11E7CF0196E82FE770E413EBCFA7
:104B40008F8198850E941B0E292F22952F709032FD
:104B500060F0225F2F70223078F49F7051F0F801DE
:104B60009581907F31F4D12C0AC09F7011F0882379
:104B7000D1F3805E8830B8F3C8010E94E51CFD2C9B
:104B80009DCF8F8198850E94270E882309F477C0D6
:104B9000EE2009F474C080918002803270F0209180
:104BA0007B0230917C023A8329831B82DD82CC8296
:104BB0008E83CE0101960E94E51C86E0F801ABE7EA
:104BC000B2E001900D928A95E1F70E948C24FF24B7
:104BD000F39474CF511121C08BE792E00E94E51C41
:104BE00086E0F50111928A95E9F793CF81E08E2551
:104BF0007FCF2413C6CF9313C4CFE110C2CFF801E7
:104C00008583C8010E94E51C86E0F801ABE7B2E0AD
:104C100001900D928A95E1F751CF2413B2CF9313EF
:104C2000B0CFE110AECFF8018583C8010E94E51C2A
:104C300086E0F50111928A95E9F740CF241302C06E
:104C4000931711F38F8198850E94270E8111B5CF9C
:104C500080918002816080938002C8010E94E51CDF
:104C60002DCFF0907D02F601E61BF70BBF01F1108E
:104C700008CF64367105E0F6FE2CE110DFCFC801E5
:104C80000E94E51CA4CFFF920F931F93CF93DF9355
:104C9000CDB7DEB767970FB6F894DEBF0FBECDBFB6
:104CA000E42F4B8B5C8BF62E6D8B7E8B8F8B962F30
:104CB0000E891F89611110923D020115110501F144
:104CC0002E2F25232F3F09F099C05FEFEFEF18C07B
:104CD00090914802992309F43BC08E2F90E066E042
:104CE000569F800D911D1124880F991FFC01E45FD0
:104CF000FD4F5491FC01E55FFD4FE491422B4C9335
:104D00001A8AED875E87FF86198B088B86E0FE0185
:104D10003D96DE01179601900D928A95E1F7CE013E
:104D200007960E94E2248823B9F016E080914A0297
:104D30009091490289134FC067960FB6F894DEBF71
:104D40000FBECDBFDF91CF911F910F91FF900895BE
:104D5000209524232C93D4CF86E0FE013796DE01E4
:104D6000119601900D928A95E1F79F818885209197
:104D7000490240914A026A857B85672BB1F28923FB
:104D80008F3F99F230E0C901019687709927481743
:104D9000190671F40E9493151092490210924A026A
:104DA00086E0EBE7F2E0DF011D928A95E9F7BDCFDF
:104DB00096E0929FD001939FB00D1124A55BBD4F4B
:104DC000FE01319601900D929A95E1F78093490288
:104DD0000E94440DAACF819FC0011124855B9D4F85
:104DE0000E94E224882309F4A7CF80914A0290E030
:104DF00001968770992780934A0298CF21E030E08E
:104E00000E2E01C0220F0A94EAF7A52FB0E0A25C93
:104E1000BD4F4C9191115CCF942F92235BCF1F9388
:104E2000CF93DF93EC01162F8F8180FF0BC0888119
:104E30009091770580FF21C09160909377058695CA
:104E40000E94641C8F8181FF06C0212F4B816A81E3
:104E500089810E94E9138F8182FF05C08E8188239A
:104E600011F10E94491C8F8183FF03C081E0809370
:104E70007105DF91CF911F9108959E7F90937705E3
:104E80000E94FF0C809176058160809376052FEF5C
:104E900080E792E0215080409040E1F700C00000A0
:104EA0000E945712CFCF0E94FF0CDDCFCDB7DEB7E7
:104EB00029970FB6F894DEBF0FBECDBF84B7877FAA
:104EC00084BF0FB6F894A8958091600088618093A4
:104ED0006000109260000FBE80E890E00FB6F8947A
:104EE00080936100909361000FBE85B7806885BF95
:104EF00085B7806885BF8CE79FE09093930180938E
:104F000092010E94C3100E94D3118091E20084603C
:104F10008093E200789480917C05882399F08091B9
:104F2000E9001091EC001795112717958F70182B39
:104F30001092E9008091E80083FD0E949E151F7089
:104F40001093E90082E084BD93E095BD9AEF97BD90
:104F500080936E001092FC011092FD011092FE01F0
:104F60001092FF010E943412809300018091000191
:104F7000882309F467C180E08093150184E280935F
:104F800016010E94341281110E943B2E8091000173
:104F90008091000195E0811190E090938F0585E06C
:104FA000891B8093830586E60E942F0C87E90E9467
:104FB0002F0C86EC0E942F0C84E30E942F0C85E3BB
:104FC0000E942F0C86EF0E942F0C87EF0E942F0C5F
:104FD00081E30E942F0C83E30E942F0C82E30E9446
:104FE0002F0C86E30E942F0C8AE0E0E9F5E0DF0158
:104FF000682E1D926A94E9F7E5E8F5E0DF011D925D
:105000008A95E9F790E080E00E94FF368A3E9E4F45
:1050100011F00E94701882E090E00E94F1368093B7
:10502000E7010E94DB1890939B0580939A0583E02B
:1050300090E00E94F136282F30E050E040E02E83CF
:105040003F8348875987CA01B9010E94E60E0E9432
:105050003412811102C00E94412E83E08093DC0152
:1050600080E280938F020E94DC2E6DE070E080EB86
:1050700091E00E94E918892B09F043C08091DC017E
:1050800063E070E081FDE0C08DEA91E00E94E918E4
:10509000892BB9F56DE070E08DE991E00E94E91887
:1050A000892B79F50E94E40F6E837F838887998727
:1050B000DC01CB01805A9541AF4FBF4F8093DE0199
:1050C0009093DF01A093E001B093E101E0E9F2E009
:1050D00080E092E0DF019C011D9221503040E1F719
:1050E000F0939104E09390048FEF9FEF90938802E8
:1050F0008093870281E08093E5018093E201109222
:10510000DD018091AA0181113BC090E080E00E9406
:10511000FF368A3E9E4F21F00E9470180E948E1327
:1051200088E090E00E94F9366093770570937805E7
:105130008093790590937A058091760583608093BA
:1051400076056E7F71F40E948E1388E090E00E94D5
:10515000F93660937705709378058093790590937D
:105160007A050E94E90C0E94FF0C8091770580FF70
:1051700004C060E086950E94641C81E08093AA01CF
:1051800080910001811106C084EF8093020185EFB8
:105190008093010140910201A42FA295AF70B0E06D
:1051A00091963C9191974F7081E090E0BC01042E64
:1051B00001C0660F0A94EAF7262F209523239196C3
:1051C0002C93919792962C919297262B92962C93B2
:1051D000929730910101E32FE295EF70F0E021A169
:1051E0003F70032E01C0880F0A94EAF7982F90951C
:1051F000922391A392A1892B82A390962C9180A1B6
:1052000090E002C0959587953A95E2F78170880FF6
:1052100030E002C0359527954A95E2F72170822B40
:105220008093AF019091000181E0982790939504BD
:10523000891B809392048AE091E090938602809388
:105240008502D6C084E298CE8AEA91E01FCF809191
:105250007C05843021F11092040248E150E060E4C2
:105260000FB6F894A895409360000FBE609360005D
:1052700083B7817F846083BF83B7816083BF789465
:10528000889583B78E7F83BF0FB6F894A8958091D9
:105290006000886180936000109260000FBE809172
:1052A000F201882361F00E94F919E5E8F5E08191A7
:1052B0008111ABC38FE895E08E179F07C1F78091EE
:1052C0007C05853009F4C3CF0E9493150E940C0D14
:1052D00095C0C394FF0C96E0C912A6C00F5F1F4F84
:1052E0000A30110509F096C08FEF89838A831B82EB
:1052F0000E94ED198160782F9D838C8349815A81AA
:105300006B81892F0E944326B0C0E12FF0E0ED565B
:10531000FB4F80818F5F808361E0812F0E94F512B7
:10532000FF24F3948091AE018F3F6CF4E12FF0E005
:10533000ED56FB4F80818150808360E0812F0E9479
:10534000F512FF24F3948091AE01082E000C990B06
:1053500062E070E00E94A2338093AE01F1100E94DF
:1053600004108091E5018823A1F18091E3019091DF
:10537000E4010E940610C29708F024C12091870220
:10538000309188022115310509F077C28091E20140
:105390008823F9F00E94E40F6E837F8388879987C2
:1053A0008091DE019091DF01A091E001B091E101D7
:1053B0002E813F8148855985281B390B4A0B5B0B91
:1053C000DA01C9018F3F9F4FAF4FBF4710F40E94D2
:1053D0001819E11001C0F1100E942B190E940C0D48
:1053E0009091E601891721F00E940C0D8093E6014F
:1053F00080917C0512E1853009F461CF0E94F91992
:10540000E82E81110E94E40FA5E8B5E0E8EEF1E096
:1054100010E000E0B02EDD9081918D1509F45ECF93
:105420008D25C12CFF24F3949F2D982309F451CF8F
:105430000E943412882399F0C982BA82DF2081E069
:1054400009F480E08B830E94ED198160782F9D83A1
:105450008C8349815A816B81892F0E944326F801F0
:10546000E851FE4F80818F258083809175058823C8
:1054700009F46BC080917405E0917705E695E81B0F
:10548000E093700500ED17E0A6E0CA2EADE0DA2E3D
:10549000823059F4E695F0E0E354FE4FE4910E2F8C
:1054A00010E0B2EACB2EB2E1DB2E809171058823A9
:1054B00061F0109271050E94401C90936F058093DB
:1054C0006E0510927305109272050E94401C9C019B
:1054D00080916E0590916F05A901481B590B4F3FB4
:1054E0005F4798F54091AD014423B1F01092AD01B2
:1054F0004091AB015091AC01241B350B2F3F3F472E
:1055000058F4405D5A485093AC014093AB01209150
:105510007605286020937605A0907205B0907305FB
:10552000800F911F90936F0580936E058EE695E036
:10553000F60109958091720590917305892B29F4E4
:10554000AB2819F081E08093AD0140910201E42F76
:10555000E295EF70E05EF0E0208130910101E32FF1
:10556000E295EF70E05EF0E0808190E03F7002C075
:10557000959587953A95E2F7880F991F827099273C
:1055800030E04F7002C0359527954A95E2F72170BB
:105590003327822BE091AF01EE0FEE0FE82BE09363
:1055A000AF0110919504EF70F0E0EC5CFE4F80814C
:1055B0009091AE01890F8093AE01F12C82300CF4F2
:1055C000B1CEA3CE0E94ED199093E4018093E30144
:1055D00080E992E090939104809390040E943412A9
:1055E000882309F48CC060E088E092E00E947C157A
:1055F00060E083E092E00E948E1560E082E092E03D
:105600000E948E1580919B0560E080FF5CC08EEF4C
:1056100091E00E948E152091320230913302409128
:105620003402509135022E833F8348875987CA013F
:10563000B9010E94FB0960E0811148C085EF91E04B
:105640000E948E1560E08CEE91E00E947C1560E077
:1056500086EE91E00E948E1580913602909137027D
:10566000A0913802B09139028E839F83A887B987B1
:10567000BC01CD010E94FB098230A9F160F58111C6
:1056800036C060E080EE91E00E947C1560E086EC20
:1056900091E00E947C15E0918502F091860280E005
:1056A000309721F00190F081E02D099581FB66276C
:1056B00060F980EC91E00E948E158091E5018823CD
:1056C00009F464CE5BCE8AEF91E0A3CF8FEE91E038
:1056D0000E947C15B7CF833071F060E089EC91E0D7
:1056E0000E948E15D3CF60E08AED91E0CDCF60E0CF
:1056F00084ED91E0C9CF60E08FEC91E0C5CF80915F
:105700009C05882309F470C00E942B194091B401B4
:105710005091B5016091B6017091B7012FB7F8941F
:105720008091000290910102A0910202B0910302C7
:105730002FBF841B950BA60BB70B893C9105A105C8
:10574000B10560F00E94E40F6093B4017093B5015D
:105750008093B6019093B7010E9480110E94E40FDC
:105760006093B0017093B1018093B2019093B30143
:1057700080918F02FCE08F9FC0011124811522E0EF
:10578000920714F090E080E080579D4F9093910431
:105790008093900480919C051F928F938BE291E0FF
:1057A0009F938F9308EB11E01F930F930E94573440
:1057B000D8010D900020E9F78D01015011090F90DB
:1057C0000F900F900F900F900F90F8EBCF2EF1E00D
:1057D000DF2EC016D10608F070CF60E0F60181918F
:1057E0006F010E94B714F5CF4091B0015091B10103
:1057F0006091B2017091B3012FB7F89480910002CB
:1058000090910102A0910202B09103022FBF841B6C
:10581000950BA60BB70B81369A4EA105B10518F072
:105820000E941819A5CF4091B4015091B501609123
:10583000B6017091B7012FB7F89480910002909152
:105840000102A0910202B09103022FBF841B950BAD
:10585000A60BB70B893C9105A105B10508F488CFCB
:105860000E94E40F6093B4017093B5018093B60178
:105870009093B7010E9480117BCF8091DD0161E0A0
:1058800070E0811183CD082F10E02B01082E02C09B
:10589000440C551C0A94E2F7A90144215521452BDB
:1058A00009F44AC02091DC01922F917020FD46C07E
:1058B000980136952795369527958295880F80769D
:1058C0003FE1380F809305012093080130930601D2
:1058D0009093090124E630E047E050E063E071E096
:1058E00088E70E946D2F892B09F050CDA80175E043
:1058F000440F551F7A95E1F78091DC0180FD26C0A9
:1059000040575D4F04E610E020E230E060E488E7B5
:105910000E949A2F892B09F039CD0E942B194094AF
:1059200050948091870290918802842195219093D0
:105930008802809387022ACD8F5FA5CF880F880FBA
:10594000880F37E0380F20E093E0BCCFECEBF1E0BC
:1059500080E2DF011D928A95E9F708E411E064E432
:10596000C62E61E0D62E77E099249394D801ED916C
:105970008D01D6018D916D01840F952F911D9C0194
:1059800020573D4F1901F0E0E454FE4F30E020E095
:10599000772E721A892D022E01C0880F0A94EAF719
:1059A000510160E0D5019D915D019823A72DA61BB3
:1059B000A7708A2E0A2E000CBB0B692E01C0660C44
:1059C0008A94EAF7B195A195B109A770BB2701C0E8
:1059D0009695AA95EAF79629A081A92BA0836F5FD7
:1059E000683001F72F5F3F4F31962830310581F63F
:1059F0002CE431E02017310709F0B8CF04E610E0BD
:105A000020E230E04CEB51E081CF40E149BD19BDCF
:105A100009B400FEFDCF8091D8008F7D8093D8001F
:105A20008091E00082608093E0008091E00081FD41
:105A3000FCCF0E94931543CC1F920F920FB60F928A
:105A400011242F933F934F935F936F937F938F9383
:105A50009F93AF93BF93EF93FF938091E10082FFF9
:105A600009C08091E20082FF05C08091E1008B7F38
:105A70008093E1008091DA0080FF24C08091D800FB
:105A800080FF20C08091DA008E7F8093DA008091C1
:105A9000D90080FF99C080E189BD82E189BD09B448
:105AA00000FEFDCF81E080937C058091A1018111F2
:105AB00009C00E94C3100E94D3118091E20084604B
:105AC0008093E2008091E10080FF17C08091E200A6
:105AD00080FF13C08091E2008E7F8093E20080916E
:105AE000E20080618093E2008091D8008062809320
:105AF000D80019BC85E080937C058091E10084FF8B
:105B000027C08091E20084FF23C080E189BD82E14B
:105B100089BD09B400FEFDCF8091D8008F7D8093B0
:105B2000D8008091E1008F7E8093E1008091E200B7
:105B30008F7E8093E2008091E20081608093E2009A
:105B40008091A001882309F445C084E080937C05FE
:105B50008091E10083FF27C08091E20083FF23C092
:105B60008091E100877F8093E10082E080937C0553
:105B70001092A0018091E1008E7F8093E1008091DE
:105B8000E2008E7F8093E2008091E200806180934A
:105B9000E20042E060E080E00E94A3118091F0000A
:105BA00088608093F000FF91EF91BF91AF919F913A
:105BB0008F917F916F915F914F913F912F910F90B6
:105BC0000FBE0F901F90189519BC10927C05109273
:105BD000A10178CF8091E30087FD02C081E0B6CFBC
:105BE00083E0B4CF1F920F920FB60F921124FF9251
:105BF0000F931F932F933F934F935F936F937F93D5
:105C00008F939F93AF93BF93CF93DF93EF93FF93C4
:105C100009EE10E0F8018081C091EC00C795CC2717
:105C2000C7958F70FC2EF82A1082C0EFD0E08881D3
:105C3000877F888378940E949E15F801108288815E
:105C400088608883CF2DCF70C083FF91EF91DF9163
:105C5000CF91BF91AF919F918F917F916F915F9104
:105C60004F913F912F911F910F91FF900F900FBE79
:105C70000F901F90189562E070E08BE191E00C941A
:105C8000323062E070E08BE191E00C943B300E9496
:105C90005E19882361F08BEA95E00E94641981E027
:105CA00090E00E941431892B11F40C94611908952D
:105CB0008091AA05883039F460E08BEA95E00E9473
:105CC0000F271092AA050895CF93DF9300D000D03C
:105CD0000F92CDB7DEB76D8379830E94472E90E097
:105CE00080E00E9414319C0180E02115310521F5EE
:105CF000ED81F981D901AC55BA4F8C9181932F5F19
:105D00003F4F25303105B1F789EA95E00E948719A8
:105D10000E945B198093A3050E940F1CDC01CB013C
:105D20000296A11DB11D80939F059093A005A0939D
:105D3000A105B093A20581E00F900F900F900F90F6
:105D40000F90DF91CF910895CF93DF9300D000D0D3
:105D500000D0CDB7DEB76E837D830E94582E809130
:105D60009F059091A005A091A105B091A2058983FE
:105D70009A83AB83BC83BC01CD010E94E61BEE81FC
:105D8000FD8190E080E02191DC01AC55BA4F2C936D
:105D9000019685309105B9F789EA95E00E947E1950
:105DA0008091A30526960FB6F894DEBF0FBECDBF37
:105DB000DF91CF910C947B191092B9008CE0809305
:105DC000B8000895EF92FF920F931F93CF93DF9344
:105DD000182FEB011092BC0084EA8093BC000E9453
:105DE000ED197C018091BC0087FF27C08091B9002C
:105DF000887F883029F08091B900887F8031D9F57B
:105E00001093BB0084E88093BC000E94ED198C01C4
:105E10008091BC0087FF24C02091B900287F90E0CA
:105E200080E02831B1F081E090E0203411F490E07E
:105E300080E09195819591090CC0CF3FDC0791F2EC
:105E40000E94ED198E199F098C179D0758F28EEF4D
:105E50009FEFDF91CF911F910F91FF90EF900895E9
:105E6000CF3FDC07A9F20E94ED19801B910B8C1724
:105E70009D0770F2ECCF8FEF9FEFEBCF0F931F9347
:105E8000CF93DF93EB018093BB0084E88093BC0049
:105E90000E94ED198C018091BC0087FF11C02091F8
:105EA000B900287F81E090E0283211F490E080E092
:105EB000919581959109DF91CF911F910F9108954F
:105EC000CF3FDC0741F30E94ED19801B910B8C172B
:105ED0009D0708F38EEF9FEFEECFCF92DF92EF9208
:105EE000FF920F931F93CF93DF936B018A01F22EE2
:105EF000E32E622F732F0E94E22EAC01E6010C0DFF
:105F00001D1DC017D10711F057FF0DC084E9809304
:105F1000BC00CA01DF91CF911F910F91FF90EF90CC
:105F2000DF90CF9008956F2D7E2D89910E943E2F96
:105F3000AC01E7CFCF92DF92EF92FF920F931F93C6
:105F4000CF93DF93C62F6A017901B8010E94E22E38
:105F50009C0197FD0DC0B8018C2F0E943E2F9C0123
:105F6000E601EC0CFD1CCE15DF0511F037FF0DC06E
:105F700084E98093BC00C901DF91CF911F910F91FB
:105F8000FF90EF90DF90CF900895B80189910E9423
