:100000000C9451070C9498070C9498070C94603347
:100010000C9498070C9498070C9498070C949807E4
:100020000C9498070C9498070C94D7190C94931976
:100030000C9482300C9498070C9498070C949807B1
:100040000C9498070C9498070C9498070C949807B4
:100050000C9498070C94E61A0C9498070C94980743
:100060000C9498070C9498070C9498070C94980794
:100070000C9498070C9498070C9498070C94980784
:100080000C9498070C9498070C9498070C94980774
:100090000C9498070C9498070C9498070C94980764
:1000A0000C9498070C9498070C9498070501098004
:1000B000A101850319012AB700150126B700950192
:1000C00075108100C0050C0901A101850419012AE0
:1000D000A002150126A002950175108100C00660DE
:1000E000FF0961A1010962150026FF00952075082E
:1000F00081020963150026FF00952075089102C052
:1001000005010906A101050719E029E715002501E8
:10011000950875018102950175088101050719008F
:1001200029FF150026FF00950675088100050819AE
:10013000012905950575019102950175039101C08D
:10014000000101010101010101010202020202029A
:10015000020202030303030303030304040404046D
:100160000404050505050506060606060707070734
:100170000708080808090909090A0A0A0B0B0B0CE9
:100180000C0C0D0D0D0E0E0E0F0F0F101011111186
:100190001212131314141515161617171818191907
:1001A0001A1A1B1B1C1D1D1E1E1F2020212222236C
:1001B0002424252626272829292A2B2C2D2D2E2FAD
:1001C00030313232333435363738393A3B3C3D3EC4
:1001D0003F404142434445464748494A4C4D4E4FB3
:1001E00050515354555658595A5B5D5E5F61626475
:1001F000656668696B6C6D6F7072737577787A7B02
:100200007D7E8082838587888A8C8E8F9193959658
:10021000989A9C9EA0A2A3A5A7A9ABADAFB1B3B578
:10022000B7BABCBEC0C2C4C6C9CBCDCFD1D4D6D854
:10023000DBDDDFE2E4E7E9EBEEF0F3F5F8FAFDFFF2
:10024000FFAA7F55402223252628292A2C2D2F302E
:1002500032333536383A3B3D3E4042434547494AC2
:100260004C4E5051535557595A5C5E6062646668F3
:10027000696B6D6F71737577797B7D7F81838587FE
:10028000898A8C8E90929496989A9C9E9FA1A3A501
:10029000A7A8AAACAEAFB1B3B4B6B8B9BBBCBEBF29
:1002A000C1C2C3C5C6C7C9CACBCCCDCED0D1D2D2AC
:1002B000D3D4D5D6D7D7D8D9D9DADADBDBDBDCDCB7
:1002C000DCDCDCDDDDDDDDDCDCDCDCDCDBDBDBDA6F
:1002D000DAD9D9D8D7D7D6D5D4D3D2D2D1D0CECDDA
:1002E000CCCBCAC9C7C6C5C3C2C1BFBEBCBBB9B8E7
:1002F000B6B4B3B1AFAEACAAA8A7A5A3A19F9E9C6C
:100300009A98969492908E8C8A89878583817F7D36
:100310007B79777573716F6D6B6968666462605E17
:100320005C5A5957555351504E4C4A4947454342E0
:10033000403E3D3B3A3836353332302F2D2C2A297A
:10034000282625232235001E001F00200021002220
:1003500000290014001A000800150017002B0004E3
:10036000001600070009000A00E1001D001B00063E
:100370000019000500E300E200E0005F5D2800A82E
:10038000002A002700260025002400230031001346
:100390000012000C0018001C00340033000F000E87
:1003A000000D000B00E5003800370036001000118A
:1003B00000E700E600E400605D2C00300001003A38
:1003C000003B003C003D003E0035001E001F0020A9
:1003D000002100220001001E021F02200221022231
:1003E0000201002E002D002E022F0230020100011A
:1003F00000010001000100010044004300420041EF
:100400000040003F0045002700260025002400236F
:1004100000310227022602250224022302010031B4
:10042000003302330030002F000100010001000101
:1004300000010001000100010001000100010001B4
:10044000000100490046006500000000000100E2D4
:1004500000E000E1000000390001007A007B007C30
:10046000007D000000010001000100010001000109
:10047000000100010001000100010001002A0066E6
:100480005D635D5200625D4B002A004C004F0051DD
:100490000050004E0001000000655D0000645D003A
:1004A00000010001000100010001000100005C00EA
:1004B000000000000000000000000000000000003C
:1004C00000005D0000C25CC55CC75CC95C00000048
:1004D00000C35CC65CC85CCA5C000000000100018F
:1004E0000001000100010000000000000000000009
:1004F00000000000000000000000000000000000FC
:100500000000000000A900A800AA000000000000F0
:1005100000AB00AE00AC00000001000100010001D2
:10052000000100000007087F0807003E5B4F5B3EAC
:10053000003E6B4F6B3E001C3E7C3E1C00183C7E18
:100540003C18001C577D571C001C5E7F5E1C000081
:10055000183C180000FFE7C3E7FF0000182418004C
:1005600000FFE7DBE7FF0030483A060E0026297956
:10057000292600407F05050700407F05253F005ADA
:100580003CE73C5A007F3E1C1C0800081C1C3E7FB8
:100590000014227F2214005F5F005F5F0006097F66
:1005A000017F00006689956A006060606060009469
:1005B000A2FFA2940008047E04080010207E2010F0
:1005C0000008082A1C0800081C2A0808001E101031
:1005D0001010000C1E0C1E0C0030383E3830000687
:1005E0000E3E0E060000000000000000005F00004C
:1005F00000000700070000147F147F1400242A7FE6
:100600002A12002313086462003649562050000065
:100610000807030000001C224100000041221C00CA
:10062000002A1C7F1C2A0008083E08080000807071
:100630003000000808080808000000606000002082
:1006400010080402003E5149453E0000427F400030
:10065000007249494946002141494D33001814129E
:100660007F10002745454539003C4A494931004142
:100670002111090700364949493600464949291ED2
:1006800000000014000000004034000000000814C6
:100690002241001414141414000041221408000212
:1006A00001590906003E415D594E007C1211127C31
:1006B000007F49494936003E41414122007F414186
:1006C000413E007F49494941007F09090901003E37
:1006D00041415173007F0808087F0000417F4100BD
:1006E000002040413F01007F08142241007F40402C
:1006F0004040007F021C027F007F0408107F003E04
:100700004141413E007F09090906003E4151215EF9
:10071000007F091929460026494949320003017F13
:100720000103003F4040403F001F2040201F003F8A
:100730004038403F00631408146300030478040346
:10074000006159494D4300007F41414100020408C6
:10075000102000004141417F0004020102040040DA
:1007600040404040000003070800002054547840F7
:10077000007F284444380038444444280038444426
:10078000287F0038545454180000087E09020018CD
:10079000A4A49C78007F080404780000447D4000F5
:1007A000002040403D00007F102844000000417FB1
:1007B0004000007C04780478007C08040478003849
:1007C0004444443800FC182424180018242418FC3D
:1007D000007C080404080048545454240004043FD6
:1007E0004424003C4040207C001C2040201C003C55
:1007F0004030403C004428102844004C9090907CAD
:10080000004464544C440000083641000000007766
:100810000000000041360800000201020402003C12
:100820002623263C00000000000000404040F0F875
:10083000F8FF38FFF8F83FF8F8FF38FFF8F8F04015
:10084000404000000000000080C0C0C0800000C028
:10085000C08000000080C0C000C0C0000080C0C0D8
:100860000000000000C0C0C0C0C000C0C000000048
:100870000000000000000000000000000000000078
:100880000000000000000000000000000000000068
:100890000000000000000000000000000000000058
:1008A00000000000C0F0F8FC3E1E06010000007FC2
:1008B0004141417F007F4141417F000080C0E07E97
:1008C0005B4F5BFEC00000C000DCD7DEDEDED7DCA5
:1008D00000C0000000000000000000000000000058
:1008E0000000000000000000000000494949FFFF2F
:1008F000FFFFE0DFBFBF00BFBFDFE0FFFFFFFF493B
:10090000494900000000001F3F6060E0BF1F007FFA
:100910007F071E381E077F7F007F7F0E1F3B7160A1
:1009200000000000007F7F0C0C0C007E7E007F7EAC
:100930000303007F7E03037E7E03037F7E000F3E62
:10094000703C063C703E0F00327B49493F7E007F81
:100950007E0303001E3F69696F260000000000004F
:1009600000000000030F1F3F3C7870600000007F14
:100970004141417F007F4141417F00307B7F7830A2
:10098000202030787F3B0003000F7F0F0F0F7F0F79
:100990000003000000000000000000000000000054
:1009A0000000000000000000000000010101070F2E
:1009B0000F7F0F7F0F0F7E0F0F7F0F7F0F0F07012E
:1009C0000101000000000000000000000101000023
:1009D0000000000000000000000000000000000017
:1009E0000000000000000000000000000000000007
:1009F00000000000000000000000000000000000F7
:100A000000000000000000000000000000000000E6
:100A100000000000000000000000000000000000D6
:100A200000000000000000000000000000000000C6
:100A300000000000000000000000000000000000B6
:100A400000000000000000000000000000000000A6
:100A50000000000000000000000000000000000096
:100A6000000000000000AF000501050205030504B9
:100A70000505050006010602060306040605060034
:100A8000070107020703070407050700080108021A
:100A900008030804080508000901090209030904FC
:100AA0000905090000010002000300040005000020
:100AB000010101020103010401050100020102021A
:100AC00002030204020502000301030203030304FC
:100AD00003050300040104020403040404050400E4
:100AE0000000000000000000000000000000000006
:100AF00000000000000000000000000000000000F6
:100B00000000007E0F00D4FFFFFFC7000000780048
:100B1000000000000000002A2B2800000000000058
:100B20000000000000000000000029000000002C70
:100B30001E3420212224342627252E362D3738270F
:100B40001E1F202122232425263333362E37381F1B
:100B50000405060708090A0B0C0D0E0F10111213DD
:100B60001415161718191A1B1C1D2F3130232D357B
:100B70000405060708090A0B0C0D0E0F10111213BD
:100B80001415161718191A1B1C1D2F3130354C005F
:100B9000DA0281FFD9F1DB20A4A62EAF00A0C000AD
:100BA000A1C800AED580A81FD300408D1420001E20
:100BB0000F0500047F3F1F643214643214783C1E1A
:100BC0001E140A054350534C4B000A0A00556E642C
:100BD00065660041646A0A004C6F77657200526175
:100BE00069736500426173650A004C4159455200C2
:100BF0000A0A0057494E004D414300004D4F4445FD
:100C0000000A0A00000000000000000000000000D0
:100C100000000000000000000000000000000000D4
:100C200000000000000000000000000000000000C4
:100C30000000000000000000000000C0E060E04094
:100C400000000000000000000000000000000000A4
:100C50000000000000000000000000000000000094
:100C6000000000000000000080C0E0E0C0000000C4
:100C70000000000000000000000000000000000074
:100C80000000000000000000000030180CFCFC78A0
:100C9000100884FC7C38080CF4FC3CC070188CE410
:100CA0007C3C08CCFC7C3890F078E884FC7C3030CC
:100CB000F0F8FCE602FEFC18ECFC3F138BF9F9108F
:100CC00088CC44E4FCFC34060E1C38E0C000C0F8BC
:100CD0007C0E0000000000601088CC44E4FCFC386E
:100CE0000C84FCFC602020F8FFF07F3F90F078E857
:100CF00084FC7C0070FCCC8602020206CE7C78006C
:100D000000000000000000000000C0F07E0F07049B
:100D100006070301000000000001070700000103AF
:100D200002030301000000070606030000000000A4
:100D3000E1F9FD7E1F07010001000000010100072D
:100D400007040603010080C060301818FD7F0FF310
:100D5000F0000000000000000707040683E1B8EC83
:100D60007B1F07C170B8FC3C0F0300000706060399
:100D700000000000F0F819030387CEFC38000000E3
:100D8000000000000000000000030300000000005D
:100D90000000000000000000000000000000000053
:100DA0000000000000000000000000000000000142
:100DB000030301000000000000000000000000002C
:100DC0000000000000030300000000030302030111
:100DD000000000000000000000000000030303000A
:100DE00000000303030100000000000000000000F9
:100DF00000000000030302020301010000000000E4
:100E00000000000000AE09025B00030100A0FA0927
:100E10000400000103010100092111010001224029
:100E2000000705810308000A09040100020300000D
:100E30000009211101000122220007058203200080
:100E4000010705030320000109040200010300005B
:100E5000000921110100012232000705840320004E
:100E60000A120110010000000832FC870201000193
:100E70000200010C0353006F0066006C0065000067
:100E8000001A034A006F00730065006600410064A9
:100E90000061006D00630069006B0000000403093D
:100EA000040011241FBECFEFDAE0DEBFCDBF04B6D1
:100EB00003FE27C080914E0790914F07A0915007E5
:100EC000B09151078730904BA740B04BD1F41092AE
:100ED0004E0710924F07109250071092510714BE00
:100EE00084B7877F84BF0FB6F894A895809160007F
:100EF000886180936000109260000FBEE0E0F8E32C
:100F0000099511E0A0E0B1E0E2EAFCE602C005903C
:100F10000D92A03DB107D9F727E0A0EDB1E001C0E7
:100F20001D92AE34B207E1F70E947C280C94113672
:100F30000C940000E8EDF0E080818E7F80831092B9
:100F4000E2001092DA001092E100A0EEB0E08C9185
:100F500081608C9380818F77808319BCA7EDB0E08E
:100F60008C918E7F8C9380818F7E80831092190765
:100F700008952091E4003091E50095E6A9012091C3
:100F8000EC00822F817020FF06C08091E80080FF76
:100F900006C080E008952091E80022FD1AC08091EB
:100FA0002607882389F0853089F08091EB0085FD44
:100FB0000FC02091E4003091E50042175307F9F289
:100FC0009150E1F684E0089582E0089583E0089569
:100FD00081E00895EF92FF920F931F93CF937C01CE
:100FE0008B010E94B907C82F811117C08091E800BA
:100FF00085FD0BC08091E8008E778093E8000E9409
:10100000B907882399F3C82F08C0F70181917F01A0
:101010008093F1000150110949F78C2FCF911F9156
:101020000F91FF90EF9008958091280787FF13C0DC
:101030008091E80082FF06C08091E8008B77809362
:10104000E80004C0809126078111F2CF08958091B5
:1010500026078823D9F38091E80080FFF8CF80919C
:10106000E8008E77ECCF982F9093E900242F762F0D
:1010700050E0891731F07091EC002091ED00509113
:10108000F00021FD07C09F5F973071F78093E90062
:1010900081E008953091EB003E7F3093EB0030917A
:1010A000ED003D7F3093ED003091EB0031603093E7
:1010B000EB007093EC002093ED005093F000209132
:1010C000EE0027FDE0CF80E00895CF92DF92EF920F
:1010D000FF920F931F93CF93DF93C8EDD0E08881E9
:1010E0008F7E8883E7EDF0E080818160808384E0FB
:1010F00082BF81E08093190788818E7F888302EE0A
:1011000010E0F80110821092DA0081EEC82ED12C86
:10111000F601108288818F77888388818068888330
:1011200088818F7D888319BC10922607109227072B
:10113000109225071092240790EEE92EF12CF7016A
:1011400080818B7F808388818160888342E060E03A
:1011500080E00E943308F60180818E7F8083F80151
:10116000808181608083808188608083F7018081B5
:101170008E7F8083888180618883DF91CF911F91EA
:101180000F91FF90EF90DF90CF900895FC01809138
:101190002E0790912F0786179707A0F0611571050C
:1011A00029F49091E8009E779093E80090E0611513
:1011B000710551F4911108C08091E80082FF34C09C
:1011C00080E00895BC01F2CF809126078823C1F109
:1011D0008530C1F18091E80083FD30C08091E80046
:1011E00082FDEACF8091E80080FFE1CF8091F3009B
:1011F0002091F200382F6115710519F02830310562
:1012000058F091E02830310509F090E02091E80095
:101210002E772093E800CBCF81918093F10061502D
:1012200071092F5F3F4FE7CF80912607882341F058
:10123000853041F08091E80083FFBECF81E00895C2
:1012400082E0089583E00895089580E00895089568
:1012500080911B07089587E797E790930108809393
:10126000000888E19AE00FB6F894A8958093600092
:101270000FBE90936000FFCF9C014FB7F894809110
:10128000A3049091A404A091A504B091A6044FBF1B
:10129000821B930B08952FB7F8946091A30470916B
:1012A000A4048091A5049091A6042FBF08959C01E9
:1012B000FC0132969FEF80E04191461751F09F3F2D
:1012C00019F4411101C0982F8F5F8630A9F79F3F15
:1012D00009F40895290F311D97FD3A95F9016283AC
:1012E000089580919E04811110929E04089580912A
:1012F0009D0490919C04892B90919B04892B809351
:10130000D20190919E04992391F0892B8093D20170
:1013100020E084ED91E0FC013191CF0131112F5F8C
:10132000F1E08A3D9F07B9F721110E947109E09110
:10133000CC04F091CD04309731F00280F381E02DA0
:1013400082ED91E009940895E92FEE0FE90FEE0F79
:101350008E0F982F977086958695869525E0829FAB
:10136000F0011124EE58FB4F50E040E080E0219165
:1013700030E0092E02C0369527950A94E2F72170D5
:101380003327042E01C0220F0A94EAF7822B4F5F05
:101390005F4F4530510559F70895E92FEE0FE90FDA
:1013A000EE0F8E0F982F977041E001C0440F9A9571
:1013B000EAF786958695869595E0899FF001112438
:1013C000EE58FB4F30E020E070E05191DF011197C3
:1013D000CB01022E02C0969587950A94E2F78170A0
:1013E00081958527842385278C932F5F3F4F253058
:1013F000310559F708958091710490914004981334
:1014000001C008958F5F8770FACF882341F08095DF
:1014100090919D04892380939D040C9477090895ED
:10142000882339F090919D04982B90939D040C94FF
:10143000770908950C944B0920912A0430912B04CC
:101440002817390771F090932B0480932A04E091B8
:10145000CC04F091CD04309721F00084F185E02D8B
:1014600009940895209128043091290428173907F8
:1014700071F09093290480932804E091CC04F091BA
:10148000CD04309721F00680F781E02D099408956E
:1014900090E080E00E94320A90E080E00E941C0A06
:1014A00010929C0410929B040C947709609333076C
:1014B0007093340780933507909336070C94480A4D
:1014C0000F931F9360913307709134078091350714
:1014D000909136078B019C01067011272227332734
:1014E000063011052105310529F468601F910F911F
:1014F0000C94560A677FFACF0F931F9341E050E098
:1015000060E070E004C0440F551F661F771F8A9586
:10151000D2F7CB01BA0160957095809590950091B6
:101520003307109134072091350730913607602337
:101530007123822393231F910F910C94560A90914B
:101540009A048095892380939A04282F277039F470
:10155000282F082E000C330B9217130621F49091BC
:10156000CF0492FF07C08595859585950E947C0ADA
:1015700010929A0408950F931F9341E050E060E0A9
:1015800070E004C0440F551F661F771F8A95D2F77D
:101590008091330790913407A0913507B0913607B9
:1015A0008A019B01082B192B2A2B3B2BC901B8015F
:1015B0001F910F910C94560A60939F047093A0049E
:1015C0008093A1049093A2040C94480A8823B1F15B
:1015D0009CEF980F913A70F4E4EDF1E0919189134A
:1015E00003C0DF0111971C9241E0EA3DF407B1F717
:1015F0000C94770990E2980F983088F4877021E076
:1016000030E0A90102C0440F551F8A95E2F7CA01D4
:10161000809590919D04892380939D04E9CF9BE55B
:10162000980F933020F490E080E00C94320A885AAE
:10163000873120F490E080E00C941C0A0895CF9349
:10164000C82F882309F44EC08CEF8C0F813AF8F430
:10165000E4EDF1E08AED91E0DF012D91C21759F040
:101660008A179B07D1F76C2F82ED91E00E945709F2
:10167000CF910C9477092191C21303C0DF01119718
:101680001C928E179F07B9F70E947709ECCF80E272
:101690008C0F883068F4C77021E030E001C0220F61
:1016A000CA95EAF780919D04822B80939D04E0CF38
:1016B000EBE5EC0FE33040F4F0E0E959FE4F8081B8
:1016C00090E0CF910C94320AC85AC73158F4EC2FED
:1016D000F0E0EE0FFF1FE659FE4F80819181CF9120
:1016E0000C941C0ACF910895E091CC04F091CD04A4
:1016F000309721F00190F081E02D099480E0089569
:10170000FA01811101C0FB010994E3ECF4E01182BC
:10171000828184608283089580910A07982F9E7F3A
:1017200061F48170826080930A0780910D07873988
:1017300018F086E980930D0708958635B0F381701F
:101740008465F1CFAF92BF92DF92EF92FF920F9339
:101750001F93CF93DF93182F062FE901473908F025
:1017600046E9E42FF0E0E05CFE4F011110C0E49187
:101770005E2F4E2F4983E8835A83DF91CF911F91CB
:101780000F91FF90EF90DF90BF90AF900895202FC2
:1017900030E04491D42EE42EF12C56E0159FC00188
:1017A0001124EFEFF0E0BF010E948734812F90E019
:1017B000880F991F55E5569FD001579FB00D1124F2
:1017C0008A1B9B0B982F990F890F5F01A21AB30AEE
:1017D000AE9CD001AF9CB00DBE9CB00D11245B2F10
:1017E000089F80011124012F11275F01A01AB10A5F
:1017F000AE9C8001AF9C100DBE9C100D11245F01AA
:10180000A81AB108A29EC001A39E900DB29E900D91
:101810001124892F9927E81BF90BEE9DC001EF9D3C
:10182000900DFE9D900D1124E92F62307105A1F0FD
:1018300050F46115710509F49DCF6130710581F097
:10184000EB2F512F97CF6430710569F080F066302F
:10185000710509F48FCFF4CFE42F4B2F592F8ACF86
:10186000E42F412F87CFEB2F542F492F83CF4B2FBE
:101870005D2DE12F7FCFF894E82FE295EF70F0E037
:1018800031A1282F2F7081E090E001C0880F2A95A8
:10189000EAF7982F9095932391A392A1892B82A385
:1018A000789408959091CE0492FF06C0282F287155
:1018B0002830F9F4877F846093FF06C0282F2871B1
:1018C0002831F1F4877E84612091CF0420FF06C087
:1018D000382F38713830D9F4877F816021FF06C0F6
:1018E000282F28712831D1F4877E816194FD877E6D
:1018F0000895282F24712430F9F68B7F8860DCCF7F
:10190000282F2471243101F78B7E8861DDCF382F99
:101910003171313019F78E7F8860E0CF282F217127
:10192000213121F78E7E8861E1CFCF92DF92EF9255
:10193000FF920F931F93CF93DF936C017B0164E6BB
:1019400070E088E70E94C731EC0197FD12C010E0FB
:1019500000E0F601E00FF11F849164E670E00E9460
:101960002332EC01892B29F40F5F1F4F0E151F0541
:1019700081F70E94A632CE01DF91CF911F910F9186
:10198000FF90EF90DF90CF900895CF93C091FA062B
:101990008091FD068823D1F00E944B09605A754161
:1019A0008F4F9F4F6093F6067093F7068093F8066B
:1019B0009093F906C11108C062E070E085E69AE0F4
:1019C0000E94950C892B29F0C091FA068C2FCF919B
:1019D000089581E08093FA06F7CFCF9384E090E0FA
:1019E0000E946635C82F82E290E00E946635982FEB
:1019F0008C2FCF9108950F931F93CF93DF93C42F14
:101A0000D0E0CC0FDD1F2CE0629FC00DD11D112452
:101A100038E7839FC00DD11D1124CE0187960E9407
:101A20006635082F10E0102F0027CE0188960E94FF
:101A300066359801282BC901DF91CF911F910F9135
:101A40000895462F843038F47A3028F4663018F43C
:101A5000672F0C94FB0C90E080E00895CF93DF9308
:101A60000E94210DEC0182389105A9F1D8F581334E
:101A7000910509F496C048F58932910509F48AC0A8
:101A80008A9709F495C0C11522E5D20708F0B6C0BF
:101A9000C11531E5D30708F029C1C83ED10508F0CA
:101AA0009CC0C03ED10560F5C83AD10508F087C09A
:101AB000C53AD10508F0F2C0C130D10509F120972F
:101AC000F9F0C430D105E0F440C08533910509F444
:101AD0005AC0C997C1F68091CE04837089F0C0EED8
:101AE000D0E00EC0833E910599F170F4803E9105DF
:101AF00001F1823E910539F68091CE0482FD21C02C
:101B0000CE01DF91CF910895863E910561F1873E28
:101B1000910571F1843E910509F0B5CF8091CF0414
:101B200081FFEECF8091CE04C7EED0E084FD0DC0E2
:101B3000E7CF8091CE0480FD0FC19091CF0490FF3C
:101B4000DFCFC3EED0E084FFDBCFD0E0C0E0D8CF62
:101B50008091CE0482FD03C19091CF0490FDBFCF50
:101B600084FFCECFF2CF8091CE0483FDDDCFC8CFEE
:101B70008091CE0483FDF6C09091CF0491FFF0CF09
:101B8000C4EED0E0BDCF8091CE0485FFB9CFC9E2CD
:101B9000D0E0B6CF8091CE0485FFB2CFC5E3D0E0D0
:101BA000AFCF8091CE0486FFABCFCAE2D0E0A8CF02
:101BB0008091CE0486FFA4CFC1E3D0E0A1CFCF3B7C
:101BC000D10518F6C85AD0E0CC0FDD1FC659DE4F3C
:101BD0000990D881C02DD46493CFC11540E5D407B6
:101BE00008F067C0C11580E4D80708F05FC0CE01D7
:101BF0009A9581159F4108F483CFA7CFC11536E58B
:101C0000D30718F5C11545E5D40708F087C0C115FD
:101C100084E5D80708F07DC09C2F969596959E0187
:101C200023703327C115D34508F465C0C1E0D0E067
:101C300002C0CC0FDD1F2A95E2F730E2939FC0016E
:101C40001124C82BD92BDA685BCFC11589E5D807D9
:101C500068F4C11598E5D90708F06BC0C11527E5F0
:101C6000D20708F072CFDD27D0664ACFC1153AE51A
:101C7000D30708F463C0CE0190568115904208F056
:101C800064CF8D2F8F710E94520C90E0982F88277F
:101C900088279F719C012C2BE90149C0C55AD0E0CF
:101CA000C959DE4FC881D0E0D0642ACFDF70D06A36
:101CB00027CFCE01E4E096958795EA95E1F783700A
:101CC0002C2F26952695237090E2299F90011124B0
:101CD000382B8C2F8370C1E0D0E002C0CC0FDD1F09
:101CE0008A95E2F7C22BD32BDC680ACFDC2FCC27F6
:101CF000C16FD06A05CFC1E0D0E002C0CC0FDD1FBC
:101D00002A95E2F720E2929FC0011124C82BD92B1B
:101D1000EBCFDC2FCC27C46FD06AF2CE8C2F0E9481
:101D2000520CC82FD0E0DC2FCC27CC27DF71D0623B
:101D3000E7CEDC2FCC27C06FD06AE2CE8C2F8F701D
:101D40000E94520C34E0D695C7953A95E1F7CF70D2
:101D50009C2FEC01D069D4CEC9E3D0E0D1CEC2EE45
:101D6000D0E0CECEC6EED0E0CBCEBF92CF92DF9207
:101D7000EF92FF920F931F93CF93DF938C01C0904C
:101D80003307D0903407E0903507F0903607809104
:101D90009F049091A004A091A104B091A204C82A2C
:101DA000D92AEA2AFB2ACFE1D0E0BC2ED701C6010E
:101DB0000C2E04C0B695A795979587950A94D2F7EF
:101DC00080FD0EC0219788F7B12C8B2DDF91CF912C
:101DD0001F910F91FF90EF90DF90CF90BF900895EB
:101DE000B8018C2F0E942E0D019761F3EECFCF9397
:101DF000DF93EC010E94B50EBE01DF91CF910C94F0
:101E00002E0D0E94F70E292F2F7092959F709250E1
:101E10009E3078F4E92FF0E0ED5EF94C0C94AF348D
:101E2000803F19F020F4883E20F481E00895843F3B
:101E3000E1F380E00895883EC0F3813FD1F7F5CF0C
:101E4000822F86958695869508956F927F928F92C0
:101E50009F92AF92BF92CF92DF92EF92FF920F9339
:101E60001F93CF93DF9385E4C82E83E0D82E9BEA9F
:101E7000E92EF12CE701C857D10936011BC0F50145
:101E800085909490692DC8010E947A35682DC8010B
:101E900001960E947A3582E0A80EB11C0E5F1F4F9A
:101EA000C017D10761F78CE0680E711C2C96CE1517
:101EB000DF0529F08E010C5011095301E0CF7E019E
:101EC00088E7E80EF11C88E7C80ED11C8BE8E816FD
:101ED00082E0F80679F6DF91CF911F910F91FF9084
:101EE000EF90DF90CF90BF90AF909F908F907F90BA
:101EF0006F900895CF93C091CF04C2FB992790F9BA
:101F0000981781F080FBC2F9C093CF046091CE0492
:101F100084E090E00E947A356C2F82E290E0CF91CD
:101F20000C947A35CF910895CF93DF93C7E0D2E038
:101F300060E0CE010E947A352196C11584E0D80771
:101F4000B9F7DF91CF91089510929D04E4EDF1E08F
:101F500086E0DF011D928A95E9F70C94480A1F93E9
:101F6000CF93DF93CDB7DEB7AA970FB6F894DEBF55
:101F70000FBECDBF88E297E02091F100DC012D93E8
:101F8000CD01B7E080339B07B9F7809129078330F3
:101F900009F471C0B8F4813009F448C0823009F402
:101FA000B2C08091E80083FF88C280912807909199
:101FB00029079A3008F081C2E92FF0E0EF5DF94C73
:101FC0000C94AF348A3009F48DC08B3009F470C0A2
:101FD000893039F780912807813219F780912C07D1
:101FE00090912D07009711F00297D9F68091E800A3
:101FF000877F8093E8008091E80082FF37C090914E
:10200000F3008091F200029729F48091F1008B7F18
:10201000813021F48091F10080931B078091E800CA
:102020008B778093E8000E941408BBCF809128072B
:10203000813A09F0B6CF8091E800877F8093E8006D
:1020400080912C0790912D07892B61F468E08CE139
:1020500097E070E00E94C6088091E8008B7780933B
:10206000E8009FCF60E090E080E0F3CF809126070A
:102070008111C1CF96CF80912807813A09F091CF85
:1020800080912C0790912D07892B09F08ACF8091A0
:10209000E800877F8093E8008091E80080FFFCCF14
:1020A00080912B018093F1008091E8008E77B9CF69
:1020B00080912807813209F074CF80912C0790918C
:1020C0002D07892B09F06DCF8091E800877F8093E1
:1020D000E8000E94140880912A0780932B010E9437
:1020E000A40F5FCF80912807813209F05ACF8091E9
:1020F000E800877F8093E8000E94140880912B07F6
:1021000080931A074ECF80912807813A09F049CF72
:102110008091E800877F8093E8008091E80080FF4D
:10212000FCCF80911A07BECF803899F0823809F031
:10213000C4C180912C078F70873008F0BEC1809396
:10214000E9008091EB0085FB882780F91092E90077
:1021500006C080912407909125079111826090918B
:10216000E800977F9093E8008093F1001092F100CF
:102170008091E8008E779DC1882309F48BC182305D
:1021800009F09BC180912A0781118EC180912C0793
:102190008F702FEF280F263008F08FC18093E90051
:1021A0002091EB0020FF80C1933031F48091EB004F
:1021B00080628093EB0078C19091EB0090619093E6
:1021C000EB0021E030E001C0220F8A95EAF720936E
:1021D000EA001092EA008091EB008860EACF81115A
:1021E0006CC110912A071F778091E3008078812BC2
:1021F0008093E3008091E800877F8093E8000E944D
:1022000014088091E80080FFFCCF8091E300806893
:102210008093E30082E0111183E0809326074DC193
:102220008058823008F049C120912A0730912B074D
:102230002C3DE3E03E07A1F583E08A838AE28983AF
:102240004FB7F894DE01139620E03EE051E2E32F11
:10225000F0E050935700E49120FF03C0E295EF7047
:102260003F5FEF708E2F90E0EA30C0F0C7968D93FD
:102270009D932F5F243159F74FBF8091E800877FEE
:102280008093E8006AE270E0CE0101960E94C608E1
:102290008091E8008B778093E8000FC1C096E7CF6C
:1022A00080912C0790912D07432F552743305105DE
:1022B00009F44AC078F54130510509F47AC08BE53C
:1022C00090E0E6E0FEE04230510509F0F6C02091D2
:1022D000E800277F2093E80020912E0730912F07F8
:1022E0008217930708F49C0140E02115310509F09D
:1022F00065C0411163C08091E80082FDC9CF809123
:102300002607882329F2853019F28091E80083FF9F
:10231000F2CFBECF4132510509F43CC042325105E3
:1023200009F0CBC08330910508F0C7C0FC01EE0F67
:10233000FF1FED53FE4F0190F081E02D80549E4F22
:10234000DC018C9190E01AC0332721303105D1F0A7
:102350002115310561F02230310509F0AEC0E3E707
:10236000FEE0E4918E2F90E0E3E7FEE007C0EDE9A8
:10237000FEE0E4918E2F90E0EDE9FEE0009709F495
:102380009CC0A5CFE1E8FEE0E4918E2F90E0E1E86B
:10239000FEE0F4CF8330910508F08FC0880F991FBD
:1023A000FC01E753FE4F0190F081E02D89E090E0C1
:1023B0008ECF82E190E0E1E6FEE089CF80912607B2
:1023C000882309F465CF853009F462CF8091E80055
:1023D00083FD5ECF8091E80082FD8DCF8091E80083
:1023E00080FF83CF9091F3008091F2002115310599
:1023F00019F08830910550F041E0089709F040E06D
:102400008091E8008E778093E8006FCF44914093ED
:10241000F1003196215031090196E8CF803809F05A
:102420004CC08091E800877F8093E8008091270767
:102430008093F1009DCE811140C010912A07123087
:10244000E0F58091E800877F8093E80010932707EC
:102450000E941408112311F084E005C08091E3006C
:1024600087FDFACF81E08093260742E061EC81E0AE
:102470000E94330842E261EC84E00E94330842E2A9
:1024800061EC82E00E94330842E260EC83E00E944B
:10249000330813C080912A07813079F481E09330AA
:1024A00009F080E0809325071092E9008091E80010
:1024B000877F8093E8000E9414088091E80083FFE2
:1024C0000AC08091E800877F8093E8008091EB004C
:1024D00080628093EB00AA960FB6F894DEBF0FBE21
:1024E000CDBFDF91CF911F910895CF93DF9300D09F
:1024F0000F92CDB7DEB790912607943011F58983FE
:102500007B836A839093E9008FEF9091E80081507C
:1025100095FD06C095ED9A95F1F700008111F5CF74
:102520008091E80085FF0DC050E040E063E070E07E
:10253000CE0101960E94EA078091E8008E77809391
:10254000E8000F900F900F90DF91CF910895BC019C
:1025500084E00C947512BC0183E00C947512CF9347
:10256000DF93EC0181E08093E9008FEF9091E80028
:10257000815095FD06C095ED9A95F1F70000811107
:10258000F5CF8091E80085FF14C050E040E068E09E
:1025900070E0CE010E94EA078091E8008E77809378
:1025A000E80088E0FE01ACE1B7E001900D928A9569
:1025B000E1F7DF91CF9108951F93CF93DF93182F09
:1025C000CAE0D0E0893311F4C0E5D0E0812F0E9449
:1025D0001F0B8FE99FE00197F1F700C000002197E2
:1025E000C1F7812FDF91CF911F910C94E60A609182
:1025F000130180910A0780FF20C08091120143E0FF
:10260000849FC00111248E519E4F539A2BB1277F76
:102610003BB138605FB7F894FC01649FE00DF11D99
:102620001124BF0168177907D1F45FBF8FE594E0EB
:102630000197F1F700C00000089580911401909176
:10264000150123E0829FF0011124EE51FE4F8917FE
:10265000A0F61182108212828F5F3396F8CFFC01B0
:102660004191CF01E8E03BB9000000C047FF2BB922
:10267000440F000000C000C000C02BB900C0EA95A4
:1026800091F7D0CF4F925F926F927F928F929F92ED
:10269000AF92BF92CF92DF92EF92FF920F931F9370
:1026A000CF93DF93FC016280448081E08483E5E482
:1026B000F2E07490E4ECF2E0E491812C75E0972E66
:1026C000F2E0CF2EDD24D394AA24AA94B12C552471
:1026D0005A94E7190E2F10E080911601881690F099
:1026E000DF91CF911F910F91FF90EF90DF90CF90EE
:1026F000BF90AF909F908F907F906F905F904F9022
:102700000C94F712E82CF12C82E0861568F09E9C60
:10271000F0019F9CF00D1124E654FD4F80910B07B2
:10272000808380910C078183411023C09E9CF0011F
:102730009F9CF00D1124E654FD4F138212822091CC
:102740001401C701820F911D9C01220F331F280F16
:10275000391F2E513E4F9E9CF0019F9CF00D11247D
:10276000E654FD4F4281618180810E94A20B8394D7
:10277000B3CF9E9CE0019F9CD00D1124C654DD4F29
:102780008B818823E9F081508B83859DC0011124C2
:102790006C8170E00E948734FB01FF27EB5BFD4FEB
:1027A0008491E82FE719E59DC0011124B8010E942A
:1027B000873480910D07689FB00111247A83BFCFC1
:1027C0000E94333520910D07269521582C9DA0019C
:1027D0002D9D500D1124452F5527841795070CF07A
:1027E000AECF82E0861588F40E943335B5010E9491
:1027F0009B3488830E94333520910C072695622FE5
:1028000070E00E949B34280F29839E9CF0019F9CBE
:10281000F00D1124E654FD4F128280910D07893C82
:1028200058F088EC9E9CF0019F9CF00D1124E6541A
:10283000FD4F8483838383CF8431A0F784E1F2CF7B
:10284000EF92FF921F93CF93DF93EC0110E0EE2401
:10285000EA94F12C60911601161770F00E94F7129D
:102860009A818C8190FF27C08F5F8C83DF91CF91FD
:102870001F91FF90EF90089520911401422F410F76
:102880005527551FCA019A01220F331F280F391FE0
:102890002E513E4F70E0C7010E949B34962F8C81D1
:1028A00040910D0760910C07199F800D11240E9423
:1028B000A20B1F5FCFCF8150D8CF8F929F92AF9244
:1028C000BF92CF92DF92EF92FF920F931F93CF931D
:1028D000DF93EC018A81BB24BA9480FD02C0BB2443
:1028E000B394A09016018C81811109C081E0B812C7
:1028F00028C08FEF8A0D8093DF0181E08C83F12C5B
:10290000E12C48E4942EEA14F8F00E94F71280912A
:10291000DF0191E0B9125FC0811158C080911601AA
:1029200081508093DF011C82DF91CF911F910F9125
:10293000FF90EF90DF90CF90BF90AF909F908F90DF
:1029400008951092DF01D9CF009114010E0D1F2DB3
:10295000111DC801880F991F080F191F0E511E4F16
:10296000F80111821082128234E0C32ED12C812C06
:102970008091DF01880D89342CF1692D0E94793412
:10298000892F082E000C990B8E159F0591F48091CC
:102990000D078C9DA0018D9D500D112455954795D7
:1029A00055954795980160910C0780910B070E94FF
:1029B000A20B8B0CF1E0CF1AD108D1F68FEFE81AF9
:1029C000F80AA1CF87FFDDCF8A0DDBCF815080933E
:1029D000DF01BC82A9CF90E001966091160170E002
:1029E0000E949B348093DF018C839ECFEF92FF92F5
:1029F0000F931F93CF93DF93EC018C81811109C05A
:102A000081E08C831092E00192E09093100180931A
:102A10000F01809114019091150123E0829FF00134
:102A20001124EE51FE4F891768F110E003E0609128
:102A30001601161768F10E94F71280910F0120917C
:102A4000E001280F2093E00190911001980F9093DE
:102A50001001191654F4022E000C330B409116018C
:102A60004150550B2417350734F0819580930F01A1
:102A7000813009F41C82DF91CF911F910F91FF905B
:102A8000EF9008951182108212828F5F3396CBCF20
:102A9000E12EF12C70E0C7010E949B3420911401BB
:102AA000820F482F50E02091E001022E000C330BE2
:102AB000E216F306BCF020911001022E000C330B3D
:102AC0002E153F057CF0809F900111242E513E4F22
:102AD00040910D0760910C0780910B070E94A20B9B
:102AE0001F5FA5CFFA01EE0FFF1FE40FF51FEE5198
:102AF000FE4F118210821282F3CF8F929F92AF927B
:102B0000BF92CF92DF92EF92FF920F931F93CF93DA
:102B1000DF93EC014C81042F10E09801D8010E9452
:102B200002369B01AC010E94CD354B015C01E0E215
:102B3000F0E0E01BF10BA5E5B0E0AC019B010E94C9
:102B4000CD356B017C019F01DF010E94BC349B01EC
:102B5000AC010E94D8359B01AC01280D391D4A1DDE
:102B60005B1DC701B6010E94E035F22E822F90E076
:102B700039E23F1560F143E0249F9001112435951F
:102B80002795122F109500E085E5E82EEF1880912B
:102B90001601081758F10E94F7129C8181E09923D1
:102BA00019F0903219F48FEF809311018091110187
:102BB000890F8C83DF91CF911F910F91FF90EF9040
:102BC000DF90CF90BF90AF909F908F90089525E5B4
:102BD00030E0B901681B790B9B01220F331F260FD0
:102BE000371F37FFCCCF2F5F3F4FC9CF8E2D01FD51
:102BF0008F2D20911401622F600F7727771F9B0183
:102C0000220F331F260F371F2E513E4F412F609149
:102C10000C070E94A20B0F5FBACF0F931F93CF93A5
:102C2000DF93EC0110E000E090911601901711067F
:102C300009F06CF40E94F7128C8190E0019681708B
:102C400099278C83DF91CF911F910F910895209147
:102C50001401A801420F511D9A01220F331F240FA6
:102C6000351F2E513E4F4C8160910C0780910B0710
:102C700096959017110651F04CF0442349F040917D
:102C80000D070E94A20B0F5F1F4FCECF4423B9F355
:102C900040E0F7CF90910A0790FF14C09091140183
:102CA0002091150133E0939FF0011124EE51FE4F66
:102CB000921710F00C94F7128183608342839F5F18
:102CC0003396F6CF08950F931F93CF93DF9300D0E1
:102CD0000F92CDB7DEB78C018091E10181110AC05E
:102CE0009E012F5F3F4F46E96FEF0E94A20B8A8142
:102CF0008093E101F8016481613069F08091E10124
:102D000040E0662361F040E0623011F44091E1015F
:102D100080E060E004C06091E10140E080E00E945A
:102D20004A16F801848190E0019663E070E00E9409
:102D30009B3484830F900F900F90DF91CF911F9160
:102D40000F910895CF93DF9300D00F92CDB7DEB7E8
:102D500090910A0790FF0AC09E012F5F3F4F0E948B
:102D6000A20B4B8169818A810E944A160F900F90B5
:102D70000F90DF91CF910895CF93DF93EC01EC8119
:102D8000F0E0EB5BFD4F4491EAE0F7E06281818186
:102D90000E94A2168C818F5F8C83DF91CF91089562
:102DA000CF93DF93EC01EAE0F7E0438162818C810D
:102DB0000E94A2168C818F5F8C83DF91CF91089542
:102DC000EAE0F7E080818E7F80830E94850BE3EC50
:102DD000F4E08281816082832FEF80E792E02150CE
:102DE00080409040E1F700C000000C94F712809101
:102DF000DE01811110C08091D80080618093D800DD
:102E00008AE18A95F1F700C08091D90080FF0AC05D
:102E100081E08093DE0181E09091DE01913009F044
:102E200080E0089582E08093DE010E949A0710926C
:102E30002607F1CF6AEE7EEF90E080E00E949835A1
:102E400060E082E090E00E947A3560E083E090E00C
:102E50000E947A3510929F041092A0041092A1044F
:102E60001092A20460E084E090E00E947A3560E075
:102E700082E290E00E947A3560E085E090E00E9476
:102E80007A3560E086E090E00E947A356FEF87E067
:102E900090E00E947A3540E050E0BA0188E090E08E
:102EA0000E948C3560E08DE090E00E947A3540E031
:102EB00050E0BA0188E190E00E948C3560E087E143
:102EC00090E00E947A3540E050E0BA018CE190E059
:102ED0000E948C3570E060E080E290E00E949835BE
:102EE00040E050E0BA0188E190E00E948C3540E07B
:102EF00050E0BA018FE090E00E948C3540E050E055
:102F0000BA0183E190E00C948C35CF92DF92EF927E
:102F1000FF926B017C010E948C0BB701A60188E037
:102F200090E0FF90EF90DF90CF900C948C35AF92B3
:102F3000BF92CF92DF92EF92FF920F931F93CF93A6
:102F4000DF9300D00F92CDB7DEB7182FF62E042FE7
:102F5000E22E90910A0790FF3AC0E92FE695AE2F36
:102F6000B0E0A45CBE4F8C918093C3049E7F9230EE
:102F7000E1F59E012F5F3F4F812F0E94A20B4B81F5
:102F800069818A810E944A1680910B07811308C0CB
:102F900080910C078F1104C080910D07801729F0D4
:102FA0008091C50482608093C50410930B07F09252
:102FB0000C0700930D07EE2051F060910A07709105
:102FC0000B0780910C0790910D070E9485170F90B9
:102FD0000F900F90DF91CF911F910F91FF90EF9085
:102FE000DF90CF90BF90AF900895823019F4009198
:102FF0000D07CACF863019F410910B07C5CF893061
:10300000D9F3893109F6E9518E2F8170D82EE695D2
:10301000F0E0E05CFD4FA590B490C12CBB24609122
:103020001601C61618F00E94F712AECF2C2D30E014
:10303000A29EC001A39E900DB29E900D112470E03F
:103040000E948734812FD11013C0860F4091140144
:10305000420F532F511D9A01220F331F240F351F8A
:103060002E513E4F402F6F2D0E94A20BC394D7CFFD
:10307000861BECCFEAE0F7E0438121E1421B08F434
:1030800040E021E0628181810C949717EAE0F7E04B
:10309000438121E1420F08F44FEF21E062818181F9
:1030A0000C949717EAE0F7E0628121E1621B08F4D3
:1030B00060E021E0438181810C949717EAE0F7E01A
:1030C000628121E1620F08F46FEF21E04381818189
:1030D0000C949717EAE0F7E0818121E04381628157
:1030E0008A500C949717EAE0F7E0818121E0438150
:1030F0006281865F0C94971780910E07882319F0E0
:10310000815080930E0760910A0770910B078091A0
:103110000C0790910D070C94851780910E07833052
:1031200018F48F5F80930E0760910A0770910B0768
:1031300080910C0790910D070C948517EAE0F7E059
:1031400083E1808311828FEF828386E983831482F7
:10315000A3ECB4E012968C911297836012968C9334
:1031600060817181828193810C9485171F93CF9325
:10317000DF93162F8A3031F481E0DF91CF911F91D8
:103180000C945B198D3011F480E0F7CFC091D0041E
:10319000D091D10496E0FE01A2E2B4E001900D923C
:1031A0009A95E1F7803EA8F186E0FE0111928A959A
:1031B000E9F7C091D004D091D104111136C046E096
:1031C00050E0BE0182E294E00E9459359E01225FE8
:1031D0003440892BA9F52A5F3F4F4091CB04642FDF
:1031E00070E0C9010E948734481B463010F4240F58
:1031F000311D211572E0370710F030E020E02E502D
:103200003B4F3093D1042093D004DF91CF911F9195
:103210000895F6E08F9FB00111246B5D7A4F46E070
:1032200050E0CE010E944335C4CF9E012A5F3F4F3C
:10323000FE012E173F0719F2808180958193F9CF07
:10324000C90145E0969587954A95E1F741E050E040
:10325000BA0102C0660F771F8A95E2F7CB01609131
:10326000F4067091F506862B972BB9016B5F7F4FA3
:10327000E5E076956795EA95E1F702C0440F551FA2
:103280006A95E2F7842B952B9093F5068093F406CC
:10329000A2CF1F93CF93DF93EC01162FFE018491F1
:1032A000811104C0DF91CF911F910895612F0E9479
:1032B000B6182196F3CFCF93382FE091D004F09138
:1032C000D104E25FF4402091CB04622F70E0CF0183
:1032D0000E948734281B822F332369F066E00E9406
:1032E0006D34C82FC15010F4CF91089560E080E292
:1032F0000E94B618F7CF9F01280F311D21153240CB
:1033000018F080E0F0E0E0E08E0F9F2F911D8E50CE
:103310009B4F9093D1048093D004E6CF0E9449192B
:1033200081E00C945B191F920F920FB60F9211243B
:103330002F933F934F935F936F937F938F939F93BD
:10334000AF93BF93CF93DF93EF93FF93D091E900B7
:10335000DF708091EC00C82FC17080FDC0E8109232
:10336000E9008091F000877F8093F00078940E94BC
:10337000AF0F1092E9008091F00088608093F00018
:10338000CD2BCF70C093E900FF91EF91DF91CF91EA
:10339000BF91AF919F918F917F916F915F914F916D
:1033A0003F912F910F900FBE0F901F9018951F9275
:1033B0000F920FB60F9211242F933F934F935F9369
:1033C0006F937F938F939F93AF93BF93EF93FF93ED
:1033D0008091E10082FF09C08091E20082FF05C078
:1033E0008091E1008B7F8093E1008091DA0080FF83
:1033F00024C08091D80080FF20C08091DA008E7FA9
:103400008093DA008091D90080FF9BC080E189BD64
:1034100082E189BD09B400FEFDCF81E080932607DB
:1034200080911907811109C00E949A070E946508BE
:103430008091E20084608093E2008091E10080FF4F
:1034400017C08091E20080FF13C08091E2008E7F60
:103450008093E2008091E20080618093E20080919D
:10346000D80080628093D80019BC85E0809326073D
:103470008091E10084FF29C08091E20084FF25C093
:1034800080E189BD82E189BD89B5982F917080FF67
:10349000FBCF8091D8008F7D8093D8008091E10090
:1034A0008F7E8093E1008091E2008F7E8093E20026
:1034B0008091E20081608093E20080912707882359
:1034C00009F445C084E0809326078091E10083FFE2
:1034D00027C08091E20083FF23C08091E100877FB5
:1034E0008093E10082E08093260710922707809165
:1034F000E1008E7F8093E1008091E2008E7F8093D7
:10350000E2008091E20080618093E20042E060E0AE
:1035100080E00E9433088091F00088608093F00082
:10352000FF91EF91BF91AF919F918F917F916F919B
:103530005F914F913F912F910F900FBE0F901F9071
:10354000189519BC109226071092190776CF809112
:10355000E30087FD93E090932607B7CF0F931F9367
:103560000E94F716882321F01F910F910C944B09AC
:103570000E944B090091A7041091A8042091A9046E
:103580003091AA04600F711F821F931F1F910F912A
:103590000895CF92DF92EF92FF926B017C010E941F
:1035A000F71681110EC00E944B09C61AD70AE80A05
:1035B000F90AC092A704D092A804E092A904F0925C
:1035C000AA04FF90EF90DF90CF90089578941F9217
:1035D0001FB61F9211248F939F93AF93BF93809137
:1035E000A3049091A404A091A504B091A60401960F
:1035F000A11DB11D8093A3049093A404A093A504DE
:10360000B093A604BF91AF919F918F911F901FBE61
:103610001F9018952FB7F8948091A3049091A4045B
:10362000A091A504B091A6042FBF08950F931F93F6
:10363000CF93DF93C62FD42F022FFC0182818823E2
:10364000A1F0609332070E940A1B90933107809388
:103650003007C77081E001C0880FCA95EAF7DF9193
:10366000CF911F910F910C94100A8091320768132B
:1036700035C080913007909131070E943C09843613
:10368000910560F510E21D0FCD17B9F080E28C0FA7
:10369000883040F4C77081E001C0880FCA95EAF70E
:1036A0000E94050A183048F481E09D2F977001C0F0
:1036B000880F9A95EAF70E94100A802F0E94DC1268
:1036C000183098F4D77081E001C0880FDA95EAF7D6
:1036D000DF91CF911F910F910C94050AC77081E083
:1036E00001C0880FCA95EAF7F3CFDF91CF911F9100
:1036F0000F9108950E94F71681110C940A1B0E94E5
:10370000AE1ACB01089560910A07669570E04BE010
:1037100050E084E091E00E944C35892B19F481E05F
:103720008093C4040E947A1B9093BE048093BD04CE
:103730008091C50484608093C504089590910A0720
:1037400090FF3BC0917081112EC0926090930A0748
:103750008091C50481608093C504662351F0609117
:103760000A0770910B0780910C0790910D070E943A
:10377000851760910A07669570E04BE050E084E0A1
:1037800091E00E944C35892BA9F00E94850B81E0C5
:103790008093C00420E040910D0760910C07809158
:1037A0000B070C9497178B3210F09465CFCF880FCE
:1037B000982BCCCF0E94831BEACF089580910A07F3
:1037C0008695815009F48AE261E00C949E1B8091F9
:1037D0000A0786958F5F8B3208F081E061E00C94D8
:1037E0009E1B90910A0790FF07C09695981720F0AE
:1037F000961710F40C94E71B61E00C949E1B3F920B
:103800004F925F926F927F928F929F92AF92BF92F0
:10381000CF92DF92EF92FF920F931F93CF93DF939C
:1038200000D000D00F92CDB7DEB78C01FC018381B0
:103830009481892B31F08081918189238F3F09F018
:1038400055C70F900F900F900F900F90DF91CF9171
:103850001F910F91FF90EF90DF90CF90BF90AF90AE
:103860009F908F907F906F905F904F903F900895C2
:103870000E94B50EF82E682F89819A810E94CD0989
:1038800069817A818F2D0E94210D7C01F801D280FF
:10389000DD2009F4DDC682519F45409708F018C726
:1038A0008FEF93E00E946635FEEEEF0EB7E08B2EB1
:1038B000B2E09B2E882381F180919A04877009F4ED
:1038C000C0CFF8018281882309F4BBCF82E00F903A
:1038D0000F900F900F900F90DF91CF911F910F914C
:1038E000FF90EF90DF90CF90BF90AF909F908F9020
:1038F0007F906F905F904F903F900C949F0A81143F
:1039000024E09206C9F2C4010E946635811101C00B
:10391000EA943FEF831A930AE110F1CF1C821B82D5
:1039200044244394AAE03A2E74018FEFE81AF80A6F
:10393000C4010E94663589831A82882309F4BCCFAA
:103940009FEF980F933000F58A83498292E0890EA9
:10395000911CC7010E9466358B83882309F4ACCF84
:10396000FE0131967F01F70120812223E9F2213007
:1039700009F049C091818281913041F4F2E0EF0E6B
:10398000F11C0E94DC1209C04701EACF923049F4D1
:1039900022E0E20EF11C0E941F0B3FEFE31AF30A34
:1039A000E2CF933031F432E0E30EF11C0E94E60ADC
:1039B000F4CF943021F08FEFE81AF80AEECF92E0BE
:1039C000E90EF11C30E020E0B7016F5F7F4FF70197
:1039D00041818053990B8A30910550F02150310973
:1039E000E0F28FE99FE00197F1F700C00000F6CF09
:1039F000329EF001339EF00D11249C012E0F3F1FCB
:103A0000842F7B01E1CFE22FF0E0E15FF44F54908F
:103A1000822F86958695869590E0FC01E150F54FC2
:103A200064902770712C022E02C0759467940A94DA
:103A3000E2F7E1E06E227724FC01E151F54FA4901A
:103A4000B12C022E02C0B594A7940A94E2F7F1E0DB
:103A5000AF22BB24FC01E152F54FC490D12C02C02F
:103A6000D594C7942A95E2F721E0C222DD2461149F
:103A7000710419F081EE0E941F0BA114B10419F01A
:103A800086EE0E941F0B852D0E94DC12AB2819F0D8
:103A900086EE0E94E60A672819F081EE0E94E60A87
:103AA000CD2809F47ACF8CE26CCF81E00E94BB0A6A
:103AB0000E94600A01CF81E00E947C0AF9CF8EE566
:103AC000E8168DE5F80609F4A0C008F0ADC0EDE7F2
:103AD000EE16F10409F0DEC581E00E94520CDD20F3
:103AE00009F40DC10E94100A89E100C1F3E6EF1646
:103AF000FDE5FF0609F4B9C008F06FC031E6E31632
:103B00003DE5F30609F499C082E6E8168DE5F8066E
:103B100009F0C0C58091CF048170DD2009F498C000
:103B2000882309F493C084E00E94520C0E94100A7A
:103B300080E50E941F0BF8018281882309F4E7C504
:103B400010923207F2E0EF16FCE5FF0608F410C20F
:103B500026E1E2162CE5F20630F0C7018A5F9C45AB
:103B6000099708F005C20E94ED0C9093CF04809352
:103B7000CE0430E1E3163CE5F30609F4C8C108F0D1
:103B800047C198E0E9169CE5F90609F4B6C108F0CA
:103B900010C1F4E0EF16FCE5FF0609F4A6C108F039
:103BA000F2C032E0E3163CE5F30609F494C183E089
:103BB000E8168CE5F80609F494C16091CE04F09003
:103BC000CF0484E090E00E947A356F2D82E290E08D
:103BD0000E947A350E94A40F6FCE95E6E9169DE506
:103BE000F90609F46AC008F45BC0F6E6EF16FDE5D5
:103BF000FF0609F04FC581E00E94520CDD2009F458
:103C000069C00E94100A8AE294CFDD2009F454CEE4
:103C100061E083E090E00E947A3561E070E080E04E
:103C200090E00E94DC0A48CE81E0DD2009F444CF18
:103C30003DCFD11059C582E03FCF83E0DD2019F0A0
:103C40000E94BB0A39CE0E947C0A36CE81E06CCF3E
:103C5000882349F084E00E94520C0E94050A80E506
:103C60000E94E60A68CF81E0F6CF8091CF04817090
:103C7000DD2059F0882339F084E00E94520C0E9424
:103C8000100A8FE456CF81E0F8CF882339F084E022
:103C90000E94520C0E94050A8FE4E2CF81E0F8CF27
:103CA0008091CF048170DD2021F08111CFCF8AE493
:103CB00040CF8111D8CF8AE4D3CF8091CF048170D7
:103CC000DD2021F08111DFCF8DE433CF8111E6CFEC
:103CD0008DE4C6CF0E94050A8AE2C2CF81E00E942D
:103CE000520CDD2031F00E94100A86E00E941F0B6A
:103CF000E3CD0E94050A86E00E94E60ADDCD0E941F
:103D0000050A89E1F9CF81E00E94520CDD2021F003
:103D10000E94100A8BE1EACF0E94050A8BE1ECCFEA
:103D200081E00E94520CDD2021F00E94100A8DE1FA
:103D3000DDCF0E94050A8DE1DFCFF5EFEF16FCE540
:103D4000FF06D1F0A8F027E245EE66EE36EFE31667
:103D50003CE5F30609F0EFCEC8010E94161BACCD7E
:103D600027E245EE65EEF8CF26E241EE60EEF4CFB5
:103D700027E245EE64EEF0CF26E241EE62EEECCFB4
:103D800028E241E0EFCF8091CE04806196E0E91611
:103D90009CE5F90609F4A2C08091CE048860E7E0B2
:103DA000EE16ECE5FE0608F499C08091CE04806220
:103DB00095C08091CE048D7FFCE0EF16FCE5FF06F8
:103DC00009F48CC078F48091CE048C603AE0E3165C
:103DD0003CE5F30609F482C008F493C08091CE0458
:103DE0008E7F7CC08091CE04877F9EE0E9169CE5A3
:103DF000F90609F473C08091CE048B7FEFE0EE16D4
:103E0000ECE5FE0608F46AC08091CE048F7E66C0A1
:103E1000FBEFEF16FCE5FF0609F46BC068F533E134
:103E2000E3163CE5F30609F47AC090F491E1E91653
:103E30009CE5F90609F46FC0E2E1EE16ECE5FE063A
:103E400009F0BBCE0E94A40F8091CE048F7746C0AC
:103E5000F5E1EF16FCE5FF0609F469C008F47DC042
:103E60008091CF0481603AEFE3163CE5F30609F058
:103E7000A4CE8093CF04A1CE8FEFE8168CE5F80690
:103E800009F451C0A0F48091CF048D7FEDEFEE16C0
:103E9000ECE5FE0671F38091CF048E7FFEEFEF1606
:103EA000FCE5FF0630F38091CF048360E2CF21E090
:103EB000E2162DE5F20609F459C008F444C060E0AA
:103EC00082E0E8168DE5F80609F077CE8EE090E006
:103ED0000E947A3572CE8091CE0481608093CE04A8
:103EE0006CCE8091CE048260F9CF8091CE04846044
:103EF000F5CF8091CF048260BCCF8091CE048064E6
:103F0000EDCF0E94A40F8091CE048068E7CF80910E
:103F1000CE048F7DE3CF8091CE048F7BDFCF809165
:103F2000CE04837FDBCF8091CF048C7FA2CF8091A2
:103F3000CE0482FB992790F921E0922790FB82F929
:103F400090FB83F9CBCF8091CF04982F90959170FF
:103F50008E7F892B90FB81F98CCF0E94A40F9091CA
:103F6000CE04892F97FB87F98058B8CF61E0AECF98
:103F700096E1E9169CE5F90609F0E2C380919D04FB
:103F80008A7A91E009F490E09093360469E2811115
:103F900065E382ED91E00E9457090E9477098CCC7D
:103FA00085E3C0C3816080930A0761E086950E9423
:103FB0009E1B82CC4EED5BE167EE7BE10E94800BA5
:103FC0007BCC47EE5BE16EED7BE1F8CF43E758E158
:103FD0006AE678E1F3CF42E558E16EE578E1EECFAD
:103FE0004AE358E166E478E1E9CF46E458E16AE360
:103FF00078E1E4CF4DE858E16CE778E1DFCF61E0AC
:1040000081E0D5CF65E082E00E94F11B55CC68E0ED
:1040100086E0FACF64E18FE0F7CF67E185E1F4CF86
:1040200062E289E1F1CF61E083E2C1CF0E94A40F97
:104030003FEF84E39CE0315080409040E1F700C0C6
:1040400000000E942B0981E0A1C380E09FC3C7014B
:104050000E94A409D82EABC32D2D2F70C22E8D2DFA
:10406000807F19F0C29460EFC622FF20C9F0CC20F7
:1040700069F080E28E0D883010F0B1100BC0809195
:104080009D04C82AC0929D040E9477098E2D0E942B
:104090001F0B19C080919C04C82AC0929C04F4CFC5
:1040A0008E2D0E94E60ACC2071F0C09480E28E0D25
:1040B000883010F0B1104EC080919D04C822C0928B
:1040C0009D040E947709292D2850330B2430310597
:1040D00010F40E94740BFF2079F08D2D807F8036C4
:1040E00019F436EFB31641F080913704823009F0AD
:1040F000A7C283E080933704AA2009F4A2CB809161
:104100009A0480FD9ECBF801128285958595859550
:104110000E94BB0AC8010E94FF1B80919A048595EA
:10412000859585950F900F900F900F900F90DF91D0
:10413000CF911F910F91FF90EF90DF90CF90BF90A4
:10414000AF909F908F907F906F905F904F903F9037
:104150000C947C0A80919C04C822C0929C04B1CF2C
:104160003D2D3F70832E8D2D807F803219F08294FB
:1041700050EF8522BB2071F081E0B81681F1FF205D
:10418000E9F1CC2099F1F801858180FF7FCF8F7014
:1041900085832CC0FF20B1F090919E04882D892B3F
:1041A000C11003C00E94100A8ECFE1E0CE12FACFF8
:1041B0002091CF0422FD87CF891709F484CF809303
:1041C0009E0481CFC11006C00E947109882D0E94F3
:1041D000050A79CFF1E0CF1609F475CFF5CFFF20AE
:1041E00039F045E0442E4C1408F46DCF882DDACF19
:1041F00034E0532E5C1408F466CFE8CFCC2031F3C2
:10420000F9E3BF120DC02FEF37EE83E021503040AD
:104210008040E1F700C000008E2D0E94E60A53CFD7
:10422000EFE3FCE93197F1F7F5CF8D2D8695869573
:10423000837069F0813009F046CF8E2D9D2D9370EB
:10424000F11002C090E080E00E941C0A3CCF8E2D4D
:104250009D2D9370F11002C090E080E00E94320A20
:1042600032CF8D2D837009F067C0F1102CCF2E2D29
:10427000229526952770220F220F4E2D4F7050E069
:1042800070E060E0022E04C0440F551F661F771FC8
:104290000A94D2F780E090E0DC01E4FE0FC08FE0EA
:1042A00090E0A0E0B0E004C0880F991FAA1FBB1FD8
:1042B0002A95D2F780959095A095B0952D2D2695AD
:1042C00026952370223029F1D8F440909F04509015
:1042D000A0046090A1047090A204213069F0842BA6
:1042E000952BA62BB72BBC01CD016421752186210E
:1042F00097210E94DC0AE7CE4429552966297729AF
:104300002A013B01482A592A6A2A7B2AC301B201A1
:10431000F0CF842B952BA62BB72B40909F04509069
:10432000A0046090A1047090A204BC01CD0164259A
:10433000752586259725DDCF8695FF2011F08D2DDB
:104340008170882309F4BFCE2E2D229526952770E3
:10435000220F220F4E2D4F7050E070E060E0022ED1
:1043600004C0440F551F661F771F0A94D2F780E0E0
:1043700090E0DC01E4FE0FC08FE090E0A0E0B0E050
:1043800004C0880F991FAA1FBB1F2A95D2F78095DA
:104390009095A095B0952D2D2695269523702230C9
:1043A00029F1D8F4409033075090340760903507D6
:1043B00070903607213069F0842B952BA62BB72BF4
:1043C000BC01CD0164217521862197210E94560AE6
:1043D0007ACE44295529662977292A013B01482AA2
:1043E000592A6A2A7B2AC301B201F0CF842B952B6C
:1043F000A62BB72B409033075090340760903507B9
:1044000070903607BC01CD0164257525862597255A
:10441000DDCF2D2D2F70C22EFF2029F0822F0E947C
:10442000BB0A8E2DBFCE8E2D0E94050A8C2D0E94B8
:104430007C0A49CE8E2D32EFB31609F45AC03B15D3
:1044400078F090EFB91651F1E1EFBE1609F449C0CA
:10445000FF2009F472C0C11019CE8D2D8F7146C096
:10446000F3EFBF1609F44AC024EF422EB410F0CF88
:10447000FF2009F457C02D2D2F71E22E822F0E94AC
:10448000BB0A8091CF0482FD07C038E0E39EC001E3
:104490001124836080939A048E2D28C0FF20D9F0C8
:1044A00094E0592E5C1408F40ECE2D2D2F7161E08E
:1044B00070E080E090E004C0660F771F881F991FAE
:1044C0002A95D2F740903307509034076090350713
:1044D0007090360799CF85E0682E6C1408F4F3CD00
:1044E000E4CF8D2D8F71FF2009F4A1CF0E94BB0A6C
:1044F000EACD8D2D8F71FF20C9F399CF60E070E078
:10450000CB01FF2009F462CF2D2D2F7161E070E007
:1045100080E090E004C0660F771F881F991F2A95DE
:10452000D2F754CF81E00E949F0A81E08C1508F0F9
:10453000CACD82E00E949F0AC6CDCC2079F0893393
:1045400041F49FEFE7EEF3E09150E040F040E1F7F7
:1045500061CE8FE39CE90197F1F75CCE8D2D8F71D1
:1045600066CFE0E1EE0DE73008F03FC0F0E0E55D3A
:10457000F94C0C94AF34FF2009F4A5CD8091390497
:1045800091E08927809339049ECDF09239049BCD28
:1045900081E08F25F7CFF11096CD81E0F3CFF110B8
:1045A00092CD109239048FCDFF2021F082E08093CC
:1045B0003704F3CF80913704823021F481E0809377
:1045C000370481CD833009F07ECD10923704E9CFD6
:1045D000FF2039F080913804882381F2109238044A
:1045E00072CD94E09C1550F66ECD80913804CC20AD
:1045F000D9F0882341F08091390491E08927809394
:10460000390410923804F11041CDEFE3FCE9319701
:10461000F1F700C000008E2D0E94E60A86E0F80146
:1046200011928A95E9F74FCD882309F44CCDF1100A
:104630004ACD8091390491E0892780933904CECF07
:10464000813009F059CD109237041092390454CDBD
:104650008031FFE59F0709F42ECA81319F4509F497
:10466000EACA80E6E8168DE5F80609F4E2CA08F021
:104670003DCAECE7EE16F10409F430CB08F01FCA8E
:104680002AE7E216F10409F44BCB3BE7E316F10409
:1046900009F439CB23EFE2162CE5F20609F464CBDA
:1046A00008F04BCB88EDE8168CE5F80609F458CBFA
:1046B00099EDE9169CE5F90609F462CBE7EDEE16F3
:1046C000ECE5FE0609F037CA26E241EE61EE44CB86
:1046D00030E1E3163FE5F30609F4E7C981E1E816A6
:1046E0008FE5F80609F0BDCF82E0E0C985E0DE0184
:1046F000119601900D928A95E1F7F8012281898146
:104700009A812111B5C80E94A409F82EB9C8F6E112
:10471000EF16FCE5FF0609F084C080913604811194
:104720003FCC89E2E4EDF1E02AED31E0919189138B
:1047300003C0DF0111971C922E173F07B9F72DCC4C
:104740002AE5E2162DE5F20609F47DCC68F4E114C1
:104750008CE5F80609F46ACC9EEDE9169CE5F906AD
:10476000B9F40E941A17A8C8EBE5EE16EDE5FE06AF
:1047700009F46BCCFCE5EF16FDE5FF0649F48091EA
:10478000CF0482FB882780F991E089270E947A0F65
:10479000F8018281E080F180882309F458CCC701B8
:1047A0000E94B50ED82E682FC7010E94CD09B7010F
:1047B0008D2D0E942E0DE82ED92EB82EF801F280F4
:1047C000C580C294FFE0CF2280919A048770C9F01F
:1047D000AF2CFF20B9F0892F807F803449F090E220
:1047E0009E0D983070F0803619F4F6EFEF1649F010
:1047F00082E00E949F0A80919A048770AA24A39461
:104800008111A12C9D2C92947FE09722EBE04E2EFB
:10481000491408F458CCE92DF0E0EE5CF94C0C9406
:10482000AF3480919D0482722CECE2162CE5F206E6
:1048300009F4E0CB08F074C096ECE9169CE5F906A3
:1048400009F4C4CB08F043C0F3ECEF16FCE5FF0617
:1048500009F4B0CB58F532ECE3163CE5F30609F069
:1048600097CF80910A0780FF9DCB8E7F80930A07A8
:1048700060910A0770910B0780910C0790910D07CA
:104880000E9485170E94850B8091C50481608093EA
:10489000C504EFEFF0E722E0E150F0402040E1F7FF
:1048A00000C000000E94F7120C945C1C94ECE91606
:1048B0009CE5F90609F485CB4AE658E163E778E11F
:1048C000E5ECEE16ECE5FE0609F478CB61CFF9ECE9
:1048D000EF16FCE5FF0609F483CB88F437ECE3160A
:1048E0003CE5F30609F477CB4EE558E162E578E163
:1048F00098ECE9169CE5F90609F460CB49CFEAEC9F
:10490000EE16ECE5FE0609F470CB4CE758E16DE8D5
:1049100078E1FBECEF16FCE5FF0609F44FCB38CF4E
:1049200021EDE2162CE5F20609F474CBB8F48EEC16
:10493000E8168CE5F80609F465CB08F460CBEFECDB
:10494000EE16ECE5FE0609F462CB6EE089E0F0EDD0
:10495000EF16FCE5FF0609F457CB1ACF24EDE2165B
:104960002CE5F20609F45CCB78F482EDE8168CE5D0
:10497000F80609F452CB61E088E193EDE9169CE575
:10498000F90609F414CB04CFE5EDEE16ECE5FE06CE
:1049900009F449CB6AE285E2FDE5EF16FF0609F46A
:1049A00033CBF6CE1F93CF93DF9380913F04807F6C
:1049B000A9F480913C04882389F080917104D091FE
:1049C000400460913A0470913B04A0913D04B09181
:1049D0003E04C62FC72316E0D81304C0DF91CF9141
:1049E0001F91089590E0109711F0CF3F19F40196B0
:1049F0008770F2CF189F9001199F300D1124F90193
:104A0000EF5BFB4F41814713F2CF40814613EFCF5D
:104A100042814111ECCF438154814A1B5B0B4436E8
:104A2000510528F780913F048F70806180933F0487
:104A3000F901EA5BFB4F80818F70806180838AE39C
:104A400094E00E94FF1BDF91CF911F910C94FB0912
:104A5000AF92BF92CF92DF92EF92FF920F931F938C
:104A6000CF93DF93CDB7DEB761970FB6F894DEBF73
:104A70000FBECDBF8C0185E0F801DE011D960190CF
:104A80000D928A95E1F7F80180819181E2802AE315
:104A9000A22E24E0B22E60913D0470913E04611577
:104AA000710509F42BC130913A0440913B04232F46
:104AB00024232F3F09F422C1C380D480F0903C040A
:104AC000F601E61BF70BFF2009F4FBC020913F0421
:104AD000522F507FE436F10508F0BBC0511178C069
:104AE000FE2C491321C038131FC0E1101DC02F70C8
:104AF000206120933F04C5010E94FF1B80913F0469
:104B0000F80185838F2D61960FB6F894DEBF0FBE36
:104B1000CDBFDF91CF911F910F91FF90EF90DF906C
:104B2000CF90BF90AF900895CD2829F0282F29234A
:104B30002F3F09F00FC120E0F22FF170DF2E20FF90
:104B40003DC0209171044091400456E0241315C0EB
:104B50008D879E878D859E850E94F70E292F229531
:104B60002F702230F8F0243020F59F70F9F0F80112
:104B70009581907FD9F4D12C1FC030E0529FF00175
:104B8000539FF00D1124EF5BFB4F6181961306C01C
:104B90006081861303C06281E61210C02F5F3F4F11
:104BA0002770D4CF9F7011F0882329F3805E88305E
:104BB00010F3C8010E94FF1BFD2CA4CFEE2009F4C6
:104BC000A1CF80913F04816080933F04F12C9ACF64
:104BD000491312C0381310C0E1100EC0F80125832C
:104BE000C8010E94FF1B86E0F801AAE3B4E001902F
:104BF0000D928A95E1F786CF8D879E878D859E855C
:104C00000E94010F882309F1EE20F9F080913F0402
:104C1000803270F020913A0430913B0438872F8322
:104C20001986DB86CA868C87CE0107960E94FF1BF9
:104C300086E0F801AAE3B4E001900D928A95E1F7CD
:104C40000E94D224FF24F3945DCFC8010E94FF1B71
:104C5000F9CF51110AC08AE394E00E94FF1B86E05D
:104C6000F50111928A95E9F7B1CF49130FC03813B6
:104C70000DC0E1100BC0F8012583C8010E94FF1B85
:104C800086E0F50111928A95E9F73CCF8D879E87E2
:104C90008D859E850E94010F8823B9F2EE20A9F22E
:104CA00080913F04803220F220913A0430913B04FD
:104CB0003A8329831B82DD82CC828E83CE010196CA
:104CC000B5CFE436F105E0F6FE2CEE2009F4BDCFB9
:104CD000491303C0381709F486CF8D879E878D85C9
:104CE0009E850E94010F8111A3CF80913F048160B6
:104CF00080933F04C8010E94FF1B04CFEE2009F4FB
:104D0000A4CF8D879E878D859E850E94010FF82EEA
:104D1000882309F49ACF86E0F801AAE3B4E0019071
:104D20000D928A95E1F780913A0490913B040E949C
:104D3000F70E92959F70963051F4863F41F0809126
:104D4000390491E0892780933904909338040E94B4
:104D5000D224D8CE21E02E25EFCE0F931F93CF93F0
:104D6000DF93CDB7DEB767970FB6F894DEBF0FBEFF
:104D7000CDBF6D8B7E8B8F8B752F611110929C0434
:104D80008E899F89892B09F473C0842F87238F3FD5
:104D900009F047C07FEF4FEF6BC0902F90958923AC
:104DA00066C096E0929FD001939FB00D1124AF5B37
:104DB000BB4FFE01319601900D929A95E1F78093D9
:104DC00040040E94FB0983C0819FC00111248F5BB6
:104DD0009B4F0E942825882309F480C0809171048C
:104DE00090E00196877099278093710471C020919B
:104DF000400430E0C9010196877099274091710401
:104E00004817190671F60E94A40F109240041092E0
:104E1000710486E0EAE3F4E0DF011D928A95E9F788
:104E200056C001E010E0042E01C0000F0A94EAF71A
:104E3000A72FB0E0A45DBB4F8C9190913904611114
:104E400002C0982F9023992309F4A7CF50E096E051
:104E5000799F400D511D1124440F551FFA01E85947
:104E6000F54F74914959554FFA014491802B8C9319
:104E70001A8A198A4B8B7C8B85E0FE017396DE01C2
:104E80001D9601900D928A95E1F786E0FE013D9610
:104E9000DE01179601900D928A95E1F7CE010796F3
:104EA0000E942825811113C086E0FE013796DE019D
:104EB000119601900D928A95E1F78A859B85892B41
:104EC00031F08F81988589238F3F09F090CF16E0CC
:104ED0008091710490914004891376CF67960FB644
:104EE000F894DEBF0FBECDBFDF91CF911F910F9120
:104EF00008958F929F92AF92BF92CF92DF92EF92DE
:104F0000FF920F931F93CF93DF9300D000D00F92A7
:104F1000CDB7DEB708E911E08BEAC82E84E0D82EC1
:104F20004601F12CAA24A394B12CD8018D918D01B6
:104F3000F894E82FE295EF70F0E021A18F70A501C1
:104F400002C0440F551F8A95E2F7CA01922F982B91
:104F500091A392A18095892382A3789400C0E2EA6C
:104F6000F1E030E020E0E12C4191A42FA295AF7058
:104F7000B0E090968C9190E04F7002C09595879527
:104F80004A95E2F780FD48C08A2D022E01C0880FA5
:104F90000A94EAF7E82A2F5F3F4F2630310521F7C0
:104FA000F801319780810E943B0C50EA5A95F1F745
:104FB000D4018C91E81691F1EC9281E0F82ABFEFD0
:104FC0008B1A9B0AE1E00D391E0709F0AECF109154
:104FD000B604FF2029F181E08093DC010E940A1BC6
:104FE0009093DB018093DA018091DA019091DB01EB
:104FF0000E943C090697C0F0E12FF0E0E15FF84F16
:10500000D6018D916D018193B0EBCB16B4E0DB0638
:10501000B9F71092DC0108C080E0BCCF80E0CECFB1
:105020008091DC018111E0CF0E94F716E82E60919B
:10503000B604882309F455C08E010F5F1F4F85E029
:10504000F80111928A95E9F7862F90E0B801815F07
:10505000984F0E946F31811127C08091DD018F5FD1
:105060008093DD018630D8F1E091B504F0E0E15F96
:10507000F84F10821182128213821482F11001C043
:10508000FE2C8F2D0F900F900F900F900F90DF91AF
:10509000CF911F910F91FF90EF90DF90CF90BF9035
:1050A000AF909F908F9008951092DD01A091B5046C
:1050B000B0E0A15FB84F9E012A5F3F4FE12C4D91B8
:1050C000F80191918F01491731F0AD01415051091B
:1050D000FA019083E82E0217130789F7CFCFE12C4E
:1050E000CDCF70E0615F784F8091B50490E0815F33
:1050F000984F0E949E31C2CFCDB7DEB7AC970FB6A6
:10510000F894DEBF0FBECDBF84B7877F84BF0FB6D4
:10511000F894A89580916000886180936000109257
:1051200060000FBE80E890E00FB6F89480936100B5
:10513000909361000FBE85B7806885BF85B7806892
:1051400085BF85E299E09093D1018093D0010E94C0
:105150009A070E9465088091E20084608093E200D3
:105160007894809126078823A1F01091E9001F70A0
:105170009091EC00892F817090FD80E8182B10929F
:10518000E9008091E80083FD0E94AF0F1F7010932B
:10519000E90082E084BD93E095BD9AEF97BD8093CE
:1051A0006E001092A7041092A8041092A904109205
:1051B000AA040E94F71691E0892780931701809135
:1051C0001701882309F47DC01092120184E28093B4
:1051D00013010E94F71681110E9446318091170138
:1051E0008091170195E0811190E09093B60485E0DD
:1051F000891B8093B50486E60E943B0C87E90E94D8
:105200003B0C86EC0E943B0C84E30E943B0C85E344
:105210000E943B0C86EF0E943B0C87EF0E943B0CE8
:1052200081E30E943B0C83E30E943B0C82E30E94DB
:105230003B0C86E30E943B0CEBEAF4E085EB94E048
:10524000AFE0B7E011921D928E179F07D9F790E05B
:1052500080E00E9474358A3E9E4F11F00E941A171A
:1052600082E090E00E9466358093FF060E94ED0C7C
:105270009093CF048093CE040E9479278FE39CE91A
:105280000197F1F700C000000E94792780910F0775
:1052900080FF1BC06FEF83E290E00E947A356FEFD2
:1052A00084E290E00E947A356FEF85E290E00E9400
:1052B0007A356FEF7FEF90E080E00E9498350E9492
:1052C0002B0984E28093120182CF83E090E00E9458
:1052D0006635682F70E090E080E00E94DC0A0E9452
:1052E000F716811102C00E944C3183E290E00E94C7
:1052F0006635813209F0E4C684E290E00E946635AA
:10530000803109F0DDC685E290E00E946635873184
:1053100009F0D6C60E94F716811181C282E08093FF
:10532000F20680E88093CB040E94C1316DE070E00A
:1053300082EA9BE00E94950C892BE9F58091F206A8
:1053400063E070E081FD70C28FE99BE00E94950CE4
:10535000892B89F56DE070E08FE89BE00E94950C49
:10536000892B49F50E944B09605A75418F4F9F4F19
:105370006093F6067093F7068093F8069093F9060B
:10538000E2EFF4E080E092E0DF018C011D92015039
:105390001040E1F7F093D104E093D0048FEF9FEF3A
:1053A0009093F5068093F40681E08093FD06809348
:1053B000FA061092F3068091B70481113BC090E089
:1053C00080E00E9474358A3E9E4F21F00E941A1799
:1053D0000E949E1888E090E00E946E3560930A0754
:1053E00070930B0780930C0790930D078091C50471
:1053F00083608093C5046E7F71F40E949E1888E0DC
:1054000090E00E946E3560930A0770930B078093BB
:105410000C0790930D070E948C0B0E94850B8091C6
:105420000A0780FF04C060E086950E949E1B81E011
:105430008093B70480911701811106C084EF809397
:10544000190185EF8093180120911901A22FA295CF
:10545000AF70B0E091963C9191972F7081E090E011
:10546000BC01022E01C0660F0A94EAF7462F409550
:10547000432391964C93919792963C919297362B19
:1054800092963C93929740911801E42FE295EF7029
:10549000F0E031A14F70042E01C0880F0A94EAF7A2
:1054A000982F9095932391A392A1892B82A39096F4
:1054B0008C9190E002C0959587952A95E2F78170CE
:1054C00020A130E002C0359527954A95E2F792E099
:1054D00020FF90E0892B8093CA049091170181E00E
:1054E00098279093C904891B8093B80481E291E0C6
:1054F0009093CD048093CC048FE097E0FAE06F2E78
:10550000680E8091260700E112E1853009F4C4C1DC
:105510000E947927E82E81110E944B09E0E0F7E014
:10552000AFE0B7E010E000E0B02EDD9081918D1586
:1055300009F4C1C1C12CFF24F3948D25982F9F211C
:1055400009F4B4C10E94F716882399F0C9A2BAA23F
:10555000DF2081E009F480E08BA30E940A1B8160B8
:10556000782F9DA38CA349A15AA16BA18DA10E9464
:10557000AD26F801E050F94F8081F826F082809145
:10558000C404882309F464C08091C304E0910A072D
:10559000E695E81BE093BF04823009F0A3C1F0E078
:1055A000E054F44FE4910E2F10E0ECEBCE2EE6E148
:1055B000DE2E8091C004882361F01092C0040E9406
:1055C0007A1B9093BE048093BD041092C204109283
:1055D000C1040E947A1BE091BD04F091BE049C01BD
:1055E0002E1B3F0B2F3F3F4798F52091BC042223F1
:1055F000B1F01092BC042091BA043091BB04821B1C
:10560000930B8F3F9F4758F4205D3A483093BB047B
:105610002093BA048091C50488608093C504A0904B
:10562000C104B090C204E00FF11FF093BE04E093F8
:10563000BD048DEB94E0F60109958091C104909131
:10564000C204892B29F4AB2819F081E08093BC04B3
:105650008091CA04E82FEE0FEE0F90911901A92F47
:10566000A295AF70B0E090962C9130E09F7002C090
:10567000359527959A95E2F7A901417055279091A4
:105680001801A92FA295AF70B0E090962C9130E050
:105690009F7002C0359527959A95E2F7C9018170F0
:1056A000992720FF02C082E090E0842B8E2B80930C
:1056B000CA041091C9048F70E82FF0E0E855FE4F3E
:1056C00080819091C804890F8093C804F12C8230A6
:1056D0008CF0E12FF0E0EA53FB4F80818F5F8083F5
:1056E00089EA112319F0113019F48BE40E94DC12BD
:1056F000FF24F3948091C8048F3F8CF4E12FF0E0F5
:10570000EA53FB4F8081815080838AEA112319F08C
:10571000113019F48EE40E94DC12FF24F39480917E
:10572000C804082E000C990B62E070E00E949B34C4
:105730008093C804F1100E941A0A8091FD06882304
:10574000B1F18091FB069091FC060E943C09C29742
:1057500008F034C12091F4063091F5062115310589
:1057600009F028C28091FA06882309F10E944B09AA
:105770000091F6061091F7062091F8063091F9068F
:10578000601B710B820B930B6F3F7F4F8F4F9F47B7
:1057900070F48091FD06882351F062E070E084E0AF
:1057A0009EE00E94950C892B11F41092FA06E110EC
:1057B00001C0F1100E94C50C0E94740B9091FE066E
:1057C000891721F00E94740B8093FE0680912607B2
:1057D000843009F096CE83E08093E9008091E80060
:1057E00082FF8FCE8091E80090E085FF06C00E9486
:1057F000B907882309F4B1C291E08091E8008B7762
:105800008093E800992309F47CCEE981E150E331EB
:1058100008F015C3F0E0E25CF94C0C94AF3483E07F
:105820008093F20680E27ECD8CE99BE08FCD809163
:105830002607843021F11092B90428E130E040E4D9
:105840000FB6F894A895209360000FBE40936000B7
:1058500083B7817F846083BF83B7816083BF78947F
:10586000889583B78E7F83BF0FB6F894A8958091F3
:105870006000886180936000109260000FBE80918C
:105880002507882349F00E947927EFE0F7E081910E
:10589000811100C46E12FBCF80912607853009F478
:1058A000C6CF0E94A40F0E94740B32CEC394FF0C8B
:1058B00096E0C91243CE0F5F1F4F0A30110509F061
:1058C00033CE8FEF8EA38FA318A60E940A1B816090
:1058D000782F9AA789A74EA15FA168A58AA50E94E3
:1058E000AD264DCE863059F4F0E0E354F44FE49108
:1058F0000E2F10E070EDC72E76E1D72E5ACE8930EC
:1059000061F4E695F0E0E654F44FE4910E2F10E0D8
:1059100060E2C62E64E1D62E4CCE8F3061F4E6955F
:10592000F0E0E954F44FE4910E2F10E05DE5C52E50
:1059300054E1D52E3ECE853159F4F0E0EC54F44FCD
:10594000E4910E2F10E046EFC42E44E1D42E31CE68
:1059500008E210E09DE7C92E95E1D92E883109F4BF
:1059600028CE833249F4E2EBFBE00591149133E653
:10597000C32E36E1D32E1DCE8432C9F000ED17E0E0
:10598000B4E2CB2EB9E0DB2E853209F012CE8E2F99
:1059900063E00E946D34E92FF0E0E155F44FE491AB
:1059A0000E2F10E022E4C22E23E1D22E02CE04EF0D
:1059B00011E08DE0C82E86E1D82EFBCD0E940A1B97
:1059C0009093FC068093FB0682EF94E09093D104C1
:1059D0008093D0040E94F716882309F4ADC060E0DC
:1059E00081E09CE00E94491960E08CEF9BE00E94FE
:1059F0008E1960E08BEF9BE00E948E198091CF049E
:105A000060E080FF66C087EF9BE00E948E1960E037
:105A100080EF9BE00E94491960E08AEE9BE00E94C3
:105A20008E1940913307509134076091350770917A
:105A30003607CB01AA27BB270097A105B10509F4BA
:105A40004BC0AC01BD0180E1052F162F272F332756
:105A5000011511052105310519F0885FB901A8016B
:105A60008A019B01E4E03695279517950795EA95FD
:105A7000D1F7011511052105310519F08C5FB90128
:105A8000A8018A019B0192E0369527951795079505
:105A90009A95D1F7011511052105310519F08E5F91
:105AA000B901A8017695679557954795452B462BE3
:105AB000472B09F08F5F8130B9F1882379F082306C
:105AC00079F18330A9F160E08DEC9BE00E948E19A2
:105AD0000AC083EF9BE099CF80E0B6CF60E084EE10
