:100000000C9427060C946E060C946E060C94792FB3
:100010000C946E060C946E060C946E060C946E0690
:100020000C946E060C946E060C94392C0C940F2DC7
:100030000C94DF180C946E060C946E060C946E06ED
:100040000C946E060C946E060C946E060C946E0660
:100050000C946E060C947B1A0C946E060C946E062F
:100060000C946E060C946E060C946E060C946E0640
:100070000C946E060C946E060C946E060C946E0630
:100080000C946E060C946E060C946E060C946E0620
:100090000C946E060C946E060C946E060C946E0610
:1000A0000C946E060C946E060C946E060501098085
:1000B000A101850319012AB700150126B700950192
:1000C00075108100C0050C0901A101850419012AE0
:1000D000A002150126A002950175108100C00660DE
:1000E000FF0961A1010962150026FF00952075082E
:1000F00081020963150026FF00952075089102C052
:1001000005010906A101050719E029E715002501E8
:10011000950875018102950175088101050719008F
:1001200029FF150026FF00950675088100050819AE
:10013000012905950575019102950175039101C08D
:1001400000AF0000000000003E5B4F5B3E003E6BD6
:100150004F6B3E001C3E7C3E1C00183C7E3C180051
:100160001C577D571C001C5E7F5E1C0000183C184D
:100170000000FFE7C3E7FF00001824180000FFE7B6
:10018000DBE7FF0030483A060E00262979292600D1
:10019000407F05050700407F05253F005A3CE73CAE
:1001A0005A007F3E1C1C0800081C1C3E7F001422C5
:1001B0007F2214005F5F005F5F0006097F017F0000
:1001C000006689956A0060606060600094A2FFA28A
:1001D000940008047E04080010207E201000080807
:1001E0002A1C0800081C2A0808001E101010100005
:1001F0000C1E0C1E0C0030383E383000060E3E0E31
:10020000060000000000000000005F000000000782
:1002100000070000147F147F1400242A7F2A120094
:100220002313086462003649562050000008070373
:100230000000001C224100000041221C00002A1C7A
:100240007F1C2A0008083E0808000080703000006B
:10025000080808080800000060600000201008047A
:1002600002003E5149453E0000427F400000724975
:10027000494946002141494D33001814127F1000AE
:100280002745454539003C4A49493100412111097A
:100290000700364949493600464949291E000000F1
:1002A0001400000000403400000000081422410047
:1002B00014141414140000412214080002015909F6
:1002C00006003E415D594E007C1211127C007F49B0
:1002D000494936003E41414122007F4141413E00B3
:1002E0007F49494941007F09090901003E414151C7
:1002F00073007F0808087F0000417F410000204014
:10030000413F01007F08142241007F4040404000EF
:100310007F021C027F007F0408107F003E414141A4
:100320003E007F09090906003E4151215E007F0918
:100330001929460026494949320003017F0103007B
:100340003F4040403F001F2040201F003F403840BA
:100350003F00631408146300030478040300615928
:10036000494D4300007F4141410002040810200034
:10037000004141417F00040201020400404040402E
:1003800040000003070800002054547840007F28F4
:1003900044443800384444442800384444287F000A
:1003A00038545454180000087E0902001824241CF4
:1003B00078007F080404780000447D40000020405D
:1003C000403D00007F102844000000417F400000B5
:1003D0007C04780478007C080404780038444444A1
:1003E00038007C1824241800182424187C007C0869
:1003F0000404080048545454240004043F442400D6
:100400003C4040207C001C2040201C003C403040F0
:100410003C004428102844004C9090907C00446498
:10042000544C4400000836410000000077000000F2
:100430000041360800000201020402003C26232687
:100440003C00000000000080808080000000000070
:1004500080E070180C1830E080000010F890103028
:10046000783010B8FC3810000000000000F8FCF8EC
:10047000000000000000000000000000001C9C1CA8
:1004800000000000F8FCF80000000000001CFCF870
:10049000C000000000000080E0F87C1C000000F0BC
:1004A000FCFCFC1C1C1C1C1C1C1C1C000000000078
:1004B00000C0F0F8381C1C1C1C1C1C3CF8F0E000B0
:1004C000E0F0F0F0E0ECEEF7F37020007C7C7C7E56
:1004D000007E7E7E7F7F7F000080C0E07E5B4F5B82
:1004E000FEC00000C000DCD7DEDEDED7DC00C000CE
:1004F00000000000000000000000000000000000FC
:10050000000000000000000FBCE081818183838235
:10051000870C183060C000001FFE90B9FFBB919897
:100520003C1811133F1100000000000000FFFFFF06
:1005300000000000000000000000000000FFFFFFBE
:1005400000000000FFFFFF000000000000000003AB
:100550000F7FF8E080F0FC3F0F0100000000003F3B
:100560003F3F1C1C1C1C1C3C78F8F0E08000000085
:1005700000C3E7FF7E3C3878787070F8FFDF8700B3
:100580000F1F3F7F7F7F7F7F3F1E0C001F1F1F3F7E
:10059000003F3F3F7F7F7F00307B7F7830202030DF
:1005A000787F3B0003000F7F0F0F0F7F0F000300CA
:1005B000000000000000000000000000000000003B
:1005C0000000183C24666341C18180808080808067
:1005D00081C14162386C4CC681818080808080817D
:1005E000C14362361C1800000000000000FFFFFF3E
:1005F000C0C0C0C0C0C0C0C0C0800000007FFF7FBE
:10060000000000007FFFFFC080000000E0E0C0C0ED
:10061000C0E0F97F1F07000000000000000000702C
:10062000F0E0E0C0C0C0C0E0F0F87F3F0F00000085
:100630000F3F7FF9E0E0C0C0C0C0C0E0F97F3F1FBE
:1006400000000000000000000000000000000000AA
:10065000000000000000000000000000000000009A
:10066000000000000000000000000000000000008A
:10067000000000000000000000000000000000007A
:10068000000009025B00030100A0FA090400000158
:100690000301010009211101000122400007058129
:1006A0000308000A090401000203000000092111E7
:1006B0000100012222000705820320000107050333
:1006C00003200001090402000103000000092111B8
:1006D0000100012232000705840320000A120110E4
:1006E0000100000008D8042DEB0001010200010EFA
:1006F000034C0069006C00790035003800000010E0
:10070000036C0069006C00690075006D00730000E7
:10071000000403090400DA0281FFD9F1DB20A4A65A
:100720002EAF00A0C000A1C800AED580A81FD30086
:10073000408D1420001E0F0500047F3F1F643214FB
:10074000643214783C1E1E140A05808182838485DD
:10075000868788898A8B8C8D8E8F9091929394A0B6
:10076000A1A2A3A4A5A6A7A8A9AAABACADAEAFB001
:10077000B1B2B3B4C0C1C2C3C4C5C6C7C8C9CACB6D
:10078000CCCDCECFD0D1D2D3D400556E64656669BE
:100790006E65640041646A757374004C6F776572AE
:1007A0000052616973650044656661756C74004C44
:1007B000617965723A200000AE0000000000000080
:1007C0000000000000000000000000000000000029
:1007D000000000000000000000000000007E0F008C
:1007E000D4FFFFFFC70000007800000000000000F9
:1007F000002A2B280000000000000000000000007C
:100800000000000029000000002C1E3420212224BA
:10081000342627252E362D3738271E1F2021222348
:100820002425263333362E37381F040506070809DA
:100830000A0B0C0D0E0F10111213141516171819A0
:100840001A1B1C1D2F3130232D35040506070809FE
:100850000A0B0C0D0E0F1011121314151617181980
:100860001A1B1C1D2F3130354C29001E001F002083
:1008700000210022002B0014001A000800150017A8
:1008800000E00004001600070009000A00E1001D56
:10089000001B0006001900050000000151E300E202
:1008A000002C002F003500270026002500240023FF
:1008B000002D00130012000C0018001C003400333F
:1008C000000F000E000D000B00E500380037003669
:1008D000001000110000000251E7002A002800303B
:1008E0000001000100010001000100010001001EE3
:1008F000021F0220022102220201001E001F00200E
:10090000002100220001000100010001000100019E
:1009100000000001000100010001000100010001D0
:10092000000100010001000100010027022602254C
:1009300002240223020100270026002500240023B0
:1009400000010030022F022E0235003102000001AA
:10095000000100010001000100010001000100018F
:1009600000010001003A003B003C003D003E003F1A
:10097000000100010001000100010001000100016F
:100980000001000100010001000000010001000160
:10099000000100010001000100010001000100014F
:1009A0000045004400430042004100400000004F69
:1009B0000052005100500000000100310030002FB3
:1009C000002E002E020000010001000100010001C4
:1009D00000005C00000000000000000000000000BB
:1009E000000000000000000000C25CC55CC75CC9DC
:1009F0005C00000000C35CC65CC85CCA5C00000010
:100A000000000001000100010001000000000000E2
:100A100000000000000000000000000000000000D6
:100A2000000000000000000000A900A800AA0000CB
:100A30000000000000AB00AE00AC000000000001B0
:100A40000001000100010000002223252628292A98
:100A50002C2D2F3032333536383A3B3D3E40424321
:100A60004547494A4C4E5051535557595A5C5E6060
:100A700062646668696B6D6F71737577797B7D7F72
:100A800081838587898A8C8E90929496989A9C9E71
:100A90009FA1A3A5A7A8AAACAEAFB1B3B4B6B8B98D
:100AA000BBBCBEBFC1C2C3C5C6C7C9CACBCCCDCEF5
:100AB000D0D1D2D2D3D4D5D6D7D7D8D9D9DADADBD8
:100AC000DBDBDCDCDCDCDCDDDDDDDDDCDCDCDCDC64
:100AD000DBDBDBDADAD9D9D8D7D7D6D5D4D3D2D2A3
:100AE000D1D0CECDCCCBCAC9C7C6C5C3C2C1BFBE8B
:100AF000BCBBB9B8B6B4B3B1AFAEACAAA8A7A5A3F6
:100B0000A19F9E9C9A98969492908E8C8A898785B4
:100B100083817F7D7B79777573716F6D6B69686693
:100B20006462605E5C5A5957555351504E4C4A4965
:100B300047454342403E3D3B3A3836353332302F0D
:100B40002D2C2A292826252322FFAA7F5540000183
:100B5000010101010101010102020202020202027D
:100B6000020303030303030303040404040404044F
:100B70000505050505060606060607070707070813
:100B8000080808090909090A0A0A0B0B0B0C0C0CC6
:100B90000D0D0D0E0E0E0F0F0F1010111111121260
:100BA00013131414151516161717181819191A1ADD
:100BB0001B1B1C1D1D1E1E1F20202122222324243E
:100BC000252626272829292A2B2C2D2D2E2F30317A
:100BD0003232333435363738393A3B3C3D3E3F408C
:100BE0004142434445464748494A4C4D4E4F505177
:100BF0005354555658595A5B5D5E5F616264656631
:100C000068696B6C6D6F7072737577787A7B7D7EB7
:100C10008082838587888A8C8E8F91939596989A07
:100C20009C9EA0A2A3A5A7A9ABADAFB1B3B5B7BA1F
:100C3000BCBEC0C2C4C6C9CBCDCFD1D4D6D8DBDDF3
:100C4000DFE2E4E7E9EBEEF0F3F5F8FAFDFF11245B
:100C50001FBECFEFDAE0DEBFCDBF04B603FE27C074
:100C60008091C5059091C605A091C705B091C805B2
:100C70008730904BA740B04BD1F41092C50510922D
:100C8000C6051092C7051092C80514BE84B7877FA9
:100C900084BF0FB6F894A895809160008861809316
:100CA0006000109260000FBEE0E0F8E3099512E0EA
:100CB000A0E0B1E0EAEBFAE602C005900D92A031A7
:100CC000B107D9F725E0A0E1B2E001C01D92A53C33
:100CD000B207E1F70E94A4240C9410350C94000094
:100CE0009091B50592FF06C0282F28712830F9F49D
:100CF000877F846093FF06C0282F28712831F1F484
:100D0000877E84612091B60520FF06C0382F387198
:100D10003830D9F4877F816021FF06C0282F2871E1
:100D20002831D1F4877E816194FD877E0895282F34
:100D300024712430F9F68B7F8860DCCF282F247152
:100D4000243101F78B7E8861DDCF382F317131304E
:100D500019F78E7F8860E0CF282F2171213121F78C
:100D60008E7E8861E1CFF894E82FE295EF70F0E095
:100D700041A18F7021E030E0B90102C0660F771FFA
:100D80008A95E2F7CB01962F9095942391A392A197
:100D9000892B82A378940895AF92BF92CF92DF926D
:100DA000EF92FF920F931F93CF93DF93082F162F8D
:100DB000E901473908F046E9E42FF0E0E25BF44F3F
:100DC000111111C0E4913E2F2E2F2983E8833A831D
:100DD000DF91CF911F910F91FF90EF90DF90CF9017
:100DE000BF90AF900895E12EF12C249146E0049F2E
:100DF00050011124CC24CA94D12CC501B6010E9403
:100E0000A130802F90E0880F991F35E5369FA00113
:100E1000379F500D1124841B950BF82FFF0FF80FEF
:100E2000A6014E195F09249FC001259F900D112432
:100E3000E92F1F9FA0011124452F5527D601A41B80
:100E4000B50B2A9FA0012B9F500D1124352F860131
:100E50000F1B11090E9DD0010F9DB00D1E9DB00DF1
:100E60001124AB2FBB27CA1ADB0A2C9DD0012D9D64
:100E7000B00D112463307105D1F0FCEFAF16F3E033
:100E8000BF0670F461307105B1F062307105B9F0E0
:100E90004FEFA416B10408F098CF392FEB2F95CF60
:100EA0006430710579F066307105B9F38ECFE52FA6
:100EB000322F292F8ACFE22F252F392F86CF3B2F94
:100EC000E22FF7CF322F2B2F80CF80919405982FD0
:100ED0009E7F61F481708260809394058091970574
:100EE000873918F086E98093970508958635B0F321
:100EF00081708465F1CF0895FA0181110994FB0195
:100F0000FDCFE0912003F0912103309721F0019073
:100F1000F081E02D099480E0089520911E03309126
:100F20001F032817390771F090931F0380931E0346
:100F3000E0912003F0912103309721F00680F781A2
:100F4000E02D0994089520911C0330911D0328176A
:100F5000390771F090931D0380931C03E0912003E7
:100F6000F0912103309721F00084F185E02D099460
:100F700008958091E5029091E402981301C00895CC
:100F80008F5F8770FACFE92FEE0FE90FEE0FE80FB2
:100F90008E2F877041E001C0440F8A95EAF7E695ED
:100FA000E695E69585E0E89FF0011124E258FD4FB3
:100FB00030E020E070E05191DF011197CB01022E6B
:100FC00002C0969587950A94E2F7817081958527EE
:100FD000842385278C932F5F3F4F2530310559F7A8
:100FE0000895E92FEE0FE90FEE0FE80F9E2F97708F
:100FF000E695E695E69585E0E89FF0011124E25834
:10100000FD4F50E040E080E0219130E0092E02C029
:10101000369527950A94E2F721703327042E01C0F4
:10102000220F0A94EAF7822B4F5F5F4F453051053C
:1010300059F70895E4E1F2E09191891303C0DF01CB
:1010400011971C9292E0EA31F907B1F70895809167
:10105000D90281111092D90208958091D8029091FD
:10106000E302892B9091A602892B80931202909122
:10107000D902992391F0892B8093120220E084E118
:1010800092E0FC013081019631112F5F32E08A310C
:101090009307B9F721110E942708E0912003F091EE
:1010A0002103309731F00280F381E02D82E192E05C
:1010B00009940895882361F19CEF980F913A20F4E8
:1010C0000E941A080C942D0890E2980F983088F42A
:1010D000877021E030E0A90102C0440F551F8A95B6
:1010E000E2F7CA0180959091D80289238093D802B3
:1010F000E9CF9BE5980F933020F490E080E00C94CA
:101100008D07885A873120F490E080E00C94A30783
:101110000895882339F09091D802892B8093D802C2
:101120000C942D080895882341F080959091D80261
:1011300089238093D8020C942D08089590E080E0D4
:101140000E948D0790E080E00E94A3071092E302C6
:101150001092A6020C942D086093DA027093DB02C1
:101160008093DC029093DD020C949E08462F572F4B
:10117000BC01DC01CA0186709927AA27BB27069704
:10118000A105B10559F448604093DE025093DF0297
:101190006093E0027093E1020C949E08477FF4CFC5
:1011A0000F931F93CF93DF9300D000D0CDB7DEB75E
:1011B00041E050E060E070E004C0440F551F661F3E
:1011C000771F8A95D2F78091DE029091DF02A0917D
:1011D000E002B091E1028A019B01082B192B2A2B16
:1011E0003B2B09831A832B833C83C901B8010F90E1
:1011F0000F900F900F90DF91CF911F910F910C9452
:10120000B6080F931F93CF93DF9300D000D0CDB7D4
:10121000DEB741E050E060E070E004C0440F551FCD
:10122000661F771F8A95D2F7409550956095709507
:101230008091DE029091DF02A091E002B091E10284
:101240008A019B01082319232A233B2309831A833C
:101250002B833C83C901B8010F900F900F900F9022
:10126000DF91CF911F910F910C94B6089091E202FB
:10127000809589238093E202282F277039F4282F44
:10128000082E000C330B9217130621F49091B6052B
:1012900092FF07C08595859585950E94010910925A
:1012A000E202089580E008959C01FC0132968FEFE0
:1012B00090E04191461751F08F3F19F4411101C060
:1012C000892F9F5F9630A9F78F3F09F40895280F63
:1012D000311D87FD3A95F90162830895CF93C82F98
:1012E000882309F445C08CEF8C0F813A88F4E4E13F
:1012F000F2E08191C817B1F122E0EA31F207C9F7B3
:101300006C2F82E192E00E945409CF910C942D0839
:1013100080E28C0F883068F4C77021E030E001C0B3
:10132000220FCA95EAF78091D802822B8093D802C7
:10133000ECCF8BE58C0F833038F42C2F2452330BF9
:10134000C901CF910C948D07C85AC73188F4EC2F8E
:10135000F0E0EE0FFF1FEE51FE4F80819181CF91A3
:101360000C94A3078C2F0E941A080E942D08C8CF46
:10137000CF910895CF93DF9300D000D0CDB7DEB7E3
:101380008FB7F8942091790230917A0240917B02D4
:1013900050917C0229833A834B835C838FBF6981A0
:1013A0007A818B819C810F900F900F900F90DF912D
:1013B000CF9108950C94BA099C014FB7F89480918D
:1013C000790290917A02A0917B02B0917C024FBF8A
:1013D000821B930B089587E797E79093010880930A
:1013E000000888E19AE00FB6F894A8958093600011
:1013F0000FBE90936000FFCF80917402089508950E
:10140000FC01CB0120912C0230912D0226173707C9
:1014100090F0009729F42091E8002E772093E800BF
:1014200040E0009751F4411108C08091E80082FF2C
:1014300031C080E00895C901F3CF2091990522239E
:10144000A9F12530A9F12091E80023FD2DC02091BC
:10145000E80022FDEACF2091E80020FFE2CF3091A2
:10146000F3002091F200009719F02830310558F070
:1014700041E02830310509F040E02091E8002E7766
:101480002093E800CECF41914093F10001972F5F68
:101490003F4FE9CF80919905882341F0853041F095
:1014A0008091E80083FFC1CF81E0089582E0089534
:1014B00083E008958091260287FF13C08091E800A1
:1014C00082FF06C08091E8008B778093E80004C01B
:1014D000809199058111F2CF089580919905882313
:1014E000D9F38091E80080FFF8CF8091E8008E77F3
:1014F000ECCF2091E4003091E50095E6A901209120
:10150000EC00822F817020FF06C08091E80080FFF0
:1015100006C080E008952091E80022FD1AC0809165
:101520009905882389F0853089F08091EB0085FD4D
:101530000FC02091E4003091E50042175307F9F203
:101540009150E1F684E0089582E0089583E00895E3
:1015500081E00895E8EDF0E080818E7F8083109235
:10156000E2001092DA001092E100A0EEB0E08C915F
:1015700081608C9380818F77808319BCA7EDB0E068
:101580008C918E7F8C9380818F7E80831092250238
:101590000895EF92FF920F931F93CF937C018B01DD
:1015A0000E94790AC82F811117C08091E80085FD3B
:1015B0000BC08091E8008E778093E8000E94790A42
:1015C000882399F3C82F08C0F70181917F01809388
:1015D000F1000150110949F78C2FCF911F910F9104
:1015E000FF90EF900895CF93DF9300D000D0CDB758
:1015F000DEB78091DE029091DF02A091E002B0910F
:10160000E102AC01BD0146705527662777279C0192
:10161000463051056105710591F4AD0128602983BB
:101620003A834B835C8369817A818B819C810F90A3
:101630000F900F900F90DF91CF910C94B608AD01F1
:10164000277FEDCF982F9093E900242F762F50E03D
:10165000891731F07091EC002091ED005091F0006D
:1016600021FD06C09F5F973071F78093E9000895D0
:101670003091EB003E7F3093EB003091ED003D7FE9
:101680003093ED003091EB0031603093EB007093BC
:10169000EC002093ED005093F0002091EE0027FD28
:1016A000E1CF0895CF92DF92EF92FF920F931F93B5
:1016B000CF93DF93C8EDD0E088818F7E8883E7EDFC
:1016C000F0E080818160808384E082BF81E080934C
:1016D000250288818E7F888302EE10E0F801108257
:1016E0001092DA0081EEC82ED12CF601108288818A
:1016F0008F77888388818068888388818F7D8883BD
:1017000019BC109299051092240210926B0210924B
:10171000230290EEE92EF12CF70180818B7F8083EC
:1017200088818160888342E060E080E00E94220B33
:10173000F60180818E7F8083F801808181608083C3
:10174000808188608083F70180818E7F808388819B
:1017500080618883DF91CF911F910F91FF90EF906F
:10176000DF90CF90089580919A05811110C08091EB
:10177000D80080618093D8008AE18A95F1F700C093
:101780008091D90080FF0AC081E080939A0581E0B2
:1017900090919A05913009F080E0089582E080935D
:1017A0009A050E94AA0A10929905F1CF809194059A
:1017B00080FD0AC0E8E6F5E01182108212823396BD
:1017C00055E0EC38F507C1F7539A3BB1377F2BB1A1
:1017D00028604FB7F89488E695E0FC0101965081A7
:1017E00068E02BB9000000C057FF3BB9550F00005F
:1017F00000C000C000C03BB900C06A9591F755E039
:101800008C38950751F74FBF8FE594E00197F1F7BA
:1018100000C0000008959091940590FF0CC0E8E688
:10182000F5E0818360834283339695E0EC38F907D5
:10183000C1F70C94D60B0895CF93DF9300D00F928D
:10184000CDB7DEB79091940590FF0FC09E012F5F3A
:101850003F4F0E94CC064B8169818A810F900F9087
:101860000F90DF91CF910C940B0C0F900F900F9075
:10187000DF91CF910895CF93DF93EC01EC81F0E0FD
:10188000E75BF54F4491E4E9F5E0628181810E94D4
:101890001C0C8C818F5F8C83DF91CF910895CF9347
:1018A000DF93EC01E4E9F5E0438162818C810E94E1
:1018B0001C0C8C818F5F8C83DF91CF9108950F93E7
:1018C0001F93CF93DF9300D00F92CDB7DEB78C017B
:1018D0008091650581110AC09E012F5F3F4F46E947
:1018E0006FEF0E94CC068A8180936505F8016481C0
:1018F000613049F06230F1F08091650540E0662387
:1019000031F040E019C06091650540E080E00E9440
:101910000B0CF801848190E0019663E070E00E9476
:10192000B53084830F900F900F90DF91CF911F916E
:101930000F9108954091650580E060E0E8CFEF9257
:10194000FF921F93CF93DF93EC0188E6E82E85E0AA
:10195000F82E10E08C8197014091970560919605D3
:10196000810F0E94CC061B5E83E0E80EF11C1C3F39
:1019700089F70E94D60B9A818C8190FF08C08F5FF7
:101980008C83DF91CF911F91FF90EF90089581504C
:10199000F7CFCF92DF92EF92FF920F931F93CF93E7
:1019A000DF93FC018281DD24DA9480FD02C0DD2416
:1019B000D39408E615E0D0E0C0E0F801118210826F
:1019C000128294E0E92EF12CC12C809167058C0DD8
:1019D0008D30E4F16CE00E949330892F082E000CCA
:1019E000990B8C179D0791F4809197058E9DA0010E
:1019F0008F9D500D11245595479555954795980104
:101A000060919605809195050E94CC06CD0CF1E081
:101A1000EF1AF108D1F621960D5F1F4FCC30D1059A
:101A200061F60E94D60B8091670591E0D91212C031
:101A30008823B1F0815080936705DF91CF911F918A
:101A40000F91FF90EF90DF90CF90089587FFC6CF62
:101A5000845FC4CF90E00196BE010E94B530EBCF09
:101A60008BE0E9CF0F931F93CF93DF93C8E6D5E0C8
:101A7000FE01118210821282339685E0EC38F8075D
:101A8000C1F710E000E080916605082E000C990B6C
:101A9000081719078CF180911B01082E000C990B77
:101AA000801791074CF19E01409197056091960532
:101AB000809195050E94CC060F5F1F4F23960C3036
:101AC000110509F70E94D60B80911A0190916605C5
:101AD000980F9093660520911B01280F20931B01FE
:101AE000121614F49B301CF0819580931A01DF913B
:101AF000CF911F910F910895198218821A82DCCF1D
:101B0000CF92DF92EF92FF920F931F93CF93DF93C9
:101B1000CDB7DEB72E970FB6F894DEBF0FBECDBFA0
:101B20008D879E87AD85BE8514961C91212F30E050
:101B3000D9010E9401359B01AC010E94CC3469831C
:101B40007A838B839C83E0E2F0E0E11BF109A5E559
:101B5000B0E09B01AC010E94CC3469877A878B8707
:101B60009C879F01DF010E94D6309B01AC010E943F
:101B7000D7346D837E838F8398879B01AC018981E5
:101B80009A81AB81BC81280F391F4A1F5B1F698571
:101B90007A858B859C850E94DF34F22E422F50E09F
:101BA00099E29F1508F442C0A3E02A9F90011124F6
:101BB00035952795122F109598E6C92E95E0D92EC8
:101BC00000E085E5E82EEF188E2D01FD8F2D9601A2
:101BD000412F609196050E94CC060F5FB3E0CB0EBB
:101BE000D11C0C3089F70E94D60BED85FE859481BF
:101BF00081E0992319F0903219F48FEF8093190145
:101C000080911901890FAD85BE8514968C932E960F
:101C10000FB6F894DEBF0FBECDBFDF91CF911F91FD
:101C20000F91FF90EF90DF90CF90089585E590E0C1
:101C3000841B950B9C01220F331F280F391F37FF80
:101C4000B7CF2F5F3F4FB4CFEF92FF920F931F9309
:101C5000CF93DF93EC0108E615E0F12CE12C9C8199
:101C6000609196058091950526E0E216F104FCF45A
:101C70009923F9F09801409197050E94CC068FEFC7
:101C8000E81AF80A0D5F1F4F2CE0E216F10439F74D
:101C90000E94D60B8C8190E00196817099278C83ED
:101CA000DF91CF911F910F91FF90EF9008959923AD
:101CB00009F3980140E0E1CF0F931F93CF93C82F12
:101CC00010E000E0893311F400E510E08C2F0E9451
:101CD0006E090115110531F48C2FCF911F910F91D1
:101CE0000C945A088FE99FE00197F1F700C00000BB
:101CF00001501109EECF813001F58091DE02909103
:101D0000DF02A091E002B091E1020097A105B105C8
:101D100079F032E0B695A795979587953A95D1F7E2
:101D2000817031F08BEA611101C08CEA0C945C0E79
:101D300089EA6111FBCF8AEAF9CF81111CC0809139
:101D4000DE029091DF02A091E002B091E1020097E3
:101D5000A105B10559F0B695A7959795879581701E
:101D600029F08FE46111E2CF80E5E0CF81E56111D8
:101D7000DDCF82E5DBCF0895CF93DF93D82FC92F36
:101D800081E08093E9008FEF9091E800815095FD0C
:101D900006C095ED9A95F1F700008111F5CF80917D
:101DA000E80085FF16C050E040E068E070E08D2F4D
:101DB0009C2F0E94C90A8091E8008E778093E800EA
:101DC00088E0ED2FFC2FACE6B2E001900D928A95F1
:101DD000E1F7DF91CF910895CF93DF9300D00F9279
:101DE000CDB7DEB790919905943011F589836A8358
:101DF0007B839093E9008FEF9091E800815095FDEF
:101E000006C095ED9A95F1F700008111F5CF80910C
:101E1000E80085FF0DC050E040E063E070E0CE01D7
:101E200001960E94C90A8091E8008E778093E800AD
:101E30000F900F900F90DF91CF910895BC0183E038
:101E40000C94EC0EBC0184E00C94EC0E0F931F93E9
:101E5000CF93DF938B01D82FC92F0E946507A8016C
:101E60006D2F7C2F88E090E0DF91CF911F910F9133
:101E70000C948B34E4E9F5E08DE0808311828FEFE0
:101E8000828386E9838314826DE070E08FEF96E9A8
:101E90000C94260FCF93DF9300D000D0CDB7DEB7E0
:101EA00080919805833018F48F5F80939805809116
:101EB000940590919505A0919605B0919705898319
:101EC0009A83AB83BC83BC01CD010F900F900F9020
:101ED0000F90DF91CF910C94260FCF93DF9300D01A
:101EE00000D0CDB7DEB780919805882319F08150D6
:101EF000809398058091940590919505A091960501
:101F0000B091970589839A83AB83BC83BC01CD01D3
:101F10000F900F900F900F90DF91CF910C94260FA0
:101F20005F926F927F928F929F92AF92BF92CF9269
:101F3000DF92EF92FF920F931F93CF93DF9300D026
:101F400000D000D00F92CDB7DEB7182F762E042F19
:101F5000622E9091940590FF83C0E92FE695AE2FF5
:101F6000B0E0A955BE4F8C9180938C059E7F923036
:101F7000C9F59E012F5F3F4F812F0E94CC064B81F8
:101F800069818A810E940B0C1093950570929605C9
:101F900000939705662009F463C0809194059091A1
:101FA0009505A0919605B09197058C839D83AE838E
:101FB000BF83BC01CD0127960FB6F894DEBF0FBEDC
:101FC000CDBFDF91CF911F910F91FF90EF90DF90E8
:101FD000CF90BF90AF909F908F907F906F905F90C9
:101FE0000C94260F823019F400919705CDCF8630DE
:101FF00019F410919505C8CF8930D9F3893121F6AC
:10200000E9518E2F8170582EE695F0E0E75BF44F92
:10201000A590B490BB2488E6E82E85E0F82ED12C5C
:10202000C12C9CE0892E912CC601B4010E94A130E4
:10203000812F511013C0860F9701402F672D0E94EA
:10204000CC06CA0CDB1C93E0E90EF11CACE8EA16E6
:10205000A5E0FA0649F70E94D60B96CF861BECCF77
:1020600027960FB6F894DEBF0FBECDBFDF91CF919C
:102070001F910F91FF90EF90DF90CF90BF90AF90A6
:102080009F908F907F906F905F900895E4E9F5E0C6
:10209000818121E043816281885F0C94900FE4E9A3
:1020A000F5E0818121E04381628188500C94900F9A
:1020B000E4E9F5E0628121E1620F08F46FEF21E0CD
:1020C000438181810C94900FE4E9F5E0628121E184
:1020D000621B08F460E021E0438181810C94900F41
:1020E000E4E9F5E0438121E1420F08F44FEF21E0FC
:1020F000628181810C94900FE4E9F5E0438121E154
:10210000421B08F440E021E0628181810C94900F31
:102110004F925F926F927F928F929F92AF92BF92F7
:10212000CF92DF92EF92FF920F931F93CF93DF93A3
:10213000FC016280448081E08483E9E4FAE07490E9
:10214000E8ECFAE0E491C9E2D5E098E6E92E95E002
:10215000F92E25E6C22E25E0D22E32E0A32EBB2496
:10216000B39488248A94912C55245A94E7190E2FFD
:1021700010E082E0861530F080919505888380918B
:1021800096058983411021C01B821A8297014A81DA
:10219000698188810E94CC06259683E0E80EF11CB7
:1021A000CC16DD0631F7DF91CF911F910F91FF9093
:1021B000EF90DF90CF90BF90AF909F908F907F90E7
:1021C0006F905F904F900C94D60B8B818823E9F031
:1021D00081508B83859DC00111246C8170E00E9429
:1021E000A130FB01FF27E75BF54F8491E82FE7194A
:1021F000E59DC0011124B8010E94A130809197058E
:10220000689FB00111247A83C1CF0E948431AC0150
:1022100090919705969591589A9D90019B9D300DB0
:102220001124232F3327421753070CF0AFCF82E03E
:10223000861588F40E948431B4010E94B5308883E9
:102240000E948431209196052695622F70E00E94AD
:10225000B530280F29831A8280919705893C20F098
:1022600088EC8C838B8392CF8431D8F784E1F9CFCB
:102270000F931F93CF93DF93C42FD0E0CC0FDD1FBC
:102280002CE0629FC00DD11D112438E7839FC00D43
:10229000D11D1124CE0187960E946534082F10E0CD
:1022A000102F0027CE0188960E9465349801282BB4
:1022B000C901DF91CF911F910F910895462F672F8C
:1022C000843030F47A3020F4463010F40C94381115
:1022D00090E080E00895CF93DF930E945E11EC01BF
:1022E000803E910509F45EC048F58133910509F4FB
:1022F000A1C088F48932910509F495C08A9709F440
:10230000A0C0C130D10529F1CE010497813A9105D1
:1023100008F054C01EC089339105E9F18238910557
:10232000D1F1C59709F478C0C83AD10508F090C03A
:10233000C53AD10530F3A497D0640BC0843E910513
:1023400009F44FC050F4823E9105D9F1833E9105C6
:10235000E9F1CE01DF91CF910895863E910509F410
:102360004BC0873E910509F44CC0811523E59207C7
:1023700008F08BC0811532E5930708F0FDC0C11548
:1023800080E5D80708F077C0C11520E4D20760F2D5
:10239000DF70D06ADECF8091B5058370D1F2C0EED8
:1023A000D0E0D7CF8091B50580FD11C19091B605E1
:1023B00090FFCFCFC3EED0E084FFCBCFD0E0C0E022
:1023C000C8CF8091B50582FDF5CFC3CF8091B5050B
:1023D00082FD00C19091B60590FDE1CF84FFB9CF99
:1023E000EDCF8091B60581FFB4CF8091B505C7EEE2
:1023F000D0E084FDE3CFADCF8091B50583FDF7CF6D
:10240000A8CF8091B50583FDE8C09091B60591FFF6
:10241000E5CFC4EED0E09DCF8091B50585FF99CF83
:10242000C9E2D0E096CF8091B50585FF92CFC5E394
:10243000D0E08FCF8091B50586FF8BCFCAE2D0E088
:1024400088CF8091B50586FF84CFC1E3D0E081CFEE
:10245000CF3BD10508F468C0C83ED10528F4C03E82
:10246000D10508F4ABCF75CFCE019A9581159F4168
:1024700008F0A4CF6ECFC11581E5D80708F45FC07E
:10248000DC2FCC27C16FD06A64CF811529E5920774
:10249000A0F5811538E5930708F086C0C11585E5DC
:1024A000D807C8F4C11524E5D20708F078C09E010A
:1024B0002370332781E090E002C0880F991F2A958E
:1024C000E2F7C695C69530E2C39FE0011124C82B00
:1024D000D92BDA683ECFCE0195558F3F910511F08B
:1024E00008F06CCF8C2F0E947006C82FD0E0DC2F34
:1024F000CC27CC27DF71D0622CCFC1158AE5D80755
:1025000008F457C0CE0190568115904208F056CF7E
:102510008D2F8F710E94700690E0982F8827882752
:102520009F718C2BEC01E7CFC85AD0E0CC0FDD1F98
:10253000CE51DE4F0990D881C02DD4640ACF9E01C0
:1025400074E0369527957A95E1F723708C2F869560
:102550008695837030E2839FC0011124922BC37053
:1025600021E030E002C0220F331FCA95E2F7822B30
:10257000932BEC01DC68EDCE9C012370332781E0C6
:1025800090E002C0880F991F2A95E2F7C695C6957C
:1025900020E2C29FE0011124C82BD92BEBCFDC2F06
:1025A000CC27C46FD06AD5CED82FCC27C06FD06AC5
:1025B000D0CE8C2F8F700E94700634E0D695C795D0
:1025C0003A95E1F7CF709C2FEC01D069C2CEC9E3F8
:1025D000D0E0BFCEC2EED0E0BCCEC6EED0E0B9CEE9
:1025E000BF92CF92DF92EF92FF920F931F93CF9300
:1025F000DF938C01C090DE02D090DF02E090E00219
:10260000F090E1028091DA029091DB02A091DC026D
:10261000B091DD02C82AD92AEA2AFB2ACFE1D0E00C
:10262000BC2ED701C6010C2E04C0B695A795979570
:1026300087950A94D2F780FD0EC0219788F7B12CB8
:102640008B2DDF91CF911F910F91FF90EF90DF9035
:10265000CF90BF900895B8018C2F0E946B11019705
:1026600061F3EECF0F931F93CF93FC018281008122
:102670001181882389F0662379F0C8010E94F01245
:10268000C82F682FC8010E94C307B8018C2FCF91B3
:102690001F910F910C945E11C8010E94F107C82F81
:1026A000F4CFCF93DF93D82FC92F0E94F0126D2F54
:1026B0007C2FDF91CF910C946B110E945113282F26
:1026C000892F8F70392F32953F70903C80F43A30CB
:1026D000B0F4343020F4323090F480E00895363095
:1026E000E1F781E0283E88F0213FB9F70EC03C3089
:1026F00011F03F3091F7869586958695089581E093
:10270000203F39F018F4283E40F70895243F29F778
:10271000FCCF0895CF9384E090E00E946534C82FE9
:1027200082E290E00E946534982F8C2FCF9108951B
:102730004F925F926F927F928F929F92AF92BF92D1
:10274000CF92DF92EF92FF920F931F93CF93DF937D
:1027500010E000E038E7632E712CE801CC0FDD1F9C
:1027600058011CC0F60185909490692DC7010E9404
:102770007934682DC70101960E94793422E0C20E97
:10278000D11C32E0E30EF11C4E145F0459F72C9675
:1027900086E0A80EB11CC615D70581F0C501880FCB
:1027A000991F9C012759374F69017E0137E2E30EDB
:1027B000F11C2E0183E3480E511CD4CF3E0128E7C3
:1027C000620E711C045C1F4F003F110531F6DF9152
:1027D000CF911F910F91FF90EF90DF90CF90BF901E
:1027E000AF909F908F907F906F905F904F900895E3
:1027F000CF93DF93C7E0D2E060E0CE010E9479344E
:102800002196C11584E0D807B9F7DF91CF910895DB
:10281000CF93C091B605C2FB992790F9981781F024
:1028200080FBC2F9C093B6056091B50584E090E0E5
:102830000E9479346C2F82E290E0CF910C9479342D
:10284000CF9108951092D802E4E1F2E086E0DF0132
:102850001D928A95E9F70C949E081F93CF93DF93FE
:10286000CDB7DEB7AA970FB6F894DEBF0FBECDBFC7
:1028700086E292E0FC0101962091F100208322E0A3
:102880008E329207B9F780912702893009F456C039
:10289000C8F4823009F4B2C0833009F481C08130B9
:1028A00071F18091E80083FF81C2809126029091AE
:1028B00027029A3008F07AC2E92FF0E0EE5EFA4C77
:1028C0000C94C9308A3009F488C08B3051F780915C
:1028D0002602813231F780912A0290912B02892BB6
:1028E00001F78091E800877F8093E8000E945A0AF0
:1028F00080912802809318010E942214D2CF8091E7
:102900002602813A71F68091E800877F8093E80083
:1029100080912A0290912B02892B61F468E08CE669
:1029200092E070E00E94000A8091E8008B7780932B
:10293000E800B7CF60E090E080E0F3CF809126021E
:10294000813209F0AECF80912A0290912B028D7FC7
:10295000892B09F0A6CF8091E800877F8093E8005B
:102960008091E80082FF17C09091F3008091F200FF
:10297000029729F48091F1008B7F813021F48091BE
:10298000F100809374028091E8008B778093E800D7
:102990000E945A0A86CF809199058111E1CF81CF9B
:1029A00080912602813A09F07CCF80912A02909191
:1029B0002B02892B09F075CF8091E800877F8093E7
:1029C000E8008091E80080FFFCCF8091180180939F
:1029D000F1008091E8008E77D9CF80912602813274
:1029E00009F05FCF8091E800877F8093E8000E9424
:1029F0005A0A809129028093220253CF80912602A5
:102A0000813A09F04ECF8091E800877F8093E800FB
:102A10008091E80080FFFCCF80912202D8CF8038DF
:102A200099F0823809F0C2C180912A028F708730F4
:102A300008F0BCC18093E9008091EB0085FB8827FA
:102A400080F91092E90006C08091230290916B02F8
:102A5000911182609091E800977F9093E8008093B5
:102A6000F1001092F1008091E8008E779BC18823DD
:102A700009F489C1823009F099C18091280281113D
:102A80008CC180912A028F702FEF280F263008F01A
:102A90008DC18093E9002091EB0020FF7EC193302F
:102AA00031F48091EB0080628093EB0076C19091CD
:102AB000EB0090619093EB0021E030E001C0220F29
:102AC0008A95EAF72093EA001092EA008091EB00E1
:102AD0008860EACF81116AC1109128021F77809126
:102AE000E3008078812B8093E3008091E800877F6A
:102AF0008093E8000E945A0A8091E80080FFFCCF92
:102B00008091E30080688093E30082E0111183E00C
:102B1000809399054BC18058823008F047C140919D
:102B20002802509129024C3D83E0580799F583E033
:102B30008A838AE289834FB7F894DE01139620E0F6
:102B40003EE051E2E32FF0E050935700849120FFE4
:102B500003C082958F703F5F8F708A30C8F0895CA8
:102B600090E08D939D932F5F243161F74FBF80914B
:102B7000E800877F8093E8006AE270E0CE0101966A
:102B80000E94000A8091E8008B778093E8000EC1D4
:102B9000805DE6CF80912A0290912B02252F33276A
:102BA0002330310509F44AC078F52130310509F4A4
:102BB00079C08BE590E0E2E8F6E02230310509F0DB
:102BC000F5C02091E800277F2093E80020912C0297
:102BD00030912D028217930708F49C0140E02115E3
:102BE000310509F064C0411162C08091E80082FDA6
:102BF000C9CF80919905882329F2853019F28091F7
:102C0000E80083FFF2CFBECF2132310509F43BC08B
:102C10002232310509F0CAC08330910508F0C6C0E0
:102C2000FC01EE0FFF1FE95BFE4F0190F081E02DEC
:102C30008C5B9E4FDC018C9190E011C0CA019927FA
:102C4000413089F082309105B1F0892B09F0AEC096
:102C5000E1E1F7E0E4918E2F90E0E1E1F7E0009709
:102C600009F4A4C0AECFEFEFF6E0E4918E2F90E030
:102C7000EFEFF6E0F4CFEFEEF6E0E4918E2F90E088
:102C8000EFEEF6E0ECCF8330910508F08FC0880FAF
:102C9000991FFC01E35BFE4F0190F081E02D89E07C
:102CA00090E08FCF82E190E0EDEDF6E08ACF809169
:102CB0009905882309F466CF853009F463CF8091A4
:102CC000E80083FD5FCF8091E80082FD8ECF809188
:102CD000E80080FF84CF9091F3008091F2002115ED
:102CE000310519F08830910550F041E0089709F05E
:102CF00040E08091E8008E778093E80070CF4491A7
:102D00004093F1003196215031090196E8CF803887
:102D100009F04CC08091E800877F8093E8008091A3
:102D200024028093F1009FCE811140C010912802AF
:102D30001230E0F58091E800877F8093E8001093DF
:102D400024020E945A0A112311F084E005C08091E8
:102D5000E30087FDFACF81E08093990542E061ECC2
:102D600081E00E94220B42E261EC84E00E94220B8F
:102D700042E261EC82E00E94220B42E260EC83E0DE
:102D80000E94220B13C080912802813079F481E0E7
:102D9000933009F080E080936B021092E9008091FB
:102DA000E800877F8093E8000E945A0A8091E8003B
:102DB00083FF0AC08091E800877F8093E8008091BC
:102DC000EB0080628093EB00AA960FB6F894DEBF0A
:102DD0000FBECDBFDF91CF911F9108956AEE7EEFB8
:102DE00090E080E00E94973460E082E090E00E94F2
:102DF000793460E083E090E00E9479341092DA0246
:102E00001092DB021092DC021092DD0260E084E09E
:102E100090E00E94793460E082E290E00E94793490
:102E200060E085E090E00E94793460E086E090E028
:102E30000E9479346FEF87E090E00E94793440E09F
:102E400050E0BA0188E090E00E948B3460E08DE0B1
:102E500090E00E94793440E050E0BA0188E190E0CF
:102E60000E948B3460E087E190E00E94793440E07A
:102E700050E0BA018CE190E00E948B3470E060E099
:102E800080E290E00E94973440E050E0BA0188E18F
:102E900090E00E948B3440E050E0BA018FE090E077
:102EA0000E948B3440E050E0BA0183E190E00C9442
:102EB0008B34CF92DF92EF92FF920F931F93CF93B9
:102EC000DF936C017B0164E670E088E70E94D62DF9
:102ED000EC018601EC0CFD1C97FD0EC0F8018491FD
:102EE00064E670E00E94322EEC01892B29F40F5F1A
:102EF0001F4FE016F10691F70E94BF2ECE01DF9121
:102F0000CF911F910F91FF90EF90DF90CF90089598
:102F1000CF93DF9300D000D0CDB7DEB780915E02B3
:102F20008823F9F00E94BA09DC01CB01805A95414F
:102F3000AF4FBF4F8093570290935802A09359020E
:102F4000B0935A0280915B0281110BC062E070E085
:102F500080E491E00E945917892B19F481E0809355
:102F60005B020F900F900F900F90DF91CF9108951B
:102F7000CF93DF93682F81E06A3019F06D3029F428
:102F800080E0DF91CF910C943918809123059091C6
:102F9000240526E0FC01ACE1B2E001900D922A95F7
:102FA000E1F7603E08F45AC026E0FC0111922A9530
:102FB000E9F7C0912305D091240546E050E0BE0119
:102FC0008CE192E00E94AA319E0123523340892B6A
:102FD00041F1C90145E0969587954A95E1F741E0B1
:102FE00050E0BA0102C0660F771F8A95E2F7CB0165
:102FF0006091550270915602862B972BB9016B5F39
:103000007F4FE5E076956795EA95E1F702C0440FBA
:10301000551F6A95E2F7842B952B90935602809367
:1030200055022A5F3F4F40912203642F70E0C9018F
:103030000E94A130481B463010F4240F311D211589
:1030400072E0370710F030E020E02D5D3C4F309308
:10305000240520932305DF91CF910895F6E06F9F1B
:10306000B00111246E5B7E4F46E050E00E94943127
:10307000A0CFCF93E82F2091230530912405235230
:10308000334040912203642F70E0C9010E94A130B7
:10309000481B842FEE2361F066E00E948730C82F22
:1030A000C15010F4CF91089580E20E94B817F8CF74
:1030B000A901480F511D4115524018F080E030E041
:1030C00020E0280F311D2D5D3C4F309324052093C7
:1030D0002305E8CF0F931F93CF93DF93EC01FC01FF
:1030E00001900020E9F78F0101501109C017D107A5
:1030F00038F081E0DF91CF911F910F910C94391836
:1031000089910E94B817F2CFCF93DF93EC01FE01B3
:103110008491811103C0DF91CF9108950E94B81767
:103120002196F5CF0E94841881E00C943918E09123
:103130002805F0E0EA5DFA4F2081FC012083089524
:10314000FF920F931F93CF93DF93D09125050D2FFF
:1031500010E00A5D1A4FFC01C081F8018081C81B94
:10316000FC2E80E01F147CF09C2FC7FD90E0C91B53
:10317000C11114C08823E9F0DF91CF911F910F9105
:10318000FF900C94DA09FA94F80180818F5F8083B4
:1031900061E08D2F0E947B0E81E0E4CFCF5FF801CC
:1031A00080818150808360E08D2F0E947B0E81E0C2
:1031B000DFCFDF91CF911F910F91FF9008951F9264
:1031C0001FB61F9211248F939F93AF93BF9380914B
:1031D0007D02811113C08091790290917A02A091B1
:1031E0007B02B0917C024196A11DB11D80937902B2
:1031F00090937A02A0937B02B0937C02BF91AF912F
:103200009F918F911F901FBE1F9018952FB7F89414
:103210008091790290917A02A0917B02B0917C0218
:103220002FBF0895AF92BF92CF92DF92EF92FF929D
:103230000F931F93CF93DF9300D000D00F92CDB7A1
:10324000DEB782EDE82E81E0F82E9BEAA92E95E00C
:10325000B92E00E0CC24C394D12CD7018D917D01EF
:10326000F894E82FE295EF70F0E021A18F70A601AD
:1032700002C0440F551F8A95E2F7CA01922F982B7E
:1032800091A392A18095892382A3789400C0ECED4C
:10329000F1E030E020E010E04191A42FA295AF7062
:1032A000A05EB0E08C9190E04F7002C0959587953C
:1032B0004A95E2F780FD47C08C2D022E01C0880F91
:1032C0000A94EAF7182B2F5F3F4F2630310521F77C
:1032D000F701319780810E94B30650EA5A95F1F7C1
:1032E000D5018D915D01181781F1FD013197108392
:1032F00081E0082BB7EDEB16B1E0FB0609F0ADCF8E
:103300001091AA05002319F181E080939D050E9488
:10331000061990939C0580939B0580919B05909145
:103320009C050E94DC090697B0F0A12FB0E0A056E2
:10333000BA4F85E0EBEAF5E001900D928A95E1F74E
:1033400010929D0508C080E0BDCF80E0D2CF809173
:103350009D058111E2CF0E94B30B182F6091AA0541
:10336000882309F459C01A821982FE01339683E03A
:10337000DF011D928A95E9F7862F90E0BE016F5F0D
:103380007F4F80569A4F0E94642D811125C08091F5
:103390009F058F5F80939F058630E0F1E0919E0549
:1033A000F0E0E056FA4F85E0DF011D928A95E9F7DB
:1033B000011101C0012F802F0F900F900F900F90DF
:1033C0000F90DF91CF911F910F91FF90EF90DF90C1
:1033D000CF90BF90AF90089510929F05E0919E0509
:1033E000F0E0BF0160567A4FDE0111969E012A5F20
:1033F0003F4F10E0FB014191BF019D91491731F012
:10340000AF0141505109FA019083182FA217B30759
:1034100089F7CECF10E0CCCF70E060567A4F809124
:103420009E0590E080569A4F0E949E2DC1CFFF923C
:103430000F931F93CF93DF93C62FD42F122F882380
:10344000A9F06093D6020E94061990931B02809304
:103450001A02C77081E001C0880FCA95EAF7DF91B0
:10346000CF911F910F91FF900C9489088091D60203
:10347000681334C080911A0290911B020E94DC09EB
:103480008436910558F500E20D0FCD17A9F0C770ED
:10349000FF24F3948F2D01C0880FCA95EAF70E948C
:1034A0009308083048F48D2F877001C0FF0C8A956F
:1034B000EAF78F2D0E948908812F0E945C0E083048
:1034C000A0F4D77081E001C0880FDA95EAF7DF91A8
:1034D000CF911F910F91FF900C949308C77081E0DA
:1034E00001C0880FCA95EAF7F2CFDF91CF911F9103
:1034F0000F91FF90089578941F921FB61F92112488
:103500008F939F93AF93BF938091790290917A02AA
:10351000A0917B02B0917C020196A11DB11D809308
:10352000790290937A02A0937B02B0937C02BF91C0
:10353000AF919F918F911F901FBE1F901895CF92B2
:10354000DF92EF92FF92CF93DF9300D000D0CDB700
:10355000DEB76B017C010E94B30B81110EC00E948B
:10356000BA09C61AD70AE80AF90AC0927502D092B7
:103570007602E0927702F09278020F900F900F900F
:103580000F90DF91CF91FF90EF90DF90CF90089553
:10359000CF93DF9300D000D0CDB7DEB70E94B30B3E
:1035A000882341F00F900F900F900F90DF91CF91F3
:1035B0000C94BA090E94BA0969837A838B839C832D
:1035C0008091750290917602A0917702B091780275
:1035D00029813A814B815C81280F391F4A1F5B1F6B
:1035E000CA01B9010F900F900F900F90DF91CF910A
:1035F00008950E94B30B81110C9406190E94C81AF9
:10360000CB01089560919405669570E04BE050E021
:103610008CE191E00E949D31892B19F481E0809327
:103620008D050E94F91A90938F0580938E05089559
:10363000CF93DF9300D000D0CDB7DEB79091940543
:1036400090FF45C08823E1F18B32E0F58F77880F3A
:10365000909194059170892B80939405662381F055
:103660008091940590919505A0919605B09197054C
:1036700089839A83AB83BC83BC01CD010E94260F52
:1036800060919405669570E04BE050E08CE191E02C
:103690000E949D31892BC1F010928D0581E08093AD
:1036A000910520E0409197056091960580919505E0
:1036B0000F900F900F900F90DF91CF910C94900F7F
:1036C00081E0C5CF8AE2C3CF0E94021BE7CF0F90F3
:1036D0000F900F900F90DF91CF91089580919405F6
:1036E00086958F5F8B3208F081E061E00C94181BA7
:1036F0009091940596958FEF890F913009F48AE2A5
:1037000061E00C94181B9091940590FF07C096956A
:10371000981720F0961710F40C946E1B61E00C942F
:10372000181B3F924F925F926F927F928F929F925F
:10373000AF92BF92CF92DF92EF92FF920F931F93BF
:10374000CF93DF93CDB7DEB72A970FB6F894DEBFDD
:103750000FBECDBF89879A87A985BA859C9111969E
:103760008C91119713962D913C91232B21F0892355
:103770008F3F09F078C62A960FB6F894DEBF0FBEC9
:10378000CDBFDF91CF911F910F91FF90EF90DF9010
:10379000CF90BF90AF909F908F907F906F905F90F1
:1037A0004F903F900895C70182519F45409708F080
:1037B000BCC58FEF93E00E946534BEEEEB0E47E090
:1037C000842E42E0942E882389F18091E202877052
:1037D00091F2A985BA8512968C91882361F282E0D4
:1037E0002A960FB6F894DEBF0FBECDBFDF91CF9102
:1037F0001F910F91FF90EF90DF90CF90BF90AF900F
:103800009F908F907F906F905F904F903F900C941F
:1038100036098114E4E09E06C1F2C4010E946534B9
:10382000811101C0EA94FFEF8F1A9F0AE110F1CFD6
:1038300080912F0190913001A0913101B09132011E
:1038400089839A83AB83BC83442443943AE0332E28
:1038500074010FEFE01AF00AC4010E9465348983F5
:103860001A82882309F4B1CF9FEF980F933010F597
:103870008A83498212E0810E911CC7010E9465343F
:103880008B83882309F4A1CF8E010F5F1F4FD801CE
:103890002C912223E9F211969C911197213009F085
:1038A00045C012968C91913039F40E5F1F4F0E94E3
:1038B0005C0E08C04701E8CF923039F40E5F1F4F0D
:1038C0000E946E090F5F1F4FE2CF933029F40E5F05
:1038D0001F4F0E945A08F6CF943019F00F5F1F4F08
:1038E000F1CF0E5F1F4F20E030E0B8016F5F7F4FD8
:1038F000F80141818053990B8A30910560F02115C0
:10390000310501F38FE99FE00197F1F700C0000056
:1039100021503109F4CF329EF001339EF00D112475
:103920009C012E0F3F1F842F8B01DFCFE22FF0E091
:10393000E751F84F5490822F86958695869590E0B2
:10394000FC01E752F84FE4912770F0E0022E02C02C
:10395000F595E7950A94E2F73F01A1E06A22772402
:10396000FC01E753F84FA490B12C022E02C0B5948D
:10397000A7940A94E2F7B1E0AB22BB24FC01E75420
:10398000F84FC490D12C02C0D594C7942A95E2F781
:10399000E1E0CE22DD246114710419F081EE0E9471
:1039A0006E09A114B10419F086EE0E946E09852DEE
:1039B0000E945C0EAB2819F086EE0E945A08672818
:1039C00019F081EE0E945A08CD2809F47BCF8CE2D1
:1039D0006ECF81E00E94D0080E94F30AF6CE81E00B
:1039E0000E940109F9CF82E0F5CF1092BD0210923A
:1039F000BC0244E150E060E270E087EA92E00E949D
:103A0000B731CEC425EFE2162CE5F206E1F027E24D
:103A100045EE66EE36EFE3163CE5F30689F044EF3B
:103A2000E4164CE5F40609F0EBC427E245EE64EE3B
:103A300007C027E245EE65EE03C026E241EE60EEE8
:103A40000E94171AC2CE26E241EE62EEF9CF97012C
:103A50002A5F3C452930310508F4E3C4B6E1EB1692
:103A6000BCE5FB0609F0BAC19091D802882309F49D
:103A7000B9C0892F8A7A91E009F490E09093D70237
:103A800069E2811165E382E192E00E9454090E949B
:103A90002D089BCEF701E350FC458091B505816070
:103AA000E331F105B8F4E45EFA4C0C94C930C70177
:103AB0008A5F9C45099708F0C6C4F701EB5FFC4597
:103AC000E830F10590F4E15DFA4C0C94C930809136
:103AD000B50582608093B505B6C48091B505846054
:103AE000F9CF8091B5058860F5CF8091B6058160EA
:103AF0008093B605A8C48091B6058260F9CF809105
:103B0000B5058061E7CF8091B5058062E3CF8091F4
:103B1000B5058064DFCF0E9422148091B5058068CE
:103B2000D9CF8091B5058C60D5CF8091B6058360E3
:103B3000DFCF8091B5058E7FCDCF8091B5058D7F8C
:103B4000C9CF8091B5058B7FC5CF8091B505877FA3
:103B5000C1CF8091B6058E7FCBCF8091B6058D7F8A
:103B6000C7CF8091B5058F7EB5CF8091B5058F7D8C
:103B7000B1CF8091B5058F7BADCF0E94221480918B
:103B8000B5058F77A7CF8091B505837FA3CF8091AF
:103B9000B6058C7FADCF8091B50582FB992790F952
:103BA00021E0922790FB82F990FB83F993CF8091DB
:103BB000B605982F909591708E7F892B90FB81F997
:103BC00097CF0E9422149091B505892F97FB87F912
:103BD000805880CF61E08EE090E00E94793433C459
:103BE00060E0F9CF8091D702811104C089E20E9480
:103BF0001A084DCF85E3FBCF6AE285E20DE5E016BA
:103C0000F00609F4D3C0E985FA858281C080D180AD
:103C1000882309F41CC1C6010E94F012F82E682FF7
:103C2000C6010E94C307B6018F2D0E946B11182F89
:103C3000F92EA985BA851296DC9012971596CC902C
:103C40000C2D02950F708091E2028770A1F0AD2CCF
:103C5000DD2091F0892F807F803421F080E2810F78
:103C6000883048F082E00E9436098091E202877035
:103C7000AA24A3948111A12CBF2CB2942FE0B222CC
:103C8000B8E0BB1609F4D1C1BB1508F425C1E3E0C7
:103C9000EB1508F4E1C08F2D807FFF2DFF70FF2E04
:103CA00021E02B1508F02BC1803219F0F29480EF3F
:103CB000F822112309F45EC1113009F47EC1DD2020
:103CC00009F486C1002309F47DC1A985BA8515963A
:103CD0008C91159780FF29C18F7015968C9372C1B6
:103CE0008091940580FF21C08E7F80939405209160
:103CF00094053091950540919605509197052D8337
:103D00003E834F835887CA01B9010E94260F109243
:103D10008D053FEF40E752E0315040405040E1F721
:103D200000C000000E94D60B50CD816080939405A6
:103D300061E086950E94181B48CD48E75BE16EE67E
:103D40007BE10E947C0741CD4EE65BE168E77BE1C9
:103D5000F8CF4FE450E166E470E1F3CF46E450E180
:103D60006FE470E1EECF44E650E168E570E1E9CF41
:103D700048E550E164E670E1E4CF4CE750E160E7EC
:103D800070E1DFCF40E750E16CE770E1DACF4DE65C
:103D90005FE06AE47FE0D5CF4AE45FE06DE67FE074
:103DA000D0CF61E081E0C6CF65E082E00E94831B56
:103DB0000CCD68E086E0FACF6EE089E0F7CF64E1F1
:103DC0008FE0F4CF67E185E1F1CF61E088E1B2CF28
:103DD00062E289E1EBCF61E083E2ACCF8AE5E816ED
:103DE0008DE5F80681F168F4E114ACE5FA06F1F02E
:103DF000BEEDEB16BCE5FB0609F005CF0E94EE1602
:103E0000E4CCEBE5EE16EDE5FE06F9F0FCE5EF1689
:103E1000FDE5FF0609F0F7CE8091B60582FB882705
:103E200080F991E089270E940814EDCE0E942214A7
:103E30000FEF14E32CE0015010402040E1F700C0E8
:103E400000000E94EB0981E0EECF80E0ECCFC601DC
:103E50000E94F107F82EE7CE34E0B31609F4C9C08A
:103E6000AB2DA850BB0B149710F40E948107AA2019
:103E7000B9F08091E20280FD13C0E985FA851282D3
:103E80008595859585950E94D00889859A850E949B
:103E9000911B8091E2028595859585950E94010987
:103EA00060E089859A852A960FB6F894DEBF0FBE2A
:103EB000CDBFDF91CF911F910F91FF90EF90DF90D9
:103EC000CF90BF90AF909F908F907F906F905F90BA
:103ED0004F903F900C94321349E0B41609F49FC1FF
:103EE00086E08B0D8F70823008F0BACF123F09F058
:103EF000A6C18F2D8F71DD2009F4E4C19DC18823F7
:103F000019F0F29490EFF922DD20C9F0FF2069F05A
:103F100080E2810F883010F011110BC08091D8021F
:103F20008F298093D8020E942D08812F0E946E094C
:103F300097CF8091E3028F298093E302F4CF812F02
:103F40000E945A08FF2009F48BCFF09480E2810F81
:103F5000883010F0111108C08091D8028F21809311
:103F6000D8020E942D087CCF8091E3028F2180939C
:103F7000E302F7CFDD20A9F09091D9028F2D892B94
:103F8000011103C00E9489086BCF0130D9F720913D
:103F9000B60522FD65CF981709F462CF8093D90248
:103FA0005FCF011106C00E9427088F2D0E94930841
:103FB00057CF013009F454CFF6CFDD2029F0063079
:103FC00008F04ECF8F2DDECF053008F049CFEDCF72
:103FD000002359F3193349F4BFEFE7EEF3E0B15092
:103FE000E040F040E1F700C00000812F0E945A0835
:103FF00037CF8F2D86958695837069F0813009F0D3
:104000002FCF812F9F2D9370D11002C090E080E0C0
:104010000E94A30725CF812F9F2D9370D11002C03E
:1040200090E080E00E948D071BCF8F2D837009F0F8
:104030007AC0D11015CF212F229526952770220FF7
:10404000220F412F4F7050E070E060E0022E04C05C
:10405000440F551F661F771F0A94D2F780E090E047
:10406000DC0114FF0FC08FE090E0A0E0B0E004C0DE
:10407000880F991FAA1FBB1F2A95D2F7809590958C
:10408000A095B0952F2D269526952370223089F185
:10409000233009F441C0C090DA02D090DB02E090F6
:1040A000DC02F090DD02213089F0842B952BA62BC9
:1040B000B72B8C019D010C211D212E213F210D8349
:1040C0001E832F833887C901B80110C0C42AD52A9E
:1040D000E62AF72AA7019601282B392B4A2B5B2BBE
:1040E0002D833E834F835887CA01B9010E94AC08D3
:1040F000B7CE842B952BA62BB72B4091DA0250918B
:10410000DB026091DC027091DD028C019D010427CD
:10411000152726273727D3CF8A019B01082B192B78
:104120002A2B3B2BCCCFDD2009F44FC0F0FE98CEDC
:10413000212F229526952770220F220F412F4F7095
:1041400050E070E060E0022E04C0440F551F661F6F
:10415000771F0A94D2F780E090E0DC0114FF0FC0D3
:104160008FE090E0A0E0B0E004C0880F991FAA1F84
:10417000BB1F2A95D2F780959095A095B0952F2DCD
:104180002695269523702230A1F1233009F444C0EE
:10419000C090DE02D090DF02E090E002F090E102F9
:1041A0002130B1F0842B952BA62BB72B9C01AD01B0
:1041B0002C213D214E215F212D833E834F83588743
:1041C000CA01B9010E94B6084BCEF1FE49CEB0CF6C
:1041D000C42AD52AE62AF72A97018601082B192B2B
:1041E0002A2B3B2B0D831E832F833887C901B801EF
:1041F000E9CF842B952BA62BB72B4091DE02509153
:10420000DF026091E0027091E1028C019D010427C0
:10421000152726273727E6CF8A019B01DFCF0F2DF1
:104220000F70DD2029F0802F0E94D008812FAACEA8
:10423000812F0E949308802F0E94010911CE133F05
:1042400060F4103F19F1113FC1F1DD2009F45DC0A8
:1042500001116BCE8F2D8F7135C0133FB1F1143F1B
:10426000A1F7DD2009F447C01F2D1F71812F0E9487
:10427000D0088091B60582FD07C028E0129FC001DA
:10428000112483608093E202812F1CC0DD2089F01D
:10429000053008F0E5CD2F2D2F7181E090E0A0E0F2
:1042A000B0E004C0880F991FAA1FBB1F2A95D2F740
:1042B000A4CF063008F0D4CDEECF8F2D8F71DD2046
:1042C00009F4BACF0E94D008CBCD60E070E0CB01FA
:1042D000DD2009F477CF8F2D8F7141E050E060E051
:1042E00070E08A019B0104C0000F111F221F331FC1
:1042F0008A95D2F777CF81E00E943609023008F420
:10430000AFCD82E00E943609ABCD002359F01933BE
:1043100009F06BCE3FEF47EE53E031504040504044
:10432000E1F761CE8F2D8F7187CFF0E1EF16FFE5BA
:10433000FF0609F44ECB01E1E0160FE5F00609F4A3
:1043400052CBA985BA859C9111968C9110E2BCE361
:10435000EB16F10420F4F701E559FE4F10811F928E
:104360001F93FF92EF921F929F931F928F9383E36D
:1043700091E09F938F931F9288E18F938EEB92E051
:104380009F938F930E94BE310FB6F894DEBF0FBE8D
:10439000CDBF8091BC029091BD02449709F425CB1A
:1043A0008091BC029091BD02FC01E955FD4F108344
:1043B00001969093BD028093BC02A985BA8512969E
:1043C0008C91B3EFEB16BCE5FB0609F436CB08F095
:1043D00019CBF8EDEF16FCE5FF0609F42ACB28E22D
:1043E00041E009EDE0160CE5F00609F424CB26E2E5
:1043F00041EE61EE17EDE1161CE5F10609F420CB64
:10440000882309F44AC01092D60256E1E5165CE50D
:10441000F50608F01CCB82E0E8168CE5F80608F4F7
:10442000DDCC0E948A139093B6058093B50596E182
:10443000E9169CE5F90608F03ACBA2E0EA16ACE5ED
:10444000FA0608F027CB6091B505F090B60584E038
:1044500090E00E9479346F2D82E290E00E947934DE
:104460000E942214B2C961E089859A850E943213A4
:104470007C01A985BA8512968C91811194C910E1AD
:10448000E1161FE5F10609F4AACA21E1E2162FE5BB
:10449000F20609F092CF82E0A3CAB6E1EB16BCE5C2
:1044A000FB0609F4E1CA8091D8028272E6EDEE16AD
:1044B000ECE5FE0608F0A0CBF2ECEF16FCE5FF06FB
:1044C00008F4A1CBF701E35CFC45E331F10508F00A
:1044D00007CCE95CFA4C0C94C9301F93CF93DF935F
:1044E00080911B03807FA9F480911803882389F0B1
:1044F0008091E502C091E402709116036091170368
:10450000A0911903B0911A03D62FD72316E0C81330
:1045100004C0DF91CF911F91089590E0109711F0A2
:10452000DF3F19F401968770F2CF189F9001199F11
:10453000300D1124F901EA51FD4F41816413F2CF8E
:1045400040814713EFCF42814111ECCF4381548129
:104550004A1B5B0B4436510528F780911B038F7073
:10456000806180931B03F901E551FD4F80818F70BD
:104570008061808386E193E00E94911BDF91CF915F
:104580001F910C94B9078F929F92AF92BF92DF92C6
:10459000EF92FF920F931F93CF93DF93CDB7DEB7C8
:1045A0002B970FB6F894DEBF0FBECDBF8C0185E010
:1045B000F801DE01179601900D928A95E1F7F80156
:1045C000E28030812181A380B48086E1882E83E05F
:1045D000982E8091160390911703409119035091E2
:1045E0001A034115510529F0682F69236F3F09F01F
:1045F00008C1EE2009F413C18F8198850E945D13D4
:10460000F82E882309F40BC186E0F801A6E1B3E097
:1046100001900D928A95E1F70E946D221EC0D09004
:104620001B036D2D607F4436510508F0A3C0611156
:10463000B0C0FE2C291324C0831322C0E11020C077
:104640008D2D8F70806180931B0386E193E00E9423
:10465000911B80911B03F80185838F2D2B960FB63C
:10466000F894DEBF0FBECDBFDF91CF911F910F91A8
:10467000FF90EF90DF90BF90AF909F908F90089544
:10468000AB2829F0822F83238F3F09F07FC080E081
:10469000F82FF170DF2EE091E5024091E40256E040
:1046A00080FD1CC0EE20C9F280911B0381608093C5
:1046B0001B03F12CD2CF8E2F90E05E9FF0011124CE
:1046C000EA51FD4F6181261306C06081361303C095
:1046D00062816E11E7CF0196E82FE770E413EBCF0C
:1046E0008F8198850E945113292F22952F70903227
:1046F00060F0225F2F70223078F49F7051F0F80143
:104700009581907F31F4D12C0AC09F7011F08823DD
:10471000D1F3805E8830B8F3C8010E94911BFD2C54
:104720009CCF8F8198850E945D13882309F477C000
:10473000EE2009F474C080911B03803270F08091E8
:104740001603909117039A8389831B82BD82AC82E2
:10475000DE82CE0101960E94911B86E0F801A6E15F
:10476000B3E001900D928A95E1F70E946D22FF243B
:10477000F39473CF611121C086E193E00E94911BF5
:1047800086E0F40111928A95E9F793CF81E08E25B6
:104790007FCF2913C6CF8313C4CFE110C2CFF80156
:1047A000D582C8010E94911B86E0F801A6E1B3E022
:1047B00001900D928A95E1F750CF2913B2CF831360
:1047C000B0CFE110AECFF801D582C8010E94911B95
:1047D00086E0F40111928A95E9F73FCF291302C0D0
:1047E000831711F38F8198850E945D138111B5CFD6
:1047F00080911B03816080931B03C8010E94911B61
:104800002CCFF0901803B501641B750BAB01F110B0
:1048100006CF44365105E0F6FE2CE110DFCFC8018B
:104820000E94911BA4CF1F93CF93DF93CDB7DEB728
:1048300067970FB6F894DEBF0FBECDBF4B8B5C8B76
:10484000962F6D8B7E8B8F8B61111092E3021A8AEB
:1048500085E0FE017396DE011D9601900D928A950A
:10486000E1F79F8786E0FE013D96DE0117960190F5
:104870000D928A95E1F7CE0107960E94C322882304
:1048800089F016E08091E5029091E402891349C015
:1048900067960FB6F894DEBF0FBECDBFDF91CF9104
:1048A0001F91089586E0FE013796DE011196019072
:1048B0000D928A95E1F78F8198852091E4024091CD
:1048C000E5026A857B85672BE1F289238F3FC9F278
:1048D00030E0C9010196877099274817190671F4CD
:1048E0000E9422141092E4021092E50286E0E6E1B2
:1048F000F3E0DF011D928A95E9F7C3CF96E0929F1E
:10490000D001939FB00D1124AA51BD4FFE013196E5
:1049100001900D929A95E1F78093E4020E94B90705
:10492000B0CF819FC00111248A519D4F0E94C322A4
:10493000882309F4ADCF8091E50290E0019687705D
:1049400099278093E5029ECFCDB7DEB7A4970FB627
:10495000F894DEBF0FBECDBF84B7877F84BF0FB68C
:10496000F894A8958091600088618093600010920F
:1049700060000FBE80E890E00FB6F894809361006D
:10498000909361000FBE85B7806885BF85B780684A
:1049900085BF82E599E090931102809310020E94F6
:1049A000AA0A0E94520B8091E20084608093E20088
:1049B000789480919905882399F08091E90010916D
:1049C000EC001795112717958F70182B1092E9009E
:1049D0008091E80083FD0E942D141F701093E90060
:1049E00082E084BD93E095BD9AEF97BD80936E0001
:1049F000109275021092760210927702109278024D
:104A00000E94B30B91E08927809304010E94B30BAD
:104A100081110E94582D809104018091040195E03C
:104A2000811190E09093AA0585E0891B80939E05F3
:104A300086E60E94B30687E90E94B30686EC0E94D0
:104A4000B30684E30E94B30685E30E94B30686EFB3
:104A50000E94B30687EF0E94B30681E30E94B3066B
:104A600083E30E94B30682E30E94B30686E30E94BA
:104A7000B3068AE0EBEAF5E0DF01682E1D926A9446
:104A8000E9F7E0EAF5E0DF011D928A95E9F790E0A9
:104A900080E00E9473348A3E9E4F11F00E94EE1611
:104AA00082E090E00E946534809360020E948A1345
:104AB0009093B6058093B5050E941219EFE3FCE9C7
:104AC0003197F1F700C000000E9412198091A005F3
:104AD00080FF17C06FEF83E290E00E9479346FEFA0
:104AE00084E290E00E9479346FEF85E290E00E94CA
:104AF00079346FEF7FEF90E080E00E9497340E945E
:104B0000EB0983E090E00E946534282F30E050E00C
:104B100040E029A33AA34BA35CA3CA01B9010E94B8
:104B2000AC080E94B30B811102C00E945E2D83E28B
:104B300090E00E946534813209F079C684E290E009
:104B40000E946534893009F072C685E290E00E94C7
:104B50006534893109F06BC60E94B30B91E0892757
:104B6000880F8093530280E8809322030E94D02D07
:104B70006DE070E088E297E00E945917892B09F0F8
:104B800043C08091530263E070E081FDD9C085E2AB
:104B900097E00E945917892BB9F56DE070E085E127
:104BA00097E00E945917892B79F50E94BA0969A3E9
:104BB0007AA38BA39CA3DC01CB01805A9541AF4F14
:104BC000BF4F8093570290935802A0935902B0931D
:104BD0005A02E3E2F3E080E092E0DF019C011D92E3
:104BE00021503040E1F7F0932405E09323058FEF47
:104BF0009FEF909356028093550281E080935E026E
:104C000080935B021092540280912E02811136C073
:104C100090E080E00E9473348A3E9E4F21F00E9413
:104C2000EE160E943A0F88E090E00E946D34609387
:104C300094057093950580939605909397056E7FE4
:104C400071F40E943A0F88E090E00E946D34609306
:104C500094057093950580939605909397050E940F
:104C6000650710928D058091940580FF04C060E077
:104C700086950E94181B81E080932E02809104018A
:104C8000811106C084EF8093060185EF80930501B2
:104C900040910601A42FA295AF70B0E091963C918F
:104CA00091974F7081E090E0BC01042E01C0660F27
:104CB0000A94EAF7262F2095232391962C93919717
:104CC00092962C919297262B92962C9392973091B4
:104CD0000501E32FE295EF70F0E021A13F70032E74
:104CE00001C0880F0A94EAF7982F9095922391A318
:104CF00092A1892B82A390962C9180A190E002C072
:104D0000959587953A95E2F78170880F30E002C05B
:104D1000359527954A95E2F72170822B80933202D0
:104D20009091040181E0982790932805891B809336
:104D300025058EE091E09093210380932003ABC280
:104D400082E297E026CF80919905843009F440C033
:104D500010928D0580913002811116C0F0923002C0
:104D600080919405982F917090932F028E7F80935D
:104D700094054FEF50E782E0415050408040E1F70A
:104D800000C000000E94D60B10927D02A8E1B0E0A6
:104D9000E0E40FB6F894A895A09360000FBEE093EE
:104DA000600083B7817F846083BF83B7816083BFE6
:104DB0007894889583B78E7F83BF0FB6F894A895B3
:104DC00080916000886180936000109260000FBE47
:104DD00080916B02882361F00E941219E0EAF5E0ED
:104DE000819181110EC52AEA35E02E173F07C1F7E0
:104DF00080919905853009F4A6CF0E9422140E9463
:104E000081071092300280912F02882349F080910F
:104E1000940581608093940560E086950E94181B3C
:104E20000E94021B41C2C394FF0C36E0C31252C25F
:104E30000F5F1F4F0A30110509F042C28FEF8983BF
:104E40008A831B820E9406198160782F9D838C8340
:104E500049815A816B81892F0E9413245CC208E228
:104E600010E090E8C92E9DE0D92E883109F46CC27B
:104E7000E0F48F3009F440C058F4863031F18930C5
:104E800079F100ED17E0EBE7CE2EE7E0DE2E5CC215
:104E90008531B9F7F0E0E65CF84FE4910E2F10E0B1
:104EA00042E3C42E4DE0D42E4FC2843209F440C0F8
:104EB000853271F1833229F7E8E3F7E00591149127
:104EC0003FE5C32E3CE0D32E3FC2F0E0ED5BF84F50
:104ED000E4910E2F10E07FE4C72E7CE0D72E34C281
:104EE000E695F0E0E05CF84FE4910E2F10E06FE9FA
:104EF000C62E6CE0D62E28C2E695F0E0E35CF84FB3
:104F0000E4910E2F10E059ECC52E5CE0D52E1CC2AA
:104F10008E2F63E00E948730E92FF0E0EB5CF84FC2
:104F2000E4910E2F10E028E8C22E20E1D22E0CC210
:104F300004EF11E084E2C82E8EE0D82E05C20E9454
:104F4000061990935D0280935C0283E293E0909354
:104F50002405809323050E94B30B882309F477C0AE
:104F60008FEA97E00E9484184091DE025091DF02A0
:104F70006091E0027091E102CB01AA27BB27009764
:104F8000A105B10509F444C0AC01BD0180E1052FC4
:104F9000162F272F3327011511052105310519F08B
:104FA000885FB901A8018A019B01B4E03695279575
:104FB00017950795BA95D1F701151105210531050A
:104FC00019F08C5FB901A8018A019B01A2E0369516
:104FD000279517950795AA95D1F701151105210574
:104FE000310519F08E5FB901A8017695679557953F
:104FF0004795452B462B472B09F08F5F823009F1EF
:1050000048F4882361F08130F9F08AE897E009C01C
:1050100080E0BDCF8330C9F784E997E002C087EA1A
:1050200097E00E9492188EEB92E00E946A1887EA3D
:1050300092E00E946A1880915E02882309F426C2D9
:105040001DC281EA97E0EDCF8BE997E0EACF8AE4D1
:1050500097E00E948418EFCF8091540261E070E0E5
:10506000811114C2082F10E02B01082E02C0440C3D
:10507000551C0A94E2F7A90144215521452B09F456
:105080004AC020915302922F917020FD46C0980192
:1050900036952795369527958295880F80763FE13E
:1050A000380F8093090120930C0130930A019093EB
:1050B0000D0124E630E047E050E067E071E088E76A
:1050C0000E94612E892B09F0E1C1A80175E0440F0F
:1050D000551F7A95E1F78091530280FD26C04D5D02
:1050E0005C4F04E610E020E230E060E488E70E94D4
:1050F0008E2E892B09F0CAC10E94881740945094C3
:1051000080915502909156028421952190935602E8
:1051100080935502BBC18F5FA5CF880F880F880F82
:1051200037E0380F20E093E0BCCFE3E3F2E080E229
:10513000DF011D928A95E9F707E611E063E6C62EC6
:1051400061E0D62E77E099249394D801ED918D01FA
:10515000D6018D916D01840F952F911D9C012D5DC0
:105160003C4F1901F0E0ED5CFD4F30E020E0772E80
:10517000721A892D022E01C0880F0A94EAF7510194
:1051800060E0D5019D915D019823A72DA61BA77016
:105190008A2E0A2E000CBB0B692E01C0660C8A9465
:1051A000EAF7B195A195B109A770BB2701C0969503
:1051B000AA95EAF79629A0819A2B90836F5F6830B1
:1051C00001F72F5F3F4F31962830310581F62BE6EE
:1051D00031E02017310709F0B8CF04E610E020E2F3
:1051E00030E043E352E081CF00E210E0AE014F5FD8
:1051F0005F4F7A018091E80085FD0AC08091E80048
:105200008B778093E8000E94790A882399F392C1F2
:105210008091F100D7018D937D010150110951F763
:1052200089C11A8289E08B8312C08A81823009F495
:1052300017C3833009F490C1813009F0ABC10E94DB
:10524000BA090E94CF306B837C838D839E838091CB
:105250009905843001F58091E9001091EC001795D3
:10526000112717958F70182B82E08093E9008091A9
:10527000E80080FF0DC050E040E060E270E0CE0149
:1052800001960E94C90A8091E8008E778093E80019
:105290001F701093E90080919905FF24F39400E1B9
:1052A00012E1853009F4A4CD0E941219E82E811173
:1052B0000E94BA09A0EAB5E0E1E6F2E010E000E001
:1052C000B02EDD9081918D1509F4B2CD8D25C12CC4
:1052D000FF24F3949F2D982309F4A5CD0E94B30BCE
:1052E000882399F0C982BA82DF2081E009F480E046
:1052F0008B830E9406198160782F9D838C8349815E
:105300005A816B81892F0E941324F801EF59FD4FB8
:1053100080818F25808380918D058823D1F18091B4
:105320008C05E0919405E695E81BE09390058230AA
:1053300009F095CDF0E0EA5BF84FE4910E2F10E014
:10534000FBE3CF2EFCE0DF2E80919105882361F0F6
:10535000109291050E94F91A90938F0580938E0503
:1053600010929305109292050E94F91A20918E05D1
:1053700030918F05821B930B8F3F9F4750F4200F76
:10538000311F30938F0520938E058EE895E0F6014E
:10539000099540910601E42FE295EF70E05EF0E0A0
:1053A000208130910501E32FE295EF70E05EF0E09F
:1053B000808190E03F7002C0959587953A95E2F71D
:1053C000880F991F8270992730E04F7002C0359581
:1053D00027954A95E2F721703327822BE09132021C
:1053E000EE0FEE0FE82BE093320210912805EF70DC
:1053F000F0E0ED5AFE4F808190913102890F809349
:105400003102F12C82306CF0E12FF0E0EA5DFA4FCE
:1054100080818F5F808361E0812F0E947B0EFF245B
:10542000F394809131028F3F6CF4E12FF0E0EA5D5C
:10543000FA4F80818150808360E0812F0E947B0E33
:10544000FF24F39480913102082E000C990B62E046
:1054500070E00E94B53080933102F1100E94DA09A9
:1054600080915E02882309F440C080915C02909193
:105470005D020E94DC09C29708F061CD20915502BF
:10548000309156022115310509F0E6CD80915B027D
:10549000882359F10E94BA0969A37AA38BA39CA31C
:1054A0008091570290915802A0915902B0915A02EE
:1054B00029A13AA14BA15CA1281B390B4A0B5B0B1C
:1054C000DA01C9018F3F9F4FAF4FBF4770F4809102
:1054D0005E02882351F062E070E087EB97E00E9463
:1054E0005917892B11F410925B02E11001C0F110E1
:1054F0000E9488170E94810790915F02891721F00E
:105500000E94810780935F0280919905843009F0A1
:10551000C2CE83E08093E9008091E80082FFBBCE99
:105520008091E80090E085FF06C00E94790A8823F8
:1055300009F45ACE91E08091E8008B778093E800DF
:10554000992309F4A8CEE981E150E33118F5F0E0A0
:10555000E65BFA4C0C94C9308AE0E0EAF5E0DE0143
:10556000139601900D928A95E1F771CE8A8182306F
:1055700089F42B813C814D815E8129A33AA34BA301
:105580005CA3CA01B9010E94CF3086E290E00E947C
:1055900079345DCE8FEF89835ACE4C816B818A81BD
:1055A0000E9438119827892798279E838D834FCE94
:1055B000ED80FE80FE24EF24FE248A810B813CE0F6
:1055C000039F8001112448E7849F000D111D1124C1
:1055D0008C8190E0880F991F080F191F6F2DC8014B
:1055E00087960E9479346E2DC8018896D0CF0E948C
:1055F00098132DCE8A818238D1F1F8F4803831F1B8
:10560000813809F024CE60E08B810E94181B9B81B9
:1056100080919405911123C08E7F80939405109200
:105620008D055FEF80E792E0515080409040E1F7B8
:1056300000C000000E94D60B0ACE833809F007CEC6
:1056400020E0409197056C818B8106C020E04B8162
:1056500060919605809195050E94900FF8CD81602C
:105660008093940560E086950E94181BF0CD8B8195
:1056700080939805ECCD8A818238D9F058F480382F
:1056800099F0813809F0E3CD8091940580FF0FC037
:105690008695C9CD833809F0DACD809195058B8345
:1056A000809196058C83D3CD80919705BCCD80E009
:1056B000BACD80919805B7CD20919405309195058C
:1056C000409196055091970529A33AA34BA35CA35B
:1056D000CA01B9010E94260FBACD80E18A83B7CDF5
:1056E00081E08A8389EF9FCDCA80DB80DC24CD24D2
:1056F000DC248C817601E80EF11C8E010B5F1F4FBC
:10570000C601895F9D4FCE14DF0409F4A0CD39EFA7
:10571000C31631E0D30648F40E946534D8018D9356
:105720008D01BFEFCB1ADB0AEBCF80E0F7CF0A8108
:105730001B81102701271027FE0131966F018C81F4
:105740007F01E80EF11CC801895F9D4FCE14DF0474
:1057500009F47DCD093FF1E01F0728F4D601149626
:105760006C910E9479340F5F1F4FBFEFCB1ADB0A99
:10577000EACF0E94F8136BCD84E0B0CFCA80DB8003
:10578000DC24CD24DC248C817601E80EF11C8E0112
:105790000B5F1F4FC6018796CE14DF0409F457CD67
:1057A000E0EECE16E1E0DE0648F40E946534D80152
:1057B0008D938D01BFEFCB1ADB0AECCF80E0F7CFE2
:1057C0000A811B81102701271027FE0131966F01E6
:1057D0008C817F01E80EF11CC8018796EC14FD0452
:1057E00009F435CD003EF1E01F0728F4D6011496E8
:1057F0006C910E9479340F5F1F4FBFEFCB1ADB0A09
:10580000EBCF09BD19BD09B400FEFDCF8091D800D2
:105810008F7D8093D8008091E00082608093E000CB
:105820008091E00081FDFCCF0E942214E1CA60E07B
:1058300086E290E00E9479340E9498130E94F81347
:1058400061E283E290E00E94793469E084E290E0D2
:105850000E94793469E185E290E00E9479347CC944
:1058600086E290E00E9465341B821C821D828E833A
:10587000EECC1F920F920FB60F9211242F933F93ED
:105880004F935F936F937F938F939F93AF93BF9348
:10589000EF93FF938091E10082FF09C08091E200C5
:1058A00082FF05C08091E1008B7F8093E1008091B1
:1058B000DA0080FF24C08091D80080FF20C0809152
:1058C000DA008E7F8093DA008091D90080FF99C042
:1058D00080E189BD82E189BD09B400FEFDCF81E090
:1058E0008093990580912502811109C00E94AA0A1E
:1058F0000E94520B8091E20084608093E2008091CC
:10590000E10080FF17C08091E20080FF13C080910A
:10591000E2008E7F8093E2008091E20080618093BC
:10592000E2008091D80080628093D80019BC85E0A5
:10593000809399058091E10084FF27C08091E20067
:1059400084FF23C080E189BD82E189BD09B400FEE6
:10595000FDCF8091D8008F7D8093D8008091E100A9
:105960008F7E8093E1008091E2008F7E8093E20041
:105970008091E20081608093E2008091240288237C
:1059800009F445C084E0809399058091E10083FF8C
:1059900027C08091E20083FF23C08091E100877FD0
:1059A0008093E10082E08093990510922402809117
:1059B000E1008E7F8093E1008091E2008E7F8093F2
:1059C000E2008091E20080618093E20042E060E0CA
:1059D00080E00E94220B8091F00088608093F000AC
:1059E000FF91EF91BF91AF919F918F917F916F91B7
:1059F0005F914F913F912F910F900FBE0F901F908D
:105A0000189519BC109299051092250278CF8091B3
:105A1000E30087FD02C081E0B6CF83E0B4CF1F92E0
:105A20000F920FB60F921124FF920F931F932F9393
:105A30003F934F935F936F937F938F939F93AF9316
:105A4000BF93CF93DF93EF93FF9309EE10E0F8013C
:105A50008081C091EC00C795CC27C7958F70FC2E34
:105A6000F82A1082C0EFD0E08881877F88837894FD
:105A70000E942D14F8011082888188608883CF2DC0
:105A8000CF70C083FF91EF91DF91CF91BF91AF9124
:105A90009F918F917F916F915F914F913F912F9146
:105AA0001F910F91FF900F900FBE0F901F901895B0
:105AB00061E070E087E291E00C94262F61E070E0F5
:105AC00087E291E00C942F2FCF93DF9300D000D08A
:105AD0000F92CDB7DEB76D83798390E080E00E94AE
