:100000000C9400030C94922A0C9447030C9447031D
:100010000C9447030C9447030C9447030C94470338
:100020000C9447030C9447030C9426280C94FC284A
:100030000C94181A0C9447030C9447030C94470330
:100040000C9447030C9447030C9447030C94470308
:100050000C9447030C943F1A0C9447030C944703E9
:100060000C9447030C9447030C9447030C944703E8
:100070000C9447030C9447030C9447030C944703D8
:100080000C9447030C9447030C9447030C944703C8
:100090000C9447030C9447030C9447030C944703B8
:1000A0000C9447030C9447030C9447030501090281
:1000B000A10185020901A1000509190129081500FE
:1000C0002501950875018102050109300931158165
:1000D000257F95027508810609381581257F9501D0
:1000E00075088106050C0A38021581257F95017572
:1000F000088106C0C005010980A101850319012AF4
:10010000B700150126B700950175108100C0050CD8
:100110000901A101850419012AA002150126A002E6
:10012000950175108100C005010906A10105071997
:10013000E029E715002501950875018102950175F3
:100140000881010507190029FF150026FF00950603
:1001500075088100050819012905950575019102A9
:10016000950175039101C009023B00020100A0FA4C
:10017000090400000103010100092111010001220D
:1001800040000705810308000A090401000103007B
:100190000000092111010001227B000705820320D4
:1001A000000A12011001000000084D44363401001D
:1001B000010200013C03680061006E0064007700EA
:1001C00069007200650064002F0064006100630034
:1001D000740079006C005F006D0061006E007500B6
:1001E00066006F0072006D002F003400780036004A
:1001F00000000E037400730068006F00720074004A
:100200000000040309041E0F0500047F3F1F643231
:1002100014643214783C1E1E140A05222325262855
:10022000292A2C2D2F3032333536383A3B3D3E408B
:1002300042434547494A4C4E5051535557595A5CD1
:100240005E6062646668696B6D6F71737577797BE8
:100250007D7F81838587898A8C8E90929496989AE7
:100260009C9E9FA1A3A5A7A8AAACAEAFB1B3B4B6FC
:10027000B8B9BBBCBEBFC1C2C3C5C6C7C9CACBCC57
:10028000CDCED0D1D2D2D3D4D5D6D7D7D8D9D9DA2A
:10029000DADBDBDBDCDCDCDCDCDDDDDDDDDCDCDC9F
:1002A000DCDCDBDBDBDADAD9D9D8D7D7D6D5D4D3C7
:1002B000D2D2D1D0CECDCCCBCAC9C7C6C5C3C2C19C
:1002C000BFBEBCBBB9B8B6B4B3B1AFAEACAAA8A7F9
:1002D000A5A3A19F9E9C9A98969492908E8C8A89B1
:1002E000878583817F7D7B79777573716F6D6B698E
:1002F00068666462605E5C5A5957555351504E4C63
:100300004A4947454342403E3D3B3A383635333211
:10031000302F2D2C2A292826252322FFAA7F55405D
:1003200000010101010101010101020202020202B8
:10033000020202030303030303030304040404048B
:100340000404050505050506060606060707070752
:100350000708080808090909090A0A0A0B0B0B0C07
:100360000C0C0D0D0D0E0E0E0F0F0F1010111111A4
:100370001212131314141515161617171818191925
:100380001A1A1B1B1C1D1D1E1E1F2020212222238A
:100390002424252626272829292A2B2C2D2D2E2FCB
:1003A00030313232333435363738393A3B3C3D3EE2
:1003B0003F404142434445464748494A4C4D4E4FD1
:1003C00050515354555658595A5B5D5E5F61626493
:1003D000656668696B6C6D6F7072737577787A7B20
:1003E0007D7E8082838587888A8C8E8F9193959677
:1003F000989A9C9EA0A2A3A5A7A9ABADAFB1B3B597
:10040000B7BABCBEC0C2C4C6C9CBCDCFD1D4D6D872
:10041000DBDDDFE2E4E7E9EBEEF0F3F5F8FAFDFF10
:10042000290014001A000800150017002B00040012
:100430001600070009000A00E1001D001B0006006D
:1004400019000500000000003500000FE000010069
:1004500000000000E3002C004C0001511C001800BB
:100460000C00120013002A000B000D000E000F00FC
:10047000330034001100100036003700380031001E
:100480000100E6002F0030000000000002514B0088
:1004900028004E000000000029001E001F00200060
:1004A000210022002B005000510052004F0001009B
:1004B000E1003A003B003C003D003E00000000002F
:1004C0000100010001000100000000000100005CCB
:1004D00001000100230024002500260027002A0037
:1004E0000100010001000100010001003F00400087
:1004F00041004200430001000100010044004500AA
:100500000000000003514F010100500100000000F5
:1005100029001E021F022002210222022B003900A4
:1005200049004A004D004600E1007A007B007C0053
:100530007D00010000000000010001000100010039
:100540000000000001000100010003512302240209
:100550002502260227022A005000510052004F00B7
:100560002D002E0001000100010001002D022E02CD
:10057000010001002F023002000000000100010014
:10058000005C01000000000001000100010001000A
:1005900001000100C35CC65CC85CCA5C01000100CC
:1005A000C45CC75CC95CCB5C0100010000000000BA
:1005B0000100010001000100000000000100010035
:1005C0000100010001000100010001000100010023
:1005D0000100AA00A800A900010001000100AC0070
:1005E000AE00AB00010001000100010001000100AC
:1005F00000000000010001000100010000000000F7
:1006000011241FBECFEFDAE0DEBFCDBF04B603FE7C
:1006100027C080915C0390915D03A0915E03B0912F
:100620005F038730904BA740B04BD1F410925C032E
:1006300010925D0310925E0310925F0314BE84B7A4
:10064000877F84BF0FB6F894A89580916000886179
:1006500080936000109260000FBEE0E0F8E309951F
:1006600011E0A0E0B1E0ECE4FBE502C005900D92E2
:10067000AE3BB107D9F723E0AEEBB1E001C01D926C
:10068000AC35B207E1F70E949D230C94272D0C9402
:1006900000009091430392FF06C0282F2871283054
:1006A000F9F4877F846093FF06C0282F28712831D2
:1006B000F1F4877E84612091440320FF06C0382F27
:1006C00038713830D9F4877F816021FF06C0282F28
:1006D00028712831D1F4877E816194FD877E089549
:1006E000282F24712430F9F68B7F8860DCCF282FE7
:1006F0002471243101F78B7E8861DDCF382F317171
:10070000313019F78E7F8860E0CF282F2171213199
:1007100021F78E7E8861E1CF0F931F93CF93DF93F4
:10072000972F70E026E0929F600D711D1124FB0150
:100730009CE3899FE00DF11D1124EE0FFF1FE05E89
:10074000FB4F05911491E801003E110509F464C0C6
:1007500070F50133110509F4ACC098F409321105A4
:1007600009F4A0C00A32110509F4AAC0013011052C
:1007700009F465C004501109013A110508F058C088
:100780005EC00933110509F440C002381105E9F1D2
:100790000533110509F47FC0083A110508F097C028
:1007A000053A110518F3E801A497D06448C0043E47
:1007B000110509F455C068F4023E1105E1F1033E4C
:1007C000110509F442C0005E11090830110580F5D9
:1007D00036C0063E110509F44EC0073E110509F466
:1007E0004FC0011523E5120708F09CC0011582E5F2
:1007F000180708F001C10F3F110511F008F076C08D
:100800000D3E110548F2D0651AC0809143038370F4
:10081000B1F0C0EED0E013C08091430380FD15C15C
:100820009091440390FF0BC0C3EED0E084FF07C05B
:10083000D0E0C0E004C08091430382FDF5CFCE013B
:10084000DF91CF911F910F9108958091430382FD15
:10085000FFC09091440390FDDCCF84FFF0CFE8CF40
:100860008091440381FFEBCF80914303C7EED0E03A
:1008700084FDDECFE4CF8091430383FDF7CFDFCF4C
:100880008091430383FDE7C09091440391FFE5CF3E
:10089000C4EED0E0D4CF8091430385FFD0CFC9E22E
:1008A000D0E0CDCF8091430385FFC9CFC5E3D0E031
:1008B000C6CF8091430386FFC2CFCAE2D0E0BFCF4C
:1008C0008091430386FFBBCFC1E3D0E0B8CF0F3B9D
:1008D000110508F078CF085AE02FF0E0EE0FFF1F67
:1008E000E157FE4FC081D181D464A9CF011591E5B4
:1008F000190798F4011520E5120708F062C00115E8
:1009000080E2180708F49BCFC801905481159041EC
:1009100008F08ECFDF70D06A92CFD02FCC27C16F76
:10092000D06A8DCF011589E51807A0F5011598E566
:10093000190708F077C0011525E51207C8F401155D
:1009400084E5180708F069C0C80183709927C1E0E1
:10095000D0E002C0CC0FDD1F8A95E2F70695069520
:1009600090E2099F80011124C02BD12BDA6867CF58
:10097000C80195558F3F910511F008F059CF802F90
:100980000E944903C82FD0E0DC2FCC27CC27DF7191
:10099000D06255CF01152AE5120708F448C0C801F6
:1009A00090568115904208F043CF812F8F710E949D
:1009B0004903C82FD0E0DC2FCC27CC27DF71C02B18
:1009C000E7CFC80154E0969587955A95E1F7837073
:1009D000C695C695C37090E2C99FE0011124D82B3B
:1009E000037081E090E002C0880F991F0A95E2F73A
:1009F000C82BD92BDC6823CF98012370332781E0E3
:100A000090E002C0880F991F2A95E2F7C695C69517
:100A100020E2C29FE0011124EBCFD02FCC27C46F7E
:100A2000D06A0DCFD02FCC27C06FD06A08CF802FCF
:100A30008F700E94490394E0D695C7959A95E1F787
:100A4000CF709C2FEC01D069FACEC9E3D0E0F7CE8D
:100A5000C2EED0E0F4CEC6EED0E0F1CEF894E82FAE
:100A6000E295EF70F0E041A18F7021E030E0B90134
:100A700002C0660F771F8A95E2F7CB01962F9095FB
:100A8000942391A392A1892B82A378940895843012
:100A9000C1F138F48230C9F0833029F1813039F066
:100AA00008958530E1F1863009F447C008958091BA
:100AB0002403482F460F5527551F860F4F3F5105DA
:100AC0000CF08FEF80932403089580912901482F23
:100AD000460F5527551F860F4F3F51050CF08FEFDE
:100AE00080932901089580912801482F460F5527AA
:100AF000551F860F4F3F51050CF08FEF8093280153
:100B0000089580912701482F460F5527551F860FBE
:100B10004F3F51050CF08FEF80932701089580918E
:100B20002601482F460F5527551F860F4F3F510569
:100B30000CF08FEF80932601089580912501482FB6
:100B4000460F5527551F860F4F3F51050CF08FEF6D
:100B5000809325010895843071F138F48230A9F032
:100B60008330F1F0813031F00895853079F18630AD
:100B7000C1F1089580912403681720F4861B8093A7
:100B80002403089510922403089580912901681781
:100B900020F4861B8093290108951092290108955D
:100BA00080912801681720F4861B809328010895FE
:100BB00010922801089580912701681720F4861B60
:100BC00080932701089510922701089580912601AE
:100BD000681720F4861B8093260108951092260141
:100BE000089580912501681720F4861B80932501C4
:100BF00008951092250108958091230380FF12C06B
:100C00006091280185E0689FB00111247595679572
:100C10007595679560387105A8F561157105A1F1A5
:100C2000862F089581FF09C06091280185E0689FA3
:100C3000B001112475956795EDCF6091280182FD73
:100C40000AC0209122032223D1F0909127016091C4
:100C50002801291728F085E0689FB0011124DACF18
:100C6000269F9001112485E0829FA001839F500D53
:100C70001124692F70E0CA010E94CE2BCBCF65E012
:100C800070E0CECF8FE7089581E00895809123032F
:100C900080FF0CC06091260170E075956795759591
:100CA00067956115710549F1862F089581FF06C08A
:100CB0006091260170E075956795F3CF60912601EC
:100CC00082FD0BC0909121039923A1F06091250131
:100CD00080912601961738F0682F70E06038710512
:100CE00000F38FE70895899FC001112470E00E94EE
:100CF000CE2BF4CF61E070E0D7CF81E00895E3E13F
:100D0000E80FE331E0F5F0E0E75DF24D0C94E22B03
:100D10000E94FC05819580931E0308950E94FC05A6
:100D2000FACF0E94FC05819580931D0308950E94CF
:100D3000FC05FACF0E94460680931F0308950E9487
:100D400046068195F9CF0E9446068195809320033F
:100D500008950E944606FACF815F990B21E030E0AA
:100D600001C0220F8A95EAF780911C03822B8093A1
:100D70001C030895809123038160809323030895C9
:100D8000809123038260F9CF809123038460F5CFA3
:100D900040911D038D3E59F480911E0387FF0DC0C5
:100DA00010921E0341110BC01092220308C08E3E08
:100DB00081F480911E0318169CF3442381F08091E6
:100DC0001F0390912003892B09F05AC01092210330
:100DD00008958F3E49F447FFF0CF10921D03809194
:100DE0001E038111ECCFE0CF803F19F41416ACF351
:100DF000E4CF90911F03893F29F41916F4F610925D
:100E00001F03DBCF8A3F19F497FFD7CFF8CF90911C
:100E100020038B3F29F497FFD0CF10922003CDCF32
:100E20008C3F19F41916CCF3C8CF9FE0980F983077
:100E300090F4815F990B21E030E0B90102C0660FA8
:100E4000771F8A95E2F7CB01809590911C03892347
:100E500080931C03B2CF8D3F31F4809123038E7FAA
:100E600080932303AACF8E3F21F4809123038D7FAB
:100E7000F7CF8F3F09F0A1CF809123038B7FF0CF75
:100E80000895AF92BF92CF92DF92EF92FF920F93AD
:100E90001F93CF93DF93082F162FE901473908F0EE
:100EA00046E9E42FF0E0E05EFC4F111111C0E4913F
:100EB0003E2F2E2F2983E8833A83DF91CF911F9114
:100EC0000F91FF90EF90DF90CF90BF90AF9008957B
:100ED000E12EF12C249146E0049F50011124CC24F2
:100EE000CA94D12CC501B6010E94BA2B802F90E084
:100EF000880F991F35E5369FA001379F500D1124AB
:100F0000841B950BF82FFF0FF80FA6014E195F09F0
:100F1000249FC001259F900D1124E92F1F9FA00140
:100F20001124452F5527D601A41BB50B2A9FA001DC
:100F30002B9F500D1124352F86010F1B11090E9D7B
:100F4000D0010F9DB00D1E9DB00D1124AB2FBB27FE
:100F5000CA1ADB0A2C9DD0012D9DB00D11246330DF
:100F60007105D1F0FCEFAF16F3E0BF0670F461300D
:100F70007105B1F062307105B9F04FEFA416B104FC
:100F800008F098CF392FEB2F95CF6430710579F0A9
:100F900066307105B9F38ECFE52F322F292F8ACF16
:100FA000E22F252F392F86CF3B2FE22FF7CF322F7D
:100FB0002B2F80CF80911003982F9E7F61F481703A
:100FC00082608093100380911303873918F086E9BB
:100FD0008093130308958635B0F381708465F1CF53
:100FE000EDE0F3E0118282818460828308950895A8
:100FF000FA0181110994FB01FDCFE0911503F091F5
:101000001603309721F00190F081E02D099480E0E3
:10101000089520916E0230916F022817390771F000
:1010200090936F0280936E02E0911503F091160386
:10103000309721F00680F781E02D099408952091E2
:101040006C0230916D022817390771F090936D0290
:1010500080936C02E0911503F0911603309721F014
:101060000084F185E02D09940895809135029091D6
:101070003402981301C008958F5F8770FACFE92F6B
:10108000EE0FE90FEE0FE80F8E2F877041E001C0E1
:10109000440F8A95EAF7E695E695E69585E0E89FA0
:1010A000F0011124E450FE4F30E020E070E0519157
:1010B000DF011197CB01022E02C0969587950A9405
:1010C000E2F7817081958527842385278C932F5F94
:1010D0003F4F2530310559F70895E92FEE0FE90FFD
:1010E000EE0FE80F9E2F9770E695E695E69585E062
:1010F000E89FF0011124E450FE4F50E040E080E012
:10110000219130E0092E02C0369527950A94E2F726
:1011100021703327042E01C0220F0A94EAF7822B94
:101120004F5F5F4F4530510559F70895BF92CF92F9
:10113000DF92EF92FF920F931F93CF93DF938C0177
:10114000C0902E02D0902F02E0903002F090310239
:1011500080912A0290912B02A0912C02B0912D0235
:10116000C82AD92AEA2AFB2ACFE1D0E0BC2ED7012F
:10117000C6010C2E04C0B695A795979587950A943D
:10118000D2F780FD0EC0219788F7B12C8B2DDF910F
:10119000CF911F910F91FF90EF90DF90CF90BF9074
:1011A0000895B8018C2F0E948C03019761F3EECF54
:1011B000FF920F931F93CF93DF93FC0182810081F5
:1011C0001181C081F180882311F1662301F1C801EA
:1011D0000E949608D82F682FC8010E943F08EC2F64
:1011E000F0E086E0F89EE00DF11D11248CE3D89F1D
:1011F000E00DF11D1124EE0FFF1FE05EFB4F859106
:101200009491DF91CF911F910F91FF900895C801A4
:101210000E946D08D82FE3CFCF93DF93D82FC92F2B
:101220000E9496086D2F7C2FDF91CF910C948C0338
:101230000E940C09282F892F8F70392F32953F700B
:10124000903C80F43A30B0F4343020F4323090F4F2
:1012500080E008953630E1F781E0283E88F0213FB4
:10126000B9F70EC03C3011F03F3091F78695869566
:101270008695089581E0203F39F018F4283E40F724
:101280000895243F29F7FCCF0895A2ECB1E0EFEFD9
:1012900090E02D91821751F0EF3F19F4211101C018
:1012A000E92F9F5F9630A9F7EF3F09F408950E2EBE
:1012B000000CFF0BE054FE4F82830895E2ECF1E056
:1012C0009191891303C0DF0111971C9291E0E83CD2
:1012D000F907B1F70895809129028111109229022E
:1012E00008958091280290913302892B90912402D5
:1012F000892B8093C00190912902992391F0892B29
:101300008093C00120E082EC91E0FC0130810196E5
:1013100031112F5F31E0883C9307B9F721110E940A
:101320006B09E0911503F0911603309731F00280BC
:10133000F381E02D80EC91E009940895882339F041
:1013400090912802892B809328020C9471090895AA
:10135000882341F080959091280289238093280268
:101360000C947109089580E008952FB7F894809146
:10137000F7019091F801A091F901B091FA012FBF06
:1013800008950E94B50920911D0330911E03232B5F
:1013900021F08093190390931A0320911F03309139
:1013A0002003232B21F08093170390931803E091DF
:1013B0001503F0911603309749F082E080931B03E8
:1013C0000480F581E02D8BE193E009940895882352
:1013D00009F459C0823871F40E94FD0781FF53C09F
:1013E00089E30E9445090E94710989E30E945E0910
:1013F0000C947109833859F40E94FD0780FF43C0A3
:1014000083E50E9445090E94710983E5EFCF843886
:1014100059F40E94FD0782FF36C087E40E94450907
:101420000E94710987E4E2CF9CEF980F913AF0F2A5
:1014300090E2980F983088F4877021E030E0A9019D
:1014400002C0440F551F8A95E2F7CA01809590911A
:101450002802892380932802CBCF9BE5980F9330F5
:1014600020F490E080E00C94090898E5980F9731FB
:1014700020F490E080E00C941F088D3E20F00E9444
:10148000C8060C94C109089590E080E00E94090804
:1014900090E080E00E941F08109233021092240214
:1014A0000E94710986E0EBE1F3E0DF011D928A956D
:1014B000E9F71092220310922103109223030C9457
:1014C000C10960932A0270932B0280932C0290939F
:1014D0002D020C94440A60932E0270932F02809385
:1014E0003002909331020C94440A0F931F93CF93D0
:1014F000DF9300D000D0CDB7DEB741E050E060E030
:1015000070E004C0440F551F661F771F8A95D2F7FD
:1015100080912E0290912F02A0913002B091310261
:101520008A019B01082B192B2A2B3B2B09831A8339
:101530002B833C83C901B8010F900F900F900F903F
:10154000DF91CF911F910F910C946B0A0F931F9312
:10155000CF93DF9300D000D0CDB7DEB741E050E0AD
:1015600060E070E004C0440F551F661F771F8A9526
:10157000D2F7409550956095709580912E0290918C
:101580002F02A0913002B09131028A019B01082301
:1015900019232A233B2309831A832B833C83C90104
:1015A000B8010F900F900F900F90DF91CF911F9186
:1015B0000F910C946B0A909132028095892380934D
:1015C0003202282F277039F4282F082E000C330BF5
:1015D0009217130621F49091440392FF07C085955A
:1015E000859585950E94A60A109232020895CF93A0
:1015F000DF9300D000D0CDB7DEB78FB7F89420913D
:10160000F7013091F8014091F9015091FA012983D5
:101610003A834B835C838FBF69817A818B819C8104
:101620000F900F900F900F90DF91CF9108950C9431
:10163000F70A9C014FB7F8948091F7019091F80157
:10164000A091F901B091FA014FBF821B930B08954D
:101650008091F2010895FC01CB012091D4013091D9
:10166000D5012617370790F0009729F42091E8005C
:101670002E772093E80040E0009751F4411108C014
:101680008091E80082FF31C080E00895C901F3CF66
:10169000209127032223A9F12530A9F12091E80008
:1016A00023FD2DC02091E80022FDEACF2091E80023
:1016B00020FFE2CF3091F3002091F200009719F063
:1016C0002830310558F041E02830310509F040E07C
:1016D0002091E8002E772093E800CECF41914093EF
:1016E000F10001972F5F3F4FE9CF809127038823B7
:1016F00041F0853041F08091E80083FFC1CF81E067
:10170000089582E0089583E008958091CE0187FFD7
:1017100013C08091E80082FF06C08091E8008B77BB
:101720008093E80004C0809127038111F2CF0895CF
:10173000809127038823D9F38091E80080FFF8CFB8
:101740008091E8008E77ECCF2091E4003091E500A5
:1017500095E6A9012091EC00822F817020FF06C040
:101760008091E80080FF06C080E008952091E800A5
:1017700022FD1AC080912703882389F0853089F0E3
:101780008091EB0085FD0FC02091E4003091E500D1
:1017900042175307F9F29150E1F684E0089582E090
:1017A000089583E0089581E00895E8EDF0E08081F8
:1017B0008E7F80831092E2001092DA001092E10096
:1017C000A0EEB0E08C9181608C9380818F778083D4
:1017D00019BCA7EDB0E08C918E7F8C9380818F7EB9
:1017E00080831092CD010895EF92FF920F931F9383
:1017F000CF937C018B010E94A40BC82F811117C0CD
:101800008091E80085FD0BC08091E8008E77809381
:10181000E8000E94A40B882399F3C82F08C0F701A1
:1018200081917F018093F1000150110949F78C2FBC
:10183000CF911F910F91FF90EF900895982F909363
:10184000E900242F762F50E0891731F07091EC00D9
:101850002091ED005091F00021FD06C09F5F973070
:1018600071F78093E90008953091EB003E7F30934B
:10187000EB003091ED003D7F3093ED003091EB00B7
:1018800031603093EB007093EC002093ED005093A7
:10189000F0002091EE0027FDE1CF0895CF92DF9276
:1018A000EF92FF920F931F93CF93DF93C8EDD0E099
:1018B00088818F7E8883E7EDF0E08081816080837E
:1018C00084E082BF81E08093CD0188818E7F888310
:1018D00002EE10E0F80110821092DA0081EEC82EBC
:1018E000D12CF601108288818F7788838881806867
:1018F000888388818F7D888319BC1092270310927A
:10190000CC011092E9011092CB0190EEE92EF12C5E
:10191000F70180818B7F808388818160888342E0AA
:1019200060E080E00E941E0CF60180818E7F808343
:10193000F801808181608083808188608083F701E5
:1019400080818E7F8083888180618883DF91CF91C1
:101950001F910F91FF90EF90DF90CF9008958091AD
:101960002803811110C08091D80080618093D80035
:101970008AE18A95F1F700C08091D90080FF0AC002
:1019800081E08093280381E090912803913009F051
:1019900080E0089582E0809328030E94D50B109286
:1019A0002703F1CF609116018091100380FF20C0C2
:1019B0008091150143E0849FC00111248F529D4FF7
:1019C000519A2BB12D7F3BB132605FB7F894FC0187
:1019D000649FE00DF11D1124BF0168177907D1F450
:1019E0005FBF8FE594E00197F1F700C00000089514
:1019F000809117019091180123E0829FF00111243A
:101A0000EF52FD4F8917A0F61182108212828F5F6C
:101A10003396F8CFFC014191CF01E8E03BB90000DB
:101A200000C047FF2BB9440F000000C000C000C039
:101A30002BB900C0EA9591F7D0CFE0E1F3E08081C7
:101A40008E7F80830E94F007EDE0F3E08281816069
:101A500082832FEF80E792E0215080409040E1F7B1
:101A600000C000000C94D20C9091100390FF14C0A1
:101A7000909117012091180133E0939FF0011124F8
:101A8000EF52FD4F921710F00C94D20C81836083BB
:101A900042839F5F3396F6CF0895CF93DF9300D0B4
:101AA0000F92CDB7DEB79091100390FF0FC09E014B
:101AB0002F5F3F4F0E9441074B8169818A810F90C0
:101AC0000F900F90DF91CF910C94340D0F900F90E9
:101AD0000F90DF91CF910895CF93DF93EC01EC81CC
:101AE000F0E0E55EFD4F4491E0E1F3E06281818149
:101AF0000E944D0D8C818F5F8C83DF91CF91089573
:101B0000CF93DF93EC01E0E1F3E0438162818C81CC
:101B10000E944D0D8C818F5F8C83DF91CF91089552
:101B20000F931F93CF93DF9300D00F92CDB7DEB703
:101B30008C018091CE0281110AC09E012F5F3F4F20
:101B400046E96FEF0E9441078A818093CE02F80137
:101B50006481613049F06230F1F08091CE0240E062
:101B6000662331F040E019C06091CE0240E080E091
:101B70000E94340DF801848190E0019663E070E0EA
:101B80000E94CE2B84830F900F900F90DF91CF9106
:101B90001F910F9108954091CE0280E060E0E8CF60
:101BA000EF92FF921F93CF93DF93EC0110E0EE24AE
:101BB000EA94F12C60911901161770F00E94D20C72
:101BC0009A818C8190FF25C08F5F8C83DF91CF91AC
:101BD0001F91FF90EF90089580911701810F992731
:101BE000991F9C01220F331F280F391F2F523D4F81
:101BF00070E0C7010E94CE2B962F8C814091130379
:101C000060911203199F800D11240E9441071F5FEC
:101C1000D1CF8150DACF9F92AF92BF92CF92DF9215
:101C2000EF92FF920F931F93CF93DF93EC018A8182
:101C3000BB24BA9480FD02C0BB24B3948C81A090D5
:101C40001901811109C091E0B91202C08FEF8A0D0C
:101C50008093D00281E08C83F12CE12CEA14F0F027
:101C60000E94D20C9091D002E1E0BE1259C0809146
:101C700019018150992319F08FEF890F91E080931A
:101C8000D0029C83DF91CF911F910F91FF90EF9035
:101C9000DF90CF90BF90AF909F90089580911701F3
:101CA0008E0D9F2D911D8C01000F111F080F191F04
:101CB0000F521D4FF80111821082128234E0C32EA0
:101CC000D12C912C8091D002890D83312CF162E1CD
:101CD0000E94AC2B892F082E000C990B8E159F05A6
:101CE00091F4809113038C9DA0018D9D500D1124C2
:101CF00055954795559547959801609112038091A8
:101D000011030E9441079B0CF1E0CF1AD108D1F6D4
:101D10008FEFE81AF80AA2CF87FFDDCF8A0DDBCF5D
:101D2000892F90E001966091190170E00E94CE2BFE
:101D3000982FA5CFFF920F931F93CF93DF93EC01C2
:101D40008C81811109C081E08C831092CF0292E0D6
:101D50009093140180931301109117019091180131
:101D600083E0189FF0011124EF52FD4F812F891756
:101D700068F100E093E0F92E60911901061760F117
:101D80000E94D20C809113012091CF02280F209342
:101D9000CF0290911401980F90931401191654F4E6
:101DA000022E000C330B409119014150550B2417A2
:101DB000350734F0819580931301813009F41C823A
:101DC000DF91CF911F910F91FF90089511821082A2
:101DD00012828F5F3396CBCFE02FF0E070E0CF011F
:101DE0000E94CE2B810F482F50E02091CF02022E6F
:101DF000000C330BE217F307BCF020911401022E04
:101E0000000C330B2E173F077CF08F9D900111249F
:101E10002F523D4F409113036091120380911103A3
:101E20000E9441070F5FA8CFFA01EE0FFF1FE40FDA
:101E3000F51FEF52FD4F118210821282F3CFEF9205
:101E4000FF920F931F93CF93DF93CDB7DEB72E97FB
:101E50000FB6F894DEBF0FBECDBF8D879E87AD85D0
:101E6000BE8514961C91212F30E0D9010E94182DB7
:101E70009B01AC010E94E32C69837A838B839C8352
:101E8000E0E2F0E0E11BF109A5E5B0E09B01AC0167
:101E90000E94E32C69877A878B879C879F01DF01EB
:101EA0000E94E82B9B01AC010E94EE2C6D837E8387
:101EB0008F8398879B01AC0189819A81AB81BC811A
:101EC000280F391F4A1F5B1F69857A858B859C8582
:101ED0000E94F62CF22E422F50E099E29F1588F1D5
:101EE000A3E02A9F9001112435952795122F109574
:101EF00000E085E5E82EEF1880911901081778F1C8
:101F00000E94D20CED85FE85948181E0992319F021
:101F1000903219F48FEF8093120180911201890F92
:101F2000AD85BE8514968C932E960FB6F894DEBFC1
:101F30000FBECDBFDF91CF911F910F91FF90EF901A
:101F4000089585E590E0841B950B9C01220F331FBB
:101F5000280F391F37FFC8CF2F5F3F4FC5CF8E2DBA
:101F600001FD8F2D40911701400F5527551F9A01F4
:101F7000220F331F240F351F2F523D4F412F6091E9
:101F800012030E9441070F5FB7CF0F931F93CF93A8
:101F9000DF93EC0110E000E0909119019017110619
:101FA00009F06CF40E94D20C8C8190E00196817053
:101FB00099278C83DF91CF911F910F910895809184
:101FC0001701A801480F511D9A01220F331F240F3A
:101FD000351F2F523D4F4C816091120380911103A8
:101FE00096959017110651F04CF0442349F040911A
:101FF00013030E9441070F5F1F4FCECF4423B9F355
:1020000040E0F7CFCF93DF93D82FC92F81E08093A3
:10201000E9008FEF9091E800815095FD06C095EDA5
:102020009A95F1F700008111F5CF8091E80085FFC6
:1020300016C050E040E068E070E08D2F9C2F0E94B9
:10204000F40B8091E8008E778093E80088E0ED2F14
:10205000FC2FAAEEB1E001900D928A95E1F7DF9195
:10206000CF91089522E02093E9002FEF3091E8000E
:10207000215035FD06C035ED3A95F1F700002111EC
:10208000F5CF2091E80025FF0BC050E040E066E06E
:1020900070E00E94F40B8091E8008E778093E80056
:1020A0000895CF93DF9300D00F92CDB7DEB7909114
:1020B0002703943019F589836A837B8382E08093B8
:1020C000E9008FEF9091E800815095FD06C095EDF5
:1020D0009A95F1F700008111F5CF8091E80085FF16
:1020E0000DC050E040E063E070E0CE0101960E9438
:1020F000F40B8091E8008E778093E8000F900F90AA
:102100000F90DF91CF910895BC0183E00C945110A2
:10211000BC0184E00C945110AF92BF92CF92DF9239
:10212000EF92FF920F931F93CF93DF9300D000D0D5
:102130000F92CDB7DEB78FE7E82E81E0F82E99E356
:10214000A92E93E0B92E00E0CC24C394D12CD70162
:102150008D917D01F894E82FE295EF70F0E021A1D8
:102160008F70A60102C0440F551F8A95E2F7CA017D
:10217000922F982B91A392A18095892382A3789482
:1021800000C0E9E8F1E030E020E010E04191A42F48
:10219000A295AF70A05EB0E08C9190E04F7002C04D
:1021A000959587954A95E2F780FD47C08C2D022EC4
:1021B00001C0880F0A94EAF7182B2F5F3F4F263093
:1021C000310521F7F701319780810E942E0550EAF1
:1021D0005A95F1F7D5018D915D01181781F1FD0137
:1021E0003197108381E0082BB4E8EB16B1E0FB06D1
:1021F00009F0ADCF10913803002319F181E08093ED
:102200002B030E94B50990932A03809329038091A0
:10221000290390912A030E94190B0697B0F0A12F71
:10222000B0E0A25DBC4F85E0E9E3F3E001900D92E0
:102230008A95E1F710922B0308C080E0BDCF80E0C3
:10224000D2CF80912B038111E2CF0E94AF0C182FC7
:1022500060913803882309F459C01A821982FE015B
:10226000339683E0DF011D928A95E9F7862F90E08F
:10227000BE016F5F7F4F825D9C4F0E946E2981116E
:1022800025C080912D038F5F80932D038630E0F170
:10229000E0912C03F0E0E25DFC4F85E0DF011D9250
:1022A0008A95E9F7011101C0012F802F0F900F903F
:1022B0000F900F900F90DF91CF911F910F91FF9092
:1022C000EF90DF90CF90BF90AF90089510922D03C4
:1022D000E0912C03F0E0BF01625D7C4FDE011196BE
:1022E0009E012A5F3F4F10E0FB014191BF019D918C
:1022F000491731F0AF0141505109FA019083182F6D
:10230000A217B30789F7CECF10E0CCCF70E0625DA3
:102310007C4F80912C0390E0825D9C4F0E94AA2903
:10232000C1CF0F931F93CF93DF938B01D82FC92F6A
:102330000E94DA07A8016D2F7C2F88E090E0DF91E2
:10234000CF911F910F910C94A22CE0E1F3E08DE06E
:10235000808311828FEF828386E983831482EDE08C
:10236000F3E08281836082836DE070E08FEF96E915
:102370000C949111CF93DF9300D000D0CDB7DEB78E
:1023800080911403833018F48F5F8093140380913D
:10239000100390911103A0911203B091130389834C
:1023A0009A83AB83BC83BC01CD010F900F900F903B
:1023B0000F90DF91CF910C949111CF93DF9300D0C8
:1023C00000D0CDB7DEB780911403882319F0815077
:1023D000809314038091100390911103A091120334
:1023E000B091130389839A83AB83BC83BC01CD0175
:1023F0000F900F900F900F90DF91CF910C9491114F
:10240000AF92BF92CF92DF92EF92FF920F931F9302
:10241000CF93DF9300D000D000D00F92CDB7DEB7BE
:10242000182FF62E042FD22E9091100390FF96C0F5
:10243000E92FE695AE2FB0E0AC5ABE4F8C91809359
:102440000D039E7F923009F045C09E012F5F3F4FE4
:10245000812F0E9441074B8169818A810E94340D3E
:1024600080911103811308C0809112038F1104C061
:1024700080911303801729F080910F03826080936D
:102480000F0310931103F092120300931303DD2046
:1024900009F464C08091100390911103A09112037C
:1024A000B09113038C839D83AE83BF83BC01CD01A8
:1024B00027960FB6F894DEBF0FBECDBFDF91CF9148
:1024C0001F910F91FF90EF90DF90CF90BF90AF9052
:1024D0000C949111823019F400911303C1CF86300E
:1024E00019F410911103BCCF8930D9F3893109F067
:1024F000B7CFE9518E2F8170C82EE695F0E0E55EEA
:10250000FC4FA590B490E12CBB2460911901E61614
:1025100018F00E94D20CA4CF2E2D30E0EA9CC0010E
:10252000EB9C900D112470E00E94BA2B812FC110FA
:1025300013C0860F90911701A901490F511D9A01EF
:10254000220F331F240F351F2F523D4F402F6F2D69
:102550000E944107E394D9CF861BECCF27960FB694
:10256000F894DEBF0FBECDBFDF91CF911F910F91C9
:10257000FF90EF90DF90CF90BF90AF900895E0E193
:10258000F3E0818121E043816281885F0C94001235
:10259000E0E1F3E0818121E04381628188500C9485
:1025A0000012E0E1F3E0628121E1620F08F46FEFD5
:1025B00021E0438181810C940012E0E1F3E062812B
:1025C00021E1621B08F460E021E0438181810C94E9
:1025D0000012E0E1F3E0438121E1420F08F44FEF04
:1025E00021E0628181810C940012E0E1F3E04381FB
:1025F00021E1421B08F440E021E0628181810C94DA
:1026000000124F925F926F927F928F929F92AF9241
:10261000BF92CF92DF92EF92FF920F931F93CF93CF
:10262000DF93FC016280448081E08483EBE1F2E08F
:102630007490EAE9F2E0E491812C75E0972EF2E0E3
:10264000CF2EDD24D394AA24AA94B12C55245A94D5
:10265000E7190E2F10E080911901881690F0DF9194
:10266000CF911F910F91FF90EF90DF90CF90BF908F
:10267000AF909F908F907F906F905F904F900C9451
:10268000D20CE82CF12C82E0861568F09E9CF001BB
:102690009F9CF00D1124EC58FD4F80911103808315
:1026A000809112038183411023C09E9CF0019F9C66
:1026B000F00D1124EC58FD4F138212828091170106
:1026C0008E0D9F2D911D9C01220F331F280F391F46
:1026D0002F523D4F9E9CF0019F9CF00D1124EC5811
:1026E000FD4F4281618180810E9441078394B3CF75
:1026F0009E9CE0019F9CD00D1124CC58DD4F8B8116
:102700008823E9F081508B83859DC00111246C8161
:1027100070E00E94BA2BFB01FF27E55EFD4F84911C
:10272000E82FE719E59DC0011124B8010E94BA2BDA
:1027300080911303689FB00111247A83BFCF0E9458
:102740005F2CAC0190911303969591589C9D90013C
:102750009D9D300D1124232F3327421753070CF072
:10276000ADCF82E0861588F40E945F2CB5010E94EF
:10277000CE2B88830E945F2C209112032695622F16
:1027800070E00E94CE2B280F29839E9CF0019F9C15
:10279000F00D1124EC58FD4F128280911303893CF7
:1027A00058F088EC9E9CF0019F9CF00D1124EC5891
:1027B000FD4F8483838382CF8431A0F784E1F2CFFD
:1027C000CF93C0914403C2FB992790F9981781F0E9
:1027D00080FBC2F9C09344036091430384E090E01E
:1027E0000E94902C6C2F82E290E0CF910C94902C60
:1027F000CF91089510922802E2ECF1E086E0DF012B
:102800001D928A95E9F70C94440A0E94FA132FEF5F
:1028100084E39CE0215080409040E1F700C000003C
:1028200087E797E7909301088093000888E19AE092
:102830000FB6F894A895809360000FBE9093600047
:10284000FFCF0F931F93CF93DF9300D000D0CDB76E
:10285000DEB741E050E060E070E08A019B0104C017
:10286000000F111F221F331F8A95D2F709831A8385
:102870002B833C83C901B8010E94610A0F900F901D
:102880000F900F90DF91CF911F910F910C94FA133D
:102890001F93CF93DF93CDB7DEB7AA970FB6F89407
:1028A000DEBF0FBECDBF8EEC91E0FC010196209102
:1028B000F100208321E0863D9207B9F78091CF0196
:1028C000893009F456C0C8F4823009F4B1C08330AD
:1028D00009F480C0813071F18091E80083FF78C2F3
:1028E0008091CE019091CF019A3008F071C2E92F0A
:1028F000F0E0E45CF24D0C94E22B8A3009F487C0DE
:102900008B3051F78091CE01813231F78091D20125
:102910009091D301892B01F78091E800877F809304
:10292000E8000E94850B8091D001809311010E94E4
:10293000FA13D2CF8091CE01813A71F68091E800EE
:10294000877F8093E8008091D2019091D301892BF9
:1029500061F468E08AEE91E070E00E942B0B8091B8
:10296000E8008B778093E800B7CF60E090E080E0EC
:10297000F3CF8091CE01813209F0AECF8091D201A8
:102980009091D301029708F0A7CF8091E800877F4C
:102990008093E8008091E80082FF17C09091F300D7
:1029A0008091F200029729F48091F1008B7F8130B1
:1029B00021F48091F1008093F2018091E8008B77FF
:1029C0008093E8000E94850B87CF809127038111B7
:1029D000E1CF82CF8091CE01813A09F07DCF809105
:1029E000D2019091D301892B09F076CF8091E80034
:1029F000877F8093E8008091E80080FFFCCF809182
:102A000011018093F1008091E8008E77D9CF8091F9
:102A1000CE01813209F060CF8091E800877F8093FA
:102A2000E8000E94850B8091D1018093CA0154CFA8
:102A30008091CE01813A09F04FCF8091E800877FE5
:102A40008093E8008091E80080FFFCCF8091CA016C
:102A5000D8CF803899F0823809F0BAC18091D2017C
:102A60008F70873008F0B4C18093E9008091EB004B
:102A700085FB882780F91092E90006C08091CB0180
:102A80009091E901911182609091E800977F909375
:102A9000E8008093F1001092F1008091E8008E77B9
:102AA00093C1882309F481C1823009F091C18091DA
:102AB000D001811184C18091D2018F702FEF280F36
:102AC000263008F085C18093E9002091EB0020FFBB
:102AD00076C1933031F48091EB0080628093EB00FB
:102AE0006EC19091EB0090619093EB0021E030E09B
:102AF00001C0220F8A95EAF72093EA001092EA00BB
:102B00008091EB008860EACF811162C11091D00101
:102B10001F778091E3008078812B8093E300809180
:102B2000E800877F8093E8000E94850B8091E80091
:102B300080FFFCCF8091E30080688093E30082E017
:102B4000111183E08093270343C18058823008F03D
:102B50003FC14091D0015091D1014C3D83E05807D5
:102B600099F583E08A838AE289834FB7F894DE017E
:102B7000139620E03EE051E2E32FF0E0509357003F
:102B8000849120FF03C082958F703F5F8F708A30E1
:102B9000C8F0895C90E08D939D932F5F243161F79D
:102BA0004FBF8091E800877F8093E8006AE270E081
:102BB000CE0101960E942B0B8091E8008B778093C9
:102BC000E80006C1805DE6CF2091D2013091D301AB
:102BD000852F99278330910509F160F481309105A3
:102BE00009F472C0029709F0F3C08BE390E0E7E6C6
:102BF000F1E029C08132910509F45AC0829709F0A9
:102C0000E7C02115310509F469C02130310509F00B
:102C1000DFC08BE790E0ECEAF0E015C0CA0199272D
:102C20004130B1F18230910509F43AC0892B09F0A5
:102C3000CFC0E2E0F2E0E4918E2F90E0E2E0F2E03B
:102C4000009709F4C5C02091E800277F2093E80091
:102C50002091D4013091D5018217930708F49C018B
:102C600040E02115310509F03EC041113CC0809182
:102C7000E80082FDA1CF80912703882309F49CCF2F
:102C8000853009F499CF8091E80083FFF0CF94CF8D
:102C9000E2EFF1E0E4918E2F90E0E2EFF1E0D0CFAF
:102CA000E4EBF1E0E4918E2F90E0E4EBF1E0C8CFAB
:102CB0002115310571F02130310509F089C089E015
:102CC00090E0E2E9F1E0BFCF82E190E0E2EAF1E0FA
:102CD000BACF89E090E0E9E7F1E0B5CF80E490E099
:102CE000E7E2F1E0B0CF80912703882309F464CFB5
:102CF000853009F461CF8091E80083FD5DCF80913C
:102D0000E80082FDB4CF8091E80080FFAACF9091C7
:102D1000F3008091F2002115310519F088309105FA
:102D200050F041E0089709F040E08091E8008E778C
:102D30008093E80096CF44914093F1003196215062
:102D400031090196E8CF803809F042C08091E8004F
:102D5000877F8093E8008091CC018093F1009DCE25
:102D6000811136C01091D001123090F58091E800A9
:102D7000877F8093E8001093CC010E94850B11237C
:102D800011F084E005C08091E30087FDFACF81E077
:102D90008093270342E061EC81E00E941E0C42E236
:102DA00061EC82E00E941E0C13C08091D001813042
:102DB00079F481E0933009F080E08093E90110928A
:102DC000E9008091E800877F8093E8000E94850BEE
:102DD0008091E80083FF0AC08091E800877F80939C
:102DE000E8008091EB0080628093EB00AA960FB61A
:102DF000F894DEBF0FBECDBFDF91CF911F91089534
:102E00006AEE7EEF90E080E00E94AE2C60E082E00F
:102E100090E00E94902C60E083E090E00E94902C73
:102E200010922A0210922B0210922C0210922D0264
:102E300060E084E090E00E94902C60E082E290E00C
:102E40000E94902C60E085E090E00E94902C60E071
:102E500086E090E00E94902C6FEF87E090E00E9467
:102E6000902C40E050E0BA0188E090E00E94A22C53
:102E700060E08DE090E00E94902C40E050E0BA01CC
:102E800088E190E00E94A22C60E087E190E00E943F
:102E9000902C40E050E0BA018CE190E00E94A22C1E
:102EA00070E060E080E290E00E94AE2C40E050E0F4
:102EB000BA0188E190E00E94A22C40E050E0BA0103
:102EC0008FE090E00E94A22C40E050E0BA0183E144
:102ED00090E00C94A22C8B3258F48530C0F0EBEFCC
:102EE000E80FE632A0F4F0E0EA5BF24D0C94E22B3E
:102EF000833450F48A3308F050C0853309F449C054
:102F0000883329F481E00895833409F442C080E0D5
:102F100008950E940017F6CF80912603807F80934A
:102F2000260381E08093250308950E940514909163
:102F30002603892F8E7F90FF81608093260380FD7A
:102F4000E1CF817F80932603DDCF90912603892FE7
:102F50008D7F91FF82608093260381FFD3CF809184
:102F600026038160EFCF90912603892F8B7F92FFFC
:102F700084608093260382FDF2CFC4CF9091260314
:102F8000892F877F93FF88608093260383FDE7CF97
:102F9000B9CF80E00E942114B5CF8953FBCF8D516A
:102FA000F9CFCF93C82F882309F485C08238C1F4A4
:102FB0000E94FD0781FD7FC089E30E9445090E94B0
:102FC00071092FEF31EE84E0215030408040E1F76D
:102FD00000C0000089E30E945E09CF910C94710942
:102FE0008338A1F40E94FD0780FD65C083E50E943F
:102FF00045090E9471099FEF21EE34E09150204075
:103000003040E1F700C0000083E5E5CF8438A1F44B
:103010000E94FD0782FD4FC087E40E9445090E947F
:1030200071098FEF91EE24E0815090402040E1F74C
:1030300000C0000087E4CFCF8CEF8C0F813A08F0FE
:1030400087C080912503813079F0823049F1811168
:1030500070C080912802823209F06DC08C2F0E94CE
:103060006B17811128C067C0809128028232B1F3AA
:10307000C43171F030F4CB3089F0C03161F080E0C0
:1030800005C0C93229F081E0C833C9F78170E9CFA2
:1030900010922503F4CF82E08093250381E0F6CFE0
:1030A000CB3481F198F4C43240F4CE3100F5C7300E
:1030B00079F1C43121F0CF910895C932E1F78091BF
:1030C0002502882381F010922502F5CFC135C1F089
:1030D00061E0C235C1F06AE0CE3469F78091250223
:1030E000CF910C94AB0581E080932503E4CFCE51C2
:1030F000EC2FF0E0E65BFE4F808180932502DBCF72
:1031000061E0ECCF6AE080912502CF910C944705F5
:103110001092240384E180932901C09328018CE359
:103120008093270188E08093260188E2809325011F
:10313000C2CF10922503E2ECF1E08191C817D9F1DA
:1031400031E0E83CF307C9F78C2F0E94450945CFD1
:1031500080E28C0F883068F4C77021E030E001C055
:10316000220FCA95EAF780912802822B80932802C9
:1031700034CF8BE58C0F833038F42C2F2452330B53
:10318000C901CF910C940908E8E5EC0FE73150F440
:10319000F0E0EE0FFF1FE157FE4F80819181CF914C
:1031A0000C941F08CD3E08F486CF8C2F0E947F061A
:1031B000CF910C94C1098C2F0E945E090E94710965
:1031C000C3CF0F931F93CF93C82F10E000E0893334
:1031D00011F400E510E08C2F0E94D11701151105A4
:1031E00031F48C2FCF911F910F910C94E7098FE947
:1031F0009FE00197F1F700C0000001501109EECFE8
:10320000FF920F931F93CF93DF93C62FD42F122FCC
:103210008823A9F0609326020E94B5099093C90102
:103220008093C801C77081E001C0880FCA95EAF792
:10323000DF91CF911F910F91FF900C949E09809187
:103240002602681334C08091C8019091C9010E9480
:10325000190B883C910558F500E20D0FCD17A9F028
:10326000C770FF24F3948F2D01C0880FCA95EAF729
:103270000E94A809083048F48D2F877001C0FF0C08
:103280008A95EAF78F2D0E949E09812F0E94E118EE
:103290000830A0F4D77081E001C0880FDA95EAF712
:1032A000DF91CF911F910F91FF900C94A809C770E7
:1032B00081E001C0880FCA95EAF7F2CFDF91CF9184
:1032C0001F910F91FF9008958130E9F480912E02B3
:1032D00090912F02A0913002B09131020097A10588
:1032E000B10561F0B695A79597958795817031F0F6
:1032F0008BEA611101C08CEA0C94E11889EA611132
:10330000FBCF8AEAF9CF81111FC080912E029091E4
:103310002F02A0913002B09131020097A105B105B2
:1033200071F022E0B695A795979587952A95D1F7E4
:10333000817029F08FE46111DFCF80E5DDCF81E579
:103340006111DACF82E5D8CF0895CF9384E090E081
:103350000E947C2CC82F82E290E00E947C2C982F47
:103360008C2FCF91089580910F03089510920F0331
:103370000895CF93DF93EC0185E0E0E1F3E0DE0117
:1033800001900D928A95E1F780910D0390910E03C3
:10339000A0910F038D839E83AF83DF91CF9108951A
:1033A000E0917302F0E0EF58FD4F2081FC01208393
:1033B0000895FF920F931F93CF93DF93D0917002E4
:1033C0000D2F10E00F581D4FFC01C081F8018081C6
:1033D000C81BFC2E80E01F147CF09C2FC7FD90E0E2
:1033E000C91BC11114C08823E9F0DF91CF911F914F
:1033F0000F91FF900C94170BFA94F80180818F5F66
:10340000808360E08D2F0E94641981E0E4CFCF5F5C
:10341000F80180818150808361E08D2F0E946419C2
:1034200081E0DFCFDF91CF911F910F91FF90089541
:103430001F921FB61F9211248F939F93AF93BF9338
:103440008091FB01811113C08091F7019091F801E7
:10345000A091F901B091FA014196A11DB11D80938F
:10346000F7019093F801A093F901B093FA01BF918D
:10347000AF919F918F911F901FBE1F9018957894C8
:103480001F921FB61F9211248F939F93AF93BF93E8
:103490008091F7019091F801A091F901B091FA01A2
:1034A0000196A11DB11D8093F7019093F801A0939F
:1034B000F901B093FA01BF91AF919F918F911F9045
:1034C0001FBE1F901895CF92DF92EF92FF92CF937D
:1034D000DF9300D000D0CDB7DEB76B017C010E9436
:1034E000AF0C81110EC00E94F70AC61AD70AE80A6B
:1034F000F90AC092F301D092F401E092F501F09242
:10350000F6010F900F900F900F90DF91CF91FF90E9
:10351000EF90DF90CF900895CF93DF9300D000D04D
:10352000CDB7DEB70E94AF0C882341F00F900F900B
:103530000F900F90DF91CF910C94F70A0E94F70A39
:1035400069837A838B839C838091F3019091F4014A
:10355000A091F501B091F60129813A814B815C81FE
:10356000280F391F4A1F5B1FCA01B9010F900F9026
:103570000F900F90DF91CF9108950E94AF0C8111B1
:103580000C94B5090E948C1ACB0108956091100328
:10359000669570E04BE050E08AE191E00E946F2C6C
:1035A000892B19F481E080930E030E94BD1A909339
:1035B00008038093070380910F03846080930F03B7
:1035C0000895CF93DF9300D000D0CDB7DEB79091B0
:1035D000100390FF4CC0882309F442C08B3208F0DE
:1035E00041C08F77880F909110039170892B809341
:1035F000100380910F03816080930F03662381F095
:103600008091100390911103A0911203B0911303C4
:1036100089839A83AB83BC83BC01CD010E94911145
:1036200060911003669570E04BE050E08AE191E014
:103630000E946F2C892BC1F00E94F00781E08093DB
:103640000A0320E04091130360911203809111035B
:103650000F900F900F900F90DF91CF910C9400126C
:1036600081E0C0CF8AE2BECF0E94C61AE7CF0F909A
:103670000F900F900F90DF91CF91089580911003DC
:1036800086958F5F8B3208F081E061E00C94E11A3F
:103690009091100396958FEF890F913009F48AE28B
:1036A00061E00C94E11A9091100390FF07C0969589
:1036B000981720F0961710F40C943E1B61E00C94C0
:1036C000E11A8F929F92AF92BF92CF92DF92EF92C8
:1036D000FF920F931F93CF93DF9300D000D00F92F0
:1036E000CDB7DEB78C01DC019C9111968C911197BE
:1036F00013962D913C91232B21F089238F3F09F0C4
:10370000D0C40F900F900F900F900F90DF91CF913A
:103710001F910F91FF90EF90DF90CF90BF90AF90EF
:103720009F908F90089527E245EE65EED80112969E
:103730008C910E94001980913202877011F3D80198
:1037400012968C918823E9F282E00F900F900F90EF
:103750000F900F90DF91CF911F910F91FF90EF90FD
:10376000DF90CF90BF90AF909F908F900C94DB0A2A
:1037700026E241EE60EEF8018281DBCF26E241EEE7
:1037800062EEF9CF29813A812B5F3C452930310522
:1037900008F4C5C489809A8026E182162CE5920639
:1037A00009F405C589809A802BE582162DE59206DD
:1037B00009F0A4C181E0C9C1E981FA81E350FC4567
:1037C000809143038160E331F105C8F4E459F24D7F
:1037D0000C94E22B89819A818B5F9C45099708F0B4
:1037E000B2C4E981FA81EC5FFC45E830F10590F460
:1037F000E158F24D0C94E22B809143038260809358
:103800004303A1C4809143038460F9CF80914303B3
:103810008860F5CF8091440381608093440393C412
:10382000809144038260F9CF809143038061E7CFA8
:10383000809143038062E3CF809143038064DFCFB4
:103840000E94FA13809143038068D9CF809143038B
:103850008C60D5CF809144038360DFCF8091430398
:103860008E7FCDCF809143038D7FC9CF809143035D
:103870008B7FC5CF80914303877FC1CF8091440365
:103880008E7FCBCF809144038D7FC7CF8091430340
:103890008F7EB5CF809143038F7DB1CF809143035D
:1038A0008F7BADCF0E94FA13809143038F77A7CF10
:1038B00080914303837FA3CF809144038C7FADCF5E
:1038C0008091430382FB992790F921E0922790FB96
:1038D00082F990FB83F993CF80914403982F9095C0
:1038E00091708E7F892B90FB81F997CF0E94FA13FC
:1038F00090914303892F97FB87F9805880CF61E02F
:103900008EE090E00E94902C1EC460E0F9CF85E329
:103910005CC480912702811104C089E20E945E0983
:1039200056C485E3FBCF809128028272A980BA80B9
:1039300027EDA2162CE5B20680F433ECA3163CE585
:10394000B306A8F0F501E45CFC45E331F10508F0AD
:1039500052C0E957F24D0C94E22B89809A806AE2BA
:1039600085E22EE582162DE5920609F4AFC0F80136
:103970008281E080F180882309F4EEC0C7010E94B3
:1039800096088983682FC7010E943F08B701898183
:103990000E948C038D839983D8011296AC90129764
:1039A00015969C9092943FE093228091320287700A
:1039B000A1F0CA2CAA2091F0892F807F803421F0B9
:1039C0008D81805E883048F082E00E94DB0A809121
:1039D00032028770CC24C3948111C12C89818295D5
:1039E0008F70E82EF12C8C3008F0F4C0F701E65609
:1039F000F24D0C94E22B8091100380FF26C08E7F45
:103A0000809310038091100390911103A0911203F1
:103A1000B091130389839A83AB83BC83BC01CD012E
:103A20000E9491110E94F00780910F0381608093A2
:103A30000F039FEFA0E7B2E09150A040B040E1F744
:103A400000C000000E94D20C76CE816080931003EB
:103A500061E086950E94E11A6ECE48E45BE16EE378
:103A60007BE10E94F80767CE4EE35BE168E47BE10F
:103A7000F8CF48EC52E16FEB72E1F3CF4FEB52E13C
:103A800068EC72E1EECF4DED52E161ED72E1E9CF0C
:103A900041ED52E16DED72E1E4CF45EF52E169EEA7
:103AA00072E1DFCF49EE52E165EF72E1DACF4DED21
:103AB00051E16AEB71E1D5CF4AEB51E16DED71E176
:103AC000D0CF61E081E0C6CF65E082E00E94531B69
:103AD00032CE68E086E0FACF6EE089E0F7CF64E1AD
:103AE0008FE0F4CF67E185E1F1CF61E088E1B2CF0B
:103AF00062E289E1EBCF61E083E2ACCF89809A801A
:103B00002CE582162DE5920668F481143CE59306B7
:103B1000F9F04FED84164CE5940609F028CF0E9489
:103B2000001709CE89809A802CE582162DE5920631
:103B300089F03DE58316930609F019CF809144037F
:103B400082FB882780F991E089270E94E0130FCF3C
:103B50000E94051480E0F9CFC7010E946D08898397
:103B600015CFB981BF70DB2EE981E07F19F0D294C7
:103B700020EFD222AA20D1F0DD2071F08D81805E6D
:103B8000883018F08D8081100BC0809128028D291B
:103B9000809328020E9471098D810E94D1171AC05A
:103BA000809133028D2980933302F4CF8D810E945E
:103BB000E709DD2079F0D0948D81805E883018F09F
:103BC0009D8091103DC0809128028D218093280214
:103BD0000E94710988E0E81AF10894E0E916F104FE
:103BE00010F40E94FD07CC20B1F08091320280FDDC
:103BF00012C0D80112961C928595859585950E94D4
:103C0000750AC8010E94611B8091320285958595D5
:103C100085950E94A60A60E0C8010F900F900F9052
:103C20000F900F90DF91CF911F910F91FF90EF9028
:103C3000DF90CF90BF90AF909F908F900C94D8085A
:103C4000809133028D2180933302C2CF29812F705E
:103C5000D22E3981307F303219F0D29490EFD922B0
:103C60008D80882089F0282D213099F1AA20F1F14A
:103C70009920A9F1D80115968C91159780FF8CCFCA
:103C80008F7015968C932BC0AA20B1F090912902C9
:103C90008D2D892B911003C00E949E099BCF31E08E
:103CA0009312FACF2091440322FD94CF981709F480
:103CB00091CF809329028ECF911006C00E946B098C
:103CC0008D2D0E94A80986CF41E0941609F482CF79
:103CD000F5CFAA2031F055E0591508F47BCF8D2D92
:103CE000DBCF84E0891508F475CFEACF992041F342
:103CF000BD81B93349F4EFEFF7EE23E0E150F04036
:103D00002040E1F700C000008D810E94E70962CFEA
:103D1000898186958695837069F0813009F05ACF44
:103D20008D8199819370A11002C090E080E00E9483
:103D30001F0850CF8D8199819370A11002C090E02F
:103D400080E00E94090846CF8D81AA2029F00E94B8
:103D50007F060E94C1093ECF0E94C806FACF898122
:103D6000837009F07CC0A11035CF2D812295269556
:103D70002770220F220F4D814F7050E070E060E0FD
:103D8000022E04C0440F551F661F771F0A94D2F7F6
:103D90008D8080E090E0DC0184FE0FC08FE090E039
:103DA000A0E0B0E004C0880F991FAA1FBB1F2A958E
:103DB000D2F780959095A095B09599809694969419
:103DC000292D2370223059F1233009F441C080900D
:103DD0002A0290902B02A0902C02B0902D0221304C
:103DE00099F0842B952BA62BB72B9C01AD01282194
:103DF00039214A215B2129833A834B835C83CA01A1
:103E0000B9010E94610AE6CE842A952AA62AB72A19
:103E1000A5019401282B392B4A2B5B2BECCF842B4B
:103E2000952BA62BB72B40912A0250912B02609123
:103E30002C0270912D024C015D0184269526A62648
:103E4000B72689829A82AB82BC82C501B401D9CFE0
:103E50004A015B01882A992AAA2ABB2AF2CFAA2002
:103E600009F452C0998090FEB5CE2D8122952695F9
:103E70002770220F220F4D814F7050E070E060E0FC
:103E8000022E04C0440F551F661F771F0A94D2F7F5
:103E9000BD8080E090E0DC01B4FE0FC08FE090E0D8
:103EA000A0E0B0E004C0880F991FAA1FBB1F2A958D
:103EB000D2F780959095A095B09589808694869448
:103EC000282D2370223079F1233009F43FC08090EF
:103ED0002E0290902F02A0903002B090310221303B
:103EE000B9F0842B952BA62BB72B9C01AD01282173
:103EF00039214A215B2129833A834B835C83CA01A0
:103F0000B9010E946B0A66CEA980A1FE63CEADCF37
:103F1000842A952AA62AB72AA5019401282B392B91
:103F20004A2B5B2BE8CF842B952BA62BB72B4091EC
:103F30002E0250912F0260913002709131024C019B
:103F40005D0184269526A626B72606C04A015B0198
:103F5000882A992AAA2ABB2A89829A82AB82BC82A1
:103F6000C501B401CECF29812F702983AA2029F061
:103F7000822F0E94750A8D818FCE8D810E94A809A3
:103F800089810E94A60A26CE3D81323F09F44FC0A6
:103F900068F4303F41F1313F09F441C0AA2009F4EF
:103FA0006FC09110F9CD89818F713EC04D81433F23
:103FB00009F442C0443F91F7AA2009F455C0298171
:103FC0002F712983822F0E94750A8091440382FDFC
:103FD00049C0898038E0839EC001112483608093AA
:103FE0003202882D21C0AA20A1F054E0591508F40E
:103FF000F1CD89818F71898381E090E0A0E0B0E00C
:10400000098004C0880F991FAA1FBB1F0A94D2F70A
:104010008ECF85E0A82EA91408F4DCCDEACF8981E3
:104020008F71AA2009F4ADCF0E94750AD3CD898182
:104030008F71AA20C9F3A5CF60E070E0CB01AA2060
:1040400009F45FCF29812F7181E090E0A0E0B0E01A
:104050004C015D0104C0880C991CAA1CBB1C2A954C
:10406000D2F77ACF8981E0CF81E00E94DB0AAA24CF
:10407000A394A91408F0AECD82E00E94DB0AAACD79
:10408000992061F02D81293309F03ECE3FEF47EEB4
:1040900053E0315040405040E1F734CE89818F7178
:1040A00070CF61E0C8010E94D80889839A83898013
:1040B0009A8024EF82162CE5920609F459CB08F079
:1040C00053C049ED84164CE5940609F42CCB28E244
:1040D00041E065EE5AED85165CE5950609F44BCB9B
:1040E00026E241EE61EE88ED88168CE5980609F42B
:1040F00042CBD80112969C91992309F450C010929A
:10410000260289809A8026E182162CE5920608F024
:1041100039CB32E083163CE5930608F443CB0E948A
:10412000A519909344038093430389809A8026E1E4
:1041300082162CE5920608F04DCB32E083163CE562
:10414000930608F039CB6091430380904403898241
:1041500084E090E00E94902C698182E290E00E94CD
:10416000902C0E94FA13E7CA89809A8026EF821663
:104170002CE5920609F402CB27E245EE66EE37EF16
:1041800083163CE5930609F4D1CA45EF84164CE545
:10419000940609F0AECF27E245EE64EEC7CA8980E7
:1041A0009A8026E182162CE5920609F0BCCB80911C
:1041B0002802992309F4ADCB8A7A91E009F490E0C2
:1041C000909327028111A3CB89E20E9445090E94A6
:1041D0007109B1CA1F93CF93DF9380916B02807FE7
:1041E000A9F480916802882389F080913502C091FA
:1041F00034027091660260916702A0916902B091E9
:104200006A02D62FD72316E0C81304C0DF91CF91DE
:104210001F91089590E0109711F0DF3F19F4019677
:104220008770F2CF189F9001199F300D1124F9016A
:10423000EA5CFD4F41816413F2CF40814713EFCF19
:1042400042814111ECCF438154814A1B5B0B483CB6
:10425000510528F780916B028F70806180936B020B
:10426000F901E55CFD4F80818F708061808386E677
:1042700092E00E94611BDF91CF911F910C94350851
:10428000AF92BF92CF92DF92EF92FF920F931F9364
:10429000CF93DF93CDB7DEB72B970FB6F894DEBF81
:1042A0000FBECDBF8C0185E0F801DE0117960190AD
:1042B0000D928A95E1F7D8011296EC9012979C9195
:1042C00011968C9111971396CD90DC9026E6A22E34
:1042D00022E0B22E3091660240916702609169023D
:1042E00070916A026115710529F0232F24232F3F55
:1042F00009F04CC1EE2009F457C18F8198850E94C6
:104300001809F82E882309F44FC186E0F801A6E6C3
:10431000B2E001900D928A95E1F78091660290914A
:1043200067020E940C090E94EA201DC020916B02C6
:10433000522F507F683C710508F0CAC05111EBC084
:10434000FE2C841322C0391320C0E1101EC02F7030
:10435000206120936B0286E692E00E94611B8091AF
:104360006B02F80185838F2D2B960FB6F894DEBF74
:104370000FBECDBFDF91CF911F910F91FF90EF90B6
:10438000DF90CF90BF90AF900895C114D10429F071
:10439000282F29232F3F09F0BBC020E0E0913502F0
:1043A0004091340256E020FD2FC0CD2829F0282F5F
:1043B00029232F3F09F0A9C020E0F22FF170DF2E52
:1043C000E09135024091340256E020FD34C0EE20E9
:1043D00051F280916B02816080936B02F12CC3CF0C
:1043E0002E2F30E05E9FF0011124EA5CFD4F6181C9
:1043F000861306C06081961303C062816E116AC085
:104400002F5F3F4FE22FE770E413EACFCECF2E2F7E
:1044100030E05E9FF0011124EA5CFD4F618186135C
:1044200006C06081961303C062816E11D0CF2F5FEA
:104430003F4FE22FE770E413EACF8F8198850E9407
:104440000C09292F22952F70903268F0225F2F706F
:10445000223080F49F7059F0D80115969C91907F7E
:1044600031F4D12C0AC09F7011F08823D1F3805E03
:104470008830B8F3C8010E94611BFD2C74CF8F8176
:1044800098850E941809882309F48EC0EE2009F44B
:104490008BC080916B02803270F020916602309167
:1044A00067023A8329831B82DD82CC828E83CE0110
:1044B00001960E94611B86E0F801A6E6B2E0019039
:1044C0000D928A95E1F70E94EA20FF24F3944BCFE6
:1044D000511135C086E692E00E94611B86E0E6E657
:1044E000F2E0DF011D928A95E9F778CF8F819885F8
:1044F0000E9418098111DFCF80916B028160809347
:104500006B02C8010E94611B2ECF21E02E2555CFE2
:1045100021E02E2543CF8413B2CF3913B0CFE11061
:10452000AECFF8012583C8010E94611B86E0F80127
:10453000A6E6B2E001900D928A95E1F714CF8413BC
:104540009ECF39139CCFE1109ACFF8012583C80183
:104550000E94611B86E0D5011D928A95E9F703CF81
:104560008413C4CF3913C2CF80916B0280FDDECF9C
:10457000982F907FD9F2F8018583903FA1F2982F70
:10458000907F905F8F70892B8583CDCFF0906802EC
:10459000F601E61BF70BBF01F110C8CE683C7105B0
:1045A000C8F6FE2CE110DCCFC8010E94611B8DCF44
:1045B0001F93CF93DF93CDB7DEB767970FB6F8940D
:1045C000DEBF0FBECDBF4B8B5C8B962F6D8B7E8B72
:1045D0008F8B6111109233021A8A85E0FE01739667
:1045E000DE011D9601900D928A95E1F79F8786E086
:1045F000FE013D96DE01179601900D928A95E1F736
:10460000CE0107960E944021882389F016E0809110
:10461000350290913402891349C067960FB6F89419
:10462000DEBF0FBECDBFDF91CF911F91089586E011
:10463000FE013796DE01119601900D928A95E1F701
:104640008F81988520913402409135026A857B855F
:10465000672BE1F289238F3FC9F230E0C90101964F
:10466000877099274817190671F40E94FA1310925F
:1046700034021092350286E0E6E6F2E0DF011D9298
:104680008A95E9F7C3CF96E0929FD001939FB00D32
:104690001124AA5CBD4FFE01319601900D929A95AE
:1046A000E1F7809334020E943508B0CF819FC001AA
:1046B00011248A5C9D4F0E944021882309F4ADCFCC
:1046C0008091350290E0019687709927809335029A
:1046D0009ECF1F93CF93DF93EC01162F8F8180FF26
:1046E0000BC0888180FF23C090911003916090934C
:1046F000100386950E94E11A8F8181FF06C0212F49
:104700004B816A8189810E9400128F8182FF05C0DE
:104710008E81882379F00E94C61A8F8183FF03C09F
:1047200081E080930A03DF91CF911F9108950E9449
:104730001D0DE2CF0E94F007F0CFCDB7DEB72F9767
:104740000FB6F894DEBF0FBECDBF84B7877F84BF9E
:104750000FB6F894A89580916000886180936000FE
:10476000109260000FBE80E890E00FB6F89480933E
:104770006100909361000FBE85B7806885BF85B7E3
:10478000806885BF83EB99E09093BF018093BE0161
:104790000E94D50B0E944E0C8091E20084608093B1
:1047A000E200789480912703882399F08091E900B2
:1047B0001091EC001795112717958F70182B1092F8
:1047C000E9008091E80083FD0E9448141F70109357
:1047D000E90082E084BD93E095BD9AEF97BD809398
:1047E0006E001092F3011092F4011092F5011092F4
:1047F000F6010E94AF0C809304018091040188238C
:1048000009F41FC180E08093150189E080931601AF
:104810000E94AF0C81110E94452980910401809172
:10482000040195E0811190E09093380385E0891BA5
:1048300080932C0387EF0E942E0581E30E942E05B2
:1048400083E30E942E0582E30E942E0586E30E94E8
:104850002E0584E90E942E0586E60E942E0587E932
:104860000E942E0586EC0E942E0584E30E942E05F0
:1048700085E30E942E058AE0E9E3F3E0DF01282FBB
:104880001D922A95E9F7EEE2F3E0DF011D928A9589
:10489000E9F790E080E00E948A2C8A3E9E4F11F05A
:1048A0000E94001782E090E00E947C2C80932603F7
:1048B0000E94A519909344038093430383E090E002
:1048C0000E947C2C282F30E050E040E02C873D8770
:1048D0004E875F87CA01B9010E94610A0E94AF0C2E
:1048E000811102C00E944B298091D60181113BC0E9
:1048F00090E080E00E948A2C8A3E9E4F21F00E9428
:1049000000170E94A51188E090E00E94842C60931B
:1049100010037093110380931203909313038091FB
:104920000F03836080930F036E7F71F40E94A511C3
:1049300088E090E00E94842C609310037093110330
:1049400080931203909313030E94DA070E94F007EA
:104950008091100380FF04C060E086950E94E11AF8
:1049600081E08093D60180910401811106C084EF1B
:104970008093060185EF8093050140910601A42FE5
:10498000A295AF70B0E091963C9191974F7081E005
:1049900090E0BC01042E01C0660F0A94EAF7262FAE
:1049A0002095232391962C93919792962C919297F0
:1049B000262B92962C93929730910501E32FE29546
:1049C000EF70F0E021A13F70032E01C0880F0A9420
:1049D000EAF7982F9095922391A392A1892B82A315
:1049E00090962C9180A190E002C0959587953A957C
:1049F000E2F78170880F30E002C0359527954A951F
:104A0000E2F72170822B8093DD019091040181E017
:104A1000982790937302891B8093700287E091E03E
:104A2000909316038093150388E1682E712C90E40F
:104A3000592E28E3A22E23E0B22ECE0101966C015E
:104A400063C189E0E0CE80912703843009F430C04F
:104A50000E94F0078091D801811109C0F092D8011D
:104A60008091100381708093D7010E941D0D1092D8
:104A7000FB010FB6F894A895609260000FBE5092AB
:104A8000600083B7817F846083BF83B7816083BF09
:104A90007894889583B78E7F83BF0FB6F894A895D6
:104AA00080916000886180936000109260000FBE6A
:104AB0008091E901882351F00E948C10EEE2F3E02E
:104AC00081918111A9C2AE16BF06D1F7809127034B
:104AD000853009F4B8CF0E94FA130E94FD071092A6
:104AE000D8018091D701882349F08091100381601B
:104AF0008093100360E086950E94E11A0E94C61A16
:104B00000CC19394FF0C46E094121CC10F5F1F4F21
:104B10000A30110509F00CC18FEF8F838887198641
:104B20000E94B5098160782F9B878A874F815885BD
:104B30006985892F0E94D82226C108E210E05FE132
:104B4000E52E5FE0F52E883109F437C1E8F48F30A7
:104B500009F447C060F4863069F1893009F435C042
:104B600000ED17E087EFE82E87E0F82E26C18531AB
:104B7000B9F7F0E0E55FFD4FE4910E2F10E0EAE9B0
:104B8000EE2EEEE0FE2E19C104EF11E045ECE42E0E
:104B90004FE0F42E843209F410C1853271F1833272
:104BA000F9F6E9E0F2E00591149170E9E72E7DE075
:104BB000F72E03C1F0E0EC5EFD4FE4910E2F10E004
:104BC000B0E8EB2EBDE0FB2EF8C0E695F0E0EF5E1E
:104BD000FD4FE4910E2F10E0A0EDEA2EADE0FA2E8D
:104BE000ECC0E695F0E0E25FFD4FE4910E2F10E09F
:104BF000FBE0EF2EFEE0FF2EE0C08E2F63E00E9470
:104C0000A02BE92FF0E0EA5FFD4FE4910E2F10E0BA
:104C100061E0E62E63E1F62ED0C040912403FAE075
:104C20004F9FA00111244217530708F4ADC18E2DE8
:104C30008F2909F448C080911703909118030E94AE
:104C4000190B9C0180912103882309F4FBC12536AF
:104C50003105C8F18F3F19F08F5F80932103EE205B
:104C600059F00E9446069FEF1E140CF491E0899FB4
:104C7000802D112480931F03FF2059F00E944606C7
:104C80009FEF1F140CF491E0899F802D11248093D5
:104C9000200330911F03209120033323A1F022230E
:104CA00091F065EB3603C0011124992309F4ACC1DE
:104CB00090931F0345EB240390011124332309F43F
:104CC000A7C13093200380911D0390911E03892B6F
:104CD00090911F03892B90912003892B11F00E9442
:104CE000C10986E0E12FF02FABE1B3E001900D9216
:104CF0008A95E1F70E94FD079091DE01891721F066
:104D00000E94FD078093DE0180912703FF24F39426
:104D100000E112E1853009F4D9CE0E948C10811196
:104D20000E94F70AEEE2F3E0AFEDB1E010E000E040
:104D3000802EE1908D918E1509F4E8CE8E25912C70
:104D4000FF24F3949F2D982309F4DBCE0E94AF0C2F
:104D5000882399F099828A82EF2081E009F480E02B
:104D60008B830E94B5098160782F9D838C83498154
:104D70005A816B81892F0E94D822F801E152FE4F9F
:104D800080818F25808380910E03882309F465C07C
:104D900080910D03E0911003E695E81BE093090371
:104DA000823009F0CACEF0E0E95EFD4FE4910E2FAB
:104DB00010E09CE6E92E9DE0F92E80910A038823FD
:104DC00061F010920A030E94BD1A90930803809329
:104DD000070310920C0310920B030E94BD1A9C0152
:104DE0008091070390910803A901481B590B4F3F7D
:104DF0005F4798F54091DB014423B1F01092DB014D
:104E00004091D9015091DA01241B350B2F3F3F47C8
:104E100058F4405D5A485093DA014093D9012091EB
:104E20000F03286020930F0380900B0390900C03D6
:104E3000800F911F909308038093070387E093E00E
:104E4000F701099580910B0390910C03892B29F4AC
:104E5000892819F081E08093DB0140910601E42F5D
:104E6000E295EF70E05EF0E0208130910501E32FE4
:104E7000E295EF70E05EF0E0808190E03F7002C06C
:104E8000959587953A95E2F7880F991F8270992733
:104E900030E04F7002C0359527954A95E2F72170B2
:104EA0003327822BE091DD01EE0FEE0FE82BE0932C
:104EB000DD0110917302EF70F0E0E65CFE4F80813F
:104EC0009091DC01890F8093DC0120E0823064F056
:104ED000E12FF0E0EF58FD4F80818F5F808360E02D
:104EE000812F0E94641921E08091DC018F3F64F4DE
:104EF000E12FF0E0EF58FD4F80818150808361E029
:104F0000812F0E94641921E08091DC01082E000CA1
:104F1000990B62E070E00E94CE2B8093DC0121119E
:104F20000E94170B86E0EBE1F3E0D60101900D92B1
:104F30008A95E1F780901D0390901E03E0901F0377
:104F4000F090200310921D0310921E0310921F0375
:104F500010922003882D89291C2D0D2D09F467CE70
:104F60008091190390911A030E94190B9C01809162
:104F70002203882309F451CE909129019217130638
:104F800008F055CE8F3F19F08F5F80932203882061
:104F900059F00E94FC059FEF18140CF491E0899FD2
:104FA000802D112480931D03992059F00E94FC0547
:104FB0009FEF19140CF491E0899F802D11248093A8
:104FC0001E0330911D03332309F431CE20911E03BB
:104FD000222309F42CCE45EB3403C001112499237C
:104FE00059F090931D0355EB2503900111243323B1
:104FF00039F030931E031BCE81E080931D03F3CF65
:1050000081E080931E0313CE81E080931F0352CE74
:1050100081E08093200357CE09BD19BD09B400FE7D
:10502000FDCF8091D8008F7D8093D8008091E000E3
:1050300082608093E0008091E00081FDFCCF0E94BF
:10504000FA1344CD232B09F007CE3DCE1F920F92C9
:105050000FB60F9211242F933F934F935F936F934B
:105060007F938F939F93AF93BF93EF93FF93809121
:10507000E10082FF09C08091E20082FF05C08091BB
:10508000E1008B7F8093E1008091DA0080FF24C0F3
:105090008091D80080FF20C08091DA008E7F8093BD
:1050A000DA008091D90080FF99C080E189BD82E15A
:1050B00089BD09B400FEFDCF81E080932703809174
:1050C000CD01811109C00E94D50B0E944E0C809128
:1050D000E20084608093E2008091E10080FF17C0CD
:1050E0008091E20080FF13C08091E2008E7F809368
:1050F000E2008091E20080618093E2008091D8001C
:1051000080628093D80019BC85E08093270380914A
:10511000E10084FF27C08091E20084FF23C080E18A
:1051200089BD82E189BD09B400FEFDCF8091D80020
:105130008F7D8093D8008091E1008F7E8093E10085
:105140008091E2008F7E8093E2008091E200816096
:105150008093E2008091CC01882309F445C084E06B
:10516000809327038091E10083FF27C08091E200B4
:1051700083FF23C08091E100877F8093E10082E07C
:10518000809327031092CC018091E1008E7F809361
:10519000E1008091E2008E7F8093E2008091E20046
:1051A00080618093E20042E060E080E00E941E0C9B
:1051B0008091F00088608093F000FF91EF91BF91A3
:1051C000AF919F918F917F916F915F914F913F919F
:1051D0002F910F900FBE0F901F90189519BC109231
:1051E00027031092CD0178CF8091E30087FD02C0A4
:1051F00081E0B6CF83E0B4CF1F920F920FB60F922B
:105200001124FF920F931F932F933F934F935F931C
:105210006F937F938F939F93AF93BF93CF93DF93BE
:10522000EF93FF9309EE10E0F8018081C091EC004C
:10523000C795CC27C7958F70FC2EF82A1082C0EF37
:10524000D0E08881877F888378940E944814F80191
:105250001082888188608883CF2DCF70C083FF91B2
:10526000EF91DF91CF91BF91AF919F918F917F91FE
:105270006F915F914F913F912F911F910F91FF90EF
:105280000F900FBE0F901F90189562E070E08AE2B9
:1052900091E00C943F2A62E070E08AE291E00C9485
:1052A000482A0E94B319882361F081E593E00E94A7
:1052B000B91981E090E00E94212B892B11F40C9404
:1052C000B619089580915003883039F460E081E583
:1052D00093E00E946923109250030895CF93DF93C7
:1052E00000D000D00F92CDB7DEB76D8379830E94D6
:1052F000512990E080E00E94212B9C0180E0211543
:10530000310501F5ED81F981D901A65BBC4F8C9186
:1053100081932F5F3F4F25303105B1F78FE493E044
:105320000E94D9190E948C1ADC01CB010296A11DA2
:10533000B11D8093460390934703A0934803B09315
:10534000490381E00F900F900F900F900F90DF9125
:10535000CF910895CF93DF9300D000D000D0CDB788
:10536000DEB76E837D830E9462298091460390910F
:105370004703A0914803B091490389839A83AB8383
:10538000BC83BC01CD010E94631AEE81FD8190E0D7
:1053900080E02191DC01A65BBC4F2C930196853007
:1053A0009105B9F78FE493E026960FB6F894DEBF27
:1053B0000FBECDBFDF91CF910C94D0198EE1489BE9
:1053C00002C08150E1F7489BFECF0895589880E2D3
:1053D0008A95F1F7589A0895FC013BE03A95F1F768
:1053E00020E090E080E031E040E14A95F1F7880F5D
:1053F000489B02C08160232742E04A95F1F70000F4
:1054000040E14A95F1F79F5F6913EECF90E19A95DD
:10541000F1F799B132E03A95F1F7000040E14A9591
:10542000F1F7917092272081920F90830895EF9267
:10543000FF920F931F93CF93DF930F92CDB7DEB7F9
:1054400019828C017C01E60EF11C0E151F0561F41A
:1054500081E09981911180E00F90DF91CF911F91B0
:105460000F91FF90EF9008950E94DE2968E0CE0131
:1054700001960E94EC29F80181938F01E6CF909369
:105480005B0380935A0360935903509A589A089586
:1054900090935B0380935A03609359035098589AF2
:1054A000E89AE9E6F0E080818C7F8083089561507E
:1054B000770B91E001C0990F6A95EAF720E031E09F
:1054C000911108C0222391F0589A80E28A95F1F751
:1054D00058980895492F482339F0589A232740E2D5
:1054E0004A95F1F79695ECCF5898F9CF5898EDCFAB
:1054F000FF920F931F93CF93DF93EC018C01060F64
:10550000111DC017D10731F4DF91CF911F910F9179
:10551000FF900895F9900E94E62968E08F2D0E947F
:10552000572AEFCF1F920F920FB60F9211240F93AD
:105530001F932F933F934F935F936F937F938F931B
:105540009F93AF93BF93EF93FF93CF93DF930F920C
:10555000CDB7DEB719820E94DE2967E0CE01019641
:105560000E94EC29282F269526952695982F92950E
:105570009570322F3570930F392F3370969596951D
:105580008770930F891344C08981811141C0809134
:1055900059038217E8F180E18A95F1F7589A509AF9
:1055A000A2E0AA95F1F700C0B8E02B9F900111246A
:1055B00000915A0310915B03020F131F5898F801D2
:1055C0006581662321F0868197810E94782A0E9456
:1055D000E629F0E1FA95F1F758985098589A80E149
:1055E0008A95F1F7D80112966C911297662331F1E2
:1055F00013968D919C910E94172AD801ED91FC91F0
:10560000882311F088E001C082E080830E94DE29B7
:105610000F90DF91CF91FF91EF91BF91AF919F914B
:105620008F917F916F915F914F913F912F911F913A
:105630000F910F900FBE0F901F901895ED91FC9158
:10564000E1CF0F931F93CF93DF939C018091590378
:10565000821713060CF471C0890183E0000F111F3B
:105660008A95E1F7C0915A03D0915B03C00FD11F17
:10567000F894509A589885E08A95F1F70000922F97
:10568000969595702570920F892F837096959695B3
:10569000890F082B0E94E62900C067E0802F0E9436
:1056A000572A80E18A95F1F75098589A489B17C07D
:1056B00087E090E0489915C06D81662321F18E81C5
:1056C0009F810E94172A81111EC0509A589AE88122
:1056D000F98182E08083789482E090E00DC000C080
:1056E000E5CF019771F4509A589AE881F98181E0E9
:1056F0008083789481E090E0DF91CF911F910F91AA
:10570000089500C0D7CF0E94DE2980E28A95F1F784
:105710005898509A80E18A95F1F76A81662321F0C2
:105720008B819C810E94782A0E94E629E881F98178
:105730001082789490E080E0DFCF84E090E0DCCFCE
:10574000991B79E004C0991F961708F0961B881FD3
:105750007A95C9F78095089587FB082E062687FD60
:10576000819567FD61950E94A02B0EF4919507FC31
:1057700081950895AA1BBB1B51E107C0AA1FBB1F3F
:10578000A617B70710F0A61BB70B881F991F5A95CD
:10579000A9F780959095BC01CD01089597FB072E40
:1057A00016F4009407D077FD09D00E94BA2B07FCAD
:1057B00005D03EF4909581959F4F08957095619521
:1057C0007F4F0895EE0FFF1F0590F491E02D09948F
:1057D0000E94182D332312F48A1B9B0B0C94F22B7E
:1057E0000E94182DB7FF0895821B930B0895CF9246
:1057F000DF92EF92FF92CF93DF93CDB7DEB72A9778
:105800000FB6F894DEBF0FBECDBF89879A87A985F2
:10581000BA852D913D914D915C9129833A834B83BB
:105820005C83232B242B252B41F424E239ED4BE51B
:1058300057E029833A834B835C8369817A818B812A
:105840009C812DE133EF41E050E00E94C42C6901BE
:105850007A01A7EAB1E49B01AC010E94E32C6983C1
:105860007A838B839C83ACEEB4EFA70196010E94F0
:10587000F12C9B01AC0189819A81AB81BC81820FA3
:10588000931FA41FB51FB7FF03C00197A109B0481C
:10589000E985FA8580839183A283B3839F772A96D3
:1058A0000FB6F894DEBF0FBECDBFDF91CF91FF9052
:1058B000EF90DF90CF9008950E94F72B089580E03D
:1058C00091E00E94F72B0895B0E0A0E080930001E2
:1058D00090930101A0930201B09303010895FC018C
:1058E0004150504030F001900616D1F73197CF016A
:1058F0000895882799270895F999FECF92BD81BD13
:10590000F89A992780B50895A6E1B0E044E050E008
:105910000C94B62CA8E1B0E042E050E00C94B62C18
:10592000262FF999FECF92BD81BDF89A019700B458
:10593000021639F01FBA20BD0FB6F894FA9AF99AF8
:105940000FBE08950396272F0E94912C0E94902C41
:10595000252F0E94912C242F0C94912C0196272FF7
:105960000E94912C0C94902CDC01CB01FC01F99944
:10597000FECF06C0F2BDE1BDF89A319600B40D929B
:1059800041505040B8F70895052E97FB1EF400943F
:105990000E94DB2C57FD07D00E94F62C07FC03D099
:1059A0004EF40C94DB2C50954095309521953F4F4B
:1059B0004F4F5F4F089590958095709561957F4FFB
:1059C0008F4F9F4F08950E94182DA59F900DB49F53
:1059D000900DA49F800D911D11240895B7FF0C9484
:1059E000E32C0E94E32C821B930B0895A1E21A2E54
:1059F000AA1BBB1BFD010DC0AA1FBB1FEE1FFF1F73
:105A0000A217B307E407F50720F0A21BB30BE40BC2
:105A1000F50B661F771F881F991F1A9469F7609509
:105A20007095809590959B01AC01BD01CF010895C3
:105A3000A29FB001B39FC001A39F700D811D1124CF
:105A4000911DB29F700D811D1124911D0895F89430
:105A5000FFCF88068E0691069706AC06AC06AC060C
:105A6000AC06AC06AC06AC06AC069A069F06A306CE
:105A7000A906BA06C006C40629155115E81651151F
:105A8000E8168415A515E816A316B01695178C17F9
:105A90009717821787178717821787178717B317E4
:105AA0008717BE17871787178717871787178217D4
:105AB0008717871782178717A51787178717CF1795
:105AC000CF17CF17CF17CF17CF17CF17CF17CF17A6
:105AD000C917871795178917FC1B021C061C141C75
