:100000000C9400030C9420290C9447030C94470390
:100010000C9447030C9447030C9447030C94470338
:100020000C9447030C9447030C94BB260C94912723
:100030000C9471190C9447030C9447030C944703D8
:100040000C9447030C9447030C9447030C94470308
:100050000C9447030C9498190C9447030C94470391
:100060000C9447030C9447030C9447030C944703E8
:100070000C9447030C9447030C9447030C944703D8
:100080000C9447030C9447030C9447030C944703C8
:100090000C9447030C9447030C9447030C944703B8
:1000A0000C9447030C9447030C9447030501090281
:1000B000A10185020901A1000509190129081500FE
:1000C0002501950875018102050109300931158165
:1000D000257F95027508810609381581257F9501D0
:1000E00075088106050C0A38021581257F95017572
:1000F000088106C0C005010980A101850319012AF4
:10010000B700150126B700950175108100C0050CD8
:100110000901A101850419012AA002150126A002E6
:10012000950175108100C005010906A10105071997
:10013000E029E715002501950875018102950175F3
:100140000881010507190029FF150026FF00950603
:1001500075088100050819012905950575019102A9
:10016000950175039101C009023B00020100A0FA4C
:10017000090400000103010100092111010001220D
:1001800040000705810308000A090401000103007B
:100190000000092111010001227B000705820320D4
:1001A000000A12011001000000084D44363401001D
:1001B000010200013C03680061006E0064007700EA
:1001C00069007200650064002F0064006100630034
:1001D000740079006C005F006D0061006E007500B6
:1001E00066006F0072006D002F003400780036004A
:1001F00000000E037400730068006F00720074004A
:100200000000040309041E0F0500047F3F1F643231
:1002100014643214783C1E1E140A05222325262855
:10022000292A2C2D2F3032333536383A3B3D3E408B
:1002300042434547494A4C4E5051535557595A5CD1
:100240005E6062646668696B6D6F71737577797BE8
:100250007D7F81838587898A8C8E90929496989AE7
:100260009C9E9FA1A3A5A7A8AAACAEAFB1B3B4B6FC
:10027000B8B9BBBCBEBFC1C2C3C5C6C7C9CACBCC57
:10028000CDCED0D1D2D2D3D4D5D6D7D7D8D9D9DA2A
:10029000DADBDBDBDCDCDCDCDCDDDDDDDDDCDCDC9F
:1002A000DCDCDBDBDBDADAD9D9D8D7D7D6D5D4D3C7
:1002B000D2D2D1D0CECDCCCBCAC9C7C6C5C3C2C19C
:1002C000BFBEBCBBB9B8B6B4B3B1AFAEACAAA8A7F9
:1002D000A5A3A19F9E9C9A98969492908E8C8A89B1
:1002E000878583817F7D7B79777573716F6D6B698E
:1002F00068666462605E5C5A5957555351504E4C63
:100300004A4947454342403E3D3B3A383635333211
:10031000302F2D2C2A292826252322FFAA7F55405D
:1003200000010101010101010101020202020202B8
:10033000020202030303030303030304040404048B
:100340000404050505050506060606060707070752
:100350000708080808090909090A0A0A0B0B0B0C07
:100360000C0C0D0D0D0E0E0E0F0F0F1010111111A4
:100370001212131314141515161617171818191925
:100380001A1A1B1B1C1D1D1E1E1F2020212222238A
:100390002424252626272829292A2B2C2D2D2E2FCB
:1003A00030313232333435363738393A3B3C3D3EE2
:1003B0003F404142434445464748494A4C4D4E4FD1
:1003C00050515354555658595A5B5D5E5F61626493
:1003D000656668696B6C6D6F7072737577787A7B20
:1003E0007D7E8082838587888A8C8E8F9193959677
:1003F000989A9C9EA0A2A3A5A7A9ABADAFB1B3B597
:10040000B7BABCBEC0C2C4C6C9CBCDCFD1D4D6D872
:10041000DBDDDFE2E4E7E9EBEEF0F3F5F8FAFDFF10
:10042000290014001A000800150017002B00040012
:100430001600070009000A00E1001D001B0006006D
:10044000190005000000000035000007E000010071
:1004500000000000E3002C004C0001511C001800BB
:100460000C00120013002A000B000D000E000F00FC
:10047000330034001100100036003700380031001E
:100480000100E6002F0030000000000002514B0088
:1004900028004E000000000029001E001F00200060
:1004A000210022002B005000510052004F0001009B
:1004B000E1003A003B003C003D003E00000000002F
:1004C0000100010001000100000000000100005CCB
:1004D00001000100230024002500260027002A0037
:1004E0000100010001000100010001003F00400087
:1004F00041004200430001000100010044004500AA
:100500000000000003514F010100500100000000F5
:1005100029001E021F022002210222022B003900A4
:1005200049004A004D004600E1007A007B007C0053
:100530007D00010000000000010001000100010039
:100540000000000001000100010003512302240209
:100550002502260227022A005000510052004F00B7
:100560002D002E0001000100010001002D022E02CD
:10057000010001002F023002000000000100010014
:10058000005C01000000000001000100010001000A
:1005900001000100C35CC65CC85CCA5C01000100CC
:1005A000C45CC75CC95CCB5C0100010000000000BA
:1005B0000100010001000100000000000100010035
:1005C0000100010001000100010001000100010023
:1005D0000100AA00A800A900010001000100AC0070
:1005E000AE00AB00010001000100010001000100AC
:1005F00000000000010001000100010000000000F7
:1006000011241FBECFEFDAE0DEBFCDBF04B603FE7C
:1006100027C08091430390914403A0914503B0917A
:1006200046038730904BA740B04BD1F41092430360
:1006300010924403109245031092460314BE84B7EF
:10064000877F84BF0FB6F894A89580916000886179
:1006500080936000109260000FBEE0E0F8E309951F
:1006600011E0A0E0B1E0E8E6F8E502C005900D92E7
:10067000AC3AB107D9F723E0ACEAB1E001C01D9272
:10068000A334B207E1F70E94F6220C94B52B0C9428
:10069000000090912B0392FF06C0282F287128306C
:1006A000F9F4877F846093FF06C0282F28712831D2
:1006B000F1F4877E846120912C0320FF06C0382F3F
:1006C00038713830D9F4877F816021FF06C0282F28
:1006D00028712831D1F4877E816194FD877E089549
:1006E000282F24712430F9F68B7F8860DCCF282FE7
:1006F0002471243101F78B7E8861DDCF382F317171
:10070000313019F78E7F8860E0CF282F2171213199
:1007100021F78E7E8861E1CF0F931F93CF93DF93F4
:10072000972F70E026E0929F600D711D1124FB0150
:100730009CE3899FE00DF11D1124EE0FFF1FE05E89
:10074000FB4F05911491E801003E110509F464C0C6
:1007500070F50133110509F4ACC098F409321105A4
:1007600009F4A0C00A32110509F4AAC0013011052C
:1007700009F465C004501109013A110508F058C088
:100780005EC00933110509F440C002381105E9F1D2
:100790000533110509F47FC0083A110508F097C028
:1007A000053A110518F3E801A497D06448C0043E47
:1007B000110509F455C068F4023E1105E1F1033E4C
:1007C000110509F442C0005E11090830110580F5D9
:1007D00036C0063E110509F44EC0073E110509F466
:1007E0004FC0011523E5120708F09CC0011582E5F2
:1007F000180708F001C10F3F110511F008F076C08D
:100800000D3E110548F2D0651AC080912B0383700C
:10081000B1F0C0EED0E013C080912B0380FD15C174
:1008200090912C0390FF0BC0C3EED0E084FF07C073
:10083000D0E0C0E004C080912B0382FDF5CFCE0153
:10084000DF91CF911F910F91089580912B0382FD2D
:10085000FFC090912C0390FDDCCF84FFF0CFE8CF58
:1008600080912C0381FFEBCF80912B03C7EED0E06A
:1008700084FDDECFE4CF80912B0383FDF7CFDFCF64
:1008800080912B0383FDE7C090912C0391FFE5CF6E
:10089000C4EED0E0D4CF80912B0385FFD0CFC9E246
:1008A000D0E0CDCF80912B0385FFC9CFC5E3D0E049
:1008B000C6CF80912B0386FFC2CFCAE2D0E0BFCF64
:1008C00080912B0386FFBBCFC1E3D0E0B8CF0F3BB5
:1008D000110508F078CF085AE02FF0E0EE0FFF1F67
:1008E000E358FE4FC081D181D464A9CF011591E5B1
:1008F000190798F4011520E5120708F062C00115E8
:1009000080E2180708F49BCFC801905481159041EC
:1009100008F08ECFDF70D06A92CFD02FCC27C16F76
:10092000D06A8DCF011589E51807A0F5011598E566
:10093000190708F077C0011525E51207C8F401155D
:1009400084E5180708F069C0C80183709927C1E0E1
:10095000D0E002C0CC0FDD1F8A95E2F70695069520
:1009600090E2099F80011124C02BD12BDA6867CF58
:10097000C80195558F3F910511F008F059CF802F90
:100980000E944903C82FD0E0DC2FCC27CC27DF7191
:10099000D06255CF01152AE5120708F448C0C801F6
:1009A00090568115904208F043CF812F8F710E949D
:1009B0004903C82FD0E0DC2FCC27CC27DF71C02B18
:1009C000E7CFC80154E0969587955A95E1F7837073
:1009D000C695C695C37090E2C99FE0011124D82B3B
:1009E000037081E090E002C0880F991F0A95E2F73A
:1009F000C82BD92BDC6823CF98012370332781E0E3
:100A000090E002C0880F991F2A95E2F7C695C69517
:100A100020E2C29FE0011124EBCFD02FCC27C46F7E
:100A2000D06A0DCFD02FCC27C06FD06A08CF802FCF
:100A30008F700E94490394E0D695C7959A95E1F787
:100A4000CF709C2FEC01D069FACEC9E3D0E0F7CE8D
:100A5000C2EED0E0F4CEC6EED0E0F1CEF894E82FAE
:100A6000E295EF70F0E041A18F7021E030E0B90134
:100A700002C0660F771F8A95E2F7CB01962F9095FB
:100A8000942391A392A1892B82A378940895843012
:100A9000C1F138F48230C9F0833029F1813039F066
:100AA00008958530E1F1863009F447C008958091BA
:100AB0000C03482F460F5527551F860F4F3F5105F2
:100AC0000CF08FEF80930C03089580912701482F3D
:100AD000460F5527551F860F4F3F51050CF08FEFDE
:100AE00080932701089580912601482F460F5527AE
:100AF000551F860F4F3F51050CF08FEF8093260155
:100B0000089580912501482F460F5527551F860FC0
:100B10004F3F51050CF08FEF809325010895809190
:100B20002401482F460F5527551F860F4F3F51056B
:100B30000CF08FEF80932401089580912301482FBA
:100B4000460F5527551F860F4F3F51050CF08FEF6D
:100B5000809323010895843071F138F48230A9F034
:100B60008330F1F0813031F00895853079F18630AD
:100B7000C1F1089580910C03681720F4861B8093BF
:100B80000C03089510920C030895809127016817B3
:100B900020F4861B80932701089510922701089561
:100BA00080912601681720F4861B80932601089502
:100BB00010922601089580912501681720F4861B64
:100BC00080932501089510922501089580912401B4
:100BD000681720F4861B8093240108951092240145
:100BE000089580912301681720F4861B80932301C8
:100BF000089510922301089580910B0380FF12C085
:100C00006091260185E0689FB00111247595679574
:100C10007595679560387105A8F561157105A1F1A5
:100C2000862F089581FF09C06091260185E0689FA5
:100C3000B001112475956795EDCF6091260182FD75
:100C40000AC020910A032223D1F0909125016091DE
:100C50002601291728F085E0689FB0011124DACF1A
:100C6000269F9001112485E0829FA001839F500D53
:100C70001124692F70E0CA010E945C2ACBCF65E085
:100C800070E0CECF8FE7089581E0089580910B0347
:100C900080FF0CC06091240170E075956795759593
:100CA00067956115710549F1862F089581FF06C08A
:100CB0006091240170E075956795F3CF60912401F0
:100CC00082FD0BC0909109039923A1F0609123014B
:100CD00080912401961738F0682F70E06038710514
:100CE00000F38FE70895899FC001112470E00E94EE
:100CF0005C2AF4CF61E070E0D7CF81E00895E3E1B2
:100D0000E80FE331E0F5F0E0E954F44D0C94702A7B
:100D10000E94FC0581958093060308950E94FC05BE
:100D2000FACF0E94FC0581958093050308950E94E7
:100D3000FC05FACF0E9446068093070308950E949F
:100D400046068195F9CF0E94460681958093080357
:100D500008950E944606FACF815F990B21E030E0AA
:100D600001C0220F8A95EAF780910403822B8093B9
:100D70000403089580910B03816080930B03089511
:100D800080910B038260F9CF80910B038460F5CFD3
:100D9000409105038D3E59F48091060387FF0DC0F5
:100DA0001092060341110BC010920A0308C08E3E38
:100DB00081F48091060318169CF3442381F08091FE
:100DC000070390910803892B09F05AC01092090378
:100DD00008958F3E49F447FFF0CF109205038091AC
:100DE00006038111ECCFE0CF803F19F41416ACF369
:100DF000E4CF90910703893F29F41916F4F6109275
:100E00000703DBCF8A3F19F497FFD7CFF8CF909134
:100E100008038B3F29F497FFD0CF10920803CDCF62
:100E20008C3F19F41916CCF3C8CF9FE0980F983077
:100E300090F4815F990B21E030E0B90102C0660FA8
:100E4000771F8A95E2F7CB0180959091040389235F
:100E500080930403B2CF8D3F31F480910B038E7FDA
:100E600080930B03AACF8E3F21F480910B038D7FDB
:100E7000F7CF8F3F09F0A1CF80910B038B7FF0CF8D
:100E80000895AF92BF92CF92DF92EF92FF920F93AD
:100E90001F93CF93DF93082F162FE901473908F0EE
:100EA00046E9E42FF0E0E05EFC4F111111C0E4913F
:100EB0003E2F2E2F2983E8833A83DF91CF911F9114
:100EC0000F91FF90EF90DF90CF90BF90AF9008957B
:100ED000E12EF12C249146E0049F50011124CC24F2
:100EE000CA94D12CC501B6010E94482A802F90E0F7
:100EF000880F991F35E5369FA001379F500D1124AB
:100F0000841B950BF82FFF0FF80FA6014E195F09F0
:100F1000249FC001259F900D1124E92F1F9FA00140
:100F20001124452F5527D601A41BB50B2A9FA001DC
:100F30002B9F500D1124352F86010F1B11090E9D7B
:100F4000D0010F9DB00D1E9DB00D1124AB2FBB27FE
:100F5000CA1ADB0A2C9DD0012D9DB00D11246330DF
:100F60007105D1F0FCEFAF16F3E0BF0670F461300D
:100F70007105B1F062307105B9F04FEFA416B104FC
:100F800008F098CF392FEB2F95CF6430710579F0A9
:100F900066307105B9F38ECFE52F322F292F8ACF16
:100FA000E22F252F392F86CF3B2FE22FF7CF322F7D
:100FB0002B2F80CF8091F802982F9E7F61F4817053
:100FC00082608093F8028091FB02873918F086E9ED
:100FD0008093FB0208958635B0F381708465F1CF6C
:100FE000E5EFF2E0118282818460828308950895A2
:100FF000FA0181110994FB01FDCFE091FD02F0910E
:10100000FE02309721F00190F081E02D099480E0FC
:10101000089520915A0230915B022817390771F028
:1010200090935B0280935A02E091FD02F091FE02E0
:10103000309721F00680F781E02D099408952091E2
:101040005802309159022817390771F090935902CC
:1010500080935802E091FD02F091FE02309721F05A
:101060000084F185E02D09940895809121029091EA
:101070002002981301C008958F5F8770FACFE92F7F
:10108000EE0FE90FEE0FE80F8E2F877041E001C0E1
:10109000440F8A95EAF7E695E695E69585E0E89FA0
:1010A000F0011124E851FE4F30E020E070E0519152
:1010B000DF011197CB01022E02C0969587950A9405
:1010C000E2F7817081958527842385278C932F5F94
:1010D0003F4F2530310559F70895E92FEE0FE90FFD
:1010E000EE0FE80F9E2F9770E695E695E69585E062
:1010F000E89FF0011124E851FE4F50E040E080E00D
:10110000219130E0092E02C0369527950A94E2F726
:1011100021703327042E01C0220F0A94EAF7822B94
:101120004F5F5F4F4530510559F70895BF92CF92F9
:10113000DF92EF92FF920F931F93CF93DF938C0177
:10114000C0901A02D0901B02E0901C02F0901D0289
:101150008091160290911702A0911802B091190285
:10116000C82AD92AEA2AFB2ACFE1D0E0BC2ED7012F
:10117000C6010C2E04C0B695A795979587950A943D
:10118000D2F780FD0EC0219788F7B12C8B2DDF910F
:10119000CF911F910F91FF90EF90DF90CF90BF9074
:1011A0000895B8018C2F0E948C03019761F3EECF54
:1011B000FF920F931F93CF93DF93FC0182810081F5
:1011C0001181C081F180882311F1662301F1C801EA
:1011D0000E949608D82F682FC8010E943F08EC2F64
:1011E000F0E086E0F89EE00DF11D11248CE3D89F1D
:1011F000E00DF11D1124EE0FFF1FE05EFB4F859106
:101200009491DF91CF911F910F91FF900895C801A4
:101210000E946D08D82FE3CFCF93DF93D82FC92F2B
:101220000E9496086D2F7C2FDF91CF910C948C0338
:101230000E940C09282F892F8F70392F32953F700B
:10124000903C80F43A30B0F4343020F4323090F4F2
:1012500080E008953630E1F781E0283E88F0213FB4
:10126000B9F70EC03C3011F03F3091F78695869566
:101270008695089581E0203F39F018F4283E40F724
:101280000895243F29F7FCCF0895A0EBB1E0EFEFDC
:1012900090E02D91821751F0EF3F19F4211101C018
:1012A000E92F9F5F9630A9F7EF3F09F408950E2EBE
:1012B000000CFF0BE255FE4F82830895E0EBF1E056
:1012C0009191891303C0DF0111971C9291E0E63BD5
:1012D000F907B1F708958091150281111092150256
:1012E00008958091140290911F02892B9091100211
:1012F000892B8093AE0190911502992391F0892B4F
:101300008093AE0120E080EB91E0FC0130810196FA
:1013100031112F5F31E0863B9307B9F721110E940D
:101320006B09E091FD02F091FE02309731F00280EE
:10133000F381E02D8EEA91E009940895882339F035
:1013400090911402892B809314020C9471090895D2
:10135000882341F080959091140289238093140290
:101360000C947109089580E008952FB7F894809146
:10137000E3019091E401A091E501B091E6012FBF56
:1013800008950E94B5092091050330910603232B8F
:1013900021F0809301039093020320910703309181
:1013A0000803232B21F08093FF0290930003E09128
:1013B000FD02F091FE02309749F082E08093030332
:1013C0000480F581E02D83E093E00994089588235B
:1013D00009F459C0823871F40E94FD0781FF53C09F
:1013E00089E30E9445090E94710989E30E945E0910
:1013F0000C947109833859F40E94FD0780FF43C0A3
:1014000083E50E9445090E94710983E5EFCF843886
:1014100059F40E94FD0782FF36C087E40E94450907
:101420000E94710987E4E2CF9CEF980F913AF0F2A5
:1014300090E2980F983088F4877021E030E0A9019D
:1014400002C0440F551F8A95E2F7CA01809590911A
:101450001402892380931402CBCF9BE5980F93301D
:1014600020F490E080E00C94090898E5980F9731FB
:1014700020F490E080E00C941F088D3E20F00E9444
:10148000C8060C94C109089590E080E00E94090804
:1014900090E080E00E941F0810921F02109210023C
:1014A0000E94710986E0E3E0F3E0DF011D928A9576
:1014B000E9F710920A031092090310920B030C949F
:1014C000C1096093160270931702809318029093DB
:1014D00019020C94440A60931A0270931B028093C1
:1014E0001C0290931D020C94440A0F931F93CF93F8
:1014F000DF9300D000D0CDB7DEB741E050E060E030
:1015000070E004C0440F551F661F771F8A95D2F7FD
:1015100080911A0290911B02A0911C02B0911D02B1
:101520008A019B01082B192B2A2B3B2B09831A8339
:101530002B833C83C901B8010F900F900F900F903F
:10154000DF91CF911F910F910C946B0A0F931F9312
:10155000CF93DF9300D000D0CDB7DEB741E050E0AD
:1015600060E070E004C0440F551F661F771F8A9526
:10157000D2F7409550956095709580911A029091A0
:101580001B02A0911C02B0911D028A019B0108233D
:1015900019232A233B2309831A832B833C83C90104
:1015A000B8010F900F900F900F90DF91CF911F9186
:1015B0000F910C946B0A90911E0280958923809361
:1015C0001E02282F277039F4282F082E000C330B09
:1015D0009217130621F490912C0392FF07C0859572
:1015E000859585950E94A60A10921E020895CF93B4
:1015F000DF9300D000D0CDB7DEB78FB7F89420913D
:10160000E3013091E4014091E5015091E601298325
:101610003A834B835C838FBF69817A818B819C8104
:101620000F900F900F900F90DF91CF9108959C0134
:101630004FB7F8948091E3019091E401A091E50106
:10164000B091E6014FBF821B930B08958091DE019C
:101650000895FC01CB012091C2013091C3012617EE
:10166000370790F0009729F42091E8002E77209317
:10167000E80040E0009751F4411108C08091E80073
:1016800082FF31C080E00895C901F3CF20910F039C
:101690002223A9F12530A9F12091E80023FD2DC0D6
:1016A0002091E80022FDEACF2091E80020FFE2CF60
:1016B0003091F3002091F200009719F028303105A5
:1016C00058F041E02830310509F040E02091E80071
:1016D0002E772093E800CECF41914093F1000197FF
:1016E0002F5F3F4FE9CF80910F03882341F0853072
:1016F00041F08091E80083FFC1CF81E0089582E04E
:10170000089583E008958091BC0187FF13C0809104
:10171000E80082FF06C08091E8008B778093E800A4
:1017200004C080910F038111F2CF089580910F03BF
:101730008823D9F38091E80080FFF8CF8091E800FA
:101740008E77ECCF2091E4003091E50095E6A90179
:101750002091EC00822F817020FF06C08091E8006C
:1017600080FF06C080E008952091E80022FD1AC0A5
:1017700080910F03882389F0853089F08091EB00F8
:1017800085FD0FC02091E4003091E500421753071A
:10179000F9F29150E1F684E0089582E0089583E043
:1017A000089581E00895E8EDF0E080818E7F8083E8
:1017B0001092E2001092DA001092E100A0EEB0E088
:1017C0008C9181608C9380818F77808319BCA7ED89
:1017D000B0E08C918E7F8C9380818F7E808310927D
:1017E000BB010895EF92FF920F931F93CF937C015B
:1017F0008B010E94A20BC82F811117C08091E800B5
:1018000085FD0BC08091E8008E778093E8000E94F0
:10181000A20B882399F3C82F08C0F70181917F019B
:101820008093F1000150110949F78C2FCF911F913E
:101830000F91FF90EF900895982F9093E900242F37
:10184000762F50E0891731F07091EC002091ED0077
:101850005091F00021FD06C09F5F973071F7809393
:10186000E90008953091EB003E7F3093EB0030911A
:10187000ED003D7F3093ED003091EB00316030930F
:10188000EB007093EC002093ED005093F00020915A
:10189000EE0027FDE1CF0895CF92DF92EF92FF9205
:1018A0000F931F93CF93DF93C8EDD0E088818F7E95
:1018B0008883E7EDF0E080818160808384E082BFEF
:1018C00081E08093BB0188818E7F888302EE10E0E7
:1018D000F80110821092DA0081EEC82ED12CF601A8
:1018E000108288818F778883888180688883888147
:1018F0008F7D888319BC10920F031092BA01109249
:10190000D5011092B90190EEE92EF12CF7018081FA
:101910008B7F808388818160888342E060E080E003
:101920000E941C0CF60180818E7F8083F8018081EB
:1019300081608083808188608083F70180818E7FD1
:101940008083888180618883DF91CF911F910F917F
:10195000FF90EF90DF90CF90089580911003811158
:1019600010C08091D80080618093D8008AE18A9568
:10197000F1F700C08091D90080FF0AC081E0809318
:10198000100381E090911003913009F080E00895F8
:1019900082E0809310030E94D30B10920F03F1CFCB
:1019A000609114018091F80280FF20C080911301A2
:1019B00043E0849FC001112487549D4F539A2BB15B
:1019C000277F3BB138605FB7F894FC01649FE00D5E
:1019D000F11D1124BF0168177907D1F45FBF8FE5AE
:1019E00094E00197F1F700C000000895809115017F
:1019F0009091160123E0829FF0011124E754FD4FDE
:101A00008917A0F61182108212828F5F3396F8CF69
:101A1000FC014191CF01E8E03BB9000000C047FF65
:101A20002BB9440F000000C000C000C02BB900C09B
:101A3000EA9591F7D0CFE8EFF2E080818E7F808346
:101A40000E94F007E5EFF2E08281816082832FEF50
:101A500080E792E0215080409040E1F700C0000014
:101A60000C94D00C9091F80290FF14C09091150145
:101A70002091160133E0939FF0011124E754FD4FAC
:101A8000921710F00C94D00C8183608342839F5F87
:101A90003396F6CF0895CF93DF9300D00F92CDB752
:101AA000DEB79091F80290FF0FC09E012F5F3F4F6D
:101AB0000E9441074B8169818A810F900F900F909E
:101AC000DF91CF910C94320D0F900F900F90DF911A
:101AD000CF910895CF93DF93EC01EC81F0E0E55EC8
:101AE000FD4F4491E8EFF2E0628181810E944B0D4D
:101AF0008C818F5F8C83DF91CF910895CF93DF939B
:101B0000EC01E8EFF2E0438162818C810E944B0D91
:101B10008C818F5F8C83DF91CF9108950F931F93FA
:101B2000CF93DF9300D00F92CDB7DEB78C018091B9
:101B3000B60281110AC09E012F5F3F4F46E96FEF49
:101B40000E9441078A818093B602F8016481613066
:101B500049F06230F1F08091B60240E0662331F046
:101B600040E019C06091B60240E080E00E94320D72
:101B7000F801848190E0019663E070E00E945C2AA5
:101B800084830F900F900F90DF91CF911F910F9151
:101B900008954091B60280E060E0E8CFEF92FF92B6
:101BA0001F93CF93DF93EC0110E0EE24EA94F12C25
:101BB00060911701161770F00E94D00C9A818C81E9
:101BC00090FF25C08F5F8C83DF91CF911F91FF9095
:101BD000EF90089580911501810F9927991F9C011D
:101BE000220F331F280F391F27543D4F70E0C701C4
:101BF0000E945C2A962F8C814091FB026091FA0230
:101C0000199F800D11240E9441071F5FD1CF815081
:101C1000DACF9F92AF92BF92CF92DF92EF92FF9274
:101C20000F931F93CF93DF93EC018A81BB24BA9467
:101C300080FD02C0BB24B3948C81A0901701811158
:101C400009C091E0B91202C08FEF8A0D8093B802EB
:101C500081E08C83F12CE12CEA14F0F00E94D00C8E
:101C60009091B802E1E0BE1259C0809117018150F5
:101C7000992319F08FEF890F91E08093B8029C832C
:101C8000DF91CF911F910F91FF90EF90DF90CF9058
:101C9000BF90AF909F900895809115018E0D9F2D5C
:101CA000911D8C01000F111F080F191F07541D4FA4
:101CB000F80111821082128234E0C32ED12C912CB3
:101CC0008091B802890D83312CF162E10E943A2A99
:101CD000892F082E000C990B8E159F0591F4809189
:101CE000FB028C9DA0018D9D500D112455954795AB
:101CF0005595479598016091FA028091F9020E94EA
:101D000041079B0CF1E0CF1AD108D1F68FEFE81A0A
:101D1000F80AA2CF87FFDDCF8A0DDBCF892F90E0B5
:101D200001966091170170E00E945C2A982FA5CF60
:101D3000FF920F931F93CF93DF93EC018C8181115E
:101D400009C081E08C831092B70292E09093120157
:101D500080931101109115019091160183E0189F55
:101D6000F0011124E754FD4F812F891768F100E03D
:101D700093E0F92E60911701061760F10E94D00CD4
:101D8000809111012091B702280F2093B702909102
:101D90001201980F90931201191654F4022E000CA0
:101DA000330B409117014150550B2417350734F080
:101DB000819580931101813009F41C82DF91CF91CC
:101DC0001F910F91FF9008951182108212828F5FF0
:101DD0003396CBCFE02FF0E070E0CF010E945C2A79
:101DE000810F482F50E02091B702022E000C330BD8
:101DF000E217F307BCF020911201022E000C330B06
:101E00002E173F077CF08F9D9001112427543D4FE2
:101E10004091FB026091FA028091F9020E94410711
:101E20000F5FA8CFFA01EE0FFF1FE40FF51FE75475
:101E3000FD4F118210821282F3CFEF92FF920F9327
:101E40001F93CF93DF93CDB7DEB72E970FB6F894DD
:101E5000DEBF0FBECDBF8D879E87AD85BE85149634
:101E60001C91212F30E0D9010E94A62B9B01AC01CF
:101E70000E94712B69837A838B839C83E0E2F0E07C
:101E8000E11BF109A5E5B0E09B01AC010E94712BBB
:101E900069877A878B879C879F01DF010E94762A5A
:101EA0009B01AC010E947C2B6D837E838F8398877E
:101EB0009B01AC0189819A81AB81BC81280F391FBC
:101EC0004A1F5B1F69857A858B859C850E94842BC0
:101ED000F22E422F50E099E29F1588F1A3E02A9F4D
:101EE0009001112435952795122F109500E085E576
:101EF000E82EEF1880911701081778F10E94D00C96
:101F0000ED85FE85948181E0992319F0903219F4D2
:101F10008FEF8093100180911001890FAD85BE85F0
:101F200014968C932E960FB6F894DEBF0FBECDBFDD
:101F3000DF91CF911F910F91FF90EF90089585E56C
:101F400090E0841B950B9C01220F331F280F391F33
:101F500037FFC8CF2F5F3F4FC5CF8E2D01FD8F2D8F
:101F600040911501400F5527551F9A01220F331F2D
:101F7000240F351F27543D4F412F6091FA020E94D4
:101F800041070F5FB7CF0F931F93CF93DF93EC0100
:101F900010E000E0909117019017110609F06CF421
:101FA0000E94D00C8C8190E00196817099278C83DF
:101FB000DF91CF911F910F91089580911501A80194
:101FC000480F511D9A01220F331F240F351F27542C
:101FD0003D4F4C816091FA028091F90296959017DD
:101FE000110651F04CF0442349F04091FB020E944D
:101FF00041070F5F1F4FCECF4423B9F340E0F7CF27
:10200000CF93DF93D82FC92F81E08093E9008FEF22
:102010009091E800815095FD06C095ED9A95F1F7F5
:1020200000008111F5CF8091E80085FF16C050E0D7
:1020300040E068E070E08D2F9C2F0E94F20B8091B1
:10204000E8008E778093E80088E0ED2FFC2FA6ED66
:10205000B1E001900D928A95E1F7DF91CF9108955B
:1020600022E02093E9002FEF3091E800215035FD68
:1020700006C035ED3A95F1F700002111F5CF20911A
:10208000E80025FF0BC050E040E066E070E00E94F1
:10209000F20B8091E8008E778093E8000895CF934B
:1020A000DF9300D00F92CDB7DEB790910F0394303D
:1020B00019F589836A837B8382E08093E9008FEF3F
:1020C0009091E800815095FD06C095ED9A95F1F745
:1020D00000008111F5CF8091E80085FF0DC050E030
:1020E00040E063E070E0CE0101960E94F20B809127
:1020F000E8008E778093E8000F900F900F90DF91AB
:10210000CF910895BC0183E00C944F10BC0184E092
:102110000C944F10AF92BF92CF92DF92EF92FF924A
:102120000F931F93CF93DF9300D000D00F92CDB7C2
:10213000DEB78DE6E82E81E0F82E91E2A92E93E03D
:10214000B92E00E0CC24C394D12CD7018D917D0110
:10215000F894E82FE295EF70F0E021A18F70A601CE
:1021600002C0440F551F8A95E2F7CA01922F982B9F
:1021700091A392A18095892382A3789400C0E7E778
:10218000F1E030E020E010E04191A42FA295AF7083
:10219000A05EB0E08C9190E04F7002C0959587955D
:1021A0004A95E2F780FD47C08C2D022E01C0880FB2
:1021B0000A94EAF7182B2F5F3F4F2630310521F79D
:1021C000F701319780810E942E0550EA5A95F1F768
:1021D000D5018D915D01181781F1FD0131971083B3
:1021E00081E0082BB2E7EB16B1E0FB0609F0ADCFBA
:1021F00010912003002319F181E0809313030E94C2
:10220000B50990931203809311038091110390916B
:1022100012030E94170B0697B0F0A12FB0E0AA5E40
:10222000BC4F85E0E1E2F3E001900D928A95E1F781
:102230001092130308C080E0BDCF80E0D2CF809120
:1022400013038111E2CF0E94AD0C182F609120037F
:10225000882309F459C01A821982FE01339683E05B
:10226000DF011D928A95E9F7862F90E0BE016F5F2E
:102270007F4F8A5E9C4F0E940328811125C0809168
:1022800015038F5F809315038630E0F1E09114030E
:10229000F0E0EA5EFC4F85E0DF011D928A95E9F7E8
:1022A000011101C0012F802F0F900F900F900F9000
:1022B0000F90DF91CF911F910F91FF90EF90DF90E2
:1022C000CF90BF90AF90089510921503E091140342
:1022D000F0E0BF016A5E7C4FDE0111969E012A5F2D
:1022E0003F4F10E0FB014191BF019D91491731F033
:1022F000AF0141505109FA019083182FA217B3077B
:1023000089F7CECF10E0CCCF70E06A5E7C4F809131
:10231000140390E08A5E9C4F0E943B28C1CF0F932C
:102320001F93CF93DF938B01D82FC92F0E94DA0719
:10233000A8016D2F7C2F88E090E0DF91CF911F9155
:102340000F910C94302BE8EFF2E08DE08083118246
:102350008FEF828386E983831482E5EFF2E0828146
:10236000836082836DE070E08FEF96E90C948F11AB
:10237000CF93DF9300D000D0CDB7DEB78091FC02C1
:10238000833018F48F5F8093FC028091F802909163
:10239000F902A091FA02B091FB0289839A83AB8380
:1023A000BC83BC01CD010F900F900F900F90DF9177
:1023B000CF910C948F11CF93DF9300D000D0CDB785
:1023C000DEB78091FC02882319F081508093FC02D3
:1023D0008091F8029091F902A091FA02B091FB026B
:1023E00089839A83AB83BC83BC01CD010F900F908E
:1023F0000F900F90DF91CF910C948F11AF92BF92FD
:10240000CF92DF92EF92FF920F931F93CF93DF93C0
:1024100000D000D000D00F92CDB7DEB7182FF62E27
:10242000042FD22E9091F80290FF96C0E92FE695E6
:10243000AE2FB0E0AE5BBE4F8C918093F5029E7FD5
:10244000923009F045C09E012F5F3F4F812F0E94BF
:1024500041074B8169818A810E94320D8091F90286
:10246000811308C08091FA028F1104C08091FB0291
:10247000801729F08091F70282608093F702109311
:10248000F902F092FA020093FB02DD2009F464C025
:102490008091F8029091F902A091FA02B091FB02AA
:1024A0008C839D83AE83BF83BC01CD0127960FB67D
:1024B000F894DEBF0FBECDBFDF91CF911F910F917A
:1024C000FF90EF90DF90CF90BF90AF900C948F1162
:1024D000823019F40091FB02C1CF863019F41091BB
:1024E000F902BCCF8930D9F3893109F0B7CFE9516E
:1024F0008E2F8170C82EE695F0E0E55EFC4FA5902A
:10250000B490E12CBB2460911701E61618F00E94EC
:10251000D00CA4CF2E2D30E0EA9CC001EB9C900D96
:10252000112470E00E94482A812FC11013C0860F29
:1025300090911501A901490F511D9A01220F331FD6
:10254000240F351F27543D4F402F6F2D0E94410708
:10255000E394D9CF861BECCF27960FB6F894DEBF55
:102560000FBECDBFDF91CF911F910F91FF90EF90E4
:10257000DF90CF90BF90AF900895E8EFF2E08181B7
:1025800021E043816281885F0C94FE11E8EFF2E064
:10259000818121E04381628188500C94FE11E8EF33
:1025A000F2E0628121E1620F08F46FEF21E04381E4
:1025B00081810C94FE11E8EFF2E0628121E1621B5F
:1025C00008F460E021E0438181810C94FE11E8EF82
:1025D000F2E0438121E1420F08F44FEF21E06281F4
:1025E00081810C94FE11E8EFF2E0438121E1421B6E
:1025F00008F440E021E0628181810C94FE114F9249
:102600005F926F927F928F929F92AF92BF92CF9282
:10261000DF92EF92FF920F931F93CF93DF93FC0112
:102620006280448081E08483EBE1F2E07490EAE927
:10263000F2E0E491812C75E0972EF2E0CF2EDD24BC
:10264000D394AA24AA94B12C55245A94E7190E2F96
:1026500010E080911701881690F0DF91CF911F91C3
:102660000F91FF90EF90DF90CF90BF90AF909F9031
:102670008F907F906F905F904F900C94D00CE82CCF
:10268000F12C82E0861568F09E9CF0019F9CF00D75
:102690001124E45AFD4F8091F90280838091FA025F
:1026A0008183411023C09E9CF0019F9CF00D11245A
:1026B000E45AFD4F13821282809115018E0D9F2DD9
:1026C000911D9C01220F331F280F391F27543D4FA6
:1026D0009E9CF0019F9CF00D1124E45AFD4F428115
:1026E000618180810E9441078394B3CF9E9CE00169
:1026F0009F9CD00D1124C45ADD4F8B818823E9F0B3
:1027000081508B83859DC00111246C8170E00E94F3
:10271000482AFB01FF27E55EFD4F8491E82FE7196A
:10272000E59DC0011124B8010E94482A8091FB0256
:10273000689FB00111247A83BFCF0E94ED2AAC01BB
:102740009091FB02969591589C9D90019D9D300D16
:102750001124232F3327421753070CF0ADCF82E00B
:10276000861588F40E94ED2AB5010E945C2A8883B0
:102770000E94ED2A2091FA022695622F70E00E94B5
:102780005C2A280F29839E9CF0019F9CF00D112448
:10279000E45AFD4F12828091FB02893C58F088EC8C
:1027A0009E9CF0019F9CF00D1124E45AFD4F848300
:1027B000838382CF8431A0F784E1F2CFCF93C0919D
:1027C0002C03C2FB992790F9981781F080FBC2F97E
:1027D000C0932C0360912B0384E090E00E941E2B99
:1027E0006C2F82E290E0CF910C941E2BCF91089534
:1027F00010921402E0EBF1E086E0DF011D928A9571
:10280000E9F70C94440A0E94F8132FEF84E39CE04C
:10281000215080409040E1F700C0000087E797E733
:10282000909301088093000888E19AE00FB6F8942D
:10283000A895809360000FBE90936000FFCF0F9328
:102840001F93CF93DF9300D000D0CDB7DEB741E028
:1028500050E060E070E08A019B0104C0000F111F8E
:10286000221F331F8A95D2F709831A832B833C8357
:10287000C901B8010E94610A0F900F900F900F904C
:10288000DF91CF911F910F910C94F8131F93CF9369
:10289000DF93CDB7DEB7AA970FB6F894DEBF0FBEB1
:1028A000CDBF8CEB91E0FC0101962091F1002083DB
:1028B00021E0843C9207B9F78091BD01893009F489
:1028C00056C0C8F4823009F4B1C0833009F480C026
:1028D000813071F18091E80083FF78C28091BC0162
:1028E0009091BD019A3008F071C2E92FF0E0E653F3
:1028F000F44D0C94702A8A3009F487C08B3051F75C
:102900008091BC01813231F78091C0019091C10169
:10291000892B01F78091E800877F8093E8000E946F
:10292000830B8091BE0180930F010E94F813D2CFD8
:102930008091BC01813A71F68091E800877F809395
:10294000E8008091C0019091C101892B61F468E099
:1029500086ED91E070E00E94290B8091E8008B7772
:102960008093E800B7CF60E090E080E0F3CF809103
:10297000BC01813209F0AECF8091C0019091C101BC
:10298000029708F0A7CF8091E800877F8093E80046
:102990008091E80082FF17C09091F3008091F200CF
:1029A000029729F48091F1008B7F813021F480918E
:1029B000F1008093DE018091E8008B778093E8003E
:1029C0000E94830B87CF80910F038111E1CF82CFCB
:1029D0008091BC01813A09F07DCF8091C001909136
:1029E000C101892B09F076CF8091E800877F809321
:1029F000E8008091E80080FFFCCF80910F01809378
:102A0000F1008091E8008E77D9CF8091BC018132AE
:102A100009F060CF8091E800877F8093E8000E94F2
:102A2000830B8091BF018093B80154CF8091BC018A
:102A3000813A09F04FCF8091E800877F8093E800CA
:102A40008091E80080FFFCCF8091B801D8CF80381A
:102A500099F0823809F0BAC18091C0018F70873037
:102A600008F0B4C18093E9008091EB0085FB8827D2
:102A700080F91092E90006C08091B9019091D501CA
:102A8000911182609091E800977F9093E800809385
:102A9000F1001092F1008091E8008E7793C18823B5
:102AA00009F481C1823009F091C18091BE01811188
:102AB00084C18091C0018F702FEF280F263008F05D
:102AC00085C18093E9002091EB0020FF76C193300F
:102AD00031F48091EB0080628093EB006EC19091A5
:102AE000EB0090619093EB0021E030E001C0220FF9
:102AF0008A95EAF72093EA001092EA008091EB00B1
:102B00008860EACF811162C11091BE011F77809168
:102B1000E3008078812B8093E3008091E800877F39
:102B20008093E8000E94830B8091E80080FFFCCF37
:102B30008091E30080688093E30082E0111183E0DC
:102B400080930F0343C18058823008F03FC1409109
:102B5000BE015091BF014C3D83E0580799F583E0D9
:102B60008A838AE289834FB7F894DE01139620E0C6
:102B70003EE051E2E32FF0E050935700849120FFB4
:102B800003C082958F703F5F8F708A30C8F0895C78
:102B900090E08D939D932F5F243161F74FBF80911B
:102BA000E800877F8093E8006AE270E0CE0101963A
:102BB0000E94290B8091E8008B778093E80006C182
:102BC000805DE6CF2091C0013091C101852F99270A
:102BD0008330910509F160F48130910509F472C0E8
:102BE000029709F0F3C08BE390E0E7E6F1E029C03B
:102BF0008132910509F45AC0829709F0E7C0211586
:102C0000310509F469C02130310509F0DFC08BE7D7
:102C100090E0ECEAF0E015C0CA0199274130B1F12B
:102C20008230910509F43AC0892B09F0CFC0E2E067
:102C3000F2E0E4918E2F90E0E2E0F2E0009709F4F8
:102C4000C5C02091E800277F2093E8002091C201B1
:102C50003091C3018217930708F49C0140E02115CD
:102C6000310509F03EC041113CC08091E80082FD71
:102C7000A1CF80910F03882309F49CCF853009F4FC
:102C800099CF8091E80083FFF0CF94CFE2EFF1E09D
:102C9000E4918E2F90E0E2EFF1E0D0CFE4EBF1E0B1
:102CA000E4918E2F90E0E4EBF1E0C8CF21153105DF
:102CB00071F02130310509F089C089E090E0E2E946
:102CC000F1E0BFCF82E190E0E2EAF1E0BACF89E043
:102CD00090E0E9E7F1E0B5CF80E490E0E7E2F1E0F1
:102CE000B0CF80910F03882309F464CF853009F4B5
:102CF00061CF8091E80083FD5DCF8091E80082FD87
:102D0000B4CF8091E80080FFAACF9091F30080912A
:102D1000F2002115310519F08830910550F041E09D
:102D2000089709F040E08091E8008E778093E800F2
:102D300096CF44914093F10031962150310901968C
:102D4000E8CF803809F042C08091E800877F809307
:102D5000E8008091BA018093F1009DCE811136C0C8
:102D60001091BE01123090F58091E800877F80932A
:102D7000E8001093BA010E94830B112311F084E044
:102D800005C08091E30087FDFACF81E080930F03B7
:102D900042E061EC81E00E941C0C42E261EC82E0C6
:102DA0000E941C0C13C08091BE01813079F481E037
:102DB000933009F080E08093D5011092E900809172
:102DC000E800877F8093E8000E94830B8091E800F1
:102DD00083FF0AC08091E800877F8093E80080919C
:102DE000EB0080628093EB00AA960FB6F894DEBFEA
:102DF0000FBECDBFDF91CF911F9108956AEE7EEF98
:102E000090E080E00E943C2B60E082E090E00E9435
:102E10001E2B60E083E090E00E941E2B10921602B1
:102E200010921702109218021092190260E084E0CA
:102E300090E00E941E2B60E082E290E00E941E2B38
:102E400060E085E090E00E941E2B60E086E090E06C
:102E50000E941E2B6FEF87E090E00E941E2B40E047
:102E600050E0BA0188E090E00E94302B60E08DE0F5
:102E700090E00E941E2B40E050E0BA0188E190E013
:102E80000E94302B60E087E190E00E941E2B40E022
:102E900050E0BA018CE190E00E94302B70E060E0DD
:102EA00080E290E00E943C2B40E050E0BA0188E1D3
:102EB00090E00E94302B40E050E0BA018FE090E0BB
:102EC0000E94302B40E050E0BA0183E190E00C9486
:102ED000302B8B3258F48530C0F0EBEFE80FE63240
:102EE000A0F4F0E0EC52F44D0C94702A833450F4CA
:102EF0008A3308F050C0853309F449C0883329F477
:102F000081E00895833409F442C080E008950E946E
:102F1000FE16F6CF80910E03807F80930E0381E032
:102F200080930D0308950E94031490910E03892F3E
:102F30008E7F90FF816080930E0380FDE1CF817FC3
:102F400080930E03DDCF90910E03892F8D7F91FF2B
:102F5000826080930E0381FFD3CF80910E03816046
:102F6000EFCF90910E03892F8B7F92FF8460809327
:102F70000E0382FDF2CFC4CF90910E03892F877F7D
:102F800093FF886080930E0383FDE7CFB9CF80E085
:102F90000E941F14B5CF8953FBCF8D51F9CFCF932A
:102FA000C82F882309F485C08238C1F40E94FD0728
:102FB00081FD7FC089E30E9445090E9471092FEFBE
:102FC00031EE84E0215030408040E1F700C0000045
:102FD00089E30E945E09CF910C9471098338A1F4B2
:102FE0000E94FD0780FD65C083E50E9445090E949F
:102FF00071099FEF21EE34E0915020403040E1F71D
:1030000000C0000083E5E5CF8438A1F40E94FD07ED
:1030100082FD4FC087E40E9445090E9471098FEF2D
:1030200091EE24E0815090402040E1F700C0000084
:1030300087E4CFCF8CEF8C0F813A08F087C0809166
:103040000D03813079F0823049F1811170C0809197
:103050001402823209F06DC08C2F0E946917811111
:1030600028C067C0809114028232B1F3C43171F07C
:1030700030F4CB3089F0C03161F080E005C0C93256
:1030800029F081E0C833C9F78170E9CF10920D03B0
:10309000F4CF82E080930D0381E0F6CFCB3481F151
:1030A00098F4C43240F4CE3100F5C73079F1C43120
:1030B00021F0CF910895C932E1F780911102882360
:1030C00081F010921102F5CFC135C1F061E0C23537
:1030D000C1F06AE0CE3469F780911102CF910C946F
:1030E000AB0581E080930D03E4CFCE51EC2FF0E0EF
:1030F000E85CFE4F808180931102DBCF61E0ECCF72
:103100006AE080911102CF910C94470510920C0354
:1031100084E180932701C09326018CE380932501ED
:1031200088E08093240188E280932301C2CF10922B
:103130000D03E0EBF1E08191C817D9F131E0E63BF6
:10314000F307C9F78C2F0E94450945CF80E28C0F09
:10315000883068F4C77021E030E001C0220FCA95C2
:10316000EAF780911402822B8093140234CF8BE50E
:103170008C0F833038F42C2F2452330BC901CF919C
:103180000C940908E8E5EC0FE73150F4F0E0EE0F9D
:10319000FF1FE358FE4F80819181CF910C941F084F
:1031A000CD3E08F486CF8C2F0E947F06CF910C94E1
:1031B000C1098C2F0E945E090E947109C3CFFF9242
:1031C0000F931F93CF93DF93C62FD42F122F8823F3
:1031D000A9F0609312020E94B5099093B701809301
:1031E000B601C77081E001C0880FCA95EAF7DF9188
:1031F000CF911F910F91FF900C949E098091120224
:10320000681337C08091B6019091B7010E94170BE7
:10321000883C910570F500E20D0FCD17A9F0C7703D
:10322000FF24F3948F2D01C0880FCA95EAF70E94FE
:10323000A809083048F48D2F877001C0FF0C8A95CB
:10324000EAF78F2D0E949E09812F0E94CF17812FB0
:103250000E94E7090830A0F4D77081E001C0880F10
:10326000DA95EAF7DF91CF911F910F91FF900C94BF
:10327000A809C77081E001C0880FCA95EAF7F2CFAC
:10328000DF91CF911F910F91FF900895CF9384E02C
:1032900090E00E940A2BC82F82E290E00E940A2B45
:1032A000982F8C2FCF9108958091F7020895109256
:1032B000F7020895CF93DF93EC0185E0E8EFF2E0A9
:1032C000DE0101900D928A95E1F78091F5029091CF
:1032D000F602A091F7028D839E83AF83DF91CF9199
:1032E00008951F921FB61F9211248F939F93AF933F
:1032F000BF938091E701811113C08091E301909108
:10330000E401A091E501B091E6014196A11DB11D36
:103310008093E3019093E401A093E501B093E6016B
:10332000BF91AF919F918F911F901FBE1F901895D5
:1033300078941F921FB61F9211248F939F93AF937F
:10334000BF938091E3019091E401A091E501B091D8
:10335000E6010196A11DB11D8093E3019093E40164
:10336000A093E501B093E601BF91AF919F918F913A
:103370001F901FBE1F901895CF92DF92EF92FF9281
:10338000CF93DF9300D000D0CDB7DEB76B017C01C7
:103390000E94AD0C81110EC00E94F70AC61AD70A0E
:1033A000E80AF90AC092DF01D092E001E092E1015F
:1033B000F092E2010F900F900F900F90DF91CF915C
:1033C000FF90EF90DF90CF900895CF93DF9300D0E0
:1033D00000D0CDB7DEB70E94AD0C882341F00F902E
:1033E0000F900F900F90DF91CF910C94F70A0E94ED
:1033F000F70A69837A838B839C838091DF019091A4
:10340000E001A091E101B091E20129813A814B8173
:103410005C81280F391F4A1F5B1FCA01B9010F9039
:103420000F900F900F90DF91CF9108950E94AD0CF7
:1034300081110C94B5090E94E519CB0108956091A2
:10344000F802669570E04BE050E088E191E00E9460
:10345000FD2A892B19F481E08093F6020E94161A46
:103460009093F0028093EF028091F7028460809342
:10347000F7020895CF93DF9300D000D0CDB7DEB729
:103480009091F80290FF4CC0882309F442C08B321F
:1034900008F041C08F77880F9091F8029170892BC6
:1034A0008093F8028091F70281608093F70266238F
:1034B00081F08091F8029091F902A091FA02B09106
:1034C000FB0289839A83AB83BC83BC01CD010E943C
:1034D0008F116091F802669570E04BE050E088E152
:1034E00091E00E94FD2A892BC1F00E94F00781E043
:1034F0008093F20220E04091FB026091FA028091F9
:10350000F9020F900F900F900F90DF91CF910C94D4
:10351000FE1181E0C0CF8AE2BECF0E941F1AE7CF22
:103520000F900F900F900F90DF91CF9108958091A1
:10353000F80286958F5F8B3208F081E061E00C9491
:103540003A1A9091F80296958FEF890F913009F40D
:103550008AE261E00C943A1A9091F80290FF07C059
:103560009695981720F0961710F40C94971A61E02E
:103570000C943A1A8F929F92AF92BF92CF92DF92A1
:10358000EF92FF920F931F93CF93DF9300D000D061
:103590000F92CDB7DEB78C01DC019C9111968C9116
:1035A000119713962D913C91232B21F089238F3F66
:1035B00009F0D0C40F900F900F900F900F90DF91F3
:1035C000CF911F910F91FF90EF90DF90CF90BF9020
:1035D000AF909F908F90089527E245EE65EED80159
:1035E00012968C910E94DF1880911E02877011F351
:1035F000D80112968C918823E9F282E00F900F9007
:103600000F900F900F90DF91CF911F910F91FF902E
:10361000EF90DF90CF90BF90AF909F908F900C94E1
:10362000DB0A26E241EE60EEF8018281DBCF26E282
:1036300041EE62EEF9CF29813A812B5F3C4529307A
:10364000310508F4C5C489809A8026E182162CE5EC
:10365000920609F405C589809A802BE582162DE52E
:10366000920609F0A4C181E0C9C1E981FA81E35061
:10367000FC4580912B038160E331F105C8F4E650ED
:10368000F44D0C94702A89819A818B5F9C4509972F
:1036900008F0B2C4E981FA81EC5FFC45E830F1053D
:1036A00090F4E35FF34D0C94702A80912B038260B9
:1036B00080932B03A1C480912B038460F9CF809168
:1036C0002B038860F5CF80912C03816080932C03BD
:1036D00093C480912C038260F9CF80912B03806189
:1036E000E7CF80912B038062E3CF80912B0380642E
:1036F000DFCF0E94F81380912B038068D9CF80918F
:103700002B038C60D5CF80912C038360DFCF809119
:103710002B038E7FCDCF80912B038D7FC9CF8091DE
:103720002B038B7FC5CF80912B03877FC1CF8091E7
:103730002C038E7FCBCF80912C038D7FC7CF8091C0
:103740002B038F7EB5CF80912B038F7DB1CF8091DE
:103750002B038F7BADCF0E94F81380912B038F77C3
:10376000A7CF80912B03837FA3CF80912C038C7FE5
:10377000ADCF80912B0382FB992790F921E092270E
:1037800090FB82F990FB83F993CF80912C03982FC3
:10379000909591708E7F892B90FB81F997CF0E9435
:1037A000F81390912B03892F97FB87F9805880CFCE
:1037B00061E08EE090E00E941E2B1EC460E0F9CF15
:1037C00085E35CC480911302811104C089E20E94E8
:1037D0005E0956C485E3FBCF809114028272A980F2
:1037E000BA8027EDA2162CE5B20680F433ECA316BE
:1037F0003CE5B306A8F0F501E45CFC45E331F105D6
:1038000008F052C0EB5EF34D0C94702A89809A80C8
:103810006AE285E22EE582162DE5920609F4AFC034
:10382000F8018281E080F180882309F4EEC0C701AD
:103830000E9496088983682FC7010E943F08B7013C
:1038400089810E948C038D839983D8011296AC9054
:10385000129715969C9092943FE0932280911E02BD
:103860008770A1F0CA2CAA2091F0892F807F803424
:1038700021F08D81805E883048F082E00E94DB0A72
:1038800080911E028770CC24C3948111C12C898140
:1038900082958F70E82EF12C8C3008F0F4C0F7017F
:1038A000E85DF34D0C94702A8091F80280FF26C0E9
:1038B0008E7F8093F8028091F8029091F902A09196
:1038C000FA02B091FB0289839A83AB83BC83BC016B
:1038D000CD010E948F110E94F0078091F702816054
:1038E0008093F7029FEFA0E7B2E09150A040B04074
:1038F000E1F700C000000E94D00C76CE816080937A
:10390000F80261E086950E943A1A6ECE41EA5AE1C9
:1039100067E97AE10E94F80767CE47E95AE161EA70
:103920007AE1F8CF46EC52E16DEB72E1F3CF4DEB6B
:1039300052E166EC72E1EECF4BED52E16FEC72E1D9
:10394000E9CF4FEC52E16BED72E1E4CF43EF52E18E
:1039500067EE72E1DFCF47EE52E163EF72E1DACF5B
:103960004BED51E168EB71E1D5CF48EB51E16BEDE7
:1039700071E1D0CF61E081E0C6CF65E082E00E94D6
:10398000AC1A32CE68E086E0FACF6EE089E0F7CF7D
:1039900064E18FE0F4CF67E185E1F1CF61E088E198
:1039A000B2CF62E289E1EBCF61E083E2ACCF898004
:1039B0009A802CE582162DE5920668F481143CE588
:1039C0009306F9F04FED84164CE5940609F028CFE4
:1039D0000E94FE1609CE89809A802CE582162DE57C
:1039E000920689F03DE58316930609F019CF809180
:1039F0002C0382FB882780F991E089270E94DE133F
:103A00000FCF0E94031480E0F9CFC7010E946D0818
:103A1000898315CFB981BF70DB2EE981E07F19F072
:103A2000D29420EFD222AA20D1F0DD2071F08D8136
:103A3000805E883018F08D8081100BC08091140258
:103A40008D29809314020E9471098D810E94CF17E5
:103A50001AC080911F028D2980931F02F4CF8D819F
:103A60000E94E709DD2079F0D0948D81805E883056
:103A700018F09D8091103DC0809114028D2180939B
:103A800014020E94710988E0E81AF10894E0E9162E
:103A9000F10410F40E94FD07CC20B1F080911E02C9
:103AA00080FD12C0D80112961C928595859585954A
:103AB0000E94750AC8010E94BA1A80911E0285955B
:103AC000859585950E94A60A60E0C8010F900F9029
:103AD0000F900F900F90DF91CF911F910F91FF905A
:103AE000EF90DF90CF90BF90AF909F908F900C940D
:103AF000D80880911F028D2180931F02C2CF298197
:103B00002F70D22E3981307F303219F0D29490EF5D
:103B1000D9228D80882089F0282D213099F1AA2082
:103B2000F1F19920A9F1D80115968C91159780FF94
:103B30008CCF8F7015968C932BC0AA20B1F09091EA
:103B400015028D2D892B911003C00E949E099BCFD9
:103B500031E09312FACF20912C0322FD94CF9817D5
:103B600009F491CF809315028ECF911006C00E9468
:103B70006B098D2D0E94A80986CF41E0941609F4A7
:103B800082CFF5CFAA2031F055E0591508F47BCF4C
:103B90008D2DDBCF84E0891508F475CFEACF99200D
:103BA00041F3BD81B93349F4EFEFF7EE23E0E15083
:103BB000F0402040E1F700C000008D810E94E7093D
:103BC00062CF898186958695837069F0813009F08E
:103BD0005ACF8D8199819370A11002C090E080E04E
:103BE0000E941F0850CF8D8199819370A11002C04F
:103BF00090E080E00E94090846CF8D81AA2029F03C
:103C00000E947F060E94C1093ECF0E94C806FACFDB
:103C10008981837009F07CC0A11035CF2D81229558
:103C200026952770220F220F4D814F7050E070E0D3
:103C300060E0022E04C0440F551F661F771F0A94D0
:103C4000D2F78D8080E090E0DC0184FE0FC08FE031
:103C500090E0A0E0B0E004C0880F991FAA1FBB1F2E
:103C60002A95D2F780959095A095B09599809694D5
:103C70009694292D2370223059F1233009F441C044
:103C80008090160290901702A0901802B09019022E
:103C9000213099F0842B952BA62BB72B9C01AD01DD
:103CA000282139214A215B2129833A834B835C8374
:103CB000CA01B9010E94610AE6CE842A952AA62A81
:103CC000B72AA5019401282B392B4A2B5B2BECCF6B
:103CD000842B952BA62BB72B4091160250911702DF
:103CE00060911802709119024C015D01842695269D
:103CF000A626B72689829A82AB82BC82C501B4010E
:103D0000D9CF4A015B01882A992AAA2ABB2AF2CF75
:103D1000AA2009F452C0998090FEB5CE2D8122953B
:103D200026952770220F220F4D814F7050E070E0D2
:103D300060E0022E04C0440F551F661F771F0A94CF
:103D4000D2F7BD8080E090E0DC01B4FE0FC08FE0D0
:103D500090E0A0E0B0E004C0880F991FAA1FBB1F2D
:103D60002A95D2F780959095A095B09589808694F4
:103D70008694282D2370223079F1233009F43FC036
:103D800080901A0290901B02A0901C02B0901D021D
:103D90002130B9F0842B952BA62BB72B9C01AD01BC
:103DA000282139214A215B2129833A834B835C8373
:103DB000CA01B9010E946B0A66CEA980A1FE63CE3A
:103DC000ADCF842A952AA62AB72AA5019401282BCB
:103DD000392B4A2B5B2BE8CF842B952BA62BB72BAB
:103DE00040911A0250911B0260911C0270911D02B9
:103DF0004C015D0184269526A626B72606C04A01F9
:103E00005B01882A992AAA2ABB2A89829A82AB82D4
:103E1000BC82C501B401CECF29812F702983AA208D
:103E200029F0822F0E94750A8D818FCE8D810E948C
:103E3000A80989810E94A60A26CE3D81323F09F455
:103E40004FC068F4303F41F1313F09F441C0AA202E
:103E500009F46FC09110F9CD89818F713EC04D81F9
:103E6000433F09F442C0443F91F7AA2009F455C0EA
:103E700029812F712983822F0E94750A80912C033A
:103E800082FD49C0898038E0839EC001112483608F
:103E900080931E02882D21C0AA20A1F054E059155C
:103EA00008F4F1CD89818F71898381E090E0A0E0F1
:103EB000B0E0098004C0880F991FAA1FBB1F0A9495
:103EC000D2F78ECF85E0A82EA91408F4DCCDEACF76
:103ED00089818F71AA2009F4ADCF0E94750AD3CDD4
:103EE00089818F71AA20C9F3A5CF60E070E0CB0172
:103EF000AA2009F45FCF29812F7181E090E0A0E032
:103F0000B0E04C015D0104C0880C991CAA1CBB1CCC
:103F10002A95D2F77ACF8981E0CF81E00E94DB0A2F
:103F2000AA24A394A91408F0AECD82E00E94DB0A73
:103F3000AACD992061F02D81293309F03ECE3FEFC3
:103F400047EE53E0315040405040E1F734CE898194
:103F50008F7170CF61E0C8010E94D80889839A836D
:103F600089809A8024EF82162CE5920609F459CBB9
:103F700008F053C049ED84164CE5940609F42CCBA7
:103F800028E241E065EE5AED85165CE5950609F4F8
:103F90004BCB26E241EE61EE88ED88168CE5980663
:103FA00009F442CBD80112969C91992309F450C090
:103FB0001092120289809A8026E182162CE59206E0
:103FC00008F039CB32E083163CE5930608F443CB86
:103FD0000E94461990932C0380932B0389809A802A
:103FE00026E182162CE5920608F04DCB32E08316CE
:103FF0003CE5930608F039CB60912B0380902C03AD
:10400000898284E090E00E941E2B698182E290E028
:104010000E941E2B0E94F813E7CA89809A8026EF1F
:1040200082162CE5920609F402CB27E245EE66EEF5
:1040300037EF83163CE5930609F4D1CA45EF8416A1
:104040004CE5940609F0AECF27E245EE64EEC7CA10
:1040500089809A8026E182162CE5920609F0BCCB75
:1040600080911402992309F4ADCB8A7A91E009F486
:1040700090E0909313028111A3CB89E20E9445093D
:104080000E947109B1CA1F93CF93DF9380915702A9
:10409000807FA9F480915402882389F080912102C5
:1040A000C09120027091520260915302A09155027A
:1040B000B0915602D62FD72316E0C81304C0DF9163
:1040C000CF911F91089590E0109711F0DF3F19F400
:1040D00001968770F2CF189F9001199F300D11241F
:1040E000F901EE5DFD4F41816413F2CF408147132A
:1040F000EFCF42814111ECCF438154814A1B5B0BCE
:10410000483C510528F7809157028F708061809359
:104110005702F901E95DFD4F80818F7080618083D6
:1041200082E592E00E94BA1ADF91CF911F910C9420
:104130003508AF92BF92CF92DF92EF92FF920F932A
:104140001F93CF93DF93CDB7DEB72B970FB6F894BD
:10415000DEBF0FBECDBF8C0185E0F801DE011796F2
:1041600001900D928A95E1F7D8011296EC90129782
:104170009C9111968C9111971396CD90DC9022E52D
:10418000A22E22E0B22E3091520240915302609151
:104190005502709156026115710529F0232F2423D1
:1041A0002F3F09F04CC1EE2009F457C18F8198854B
:1041B0000E941809F82E882309F44FC186E0F801FF
:1041C000A2E5B2E001900D928A95E1F7809152024A
:1041D000909153020E940C090E9443201DC020911F
:1041E0005702522F507F683C710508F0CAC0511128
:1041F000EBC0FE2C841322C0391320C0E1101EC076
:104200002F7020612093570282E592E00E94BA1A33
:1042100080915702F80185838F2D2B960FB6F89465
:10422000DEBF0FBECDBFDF91CF911F910F91FF90E9
:10423000EF90DF90CF90BF90AF900895C114D1045C
:1042400029F0282F29232F3F09F0BBC020E0E0915F
:1042500021024091200256E020FD2FC0CD2829F0F8
:10426000282F29232F3F09F0A9C020E0F22FF17059
:10427000DF2EE09121024091200256E020FD34C063
:10428000EE2051F280915702816080935702F12C09
:10429000C3CF2E2F30E05E9FF0011124EE5DFD4F65
:1042A0006181861306C06081961303C062816E111E
:1042B0006AC02F5F3F4FE22FE770E413EACFCECF03
:1042C0002E2F30E05E9FF0011124EE5DFD4F6181E5
:1042D000861306C06081961303C062816E11D0CF31
:1042E0002F5F3F4FE22FE770E413EACF8F8198856D
:1042F0000E940C09292F22952F70903268F0225FBE
:104300002F70223080F49F7059F0D80115969C913F
:10431000907F31F4D12C0AC09F7011F08823D1F323
:10432000805E8830B8F3C8010E94BA1AFD2C74CFA1
:104330008F8198850E941809882309F48EC0EE2089
:1043400009F48BC080915702803270F020915202A4
:10435000309153023A8329831B82DD82CC828E8383
:10436000CE0101960E94BA1A86E0F801A2E5B2E0F9
:1043700001900D928A95E1F70E944320FF24F39467
:104380004BCF511135C082E592E00E94BA1A86E007
:10439000E2E5F2E0DF011D928A95E9F778CF8F819F
:1043A00098850E9418098111DFCF809157028160A2
:1043B00080935702C8010E94BA1A2ECF21E02E2501
:1043C00055CF21E02E2543CF8413B2CF3913B0CF80
:1043D000E110AECFF8012583C8010E94BA1A86E029
:1043E000F801A2E5B2E001900D928A95E1F714CFB1
:1043F00084139ECF39139CCFE1109ACFF801258307
:10440000C8010E94BA1A86E0D5011D928A95E9F783
:1044100003CF8413C4CF3913C2CF8091570280FDDC
:10442000DECF982F907FD9F2F8018583903FA1F2DB
:10443000982F907F905F8F70892B8583CDCFF090E0
:104440005402F601E61BF70BBF01F110C8CE683C21
:104450007105C8F6FE2CE110DCCFC8010E94BA1A23
:104460008DCF1F93CF93DF93CDB7DEB767970FB68E
:10447000F894DEBF0FBECDBF4B8B5C8B962F6D8B40
:104480007E8B8F8B611110921F021A8A85E0FE01CC
:104490007396DE011D9601900D928A95E1F79F8734
:1044A00086E0FE013D96DE01179601900D928A95F9
:1044B000E1F7CE0107960E949920882389F016E043
:1044C0008091210290912002891349C067960FB60E
:1044D000F894DEBF0FBECDBFDF91CF911F9108953D
:1044E00086E0FE013796DE01119601900D928A95C5
:1044F000E1F78F81988520912002409121026A8501
:104500007B85672BE1F289238F3FC9F230E0C90137
:104510000196877099274817190671F40E94F813BD
:10452000109220021092210286E0E2E5F2E0DF0123
:104530001D928A95E9F7C3CF96E0929FD001939F91
:10454000B00D1124AE5DBD4FFE01319601900D926C
:104550009A95E1F7809320020E943508B0CF819FA1
:10456000C00111248E5D9D4F0E949920882309F47B
:10457000ADCF8091210290E00196877099278093BA
:1045800021029ECF1F93CF93DF93EC01162F8F81D3
:1045900080FF0BC0888180FF23C09091F80291605A
:1045A0009093F80286950E943A1A8F8181FF06C087
:1045B000212F4B816A8189810E94FE118F8182FFA8
:1045C00005C08E81882379F00E941F1A8F8183FF96
:1045D00003C081E08093F202DF91CF911F91089593
:1045E0000E941B0DE2CF0E94F007F0CFCDB7DEB7DF
:1045F0002F970FB6F894DEBF0FBECDBF84B7877F6D
:1046000084BF0FB6F894A89580916000886180936C
:104610006000109260000FBE80E890E00FB6F89442
:1046200080936100909361000FBE85B7806885BF5D
:1046300085B7806885BF83EB99E09093AD01809347
:10464000AC010E94D30B0E944C0C8091E20084606C
:104650008093E200789480910F03882399F08091F1
:10466000E9001091EC001795112717958F70182B02
:104670001092E9008091E80083FD0E9446141F70AB
:104680001093E90082E084BD93E095BD9AEF97BD59
:1046900080936E001092DF011092E0011092E10110
:1046A0001092E2010E94AD0C8093040180910401FC
:1046B000882309F4D6C180E08093130189E08093B8
:1046C00014010E94AD0C81110E94DA27809104012F
:1046D0008091040195E0811190E09093200385E0A2
:1046E000891B8093140387EF0E942E0581E30E94AB
:1046F0002E0583E30E942E0582E30E942E0586E3A9
:104700000E942E0584E90E942E0586E60E942E0551
:1047100087E90E942E0586EC0E942E0584E30E9404
:104720002E0585E30E942E058AE0E1E2F3E0DF0139
:10473000282F1D922A95E9F7E6E1F3E0DF011D92AB
:104740008A95E9F790E080E00E94182B8A3E9E4F00
:1047500011F00E94FE1682E090E00E940A2B8093E6
:104760000E030E94461990932C0380932B0383E041
:1047700090E00E940A2B282F30E050E040E02C8788
:104780003D874E875F87CA01B9010E94610A0E9476
:10479000AD0C811102C00E94E0278091C4018111FB
:1047A0003BC090E080E00E94182B8A3E9E4F21F093
:1047B0000E94FE160E94A31188E090E00E94122B36
:1047C0006093F8027093F9028093FA029093FB02CF
:1047D0008091F70283608093F7026E7F71F40E94EC
:1047E000A31188E090E00E94122B6093F80270936E
:1047F000F9028093FA029093FB020E94DA070E946A
:10480000F0078091F80280FF04C060E086950E9466
:104810003A1A81E08093C40185E091E09093FE0212
:104820008093FD02A8E1AA2EB12CB0E46B2E772470
:10483000739455245394AE014F5F5F4F6A0180918A
:104840000F0300E112E1853009F451C10E948A1082
:1048500081110E94F70AE6E1F3E0ABECB1E010E071
:1048600000E0802EE1908D918E1509F460C18E25B7
:10487000912CFF24F394982F9F2109F453C10E9497
:10488000AD0C882399F099828A82EF2081E009F4A7
:1048900080E08B830E94B5098160782F9D838C8393
:1048A00049815A816B81892F0E943122F801E55399
:1048B000FE4F80818F2580838091F602882309F442
:1048C00064C08091F502E091F802E695E81BE09360
:1048D000F102823009F042C1F0E0E95EFD4FE4915F
:1048E0000E2F10E0FAE6EF2EFDE0FF2E8091F2028F
:1048F000882361F01092F2020E94161A9093F0023F
:104900008093EF021092F4021092F3020E94161AA2
:104910009C018091EF029091F002A901481B590B74
:104920004F3F5F4790F54091C9014423B1F0109289
:10493000C9014091C7015091C801241B350B2F3F7D
:104940003F4758F4405D5A485093C8014093C7010F
:104950002091F70228602093F7028090F302909054
:10496000F402800F911F9093F0028093EF028FEE7C
:1049700092E0F70109958091F3029091F402892B5E
:1049800021F4892811F07092C90186E0E3E0F3E098
:10499000D60101900D928A95E1F7809005039090E1
:1049A0000603E0900703F0900803109205031092AD
:1049B00006031092070310920803882D89291C2DE5
:1049C0000D2D09F445C180910103909102030E94CD
:1049D000170B9C0180910A03882309F42FC1909141
:1049E00027019217130608F033C18F3F19F08F5F2C
:1049F00080930A03882059F00E94FC059FEF181449
:104A00000CF491E0899F802D112480930503992057
:104A100059F00E94FC059FEF19140CF491E0899F56
:104A2000802D11248093060330910503332309F46C
:104A30000FC120910603222309F40AC145EB340378
:104A4000C0011124992309F470C19093050355EB1B
:104A5000250390011124332309F46AC1309306031E
:104A6000F7C089E029CE80910F03843009F430C06B
:104A70000E94F0078091C601811109C05092C601C1
:104A80008091F80281708093C5010E941B0D1092E5
:104A9000E7010FB6F894A895A09260000FBE60924F
:104AA000600083B7817F846083BF83B7816083BFE9
:104AB0007894889583B78E7F83BF0FB6F894A895B6
:104AC00080916000886180936000109260000FBE4A
:104AD0008091D501882359F00E948A10E6E1F3E025
:104AE000819181112EC153E0E032F507C9F7809121
:104AF0000F03853009F4B7CF0E94F8130E94FD0719
:104B00001092C6018091C501882349F08091F80276
:104B100081608093F80260E086950E943A1A0E94B4
:104B20001F1A94CE9394FF0C66E09612A4CE0F5FEA
:104B30001F4F0A30110509F094CE8FEF8F838887BD
:104B400019860E94B5098160782F9B878A874F81DB
:104B500058856985892F0E943122AECE08E210E087
:104B60009DE1E92E9FE0F92E883109F4BFCEE0F4F3
:104B70008F3009F440C058F4863031F1893079F132
:104B800000ED17E0E7EFEE2EE7E0FE2EAFCE853129
:104B9000B9F7F0E0E55FFD4FE4910E2F10E048E932
:104BA000E42E4EE0F42EA2CE843209F440C08532C9
:104BB00071F1833229F7E9E0F2E0059114913EE8C2
:104BC000E32E3DE0F32E92CEF0E0EC5EFD4FE4915B
:104BD0000E2F10E07EE7E72E7DE0F72E87CEE695DC
:104BE000F0E0EF5EFD4FE4910E2F10E06EECE62E4C
:104BF0006DE0F62E7BCEE695F0E0E25FFD4FE491AE
:104C00000E2F10E059E0E52E5EE0F52E6FCE8E2FD0
:104C100063E00E942E2AE92FF0E0EA5FFD4FE49165
:104C20000E2F10E02FEFE22E22E1F22E5FCE04EFE6
:104C300011E083ECE82E8FE0F82E58CE40910C0363
:104C4000FAE04F9FA00111244217530708F4CFCE7A
:104C50008E2D8F2909F446C08091FF0290910003A8
:104C60000E94170B9C0180910903882309F47FC0DF
:104C700025363105B8F18F3F19F08F5F8093090316
:104C8000EE2059F00E9446069FEF1E140CF491E0AE
:104C9000899F802D112480930703FF2059F00E94E3
:104CA00046069FEF1F140CF491E0899F802D11247C
:104CB000809308033091070320910803332391F078
:104CC000222381F065EB3603C0011124992399F169
:104CD0009093070345EB240390011124332371F1D2
:104CE000309308038091050390910603892B9091DE
:104CF0000703892B90910803892B11F00E94C109A9
:104D000086E0E12FF02FA3E0B3E001900D928A95A9
:104D1000E1F70E94FD079091CA01891709F48FCD30
:104D20000E94FD078093CA018ACD709205038FCE41
:104D3000709206038DCF70920703CCCF7092080358
:104D4000D1CF09BD19BD09B400FEFDCF8091D800B7
:104D50008F7D8093D8008091E00082608093E00096
:104D60008091E00081FDFCCF0E94F813C0CE232B80
:104D700009F083CFB7CF1F920F920FB60F92112475
:104D80002F933F934F935F936F937F938F939F9353
:104D9000AF93BF93EF93FF938091E10082FF09C02F
:104DA0008091E20082FF05C08091E1008B7F8093BB
:104DB000E1008091DA0080FF24C08091D80080FF5C
:104DC00020C08091DA008E7F8093DA008091D90034
:104DD00080FF99C080E189BD82E189BD09B400FEF0
:104DE000FDCF81E080930F038091BB01811109C049
:104DF0000E94D30B0E944C0C8091E200846080934F
:104E0000E2008091E10080FF17C08091E20080FF06
:104E100013C08091E2008E7F8093E2008091E200D7
:104E200080618093E2008091D80080628093D800F6
:104E300019BC85E080930F038091E10084FF27C0B7
:104E40008091E20084FF23C080E189BD82E189BDB9
:104E500009B400FEFDCF8091D8008F7D8093D800EB
:104E60008091E1008F7E8093E1008091E2008F7E4F
:104E70008093E2008091E20081608093E200809163
:104E8000BA01882309F445C084E080930F03809120
:104E9000E10083FF27C08091E20083FF23C080915F
:104EA000E100877F8093E10082E080930F031092FE
:104EB000BA018091E1008E7F8093E1008091E20051
:104EC0008E7F8093E2008091E20080618093E20017
:104ED00042E060E080E00E941C0C8091F00088605D
:104EE0008093F000FF91EF91BF91AF919F918F91CF
:104EF0007F916F915F914F913F912F910F900FBED6
:104F00000F901F90189519BC10920F031092BB01BF
:104F100078CF8091E30087FD02C081E0B6CF83E0C7
:104F2000B4CF1F920F920FB60F921124FF920F93DE
:104F30001F932F933F934F935F936F937F938F9321
:104F40009F93AF93BF93CF93DF93EF93FF9309EEBC
:104F500010E0F8018081C091EC00C795CC27C7957F
:104F60008F70FC2EF82A1082C0EFD0E08881877FF6
:104F7000888378940E944614F801108288818860A2
:104F80008883CF2DCF70C083FF91EF91DF91CF91B8
:104F9000BF91AF919F918F917F916F915F914F9151
:104FA0003F912F911F910F91FF900F900FBE0F9087
:104FB0001F90189562E070E088E291E00C94CD2893
:104FC00062E070E088E291E00C94D6280E945419C7
:104FD000882361F088E393E00E945A1981E090E011
:104FE0000E94AF29892B11F40C94571908958091D0
:104FF0003703883039F460E088E393E00E94C222EE
:10500000109237030895CF93DF9300D000D00F9212
:10501000CDB7DEB76D8379830E94E62790E080E00C
:105020000E94AF299C0180E021153105E1F4ED815A
:10503000F981D901AE5CBC4F8C9181932F5F3F4FBA
:1050400025303105B1F70E94E519DC01CB0102964C
:10505000A11DB11D80932E0390932F03A0933003C5
:10506000B093310381E00F900F900F900F900F904D
:10507000DF91CF910895CF93DF9300D000D000D07F
:10508000CDB7DEB76E837D830E94F72780912E0314
:1050900090912F03A0913003B091310389839A83BB
:1050A000AB83BC83BC01CD010E94BC19EE81FD81A4
:1050B00090E080E02191DC01AE5CBC4F2C93019626
:1050C00085309105B9F726960FB6F894DEBF0FBE6E
:1050D000CDBFDF91CF9108958EE1489B02C08150F2
:1050E000E1F7489BFECF0895589880E28A95F1F742
:1050F000589A0895FC013BE03A95F1F720E090E0E2
:1051000080E031E040E14A95F1F7880F489B02C00A
:105110008160232742E04A95F1F7000040E14A957B
:10512000F1F79F5F6913EECF90E19A95F1F799B18E
:1051300032E03A95F1F7000040E14A95F1F79170BD
:1051400092272081920F90830895EF92FF920F9300
:105150001F93CF93DF930F92CDB7DEB719828C01E7
:105160007C01E60EF11C0E151F0561F481E09981AA
:10517000911180E00F90DF91CF911F910F91FF90DF
:10518000EF9008950E946C2868E0CE0101960E947D
:105190007A28F80181938F01E6CF909342038093A0
:1051A000410360934003509A589A089590934203A4
:1051B00080934103609340035098589AE89AE9E637
:1051C000F0E080818C7F808308956150770B91E0BF
:1051D00001C0990F6A95EAF720E031E0911108C00B
:1051E000222391F0589A80E28A95F1F75898089511
:1051F000492F482339F0589A232740E24A95F1F77E
:105200009695ECCF5898F9CF5898EDCFFF920F9321
:105210001F93CF93DF93EC018C01060F111DC01774
:10522000D10731F4DF91CF911F910F91FF90089535
:10523000F9900E94742868E08F2D0E94E528EFCF36
:105240001F920F920FB60F9211240F931F932F935B
:105250003F934F935F936F937F938F939F93AF93FE
:10526000BF93EF93FF93CF93DF930F92CDB7DEB74A
:1052700019820E946C2867E0CE0101960E947A286C
:10528000282F269526952695982F92959570322F42
:105290003570930F392F3370969596958770930FCD
:1052A000891344C08981811141C0809140038217D4
:1052B000E8F180E18A95F1F7589A509AA2E0AA9510
:1052C000F1F700C0B8E02B9F900111240091410339
:1052D00010914203020F131F5898F801658166234D
:1052E00021F0868197810E9406290E947428F0E1AE
:1052F000FA95F1F758985098589A80E18A95F1F705
:10530000D80112966C911297662331F113968D9104
:105310009C910E94A528D801ED91FC91882311F061
:1053200088E001C082E080830E946C280F90DF91AA
:10533000CF91FF91EF91BF91AF919F918F917F910D
:105340006F915F914F913F912F911F910F910F900E
:105350000FBE0F901F901895ED91FC91E1CF0F9328
:105360001F93CF93DF939C01809140038217130614
:105370000CF471C0890183E0000F111F8A95E1F7D9
:10538000C0914103D0914203C00FD11FF894509AAD
:10539000589885E08A95F1F70000922F96959570C0
:1053A0002570920F892F837096959695890F082BFB
:1053B0000E94742800C067E0802F0E94E52880E1E9
:1053C0008A95F1F75098589A489B17C087E090E06B
:1053D000489915C06D81662321F18E819F810E94BD
:1053E000A52881111EC0509A589AE881F98182E05F
:1053F0008083789482E090E00DC000C0E5CF0197F3
:1054000071F4509A589AE881F98181E08083789408
:1054100081E090E0DF91CF911F910F91089500C03E
:10542000D7CF0E946C2880E28A95F1F75898509A5D
:1054300080E18A95F1F76A81662321F08B819C8156
:105440000E9406290E947428E881F98110827894CC
:1054500090E080E0DFCF84E090E0DCCF991B79E042
:1054600004C0991F961708F0961B881F7A95C9F7F4
:105470008095089587FB082E062687FD819567FD98
:1054800061950E942E2A0EF4919507FC819508954E
:10549000AA1BBB1B51E107C0AA1FBB1FA617B7075A
:1054A00010F0A61BB70B881F991F5A95A9F7809576
:1054B0009095BC01CD01089597FB072E16F400943A
:1054C00007D077FD09D00E94482A07FC05D03EF49A
:1054D000909581959F4F0895709561957F4F0895A0
:1054E000EE0FFF1F0590F491E02D09940E94A62B6A
:1054F000332312F48A1B9B0B0C94802A0E94A62B48
:10550000B7FF0895821B930B0895CF92DF92EF921D
:10551000FF92CF93DF93CDB7DEB72A970FB6F894FB
:10552000DEBF0FBECDBF89879A87A985BA852D9129
:105530003D914D915C9129833A834B835C83232B6E
:10554000242B252B41F424E239ED4BE557E0298348
:105550003A834B835C8369817A818B819C812DE1C5
:1055600033EF41E050E00E94522B69017A01A7EA33
:10557000B1E49B01AC010E94712B69837A838B8318
:105580009C83ACEEB4EFA70196010E947F2B9B0198
:10559000AC0189819A81AB81BC81820F931FA41FCA
:1055A000B51FB7FF03C00197A109B048E985FA8587
:1055B00080839183A283B3839F772A960FB6F89452
:1055C000DEBF0FBECDBFDF91CF91FF90EF90DF9098
:1055D000CF9008950E94852A089580E091E00E946E
:1055E000852A0895B0E0A0E0809300019093010126
:1055F000A0930201B09303010895FC014150504073
:1056000030F001900616D1F73197CF010895882721
:1056100099270895F999FECF92BD81BDF89A9927EF
:1056200080B50895A6E1B0E044E050E00C94442B2E
:10563000A8E1B0E042E050E00C94442B262FF99909
:10564000FECF92BD81BDF89A019700B4021639F0E1
:105650001FBA20BD0FB6F894FA9AF99A0FBE0895B2
:105660000396272F0E941F2B0E941E2B252F0E947E
:105670001F2B242F0C941F2B0196272F0E941F2BCA
:105680000C941E2BDC01CB01FC01F999FECF06C066
:10569000F2BDE1BDF89A319600B40D9241505040F0
:1056A000B8F70895052E97FB1EF400940E94692B0D
:1056B00057FD07D00E94842B07FC03D04EF40C94B6
:1056C000692B50954095309521953F4F4F4F5F4F37
:1056D000089590958095709561957F4F8F4F9F4F5E
:1056E00008950E94A62BA59F900DB49F900DA49F96
:1056F000800D911D11240895B7FF0C94712B0E9409
:10570000712B821B930B0895A1E21A2EAA1BBB1BBF
:10571000FD010DC0AA1FBB1FEE1FFF1FA217B3077D
:10572000E407F50720F0A21BB30BE40BF50B661F93
:10573000771F881F991F1A9469F760957095809557
:1057400090959B01AC01BD01CF010895A29FB001CE
:10575000B39FC001A39F700D811D1124911DB29FA5
:10576000700D811D1124911D0895F894FFCF8806B6
:105770008E0691069706AC06AC06AC06AC06AC06E7
:10578000AC06AC06AC069A069F06A306A906BA06A6
:10579000C006C40627154F15E6164F15E6168215E6
:1057A000A315E616A116AE1693178A17951780173C
:1057B00085178517801785178517B1178517BC17AB
:1057C00085178517851785178517801785178517FE
:1057D00080178517A31785178517CD17CD17CD17F8
:1057E000CD17CD17CD17CD17CD17CD17C7178517E7
:1057F00093178717551B5B1B5F1B6D1B711B751B5D
:10580000791B7F1B871B8B1B8F1B931B9F1BA31B52
:10581000A71BAB1BB11BCF1BB91B691B971B9B1B8A
:10582000831BB51BC51BD81BDE1B861C8D1C921C45
:10583000971C9C1CA11CA61CAB1CB01CB51CBA1C44
:10584000BD1CC21CC51CC81CCB1CCE1CD11CD41C2E
:105850000A1D0A1D7F1D7F1DE11DFD1D431D431DEA
:08586000081E0C1F1D1F1D1F77
:105868000100000001260B00103010821086100184
:10587800010102001200121201191A1B1C1D1E1F21
:1058880020212228083C07142D03042E0305320387
:10589800370308380300000001020304050607085F
:1058A800090000010202020206060609090909099F
:1058B800090F0F0F0F0F0F151515181919191919A9
:1058C80019191919192324252525252525F73133D3
:1058D80032360000000000946697C63435E200E9CD
:1058E80000EA00B500B600B700CD008301CC008AFD
:1058F8000192019401210223022402250226022793
:0C590800022A02B300B4006F007000001F
:00000001FF
