:100000000C9498040C945B310C94DF040C94DF0482
:100010000C94DF040C94DF040C94DF040C94DF04D4
:100020000C94DF040C94DF040C94962F0C946C3029
:100030000C944B2F0C94DF040C94DF040C94DF041D
:100040000C94DF040C94DF040C94DF040C94DF04A4
:100050000C94DF040C94722F0C94DF040C94DF04D6
:100060000C94DF040C94DF040C94DF040C94DF0484
:100070000C94DF040C94DF040C94DF040C94DF0474
:100080000C94DF040C94DF040C94DF040C94DF0464
:100090000C94DF040C94DF040C94DF040C94DF0454
:1000A0000C94DF040C94DF040C94DF040501098038
:1000B000A101850319012AB700150126B700950192
:1000C00075108100C0050C0901A101850419012AE0
:1000D000A002150126A002950175108100C00660DE
:1000E000FF0961A1010962150026FF00952075082E
:1000F00081020963150026FF00952075089102C052
:1001000005010906A101050719E029E715002501E8
:10011000950875018102950175088101050719008F
:1001200029FF150026FF00950675088100050819AE
:10013000012905950575019102950175039101C08D
:1001400009025B00030100A0FA0904000001030199
:100150000100092111010001224000070581030867
:10016000000A090401000203000000092111010036
:100170000122220007058203200001070503032056
:10018000000109040200010300000009211101001F
:10019000012232000705840320000A120100020038
:1001A0000000084D4436340100010203011C0376AF
:1001B00000690061006C003A00660036003400639C
:1001C00000320062003300630000003C03680061FD
:1001D000006E006400770069007200650064002F03
:1001E00000640061006300740079006C005F006DC2
:1001F0000061006E00750066006F0072006D002FD8
:100200000034007800360000000E037400730068AC
:10021000006F007200740000000403090429001438
:10022000001A000800150017002B00040016000734
:100230000009000A00E1001D001B0006001900056E
:1002400000000000003500000FE000010000000089
:1002500000E3002C004C0001511C0018000C00129F
:100260000013002A000B000D000E000F00330034B5
:10027000001100100036003700380031000100E6A0
:10028000002F0030000000000002514B0028004EFB
:10029000000000000029001E001F00200021002295
:1002A000002B005000510052004F000100E1003AC5
:1002B000003B003C003D003E00000000000100014A
:1002C0000001000100000000000100005C010001CD
:1002D00000230024002500260027002A0001000139
:1002E0000001000100010001003F00400041004208
:1002F000004300010001000100440045000000002F
:100300000003514F01010050010000000029001EB0
:10031000021F022002210222022B00390049004A5A
:10032000004D004600E1007A007B007C007D00016A
:1003300000000000000100010001000100000000B9
:1003400000010001000100035123022402250226BE
:100350000227022A005000510052004F002D002EAB
:100360000001000100010001002D022E0201000128
:10037000002F0230020000000001000100005C01BB
:100380000000000000010001000100010001000167
:1003900000C25CC55CC75CC95C01000100C35CC6EF
:1003A0005CC85CCA5C0100010000000000010001A3
:1003B0000001000100000000000100010001000137
:1003C000000100010001000100010001000100AA7C
:1003D00000A800A900010001000100AC00AE00ABC4
:1003E0000001000100010001000100010000000007
:1003F000000100010001000100000000002223258F
:100400002628292A2C2D2F3032333536383A3B3DD9
:100410003E4042434547494A4C4E50515355575927
:100420005A5C5E6062646668696B6D6F7173757744
:10043000797B7D7F81838587898A8C8E9092949643
:10044000989A9C9E9FA1A3A5A7A8AAACAEAFB1B352
:10045000B4B6B8B9BBBCBEBFC1C2C3C5C6C7C9CAA2
:10046000CBCCCDCED0D1D2D2D3D4D5D6D7D7D8D964
:10047000D9DADADBDBDBDCDCDCDCDCDDDDDDDDDCC2
:10048000DCDCDCDCDBDBDBDADAD9D9D8D7D7D6D5D4
:10049000D4D3D2D2D1D0CECDCCCBCAC9C7C6C5C396
:1004A000C2C1BFBEBCBBB9B8B6B4B3B1AFAEACAAE3
:1004B000A8A7A5A3A19F9E9C9A98969492908E8C93
:1004C0008A89878583817F7D7B79777573716F6D6D
:1004D0006B6968666462605E5C5A59575553515047
:1004E0004E4C4A4947454342403E3D3B3A383635FB
:1004F0003332302F2D2C2A292826252322000101D2
:1005000001010101010101020202020202020202D2
:1005100003030303030303030404040404040405A2
:100520000505050506060606060707070707080866
:100530000808090909090A0A0A0B0B0B0C0C0C0D17
:100540000D0D0E0E0E0F0F0F1010111111121213B0
:10055000131414151516161717181819191A1A1B2B
:100560001B1C1D1D1E1E1F2020212222232424258A
:100570002626272829292A2B2C2D2D2E2F303132C3
:1005800032333435363738393A3B3C3D3E3F4041D3
:1005900042434445464748494A4C4D4E4F505153BB
:1005A00054555658595A5B5D5E5F61626465666872
:1005B000696B6C6D6F7072737577787A7B7D7E80F6
:1005C00082838587888A8C8E8F91939596989A9C42
:1005D0009EA0A2A3A5A7A9ABADAFB1B3B5B7BABC56
:1005E000BEC0C2C4C6C9CBCDCFD1D4D6D8DBDDDF27
:1005F000E2E4E7E9EBEEF0F3F5F8FAFDFF6432141C
:10060000783C1E1E140A05010001002A04000002A5
:1006100000020026040000030001002B0400000477
:1006200000020010044F08050001002C0400000621
:100630000002001204000007000200280400000865
:100640000001002D040000120002002E040000131F
:1006500000020030040000FD377A585A000004E61A
:10066000D6B4460200210116000000742FE5A3E075
:10067000060901E55D003D8889C65436C3174FE47D
:10068000DD5C7431C9895FE41655C0286371F47765
:10069000887C2CBF66777E86E94C18C5F9B8A850CF
:1006A0006F12264BC321E72D7BB0F0957D88D80DC6
:1006B000AEED91303D81B3DA34FC4C9D54FA3FEA03
:1006C0009B7834D7B468D20370845B184BA57950FB
:1006D000B0C35CDAD8CC69100662B64DEA11261AAE
:1006E0003F26BD3C5BCFCE5022508C7D46583252C7
:1006F000B2943D005EE41706231F81CE897FA0B32C
:10070000CDADEA9856C56C10DBE02A90BC11D4340C
:1007100052FA8ACFAB0E4571BD621157DEB677FF34
:1007200063D461955546BC427F4F1284A75CF26248
:10073000CF22CF817ED17BFF2EA1C5F224E2C8B3A8
:100740009B12EA93CDE004A1FABA9CD85BE53F1274
:100750008D4B3DD57920C2B22101A664DF4C4021EA
:10076000E309759ED2B34F272CE2910EAEE8A1C1EA
:10077000BCB696A123830C808DFDF1E4B3AE9CD86A
:1007800079BD8E7AAAE7A0D6250DF7B4DFC500DDC6
:100790008C98EC6A162EDD0174297F154FE988F4D8
:1007A000854E12C26E5620DC30D119BE1081FCBAC3
:1007B000C6BBBC7D3108DEB47DD34EE67DDA478C06
:1007C000490481A0F30809A437C836BD71694C4BB0
:1007D0000780214BEF37BD07311F9841A697355F42
:1007E000AA82409BB95F32B16F2818B4A0AA7D6E6F
:1007F000E76CFB091BED79FBD5740A109F720B9314
:10080000278D09E0570AB597459E4F82E21D09C51D
:10081000A6EF3A0821A0A95FF10A1DCDFB36494297
:1008200055CF35021BD82024900D8F3B06614769B8
:10083000F37737BEF683AC8628C950EEC3DC8FFE53
:1008400013F9183575E7BF520DF783F8267B59E782
:100850004AF8B2C6811099CA2570000000000069EC
:10086000A0488832A2FC73000181048A0C00005B5E
:100870001AC768B1C467FB020000000004595A009F
:100880000000000000000000000000000000000068
:100890000000000000000000000000000000000058
:1008A0000000007E0F00D4FFFFFFC70000007800AB
:1008B000000000000000002A2B28000000000000BB
:1008C0000000000000000000000029000000002CD3
:1008D0001E3420212224342627252E362D37382772
:1008E0001E1F202122232425263333362E37381F7E
:1008F0000405060708090A0B0C0D0E0F1011121340
:100900001415161718191A1B1C1D2F3130232D35DD
:100910000405060708090A0B0C0D0E0F101112131F
:100920001415161718191A1B1C1D2F3130354C00C1
:1009300011241FBECFEFDAE0DEBFCDBF04B603FE49
:1009400027C08091340490913504A0913604B09171
:1009500037048730904BA740B04BD1F41092340449
:1009600010923504109236041092370414BE84B7E6
:10097000877F84BF0FB6F894A89580916000886146
:1009800080936000109260000FBEE0E0F8E30995EC
:1009900011E0A0E0B1E0E2EFF7E602C005900D92B1
:1009A000AA3CB107D9F724E0AAECB1E001C01D923E
:1009B000A433B207E1F70E94E0280C949E330C9414
:1009C0000000282F892F82958F70903C80F48A3008
:1009D000B0F4843020F4823090F480E008958630C2
:1009E000E1F781E0283E88F0213FB9F70EC08C3056
:1009F00011F08F3091F793FB882780F9089581E0FB
:100A0000203F39F018F4283E40F70895243F29F795
:100A1000FCCF08959E3F69F1E92FEE0FE90FEE0F2D
:100A2000E80F8E2F877041E001C0440F8A95EAF7E6
:100A3000E695E695E69583E0E89FF0011124EB5CEE
:100A4000FC4F30E020E070E05191DF011197CB01C5
:100A5000022E02C0969587950A94E2F781708195DF
:100A60008527842385278C932F5F3F4F23303105C3
:100A700059F708959E3F49F1E92FEE0FE90FEE0F68
:100A8000E80F9E2F9770E695E695E69583E0E89F40
:100A9000F0011124EB5CFC4F50E040E080E021913C
:100AA00030E0092E02C0369527950A94E2F72170AE
:100AB0003327042E01C0220F0A94EAF7822B4F5FDE
:100AC0005F4F4330510559F7089580E008958091B4
:100AD000EC029091EB02981301C008958F5F87702C
:100AE000FACFAFECB1E0EFEF90E02D91821751F02B
:100AF000EF3F19F4211101C0E92F9F5F9630A9F74C
:100B0000EF3F09F408950E2E000CFF0BE353FE4F48
:100B100082830895EFECF1E09191891303C0DF0126
:100B200011971C9291E0E53DF907B1F70895982FD0
:100B30009095809163038923809363030895809146
:100B40006003882331F01092600310925D031092CD
:100B50005C03089590915E0392FF06C0282F2871D0
:100B60002830F9F4877F846093FF06C0282F28710E
:100B70002831F1F4877E846120915F0320FF06C055
:100B8000382F38713830D9F4877F816021FF06C053
:100B9000282F28712831D1F4877E816194FD877ECA
:100BA0000895282F24712430F9F68B7F8860DCCFDC
:100BB000282F2471243101F78B7E8861DDCF382FF7
:100BC0003171313019F78E7F8860E0CF282F217185
:100BD000213121F78E7E8861E1CFCF93DF93EC0145
:100BE000803E910509F45EC048F58133910509F412
:100BF000A1C088F48932910509F495C08A9709F457
:100C0000A0C0C130D10529F1CE010497813A9105E8
:100C100008F054C01EC089339105E9F1823891056E
:100C2000D1F1C59709F478C0C83AD10508F090C051
:100C3000C53AD10530F3A497D0640BC0843E91052A
:100C400009F44FC050F4823E9105D9F1833E9105DD
:100C5000E9F1CE01DF91CF910895863E910509F427
:100C60004BC0873E910509F44CC0811523E59207DE
:100C700008F08BC0811532E5930708F0FDC0C1155F
:100C800080E5D80708F077C0C11520E4D20760F2EC
:100C9000DF70D06ADECF80915E038370D1F2C0EE48
:100CA000D0E0D7CF80915E0380FD11C190915F03AA
:100CB00090FFCFCFC3EED0E084FFCBCFD0E0C0E039
:100CC000C8CF80915E0382FDF5CFC3CF80915E03D4
:100CD00082FD00C190915F0390FDE1CF84FFB9CF09
:100CE000EDCF80915F0381FFB4CF80915E03C7EEAB
:100CF000D0E084FDE3CFADCF80915E0383FDF7CFDD
:100D0000A8CF80915E0383FDE8C090915F0391FFBF
:100D1000E5CFC4EED0E09DCF80915E0385FF99CFF3
:100D2000C9E2D0E096CF80915E0385FF92CFC5E304
:100D3000D0E08FCF80915E0386FF8BCFCAE2D0E0F8
:100D400088CF80915E0386FF84CFC1E3D0E081CF5E
:100D5000CF3BD10508F468C0C83ED10528F4C03E99
:100D6000D10508F4ABCF75CFCE019A9581159F417F
:100D700008F0A4CF6ECFC11581E5D80708F45FC095
:100D8000DC2FCC27C16FD06A64CF811529E592078B
:100D9000A0F5811538E5930708F086C0C11585E5F3
:100DA000D807C8F4C11524E5D20708F078C09E0121
:100DB0002370332781E090E002C0880F991F2A95A5
:100DC000E2F7C695C69530E2C39FE0011124C82B17
:100DD000D92BDA683ECFCE0195558F3F910511F0A2
:100DE00008F06CCF8C2F0E94AA05C82FD0E0DC2F12
:100DF000CC27CC27DF71D0622CCFC1158AE5D8076C
:100E000008F457C0CE0190568115904208F056CF95
:100E10008D2F8F710E94AA0590E0982F8827882730
:100E20009F718C2BEC01E7CFC85AD0E0CC0FDD1FAF
:100E3000C456DE4F0990D881C02DD4640ACF9E01DC
:100E400074E0369527957A95E1F723708C2F869577
:100E50008695837030E2839FC0011124922BC3706A
:100E600021E030E002C0220F331FCA95E2F7822B47
:100E7000932BEC01DC68EDCE9C012370332781E0DD
:100E800090E002C0880F991F2A95E2F7C695C69593
:100E900020E2C29FE0011124C82BD92BEBCFDC2F1D
:100EA000CC27C46FD06AD5CED82FCC27C06FD06ADC
:100EB000D0CE8C2F8F700E94AA0534E0D695C795AE
:100EC0003A95E1F7CF709C2FEC01D069C2CEC9E30F
:100ED000D0E0BFCEC2EED0E0BCCEC6EED0E0B9CE00
:100EE00080E00895F894E82FE295EF70F0E041A1DA
:100EF0008F7021E030E0B90102C0660F771F8A953C
:100F0000E2F7CB01962F9095942391A392A1892B80
:100F100082A37894089508956F927F928F929F9202
:100F2000AF92BF92CF92DF92EF92FF920F931F93F7
:100F3000CF93DF93B82EA62E8901E42FF0E0E35083
:100F4000FB4F611119C0E4918E2F2E2FD8011196FD
:100F50002C931197EC9312968C93DF91CF911F9164
:100F60000F91FF90EF90DF90CF90BF90AF909F9048
:100F70008F907F906F900895E62EF12C249186E05B
:100F8000B89E60011124CFEFD0E0C601BE010E94DF
:100F9000D6328B2D90E0880F991F35E5369FA00142
:100FA000379F500D1124841B950B982F990F980F84
:100FB000AE014E195F09249FD001259FB00D112469
:100FC000EB2FA99E50011124AB2CBB24AE014A1972
:100FD0005B09249F5001259FB00C11248B2D3E01ED
:100FE000691A71086E9C40016F9C900C7E9C900C5D
:100FF0001124892C9924C819D9092C9FA0012D9F4F
:10100000500D112463307105D1F09CEFC91693E0A7
:10101000D90670F461307105B1F062307105B9F034
:10102000FFEFCF16D10408F091CF8B2FE52F8ECF95
:101030006430710579F066307105B9F387CFEB2D17
:10104000822F2B2F83CFE22F2B2D8B2F7FCF852F1E
:10105000E22FF7CF822F252F79CF80915703982F3A
:101060009E7F61F4817082608093570380915A0360
:10107000873918F086E980935A0308958E31B0F3CA
:1010800081708C61F1CFE4E5F3E0118282818460AC
:1010900082830895FA0181110994FB01FDCF8091AB
:1010A00010049091110490933B0180933A010895AC
:1010B0001092720310927103E8EDF3E085818111C3
:1010C00002C014821682379684E0E031F807B1F747
:1010D0000895AC013091740360917303232F621360
:1010E00001C00895822F90E0FC01EE0FFF1FE75929
:1010F000FC4F0190F081E02DE417F50791F467E0D3
:10110000649FF001659FF00D1124E852FC4F41E00F
:1011100044832313E6CF0196837099278093740349
:1011200008950196282F2370DACF2091F101309194
:10113000F2012817390771F09093F2018093F101C1
:10114000E091E902F091EA02309721F00680F78100
:10115000E02D099408952091EF013091F0012817B6
:10116000390771F09093F0018093EF01E091E9026B
:10117000F091EA02309721F00084F185E02D099486
:1011800008952FB7F89480919E0290919F02A091AC
:10119000A002B091A1022FBF0895809112049091F6
:1011A0001304892B91F00E94C10820915C033091B7
:1011B0005D03AC01421B530B9A0181E04091120484
:1011C000509113042417350708F480E081700895C6
:1011D0008091630390916503892B90914D03892B36
:1011E0008093CD0180916003882309F180911204DE
:1011F00090911304892B29F00E94CD0881110E943F
:101200009F058091CD0190916003892B8093CD0142
:1012100020E08FEC91E0FC013081019631112F5FCD
:1012200031E0853D9307B9F721110E949F05E091B8
:10123000E902F091EA02309731F00280F381E02D6B
:101240008DEC91E009940895882339F0909163031F
:10125000892B809363030C94E8080895882321F078
:101260000E9497050C94E808089590E080E00E94A1
:10127000950890E080E00E94AB0810926503109200
:101280004D030C94E808809361030C943509809316
:1012900062030C94350921E030E001C0220F8A95E9
:1012A000EAF780916203822B0C94470921E030E039
:1012B00001C0220F8A95EAF720958091620382236C
:1012C0000C94470990916603809589238093660367
:1012D000282F277039F4282F082E000C330B921773
:1012E000130621F490915F0392FF0BC085958595BD
:1012F00085950E9456091092660310926803109219
:101300006703089590915F0392FD10C098E0899F54
:1013100090011124622B609366030E944B090E9486
:10132000C108909368038093670308950C944B0958
:10133000CF93DF9300D000D0CDB7DEB78FB7F8944E
:1013400020919E0230919F024091A0025091A102F3
:1013500029833A834B835C838FBF69817A818B8138
:101360009C810F900F900F900F90DF91CF91089577
:101370009C014FB7F89480919E0290919F02A0919A
:10138000A002B091A1024FBF821B930B089587E783
:1013900097E7909301088093000888E19AE00FB6E0
:1013A000F894A895809360000FBE90936000FFCFE3
:1013B0008091EE0108950895FC01CB012091E10197
:1013C0003091E2012617370790F0009729F4209119
:1013D000E8002E772093E80040E0009751F4411197
:1013E00008C08091E80082FF31C080E00895C90103
:1013F000F3CF2091BD022223A9F12530A9F120913C
:10140000E80023FD2DC02091E80022FDEACF2091C5
:10141000E80020FFE2CF3091F3002091F200009726
:1014200019F02830310558F041E02830310509F035
:1014300040E02091E8002E772093E800CECF419144
:101440004093F10001972F5F3F4FE9CF8091BD029C
:10145000882341F0853041F08091E80083FFC1CFBF
:1014600081E0089582E0089583E008958091DB0192
:1014700087FF13C08091E80082FF06C08091E800DA
:101480008B778093E80004C08091BD028111F2CF78
:1014900008958091BD028823D9F38091E80080FFF0
:1014A000F8CF8091E8008E77ECCF2091E400309166
:1014B000E50095E6A9012091EC00822F817020FFC4
:1014C00006C08091E80080FF06C080E0089520916A
:1014D000E80022FD1AC08091BD02882389F0853082
:1014E00089F08091EB0085FD0FC02091E4003091E0
:1014F000E50042175307F9F29150E1F684E00895B0
:1015000082E0089583E0089581E00895E8EDF0E039
:1015100080818E7F80831092E2001092DA00109218
:10152000E100A0EEB0E08C9181608C9380818F7798
:10153000808319BCA7EDB0E08C918E7F8C93808165
:101540008F7E80831092DA010895EF92FF920F93BD
:101550001F93CF937C018B010E94550AC82F8111E4
:1015600017C08091E80085FD0BC08091E8008E7760
:101570008093E8000E94550A882399F3C82F08C079
:10158000F70181917F018093F1000150110949F722
:101590008C2FCF911F910F91FF90EF900895CF93D3
:1015A0002091BD022430F1F42091E900C091EC00BB
:1015B000C795CC27C7952F70C22B22E02093E90056
:1015C0002091E80020FF0BC050E040E060E270E0B6
:1015D0000E94A50A8091E8008E778093E800CF7082
:1015E000C093E900CF910895FC01AC014B5F5F4FC0
:1015F0008FEF91E32191822728E030E087FF09C037
:10160000880F892721503109C9F7E417F50791F7A9
:101610000895880FF7CF80916203982F96709630C7
:1016200019F488600C944709877FFCCF982F90931A
:10163000E900242F762F50E0891731F07091EC00EB
:101640002091ED005091F00021FD06C09F5F973082
:1016500071F78093E90008953091EB003E7F30935D
:10166000EB003091ED003D7F3093ED003091EB00C9
:1016700031603093EB007093EC002093ED005093B9
:10168000F0002091EE0027FDE1CF0895CF92DF9288
:10169000EF92FF920F931F93CF93DF93C8EDD0E0AB
:1016A00088818F7E8883E7EDF0E080818160808390
:1016B00084E082BF81E08093DA0188818E7F888315
:1016C00002EE10E0F80110821092DA0081EEC82ECE
:1016D000D12CF601108288818F7788838881806879
:1016E000888388818F7D888319BC1092BD021092F7
:1016F000D901109295021092D80190EEE92EF12CAA
:10170000F70180818B7F808388818160888342E0BC
:1017100060E080E00E94160BF60180818E7F80835E
:10172000F801808181608083808188608083F701F7
:1017300080818E7F8083888180618883DF91CF91D3
:101740001F910F91FF90EF90DF90CF9008959C0133
:101750002115310509F408958FE99FE00197F1F70C
:1017600000C0000021503109F3CF8091BE028111E9
:1017700010C08091D80080618093D8008AE18A955A
:10178000F1F700C08091D90080FF0AC081E080930A
:10179000BE0281E09091BE02913009F080E0089590
:1017A00082E08093BE020E94860A1092BD02F1CFB1
:1017B0000E94B50B882351F0E091E902F091EA0212
:1017C000309721F00190F081E02D099480E0089598
:1017D000CF93C82F882309F488C08238C1F40E94AF
:1017E000D80B81FD82C089E30E9471050E94E80840
:1017F0002FEF31EE84E0215030408040E1F700C00F
:10180000000089E30E948A05CF910C94E808833890
:10181000A1F40E94D80B80FD68C083E50E94710589
:101820000E94E8089FEF21EE34E0915020403040C4
:10183000E1F700C0000083E5E5CF8438A1F40E9401
:10184000D80B82FD52C087E40E9471050E94E8080F
:101850008FEF91EE24E0815090402040E1F700C0EE
:10186000000087E4CFCF8CEF8C0F813A70F4EFEC5F
:10187000F1E085ED91E02191C21789F18E179F0764
:10188000D1F78C2F0E947105BFCF80E28C0F88307A
:1018900068F4C77021E030E001C0220FCA95EAF772
:1018A00080916303822B80936303AECF8BE58C0F13
:1018B000833038F42C2F2452330BC901CF910C9470
:1018C0009508C85AC73188F4EC2FF0E0EE0FFF1FDF
:1018D000E456FE4F80819181CF910C94AB088C2F00
:1018E0000E948A050E94E808CCCFCF9108958823F2
:1018F00009F44BC0823871F40E94D80B81FF45C0B7
:1019000089E30E9471050E94E80889E30E948A0524
:101910000C94E808833859F40E94D80B80FF35C036
:1019200083E50E9471050E94E80883E5EFCF8438C3
:1019300059F40E94D80B82FF28C087E40E947105E9
:101940000E94E80887E4E2CF9CEF980F913AF0F20A
:1019500090E2980F983050F4877091E001C0990F91
:101960008A95EAF7892F0E949705D2CF9BE5980FB9
:10197000933020F490E080E00C949508885A8731E9
:1019800020F490E080E00C94AB0808950F931F932F
:10199000CF93C82F0091300410913104893321F086
:1019A00000912E0410912F048C2F0E94E80B01153A
:1019B000110531F48C2FCF911F910F910C94770C5E
:1019C0008FE99FE00197F1F700C000000150110975
:1019D000EECFAF92BF92CF92DF92EF92FF920F9332
:1019E0001F93CF93DF93EC018AE0A82E8881882390
:1019F00009F48EC08130D9F599818A81913021F422
:101A000022960E94C60C05C0923029F422960E94AC
:101A1000E80B2196EBCF933021F422960E94770CAD
:101A2000F8CF943011F02196F4CF229620E030E0E8
:101A3000AE014F5F5F4F8053990B8A30910560F084
:101A40002115310531F38FE99FE00197F1F700C0CF
:101A5000000021503109F4CFA29EB001A39E700D69
:101A600011249C01260F371F8981EA01E1CFE82F5D
:101A7000F0E0E155F74FB490282F2695269526954E
:101A800030E0F901E156F74FE4908770F12C082E11
:101A900002C0F594E7940A94E2F791E0E922FF246A
:101AA000F901E157F74FC490D12C082E02C0D5940C
:101AB000C7940A94E2F791E0C922DD24F901E158C4
:101AC000F74F049110E002C0159507958A95E2F74B
:101AD00001701127E114F10419F081EE0E94E80B66
:101AE000C114D10419F086EE0E94E80B8B2D0E94E0
:101AF000C60CCD2819F086EE0E94770CEF2819F05D
:101B000081EE0E94770C012B09F483CF8CE279CF10
:101B1000DF91CF911F910F91FF90EF90DF90CF90C9
:101B2000BF90AF900895FF920F931F93CF93DF93D1
:101B3000C62FD42F122F8823A9F0609352030E943E
:101B4000C1089093D6018093D501C77081E001C090
:101B5000880FCA95EAF7DF91CF911F910F91FF90FF
:101B60000C94240980915203681338C08091D501E8
:101B70009091D6010E94B80920912804309129043F
:101B80008217930758F500E20D0FCD17A9F0C77023
:101B9000FF24F3948F2D01C0880FCA95EAF70E94A5
:101BA0002E09083048F48D2F877001C0FF0C8A95EC
:101BB000EAF78F2D0E942409812F0E94C60C08305D
:101BC000A0F4D77081E001C0880FDA95EAF7DF91C1
:101BD000CF911F910F91FF900C942E09C77081E057
:101BE00001C0880FCA95EAF7F2CFDF91CF911F911C
:101BF0000F91FF900895FF920F931F93CF93DF9360
:101C00008C01EB01F42E80913C0182FF45C08B7F5B
:101C100080933C0180914E032091500330915103F9
:101C2000AB01421B530B9A0140913A0150913B0189
:101C300024173507B8F40E94E80B80913C018D7F92
:101C400080933C0180912E0490912F040E94A70B59
:101C500080914E030E94770C809165038D7F809365
:101C6000650324C0909165039260909365030E9480
:101C7000E80B80913C01826080933C0180912B04B1
:101C800085FFE0CF86FDDECFFF20E1F2DF91CF912F
:101C90001F910F91FF900895802F0E94770C8091E3
:101CA0004E0390914F0380179107B1F20E94E8080C
:101CB000D0935103C0935003E9CFCF93DF9300D06B
:101CC00000D0CDB7DEB70E94B50B882341F00F904E
:101CD0000F900F900F90DF91CF910C9498090E9474
:101CE000980969837A838B839C838091C502909144
:101CF000C602A091C702B091C80229813A814B81E6
:101D00005C81280F391F4A1F5B1FCA01B9010F9060
:101D10000F900F900F90DF91CF9108950E94B50B17
:101D200081110C94C1080E945D0ECB010895AF9201
:101D3000BF92CF92DF92EF92FF920F931F93CF93B8
:101D4000DF93F82EE92ED62EC72E89018091C2028C
:101D5000AA24A394B12C8A3018F48AE0A82EB12CBE
:101D6000C1E0D0E0F8946D2D7C2D8F2D9E2DF801D3
:101D700009957894811104C02196AC16BD065CF4D7
:101D8000DF91CF911F910F91FF90EF90DF90CF9057
:101D9000BF90AF900895CC9F9001CD9F300D300D36
:101DA000112490E080E045E34A95F1F700000196A8
:101DB00028173907C1F7D6CF6091030180915703E7
:101DC00080FF20C08091020143E0849FC001112464
:101DD0008C5B9D4F519A2BB12D7F3BB132605FB729
:101DE000F894FC01649FE00DF11D1124BF016817F8
:101DF0007907D1F45FBF8FE594E00197F1F700C058
:101E000000000895809104019091050123E0829FD4
:101E1000F0011124EC5BFD4F8917A0F611821082AE
:101E200012828F5F3396F8CFFC014191CF01E8E039
:101E30003BB9000000C047FF2BB9440F000000C0B1
:101E400000C000C02BB900C0EA9591F7D0CFEF9247
:101E5000FF921F93CF93DF93EC0110E0EE24EA94FE
:101E6000F12C60910601161770F00E94DC0E9A8129
:101E70008C8190FF28C08F5F8C83DF91CF911F9161
:101E8000FF90EF90089580910401810F9927991F89
:101E90009C01220F331F280F391F2C5B3D4F4091AF
:101EA0005A03473908F046E970E0C7010E94EA3258
:101EB000962F8C8160915903199F800D11240E94E7
:101EC0008C071F5FCECF8150D7CFE7E5F3E080814D
:101ED0008E7F80830E944308E4E5F3E08281816085
:101EE00082832FEF80E792E0215080409040E1F71D
:101EF00000C000000C94DC0E9091570390FF14C0BA
:101F0000909104012091050133E0939FF001112489
:101F1000EC5BFD4F921710F00C94DC0E8183608314
:101F200042839F5F3396F6CF0895CF93DF9300D01F
:101F30000F92CDB7DEB79091570390FF12C047398B
:101F400008F046E99E012F5F3F4F0E948C074B81AE
:101F500069818A810F900F900F90DF91CF910C943F
:101F60007C0F0F900F900F90DF91CF910895CF933A
:101F7000DF93EC01EC81F0E0E350FC4F4491E7E5A6
:101F8000F3E0628181810E94950F8C818F5F8C8349
:101F9000DF91CF910895CF93DF93EC01E7E5F3E074
:101FA000438162818C810E94950F8C818F5F8C832D
:101FB000DF91CF910895CF93DF93D82FC92F81E080
:101FC0008093E9008FEF9091E800815095FD06C065
:101FD00095ED9A95F1F700008111F5CF8091E80019
:101FE00085FF16C050E040E068E070E08D2F9C2F28
:101FF0000E94A50A8091E8008E778093E80088E02F
:10200000ED2FFC2FA6EEB1E001900D928A95E1F73D
:10201000DF91CF9108959091BD02943029F580937E
:10202000E3016093E4017093E5019093E9008FEF81
:102030009091E800815095FD06C095ED9A95F1F7D5
:1020400000008111F5CF8091E80085FF0DC050E0C0
:1020500040E063E070E083EE91E00E94A50A809189
:10206000E8008E778093E8000895BC0183E00C942B
:102070000B10BC0184E00C940B10CF93C0915F0354
:10208000C2FB992790F9981781F080FBC2F9C093A1
:102090005F0360915E0384E090E00E9462336C2FE6
:1020A00082E290E0CF910C946233CF910895CF9368
:1020B000C82F6FEF811168E983E290E00E946233DC
:1020C0006FEFC1116EE284E290E00E9462336FEF25
:1020D000C11166EF85E290E0CF910C9462330F93CB
:1020E0001F93CF93DF938901843048F56A3038F528
:1020F000463028F521153C4531F42091910230916C
:102100009202232BE1F0C42FD0E0CC0FDD1F9CE026
:10211000699FC00DD11D112498E7899FC00DD11D65
:102120001124612FCE0187960E946233602FCE0169
:102130008896DF91CF911F910F910C946233DF91BC
:10214000CF911F910F910895CF93DF93C9E7D2E00C
:1021500060E0CE010E9462332196C11584E0D80769
:10216000B9F7DF91CF910895CF9384E090E00E947A
:102170004E33C82F82E290E00E944E33982F8C2F6E
:10218000CF91089583E290E00E944E33883989F41C
:1021900084E290E00E944E338E3259F485E290E062
:1021A0000E944E3391E0863F09F090E0892F8170C4
:1021B000089580E0FCCF0F931F93CF93DF9384307B
:1021C00030F56A3020F5463010F5C42FD0E0CC0F42
:1021D000DD1F2CE0629FC00DD11D112438E7839FC5
:1021E000C00DD11D1124CE0187960E944E33082FB9
:1021F00010E0102F0027CE0188960E944E339801E0
:10220000282BC901DF91CF911F910F91089590E084
:1022100080E0F8CF462F672F2091930230919402EF
:10222000232B41F4843030F47A3020F4463010F41B
:102230000C94DB1090E080E00895DF92EF92FF9223
:102240000F931F93CF93DF937C01009162038091E2
:102250006103082BC7E0D0E010E0DC2EC8010C2E93
:1022600002C0959587950A94E2F780FD0CC02197EE
:10227000A0F7D12C8D2DDF91CF911F910F91FF9061
:10228000EF90DF900895B7018C2F0E940A110E94F1
:10229000ED05019761F3EECFCF93DF93D82FC92FD0
:1022A0000E941D116D2F7C2F0E940A11DF91CF918A
:1022B0000C94ED05FC0186819781009721F00E9426
:1022C000ED050C94E104808191810E944C11F9CFBD
:1022D0001F93CF93DF93182FD92F662391F04423B8
:1022E00081F00E941D11C82F682F812F9D2F0E9401
:1022F0000A05612F7D2F8C2FDF91CF911F910C94B8
:102300000A110E943A05C82FF4CFFC01462F86819E
:102310009781009729F46281808191810C946811E2
:1023200008950F931F93CF93DF9300E114E0C7E06C
:10233000D2E0CE010E944E33F80161918F016817FF
:1023400019F0CE010E9462332196C932F2E0DF0714
:1023500081F7DF91CF911F910F9108950F931F93F4
:10236000CF93DF9300E114E0C7E0D2E0CE010E94FA
:102370004E33F80181938F012196C932F2E0DF07D5
:10238000A9F7CDE0D6E0FE0185919491009711F078
:10239000FC0109952896F6E0CD35DF07A1F7DF911E
:1023A000CF911F910F910895E0E1F4E0128E138E0A
:1023B0008FEA90E09183808385E0848F88E893E1C1
:1023C0009383828382E390E0978B868B88EC90E006
:1023D000918F808F158E8AE090E0978F868F80E5B1
:1023E00090E091A380A30E9491110C94AE111092E1
:1023F0006303EFECF1E086E0DF011D928A95E9F7D7
:102400000C9435091F93CF93DF93CDB7DEB7AA970E
:102410000FB6F894DEBF0FBECDBF8BED91E0FC018F
:1024200001962091F100208321E0833E9207B9F7C5
:102430008091DC01893009F456C0C8F4823009F477
:10244000B2C0833009F481C0813071F18091E8001D
:1024500083FF8EC28091DB019091DC019A3008F0FD
:1024600087C2E92FF0E0E056FC4C0C94FE328A3033
:1024700009F488C08B3051F78091DB01813231F74C
:102480008091DF019091E001892B01F78091E800B4
:10249000877F8093E8000E94360A8091DD01809357
:1024A00000010E94F711D2CF8091DB01813A71F6D1
:1024B0008091E800877F8093E8008091DF01909110
:1024C000E001892B61F468E086EE91E070E00E9403
:1024D000DC098091E8008B778093E800B7CF60E05B
:1024E00090E080E0F3CF8091DB01813209F0AECF44
:1024F0008091DF019091E0018D7F892B09F0A6CFBB
:102500008091E800877F8093E8008091E80082FF57
:1025100017C09091F3008091F200029729F4809106
:10252000F1008B7F813021F48091F1008093EE01E6
:102530008091E8008B778093E8000E94360A86CF6E
:102540008091BD028111E1CF81CF8091DB01813A81
:1025500009F07CCF8091DF019091E001892B09F097
:1025600075CF8091E800877F8093E8008091E80034
:1025700080FFFCCF809100018093F1008091E80002
:102580008E77D9CF8091DB01813209F05FCF8091C6
:10259000E800877F8093E8000E94360A8091DE0180
:1025A0008093D70153CF8091DB01813A09F04ECF60
:1025B0008091E800877F8093E8008091E80080FFA9
:1025C000FCCF8091D701D8CF803899F0823809F0BC
:1025D000CFC18091DF018F70873008F0C9C180932F
:1025E000E9008091EB0085FB882780F91092E900D3
:1025F00006C08091D80190919502911182609091CE
:10260000E800977F9093E8008093F1001092F1002A
:102610008091E8008E77A8C1882309F496C18230A2
:1026200009F0A6C18091DD01811199C18091DF017E
:102630008F702FEF280F263008F09AC18093E900A1
:102640002091EB0020FF8BC1933031F48091EB009F
:1026500080628093EB0083C19091EB009061909336
:10266000EB0021E030E001C0220F8A95EAF72093C9
:10267000EA001092EA008091EB008860EACF8111B5
:1026800077C11091DD011F778091E3008078812B65
:102690008093E3008091E800877F8093E8000E94A8
:1026A000360A8091E80080FFFCCF8091E3008068CB
:1026B0008093E30082E0111183E08093BD0258C152
:1026C0008058823008F054C14091DD015091DE0104
:1026D0004C3D83E0580799F583E08A838AE2898339
:1026E0004FB7F894DE01139620E03EE051E2E32F6D
:1026F000F0E050935700849120FF03C082958F70C3
:102700003F5F8F708A30C8F0895C90E08D939D9315
:102710002F5F243161F74FBF8091E800877F80935E
:10272000E8006AE270E0CE0101960E94DC09809127
:10273000E8008B778093E8001BC1805DE6CF809135
:10274000DF019091E001252F33272330310509F473
:102750004AC078F52130310509F486C08BE590E058
:10276000E0E4F1E02230310509F002C12091E800F7
:10277000277F2093E8002091E1013091E201821748
:10278000930708F49C0140E02115310509F071C060
:1027900041116FC08091E80082FDC9CF8091BD02D8
:1027A000882329F2853019F28091E80083FFF2CF67
:1027B000BECF2132310509F448C02232310509F07B
:1027C000D7C08330910508F0D3C0FC01EE0FFF1F86
:1027D000E159FE4F0190F081E02D84599E4FDC01BC
:1027E0008C9190E026C0CA019927423031F18330A4
:1027F000910568F40097B1F0019709F0B9C0E9E0DC
:10280000F2E0E4918E2F90E0E9E0F2E012C003974D
:1028100009F0AEC0EDEAF1E0E4918E2F90E0EDEA30
:10282000F1E007C0E9E1F2E0E4918E2F90E0E9E108
:10283000F2E0009709F49CC099CFEBECF1E0E49151
:102840008E2F90E0EBECF1E0F4CF8330910508F0AF
:102850008FC0880F991FFC01EB58FE4F0190F0814B
:10286000E02D89E090E082CF82E190E0EBE9F1E0B9
:102870007DCF8091BD02882309F459CF853009F4BA
:1028800056CF8091E80083FD52CF8091E80082FD11
:1028900081CF8091E80080FF77CF9091F300809105
:1028A000F2002115310519F08830910550F041E012
:1028B000089709F040E08091E8008E778093E80067
:1028C00063CF44914093F100319621503109019634
:1028D000E8CF803809F04CC08091E800877F809372
:1028E000E8008091D9018093F10092CE811140C01F
:1028F0001091DD011230E0F58091E800877F809330
:10290000E8001093D9010E94360A112311F084E0E7
:1029100005C08091E30087FDFACF81E08093BD027E
:1029200042E061EC81E00E94160B42E261EC84E03F
:102930000E94160B42E261EC82E00E94160B42E21A
:1029400060EC83E00E94160B13C08091DD018130A2
:1029500079F481E0933009F080E080939502109241
:10296000E9008091E800877F8093E8000E94360AA2
:102970008091E80083FF0AC08091E800877F809300
:10298000E8008091EB0080628093EB00AA960FB67E
:10299000F894DEBF0FBECDBFDF91CF911F91089598
:1029A0000F931F93CF93DF938B01D82FC92F0E94D2
:1029B0002D08A8016D2F7C2F88E090E0DF91CF914A
:1029C0001F910F910C947433E7E5F3E08DE0808361
:1029D00011828FEF828386E983831482E4E5F3E03A
:1029E0008281836082836DE070E08FEF96E90C94C2
:1029F000D014CF93DF9300D000D0CDB7DEB7809155
:102A00005B03833018F48F5F80935B0380915703DF
:102A100090915803A0915903B0915A0389839A83E6
:102A2000AB83BC83BC01CD010F900F900F900F9032
:102A3000DF91CF910C94D014CF93DF9300D000D0CE
:102A4000CDB7DEB780915B03882319F08150809366
:102A50005B038091570390915803A0915903B09163
:102A60005A0389839A83AB83BC83BC01CD010F9049
:102A70000F900F900F90DF91CF910C94D014EF92A4
:102A8000FF920F931F93CF93DF9300D000D000D01D
:102A90000F92CDB7DEB7082FF62E142FE22E8091BD
:102AA000570380FF5EC0E82FE695F0E0E558FE4F43
:102AB0009081909354038E7F823009F044C047394F
:102AC00008F046E99E012F5F3F4F6F2D802F0E9437
:102AD0008C074B8169818A810E947C0F8091580309
:102AE000801308C0809159038F1104C080915A034C
:102AF000811729F0809156038260809356030093DA
:102B00005803F092590310935A03EE2051F180912B
:102B1000570390915803A0915903B0915A038C83A5
:102B20009D83AE83BF83BC01CD0127960FB6F89479
:102B3000DEBF0FBECDBFDF91CF911F910F91FF90F0
:102B4000EF900C94D014923019F410915A03C6CF20
:102B500080915803963019F0993009F0BFCF082FB3
:102B6000BDCF27960FB6F894DEBF0FBECDBFDF9165
:102B7000CF911F910F91FF90EF900895E7E5F3E05B
:102B8000818121E043816281885F0C943F15E7E5F4
:102B9000F3E0818121E04381628188500C943F15EC
:102BA000E7E5F3E0628121E1620F08F46FEF21E0D5
:102BB000438181810C943F15E7E5F3E0628121E1D7
:102BC000621B08F460E021E0438181810C943F1591
:102BD000E7E5F3E0438121E1420F08F44FEF21E004
:102BE000628181810C943F15E7E5F3E0438121E1A7
:102BF000421B08F440E021E0628181810C943F1582
:102C000090E080E00E945C338A3E9E4F11F40C9469
:102C1000C21080E00895CF93DF93CDB7DEB7289739
:102C20000FB6F894DEBF0FBECDBF40919A0250910F
:102C30009B0260919C0270919D022FB7F894809145
:102C40009E0290919F02A091A002B091A1022FBF7D
:102C5000841B950BA60BB70B84369105A105B10516
:102C600070F10E945D0EDC01CB010296A11DB11D29
:102C700089839A83AB83BC838091290190912A0137
:102C80008E559D4F20912801422F50E0253010F0A5
:102C900044E050E0BE016F5F7F4F0E942E3382E020
:102CA00090E00E942232892B61F40E94980960937F
:102CB0009A0270939B0280939C0290939D0281E004
:102CC00001C080E028960FB6F894DEBF0FBECDBFDE
:102CD000DF91CF9108950F931F93CF93DF9300D08F
:102CE00000D000D0CDB7DEB78B0190E080E00E942D
:102CF0002232892B09F07EC080911701482F50E0C5
:102D0000882311F041E050E06091180170911901A1
:102D10006E557D4FCE0106960E942E334091B9022A
:102D20005091BA026091BB027091BC022FB7F89427
:102D300080919E0290919F02A091A002B091A10269
:102D40002FBF841B950BA60BB70B84369105A105ED
:102D5000B10540F483EA92E00E94F40A9E8189174B
:102D600009F455C081E090E00E942232892BA1F045
:102D700080E095E0E4EBF2E0D80101900D929A95A5
:102D8000E1F726960FB6F894DEBF0FBECDBFDF91F8
:102D9000CF911F910F91089580912101482F50E00C
:102DA000863010F045E050E06091220170912301DF
:102DB0006E557D4FCE0101960E942E3383EA92E03C
:102DC0000E94F40A9E818913D3CF0E9498096093D0
:102DD000B9027093BA028093BB029093BC0285E063
:102DE000FE013196A4EBB2E001900D928A95E1F7D5
:102DF00081E0BFCF80E095E0E3EAF2E0DE011196EA
:102E000001900D929A95E1F78111E9CFB2CF81E05F
:102E1000F2CFCF92DF92EF92FF92CF93DF93CDB7B5
:102E2000DEB728970FB6F894DEBF0FBECDBF85E0A2
:102E3000E7E5F3E09E012F5F3F4FD90101900D922E
:102E40008A95E1F740915403909155038091560380
:102E50004E839F838887C0909602D0909702E0901F
:102E60009802F09099029FB7F89440919E02509179
:102E70009F026091A0027091A1029FBF4C195D0951
:102E80006E097F09E22F443651056105710510F482
:102E9000882311F180913301909134018E559D4F1B
:102EA00020913201422F50E0293010F048E050E0EC
:102EB0006E2F732F0E942E3383E090E00E94223207
:102EC000892BD1F40E94980960939602709397021F
:102ED00080939802909399021092560381E028966D
:102EE0000FB6F894DEBF0FBECDBFDF91CF91FF903C
:102EF000EF90DF90CF90089580E0F1CFCF92DF92F6
:102F0000EF92FF920F931F93CF93DF93CDB7DEB76E
:102F10002A970FB6F894DEBF0FBECDBFE4EFF1E005
:102F200080E5DF011D928A95E9F7E8EDF3E088E39B
:102F3000DF011D928A95E9F784EFC82E81E0D82E33
:102F40007F0109E212E0F701D182C0824AE050E03D
:102F5000B801CE0101960E943E3388E0FE01319611
:102F6000D60101900D928A95E1F789859A85D7015E
:102F700013969C938E931297BAE0CB0ED11CE7E088
:102F8000EE0EF11C065F1F4F0937F2E01F07D9F65E
:102F90002A960FB6F894DEBF0FBECDBFDF91CF915A
:102FA0001F910F91FF90EF90DF90CF9008957F9247
:102FB0008F929F92AF92BF92CF92DF92EF92FF9249
:102FC0000F931F93CF93DF93CDB7DEB72A970FB63A
:102FD000F894DEBF0FBECDBFA0909102B0909202D8
:102FE00081E090E09093920280939102912C812C49
:102FF00000E0640110E015C0F70125913491472DE0
:10300000612F802F0E946F1022E0E20EF11C73945A
:1030100036E07312F1CF86E0C80ED11C1F5F1A3064
:1030200049F0C601880F991FDC01A35EBD4F7D01E9
:10303000712CE2CF0F5FBCE38B0E911C0430C9F6FC
:103040000E94D411FE013196DF011D921A95E9F715
:1030500009E212E07F014AE050E0B801C7010E9496
:103060008633065F1F4F0937B2E01B07A1F7B09206
:103070009202A09291022A960FB6F894DEBF0FBE7C
:10308000CDBFDF91CF911F910F91FF90EF90DF9017
:10309000CF90BF90AF909F908F907F90089580E0E9
:1030A0000E94571060E086E290E00E9462330E9426
:1030B000D7170E94A41081E00C9457106AEE7EEF9F
:1030C00090E080E00E94803360E082E090E00E9427
:1030D000623360E083E090E00E946233109261030B
:1030E00060E084E090E00E94623360E082E290E081
:1030F0000E94623360E085E090E00E94623360E00D
:1031000086E090E00E9462336FEF87E090E00E94DB
:10311000623340E050E0BA0188E090E00E947433EE
:1031200060E08DE090E00E94623340E050E0BA0140
:1031300088E190E00E94743360E087E190E00E94B3
:10314000623340E050E0BA018CE190E00E947433B9
:1031500070E060E080E290E00E94803340E050E068
:10316000BA0188E190E00E94743380E00E94571019
:103170000E944F1840E050E0BA018FE090E00E94BA
:10318000743340E050E0BA0183E190E00C94743372
:1031900060915703669570E041E050E081E091E076
:1031A0000E941433892B19F481E0809355030E9407
:1031B0008E0E9093CE028093CD0280915603846050
:1031C000809356030895CF93DF9300D000D0CDB7FE
:1031D000DEB79091570390FF4CC0882309F442C09A
:1031E0008F3008F041C08F77880F9091570391700E
:1031F000892B8093570380915603816080935603F7
:10320000662381F08091570390915803A091590350
:10321000B0915A0389839A83AB83BC83BC01CD01EF
:103220000E94D01460915703669570E041E050E031
:1032300081E091E00E941433892BC1F00E94430881
:1032400081E08093D00220E040915A0360915903BD
:10325000809158030F900F900F900F90DF91CF91B6
:103260000C943F1581E0C0CF8EE0BECF0E94C818FD
:10327000E7CF0F900F900F900F90DF91CF910895AF
:103280008091570386958F5F8F3008F081E061E071
:103290000C94E3189091570396958FEF890F913016
:1032A00009F48EE061E00C94E3189091570390FFCD
:1032B00007C09695981720F0961710F40C944019B3
:1032C00061E00C94E3189F92AF92BF92CF92DF928D
:1032D000EF92FF920F931F93CF93DF93CDB7DEB79B
:1032E00028970FB6F894DEBF0FBECDBF6C01DC018E
:1032F0009C9111968C91119713962D913C91232BB3
:1033000021F089238F3F09F05DC628960FB6F89407
:10331000DEBF0FBECDBFDF91CF911F910F91FF9008
:10332000EF90DF90CF90BF90AF909F900895C8012D
:1033300082519F45409708F0DFC58FEF93E00E94D0
:103340004E332EEEF22EF00E09E712E0882349F1FB
:10335000809166038770C9F2D60112968C918823FA
:10336000A1F282E028960FB6F894DEBF0FBECDBF63
:10337000DF91CF911F910F91FF90EF90DF90CF9051
:10338000BF90AF909F900C9462090115B4E01B07A9
:10339000F9F2C8010E944E33811101C0FA940F5F07
:1033A0001F4FF110F2CF80913E0190913F01A0910B
:1033B0004001B091410189839A83AB83BC839924F6
:1033C0009A947801EFEFEE1AFE0AC8010E944E337C
:1033D00089831A82882309F4BBCF813009F048C061
:1033E0005801F2E0AF0EB11CC7010E944E33E82E27
:1033F0008A83882309F4ACCFC5010E944E33F82E8E
:103400008FEF8E0D833068F4580123E0A20EB11CBB
:10341000FB82FF2021F0CE0101960E94E90C85017C
:10342000D0CF34E0E312FBCF580144E0A40EB11C2E
:10343000C80103960E944E33FF2009F489CF8823E8
:1034400009F486CF8150990B989E9001999E300D7A
:103450001124AF2DA150BB0BCD01820F931F0197FB
:10346000F0F2EFE9FFE03197F1F700C00000F7CF8D
:10347000CE0101960E94E90C5701D1CF81E00E9454
:103480004B090E940B0B64CF81E00E945609F9CFD3
:1034900082E0F5CF80913C01816080933C01D601B0
:1034A00012963C91332309F4A3C5109252030631BE
:1034B000BCE51B0708F0B6C00230ECE51E0708F4B7
:1034C0007DC20E94B41090935F0380935E03063127
:1034D000FCE51F0708F0ECC002302CE5120708F0ED
:1034E000DAC060915E0310915F0384E090E00E9477
:1034F0006233612F82E290E00E9462330E94F711F2
:1035000027CF80913C018E7FC8CF0933110560F42D
:103510000D32110520F40B32110509F034C58091EC
:103520002B0482FD30C508C004361105C1F32BC53C
:1035300080912B0484FD27C5D60112968C91882397
:1035400009F446C080913C0180FF1DC590912B0479
:1035500091FD04C020916303211115C595FF27C07B
:103560002091500330915103F701E21BF30B9F01AF
:1035700096FD02C081FD1BC0283C3105C0F420919E
:103580004E0330914F030217130789F481FD09C0E0
:10359000802F0E94E80BDCCE80912B0483FDF3C4C6
:1035A000CBCF80916503826080936503F1CF109348
:1035B0004F0300934E03F0925103E0925003809129
:1035C0003C01846080933C0182E00E946209C0CE8D
:1035D00040E0B701C8010E94FB0DBACE053F4CE5A3
:1035E0001407C9F027E245EE66EE063F5CE51507D5
:1035F00009F4E5C427E245EE64EE043F9CE51907B3
:1036000009F4DDC44CCF27E245EE65EED8C426E2CE
:1036100041EE60EED4C426E241EE62EED0C428E270
:1036200041E0F3CFC8018A5F9C45099708F449CF70
:1036300006314CE5140709F0BDC180916303982F52
:103640009A7A20912A0420FF04C0482F447409F07C
:1036500090E021FF04C0482F417109F090E022FF63
:1036600004C0482F487809F090E023FF03C082721D
:1036700009F090E0332309F4B6C081E0911101C054
:1036800080E08093530389E2911185E30E947105E4
:103690000E94E8085DCEF801E350FC4580915E038E
:1036A0008160E331F105B8F4E655FC4C0C94FE3230
:1036B000C8018A5F9C45099708F013CFF801EB5FBA
:1036C000FC45E830F10590F4E354FC4C0C94FE32D8
:1036D00080915E03826080935E0303CF80915E03DE
:1036E0008460F9CF80915E038860F5CF80915F039D
:1036F000816080935F03F5CE80915F038260F9CF94
:1037000080915E038061E7CF80915E038062E3CFAA
:1037100080915E038064DFCF0E94F71180915E0389
:103720008068D9CF80915E038C60D5CF80915F0394
:103730008360DFCF80915E038E7FCDCF80915E036B
:103740008D7FC9CF80915E038B7FC5CF80915E0353
:10375000877FC1CF80915F038E7FCBCF80915F0346
:103760008D7FC7CF80915E038F7EB5CF80915E0342
:103770008F7DB1CF80915E038F7BADCF0E94F7111B
:1037800080915E038F77A7CF80915E03837FA3CF65
:1037900080915F038C7FADCF80915E0382FB992780
:1037A00090F921E0922790FB82F990FB83F993CF67
:1037B00080915F03982F909591708E7F892B90FB5D
:1037C00081F997CF0E94F71190915E03892F97FBA3
:1037D00087F9805880CF61E08EE090E00E946233EC
:1037E00080CE60E0F9CF80915303811104C089E25B
:1037F0000E948A054DCF85E3FBCF0D351D4509F4A9
:10380000A7CDF60186819781009709F409C10E942E
:10381000ED05182FF92EF601B280E580E2949FE0C5
:10382000E922809166038770A1F0AB2CBB2091F058
:103830008F2D807F803421F080E2810F883048F026
:1038400082E00E946209809166038770AA24A39493
:103850008111A12C9F2C92948FE09822F8E09F1662
:1038600009F40CC2F91508F434C123E0291508F451
:10387000EEC08F2D807F0F2D0F7031E0391508F0CD
:103880003BC1803211F00295007F112309F46CC115
:10389000113009F4B9C1BB2009F4C2C1EE2009F40A
:1038A00090C140E0F6016281808191810E9468119F
:1038B00080912D0481FD35C1D60115968C91159707
:1038C00080FF2FC18F7015968C937BC18091570319
:1038D00080FF26C08E7F809357032091570330913D
:1038E00058034091590350915A032D833E834F83CF
:1038F0005887CA01B9010E94D0140E9443088091E0
:1039000056038160809356033FEF40E752E0315009
:1039100040405040E1F700C000000E94DC0E18CD8E
:1039200081608093570361E086950E94E31810CD73
:103930004AE459E160E479E10E944A0809CD40E493
:1039400059E16AE479E1F8CF47EC55E16EEB75E1B6
:10395000F3CF4EEB55E167EC75E1EECF4CED55E161
:1039600060ED75E1E9CF40ED55E16CED75E1E4CF37
:1039700044EF55E168EE75E1DFCF48EE55E164EFC5
:1039800075E1DACF4CE155E169EF74E1D5CF49EF4C
:1039900054E16CE175E1D0CF61E081E0C6CF65E034
:1039A00082E00E945519D4CC68E086E0FACF6EE040
:1039B00089E0F7CF0A358DE5180771F10B359DE5E4
:1039C000190758F40115ACE51A07C9F00E3D1C455E
:1039D00009F017CF0E945E18BBCC0B35EDE51E0732
:1039E000E9F00C351D4509F00CCF80915F0382FB97
:1039F000882780F991E089270E943D1002CF0E941C
:103A0000F7112FEF34E34CE0215030404040E1F714
:103A100000C000000E94C70981E0EECF80E0ECCF3B
:103A20008281E080F180882369F0C7010E941D1126
:103A3000182F682FC7010E940A05B701812F0E9425
:103A40000A11E5CEC7010E943A05182FF6CF44E0CF
:103A5000941609F4F7C0292D2850330B2430310572
:103A600010F40E94D80B812F9F2D0E94E104811138
:103A700024C21092330410923204AA20A9F080913B
:103A8000660380FD11C0F6011282859585958595A6
:103A90000E944B09C6010E946319809166038595B7
:103AA000859585950E94560960E0C60128960FB657
:103AB000F894DEBF0FBECDBFDF91CF911F910F9164
:103AC000FF90EF90DF90CF90BF90AF909F900C94BD
:103AD000851159E0951609F443C186E0890D8F7070
:103AE000823008F0B8CF123F09F04AC18F2D8F7194
:103AF000BB2009F491C141C1882311F00295007FD8
:103B0000BB20C9F0002369F080E2810F883010F0FB
:103B100011110BC080916303802B809363030E947B
:103B2000E808812F0E94E80B96CF80916503802BD7
:103B300080936503F4CF812F0E94770C002309F452
:103B40008ACF80E2810F883010F0111106C0802FDB
:103B50000E9497050E94E8087ECF0095809165033A
:103B6000802380936503F6CFBB2069F1E11006C086
:103B700080916003802B0E9424096DCF81E0E812C0
:103B800013C080915F0382FD66CF80916003082B94
:103B9000081709F460CF0E94C10890935D038093D9
:103BA0005C030093600357CF80912C04823000F3B4
:103BB000E812DECF0E949F058091640308130093F2
:103BC0006403802FD8CFE11006C00E949F05802F8C
:103BD0000E942E0940CF80912C0491E0E9120FC081
:103BE000823008F438CF80916303802309F433CF07
:103BF00080916403882349F310926403E6CF8230F6
:103C000020F3E812E2CF27CFBB2029F0A5E0AE15C4
:103C100008F421CFD6CFB4E0BE1508F41CCFD7CF1F
:103C2000EE20A9F28091300490913104193321F0F3
:103C300080912E0490912F040E94A70B812F0E9447
:103C4000770C09CF8F2D86958695837069F081302A
:103C500009F001CF812F9F2D9370B11002C090E029
:103C600080E00E94AB08F7CE812F9F2D9370B1109A
:103C700002C090E080E00E949508EDCE8F2D837009
:103C8000A9F5B110E8CE812F829586958770880FAF
:103C9000880F412F4F70082E01C0440F0A94EAF795
:103CA000212F207114FF07C02FE030E001C0220F48
:103CB0008A95EAF720959F2D969596959370923068
:103CC00081F0822F842B933031F080916103913009
:103CD00029F0242B82230E944309BDCE842B822B02
:103CE000FACF242B809161038227F5CFBB2069F1A5
:103CF000F0FEB1CE812F829586958770880F880F50
:103D0000412F4F70082E01C0440F0A94EAF7212F6B
:103D1000207114FF07C02FE030E001C0220F8A9508
:103D2000EAF720959F2D969596959370923099F08D
:103D3000822F842B933031F080916203913041F0D7
:103D4000242B82230E94470986CEF1FE84CED2CF57
:103D5000842B822BF7CF242B809162038227F2CF12
:103D60000F2D0F70BB2029F0802F0E944B09812F4F
:103D700002CF812F0E942E09802F0E9456096BCE00
:103D8000133F68F4103F61F1113F09F440C0BB20BC
:103D900009F48EC0E110C5CE8F2D8F713DC0133F49
:103DA000F1F1143FA1F720912C04223008F469C0EE
:103DB00080916403BB2009F44CC00E949705809158
:103DC000660387708430B9F5109266031092680319
:103DD000109267038F2D8F710E945609A12C3BCE44
:103DE000BB2081F0B4E0BE1508F435CE2F2D2F7125
:103DF00081E090E001C0880F2A95EAF79091620374
:103E00008927A0CFE5E0EE1508F425CEEFCF8F2D62
:103E10008F71BB2009F4B1CF0E944B091CCE80E00A
:103E2000BB2009F48FCF81E09F2D9F7101C0880FC7
:103E30009A95EAF787CF80912C04E81678F60F2D33
:103E40000F71802F0E944B0963E0802F0E9482092E
:103E5000C5CF90916303982B90936303E21668F0AB
:103E600010926603109268031092670381111092FA
:103E7000640364E08F2D8F71E9CF81E00E946209B5
:103E8000ADCFBB2051F00F2D0F71802F0E944B0939
:103E900063E0802F0E948209DECD81E00E946209EA
:103EA000F1E0FE1508F0D7CD82E00E946209D3CD83
:103EB000E110B8CE8F2D8F7160CFBB2019F0E110CB
:103EC000D8CDDBCDE110D5CD40E0D60112966C9176
:103ED00012978D919C910E94681180912D0483FF0F
:103EE000C8CD8091320490913304029709F0C1CD7E
:103EF000812F0E94C60CBDCD0031FFE51F0709F4DC
:103F0000BDCA01312FE5120709F4C2CA80912B0402
:103F100080FF39C00E94C1087C01D60112968C91A5
:103F2000882321F180913C0182FF06C040E0B70167
:103F300090E080E00E94FB0D809165038D7F80936F
:103F400065030B31BCE51B0709F4A4CA0C31ECE591
:103F50001E0709F4D6CA90913C01892F8E7F90FFED
:103F600081600A31FCE51F0709F497CA0832110580
:103F700008F0CBCA0E31110508F00ECBC80104972A
:103F80004A9708F4D5CAD60112968C91033FBCE536
:103F90001B0709F43CCB08F021CB083DFCE51F07CB
:103FA00009F431CB093D2CE5120709F438CB26E2A0
:103FB00041EE61EE073D3CE5130709F070CA0E942F
:103FC000930DC6C961E0C6010E9485118C01D6011E
:103FD00012968C918111ABC900313FE5130709F4AA
:103FE00053CA01314FE5140709F090CF82E04DCA62
:103FF0000631BCE51B0709F420CB80916303827274
:10400000063D5CE5150708F0F8CB023C9CE5190776
:1040100008F4F7CBF801E35CFC45E331F10508F067
:1040200055CCEB53FC4C0C94FE32EF92FF920F9365
:104030001F93CF93DF9380913203807F31F480917F
:104040002F03C091EC02811119C0DF91CF911F9114
:104050000F91FF90EF90089580912D0390912E0382
:104060002091300330913103D0E02115310521F04A
:10407000492F48234F3F39F42196C7708091EB02B6
:104080008C13EACFE2CF8E0143E0000F111F4A9557
:10409000E1F7F801E351FD4F41819413EDCF908199
:1040A0009813EACF82818111E7CFE380F480E21A8E
:1040B000F30A60E08DE293E00E948511809128046C
:1040C00090912904E816F906B8F6809132038F70B2
:1040D000806180933203F801EE50FD4F80818F7034
:1040E000806180838DE293E00E946319DF91CF911C
:1040F0001F910F91FF90EF900C9467057F928F9224
:104100009F92AF92BF92CF92DF92EF92FF920F9366
:104110001F93CF93DF93CDB7DEB72D970FB6F894EB
:10412000DEBF0FBECDBF8C0185E0F801DE01199620
:1041300001900D928A95E1F7D801BC901196AC9050
:1041400011971296EC9012971396CD90DC90909167
:104150002D0380912E0320913003309131032115DE
:10416000310521F089238F3F09F0A7C1EE2009F422
:10417000A0C0C8010E945A11F82E882309F499C0E2
:1041800088E0F801ADE2B3E001900D928A95E1F785
:104190000E94152027C160E08DE293E00E94851106
:1041A00080912D0480FDC1C1CD2829F08B2D8A215D
:1041B0008F3F09F0EEC080E0A82FA170DA2EE091C9
:1041C000EC022091EB0280FD1EC0EE2009F40AC132
:1041D00080913203816080933203F12C03C18E2FD2
:1041E00090E0B8E0EB9FF0011124E351FD4F3181E5
:1041F0003A1106C030813B1103C032813E11E5CF38
:104200000196E82FE770E213EACF89859A850E942C
:104210004C11292F22952F70903260F0225F2F7061
:10422000223078F49F7051F0F8019581907F31F43D
:10423000D12C0AC09F7011F08823D1F3805E8830A2
:10424000B8F3C8010E946319FD2CCCC0452B29F09E
:10425000282F29232F3F09F0DAC0C8010E945A11E4
:10426000882339F1EE2029F1809132038032A0F0C9
:1042700080912D0390912E039A8389831B82DD8286
:10428000CC827E82809133039091340398878F8310
:10429000CE0101960E94631988E0F801ADE2B3E017
:1042A00001900D928A95E1F70E941520FF24F39466
:1042B00099C0C8010E946319F9CF872D807F61F4EE
:1042C0008DE293E00E94631988E0EDE2F3E0DF0104
:1042D0001D928A95E9F781CF80912D0390912E034D
:1042E0002091300330913103232B09F4B6CF282FCE
:1042F00029232F3F09F4B1CFF80121812913ADCF34
:10430000F80190819813A9CF2091330330913403A1
:10431000868197812817390709F09FCFE1109DCF3B
:104320007582C8010E946319EDE2F3E088E0DF01C5
:104330001D928A95E9F756C060E08DE293E00E94F5
:10434000851180912804909129048816990660F7B8
:10435000FE2CEE2009F4ADCF80912D0390912E0319
:104360002091300330913103232B29F0282F29236A
:104370002F3F09F071C0C8010E945A1181118CCFE2
:1043800080913203816080933203C8010E946319D7
:1043900029C081E08E2510CF81E08E25CFC0F801A5
:1043A00021812913B5C0F80190819813B1C02091E3
:1043B000330330913403868197812817390709F038
:1043C000A7C0E110A5C0809132038F7080618093F7
:1043D00032038DE293E00E94631980913203D80189
:1043E00015968C938F2D2D960FB6F894DEBF0FBEC9
:1043F000CDBFDF91CF911F910F91FF90EF90DF9094
:10440000CF90BF90AF909F908F907F900895D801EC
:1044100011962C91291321CFD8019C9198131DCF6F
:10442000209133033091340316968D919C91179708
:104430002817390709F011CFE1100FCF15967C929C
:10444000C8010E94631988E0F801ADE2B3E0019071
:104450000D928A95E1F7C6CFD80111962C912913B8
:104460008ACFF8019081981386CF20913303309141
:104470003403868197812817390709F07CCF60E0E3
:104480008DE293E00E94851180912D0482FDDBCFA7
:104490008091320380FDD7CF982F907FA1F2D80171
:1044A00015968C931597903F59F2982F907F905FB7
:1044B0008F70892B15968C93C3CFF0902F034601F4
:1044C000821A930AFF2009F437CF60E08DE293E06F
:1044D0000E948511809128049091290470903203E4
:1044E0008816990608F0E9CE80912D0390912E034D
:1044F0004091300350913103272D207F09F0A6CE43
:10450000FE2C452B29F0282F29232F3F09F047CFD8
:1045100060E08DE293E00E948511809128049091E3
:104520002904843F914008F436CEC114D10429F007
:104530008B2D8A218F3F09F02FCF80E0E091EC0294
:104540002091EB0280FF30CEE21709F42DCE8E2FA2
:1045500090E038E0E39FF0011124E351FD4F3181F9
:104560003A1106C030813B1103C032813E11A8CE02
:104570000196E82FE770E8CFCF93DF93CDB7DEB792
:1045800060970FB6F894DEBF0FBECDBF29873A877C
:104590004B875C876D877E878F87988BCE010996C6
:1045A0000E947E20811116C088E0FE013996DE014E
:1045B000119601900D928A95E1F799858A85A091CF
:1045C000EB022091EC024C855D85452B19F0892387
:1045D0008F3FA9F58091EC029091EB0289131CC0EA
:1045E00060960FB6F894DEBF0FBECDBFDF91CF91BE
:1045F000089593E0AA0FBB1F9A95E1F7A351BD4F11
:1046000098E0FE01319601900D929A95E1F7809322
:10461000EB020E946705DECFB8E08B9FC00111243A
:1046200083519D4F0E947E208823D1F28091EC021D
:1046300090E00196877099278093EC02CBCFB0E091
:10464000CD010196877099272817190691F60E94C7
:10465000F7111092EB021092EC0288E0EDE2F3E029
:10466000DF011D928A95E9F7B5CF0F931F93CF9382
:10467000DF938091D503E091F3011CE081111EC00E
:10468000DF91CF911F910F91089501E00E0F0093DC
:10469000F301CE2FD0E01E9FD0011124AB58BC4FA8
:1046A00013968D919C911497892B39F08C911196CA
:1046B0009C91119789238F3F51F4E02F8091D5036E
:1046C000E81718F31092D5031092F301D9CF16967C
:1046D0008D919C911797892B29F418968D919C9117
:1046E000019679F4E19FF0011124EB58FC4F2081F1
:1046F00031814281538164817581868197810E94D5
:10470000BC221C9FF0011D9FF00D1124EB58FC4FA3
:1047100014821382D2CF3F924F925F926F927F9218
:104720008F929F92AF92BF92CF92DF92EF92FF92C1
:104730000F931F93CF93DF9300D000D0CDB7DEB798
:1047400020917403298317E0812E01E010E08CE0B2
:10475000382E9EEF992E4424439480917303F9815F
:104760008F1319C00E9435230F900F900F900F9058
:10477000DF91CF911F910F91FF90EF90DF90CF903D
:10478000BF90AF909F908F907F906F905F904F9071
:104790003F900C9458089981892F90E09C838B83DB
:1047A000FC01EE0FFF1FE759FC4F80819181889E2D
:1047B000D001899EB00D1124FD01E852FC4FFA830F
:1047C000E9832481211157C05090D503E5E7F3E038
:1047D00050E040E0712C451508F04BC0A284B38432
:1047E000A981BA81CD90DC902FEF3FEF612C662D2F
:1047F00070E07B01EE0CFF1CEC0CFD1CD701ED9072
:10480000FC90E114F10431F0AE14BF0409F49B01F3
:104810006394EDCF2F3F3207C1F1D80102C0AA0F38
:10482000BB1F2A95E2F77A2A980102C0220F331F94
:104830006A94E2F7215031097216130621F5349E6D
:10484000F001359EF00D1124EB58FC4F889ED001ED
:10485000899EB00D1124A852BC4F12962D913C9107
:10486000139737832683908291829187808715964C
:104870004C920E946908EB81FC813196FA83E983AE
:10488000E370E9836ACF148213824F5F5F4F3C96D7
:10489000A2CF7F928F929F92AF92BF92CF92DF92E0
:1048A000EF92FF920F931F93CF93DF93CDB7DEB7B5
:1048B00063970FB6F894DEBF0FBECDBF1A82198280
:1048C000FE01339688E0DF011D928A95E9F78AE8B8
:1048D000E82E81E0F82E8E010F5F1F4F9FE8A92E72
:1048E00091E0B92E4801CC24C394D12CF7018191D9
:1048F0007F018F3F09F447C0F894E82FE295EF70ED
:10490000F0E021A18F70A60102C0440F551F8A95C7
:10491000E2F7CA01922F982B91A392A18095892347
:1049200082A3789400C0E4E9F1E030E020E0712C4B
:1049300081918F3F09F47AC0A82FA295AF70A05E35
:10494000B0E04C9150E08F7002C0559547958A9524
:10495000E2F740FD6BC08C2D022E01C0880F0A9437
:10496000EAF7782A2F5F3F4F2630310509F7F70124
:10497000319780818F3F11F00E94720750EA5A955B
:10498000F1F7D8017C920F5F1F4FAE14BF0409F0FE
:10499000ADCF4AE050E0B4018FED92E00E942133A8
:1049A0008C01892B41F08AE0F401AFEDB2E0019077
:1049B0000D928A95E1F7F090DE0201151105C1F123
:1049C00081E08093C1020E94C1089093C00280934D
:1049D000BF028091BF029091C0020E94B809059762
:1049E00068F0AF2DB0E0AC52BD4F85E0EFEDF2E0E6
:1049F00001900D928A95E1F71092C10281E090E05A
:104A0000012BD1F063960FB6F894DEBF0FBECDBF79
:104A1000DF91CF911F910F91FF90EF90DF90CF909A
:104A2000BF90AF909F908F907F90089580E099CF36
:104A30008091C1028111CDCF0E94B50BD82EE0919B
:104A4000DE02882309F4CEC01C861B869E01235FEC
:104A50003F4F83E0D9011D928A95E9F70E2F10E0B0
:104A60000C521D4F8091C202FE013B967F018A309D
:104A700008F083C02BE636E142E451E0B701C801FB
:104A80000E94970E882309F493C02BE036E14FE48F
:104A900051E0B701C8010E94970E882309F488C02D
:104AA00029E037E14AE551E0B701C8010E94970EBD
:104AB000882309F47DC01092C202E091D302F0E095
:104AC000BF016C527D4FD7019E01205F3F4F10E028
:104AD000FB019191BF018D91981731F0AF014150C9
:104AE0005109FA0180831D2D2A173B0789F7809110
:104AF0003D01882301F18091D6039091D70300975F
:104B0000D1F00E94B80920917103309172032817E7
:104B1000390788F49091740380917303981709F40E
:104B200058C00E948B23109272031092710310924E
:104B3000D7031092D60380912B0480FF1CC0809174
:104B40003C0182FF18C00E94C108BC018091500343
:104B5000909151039B01281B390B80913A01909150
:104B60003B012817390738F041E080914E039091BE
:104B70004F030E94FB0D812F45CF8091C30290917E
:104B8000C4020E94B809843F914008F073CFE091BD
:104B9000D302F0E0EC52FD4F85E0DF01282F1D929B
:104BA0002A95E9F7D7011D928A95E9F71D2D9FCF28
:104BB0008091C2028F3F31F08F5F8093C2028A30B2
:104BC00008F47BCF0E94C1089093C4028093C30273
:104BD000DECF0E9435231092D7031092D6030E9495
:104BE0005808A9CFF0E0EC52FD4FF89485E0A3EA15
:104BF000B2E001900D928A95E1F783EA92E00E947B
:104C0000F40A8093A2027894F894C090A802D090FD
:104C1000A902E090AA02F090AB028091C9029091A3
:104C2000CA02A091CB02B091CC02C816D906EA06FE
:104C3000FB06F1F0C092C902D092CA02E092CB0208
:104C4000F092CC020E94B50B811112C00E9498090B
:104C5000688B798B8A8B9B8BC61AD70AE80AF90A6C
:104C6000C092C502D092C602E092C702F092C8027A
:104C70007894F8948091B302882379F180FF0DC075
:104C80008091AC0280FF2CC090915703916090936B
:104C9000570360E086950E94E3188091B30281FF7C
:104CA00009C020E04091AF026091AE028091AD0258
:104CB0000E943F158091B30282FF06C08091B2022C
:104CC000882389F00E94C8188091B30283FF03C033
:104CD00081E08093D0021092B302789480E092CE6B
:104CE0000E94650FDACF0E944308EECF1092D703DF
:104CF0001092D60310923D01809173038093740348
:104D00000E9458080C9435232F923F924F925F9245
:104D10006F927F928F929F92AF92BF92CF92DF92CB
:104D2000EF92FF920F931F93CF93DF93CDB7DEB730
:104D30006A970FB6F894DEBF0FBECDBF498B5A8B72
:104D4000262F6B8B7C8B8D8B8C899D89892B29F0F1
:104D5000852F84238F3F09F029C22111109265030A
:104D60001E861F86188A85E0FE017196DE0119965F
:104D700001900D928A95E1F78091120490911304AD
:104D8000892BC1F00E94C10820916703309168030C
:104D9000821B930B20911204309113048217930706
:104DA00020F08091660382FFFDC10E94CD08811131
:104DB0000E949F0589859A852C853D85232B21F0AE
:104DC00089238F3F09F0DAC129853A854B855C85B7
:104DD0006D857E858F8598890E94BC22C6C028EF8C
:104DE000C2162CE5D20629F4882379F00E94762693
:104DF000EBCF39EFC3163CE5D30639F4882329F00D
:104E000080913D018111F2CFC9C108ED13E0512C11
:104E1000912C812C22242394312C9EEF492EF801D1
:104E200040815181AA24AA94BB24BA9420E0822F05
:104E300090E0FC01EE0FFF1FE40FF51F6081718110
:104E40006115710531F0C616D70609F45C012F5FB4
:104E5000EECFF12CFFEFAF16BF0609F448C0F80102
:104E60004481F0903D018F2D411180E0F82FF170C9
:104E7000FF2EF801E58086819B85992309F411C1F5
:104E8000FF2009F40EC16090260470902704E11001
:104E900012C0A10101C0440FAA94EAF7842B8683B3
:104EA00080917103909172038615970520F470929A
:104EB000720360927103C10102C0880F991F2A9585
:104EC000E2F70197F80126812817190681F48091ED
:104ED000D6039091D703009709F460C00E94B809E7
:104EE0006816790608F05AC021E0F80124835F288B
:104EF000FFEF8F1A9F0A095F1F4F28E08216910467
:104F000009F08DCF8B85882309F423C1552009F43E
:104F100020C10E94C1089093D7038093D60380914B
:104F2000D503883010F591E0980F9093D50398E061
:104F3000FE013996DE01119601900D929A95E1F7E6
:104F40003CE0839FC00111248B589C4F28E0FE0158
:104F50003196DC0101900D922A95E1F72FEF3FEF9A
:104F6000FC0131872087D386C2866A960FB6F894F3
:104F7000DEBF0FBECDBFDF91CF911F910F91FF908C
:104F8000EF90DF90CF90BF90AF909F908F907F90E9
:104F90006F905F904F903F902F9008958091740391
:104FA000309173033E8B982FE0E0F0E0E02E512F1C
:104FB0002E89821314C0909374030E171F0709F4EF
:104FC00096CF90E0FC01EE0FFF1FE759FC4F918256
:104FD00080820196837099278093730388CFA82ECF
:104FE000B12CF501EE0FFF1FE759FC4F6081718175
:104FF000E7E0E69FD001E79FB00D1124A852BC4F17
:105000002D913C9111973A8F298F40E020E030E0BC
:10501000E32FF0E0EE0FFF1F698D7A8DE60FF71F8B
:105020006080718061147104E1F0F8010190F081F9
:10503000E02DF88FEF8B20E005C06616770609F4A7
:105040004F2D2F5FE22FF0E0EE0FFF1F6F89788D5D
:10505000E60FF71F608171816115710571F73F5F80
:10506000D7CF4423D9F0EE2DF52F231708F0FD01FB
:1050700021E024830E171F0721F490937403F42E6C
:1050800036CF891305C0AE17BF0711F49F5F937029
:1050900095012F5F3F4F822F83708ACFE0E0F0E0D1
:1050A000F7CF90E0E1101FC0B10102C0660F771F7B
:1050B0002A95E2F79B01215031098217930731F4B9
:1050C000442309F444C0C4010E946908C10101C01D
:1050D000880FAA94EAF7982F9095F8018681892382
:1050E0008683FE2C04CFAC010A2C02C0559547954F
:1050F0000A94E2F79C012150310982239323892BE2
:1051000011F540FF20C0F80182819381892BC1F005
:105110001B821C821D821E8249824A820E94C10813
:105120008160582F692F9D838C83F8018281938140
:105130008F83988729813A814B817E810E94BC228E
:10514000F8011582C3CFF42FF170EF2EBFCFEF2CF3
:10515000BDCF9091740380917303981731F00E9432
:105160008B23552009F430CE00CF0E9435231092B6
:10517000D7031092D6030E945808F3CF61E0CE0106
:1051800009960E9485116C018B8537EFC3163CE5AB
:10519000D30609F024CE882309F437CE81E080932A
:1051A0003D0112CE82E00E946209FFCD809132045F
:1051B0009091330401969093330480933204CDCDC3
:1051C000CDB7DEB7AE970FB6F894DEBF0FBECDBF3A
:1051D00084B7877F84BF0FB6F894A895809160004C
:1051E000886180936000109260000FBE80E890E0BC
:1051F0000FB6F89480936100909361000FBE85B75D
:10520000806885BF85B7806885BF80E797E0909309
:10521000CB018093CA010E947E170E94AE110E94AA
:10522000860A0E94460B8091E20084608093E2002F
:1052300078948091BD02882399F08091E9001091C3
:10524000EC001795112717958F70182B1092E90015
:105250008091E80083FD0E9402121F701093E90004
:1052600082E084BD93E095BD9AEF97BD80936E0078
:105270001092C5021092C6021092C7021092C80284
:105280000E94C210811102C00E944F180E94B50BEB
:105290008093070180910701882309F46EC080E0A4
:1052A0008093020189E0809303010E94B50B811174
:1052B0000E941431809107018091070195E08111CE
:1052C00090E09093DE0285E0891B8093D3020AE888
:1052D00011E08FE8E82E81E0F82ED8018D918D0144
:1052E0008F3F11F00E947207E016F106B1F704E952
:1052F00011E0BAE9EB2EB1E0FB2EF80181918F01AC
:105300008F3F11F00E947207E016F106B1F78AE0B4
:10531000EFEDF2E0DF01282F1D922A95E9F7E4ED89
:10532000F2E0DF011D928A95E9F70E9400168111D3
:1053300002C00E945E1882E090E00E944E3380938B
:1053400082020E94B41090935F0380935E030E94D8
:105350004924EFE3FCE93197F1F700C000000E9417
:1053600049248091D40280FF0AC06FEF7FEF90E064
:1053700080E00E9480330E94C70989E091CF83E0DA
:1053800090E00E944E330E9443090E94B50B8111A8
:1053900002C00E94173180917A02811138C00E94A8
:1053A0000016811104C00E945E180E94E41488E077
:1053B00090E00E9456336093570370935803809394
:1053C000590390935A038091560383608093560348
:1053D0006E7F71F40E94E41488E090E00E945633DE
:1053E00060935703709358038093590390935A0323
:1053F0000E942D080E9443088091570380FF04C03B
:1054000060E086950E94E31881E080937A0288E04C
:1054100091E09093EA028093E902AEED2A2EA2E099
:105420003A2E9E012F5F3F4F79018091BD02DD240E
:10543000D39400E112E1853009F431C10E9449247E
:1054400081110E949809E4EDF2E0A3E8B2E010E0D7
:1054500000E0A02EC1908D918C1509F440C18C25DF
:10546000B12CDD24D394982F9D2109F433C10E94DF
:10547000B50B882399F0B982AA82CD2081E009F486
:1054800080E08B830E94C1088160782F9D838C838C
:1054900049815A816B81892F0E948426F801ED573A
:1054A000FD4F80818D25808380915503882309F4E9
:1054B00065C080915403E0915703E695E81BE093A3
:1054C000CF02823009F022C1F0E0ED5FF94FE491A4
:1054D0000E2F10E0F7EBCF2EFFE0DF2E8091D002F1
:1054E000882361F01092D0020E948E0E9093CE021B
:1054F0008093CD021092D2021092D1020E948E0EA1
:105500009C018091CD029091CE02A901481B590BBC
:105510004F3F5F4798F5409180024423B1F01092CD
:10552000800240917E0250917F02241B350B2F3F59
:105530003F4758F4405D5A4850937F0240937E02A3
:1055400020915603286020935603A090D102B0907A
:10555000D202800F911F9093CE028093CD028DECEA
:1055600092E0F60109958091D1029091D202892BA7
:1055700029F4AB2819F081E0809380020E94D80BB7
:1055800090918102891721F00E94D80B80938102AB
:105590008091BD02843009F048CF83E08093E90018
:1055A0008091E80082FF41CF8091E80090E085FF84
:1055B0000CC00E94550A50E2C52ED12C8E010F5FFF
:1055C0001F4F882309F4CEC091E08091E8008B77CB
:1055D0008093E800992309F428CF00919302109159
:1055E0009402E9810115110509F4CAC0EE3F09F0E2
:1055F000ECC08A81833020F08550833008F0E5C00C
:10560000EA81EE3008F0E1C0F0E0E852FC4C0C9486
:10561000FE328091BD02843009F433C00E944308F9
:1056200080917D02811109C0D0927D028091570343
:10563000817080937C020E94650F10927B0288E14A
:1056400090E0A0E40FB6F894A895809360000FBE98
:10565000A093600083B7817F846083BF83B781603C
:1056600083BF7894889583B78E7F83BF0FB6F894F5
:10567000A89580916000886180936000109260001E
:105680000FBE80919502882351F00E944924E4EDD9
:10569000F2E081918111A9C32E163F06D1F78091C6
:1056A000BD02853009F4B5CF0E94F7110E94D80BD6
:1056B00010927D0280917C02882349F080915703EB
:1056C00081608093570360E086950E94E3180E94F2
:1056D000C818B4CEB394DD0C26E0B212C4CE0F5F6E
:1056E0001F4F0A30110509F0B4CE8FEF89838A83EA
:1056F0001B820E94C1088160782F9D838C83498121
:105700005A816B81892F0E948426CECE863059F42F
:10571000F0E0E050FA4FE4910E2F10E0EBECCE2ECB
:10572000EFE0DE2EDBCE00ED17E06BE8C62E67E083
:10573000D62E893009F0D2CEE695F0E0E350FA4F4C
:10574000E4910E2F10E077E2C72E7FE0D72EC6CE71
:105750008091F100D8018D938D01B1E0CB1AD10871
:1057600009F432CF8091E80085FDF2CF8091E80006
:105770008B778093E8000E94550A882399F324CF01
:10578000E43150F4EE2359F0E150E33140F4F0E01D
:10579000EA51FC4C0C94FE32EE3F09F431CF8FEF0E
:1057A00050C31A8289E08B8310C08A81823009F449
:1057B0006AC3833071F0813091F70E9498090E948A
:1057C00004336B837C838D839E83C7010E94CF0A41
:1057D0002CCE8091910290919202892BB1F38AE0B4
:1057E000E4EDF2E0DE01139601900D928A95E1F767
:1057F000ECCF8A81823099F68B819C81AD81BE810C
:105800008BA79CA7ADA7BEA7BC01CD010E94043306
:1058100086E290E00E946233D8CF4C816B818A810E
:105820000E94DB109827892798279E838D83CDCFF0
:105830002D813E813227232732274C816B818A813B
:105840000E946F10C2CF0E94D717BFCF8A818238C3
:1058500061F178F48038B1F0813809F0B6CF60E0BA
:105860008B810E94E3188B81811115C00E94650F06
:10587000ACCF833809F0A9CF20E040915A036C8166
:105880008B8106C020E04B816091590380915803C1
:105890000E943F159ACF80915703816080935703F0
:1058A00060E086950E94E31890CF8B8180935B0324
:1058B0008CCF8A818238D9F058F4803899F08138B9
:1058C00009F083CF8091570380FF0FC086956BCF7F
:1058D000833809F07ACF809158038B8380915903E4
:1058E0008C8373CF80915A035ECF80E05CCF809130
:1058F0005B0359CF8091570390915803A0915903AE
:10590000B0915A038BA79CA7ADA7BEA7BC01CD0140
:105910000E94D0145ACF80E18A8357CF81E08A83D6
:1059200087E841CF8C81C82ED12C8D3108F04DCF26
:105930000A811B81102701271027C00ED11E5E018E
:1059400095E0A90EB11CC80187589D4F0C151D0587
:1059500009F43BCF0738A1E01A0740F40E944E3308
:10596000F50181935F010F5F1F4FEDCF80E0F8CF0E
:105970008091910290919202892B09F426CF8C811B
:10598000A82EB12C8D3108F020CF0A811B81102761
:10599000012710279E012F5F3F4F6901A20EB31E02
:1059A000C80187589D4FAC14BD0409F40ECF0738C9
:1059B00031E0130728F4D60114966C910E946233EB
:1059C0000F5F1F4FBFEFCB1ADB0AEACF0E94A41074
:1059D000FCCE84E0A1CF8C81C82ED12C8D3108F073
:1059E000F4CE0A811B81102701271027C00ED11E7B
:1059F0005E01E5E0AE0EB11CC80187960C151D05D1
:105A000009F4E3CE003EF1E01F0740F40E944E335C
:105A1000D5018D935D010F5F1F4FEECF80E0F8CF72
:105A20008C81C82ED12C8D3108F0CFCE0A811B81FC
:105A3000102701271027003EB1E01B0708F0C5CE54
:105A400080EE91E0801B910B8C159D0508F4BDCE76
:105A50003801E7E26E0E711C8091910290919202E2
:105A6000892BB9F55801F1E0AF22BB2400FF0DC02E
:105A7000C80186960E944E339D81892798278927E1
:105A800081159C4511F48FEF8D83C8018C0D9D1DF0
:105A9000460180FF17C031E0831A910845E0442E8B
:105AA000512C4C0E5D1E480C591CC3018C0D9D1DC4
:105AB0000E944E33D2019C9181159C4519F48FEFC1
:105AC000F2018083F701EA0DFB1D2FEFA814B90442
:105AD00020F05701CE0CDF1C1AC0948185818115FE
