:100000000C940F060C9456060C9456060C94C22FB2
:100010000C9456060C9456060C9456060C945606F0
:100020000C9456060C9456060C94682C0C943E2D99
:100030000C94A7190C9456060C9456060C9456066C
:100040000C9456060C9456060C9456060C945606C0
:100050000C9456060C943C1B0C9456060C945606B5
:100060000C9456060C9456060C9456060C945606A0
:100070000C9456060C9456060C9456060C94560690
:100080000C9456060C9456060C9456060C94560680
:100090000C9456060C9456060C9456060C94560670
:1000A0000C9456060C9456060C94560605010980CD
:1000B000A101850319012AB700150126B700950192
:1000C00075108100C0050C0901A101850419012AE0
:1000D000A002150126A002950175108100C005013E
:1000E0000906A1018505050719E029E71500250185
:1000F0009508750181020507190029EF15002501F2
:1001000095F075018102050819012905950575010C
:100110009102950175039101C00660FF0961A1017B
:100120000962150026FF00952075088102096315F4
:100130000026FF00952075089102C005010906A15F
:1001400001050719E029E7150025019508750181CA
:10015000029501750881010507190029FF15002680
:10016000FF00950675088100050819012905950508
:1001700075019102950175039101C000AF00000067
:100180000000003E5B4F5B3E003E6B4F6B3E001C31
:100190003E7C3E1C00183C7E3C18001C577D571CC2
:1001A000001C5E7F5E1C0000183C180000FFE7C3C7
:1001B000E7FF00001824180000FFE7DBE7FF00302E
:1001C000483A060E00262979292600407F050507B2
:1001D00000407F05253F005A3CE73C5A007F3E1C0B
:1001E0001C0800081C1C3E7F0014227F2214005FA4
:1001F0005F005F5F0006097F017F00006689956AE6
:100200000060606060600094A2FFA2940008047E19
:1002100004080010207E20100008082A1C0800088E
:100220001C2A0808001E10101010000C1E0C1E0CBA
:100230000030383E383000060E3E0E06000000004A
:1002400000000000005F000000000700070000142D
:100250007F147F1400242A7F2A120023130864626B
:1002600000364956205000000807030000001C22F9
:100270004100000041221C00002A1C7F1C2A0008AB
:10028000083E0808000080703000000808080808D0
:10029000000000606000002010080402003E514988
:1002A000453E0000427F4000007249494946002116
:1002B00041494D33001814127F1000274545453938
:1002C000003C4A494931004121110907003649499A
:1002D000493600464949291E00000014000000006C
:1002E00040340000000008142241001414141414B7
:1002F000000041221408000201590906003E415D38
:10030000594E007C1211127C007F49494936003E4B
:1003100041414122007F4141413E007F49494941DD
:10032000007F09090901003E41415173007F08081F
:10033000087F0000417F4100002040413F01007FD5
:1003400008142241007F40404040007F021C027F91
:10035000007F0408107F003E4141413E007F0909B3
:100360000906003E4151215E007F091929460026F9
:10037000494949320003017F0103003F4040403FAB
:10038000001F2040201F003F4038403F00631408FA
:100390001463000304780403006159494D430000CD
:1003A0007F41414100020408102000004141417F8B
:1003B00000040201020400404040404000000307E6
:1003C0000800002054547840007F28444438003806
:1003D0004444442800384444287F00385454541876
:1003E0000000087E0902001824241C78007F0804FD
:1003F00004780000447D4000002040403D00007F24
:10040000102844000000417F4000007C04780478FC
:10041000007C08040478003844444438007C1824E4
:10042000241800182424187C007C080404080048C0
:10043000545454240004043F4424003C4040207C95
:10044000001C2040201C003C4030403C0044281050
:100450002844004C9090907C004464544C4400002C
:100460000836410000000077000000004136080017
:10047000000201020402003C2623263C000000008A
:1004800000000000000000000000000000C0E0F0DC
:10049000F8F81800C0F0FCFEFFFFFFFFFFFFFF7E33
:1004A00000000000000000000080C0E0E0E0E0E0AC
:1004B000E0E0E0C0800000000080C0E0E0E0E0E0BC
:1004C000E0E0E0C080000000E0E0C0C0E0E0E0E08C
:1004D0000000E0E0C0C0E0E0E0E0E0C0800000003C
:1004E0000080C0E0E0E0E0E0E0E0E0C0800000008C
:1004F0000000000000000000000000E0F0F0F0E06C
:10050000ECEEF7F37020007C7C7C7E007E7E7E7FAC
:100510007F7F000080C0E07E5B4F5BFEC00000C0BC
:1005200000DCD7DEDEDED7DC00C00000000000000B
:1005300000000000000000000000000000000000BB
:10054000000000000000F8FCFEFFE000FFFFFFFFDE
:10055000FFFF80FFFFFFFFFFFFFFFFFF1F070100FF
:100560000000000000000000FFFFFF81000000000D
:10057000000081C3C3C30000FFFFFF810000000033
:10058000000081FFFFFF0000FFFFFF0100000000EF
:100590000000FFFFFF010000000001FFFFFF00005F
:1005A000FFFFFF9D1C1C1C1C1C1C9DDFDFDF0000CF
:1005B00000000000000000000000000F1F3F7F7FD0
:1005C0007F7F7F3F1E0C001F1F1F3F003F3F3F7F6D
:1005D0007F7F00307B7F7830202030787F3B0003A6
:1005E000000F7F0F0F0F7F0F0003000000000000BF
:1005F00000000000000000000000000000000000FB
:10060000000000000000030F1F3F3F3F3F1F1F3F40
:100610003F7F7F7F3F3F1F3F7F7F7F7F7C787838A2
:100620001C0F000000000000000103070707070778
:10063000070707030100000000010307070707077A
:10064000070707030100000007070700000000007C
:100650000000070707000000000000070707000070
:10066000000103070707070707070703010000004A
:10067000000000000000000000000000000000007A
:10068000000000000000000000000000000000006A
:10069000000000000000000000000000000000005A
:1006A000000000000000000000000000000000004A
:1006B0000000000000000000000000000009025BD4
:1006C00000030100A0FA0904000001030101000970
:1006D00021110100012240000705810308000A09D9
:1006E000040100020300000009211101000122227F
:1006F000000705820320000107050303200001090C
:100700000402000103000000092111010001226D13
:10071000000705840320000A1201100100000008F0
:10072000534601000100010200010C0343006F0069
:1007300072006E0065000000100366006F006F001D
:100740007300740061006E0000000403090400DA05
:100750000281FFD9F1DB20A4A62EAF00A0C000A12A
:10076000C800AED580A81FD300408D1420001E0FF6
:100770000500047F3F1F643214643214783C1E1E4F
:10078000140A0541646A75737400526169736500E7
:100790004C6F7765720044656661756C74004C61DE
:1007A0007965723A20008081828384858687888972
:1007B0008A8B8C8D8E8F9091929394A0A1A2A3A4EA
:1007C000A5A6A7A8A9AAABACADAEAFB0B1B2B3B461
:1007D000C0C1C2C3C4C5C6C7C8C9CACBCCCDCECFA1
:1007E000D0D1D2D3D40000AE000000000000000041
:1007F00000000000000000000000000000000000F9
:100800000000000000000000000000007E0F00D487
:10081000FFFFFFC70000007800000000000000009C
:100820002A2B28000000000000000000000000004B
:1008300000000029000000002C1E34202122243456
:100840002627252E362D3738271E1F202122232428
:1008500025263333362E37381F0405060708090AC4
:100860000B0C0D0E0F101112131415161718191A60
:100870001B1C1D2F3130232D350405060708090ADE
:100880000B0C0D0E0F101112131415161718191A40
:100890001B1C1D2F3130354C2B0014001A00080092
:1008A00015001700E00004001600070009000A0008
:1008B000E1001D001B0006001900050000000000FB
:1008C0000000E300105F2C002A00130012000C004F
:1008D00018001C00340033000F000E000D000B0048
:1008E0002900380037003600100011000000000019
:1008F0000000E600115F28002B001E001F002000F2
:1009000021002200E00000000000000000000000C4
:10091000E1003A003B003C003D003E0000000000CA
:100920000000E30001002C002A002700260025001B
:1009300024002300450000004F00520051005000E9
:10094000440043004200410040003F00000000001E
:100950000000E600010028002B001E021F022002FA
:1009600021022202E0000000000000000000000060
:10097000E100000000000000000000000000000096
:100980000000E30001002C002A00270226022502B5
:10099000240223023500310030002F002E002D00EC
:1009A0003502310230022F022E022D02000000001B
:1009B0000000E60001002800005C000000000000CC
:1009C00000000000C25CC55CC75CC95C00000000A0
:1009D000C35CC65CC85CCA5C00000000000000008C
:1009E0000000E30001002C000000000000000000F7
:1009F0000000000000000000A900A800AA000000FC
:100A000000000000AB00AE00AC00000000000000E1
:100A10000000E600010028002223252628292A2C90
:100A20002D2F3032333536383A3B3D3E4042434538
:100A300047494A4C4E5051535557595A5C5E606273
:100A4000646668696B6D6F71737577797B7D7F8183
:100A5000838587898A8C8E90929496989A9C9E9F83
:100A6000A1A3A5A7A8AAACAEAFB1B3B4B6B8B9BBA1
:100A7000BCBEBFC1C2C3C5C6C7C9CACBCCCDCED010
:100A8000D1D2D2D3D4D5D6D7D7D8D9D9DADADBDBFD
:100A9000DBDCDCDCDCDCDDDDDDDDDCDCDCDCDCDB94
:100AA000DBDBDADAD9D9D8D7D7D6D5D4D3D2D2D1DD
:100AB000D0CECDCCCBCAC9C7C6C5C3C2C1BFBEBCD0
:100AC000BBB9B8B6B4B3B1AFAEACAAA8A7A5A3A141
:100AD0009F9E9C9A98969492908E8C8A8987858303
:100AE000817F7D7B79777573716F6D6B69686664E3
:100AF00062605E5C5A5957555351504E4C4A4947B3
:100B0000454342403E3D3B3A3836353332302F2D57
:100B10002C2A292826252322FFAA7F5540000101DF
:100B200001010101010101020202020202020202AC
:100B3000030303030303030304040404040404057C
:100B40000505050506060606060707070707080840
:100B50000808090909090A0A0A0B0B0B0C0C0C0DF1
:100B60000D0D0E0E0E0F0F0F10101111111212138A
:100B7000131414151516161717181819191A1A1B05
:100B80001B1C1D1D1E1E1F20202122222324242564
:100B90002626272829292A2B2C2D2D2E2F3031329D
:100BA00032333435363738393A3B3C3D3E3F4041AD
:100BB00042434445464748494A4C4D4E4F50515395
:100BC00054555658595A5B5D5E5F6162646566684C
:100BD000696B6C6D6F7072737577787A7B7D7E80D0
:100BE00082838587888A8C8E8F91939596989A9C1C
:100BF0009EA0A2A3A5A7A9ABADAFB1B3B5B7BABC30
:100C0000BEC0C2C4C6C9CBCDCFD1D4D6D8DBDDDF00
:100C1000E2E4E7E9EBEEF0F3F5F8FAFDFF0011246A
:100C20001FBECFEFDAE0DEBFCDBF04B603FE27C0A4
:100C300080911B0790911C07A0911D07B0911E0782
:100C40008730904BA740B04BD1F410921B07109205
:100C50001C0710921D0710921E0714BE84B7877FD1
:100C600084BF0FB6F894A895809160008861809346
:100C70006000109260000FBEE0E0F8E3099512E01A
:100C8000A0E0B1E0EEE3FBE602C005900D92AA30D1
:100C9000B107D9F727E0AAE0B2E001C01D92AB315D
:100CA000B207E1F70E94A9250C9452350C9400007C
:100CB0009091040792FF06C0282F28712830F9F47C
:100CC000877F846093FF06C0282F28712831F1F4B4
:100CD000877E84612091050720FF06C0382F387178
:100CE0003830D9F4877F816021FF06C0282F287112
:100CF0002831D1F4877E816194FD877E0895282F65
:100D000024712430F9F68B7F8860DCCF282F247182
:100D1000243101F78B7E8861DDCF382F317131307E
:100D200019F78E7F8860E0CF282F2171213121F7BC
:100D30008E7E8861E1CFF894E82FE295EF70F0E0C5
:100D400041A18F7021E030E0B90102C0660F771F2A
:100D50008A95E2F7CB01962F9095942391A392A1C7
:100D6000892B82A378940895AF92BF92CF92DF929D
:100D7000EF92FF920F931F93CF93DF93082F162FBD
:100D8000E901493708F048E7E42FF0E0E35EF44F6B
:100D9000111111C0E4913E2F2E2F2983E8833A834D
:100DA000DF91CF911F910F91FF90EF90DF90CF9047
:100DB000BF90AF900895E12EF12C249146E0049F5E
:100DC00050011124CC24CA94D12CC501B6010E9433
:100DD000EA30802F90E0880F991F35E5369FA001FB
:100DE000379F500D1124841B950BF82FFF0FF80F20
:100DF000A6014E195F09249FC001259F900D112463
:100E0000E92F1F9FA0011124452F5527D601A41BB0
:100E1000B50B2A9FA0012B9F500D1124352F860161
:100E20000F1B11090E9DD0010F9DB00D1E9DB00D21
:100E30001124AB2FBB27CA1ADB0A2C9DD0012D9D94
:100E4000B00D112463307105D1F0FCEFAF16F3E063
:100E5000BF0670F461307105B1F062307105B9F010
:100E60004FEFA416B10408F098CF392FEB2F95CF90
:100E70006430710579F066307105B9F38ECFE52FD6
:100E8000322F292F8ACFE22F252F392F86CF3B2FC4
:100E9000E22FF7CF322F2B2F80CF8091E706982FAC
:100EA0009E7F61F4817082608093E7068091EA06FC
:100EB000893718F088E78093EA0608958635B0F3FD
:100EC00081708465F1CFE4EEF6E011828281846066
:100ED000828308950895FA0181110994FB01FDCFE1
:100EE000E0912603F0912703309721F00190F081E3
:100EF000E02D099480E0089520912403309125038A
:100F00002817390771F09093250380932403E0910B
:100F10002603F0912703309721F00680F781E02D1A
:100F2000099408952091220330912303281739074B
:100F300071F09093230380932203E0912603F091B4
:100F40002703309721F00084F185E02D099408955E
:100F50008091EB029091EA02981301C008958F5F8F
:100F60008770FACFE92FEE0FE90FEE0FE80F8E2F03
:100F7000877041E001C0440F8A95EAF7E695E6954F
:100F8000E69585E0E89FF0011124EB55FD4F30E038
:100F900020E070E05191DF011197CB01022E02C0D9
:100FA000969587950A94E2F7817081958527842329
:100FB00085278C932F5F3F4F2530310559F70895D2
:100FC000E92FEE0FE90FEE0FE80F9E2F9770E695D1
:100FD000E695E69585E0E89FF0011124EB55FD4F7D
:100FE00050E040E080E0219130E0092E02C03695CB
:100FF00027950A94E2F721703327042E01C0220FAF
:101000000A94EAF7822B4F5F5F4F4530510559F73D
:101010000895909116019923E1F09091040797FFAC
:1010200018C0E82FE695E695E695803FF0F4F0E0ED
:10103000E45FFD4F877021E030E0A90102C0440F5A
:10104000551F8A95E2F7CA01809592818923828390
:101050000895EEE0F2E09191891303C0DF0111974A
:101060001C9252E0E431F507B1F708958091DF0258
:1010700081111092DF0208958091DE029091E902C1
:10108000892B9091C302892B80930C029091DF02EF
:101090009923A1F0892B80930C028091160188235B
:1010A00041F18091040787FF24C08EE1EEE0F2E079
:1010B00090E0815000F591110E943608E0912603DE
:1010C000F09127033097E1F080911601882359F0C1
:1010D0008091040787FF07C080910C0280930D0266
:1010E00085E080930C020280F381E02D8CE092E099
:1010F000099486E0DBCF21912223D9F29F5FD9CFDB
:101100000895882361F19CEF980F913A20F40E9492
:1011100009080C943C0890E2980F983088F4877086
:1011200021E030E0A90102C0440F551F8A95E2F783
:10113000CA0180959091DE0289238093DE02E9CF77
:101140009BE5980F933020F490E080E00C947C07AE
:10115000885A873120F490E080E00C94920708953B
:10116000882339F09091DE02892B8093DE020C9463
:101170003C080895882341F080959091DE028923F0
:101180008093DE020C943C08089590E080E00E9479
:101190007C0790E080E00E9492071092E902109292
:1011A000C3020C943C086093E0027093E1028093C8
:1011B000E2029093E3020C94C5086093E4027093FA
:1011C000E5028093E6029093E7020C94C5080F9322
:1011D0001F93CF93DF9300D000D0CDB7DEB741E0AF
:1011E00050E060E070E004C0440F551F661F771F99
:1011F0008A95D2F78091E4029091E502A091E602EF
:10120000B091E7028A019B01082B192B2A2B3B2B5B
:1012100009831A832B833C83C901B8010F900F9077
:101220000F900F90DF91CF911F910F910C94DD08DB
:101230000F931F93CF93DF9300D000D0CDB7DEB7CD
:1012400041E050E060E070E004C0440F551F661FAD
:10125000771F8A95D2F7409550956095709580914B
:10126000E4029091E502A091E602B091E7028A01C2
:101270009B01082319232A233B2309831A832B83E9
:101280003C83C901B8010F900F900F900F90DF9130
:10129000CF911F910F910C94DD089091E8028095F9
:1012A00089238093E802282F277039F4282F082EED
:1012B000000C330B9217130621F49091050792FF4F
:1012C00007C08595859585950E9418091092E802BA
:1012D000089580E008959C01809116018823C1F053
:1012E0008091040787FF14C0862F86958695869582
:1012F000603FF8F4F901E80FF11D677021E030E07C
:1013000001C0220F6A95EAF78281822B82830895B9
:10131000F90132968FEF90E04191641751F08F3FC1
:1013200019F4411101C0892F9F5F9630A9F78F3FB3
:1013300009F40895280F311D87FD3A95F90162835C
:101340000895CF93C82F882309F463C08CEF8C0FC6
:10135000813AA8F580911601882301F18091040754
:1013600087FF1CC0EC2FE695E695E695F0E0E45F7C
:10137000FD4F828190E04C2F477021E030E002C0A9
:10138000220F331F4A95E2F782239323892B79F0AA
:101390008C2F0E9409080E943C0809C0EEE0F2E090
:1013A0008191C817A9F322E0E431F207C9F76C2F45
:1013B0008CE092E00E946B09CF910C943C0880E293
:1013C0008C0F883068F4C77021E030E001C0220F34
:1013D000CA95EAF78091DE02822B8093DE02ECCF81
:1013E0008BE58C0F833038F42C2F2452330BC9013A
:1013F000CF910C947C07C85AC73158F4EC2FF0E019
:10140000EE0FFF1FE552FE4F80819181CF910C942A
:101410009207CF910895CF93DF9300D000D0CDB73E
:10142000DEB78FB7F8942091A0023091A1024091CD
:10143000A2025091A30229833A834B835C838FBF1E
:1014400069817A818B819C810F900F900F900F9012
:10145000DF91CF9108959C014FB7F8948091A0023D
:101460009091A102A091A202B091A3024FBF821B52
:10147000930B089587E797E79093010880930008FE
:1014800088E19AE00FB6F894A895809360000FBEAB
:1014900090936000FFCF80919B0208950895FC0116
:1014A000CB0120913E0230913F022617370790F082
:1014B000009729F42091E8002E772093E80040E07F
:1014C000009751F4411108C08091E80082FF31C0BB
:1014D00080E00895C901F3CF2091EC062223A9F101
:1014E0002530A9F12091E80023FD2DC02091E800CE
:1014F00022FDEACF2091E80020FFE2CF3091F300F7
:101500002091F200009719F02830310558F041E0A1
:101510002830310509F040E02091E8002E77209333
:10152000E800CECF41914093F10001972F5F3F4FEC
:10153000E9CF8091EC06882341F0853041F080911D
:10154000E80083FFC1CF81E0089582E0089583E041
:1015500008958091380287FF13C08091E80082FFD0
:1015600006C08091E8008B778093E80004C08091EA
:10157000EC068111F2CF08958091EC068823D9F30F
:101580008091E80080FFF8CF8091E8008E77ECCF63
:101590002091E4003091E50095E6A9012091EC004E
:1015A000822F817020FF06C08091E80080FF06C076
:1015B00080E008952091E80022FD1AC08091EC0699
:1015C000882389F0853089F08091EB0085FD0FC07C
:1015D0002091E4003091E50042175307F9F2915051
:1015E000E1F684E0089582E0089583E0089581E0C3
:1015F0000895E8EDF0E080818E7F80831092E20014
:101600001092DA001092E100A0EEB0E08C918160BF
:101610008C9380818F77808319BCA7EDB0E08C918B
:101620008E7F8C9380818F7E808310923702089505
:10163000EF92FF920F931F93CF937C018B010E9437
:10164000C80AC82F811117C08091E80085FD0BC022
:101650008091E8008E778093E8000E94C80A882372
:1016600099F3C82F08C0F70181917F018093F100A1
:101670000150110949F78C2FCF911F910F91FF90C5
:10168000EF900895CF93DF9300D000D0CDB7DEB7B1
:101690008091E4029091E502A091E602B091E70208
:1016A000AC01BD0146705527662777279C0146305F
:1016B00051056105710591F4AD01286029833A83D4
:1016C0004B835C8369817A818B819C810F900F9021
:1016D0000F900F90DF91CF910C94DD08AD01277F23
:1016E000EDCF982F9093E900242F762F50E08917A3
:1016F00031F07091EC002091ED005091F00021FD4F
:1017000006C09F5F973071F78093E900089530918C
:10171000EB003E7F3093EB003091ED003D7F309346
:10172000ED003091EB0031603093EB007093EC00F2
:101730002093ED005093F0002091EE0027FDE1CFC3
:101740000895CF92DF92EF92FF920F931F93CF9362
:10175000DF93C8EDD0E088818F7E8883E7EDF0E0ED
:1017600080818160808384E082BF81E08093370242
:1017700088818E7F888302EE10E0F801108210923B
:10178000DA0081EEC82ED12CF601108288818F7785
:10179000888388818068888388818F7D888319BC4D
:1017A0001092EC061092360210927A0210923502D4
:1017B00090EEE92EF12CF70180818B7F8083888168
:1017C0008160888342E060E080E00E94710BF60156
:1017D00080818E7F8083F801808181608083808119
:1017E00088608083F70180818E7F8083888180611B
:1017F0008883DF91CF911F910F91FF90EF90DF9041
:10180000CF9008958091ED06811110C08091D8008D
:1018100080618093D8008AE18A95F1F700C08091B9
:10182000D90080FF0AC081E08093ED0681E09091AD
:10183000ED06913009F080E0089582E08093ED0696
:101840000E94F90A1092EC06F1CF60911B01809181
:10185000E70680FF20C080911A0143E0849FC00109
:101860001124845C994F539A2BB1277F3BB1386088
:101870005FB7F894FC01649FE00DF11D1124BF01D6
:1018800068177907D1F45FBF8FE594E00197F1F70E
:1018900000C00000089580911C0190911D0123E07B
:1018A000829FF0011124E45CF94F8917A0F61182A0
:1018B000108212828F5F3396F8CFFC014191CF01E5
:1018C000E8E03BB9000000C047FF2BB9440F00001F
:1018D00000C000C000C02BB900C0EA9591F7D0CF7E
:1018E000E7EEF6E080818E7F80830E946307E4EE5E
:1018F000F6E08281816082832FEF80E792E02150C1
:1019000080409040E1F700C000000C94250C9091BD
:10191000E70690FF14C090911C0120911D0133E057
:10192000939FF0011124E45CF94F921710F00C948E
:10193000250C8183608342839F5F3396F6CF0895A1
:10194000CF93DF9300D00F92CDB7DEB79091E7062B
:1019500090FF0FC09E012F5F3F4F0E94B4064B8146
:1019600069818A810F900F900F90DF91CF910C9435
:10197000870C0F900F900F90DF91CF910895CF9328
:10198000DF93EC01EC81F0E0E85EF54F4491E7EE87
:10199000F6E0628181810E94A00C8C818F5F8C8334
:1019A000DF91CF910895CF93DF93EC01E7EEF6E05E
:1019B000438162818C810E94A00C8C818F5F8C831B
:1019C000DF91CF9108950F931F93CF93DF9300D0B2
:1019D0000F92CDB7DEB78C018091390681110AC014
:1019E0009E012F5F3F4F48E76FEF0E94B4068A8148
:1019F00080933906F8016481613049F06230F1F07A
:101A00008091390640E0662331F040E019C06091D2
:101A1000390640E080E00E94870CF801848190E064
:101A2000019663E070E00E94FE3084830F900F9077
:101A30000F90DF91CF911F910F910895409139063A
:101A400080E060E0E8CFEF92FF921F93CF93DF93A7
:101A5000EC0110E0EE24EA94F12C60911E011617BF
:101A600070F00E94250C9A818C8190FF25C08F5FB9
:101A70008C83DF91CF911F91FF90EF90089580911B
:101A80001C01810F9927991F9C01220F331F280FDA
:101A9000391F245C394F70E0C7010E94FE30962F39
:101AA0008C814091EA066091E906199F800D11240E
:101AB0000E94B4061F5FD1CF8150DACF9F92AF92C0
:101AC000BF92CF92DF92EF92FF920F931F93CF932B
:101AD000DF93EC018A81BB24BA9480FD02C0BB2451
:101AE000B3948C81A0901E01811109C091E0B912BC
:101AF00002C08FEF8A0D80933B0681E08C83F12C2E
:101B0000E12CEA14F0F00E94250C90913B06E1E0F4
:101B1000BE1259C080911E018150992319F08FEF98
:101B2000890F91E080933B069C83DF91CF911F91B9
:101B30000F91FF90EF90DF90CF90BF90AF909F906C
:101B4000089580911C018E0D9F2D911D8C01000F19
:101B5000111F080F191F045C194FF8011182108220
:101B6000128234E0C32ED12C912C80913B06890D3A
:101B700087332CF166E30E94DC30892F082E000C9D
:101B8000990B8E159F0591F48091EA068C9DA0011A
:101B90008D9D500D11245595479555954795980164
:101BA0006091E9068091E8060E94B4069B0CF1E082
:101BB000CF1AD108D1F68FEFE81AF80AA2CF87FF23
:101BC000DDCF8A0DDBCF892F90E0019660911E0159
:101BD00070E00E94FE30982FA5CFFF920F931F93C5
:101BE000CF93DF93EC018C81811109C081E08C835C
:101BF00010923A0692E09093190180931801109187
:101C00001C0190911D0183E0189FF0011124E45CF8
:101C1000F94F812F891768F100E093E0F92E609168
:101C20001E01061760F10E94250C80911801209179
:101C30003A06280F20933A0690911901980F909335
:101C40001901191654F4022E000C330B40911E0199
:101C50004150550B2417350734F0819580931801B6
:101C6000813009F41C82DF91CF911F910F91FF9079
:101C700008951182108212828F5F3396CBCFE02FAE
:101C8000F0E070E0CF010E94FE30810F482F50E05D
:101C900020913A06022E000C330BE217F307BCF03A
:101CA00020911901022E000C330B2E173F077CF0F8
:101CB0008F9D90011124245C394F4091EA06609178
:101CC000E9068091E8060E94B4060F5FA8CFFA01EA
:101CD000EE0FFF1FE40FF51FE45CF94F1182108235
:101CE0001282F3CFEF92FF920F931F93CF93DF9364
:101CF000CDB7DEB72E970FB6F894DEBF0FBECDBFBF
:101D00008D879E87AD85BE8514961C91212F30E06E
:101D1000D9010E9443359B01AC010E940E356983B5
:101D20007A838B839C83E0E2F0E0E11BF109A5E577
:101D3000B0E09B01AC010E940E3569877A878B87E2
:101D40009C879F01DF010E941F319B01AC010E9413
:101D500019356D837E838F8398879B01AC018981C0
:101D60009A81AB81BC81280F391F4A1F5B1F69858F
:101D70007A858B859C850E942135F22E422F50E07A
:101D800099E29F1588F1A3E02A9F900111243595CF
:101D90002795122F109500E085E5E82EEF18809129
:101DA0001E01081778F10E94250CED85FE859481AF
:101DB00081E0992319F0903219F48FEF8093170185
:101DC00080911701890FAD85BE8514968C932E9650
:101DD0000FB6F894DEBF0FBECDBFDF91CF911F913C
:101DE0000F91FF90EF90089585E590E0841B950B8F
:101DF0009C01220F331F280F391F37FFC8CF2F5FD9
:101E00003F4FC5CF8E2D01FD8F2D40911C01400FFE
:101E10005527551F9A01220F331F240F351F245CAD
:101E2000394F412F6091E9060E94B4060F5FB7CF8A
:101E30000F931F93CF93DF93EC0110E000E090919C
:101E40001E019017110609F06CF40E94250C8C817C
:101E500090E00196817099278C83DF91CF911F913B
:101E60000F91089580911C01A801480F511D9A01FE
:101E7000220F331F240F351F245C394F4C81609192
:101E8000E9068091E80696959017110651F04CF0FE
:101E9000442349F04091EA060E94B4060F5F1F4FA9
:101EA000CECF4423B9F340E0F7CF0F931F93CF93E6
:101EB000C82F10E000E0893311F400E510E08C2F0A
:101EC0000E94A1090115110531F48C2FCF911F91AA
:101ED0000F910C9481088FE99FE00197F1F700C002
:101EE000000001501109EECFCF93DF93D82FC92FF7
:101EF000809116018823C1F18091040787FF34C0C7
:101F000060E284E08093E9008FEF9091E8008150D7
:101F100095FD06C095ED9A95F1F700008111F5CF7A
:101F20008091E80085FF1DC08091160170E050E0AF
:101F300040E0811104C050E040E068E070E08D2F87
:101F40009C2F0E94180B8091E8008E778093E80008
:101F500080E2ED2FFC2FABE7B2E001900D928A9565
:101F6000E1F7DF91CF91089568E081E0CBCFCF9387
:101F7000DF9300D00F92CDB7DEB79091EC0694308E
:101F800011F589836A837B839093E9008FEF9091A9
:101F9000E800815095FD06C095ED9A95F1F7000097
:101FA0008111F5CF8091E80085FF0DC050E040E041
:101FB00063E070E0CE0101960E94180B8091E8006A
:101FC0008E778093E8000F900F900F90DF91CF9164
:101FD0000895BC0183E00C94B70FBC0184E00C941D
:101FE000B70F0F931F93CF93DF938B01D82FC92F78
:101FF0000E944D07A8016D2F7C2F88E090E0DF91B3
:10200000CF911F910F910C94CD34E7EEF6E083E170
:10201000808311828FEF828388E783831482E4EECA
:10202000F6E082818360828363E170E08FEF98E75E
:102030000C94F10FCF93DF9300D000D0CDB7DEB773
:102040008091EB06833018F48F5F8093EB068091CC
:10205000E7069091E806A091E906B091EA06898327
:102060009A83AB83BC83BC01CD010F900F900F907E
:102070000F90DF91CF910C94F10FCF93DF9300D0AD
:1020800000D0CDB7DEB78091EB06882319F08150E0
:102090008093EB068091E7069091E806A091E9060F
:1020A000B091EA0689839A83AB83BC83BC01CD01DE
:1020B0000F900F900F900F90DF91CF910C94F10F34
:1020C000AF92BF92CF92DF92EF92FF920F931F9346
:1020D000CF93DF9300D000D000D00F92CDB7DEB702
:1020E000182FF62E042FD22E9091E70690FF96C05F
:1020F000E92FE695AE2FB0E0AE55BE4F8C918093A0
:10210000E4069E7F923009F045C09E012F5F3F4F4D
:10211000812F0E94B4064B8169818A810E94870CBD
:102120008091E806811308C08091E9068F1104C0F0
:102130008091EA06801729F08091E60682608093FC
:10214000E6061093E806F092E9060093EA06DD2021
:1021500009F464C08091E7069091E806A091E90631
:10216000B091EA068C839D83AE83BF83BC01CD0111
:1021700027960FB6F894DEBF0FBECDBFDF91CF918B
:102180001F910F91FF90EF90DF90CF90BF90AF9095
:102190000C94F10F823019F40091EA06C1CF863019
:1021A00019F41091E806BCCF8930D9F3893109F0D0
:1021B000B7CFE9518E2F8170C82EE695F0E0E85E2A
:1021C000F44FA590B490E12CBB2460911E01E6165B
:1021D00018F00E94250CA4CF2E2D30E0EA9CC001FF
:1021E000EB9C900D112470E00E94EA30812FC11009
:1021F00013C0860F90911C01A901490F511D9A012E
:10220000220F331F240F351F245C394F402F6F2DB1
:102210000E94B406E394D9CF861BECCF27960FB665
:10222000F894DEBF0FBECDBFDF91CF911F910F910C
:10223000FF90EF90DF90CF90BF90AF900895E7EEC2
:10224000F6E0818121E043816281865F0C94601019
:10225000E7EEF6E0818121E0438162818A500C94AF
:102260006010E7EEF6E0628121E1620F08F46FEFA3
:1022700021E0438181810C946010E7EEF6E06281F9
:1022800021E1621B08F460E021E0438181810C942C
:102290006010E7EEF6E0438121E1420F08F44FEFD2
:1022A00021E0628181810C946010E7EEF6E04381C9
:1022B00021E1421B08F440E021E0628181810C941D
:1022C00060104F925F926F927F928F929F92AF9227
:1022D000BF92CF92DF92EF92FF920F931F93CF9313
:1022E000DF93FC016280448081E08483E8E1FAE0CE
:1022F0007490E7E9FAE0E491812C75E0972EF2E022
:10230000CF2EDD24D394AA24AA94B12C55245A9418
:10231000E7190E2F10E080911E01881690F0DF91D2
:10232000CF911F910F91FF90EF90DF90CF90BF90D2
:10233000AF909F908F907F906F905F904F900C9494
:10234000250CE82CF12C82E0861568F09E9CF001AB
:102350009F9CF00D1124E55DFA4F8091E806808383
:102360008091E9068183411023C09E9CF0019F9CCF
:10237000F00D1124E55DFA4F1382128280911C0149
:102380008E0D9F2D911D9C01220F331F280F391F89
:10239000245C394F9E9CF0019F9CF00D1124E55D5B
:1023A000FA4F4281618180810E94B4068394B3CF49
:1023B0009E9CE0019F9CD00D1124C55DDA4F8B815E
:1023C0008823E9F081508B83859DC00111246C81A5
:1023D00070E00E94EA30FB01FF27E85EF54F849130
:1023E000E82FE719E59DC0011124B8010E94EA30E9
:1023F0008091EA06689FB00111247A83BFCF0E94C2
:10240000CD31AC019091EA06969591589C9D900132
:102410009D9D300D1124232F3327421753070CF0B5
:10242000ADCF82E0861588F40E94CD31B5010E94BF
:10243000FE3088830E94CD312091E9062695622FD7
:1024400070E00E94FE30280F29839E9CF0019F9C23
:10245000F00D1124E55DFA4F12828091EA06893C65
:1024600058F088EC9E9CF0019F9CF00D1124E55DD6
:10247000FA4F8483838382CF8431A0F784E1F2CF43
:102480000F931F93CF93DF93C42FD0E0CC0FDD1FAA
:102490002CE0629FC00DD11D112430E6839FC00D3A
:1024A000D11D1124CE0187960E94A734082F10E079
:1024B000102F0027CE0188960E94A7349801282B60
:1024C000C901DF91CF911F910F910895462F672F7A
:1024D000843030F4783020F4463010F40C944012FC
:1024E00090E080E00895CF93DF930E946612EC01A4
:1024F000803E910509F45EC048F58133910509F4E9
:10250000A1C088F48932910509F495C08A9709F42D
:10251000A0C0C130D10529F1CE010497813A9105BF
:1025200008F054C01EC089339105E9F18238910545
:10253000D1F1C59709F478C0C83AD10508F090C028
:10254000C53AD10530F3A497D0640BC0843E910501
:1025500009F44FC050F4823E9105D9F1833E9105B4
:10256000E9F1CE01DF91CF910895863E910509F4FE
:102570004BC0873E910509F44CC0811523E59207B5
:1025800008F08BC0811532E5930708F0FDC0C11536
:1025900080E5D80708F077C0C11520E4D20760F2C3
:1025A000DF70D06ADECF809104078370D1F2C0EE75
:1025B000D0E0D7CF8091040780FD11C1909105072D
:1025C00090FFCFCFC3EED0E084FFCBCFD0E0C0E010
:1025D000C8CF8091040782FDF5CFC3CF8091040757
:1025E00082FD00C19091050790FDE1CF84FFB9CF36
:1025F000EDCF8091050781FFB4CF80910407C7EE2E
:10260000D0E084FDE3CFADCF8091040783FDF7CF09
:10261000A8CF8091040783FDE8C09091050791FF42
:10262000E5CFC4EED0E09DCF8091040785FF99CF20
:10263000C9E2D0E096CF8091040785FF92CFC5E331
:10264000D0E08FCF8091040786FF8BCFCAE2D0E025
:1026500088CF8091040786FF84CFC1E3D0E081CF8B
:10266000CF3BD10508F468C0C83ED10528F4C03E70
:10267000D10508F4ABCF75CFCE019A9581159F4156
:1026800008F0A4CF6ECFC11581E5D80708F45FC06C
:10269000DC2FCC27C16FD06A64CF811529E5920762
:1026A000A0F5811538E5930708F086C0C11585E5CA
:1026B000D807C8F4C11524E5D20708F078C09E01F8
:1026C0002370332781E090E002C0880F991F2A957C
:1026D000E2F7C695C69530E2C39FE0011124C82BEE
:1026E000D92BDA683ECFCE0195558F3F910511F079
:1026F00008F06CCF8C2F0E945806C82FD0E0DC2F3A
:10270000CC27CC27DF71D0622CCFC1158AE5D80742
:1027100008F457C0CE0190568115904208F056CF6C
:102720008D2F8F710E94580690E0982F8827882758
:102730009F718C2BEC01E7CFC85AD0E0CC0FDD1F86
:10274000C552DE4F0990D881C02DD4640ACF9E01B6
:1027500074E0369527957A95E1F723708C2F86954E
:102760008695837030E2839FC0011124922BC37041
:1027700021E030E002C0220F331FCA95E2F7822B1E
:10278000932BEC01DC68EDCE9C012370332781E0B4
:1027900090E002C0880F991F2A95E2F7C695C6956A
:1027A00020E2C29FE0011124C82BD92BEBCFDC2FF4
:1027B000CC27C46FD06AD5CED82FCC27C06FD06AB3
:1027C000D0CE8C2F8F700E94580634E0D695C795D6
:1027D0003A95E1F7CF709C2FEC01D069C2CEC9E3E6
:1027E000D0E0BFCEC2EED0E0BCCEC6EED0E0B9CED7
:1027F000BF92CF92DF92EF92FF920F931F93CF93EE
:10280000DF938C01C090E402D090E502E090E602F4
:10281000F090E7028091E0029091E102A091E20243
:10282000B091E302C82AD92AEA2AFB2ACFE1D0E0F4
:10283000BC2ED701C6010C2E04C0B695A79597955E
:1028400087950A94D2F780FD0EC0219788F7B12CA6
:102850008B2DDF91CF911F910F91FF90EF90DF9023
:10286000CF90BF900895B8018C2F0E9473120197EA
:1028700061F3EECF0F931F93CF93FC018281008110
:102880001181882389F0662379F0C8010E94F8132A
:10289000C82F682FC8010E94B207B8018C2FCF91B2
:1028A0001F910F910C946612C8010E94E007C82F77
:1028B000F4CFCF93DF93D82FC92F0E94F8136D2F39
:1028C0007C2FDF91CF910C9473120E945914282F02
:1028D000892F8F70392F32953F70903C80F43A30B9
:1028E000B0F4343020F4323090F480E00895363083
:1028F000E1F781E0283E88F0213FB9F70EC03C3077
:1029000011F03F3091F7869586958695089581E080
:10291000203F39F018F4283E40F70895243F29F766
:10292000FCCF0895CF9384E090E00E94A734C82F95
:1029300082E290E00E94A734982F8C2FCF910895C7
:102940004F925F926F927F928F929F92AF92BF92BF
:10295000CF92DF92EF92FF920F931F93CF93DF936B
:1029600010E000E030E6632E712CE801CC0FDD1F93
:1029700058011CC0F60185909490692DC7010E94F2
:10298000BB34682DC70101960E94BB3422E0C20E01
:10299000D11C32E0E30EF11C4E145F0459F72C9663
:1029A00086E0A80EB11CC615D70581F0C501880FB9
:1029B000991F9C012856374F69017E0137E2E30ECB
:1029C000F11C2E0183E3480E511CD4CF3E0120E6BA
:1029D000620E711C005D1F4F003C110531F6DF9146
:1029E000CF911F910F91FF90EF90DF90CF90BF900C
:1029F000AF909F908F907F906F905F904F900895D1
:102A0000CF93DF93C7EAD1E060E0CE010E94BB34F0
:102A10002196C11584E0D807B9F7DF91CF910895C9
:102A2000CF93C0910507C2FB992790F9981781F0C1
:102A300080FBC2F9C09305076091040784E090E031
:102A40000E94BB346C2F82E290E0CF910C94BB3497
:102A5000CF9108951092DE0280911601EEE0F2E02F
:102A6000882359F08091040787FF07C08EE1DF01BA
:102A70001D928A95E9F70C94C50886E0F8CF1F935C
:102A8000CF93DF93CDB7DEB7AA970FB6F894DEBF2A
:102A90000FBECDBF88E392E0FC0101962091F100CA
:102AA000208322E080349207B9F78091390289307F
:102AB00009F456C0C8F4823009F4B2C0833009F476
:102AC00081C0813071F18091E80083FF81C28091E3
:102AD0003802909139029A3008F07AC2E92FF0E07A
:102AE000EC5AFA4C0C9412318A3009F488C08B30BD
:102AF00051F780913802813231F780913C029091F8
:102B00003D02892B01F78091E800877F8093E800E0
:102B10000E94A90A80913A02809316010E942A1508
:102B2000D2CF80913802813A71F68091E800877F98
:102B30008093E80080913C0290913D02892B61F4E2
:102B400060E28BE792E070E00E944F0A8091E8001B
:102B50008B778093E800B7CF60E090E080E0F3CF20
:102B600080913802813209F0AECF80913C02909181
:102B70003D028D7F892B09F0A6CF8091E800877FE9
:102B80008093E8008091E80082FF17C09091F300E5
:102B90008091F200029729F48091F1008B7F8130BF
:102BA00021F48091F10080939B028091E8008B7763
:102BB0008093E8000E94A90A86CF8091EC068111DB
:102BC000E1CF81CF80913802813A09F07CCF8091AA
:102BD0003C0290913D02892B09F075CF8091E8006D
:102BE000877F8093E8008091E80080FFFCCF809190
:102BF00016018093F1008091E8008E77D9CF809103
:102C00003802813209F05FCF8091E800877F80939E
:102C1000E8000E94A90A80913B028093340253CFBE
:102C200080913802813A09F04ECF8091E800877F89
:102C30008093E8008091E80080FFFCCF809134020F
:102C4000D8CF803899F0823809F0C2C180913C0217
:102C50008F70873008F0BCC18093E9008091EB0051
:102C600085FB882780F91092E90006C08091350223
:102C700090917A02911182609091E800977F9093F1
:102C8000E8008093F1001092F1008091E8008E77C7
:102C90009BC1882309F489C1823009F099C18091D0
:102CA0003A0281118CC180913C028F702FEF280F66
:102CB000263008F08DC18093E9002091EB0020FFC1
:102CC0007EC1933031F48091EB0080628093EB0001
:102CD00076C19091EB0090619093EB0021E030E0A1
:102CE00001C0220F8A95EAF72093EA001092EA00C9
:102CF0008091EB008860EACF81116AC110913A029D
:102D00001F778091E3008078812B8093E30080918E
:102D1000E800877F8093E8000E94A90A8091E8007C
:102D200080FFFCCF8091E30080688093E30082E025
:102D3000111183E08093EC064BC18058823008F07B
:102D400047C140913A0250913B024C3D83E0580705
:102D500099F583E08A838AE289834FB7F894DE018C
:102D6000139620E03EE051E2E32FF0E0509357004D
:102D7000849120FF03C082958F703F5F8F708A30EF
:102D8000C8F0895C90E08D939D932F5F243161F7AB
:102D90004FBF8091E800877F8093E8006AE270E08F
:102DA000CE0101960E944F0A8091E8008B778093B4
:102DB000E8000EC1805DE6CF80913C0290913D021B
:102DC000252F33272330310509F44AC078F5213007
:102DD000310509F479C08BE590E0EDEBF6E02230A7
:102DE000310509F0F5C02091E800277F2093E80025
:102DF00020913E0230913F028217930708F49C0114
:102E000040E02115310509F064C0411162C0809194
:102E1000E80082FDC9CF8091EC06882329F2853035
:102E200019F28091E80083FFF2CFBECF2132310545
:102E300009F43BC02232310509F0CAC08330910544
:102E400008F0C6C0FC01EE0FFF1FEE5AFE4F0190C6
:102E5000F081E02D815B9E4FDC018C9190E011C0F0
:102E6000CA019927413089F082309105B1F0892B50
:102E700009F0AEC0EAE4F7E0E4918E2F90E0EAE4D6
:102E8000F7E0009709F4A4C0AECFE8E3F7E0E491DF
:102E90008E2F90E0E8E3F7E0F4CFEAE2F7E0E49188
:102EA0008E2F90E0EAE2F7E0ECCF8330910508F056
:102EB0008FC0880F991FFC01E85AFE4F0190F081E6
:102EC000E02D89E090E08FCF82E190E0E8E1F7E04B
:102ED0008ACF8091EC06882309F466CF853009F407
:102EE00063CF8091E80083FD5FCF8091E80082FD91
:102EF0008ECF8091E80080FF84CF9091F300809185
:102F0000F2002115310519F08830910550F041E0AB
:102F1000089709F040E08091E8008E778093E80000
:102F200070CF44914093F1003196215031090196C0
:102F3000E8CF803809F04CC08091E800877F80930B
:102F4000E800809136028093F1009FCE811140C04D
:102F500010913A021230E0F58091E800877F80936B
:102F6000E800109336020E94A90A112311F084E0B0
:102F700005C08091E30087FDFACF81E08093EC06E5
:102F800042E061EC81E00E94710B42E261EC84E07E
:102F90000E94710B42E261EC82E00E94710B42E2FE
:102FA00060EC83E00E94710B13C080913A02813083
:102FB00079F481E0933009F080E080937A021092F6
:102FC000E9008091E800877F8093E8000E94A90AC9
:102FD0008091E80083FF0AC08091E800877F80939A
:102FE000E8008091EB0080628093EB00AA960FB618
:102FF000F894DEBF0FBECDBFDF91CF911F91089532
:103000006AEE7EEF90E080E00E94D93460E082E0DA
:1030100090E00E94BB3460E083E090E00E94BB340B
:103020001092E0021092E1021092E2021092E3028A
:1030300060E084E090E00E94BB3460E082E290E0D7
:103040000E94BB3460E085E090E00E94BB3460E009
:1030500086E090E00E94BB346FEF87E090E00E9432
:10306000BB3440E050E0BA0188E090E00E94CD34EB
:1030700060E08DE090E00E94BB3440E050E0BA0197
:1030800088E190E00E94CD3460E087E190E00E940A
:10309000BB3440E050E0BA018CE190E00E94CD34B6
:1030A00070E060E080E290E00E94D93440E050E0BF
:1030B000BA0188E190E00E94CD3440E050E0BA01CE
:1030C0008FE090E00E94CD3440E050E0BA0183E10F
:1030D00090E00C94CD34CF92DF92EF92FF920F9359
:1030E0001F93CF93DF936C017B0164E670E088E768
:1030F0000E941F2EEC018601EC0CFD1C97FD0EC0FA
:10310000F801849164E670E00E947B2EEC01892B2B
:1031100029F40F5F1F4FE016F10691F70E94082F68
:10312000CE01DF91CF911F910F91FF90EF90DF9033
:10313000CF900895CF93DF9300D000D0CDB7DEB706
:1031400080916F028823F9F00E940B0ADC01CB0109
:10315000805A9541AF4FBF4F8093680290936902A8
:10316000A0936A02B0936B0280916C0281110BC034
:1031700062E070E08BE791E00E946B18892B19F4F4
:1031800081E080936C020F900F900F900F90DF9171
:10319000CF910895CF93DF93682F81E06A3019F0C3
:1031A0006D3029F480E0DF91CF910C944B19809120
:1031B000290590912A0526E0FC01AEE2B2E00190DB
:1031C0000D922A95E1F7603E08F45AC026E0FC0112
:1031D00011922A95E9F7C0912905D0912A0546E078
:1031E00050E0BE018EE292E00E94F3319E0129522E
:1031F0003340892B41F1C90145E0969587954A9561
:10320000E1F741E050E0BA0102C0660F771F8A95EE
:10321000E2F7CB016091660270916702862B972BD3
:10322000B9016B5F7F4FE5E076956795EA95E1F729
:1032300002C0440F551F6A95E2F7842B952B90939B
:103240006702809366022A5F3F4F40912803642FF4
:1032500070E0C9010E94EA30481B463010F4240F88
:10326000311D211572E0370710F030E020E0275DB6
:103270003C4F30932A0520932905DF91CF91089583
:10328000F6E06F9FB001112463587E4F46E050E096
:103290000E94DD31A0CFCF93E82F209129053091F6
:1032A0002A052952334040912803642F70E0C90158
:1032B0000E94EA30481B842FEE2361F066E00E94F2
:1032C000D030C82FC15010F4CF91089580E20E94F1
:1032D000CA18F8CFA901480F511D4115524018F0E6
:1032E00080E030E020E0280F311D275D3C4F309317
:1032F0002A0520932905E8CFCF93DF93EC01FE0147
:103300008491811103C0DF91CF9108950E94CA1862
:103310002196F5CF8091E60608951092E60608956D
:10332000CF93DF93EC0185E0E7EEF6E0DE0101905C
:103330000D928A95E1F78091E4069091E506A091BF
:10334000E6068D839E83AF83DF91CF9108951F9210
:103350001FB61F9211248F939F93AF93BF938091B9
:10336000A402811113C08091A0029091A102A091AA
:10337000A202B091A3024196A11DB11D8093A002AB
:103380009093A102A093A202B093A302BF91AF9128
:103390009F918F911F901FBE1F9018952FB7F89483
:1033A0008091A0029091A102A091A202B091A302EB
:1033B0002FBF0895AF92BF92CF92DF92EF92FF920C
:1033C0000F931F93CF93DF9300D000D0CDB7DEB71C
:1033D0008DECE82E81E0F82E9CEFA92E96E0B92E18
:1033E00000E0CC24C394D12CD7018D917D01F894B9
:1033F000E82FE295EF70F0E021A18F70A60102C0E6
:10340000440F551F8A95E2F7CA01922F982B91A37A
:1034100092A18095892382A3789400C0E5EDF1E024
:1034200030E020E010E04191A42FA295AF70A05EA3
:10343000B0E08C9190E04F7002C0959587954A95C9
:10344000E2F780FD47C08C2D022E01C0880F0A9440
:10345000EAF7182B2F5F3F4F2630310521F7F70190
:10346000319780810E949B0650EA5A95F1F7D50169
:103470008D915D01181781F1FD013197108381E075
:10348000082BB1EDEB16B1E0FB0609F0ADCF1091C2
:10349000FB06002319F181E08093F0060E94CE190B
:1034A0009093EF068093EE068091EE069091EF06E2
:1034B0000E942B0A0697B0F0A12FB0E0AD50B94F93
:1034C00084E0ECEFF6E001900D928A95E1F710921E
:1034D000F00608C080E0BDCF80E0D2CF8091F0063A
:1034E0008111E2CF0E94020C182F6091FB06882305
:1034F00009F453C01A8219821C821B82862F90E025
:10350000BE016F5F7F4F8D50994F0E94B02D81118A
:1035100024C08091F2068F5F8093F2068630D8F146
:10352000E091F106F0E0ED50F94F84E0DF011D92EB
:103530008A95E9F7011101C0012F802F0F900F909C
:103540000F900F90DF91CF911F910F91FF90EF900F
:10355000DF90CF90BF90AF9008951092F206E09167
:10356000F106F0E0BF016D50794FDE0111969E012A
:103570002B5F3F4F10E0FB014191BF019D91491727
:1035800031F0AF0141505109FA019083182FA21771
:10359000B30789F7CFCF10E0CDCF70E06D50794FF2
:1035A0008091F10690E08D50994F0E94E82DC2CF96
:1035B000FF920F931F93CF93DF93C62FD42F122F19
:1035C0008823A9F06093DC020E94CE1990932D020B
:1035D00080932C02C77081E001C0880FCA95EAF77A
:1035E000DF91CF911F910F91FF900C94B0088091C3
:1035F000DC02681334C080912C0290912D020E944D
:103600002B0A883C910558F500E20D0FCD17A9F063
:10361000C770FF24F3948F2D01C0880FCA95EAF775
:103620000E94BA08083048F48D2F877001C0FF0C43
:103630008A95EAF78F2D0E94B008812F0E94550FBE
:103640000830A0F4D77081E001C0880FDA95EAF75E
:10365000DF91CF911F910F91FF900C94BA08C77022
:1036600081E001C0880FCA95EAF7F2CFDF91CF91D0
:103670001F910F91FF90089578941F921FB61F928B
:1036800011248F939F93AF93BF938091A002909149
:10369000A102A091A202B091A3020196A11DB11DA9
:1036A0008093A0029093A102A093A202B093A302E0
:1036B000BF91AF919F918F911F901FBE1F90189542
:1036C000CF92DF92EF92FF92CF93DF9300D000D0A2
:1036D000CDB7DEB76B017C010E94020C81110EC0D8
:1036E0000E940B0AC61AD70AE80AF90AC0929C027D
:1036F000D0929D02E0929E02F0929F020F900F9056
:103700000F900F90DF91CF91FF90EF90DF90CF90CF
:103710000895CF93DF9300D000D0CDB7DEB70E94DD
:10372000020C882341F00F900F900F900F90DF91C3
:10373000CF910C940B0A0E940B0A69837A838B83C6
:103740009C8380919C0290919D02A0919E02B091D9
:103750009F0229813A814B815C81280F391F4A1FC2
:103760005B1FCA01B9010F900F900F900F90DF916E
:10377000CF9108950E94020C81110C94CE190E94E1
:10378000891BCB0108956091E706669570E04BE0D8
:1037900050E08FE191E00E94E631892B19F481E03D
:1037A0008093E5060E94BA1B9093DF068093DE06A5
:1037B0008091E60684608093E6060895CF93DF93B8
:1037C00000D000D0CDB7DEB79091E70690FF4CC097
:1037D000882309F442C08B3208F041C08F77880FEC
:1037E0009091E7069170892B8093E7068091E60619
:1037F00081608093E606662381F08091E7069091D0
:10380000E806A091E906B091EA0689839A83AB8322
:10381000BC83BC01CD010E94F10F6091E706669563
:1038200070E04BE050E08FE191E00E94E631892B9F
:10383000C1F00E94630781E08093E10620E040919F
:10384000EA066091E9068091E8060F900F900F90CC
:103850000F90DF91CF910C94601081E0C0CF8AE28D
:10386000BECF0E94C31BE7CF0F900F900F900F9019
:10387000DF91CF9108958091E70686958F5F8B3217
:1038800008F081E061E00C94DE1B9091E7069695CC
:103890008FEF890F913009F48AE261E00C94DE1B0E
:1038A0009091E70690FF07C09695981720F096171D
:1038B00010F40C943B1C61E00C94DE1B3F924F9281
:1038C0005F926F927F928F929F92AF92BF92CF92B0
:1038D000DF92EF92FF920F931F93CF93DF93CDB7B9
:1038E000DEB72A970FB6F894DEBF0FBECDBF89872B
:1038F0009A87A985BA859C9111968C9111971396F8
:103900002D913C91232B21F089238F3F09F06AC62A
:103910002A960FB6F894DEBF0FBECDBFDF91CF91D0
:103920001F910F91FF90EF90DF90CF90BF90AF90DD
:103930009F908F907F906F905F904F903F900895F1
:10394000C70182519F45409708F0B6C58FEF93E0BD
:103950000E94A734BEEEEB0E47EA842E992493947E
:10396000882389F18091E802877091F2A985BA8550
:1039700012968C91882361F282E02A960FB6F89411
:10398000DEBF0FBECDBFDF91CF911F910F91FF9092
:10399000EF90DF90CF90BF90AF909F908F907F90EF
:1039A0006F905F904F903F900C944D098114E4E02C
:1039B0009E06C1F2C4010E94A734811101C0EA949D
:1039C000FFEF8F1A9F0AE110F1CF80913A01909199
:1039D0003B01A0913C01B0913D0189839A83AB8367
:1039E000BC83442443943AE0332E74010FEFE01A71
:1039F000F00AC4010E94A73489831A82882309F43B
:103A0000B1CF9FEF980F933010F58A83498212E06F
:103A1000810E911CC7010E94A7348B83882309F46F
:103A2000A1CF8E010F5F1F4FD8012C912223E9F205
:103A300011969C911197213009F045C012968C91F6
:103A4000913039F40E5F1F4F0E94550F08C0470197
:103A5000E8CF923039F40E5F1F4F0E94A1090F5F2B
:103A60001F4FE2CF933029F40E5F1F4F0E94810851
:103A7000F6CF943019F00F5F1F4FF1CF0E5F1F4F3D
:103A800020E030E0B8016F5F7F4FF8014181805343
:103A9000990B8A30910560F02115310501F38FE90A
:103AA0009FE00197F1F700C0000021503109F4CFE9
:103AB000329EF001339EF00D11249C012E0F3F1F0A
:103AC000842F8B01DFCFE22FF0E0E85EF74F5490B8
:103AD000822F86958695869590E0FC01E85FF74FEA
:103AE000E4912770F0E0022E02C0F595E7950A9464
:103AF000E2F73F01A1E06A227724FC01E850F84F89
:103B0000A490B12C022E02C0B594A7940A94E2F7B7
:103B1000B1E0AB22BB24FC01E851F84FC490D12C9A
:103B200002C0D594C7942A95E2F7E1E0CE22DD24C5
:103B30006114710419F081EE0E94A109A114B1046D
:103B400019F086EE0E94A109852D0E94550FAB2821
:103B500019F086EE0E948108672819F081EE0E9414
:103B60008108CD2809F47BCF8CE26ECF81E00E94E2
:103B7000E7080E94420BF6CE81E00E941809F9CFB7
:103B800082E0F5CFC701B6C425EFE2162CE5F206B8
:103B9000E1F027E245EE66EE36EFE3163CE5F3068C
:103BA00089F044EFE4164CE5F40609F0E8C427E296
:103BB00045EE64EE07C027E245EE65EE03C026E25F
:103BC00041EE60EE0E94D81ACDCE26E241EE62EEC2
:103BD000F9CF97012A5F3C452930310508F4E0C44C
:103BE000B6E1EB16BCE5FB0609F0BFC19091DE0221
:103BF000882309F4B9C0892F8A7A91E009F490E00A
:103C00009093DD0269E2811165E38CE092E00E940D
:103C10006B090E943C08A6CEF701E350FC45809159
:103C200004078160E331F105B8F4E25AFA4C0C94D0
:103C30001231C7018A5F9C45099708F0C3C4F70198
:103C4000EB5FFC45E830F10590F4EF58FA4C0C942A
:103C5000123180910407826080930407B3C480917D
:103C600004078460F9CF809104078860F5CF8091C4
:103C70000507816080930507A5C4809105078260D0
:103C8000F9CF809104078061E7CF809104078062BB
:103C9000E3CF809104078064DFCF0E942A158091D2
:103CA00004078068D9CF809104078C60D5CF8091BC
:103CB00005078360DFCF809104078E7FCDCF809191
:103CC00004078D7FC9CF809104078B7FC5CF80917A
:103CD0000407877FC1CF809105078E7FCBCF80916E
:103CE00005078D7FC7CF809104078F7EB5CF809168
:103CF00004078F7DB1CF809104078F7BADCF0E94E9
:103D00002A15809104078F77A7CF80910407837FBE
:103D1000A3CF809105078C7FADCF8091040782FBF4
:103D2000992790F921E0922790FB82F990FB83F983
:103D300093CF80910507982F909591708E7F892B56
:103D400090FB81F997CF0E942A1590910407892F43
:103D500097FB87F9805880CF61E08EE090E00E9469
:103D6000BB3430C460E0F9CF8091DD02811104C022
:103D700089E20E9409084DCF85E3FBCF6AE285E224
:103D80000DE5E016F00609F4D8C0E985FA858281D0
:103D9000C080D180882309F421C1C6010E94F81394
:103DA000F82E682FC6010E94B207B6018F2D0E941F
:103DB0007312182FF92EA985BA851296BC90129706
:103DC0001596AC900A2D02950F708091E8028770CD
:103DD000A1F0CB2CBB2091F0892F807F803421F083
:103DE00080E2810F883048F082E00E944D09809186
:103DF000E8028770CC24C3948111C12CDF2CD294AB
:103E00002FE0D222B8E0DB1609F4D6C1BD1508F4C4
:103E10002AC1E3E0ED1508F4E6C08F2D807FFF2D69
:103E2000FF70FF2E21E02D1508F030C1803219F00F
:103E3000F29480EFF822112309F463C1113009F4E0
:103E400083C1BB2009F48BC1002309F482C1A98579
:103E5000BA8515968C91159780FF2EC18F70159697
:103E60008C9377C18091E70680FF26C08E7F809378
:103E7000E7062091E7063091E8064091E906509167
:103E8000EA062D833E834F835887CA01B9010E94F9
:103E9000F10F0E9463078091E60681608093E60639
:103EA0003FEF40E752E0315040405040E1F700C062
:103EB00000000E94250C56CD81608093E70661E0EA
:103EC00086950E94DE1B4ECD45E45CE16BE37CE110
:103ED0000E946B0747CD4BE35CE165E47CE1F8CFE2
:103EE00048E251E16FE171E1F3CF4FE151E168E266
:103EF00071E1EECF4DE351E161E371E1E9CF41E3DF
:103F000051E16DE371E1E4CF45E551E169E471E12F
:103F1000DFCF49E451E165E571E1DACF4DE350E1EE
:103F20006AE170E1D5CF4AE150E16DE370E1D0CFB5
:103F300061E081E0C6CF65E082E00E94501C12CDB6
:103F400068E086E0FACF6EE089E0F7CF64E18FE0C9
:103F5000F4CF67E185E1F1CF61E088E1B2CF62E2C1
:103F600089E1EBCF61E083E2ACCF8AE5E8168DE52D
:103F7000F80681F168F4E114ACE5FA06F1F0BEED63
:103F8000EB16BCE5FB0609F000CF0E940018EACC56
:103F9000EBE5EE16EDE5FE06F9F0FCE5EF16FDE5C6
:103FA000FF0609F0F2CE8091050782FB882780F991
:103FB00091E089270E941015E8CE0E942A150FEF84
:103FC00014E32CE0015010402040E1F700C0000055
:103FD0000E943A0A81E0EECF80E0ECCFC6010E9459
:103FE000E007F82EE2CE34E0D31609F4C9C0AD2DB7
:103FF000A850BB0B149710F40E947007CC20B9F0A6
:104000008091E80280FD13C0E985FA8512828595CA
:10401000859585950E94E70889859A850E945E1C92
:104020008091E8028595859585950E94180960E044
:1040300089859A852A960FB6F894DEBF0FBECDBF4C
:10404000DF91CF911F910F91FF90EF90DF90CF9074
:10405000BF90AF909F908F907F906F905F904F90A8
:104060003F900C943A1449E0D41609F49FC186E0BD
:104070008D0D8F70823008F0BACF123F09F0A6C1C3
:104080008F2D8F71BB2009F4E4C19DC1882319F0E5
:10409000F29490EFF922BB20C9F0FF2069F080E292
:1040A000810F883010F011110BC08091DE028F2932
:1040B0008093DE020E943C08812F0E94A10997CFC5
:1040C0008091E9028F298093E902F4CF812F0E9429
:1040D0008108FF2009F48BCFF09480E2810F8830B3
:1040E00010F0111108C08091DE028F218093DE0252
:1040F0000E943C087CCF8091E9028F218093E902E5
:10410000F7CFBB20A9F09091DF028F2D892B0111F1
:1041100003C00E94B0086BCF0130D9F7209105078A
:1041200022FD65CF981709F462CF8093DF025FCF3D
:10413000011106C00E9436088F2D0E94BA0857CF81
:10414000013009F454CFF6CFBB2029F0063008F037
:104150004ECF8F2DDECF053008F049CFEDCF0023B5
:1041600059F3193349F4BFEFE7EEF3E0B150E04003
:10417000F040E1F700C00000812F0E94810837CF96
:104180008F2D86958695837069F0813009F02FCF49
:10419000812F9F2D9370B11002C090E080E00E94AB
:1041A000920725CF812F9F2D9370B11002C090E010
:1041B00080E00E947C071BCF8F2D837009F07AC0AE
:1041C000B11015CF212F229526952770220F220F8F
:1041D000412F4F7050E070E060E0022E04C0440FA9
:1041E000551F661F771F0A94D2F780E090E0DC012C
:1041F00014FF0FC08FE090E0A0E0B0E004C0880F93
:10420000991FAA1FBB1F2A95D2F780959095A0955C
:10421000B0952F2D269526952370223089F12330D5
:1042200009F441C08090E0029090E102A090E20287
:10423000B090E302213089F0842B952BA62BB72B6D
:104240008C019D01082119212A213B210D831E8308
:104250002F833887C901B80110C0842A952AA62A5D
:10426000B72AA5019401282B392B4A2B5B2B2D83D0
:104270003E834F835887CA01B9010E94D308B7CE45
:10428000842B952BA62BB72B4091E0025091E10295
:104290006091E2027091E3028C019D0104271527D1
:1042A00026273727D3CF8A019B01082B192B2A2BCE
:1042B0003B2BCCCFBB2009F44FC0F0FE98CE212F72
:1042C000229526952770220F220F412F4F7050E024
:1042D00070E060E0022E04C0440F551F661F771F78
:1042E0000A94D2F780E090E0DC0114FF0FC08FE069
:1042F00090E0A0E0B0E004C0880F991FAA1FBB1F88
:104300002A95D2F780959095A095B0952F2D26955A
:10431000269523702230A1F1233009F444C0809007
:10432000E4029090E502A090E602B090E70221300E
:10433000B1F0842B952BA62BB72B9C01AD01282126
:1043400039214A215B212D833E834F835887CA013F
:10435000B9010E94DD084BCEF1FE49CEB0CF842AD0
:10436000952AA62AB72A95018401082B192B2A2BF6
:104370003B2B0D831E832F833887C901B801E9CFFA
:10438000842B952BA62BB72B4091E4025091E5028C
:104390006091E6027091E7028C019D0104271527C8
:1043A00026273727E6CF8A019B01DFCF0F2D0F701D
:1043B000BB2029F0802F0E94E708812FAACE812FF1
:1043C0000E94BA08802F0E94180911CE133F60F492
:1043D000103F19F1113FC1F1BB2009F45DC001117B
:1043E0006BCE8F2D8F7135C0133FB1F1143FA1F704
:1043F000BB2009F447C01F2D1F71812F0E94E708C1
:104400008091050782FD07C028E0129FC00111249A
:1044100083608093E802812F1CC0BB2089F00530A7
:1044200008F0E5CD2F2D2F7181E090E0A0E0B0E005
:1044300004C0880F991FAA1FBB1F2A95D2F7A4CFCB
:10444000063008F0D4CDEECF8F2D8F71BB2009F44C
:10445000BACF0E94E708CBCD60E070E0CB01BB2073
:1044600009F477CF8F2D8F7141E050E060E070E06C
:104470008A019B0104C0000F111F221F331F8A9560
:10448000D2F777CF81E00E944D09023008F4AFCD1A
:1044900082E00E944D09ABCD002359F0193309F099
:1044A0006BCE3FEF47EE53E0315040405040E1F7D4
:1044B00061CE8F2D8F7187CFF0E1EF16FFE5FF06FC
:1044C00009F454CB01E1E0160FE5F00609F458CBEE
:1044D000A985BA854C9111963C91C70190568115DA
:1044E000B0E29B0728F0905E8115904108F04ACB1E
:1044F000C701992720E28C33910520F4FC01EA5989
:10450000FE4F20811F922F939F938F931F924F9363
:104510001F923F938EE391E09F938F931F9288E1C8
:104520008F9384EC92E09F938F930E9400320FB69A
:10453000F894DEBF0FBECDBFA985BA8512968C91C7
:10454000B3EFEB16BCE5FB0609F439CB08F01CCB46
:10455000F8EDEF16FCE5FF0609F42DCB28E241E06B
:1045600009EDE0160CE5F00609F427CB26E241EE52
:1045700061EE17EDE1161CE5F10609F423CB882363
:1045800009F44AC01092DC0256E1E5165CE5F50636
:1045900008F01FCB82E0E8168CE5F80608F4E5CCBD
:1045A0000E949214909305078093040796E1E91600
:1045B0009CE5F90608F03DCBA2E0EA16ACE5FA0668
:1045C00008F02ACB60910407F090050784E090E0A2
:1045D0000E94BB346F2D82E290E00E94BB340E94A7
:1045E0002A15C0C961E089859A850E943A147C0128
:1045F000A985BA8512968C918111A2C910E1E116A4
:104600001FE5F10609F4B8CA21E1E2162FE5F2062A
:1046100009F092CF82E0B1CAB6E1EB16BCE5FB0629
:1046200009F4E4CA8091DE028272E6EDEE16ECE552
:10463000FE0608F0A3CBF2ECEF16FCE5FF0608F44B
:10464000A4CBF701E35CFC45E331F10508F00ACCAB
:10465000E758FA4C0C9412311F93CF93DF9380915B
:104660002103807FA9F480911E03882389F0809123
:10467000EB02C091EA0270911C0360911D03A091AE
:104680001F03B0912003D62FD72316E0C81304C010
:10469000DF91CF911F91089590E0109711F0DF3FC7
:1046A00019F401968770F2CF189F9001199F300D71
:1046B0001124F901E451FD4F41816413F2CF40818F
:1046C0004713EFCF42814111ECCF438154814A1B04
:1046D0005B0B483C510528F7809121038F70806166
:1046E00080932103F901EF50FD4F80818F7080612D
:1046F00080838CE193E00E945E1CDF91CF911F913B
:104700000C94A8078F929F92AF92BF92DF92EF9284
:10471000FF920F931F93CF93DF93CDB7DEB72B9705
:104720000FB6F894DEBF0FBECDBF8C0185E0F80157
:10473000DE01179601900D928A95E1F7F801E2806B
:1047400030812181A380B4808CE1882E83E0982E73
:1047500080911C0390911D0340911F0350912003F1
:104760004115510529F0682F69236F3F09F01AC1DF
:10477000EE2009F425C18F8198850E946514F82EDA
:10478000882309F41DC186E0F801ACE1B3E0019093
:104790000D928A95E1F70E942C231EC0D090210330
:1047A0006D2D607F483C510508F0A3C06111BFC06A
:1047B000FE2C291324C0831322C0E11020C08D2DAC
:1047C0008F708061809321038CE193E00E945E1CD6
:1047D00080912103F80185838F2D2B960FB6F894D5
:1047E000DEBF0FBECDBFDF91CF911F910F91FF9024
:1047F000EF90DF90BF90AF909F908F900895AB287F
:1048000029F0822F83238F3F09F08EC080E0F82F9C
:10481000F170DF2EE091EB024091EA0256E080FD5C
:104820001CC0EE20C9F28091210381608093210396
:10483000F12CD2CF8E2F90E05E9FF0011124E45135
:10484000FD4F6181261306C06081361303C062816B
:104850006E11E7CF0196E82FE770E413EBCF8F815D
:1048600098850E945914292F22952F70903260F05C
:10487000225F2F70223078F49F7051F0F8019581FB
:10488000907F31F4D12C0AC09F7011F08823D1F3AE
:10489000805E8830B8F3C8010E945E1CFD2C9CCF5E
:1048A0008F8198850E946514882309F489C0EE20C1
:1048B00009F486C080912103803270F080911C033E
:1048C00090911D039A8389831B82BD82AC82DE8214
:1048D000CE0101960E945E1C86E0F801ACE1B3E0D7
:1048E00001900D928A95E1F70E942C23FF24F39406
:1048F00073CF611130C08CE193E00E945E1C86E0B2
:10490000F40111928A95E9F793CF8F8198850E94DF
:1049100065148111E1CF809121038160809321038F
:10492000C8010E945E1C58CF81E08E2570CF2913EC
:10493000B7CF8313B5CFE110B3CFF801D582C8014B
:104940000E945E1C86E0F801ACE1B3E001900D929C
:104950008A95E1F741CF2913A3CF8313A1CFE110AB
:104960009FCFF801D582C8010E945E1C86E0F40149
:1049700011928A95E9F730CF2913C7CF8313C5CF9A
:104980008091210380FDDECF982F907FD9F2F8012E
:104990008583903FA1F2982F907F905F8F70892B35
:1049A0008583CDCFF0901E03B501641B750BAB0161
:1049B000F110F4CE483C5105C8F6FE2CE110DCCFD6
:1049C000C8010E945E1C92CF1F93CF93DF93CDB797
:1049D000DEB767970FB6F894DEBF0FBECDBF4B8B27
:1049E0005C8B962F6D8B7E8B8F8B61111092E90201
:1049F0001A8A85E0FE017396DE011D9601900D92E4
:104A00008A95E1F79F8786E0FE013D96DE011796C5
:104A100001900D928A95E1F7CE0107960E948223BC
:104A2000882389F016E08091EB029091EA028913C5
:104A300049C067960FB6F894DEBF0FBECDBFDF91B9
:104A4000CF911F91089586E0FE013796DE01119601
:104A500001900D928A95E1F78F8198852091EA0265
:104A60004091EB026A857B85672BE1F289238F3FBA
:104A7000C9F230E0C90101968770992748171906D5
:104A800071F40E942A151092EA021092EB0286E05D
:104A9000ECE1F3E0DF011D928A95E9F7C3CF96E0E0
:104AA000929FD001939FB00D1124A451BD4FFE01E0
:104AB000319601900D929A95E1F78093EA020E9457
:104AC000A807B0CF819FC001112484519D4F0E943F
:104AD0008223882309F4ADCF8091EB0290E0019608
:104AE000877099278093EB029ECF1F93CF93DF931C
:104AF000EC01162F8F8180FF0BC0888180FF23C0BF
:104B00009091E70691609093E70686950E94DE1BE0
:104B10008F8181FF06C0212F4B816A8189810E948C
:104B200060108F8182FF05C08E81882379F00E94FA
:104B3000C31B8F8183FF03C081E08093E106DF9177
:104B4000CF911F9108950E94700CE2CF0E946307DD
:104B5000F0CFCDB7DEB7A4970FB6F894DEBF0FBE87
:104B6000CDBF84B7877F84BF0FB6F894A895809196
:104B70006000886180936000109260000FBE80E842
:104B800090E00FB6F89480936100909361000FBE9F
:104B900085B7806885BF85B7806885BF89E699E05D
:104BA00090930B0280930A020E94F90A0E94A10BC3
:104BB0008091E20084608093E20078948091EC061A
:104BC000882399F08091E9001091EC001795112746
:104BD00017958F70182B1092E9008091E80083FDE3
:104BE0000E943F151F701093E90082E084BD93E09E
:104BF00095BD9AEF97BD80936E0010929C02109223
:104C00009D0210929E0210929F020E94020C91E05F
:104C100089278093040180910401882309F486C0C8
:104C200080E080931A018BE180931B010E94020CAB
:104C300081110E94872D809104018091040191E0EF
:104C40008927880F880F8093FB0694E0981B909328
:104C5000F10684E90E949B0686E60E949B0687E98E
:104C60000E949B0686EC0E949B0684EF0E949B0696
:104C700085EF0E949B0686EF0E949B0687EF0E94AD
:104C80009B0681E30E949B0683E30E949B0688E0CB
:104C9000ECEFF6E0DF01282F1D922A95E9F7E3EF0C
:104CA000F6E0DF011D928A95E9F790E080E00E942E
:104CB000B5348A3E9E4F11F00E94001882E090E0C9
:104CC0000E94A734809371020E949214909305076A
:104CD000809304070E94DA19EFE3FCE93197F1F7BA
:104CE00000C000000E94DA190E94020C880F880F91
:104CF000E82FF0E0ED50F94F808181FF19C06FEF90
:104D000083E290E00E94BB346FEF84E290E00E9467
:104D1000BB346FEF85E290E00E94BB346FEF7FEF12
:104D200090E080E00E94D9340E943A0A8BE179CF6A
:104D300083E090E00E94A734282F30E050E040E06C
:104D400029A33AA34BA35CA3CA01B9010E94D308CB
:104D50000E94020C811102C00E948D2D83E290E01E
:104D60000E94A734813209F091C584E290E00E944C
:104D7000A734893009F08AC585E290E00E94A73403
:104D8000893109F083C50E94020C91E08927880FC0
:104D90008093640280E8809328030E94192E6DE0BE
:104DA00070E081E697E00E946B18892B09F043C000
:104DB0008091640263E070E081FDA8C18EE597E018
:104DC0000E946B18892BB9F56DE070E08EE497E0D6
:104DD0000E946B18892B79F50E940B0A69A37AA3AC
:104DE0008BA39CA3DC01CB01805A9541AF4FBF4FF1
:104DF0008093680290936902A0936A02B0936B0259
:104E0000E9E2F3E080E092E0DF019C011D92215095
:104E10003040E1F7F0932A05E09329058FEF9FEFEB
:104E2000909367028093660281E080936F02809383
:104E30006C02109265028091400281113BC090E0AB
:104E400080E00E94B5348A3E9E4F21F00E940018F7
:104E50000E94051088E090E00E94AF346093E7065E
:104E60007093E8068093E9069093EA068091E6063F
:104E700083608093E6066E7F71F40E94051088E0DF
:104E800090E00E94AF346093E7067093E806809349
:104E9000E9069093EA060E944D070E9463078091FD
:104EA000E70680FF04C060E086950E94DE1B81E07B
:104EB000809340028CE091E0909327038093260337
:104EC000F8E18F2E912C8091EC0600E112E1853003
:104ED00009F455C10E94DA19D82E81110E940B0ADB
:104EE000A3EFB6E0E2E7F2E010E000E0B02EED90D4
:104EF00081918E1509F452C18E25C12CFF24F394A3
:104F0000982F9F2109F445C10E94020C882399F033
:104F1000C982BA82EF2081E009F480E08B830E948D
:104F2000CE198160782F9D838C8349815A816B8152
:104F3000892F0E94E424F801EE58FD4F80818F25CF
:104F400080838091E506882309F465C08091E4069A
:104F5000E091E706E695E81BE093E006823009F071
:104F600034C1F0E0E158F84FE4910E2F10E0EFEB80
:104F7000EE2EECE0FE2E8091E106882361F0109287
:104F8000E1060E94BA1B9093DF068093DE06109222
:104F9000E3061092E2060E94BA1B9C018091DE0695
:104FA0009091DF06A901481B590B4F3F5F4798F5C9
:104FB000409143024423B1F01092430240914102D8
:104FC00050914202241B350B2F3F3F4758F4405D60
:104FD0005A4850934202409341022091E6062860CD
:104FE0002093E606A090E206B090E306800F911FA2
:104FF0009093DF068093DE068EED96E0F70109952B
:105000008091E2069091E306892B29F4AB2819F0F0
:1050100081E08093430280916F02882309F440C0AD
:1050200080916D0290916E020E942B0AC29708F047
:105030003DC120916602309167022115310509F0CA
:10504000A1C180916C02882359F10E940B0A69A3C7
:105050007AA38BA39CA38091680290916902A0918E
:105060006A02B0916B0229A13AA14BA15CA1281B55
:10507000390B4A0B5B0BDA01C9018F3F9F4FAF4FD2
:10508000BF4770F480916F02882351F062E070E0B6
:1050900086EE97E00E946B18892B11F410926C0237
:1050A000D1100E949A180E9470079091700289177F
:1050B00021F00E947007809370028091EC0684308A
:1050C00009F001CF83E08093E9008091E80082FF3E
:1050D000FACE8091E80090E085FF06C00E94C80AE1
:1050E000882309F41DC291E08091E8008B778093BA
:1050F000E800992309F4E7CEE981E150E33108F0B3
:1051000085C2F0E0E457FA4C0C9412318BE597E03D
:1051100057CE8091EC06843011F11092A40240E445
:105120000FB6F894A895809260000FBE409360007F
:1051300083B7817F846083BF83B7816083BF7894A6
:10514000889583B78E7F83BF0FB6F894A89580911A
:105150006000886180936000109260000FBE8091B3
:105160007A02882361F00E94DA19E3EFF6E0819178
:10517000811176C38BEF96E08E179F07C1F7809160
:10518000EC06853009F4C5CF0E942A150E947007ED
:10519000A1CEC394FF0C96E0C912B2CE0F5F1F4F91
:1051A0000830110509F0A2CE8FEF89838A831B8214
:1051B0000E94CE198160782F9D838C8349815A810A
:1051C0006B81892F0E94E424BCCE883109F467C02A
:1051D000E8F48F3009F447C060F4863069F1893013
:1051E00009F435C000ED17E07AE6E72E77E0F72EF8
:1051F000C2CE8531B9F7F0E0ED58F84FE4910E2FAB
:1052000010E03DEEE32E3DE0F32EB5CE04EF11E0CD
:10521000B8E1EB2EBFE0FB2E843209F4ACCE853230
:1052200071F18332F9F6E1E7F7E00591149123EE8D
:10523000E22E2CE0F22E9FCEF0E0E458F84FE491FD
:105240000E2F10E063EDE62E6CE0F62E94CEE69580
:10525000F0E0E758F84FE4910E2F10E053E2E52E0E
:105260005DE0F52E88CEE695F0E0EA58F84FE4913F
:105270000E2F10E04EE5E42E4DE0F42E7CCE8E2F66
:1052800063E00E94D030E92FF0E0E259F84FE4915A
:105290000E2F10E091E6E92E91E1F92E6CCE08E296
:1052A00010E082E7E82E8EE0F82E65CE0E94CE193F
:1052B00090936E0280936D0289E293E090932A05A9
:1052C000809329050E94020C882309F456C08EE9B8
:1052D00097E00E947C198091E4029091E502A091F0
:1052E000E602B091E70284309105A105B105E1F134
:1052F000F0F40097A105B10561F10297A105B10590
:1053000081F104EC12E0D8010D900020E9F78D0145
:1053100001501109A4ECEA2EA2E0FA2EE016F106E3
:1053200030F180916F02882309F48BCE82CE0897EA
:10533000A109B10987309105A105B10510F725E54F
:1053400001C026958A95EAF720FFDBCF83E897E036
:1053500002C086E997E00E947C1981E00E944B1907
:10536000D0CF80E997E0F7CF8AE897E0F4CFF70154
:1053700081917F010E94CA18D1CF86EA97E00E94EE
:105380007C19CFCF8091650261E070E0811159CE28
:10539000082F10E07B01082E02C0EE0CFF1C0A94BF
:1053A000E2F7A9014E215F21452B09F44AC0209163
:1053B0006402922F917020FD46C098013695279582
:1053C000369527958295880F80763FE1380F809338
:1053D000070120930A013093080190930B0124E602
:1053E00030E047E050E065E071E088E70E94AA2ED7
:1053F000892B09F026CEA801E5E0440F551FEA9558
:10540000E1F78091640280FD26C0475D5C4F04E6B1
:1054100010E020E230E060E488E70E94D72E892B7C
:1054200009F00FCE0E949A18E094F09480916602E1
:1054300090916702E822F922F0926702E0926602F8
:1054400000CE8F5FA5CF880F880F880F37E0380F09
:1054500020E093E0BCCFE4E4F2E080E2DF011D92C3
:105460008A95E9F7E2E6F1E0FAA3E9A30EE511E097
:1054700076E6272E71E0372EA9A1BAA16D91BAA3C5
:10548000A9A3F80181918F01840F952F911D9C0193
:10549000275D3C4F2901E62FF0E0EC5BFD4F30E04B
:1054A00020E067E0662E621ACC24C394022E01C06D
:1054B000CC0C0A94EAF7520180E0D5019D915D0180
:1054C0009C21662D681B6770762E062E000C770BCC
:1054D000B92F01C0BB0F7A94EAF7719561957109F4
:1054E0006770772701C096956A95EAF79B2B6081D4
:1054F000692B60838F5F883001F72F5F3F4F3196B4
:105500002830310571F6E9A1FAA12E163F0609F0FF
:10551000B3CF04E610E020E230E044E452E07BCF79
:1055200000E210E0AE014F5F5F4F7A018091E8002A
:1055300085FD0AC08091E8008B778093E8000E9487
:10554000C80A882399F3CFCD8091F100D7018D93BC
:105550007D010150110951F7C6CD1A8289E08B8374
:1055600011C08A81823009F4AAC1833089F1813067
:1055700009F04CC00E940B0A0E9418316B837C8397
:105580008D839E838091EC06843009F09CCC8091C1
:10559000E9001091EC001795112717958F70182BC3
:1055A00082E08093E9008091E80080FF0DC050E028
:1055B00040E060E270E0CE0101960E94180B8091FD
:1055C000E8008E778093E8001F701093E9007BCC91
:1055D00088E0E3EFF6E0DE01139601900D928A95E4
:1055E000E1F7D0CF8A81823089F42B813C814D81D3
:1055F0005E8129A33AA34BA35CA3CA01B9010E940F
:10560000183186E290E00E94BB34BCCF8FEF8983D3
:10561000B9CF4C816B818A810E94401298278927DB
:1056200098279E838D83AECFED80FE80FE24EF24ED
:10563000FE248A810B813CE0039F8001112440E617
:10564000849F000D111D11248C8190E0880F991FFB
:10565000080F191F6F2DC80187960E94BB346E2D4D
:10566000C8018896D0CF0E94A0148CCF8A8182383E
:1056700061F178F48038B1F0813809F083CF60E0CF
:105680008B810E94DE1B8B81811115C00E94700CE2
:1056900079CF833809F076CF20E04091EA066C811B
:1056A0008B8106C020E04B816091E9068091E8067D
:1056B0000E94601067CF8091E70681608093E706C3
:1056C00060E086950E94DE1B5DCF8B818093EB06A8
:1056D00059CF8A818238D9F058F4803899F08138CE
:1056E00009F050CF8091E70680FF0FC0869537CF35
:1056F000833809F047CF8091E8068B838091E906D3
:105700008C8340CF8091EA062ACF80E028CF809119
:10571000EB0625CF8091E7069091E806A091E90677
:10572000B091EA0689A39AA3ABA3BCA3BC01CD01A7
:105730000E94F10F27CF80E18A8324CF82E08A8301
:1057400089E50DCFCA80DB80DC24CD24DC248C816C
:105750007601E80EF11C8E010B5F1F4FC6018955C3
:105760009E4FEC14FD0409F40DCFA9E5CA16A2E082
:10577000DA0648F40E94A734F80181938F01FFEF05
:10578000CF1ADF0AEBCF80E0F7CF0A811B81102709
:10579000012710279E012F5F3F4F69018C817901FE
:1057A000E80EF11CC80189559E4FCE14DF0409F4A0
:1057B000E9CE093532E0130728F4D60114966C912E
:1057C0000E94BB340F5F1F4FBFEFCB1ADB0AEACF3B
:1057D0000E940015D7CE84E0AFCFCA80DB80DC24E6
:1057E000CD24DC248C817601E80EF11C8E010B5F48
:1057F0001F4FC6018796EC14FD0409F4C3CEE0E800
:10580000CE16E1E0DE0648F40E94A734D8018D935D
:105810008D01BFEFCB1ADB0AECCF80E0F7CF0A8116
:105820001B81102701271027FE0131966F018C8103
:105830007F01E80EF11CC8018796EC14FD0409F401
:10584000A1CE0038F1E01F0728F4D60114966C9120
:105850000E94BB340F5F1F4FBFEFCB1ADB0AEBCFA9
:1058600009BD19BD09B400FEFDCF8091D8008F7D20
:105870008093D8008091E00082608093E000809166
:10588000E00081FDFCCF0E942A1579CC60E086E221
:1058900090E00E94BB340E94A0140E94001561E2B7
:1058A00083E290E00E94BB3469E084E290E00E94D1
:1058B000BB3469E185E290E00E94BB3464CA86E2B1
:1058C00090E00E94A7341B821C821D828E835ACED8
:1058D0001F920F920FB60F9211242F933F934F9365
:1058E0005F936F937F938F939F93AF93BF93EF9348
:1058F000FF938091E10082FF09C08091E20082FF66
:1059000005C08091E1008B7F8093E1008091DA00F7
:1059100080FF24C08091D80080FF20C08091DA00F1
:105920008E7F8093DA008091D90080FF99C080E15A
:1059300089BD82E189BD09B400FEFDCF81E080937D
:10594000EC0680913702811109C00E94F90A0E9479
:10595000A10B8091E20084608093E2008091E100DD
:1059600080FF17C08091E20080FF13C08091E200A9
:105970008E7F8093E2008091E20080618093E2005C
:105980008091D80080628093D80019BC85E0809314
:10599000EC068091E10084FF27C08091E20084FF43
:1059A00023C080E189BD82E189BD09B400FEFDCF3D
:1059B0008091D8008F7D8093D8008091E1008F7E08
:1059C0008093E1008091E2008F7E8093E2008091DD
:1059D000E20081608093E20080913602882309F41E
:1059E00045C084E08093EC068091E10083FF27C0EE
:1059F0008091E20083FF23C08091E100877F809344
:105A0000E10082E08093EC06109236028091E10082
:105A10008E7F8093E1008091E2008E7F8093E20090
:105A20008091E20080618093E20042E060E080E0EB
:105A30000E94710B8091F00088608093F000FF91CC
:105A4000EF91BF91AF919F918F917F916F915F91F6
:105A50004F913F912F910F900FBE0F901F9018956F
:105A600019BC1092EC061092370278CF8091E300B7
:105A700087FD02C081E0B6CF83E0B4CF1F920F92C2
:105A80000FB60F921124FF920F931F932F933F9302
:105A90004F935F936F937F938F939F93AF93BF9336
:105AA000CF93DF93EF93FF9309EE10E0F80180812D
:105AB000C091EC00C795CC27C7958F70FC2EF82AB3
:105AC0001082C0EFD0E08881877F888378940E941D
:105AD0003F15F8011082888188608883CF2DCF70B0
