:100000000C94D8020C94692A0C941F030C941F03BF
:100010000C941F030C941F030C941F030C941F03D8
:100020000C941F030C941F030C94FD270C94D328ED
:100030000C94F0190C941F030C941F030C941F03D1
:100040000C941F030C941F030C941F030C941F03A8
:100050000C941F030C94171A0C941F030C941F0389
:100060000C941F030C941F030C941F030C941F0388
:100070000C941F030C941F030C941F030C941F0378
:100080000C941F030C941F030C941F030C941F0368
:100090000C941F030C941F030C941F030C941F0358
:1000A0000C941F030C941F030C941F0305010902F9
:1000B000A10185020901A1000509190129081500FE
:1000C0002501950875018102050109300931158165
:1000D000257F95027508810609381581257F9501D0
:1000E00075088106050C0A38021581257F95017572
:1000F000088106C0C005010980A101850319012AF4
:10010000B700150126B700950175108100C0050CD8
:100110000901A101850419012AA002150126A002E6
:10012000950175108100C005010906A10105071997
:10013000E029E715002501950875018102950175F3
:100140000881010507190029FF150026FF00950603
:1001500075088100050819012905950575019102A9
:10016000950175039101C009023B00020100A0FA4C
:10017000090400000103010100092111010001220D
:1001800040000705810308000A090401000103007B
:100190000000092111010001227B000705820320D4
:1001A000000A12011001000000084D44353401001E
:1001B000010200013C03680061006E0064007700EA
:1001C00069007200650064002F0064006100630034
:1001D000740079006C005F006D0061006E007500B6
:1001E00066006F0072006D002F003400780035004B
:1001F00000000E037400730068006F00720074004A
:100200000000040309041E0F0500047F3F1F643231
:1002100014643214783C1E1E140A05222325262855
:10022000292A2C2D2F3032333536383A3B3D3E408B
:1002300042434547494A4C4E5051535557595A5CD1
:100240005E6062646668696B6D6F71737577797BE8
:100250007D7F81838587898A8C8E90929496989AE7
:100260009C9E9FA1A3A5A7A8AAACAEAFB1B3B4B6FC
:10027000B8B9BBBCBEBFC1C2C3C5C6C7C9CACBCC57
:10028000CDCED0D1D2D2D3D4D5D6D7D7D8D9D9DA2A
:10029000DADBDBDBDCDCDCDCDCDDDDDDDDDCDCDC9F
:1002A000DCDCDBDBDBDADAD9D9D8D7D7D6D5D4D3C7
:1002B000D2D2D1D0CECDCCCBCAC9C7C6C5C3C2C19C
:1002C000BFBEBCBBB9B8B6B4B3B1AFAEACAAA8A7F9
:1002D000A5A3A19F9E9C9A98969492908E8C8A89B1
:1002E000878583817F7D7B79777573716F6D6B698E
:1002F00068666462605E5C5A5957555351504E4C63
:100300004A4947454342403E3D3B3A383635333211
:10031000302F2D2C2A292826252322FFAA7F55405D
:1003200000010101010101010101020202020202B8
:10033000020202030303030303030304040404048B
:100340000404050505050506060606060707070752
:100350000708080808090909090A0A0A0B0B0B0C07
:100360000C0C0D0D0D0E0E0E0F0F0F1010111111A4
:100370001212131314141515161617171818191925
:100380001A1A1B1B1C1D1D1E1E1F2020212222238A
:100390002424252626272829292A2B2C2D2D2E2FCB
:1003A00030313232333435363738393A3B3C3D3EE2
:1003B0003F404142434445464748494A4C4D4E4FD1
:1003C00050515354555658595A5B5D5E5F61626493
:1003D000656668696B6C6D6F7072737577787A7B20
:1003E0007D7E8082838587888A8C8E8F9193959677
:1003F000989A9C9EA0A2A3A5A7A9ABADAFB1B3B597
:10040000B7BABCBEC0C2C4C6C9CBCDCFD1D4D6D872
:10041000DBDDDFE2E4E7E9EBEEF0F3F5F8FAFDFF10
:1004200014001A0008001500170004001600070049
:1004300009000A001D001B0006001900050000004D
:1004400035002B00E00001000000E200E201015154
:100450004C00130012000C0018001C0033000F00A9
:100460000E000D000B0038003700360010001100A0
:10047000000030002F00E50001000000E7004E0002
:1004800002514B001E001F00200021002200290005
:100490002C00E10028002A003A003B003C003D000F
:1004A0003E0000003502390001000100000001009B
:1004B000005C010001002700260025002400230025
:1004C00001004F0052005100500043004200410023
:1004D00040003F0000004500440001000100000012
:1004E0000100500103514F011E021F022002210290
:1004F000220229002C00E10028002A000100490006
:100500004A004D004600000001000100010001000A
:10051000000001000100035101002702260225020C
:10052000240223023400010031002E002D00340289
:10053000010031022E022D02000030022F020100C4
:10054000010000000100005C010001000100010049
:10055000010001000100C35CC65CC85CCA5C01000C
:10056000C45CC75CC95CCB5C0100000001000100F9
:100570000100010000000100010001000100010074
:1005800001000100010001000100A900A800AA006B
:1005900001000100AB00AE00AC0001000000010052
:1005A0000100010001000000010001000100010044
:1005B00011241FBECFEFDAE0DEBFCDBF04B603FECD
:1005C00027C08091250390912603A0912703B09125
:1005D00028038730904BA740B04BD1F410922503ED
:1005E00010922603109227031092280314BE84B79A
:1005F000877F84BF0FB6F894A895809160008861CA
:1006000080936000109260000FBEE0E0F8E309956F
:1006100011E0A0E0B1E0EAEFFAE502C005900D922A
:10062000AC3BB107D9F723E0ACEBB1E001C01D92C0
:10063000A532B207E1F70E9475230C94FE2C0C94AE
:10064000000090910C0392FF06C0282F28712830DB
:10065000F9F4877F846093FF06C0282F2871283122
:10066000F1F4877E846120910D0320FF06C0382FAE
:1006700038713830D9F4877F816021FF06C0282F78
:1006800028712831D1F4877E816194FD877E089599
:10069000282F24712430F9F68B7F8860DCCF282F37
:1006A0002471243101F78B7E8861DDCF382F3171C1
:1006B000313019F78E7F8860E0CF282F21712131EA
:1006C00021F78E7E8861E1CF0F931F93CF93DF9345
:1006D000972F70E025E0929F600D711D1124FB01A2
:1006E00092E3899FE00DF11D1124EE0FFF1FE05EE4
:1006F000FB4F05911491E801003E110509F464C017
:1007000070F50133110509F4ACC098F409321105F4
:1007100009F4A0C00A32110509F4AAC0013011057C
:1007200009F465C004501109013A110508F058C0D8
:100730005EC00933110509F440C002381105E9F122
:100740000533110509F47FC0083A110508F097C078
:10075000053A110518F3E801A497D06448C0043E97
:10076000110509F455C068F4023E1105E1F1033E9C
:10077000110509F442C0005E11090830110580F529
:1007800036C0063E110509F44EC0073E110509F4B6
:100790004FC0011523E5120708F09CC0011582E542
:1007A000180708F001C10F3F110511F008F076C0DD
:1007B0000D3E110548F2D0651AC080910C0383707C
:1007C000B1F0C0EED0E013C080910C0380FD15C1E4
:1007D00090910D0390FF0BC0C3EED0E084FF07C0E3
:1007E000D0E0C0E004C080910C0382FDF5CFCE01C3
:1007F000DF91CF911F910F91089580910C0382FD9D
:10080000FFC090910D0390FDDCCF84FFF0CFE8CFC7
:1008100080910D0381FFEBCF80910C03C7EED0E0F8
:1008200084FDDECFE4CF80910C0383FDF7CFDFCFD3
:1008300080910C0383FDE7C090910D0391FFE5CFFC
:10084000C4EED0E0D4CF80910C0385FFD0CFC9E2B5
:10085000D0E0CDCF80910C0385FFC9CFC5E3D0E0B8
:10086000C6CF80910C0386FFC2CFCAE2D0E0BFCFD3
:1008700080910C0386FFBBCFC1E3D0E0B8CF0F3B24
:10088000110508F078CF085AE02FF0E0EE0FFF1FB7
:10089000E257FE4FC081D181D464A9CF011591E503
:1008A000190798F4011520E5120708F062C0011538
:1008B00080E2180708F49BCFC8019054811590413D
:1008C00008F08ECFDF70D06A92CFD02FCC27C16FC7
:1008D000D06A8DCF011589E51807A0F5011598E5B7
:1008E000190708F077C0011525E51207C8F40115AE
:1008F00084E5180708F069C0C80183709927C1E032
:10090000D0E002C0CC0FDD1F8A95E2F70695069570
:1009100090E2099F80011124C02BD12BDA6867CFA8
:10092000C80195558F3F910511F008F059CF802FE0
:100930000E942103C82FD0E0DC2FCC27CC27DF7109
:10094000D06255CF01152AE5120708F448C0C80146
:1009500090568115904208F043CF812F8F710E94ED
:100960002103C82FD0E0DC2FCC27CC27DF71C02B90
:10097000E7CFC80154E0969587955A95E1F78370C3
:10098000C695C695C37090E2C99FE0011124D82B8B
:10099000037081E090E002C0880F991F0A95E2F78A
:1009A000C82BD92BDC6823CF98012370332781E033
:1009B00090E002C0880F991F2A95E2F7C695C69568
:1009C00020E2C29FE0011124EBCFD02FCC27C46FCF
:1009D000D06A0DCFD02FCC27C06FD06A08CF802F20
:1009E0008F700E94210394E0D695C7959A95E1F700
:1009F000CF709C2FEC01D069FACEC9E3D0E0F7CEDE
:100A0000C2EED0E0F4CEC6EED0E0F1CEF894E82FFE
:100A1000E295EF70F0E041A18F7021E030E0B90184
:100A200002C0660F771F8A95E2F7CB01962F90954B
:100A3000942391A392A1892B82A378940895843062
:100A4000C1F138F48230C9F0833029F1813039F0B6
:100A500008958530E1F1863009F447C0089580910A
:100A6000ED02482F460F5527551F860F4F3F510562
:100A70000CF08FEF8093ED02089580912901482FAB
:100A8000460F5527551F860F4F3F51050CF08FEF2E
:100A900080932901089580912801482F460F5527FA
:100AA000551F860F4F3F51050CF08FEF80932801A3
:100AB000089580912701482F460F5527551F860F0F
:100AC0004F3F51050CF08FEF8093270108958091DF
:100AD0002601482F460F5527551F860F4F3F5105BA
:100AE0000CF08FEF80932601089580912501482F07
:100AF000460F5527551F860F4F3F51050CF08FEFBE
:100B0000809325010895843071F138F48230A9F082
:100B10008330F1F0813031F00895853079F18630FD
:100B2000C1F108958091ED02681720F4861B80932F
:100B3000ED0208951092ED02089580912901681741
:100B400020F4861B809329010895109229010895AD
:100B500080912801681720F4861B8093280108954E
:100B600010922801089580912701681720F4861BB0
:100B700080932701089510922701089580912601FE
:100B8000681720F4861B8093260108951092260191
:100B9000089580912501681720F4861B8093250114
:100BA00008951092250108958091EC0280FF12C0F3
:100BB0006091280185E0689FB001112475956795C3
:100BC0007595679560387105A8F561157105A1F1F6
:100BD000862F089581FF09C06091280185E0689FF4
:100BE000B001112475956795EDCF6091280182FDC4
:100BF0000AC02091EB022223D1F09091270160914D
:100C00002801291728F085E0689FB0011124DACF68
:100C1000269F9001112485E0829FA001839F500DA3
:100C20001124692F70E0CA010E94A52BCBCF65E08B
:100C300070E0CECF8FE7089581E008958091EC02B7
:100C400080FF0CC06091260170E0759567957595E1
:100C500067956115710549F1862F089581FF06C0DA
:100C60006091260170E075956795F3CF609126013C
:100C700082FD0BC09091EA029923A1F060912501B9
:100C800080912601961738F0682F70E06038710562
:100C900000F38FE70895899FC001112470E00E943E
:100CA000A52BF4CF61E070E0D7CF81E00895E3E1B8
:100CB000E80FE331E0F5F0E0E050F34D0C94B92B90
:100CC0000E94D40581958093E70208950E94D4057F
:100CD000FACF0E94D40581958093E60208950E9480
:100CE000D405FACF0E941E068093E80208950E9460
:100CF0001E068195F9CF0E941E0681958093E90218
:100D000008950E941E06FACF815F990B21E030E022
:100D100001C0220F8A95EAF78091E502822B809329
:100D2000E50208958091EC0281608093EC020895C1
:100D30008091EC028260F9CF8091EC028460F5CF63
:100D40004091E6028D3E59F48091E70287FF0DC085
:100D50001092E70241110BC01092EB0208C08E3EC8
:100D600081F48091E70218169CF3442381F080916E
:100D7000E8029091E902892B09F05AC01092EA0228
:100D800008958F3E49F447FFF0CF1092E60280911C
:100D9000E7028111ECCFE0CF803F19F41416ACF3D9
:100DA000E4CF9091E802893F29F41916F4F61092E5
:100DB000E802DBCF8A3F19F497FFD7CFF8CF9091A5
:100DC000E9028B3F29F497FFD0CF1092E902CDCFF3
:100DD0008C3F19F41916CCF3C8CF9FE0980F9830C8
:100DE00090F4815F990B21E030E0B90102C0660FF9
:100DF000771F8A95E2F7CB0180959091E5028923D0
:100E00008093E502B2CF8D3F31F48091EC028E7F6A
:100E10008093EC02AACF8E3F21F48091EC028D7F6B
:100E2000F7CF8F3F09F0A1CF8091EC028B7FF0CFFD
:100E30000895AF92BF92CF92DF92EF92FF920F93FD
:100E40001F93CF93DF93082F162FE901473908F03E
:100E500046E9E42FF0E0E05EFC4F111111C0E4918F
:100E60003E2F2E2F2983E8833A83DF91CF911F9164
:100E70000F91FF90EF90DF90CF90BF90AF900895CB
:100E8000E12EF12C249146E0049F50011124CC2442
:100E9000CA94D12CC501B6010E94912B802F90E0FD
:100EA000880F991F35E5369FA001379F500D1124FB
:100EB000841B950BF82FFF0FF80FA6014E195F0941
:100EC000249FC001259F900D1124E92F1F9FA00191
:100ED0001124452F5527D601A41BB50B2A9FA0012D
:100EE0002B9F500D1124352F86010F1B11090E9DCC
:100EF000D0010F9DB00D1E9DB00D1124AB2FBB274F
:100F0000CA1ADB0A2C9DD0012D9DB00D112463302F
:100F10007105D1F0FCEFAF16F3E0BF0670F461305D
:100F20007105B1F062307105B9F04FEFA416B1044C
:100F300008F098CF392FEB2F95CF6430710579F0F9
:100F400066307105B9F38ECFE52F322F292F8ACF66
:100F5000E22F252F392F86CF3B2FE22FF7CF322FCD
:100F60002B2F80CF8091D902982F9E7F61F48170C2
:100F700082608093D9028091DC02873918F086E97B
:100F80008093DC0208958635B0F381708465F1CFDB
:100F9000E6EDF2E0118282818460828308950895F3
:100FA000FA0181110994FB01FDCFE091DE02F0917D
:100FB000DF02309721F00190F081E02D099480E06C
:100FC000089520916702309168022817390771F05F
:100FD0009093680280936702E091DE02F091DF0255
:100FE000309721F00680F781E02D09940895209133
:100FF0006502309166022817390771F090936602F6
:1010000080936502E091DE02F091DF02309721F0DB
:101010000084F185E02D0994089580912E0290912D
:101020002D02981301C008958F5F8770FACFE92FC2
:10103000EE0FEE0FE90FE80F8E2F877041E001C031
:10104000440F8A95EAF7E695E695E69585E0E89FF0
:10105000F0011124E650FE4F30E020E070E05191A5
:10106000DF011197CB01022E02C0969587950A9455
:10107000E2F7817081958527842385278C932F5FE4
:101080003F4F2530310559F70895E92FEE0FEE0F48
:10109000E90FE80F9E2F9770E695E695E69585E0B7
:1010A000E89FF0011124E650FE4F50E040E080E060
:1010B000219130E0092E02C0369527950A94E2F777
:1010C00021703327042E01C0220F0A94EAF7822BE5
:1010D0004F5F5F4F4530510559F70895BF92CF924A
:1010E000DF92EF92FF920F931F93CF93DF938C01C8
:1010F000C0902702D0902802E0902902F0902A02A6
:101100008091230290912402A0912502B0912602A1
:10111000C82AD92AEA2AFB2ACFE1D0E0BC2ED7017F
:10112000C6010C2E04C0B695A795979587950A948D
:10113000D2F780FD0EC0219788F7B12C8B2DDF915F
:10114000CF911F910F91FF90EF90DF90CF90BF90C4
:101150000895B8018C2F0E946403019761F3EECFCC
:10116000FF920F931F93CF93DF93FC018281008145
:101170001181C081F180882311F1662301F1C8013A
:101180000E946E08D82F682FC8010E941708EC2F04
:10119000F0E085E0F89EE00DF11D112482E3D89F78
:1011A000E00DF11D1124EE0FFF1FE05EFB4F859156
:1011B0009491DF91CF911F910F91FF900895C801F5
:1011C0000E944508D82FE3CFCF93DF93D82FC92FA4
:1011D0000E946E086D2F7C2FDF91CF910C946403D9
:1011E0000E94E408282F892F8F70392F32953F7085
:1011F000903C80F43A30B0F4343020F4323090F443
:1012000080E008953630E1F781E0283E88F0213F04
:10121000B9F70EC03C3011F03F3091F786958695B6
:101220008695089581E0203F39F018F4283E40F774
:101230000895243F29F7FCCF0895A0ECB1E0EFEF2B
:1012400090E02D91821751F0EF3F19F4211101C068
:10125000E92F9F5F9630A9F7EF3F09F408950E2E0E
:10126000000CFF0BE254FE4F82830895E0ECF1E0A6
:101270009191891303C0DF0111971C9291E0E63C24
:10128000F907B1F70895809122028111109222028C
:1012900008958091210290912C02892B90911D023A
:1012A000892B8093BE0190912202992391F0892B82
:1012B0008093BE0120E080EC91E0FC01308101963A
:1012C00031112F5F31E0863C9307B9F721110E945D
:1012D0004309E091DE02F091DF02309731F00280A5
:1012E000F381E02D8EEB91E009940895882339F085
:1012F00090912102892B809321020C944909089531
:10130000882341F0809590912102892380932102C6
:101310000C944909089580E008952FB7F8948091BE
:10132000F5019091F601A091F701B091F8012FBF5E
:1013300008950E948D092091E6023091E702232B47
:1013400021F08093E2029093E3022091E802309131
:10135000E902232B21F08093E0029093E102E091D7
:10136000DE02F091DF02309749F082E08093E402E0
:101370000480F581E02D84EE92E00994089588239D
:1013800009F459C0823871F40E94D50781FF53C017
:1013900089E30E941D090E94490989E30E943609D8
:1013A0000C944909833859F40E94D50780FF43C043
:1013B00083E50E941D090E94490983E5EFCF843827
:1013C00059F40E94D50782FF36C087E40E941D09A8
:1013D0000E94490987E4E2CF9CEF980F913AF0F21E
:1013E00090E2980F983088F4877021E030E0A901EE
:1013F00002C0440F551F8A95E2F7CA01809590916B
:101400002102892380932102CBCF9BE5980F933053
:1014100020F490E080E00C94E10798E5980F973174
:1014200020F490E080E00C94F7078D3E20F00E94BD
:10143000A0060C949909089590E080E00E94E107CD
:1014400090E080E00E94F70710922C0210921D029B
:101450000E94490986E0E4EEF2E0DF011D928A95E0
:10146000E9F71092EB021092EA021092EC020C944F
:10147000990960932302709324028093250290932C
:1014800026020C941C0A6093270270932802809312
:10149000290290932A020C941C0A0F931F93CF9356
:1014A000DF9300D000D0CDB7DEB741E050E060E080
:1014B00070E004C0440F551F661F771F8A95D2F74E
:1014C0008091270290912802A0912902B0912A02CE
:1014D0008A019B01082B192B2A2B3B2B09831A838A
:1014E0002B833C83C901B8010F900F900F900F9090
:1014F000DF91CF911F910F910C94430A0F931F938B
:10150000CF93DF9300D000D0CDB7DEB741E050E0FD
:1015100060E070E004C0440F551F661F771F8A9576
:10152000D2F74095509560957095809127029091E3
:101530002802A0912902B0912A028A019B01082366
:1015400019232A233B2309831A832B833C83C90154
:10155000B8010F900F900F900F90DF91CF911F91D6
:101560000F910C94430A90912B02809589238093CC
:101570002B02282F277039F4282F082E000C330B4C
:101580009217130621F490910D0392FF07C08595E1
:10159000859585950E947E0A10922B020895CF931F
:1015A000DF9300D000D0CDB7DEB78FB7F89420918D
:1015B000F5013091F6014091F7015091F80129832E
:1015C0003A834B835C838FBF69817A818B819C8155
:1015D0000F900F900F900F90DF91CF9108950C9482
:1015E000CF0A9C014FB7F8948091F5019091F601D4
:1015F000A091F701B091F8014FBF821B930B0895A2
:101600008091F0010895FC01CB012091D20130912D
:10161000D3012617370790F0009729F42091E800AE
:101620002E772093E80040E0009751F4411108C064
:101630008091E80082FF31C080E00895C901F3CFB6
:101640002091F0022223A9F12530A9F12091E80090
:1016500023FD2DC02091E80022FDEACF2091E80073
:1016600020FFE2CF3091F3002091F200009719F0B3
:101670002830310558F041E02830310509F040E0CC
:101680002091E8002E772093E800CECF419140933F
:10169000F10001972F5F3F4FE9CF8091F00288233F
:1016A00041F0853041F08091E80083FFC1CF81E0B7
:1016B000089582E0089583E008958091CC0187FF2A
:1016C00013C08091E80082FF06C08091E8008B770C
:1016D0008093E80004C08091F0028111F2CF089558
:1016E0008091F0028823D9F38091E80080FFF8CF41
:1016F0008091E8008E77ECCF2091E4003091E500F6
:1017000095E6A9012091EC00822F817020FF06C090
:101710008091E80080FF06C080E008952091E800F5
:1017200022FD1AC08091F002882389F0853089F06B
:101730008091EB0085FD0FC02091E4003091E50021
:1017400042175307F9F29150E1F684E0089582E0E0
:10175000089583E0089581E00895E8EDF0E0808148
:101760008E7F80831092E2001092DA001092E100E6
:10177000A0EEB0E08C9181608C9380818F77808324
:1017800019BCA7EDB0E08C918E7F8C9380818F7E09
:1017900080831092CB010895EF92FF920F931F93D5
:1017A000CF937C018B010E947C0BC82F811117C045
:1017B0008091E80085FD0BC08091E8008E778093D2
:1017C000E8000E947C0B882399F3C82F08C0F7011A
:1017D00081917F018093F1000150110949F78C2F0D
:1017E000CF911F910F91FF90EF900895982F9093B4
:1017F000E900242F762F50E0891731F07091EC002A
:101800002091ED005091F00021FD06C09F5F9730C0
:1018100071F78093E90008953091EB003E7F30939B
:10182000EB003091ED003D7F3093ED003091EB0007
:1018300031603093EB007093EC002093ED005093F7
:10184000F0002091EE0027FDE1CF0895CF92DF92C6
:10185000EF92FF920F931F93CF93DF93C8EDD0E0E9
:1018600088818F7E8883E7EDF0E0808181608083CE
:1018700084E082BF81E08093CB0188818E7F888362
:1018800002EE10E0F80110821092DA0081EEC82E0C
:10189000D12CF601108288818F77888388818068B7
:1018A000888388818F7D888319BC1092F002109202
:1018B000CA011092E7011092C90190EEE92EF12CB5
:1018C000F70180818B7F808388818160888342E0FB
:1018D00060E080E00E94F60BF60180818E7F8083BD
:1018E000F801808181608083808188608083F70136
:1018F00080818E7F8083888180618883DF91CF9112
:101900001F910F91FF90EF90DF90CF9008958091FD
:10191000F102811110C08091D80080618093D800BD
:101920008AE18A95F1F700C08091D90080FF0AC052
:1019300081E08093F10281E09091F102913009F011
:1019400080E0089582E08093F1020E94AD0B109236
:10195000F002F1CF609116018091D90280FF20C082
:101960008091150143E0849FC001112484559D4F4F
:10197000539A2BB1277F3BB138605FB7F894FC01D5
:10198000649FE00DF11D1124BF0168177907D1F4A0
:101990005FBF8FE594E00197F1F700C00000089564
:1019A000809117019091180123E0829FF00111248A
:1019B000E455FD4F8917A0F61182108212828F5FC5
:1019C0003396F8CFFC014191CF01E8E03BB900002C
:1019D00000C047FF2BB9440F000000C000C000C08A
:1019E0002BB900C0EA9591F7D0CFE9EDF2E0808104
:1019F0008E7F80830E94C807E6EDF2E082818160DD
:101A000082832FEF80E792E0215080409040E1F701
:101A100000C000000C94AA0C9091D90290FF14C051
:101A2000909117012091180133E0939FF001112448
:101A3000E455FD4F921710F00C94AA0C818360833B
:101A400042839F5F3396F6CF0895CF93DF9300D004
:101A50000F92CDB7DEB79091D90290FF0FC09E01D3
:101A60002F5F3F4F0E9419074B8169818A810F9038
:101A70000F900F90DF91CF910C940C0D0F900F9061
:101A80000F90DF91CF910895CF93DF93EC01EC811C
:101A9000F0E0E55EFD4F4491E9EDF2E06281818185
:101AA0000E94250D8C818F5F8C83DF91CF910895EB
:101AB000CF93DF93EC01E9EDF2E0438162818C8109
:101AC0000E94250D8C818F5F8C83DF91CF910895CB
:101AD0000F931F93CF93DF9300D00F92CDB7DEB754
:101AE0008C018091A90281110AC09E012F5F3F4F96
:101AF00046E96FEF0E9419078A818093A902F801D5
:101B00006481613049F06230F1F08091A90240E0D7
:101B1000662331F040E019C06091A90240E080E006
:101B20000E940C0DF801848190E0019663E070E062
:101B30000E94A52B84830F900F900F90DF91CF917F
:101B40001F910F9108954091A90280E060E0E8CFD5
:101B5000EF92FF921F93CF93DF93EC0110E0EE24FE
:101B6000EA94F12C60911901161770F00E94AA0CEA
:101B70009A818C8190FF25C08F5F8C83DF91CF91FC
:101B80001F91FF90EF90089580911701810F992781
:101B9000991F9C01220F331F280F391F24553D4FD9
:101BA00070E0C7010E94A52B962F8C814091DC022A
:101BB0006091DB02199F800D11240E9419071F5F9D
:101BC000D1CF8150DACF9F92AF92BF92CF92DF9266
:101BD000EF92FF920F931F93CF93DF93EC018A81D3
:101BE000BB24BA9480FD02C0BB24B3948C81A09026
:101BF0001901811109C091E0B91202C08FEF8A0D5D
:101C00008093AB0281E08C83F12CE12CEA14F0F09C
:101C10000E94AA0C9091AB02E1E0BE1259C08091E3
:101C200019018150992319F08FEF890F91E080936A
:101C3000AB029C83DF91CF911F910F91FF90EF90AA
:101C4000DF90CF90BF90AF909F9008958091170143
:101C50008E0D9F2D911D8C01000F111F080F191F54
:101C600004551D4FF80111821082128234E0C32EF8
:101C7000D12C912C8091AB02890D8D302CF16CE030
:101C80000E94832B892F082E000C990B8E159F051F
:101C900091F48091DC028C9DA0018D9D500D11244A
:101CA000559547955595479598016091DB02809130
:101CB000DA020E9419079B0CF1E0CF1AD108D1F685
:101CC0008FEFE81AF80AA2CF87FFDDCF8A0DDBCFAE
:101CD000892F90E001966091190170E00E94A52B78
:101CE000982FA5CFFF920F931F93CF93DF93EC0113
:101CF0008C81811109C081E08C831092AA0292E04C
:101D00009093140180931301109117019091180181
:101D100083E0189FF0011124E455FD4F812F8917AE
:101D200068F100E093E0F92E60911901061760F167
:101D30000E94AA0C809113012091AA02280F2093DF
:101D4000AA0290911401980F90931401191654F45B
:101D5000022E000C330B409119014150550B2417F2
:101D6000350734F0819580931301813009F41C828A
:101D7000DF91CF911F910F91FF90089511821082F2
:101D800012828F5F3396CBCFE02FF0E070E0CF016F
:101D90000E94A52B810F482F50E02091AA02022E0D
:101DA000000C330BE217F307BCF020911401022E54
:101DB000000C330B2E173F077CF08F9D90011124F0
:101DC00024553D4F4091DC026091DB028091DA02A4
:101DD0000E9419070F5FA8CFFA01EE0FFF1FE40F53
:101DE000F51FE455FD4F118210821282F3CFEF925E
:101DF000FF920F931F93CF93DF93CDB7DEB72E974C
:101E00000FB6F894DEBF0FBECDBF8D879E87AD8520
:101E1000BE8514961C91212F30E0D9010E94EF2C31
:101E20009B01AC010E94BA2C69837A838B839C83CB
:101E3000E0E2F0E0E11BF109A5E5B0E09B01AC01B7
:101E40000E94BA2C69877A878B879C879F01DF0164
:101E50000E94BF2B9B01AC010E94C52C6D837E8329
:101E60008F8398879B01AC0189819A81AB81BC816A
:101E7000280F391F4A1F5B1F69857A858B859C85D2
:101E80000E94CD2CF22E422F50E099E29F1588F14E
:101E9000A3E02A9F9001112435952795122F1095C4
:101EA00000E085E5E82EEF1880911901081778F118
:101EB0000E94AA0CED85FE85948181E0992319F09A
:101EC000903219F48FEF8093120180911201890FE3
:101ED000AD85BE8514968C932E960FB6F894DEBF12
:101EE0000FBECDBFDF91CF911F910F91FF90EF906B
:101EF000089585E590E0841B950B9C01220F331F0C
:101F0000280F391F37FFC8CF2F5F3F4FC5CF8E2D0A
:101F100001FD8F2D40911701400F5527551F9A0144
:101F2000220F331F240F351F24553D4F412F609141
:101F3000DB020E9419070F5FB7CF0F931F93CF9358
:101F4000DF93EC0110E000E0909119019017110669
:101F500009F06CF40E94AA0C8C8190E001968170CB
:101F600099278C83DF91CF911F910F9108958091D4
:101F70001701A801480F511D9A01220F331F240F8A
:101F8000351F24553D4F4C816091DB028091DA0270
:101F900096959017110651F04CF0442349F040916A
:101FA000DC020E9419070F5F1F4FCECF4423B9F305
:101FB00040E0F7CFCF93DF93D82FC92F81E08093F4
:101FC000E9008FEF9091E800815095FD06C095EDF6
:101FD0009A95F1F700008111F5CF8091E80085FF17
:101FE00016C050E040E068E070E08D2F9C2F0E940A
:101FF000CC0B8091E8008E778093E80088E0ED2F8D
:10200000FC2FA8EEB1E001900D928A95E1F7DF91E7
:10201000CF91089522E02093E9002FEF3091E8005E
:10202000215035FD06C035ED3A95F1F7000021113C
:10203000F5CF2091E80025FF0BC050E040E066E0BE
:1020400070E00E94CC0B8091E8008E778093E800CE
:102050000895CF93DF9300D00F92CDB7DEB7909164
:10206000F002943019F589836A837B8382E0809340
:10207000E9008FEF9091E800815095FD06C095ED45
:102080009A95F1F700008111F5CF8091E80085FF66
:102090000DC050E040E063E070E0CE0101960E9488
:1020A000CC0B8091E8008E778093E8000F900F9022
:1020B0000F90DF91CF910895BC0183E00C9429101B
:1020C000BC0184E00C942910AF92BF92CF92DF92B2
:1020D000EF92FF920F931F93CF93DF9300D000D026
:1020E0000F92CDB7DEB78FE7E82E81E0F82E92E0B1
:1020F000A92E93E0B92E00E0CC24C394D12CD701B3
:102100008D917D01F894E82FE295EF70F0E021A128
:102110008F70A60102C0440F551F8A95E2F7CA01CD
:10212000922F982B91A392A18095892382A37894D2
:1021300000C0E9E8F1E030E020E010E04191A42F98
:10214000A295AF70A05EB0E08C9190E04F7002C09D
:10215000959587954A95E2F780FD47C08C2D022E14
:1021600001C0880F0A94EAF7182B2F5F3F4F2530E4
:10217000310521F7F701319780810E94060550EA69
:102180005A95F1F7D5018D915D01181781F1FD0187
:102190003197108381E0082BB4E8EB16B1E0FB0621
:1021A00009F0ADCF10910103002319F181E0809374
:1021B000F4020E948D099093F3028093F2028091C1
:1021C000F2029091F3020E94F10A0697B0F0A12F5B
:1021D000B0E0A950BD4F85E0E2E0F3E001900D9240
:1021E0008A95E1F71092F40208C080E0BDCF80E04C
:1021F000D2CF8091F4028111E2CF0E94870C182F78
:1022000060910103882309F459C01A821982FE01E2
:10221000339683E0DF011D928A95E9F7862F90E0DF
:10222000BE016F5F7F4F89509D4F0E9445298111EC
:1022300025C08091F6028F5F8093F6028630E0F130
:10224000E091F502F0E0E950FD4F85E0DF011D92DD
:102250008A95E9F7011101C0012F802F0F900F908F
:102260000F900F900F90DF91CF911F910F91FF90E2
:10227000EF90DF90CF90BF90AF9008951092F6024C
:10228000E091F502F0E0BF0169507D4FDE0111964B
:102290009E012A5F3F4F10E0FB014191BF019D91DC
:1022A000491731F0AF0141505109FA019083182FBD
:1022B000A217B30789F7CECF10E0CCCF70E06950FA
:1022C0007D4F8091F50290E089509D4F0E948129B9
:1022D000C1CF0F931F93CF93DF938B01D82FC92FBB
:1022E0000E94B207A8016D2F7C2F88E090E0DF915B
:1022F000CF911F910F910C94792CE9EDF2E08DE0D4
:10230000808311828FEF828386E983831482E6EDD6
:10231000F2E08281836082836DE070E08FEF96E966
:102320000C946911CF93DF9300D000D0CDB7DEB706
:102330008091DD02833018F48F5F8093DD028091FD
:10234000D9029091DA02A091DB02B091DC0289837C
:102350009A83AB83BC83BC01CD010F900F900F908B
:102360000F90DF91CF910C946911CF93DF9300D040
:1023700000D0CDB7DEB78091DD02882319F08150FF
:102380008093DD028091D9029091DA02A091DB0264
:10239000B091DC0289839A83AB83BC83BC01CD01FD
:1023A0000F900F900F900F90DF91CF910C946911C7
:1023B000AF92BF92CF92DF92EF92FF920F931F9353
:1023C000CF93DF9300D000D000D00F92CDB7DEB70F
:1023D000182FF62E042FD22E9091D90290FF96C07E
:1023E000E92FE695AE2FB0E0AC5ABE4F8C918093AA
:1023F000D6029E7F923009F045C09E012F5F3F4F6D
:10240000812F0E9419074B8169818A810E940C0DDE
:102410008091DA02811308C08091DB028F1104C021
:102420008091DC02801729F08091D802826080932D
:10243000D8021093DA02F092DB020093DC02DD2076
:1024400009F464C08091D9029091DA02A091DB0274
:10245000B091DC028C839D83AE83BF83BC01CD0130
:1024600027960FB6F894DEBF0FBECDBFDF91CF9198
:102470001F910F91FF90EF90DF90CF90BF90AF90A2
:102480000C946911823019F40091DC02C1CF8630BE
:1024900019F41091DA02BCCF8930D9F3893109F0EF
:1024A000B7CFE9518E2F8170C82EE695F0E0E55E3A
:1024B000FC4FA590B490E12CBB2460911901E61665
:1024C00018F00E94AA0CA4CF2E2D30E0EA9CC00187
:1024D000EB9C900D112470E00E94912B812FC11074
:1024E00013C0860F90911701A901490F511D9A0140
:1024F000220F331F240F351F24553D4F402F6F2DC2
:102500000E941907E394D9CF861BECCF27960FB60C
:10251000F894DEBF0FBECDBFDF91CF911F910F9119
:10252000FF90EF90DF90CF90BF90AF900895E9EDCE
:10253000F2E0818121E043816281885F0C94D811AF
:10254000E9EDF2E0818121E04381628188500C94C1
:10255000D811E9EDF2E0628121E1620F08F46FEF3A
:1025600021E0438181810C94D811E9EDF2E0628190
:1025700021E1621B08F460E021E0438181810C9439
:10258000D811E9EDF2E0438121E1420F08F44FEF69
:1025900021E0628181810C94D811E9EDF2E0438160
:1025A00021E1421B08F440E021E0628181810C942A
:1025B000D8114F925F926F927F928F929F92AF92BB
:1025C000BF92CF92DF92EF92FF920F931F93CF9320
:1025D000DF93FC016280448081E08483EBE1F2E0E0
:1025E0007490EAE9F2E0E491812C75E0972EF2E034
:1025F000CF2EDD24D394AA24AA94B12C55245A9426
:10260000E7190E2F10E080911901881690F0DF91E4
:10261000CF911F910F91FF90EF90DF90CF90BF90DF
:10262000AF909F908F907F906F905F904F900C94A1
:10263000AA0CE82CF12C82E0861568F09E9CF00133
:102640009F9CF00D1124E359FD4F8091DA028083A5
:102650008091DB028183411023C09E9CF0019F9CEE
:10266000F00D1124E359FD4F13821282809117015E
:102670008E0D9F2D911D9C01220F331F280F391F96
:1026800024553D4F9E9CF0019F9CF00D1124E35971
:10269000FD4F4281618180810E9419078394B3CFED
:1026A0009E9CE0019F9CD00D1124C359DD4F8B816E
:1026B0008823E9F081508B83859DC00111246C81B2
:1026C00070E00E94912BFB01FF27E55EFD4F849196
:1026D000E82FE719E59DC0011124B8010E94912B54
:1026E0008091DC02689FB00111247A83BFCF0E94E1
:1026F000362CAC019091DC02969591589C9D9001EE
:102700009D9D300D1124232F3327421753070CF0C2
:10271000ADCF82E0861588F40E94362CB5010E9468
:10272000A52B88830E94362C2091DB022695622FF0
:1027300070E00E94A52B280F29839E9CF0019F9C8E
:10274000F00D1124E359FD4F12828091DC02893C87
:1027500058F088EC9E9CF0019F9CF00D1124E359E9
:10276000FD4F8483838382CF8431A0F784E1F2CF4D
:10277000CF93C0910D03C2FB992790F9981781F070
:1027800080FBC2F9C0930D0360910C0384E090E0DC
:102790000E94672C6C2F82E290E0CF910C94672C02
:1027A000CF91089510922102E0ECF1E086E0DF0184
:1027B0001D928A95E9F70C941C0A0E94D2132FEF00
:1027C00084E39CE0215080409040E1F700C000008D
:1027D00087E797E7909301088093000888E19AE0E3
:1027E0000FB6F894A895809360000FBE9093600098
:1027F000FFCF0F931F93CF93DF9300D000D0CDB7BF
:10280000DEB741E050E060E070E08A019B0104C067
:10281000000F111F221F331F8A95D2F709831A83D5
:102820002B833C83C901B8010E94390A0F900F9095
:102830000F900F90DF91CF911F910F910C94D213B5
:102840001F93CF93DF93CDB7DEB7AA970FB6F89457
:10285000DEBF0FBECDBF8CEC91E0FC010196209154
:10286000F100208321E0843D9207B9F78091CD01EA
:10287000893009F456C0C8F4823009F4B1C08330FD
:1028800009F480C0813071F18091E80083FF78C243
:102890008091CC019091CD019A3008F071C2E92F5E
:1028A000F0E0ED5EF24D0C94B92B8A3009F487C04C
:1028B0008B3051F78091CC01813231F78091D0017A
:1028C0009091D101892B01F78091E800877F809357
:1028D000E8000E945D0B8091CE01809311010E945F
:1028E000D213D2CF8091CC01813A71F68091E80069
:1028F000877F8093E8008091D0019091D101892B4E
:1029000061F468E088EE91E070E00E94030B809132
:10291000E8008B778093E800B7CF60E090E080E03C
:10292000F3CF8091CC01813209F0AECF8091D001FC
:102930009091D101029708F0A7CF8091E800877F9E
:102940008093E8008091E80082FF17C09091F30027
:102950008091F200029729F48091F1008B7F813001
:1029600021F48091F1008093F0018091E8008B7751
:102970008093E8000E945D0B87CF8091F002811167
:10298000E1CF82CF8091CC01813A09F07DCF809157
:10299000D0019091D101892B09F076CF8091E80088
:1029A000877F8093E8008091E80080FFFCCF8091D2
:1029B00011018093F1008091E8008E77D9CF80914A
:1029C000CC01813209F060CF8091E800877F80934D
:1029D000E8000E945D0B8091CF018093C80154CF25
:1029E0008091CC01813A09F04FCF8091E800877F38
:1029F0008093E8008091E80080FFFCCF8091C801BF
:102A0000D8CF803899F0823809F0BAC18091D001CE
:102A10008F70873008F0B4C18093E9008091EB009B
:102A200085FB882780F91092E90006C08091C901D2
:102A30009091E701911182609091E800977F9093C7
:102A4000E8008093F1001092F1008091E8008E7709
:102A500093C1882309F481C1823009F091C180912A
:102A6000CE01811184C18091D0018F702FEF280F8A
:102A7000263008F085C18093E9002091EB0020FF0B
:102A800076C1933031F48091EB0080628093EB004B
:102A90006EC19091EB0090619093EB0021E030E0EB
:102AA00001C0220F8A95EAF72093EA001092EA000B
:102AB0008091EB008860EACF811162C11091CE0154
:102AC0001F778091E3008078812B8093E3008091D1
:102AD000E800877F8093E8000E945D0B8091E8000A
:102AE00080FFFCCF8091E30080688093E30082E068
:102AF000111183E08093F00243C18058823008F0C6
:102B00003FC14091CE015091CF014C3D83E0580729
:102B100099F583E08A838AE289834FB7F894DE01CE
:102B2000139620E03EE051E2E32FF0E0509357008F
:102B3000849120FF03C082958F703F5F8F708A3031
:102B4000C8F0895C90E08D939D932F5F243161F7ED
:102B50004FBF8091E800877F8093E8006AE270E0D1
:102B6000CE0101960E94030B8091E8008B77809341
:102B7000E80006C1805DE6CF2091D0013091D101FF
:102B8000852F99278330910509F160F481309105F3
:102B900009F472C0029709F0F3C08BE390E0E7E616
:102BA000F1E029C08132910509F45AC0829709F0F9
:102BB000E7C02115310509F469C02130310509F05C
:102BC000DFC08BE790E0ECEAF0E015C0CA0199277E
:102BD0004130B1F18230910509F43AC0892B09F0F6
:102BE000CFC0E2E0F2E0E4918E2F90E0E2E0F2E08C
:102BF000009709F4C5C02091E800277F2093E800E2
:102C00002091D2013091D3018217930708F49C01DF
:102C100040E02115310509F03EC041113CC08091D2
:102C2000E80082FDA1CF8091F002882309F49CCFB7
:102C3000853009F499CF8091E80083FFF0CF94CFDD
:102C4000E2EFF1E0E4918E2F90E0E2EFF1E0D0CFFF
:102C5000E4EBF1E0E4918E2F90E0E4EBF1E0C8CFFB
:102C60002115310571F02130310509F089C089E065
:102C700090E0E2E9F1E0BFCF82E190E0E2EAF1E04A
:102C8000BACF89E090E0E9E7F1E0B5CF80E490E0E9
:102C9000E7E2F1E0B0CF8091F002882309F464CF3D
:102CA000853009F461CF8091E80083FD5DCF80918C
:102CB000E80082FDB4CF8091E80080FFAACF909118
:102CC000F3008091F2002115310519F0883091054B
:102CD00050F041E0089709F040E08091E8008E77DD
:102CE0008093E80096CF44914093F10031962150B3
:102CF00031090196E8CF803809F042C08091E800A0
:102D0000877F8093E8008091CA018093F1009DCE77
:102D1000811136C01091CE01123090F58091E800FB
:102D2000877F8093E8001093CA010E945D0B1123F6
:102D300011F084E005C08091E30087FDFACF81E0C7
:102D40008093F00242E061EC81E00E94F60B42E2E7
:102D500061EC82E00E94F60B13C08091CE018130BD
:102D600079F481E0933009F080E08093E7011092DC
:102D7000E9008091E800877F8093E8000E945D0B66
:102D80008091E80083FF0AC08091E800877F8093EC
:102D9000E8008091EB0080628093EB00AA960FB66A
:102DA000F894DEBF0FBECDBFDF91CF911F91089584
:102DB0006AEE7EEF90E080E00E94852C60E082E089
:102DC00090E00E94672C60E083E090E00E94672C16
:102DD00010922302109224021092250210922602D1
:102DE00060E084E090E00E94672C60E082E290E086
:102DF0000E94672C60E085E090E00E94672C60E014
:102E000086E090E00E94672C6FEF87E090E00E94E0
:102E1000672C40E050E0BA0188E090E00E94792CF5
:102E200060E08DE090E00E94672C40E050E0BA0145
:102E300088E190E00E94792C60E087E190E00E94B8
:102E4000672C40E050E0BA018CE190E00E94792CC0
:102E500070E060E080E290E00E94852C40E050E06D
:102E6000BA0188E190E00E94792C40E050E0BA017C
:102E70008FE090E00E94792C40E050E0BA0183E1BD
:102E800090E00C94792C8B3258F48530C0F0EBEF45
:102E9000E80FE632A0F4F0E0E35EF24D0C94B92BBB
:102EA000833450F48A3308F050C0853309F449C0A4
:102EB000883329F481E00895833409F442C080E026
:102EC00008950E94D816F6CF8091EF02807F8093FC
:102ED000EF0281E08093EE0208950E94DD1390914D
:102EE000EF02892F8E7F90FF81608093EF0280FD3B
:102EF000E1CF817F8093EF02DDCF9091EF02892FA8
:102F00008D7F91FF82608093EF0281FFD3CF80910C
:102F1000EF028160EFCF9091EF02892F8B7F92FFBC
:102F200084608093EF0282FDF2CFC4CF9091EF02D4
:102F3000892F877F93FF88608093EF0283FDE7CF1F
:102F4000B9CF80E00E94F913B5CF8953FBCF8D51E3
:102F5000F9CFCF93C82F882309F485C08238C1F4F4
:102F60000E94D50781FD7FC089E30E941D090E9450
:102F700049092FEF31EE84E0215030408040E1F7E5
:102F800000C0000089E30E943609CF910C944909E2
:102F90008338A1F40E94D50780FD65C083E50E94B7
:102FA0001D090E9449099FEF21EE34E09150204015
:102FB0003040E1F700C0000083E5E5CF8438A1F49C
:102FC0000E94D50782FD4FC087E40E941D090E9420
:102FD00049098FEF91EE24E0815090402040E1F7C5
:102FE00000C0000087E4CFCF8CEF8C0F813A08F04F
:102FF00087C08091EE02813079F0823049F18111F1
:1030000070C080912102823209F06DC08C2F0E9425
:103010004317811128C067C0809121028232B1F329
:10302000C43171F030F4CB3089F0C03161F080E010
:1030300005C0C93229F081E0C833C9F78170E9CFF2
:103040001092EE02F4CF82E08093EE0281E0F6CFA0
:10305000CB3481F198F4C43240F4CE3100F5C7305E
:1030600079F1C43121F0CF910895C932E1F780910F
:103070001E02882381F010921E02F5CFC135C1F0E7
:1030800061E0C235C1F06AE0CE3469F780911E027A
:10309000CF910C94830581E08093EE02E4CFCE5172
:1030A000EC2FF0E0E65BFE4F808180931E02DBCFC9
:1030B00061E0ECCF6AE080911E02CF910C941F0575
:1030C0001092ED0284E180932901C09328018CE3E2
:1030D0008093270188E08093260188E28093250170
:1030E000C2CF1092EE02E0ECF1E08191C817D9F165
:1030F00031E0E63CF307C9F78C2F0E941D0945CF4C
:1031000080E28C0F883068F4C77021E030E001C0A5
:10311000220FCA95EAF780912102822B8093210227
:1031200034CF8BE58C0F833038F42C2F2452330BA3
:10313000C901CF910C94E107E8E5EC0FE73150F4B9
:10314000F0E0EE0FFF1FE257FE4F80819181CF919B
:103150000C94F707CD3E08F486CF8C2F0E945706BB
:10316000CF910C9499098C2F0E9436090E9449092D
:10317000C3CF0F931F93CF93C82F10E000E0893384
:1031800011F400E510E08C2F0E94A917011511051C
:1031900031F48C2FCF911F910F910C94BF098FE9BF
:1031A0009FE00197F1F700C0000001501109EECF38
:1031B000FF920F931F93CF93DF93C62FD42F122F1D
:1031C0008823A9F060931F020E948D099093C70184
:1031D0008093C601C77081E001C0880FCA95EAF7E5
:1031E000DF91CF911F910F91FF900C947609809100
:1031F0001F02681334C08091C6019091C7010E94DC
:10320000F10A883C910558F500E20D0FCD17A9F0A1
:10321000C770FF24F3948F2D01C0880FCA95EAF779
:103220000E948009083048F48D2F877001C0FF0C80
:103230008A95EAF78F2D0E947609812F0E94B9188E
:103240000830A0F4D77081E001C0880FDA95EAF762
:10325000DF91CF911F910F91FF900C948009C7705F
:1032600081E001C0880FCA95EAF7F2CFDF91CF91D4
:103270001F910F91FF9008958130E9F4809127020A
:1032800090912802A0912902B0912A020097A105ED
:10329000B10561F0B695A79597958795817031F046
:1032A0008BEA611101C08CEA0C94B91889EA6111AA
:1032B000FBCF8AEAF9CF81111FC08091270290913C
:1032C0002802A0912902B0912A020097A105B10518
:1032D00071F022E0B695A795979587952A95D1F735
:1032E000817029F08FE46111DFCF80E5DDCF81E5CA
:1032F0006111DACF82E5D8CF0895CF9384E090E0D2
:103300000E94532CC82F82E290E00E94532C982FE9
:103310008C2FCF9108958091D80208951092D802F1
:103320000895CF93DF93EC0185E0E9EDF2E0DE0153
:1033300001900D928A95E1F78091D6029091D70283
:10334000A091D8028D839E83AF83DF91CF910895A2
:10335000E0916C02F0E0E659FD4F2081FC012083F2
:103360000895FF920F931F93CF93DF93D09169023B
:103370000D2F10E006591D4FFC01C081F80180811E
:10338000C81BFC2E80E01F147CF09C2FC7FD90E032
:10339000C91BC11114C08823E9F0DF91CF911F919F
:1033A0000F91FF900C94EF0AFA94F80180818F5FDF
:1033B000808361E08D2F0E943C1981E0E4CFCF5FD4
:1033C000F80180818150808360E08D2F0E943C193C
:1033D00081E0DFCFDF91CF911F910F91FF90089592
:1033E0001F921FB61F9211248F939F93AF93BF9389
:1033F0008091F901811113C08091F5019091F6013E
:10340000A091F701B091F8014196A11DB11D8093E3
:10341000F5019093F601A093F701B093F801BF91E5
:10342000AF919F918F911F901FBE1F901895789418
:103430001F921FB61F9211248F939F93AF93BF9338
:103440008091F5019091F601A091F701B091F801FA
:103450000196A11DB11D8093F5019093F601A093F3
:10346000F701B093F801BF91AF919F918F911F9099
:103470001FBE1F901895CF92DF92EF92FF92CF93CD
:10348000DF9300D000D0CDB7DEB76B017C010E9486
:10349000870C81110EC00E94CF0AC61AD70AE80A0B
:1034A000F90AC092F101D092F201E092F301F09298
:1034B000F4010F900F900F900F90DF91CF91FF903C
:1034C000EF90DF90CF900895CF93DF9300D000D09E
:1034D000CDB7DEB70E94870C882341F00F900F9084
:1034E0000F900F90DF91CF910C94CF0A0E94CF0ADA
:1034F00069837A838B839C838091F1019091F2019F
:10350000A091F301B091F40129813A814B815C8152
:10351000280F391F4A1F5B1FCA01B9010F900F9076
:103520000F900F90DF91CF9108950E94870C811129
:103530000C948D090E94641ACB0108956091D90200
:10354000669570E04BE050E08AE191E00E94462CE5
:10355000892B19F481E08093D7020E94951A9093E9
:10356000D1028093D0028091D80284608093D802E7
:103570000895CF93DF9300D000D0CDB7DEB7909100
:10358000D90290FF4CC0882309F442C08B3208F066
:1035900041C08F77880F9091D9029170892B8093C9
:1035A000D9028091D80281608093D802662381F08D
:1035B0008091D9029091DA02A091DB02B091DC02F5
:1035C00089839A83AB83BC83BC01CD010E946911BE
:1035D0006091D902669570E04BE050E08AE191E09D
:1035E0000E94462C892BC1F00E94C80781E080937D
:1035F000D30220E04091DC026091DB028091DA028C
:103600000F900F900F900F90DF91CF910C94D811E5
:1036100081E0C0CF8AE2BECF0E949E1AE7CF0F9012
:103620000F900F900F90DF91CF9108958091D90264
:1036300086958F5F8B3208F081E061E00C94B91AB7
:103640009091D90296958FEF890F913009F48AE213
:1036500061E00C94B91A9091D90290FF07C0969539
:10366000981720F0961710F40C94161B61E00C9438
:10367000B91A8F929F92AF92BF92CF92DF92EF9240
:10368000FF920F931F93CF93DF9300D000D00F9240
:10369000CDB7DEB78C01DC019C9111968C9111970E
:1036A00013962D913C91232B21F089238F3F09F014
:1036B000D0C40F900F900F900F900F90DF91CF918B
:1036C0001F910F91FF90EF90DF90CF90BF90AF9040
:1036D0009F908F90089527E245EE65EED8011296EF
:1036E0008C910E94D81880912B02877011F3D80119
:1036F00012968C918823E9F282E00F900F900F9040
:103700000F900F90DF91CF911F910F91FF90EF904D
:10371000DF90CF90BF90AF909F908F900C94B30AA2
:1037200026E241EE60EEF8018281DBCF26E241EE37
:1037300062EEF9CF29813A812B5F3C452930310572
:1037400008F4C5C489809A8026E182162CE5920689
:1037500009F405C589809A802BE582162DE592062D
:1037600009F0A4C181E0C9C1E981FA81E350FC45B7
:1037700080910C038160E331F105C8F4ED5BF24DFB
:103780000C94B92B89819A818B5F9C45099708F02D
:10379000B2C4E981FA81EC5FFC45E830F10590F4B0
:1037A000EA5AF24D0C94B92B80910C0382608093FD
:1037B0000C03A1C480910C038460F9CF80910C03A9
:1037C0008860F5CF80910D03816080930D0393C4D1
:1037D00080910D038260F9CF80910C038061E7CF67
:1037E00080910C038062E3CF80910C038064DFCF73
:1037F0000E94D21380910C038068D9CF80910C0372
:103800008C60D5CF80910D038360DFCF80910C0356
:103810008E7FCDCF80910C038D7FC9CF80910C031B
:103820008B7FC5CF80910C03877FC1CF80910D0323
:103830008E7FCBCF80910D038D7FC7CF80910C03FE
:103840008F7EB5CF80910C038F7DB1CF80910C031B
:103850008F7BADCF0E94D21380910C038F77A7CFBF
:1038600080910C03837FA3CF80910D038C7FADCF1C
:1038700080910C0382FB992790F921E0922790FB1D
:1038800082F990FB83F993CF80910D03982F909547
:1038900091708E7F892B90FB81F997CF0E94D21374
:1038A00090910C03892F97FB87F9805880CF61E0B6
:1038B0008EE090E00E94672C1EC460E0F9CF85E3A3
:1038C0005CC480912002811104C089E20E94360903
:1038D00056C485E3FBCF809121028272A980BA8011
:1038E00027EDA2162CE5B20680F433ECA3163CE5D6
:1038F000B306A8F0F501E45CFC45E331F10508F0FE
:1039000052C0E25AF24D0C94B92B89809A806AE237
:1039100085E22EE582162DE5920609F4AFC0F80186
:103920008281E080F180882309F4EEC0C7010E9403
:103930006E088983682FC7010E941708B701898123
:103940000E9464038D839983D8011296AC901297DC
:1039500015969C9092943FE0932280912B02877061
:10396000A1F0CA2CAA2091F0892F807F803421F009
:103970008D81805E883048F082E00E94B30A809199
:103980002B028770CC24C3948111C12C898182952C
:103990008F70E82EF12C8C3008F0F4C0F701EF584E
:1039A000F24D0C94B92B8091D90280FF26C08E7FF6
:1039B0008093D9028091D9029091DA02A091DB0222
:1039C000B091DC0289839A83AB83BC83BC01CD01B7
:1039D0000E9469110E94C8078091D802816080937B
:1039E000D8029FEFA0E7B2E09150A040B040E1F7CD
:1039F00000C000000E94AA0C76CE81608093D9029C
:103A000061E086950E94B91A6ECE40E25BE166E104
:103A10007BE10E94D00767CE46E15BE160E27BE19B
:103A2000F8CF40EA52E167E972E1F3CF47E952E1AA
:103A300060EA72E1EECF45EB52E169EA72E1E9CF6B
:103A400049EA52E165EB72E1E4CF4DEC52E161EC01
:103A500072E1DFCF41EC52E16DEC72E1DACF45EB80
:103A600051E162E971E1D5CF42E951E165EB71E1E4
:103A7000D0CF61E081E0C6CF65E082E00E942B1BE1
:103A800032CE68E086E0FACF6EE089E0F7CF64E1FD
:103A90008FE0F4CF67E185E1F1CF61E088E1B2CF5B
:103AA00062E289E1EBCF61E083E2ACCF89809A806A
:103AB0002CE582162DE5920668F481143CE5930608
:103AC000F9F04FED84164CE5940609F028CF0E94DA
:103AD000D81609CE89809A802CE582162DE59206AB
:103AE00089F03DE58316930609F019CF80910D0307
:103AF00082FB882780F991E089270E94B8130FCFB5
:103B00000E94DD1380E0F9CFC7010E944508898338
:103B100015CFB981BF70DB2EE981E07F19F0D29417
:103B200020EFD222AA20D1F0DD2071F08D81805EBD
:103B3000883018F08D8081100BC0809121028D2972
:103B4000809321020E9449098D810E94A9171AC001
:103B500080912C028D2980932C02F4CF8D810E94BC
:103B6000BF09DD2079F0D0948D81805E883018F017
:103B70009D8091103DC0809121028D218093210272
:103B80000E94490988E0E81AF10894E0E916F10476
:103B900010F40E94D507CC20B1F080912B0280FD5B
:103BA00012C0D80112961C928595859585950E9424
:103BB0004D0AC8010E94391B80912B02859585957D
:103BC00085950E947E0A60E0C8010F900F900F90CB
:103BD0000F900F90DF91CF911F910F91FF90EF9079
:103BE000DF90CF90BF90AF909F908F900C94B008D3
:103BF00080912C028D2180932C02C2CF29812F70BD
:103C0000D22E3981307F303219F0D29490EFD92200
:103C10008D80882089F0282D213099F1AA20F1F19A
:103C20009920A9F1D80115968C91159780FF8CCF1A
:103C30008F7015968C932BC0AA20B1F09091220220
:103C40008D2D892B911003C00E9476099BCF31E006
:103C50009312FACF20910D0322FD94CF981709F407
:103C600091CF809322028ECF911006C00E9443090B
:103C70008D2D0E94800986CF41E0941609F482CFF1
:103C8000F5CFAA2031F055E0591508F47BCF8D2DE2
:103C9000DBCF84E0891508F475CFEACF992041F392
:103CA000BD81B93349F4EFEFF7EE23E0E150F04086
:103CB0002040E1F700C000008D810E94BF0962CF63
:103CC000898186958695837069F0813009F05ACF95
:103CD0008D8199819370A11002C090E080E00E94D4
:103CE000F70750CF8D8199819370A11002C090E0A9
:103CF00080E00E94E10746CF8D81AA2029F00E9432
:103D000057060E9499093ECF0E94A006FACF8981EA
:103D1000837009F07CC0A11035CF2D8122952695A6
:103D20002770220F220F4D814F7050E070E060E04D
:103D3000022E04C0440F551F661F771F0A94D2F746
:103D40008D8080E090E0DC0184FE0FC08FE090E089
:103D5000A0E0B0E004C0880F991FAA1FBB1F2A95DE
:103D6000D2F780959095A095B09599809694969469
:103D7000292D2370223059F1233009F441C080905D
:103D8000230290902402A0902502B09026022130B8
:103D900099F0842B952BA62BB72B9C01AD012821E4
:103DA00039214A215B2129833A834B835C83CA01F1
:103DB000B9010E94390AE6CE842A952AA62AB72A92
:103DC000A5019401282B392B4A2B5B2BECCF842B9C
:103DD000952BA62BB72B4091230250912402609182
:103DE0002502709126024C015D0184269526A626A7
:103DF000B72689829A82AB82BC82C501B401D9CF31
:103E00004A015B01882A992AAA2ABB2AF2CFAA2052
:103E100009F452C0998090FEB5CE2D812295269549
:103E20002770220F220F4D814F7050E070E060E04C
:103E3000022E04C0440F551F661F771F0A94D2F745
:103E4000BD8080E090E0DC01B4FE0FC08FE090E028
:103E5000A0E0B0E004C0880F991FAA1FBB1F2A95DD
:103E6000D2F780959095A095B09589808694869498
:103E7000282D2370223079F1233009F43FC080903F
:103E8000270290902802A0902902B0902A022130A7
:103E9000B9F0842B952BA62BB72B9C01AD012821C3
:103EA00039214A215B2129833A834B835C83CA01F0
:103EB000B9010E94430A66CEA980A1FE63CEADCFB0
:103EC000842A952AA62AB72AA5019401282B392BE2
:103ED0004A2B5B2BE8CF842B952BA62BB72B40913D
:103EE0002702509128026091290270912A024C0108
:103EF0005D0184269526A626B72606C04A015B01E9
:103F0000882A992AAA2ABB2A89829A82AB82BC82F1
:103F1000C501B401CECF29812F702983AA2029F0B1
:103F2000822F0E944D0A8D818FCE8D810E94800943
:103F300089810E947E0A26CE3D81323F09F44FC01E
:103F400068F4303F41F1313F09F441C0AA2009F43F
:103F50006FC09110F9CD89818F713EC04D81433F73
:103F600009F442C0443F91F7AA2009F455C02981C1
:103F70002F712983822F0E944D0A80910D0382FDAB
:103F800049C0898038E0839EC001112483608093FA
:103F90002B02882D21C0AA20A1F054E0591508F465
:103FA000F1CD89818F71898381E090E0A0E0B0E05C
:103FB000098004C0880F991FAA1FBB1F0A94D2F75B
:103FC0008ECF85E0A82EA91408F4DCCDEACF898134
:103FD0008F71AA2009F4ADCF0E944D0AD3CD8981FB
:103FE0008F71AA20C9F3A5CF60E070E0CB01AA20B1
:103FF00009F45FCF29812F7181E090E0A0E0B0E06B
:104000004C015D0104C0880C991CAA1CBB1C2A959C
:10401000D2F77ACF8981E0CF81E00E94B30AAA2447
:10402000A394A91408F0AECD82E00E94B30AAACDF1
:10403000992061F02D81293309F03ECE3FEF47EE04
:1040400053E0315040405040E1F734CE89818F71C8
:1040500070CF61E0C8010E94B00889839A8389808B
:104060009A8024EF82162CE5920609F459CB08F0C9
:1040700053C049ED84164CE5940609F42CCB28E294
:1040800041E065EE5AED85165CE5950609F44BCBEB
:1040900026E241EE61EE88ED88168CE5980609F47B
:1040A00042CBD80112969C91992309F450C01092EA
:1040B0001F0289809A8026E182162CE5920608F07C
:1040C00039CB32E083163CE5930608F443CB0E94DB
:1040D0007D1990930D0380930C0389809A8026E1CB
:1040E00082162CE5920608F04DCB32E083163CE5B3
:1040F000930608F039CB60910C0380900D03898200
:1041000084E090E00E94672C698182E290E00E9446
:10411000672C0E94D213E7CA89809A8026EF821604
:104120002CE5920609F402CB27E245EE66EE37EF66
:1041300083163CE5930609F4D1CA45EF84164CE595
:10414000940609F0AECF27E245EE64EEC7CA898037
:104150009A8026E182162CE5920609F0BCCB80916C
:104160002102992309F4ADCB8A7A91E009F490E019
:10417000909320028111A3CB89E20E941D090E9425
:104180004909B1CA1F93CF93DF9380916402807F66
:10419000A9F480916102882389F080912E02C09158
:1041A0002D0270915F0260916002A0916202B09155
:1041B0006302D62FD72316E0C81304C0DF91CF9136
:1041C0001F91089590E0109711F0DF3F19F40196C8
:1041D0008770F2CF189F9001199F300D1124F901BB
:1041E000E15DFD4F41816413F2CF40814713EFCF72
:1041F00042814111ECCF438154814A1B5B0B483C07
:10420000510528F7809164028F7080618093640269
:10421000F901EC5CFD4F80818F70806180838FE5B8
:1042200092E00E94391BDF91CF911F910C940D08F1
:10423000AF92BF92CF92DF92EF92FF920F931F93B4
:10424000CF93DF93CDB7DEB72B970FB6F894DEBFD1
:104250000FBECDBF8C0185E0F801DE0117960190FD
:104260000D928A95E1F7D8011296EC9012979C91E5
:1042700011968C9111971396CD90DC902FE5A22E7C
:1042800022E0B22E30915F024091600260916202A2
:10429000709163026115710529F0232F24232F3FAC
:1042A00009F04CC1EE2009F457C18F8198850E9416
:1042B000F008F82E882309F44FC186E0F801AFE535
:1042C000B2E001900D928A95E1F780915F029091A2
:1042D00060020E94E4080E94C2201DC02091640276
:1042E000522F507F683C710508F0CAC05111EBC0D5
:1042F000FE2C841322C0391320C0E1101EC02F7081
:104300002061209364028FE592E00E94391B809126
:104310006402F80185838F2D2B960FB6F894DEBFCB
:104320000FBECDBFDF91CF911F910F91FF90EF9006
:10433000DF90CF90BF90AF900895C114D10429F0C1
:10434000282F29232F3F09F0BBC020E0E0912E0247
:1043500040912D0256E020FD2FC0CD2829F0282FB6
:1043600029232F3F09F0A9C020E0F22FF170DF2EA2
:10437000E0912E0240912D0256E020FD34C0EE2047
:1043800051F280916402816080936402F12CC3CF6A
:104390002E2F30E05E9FF0011124E15DFD4F618121
:1043A000861306C06081961303C062816E116AC0D5
:1043B0002F5F3F4FE22FE770E413EACFCECF2E2FCF
:1043C00030E05E9FF0011124E15DFD4F61818613B5
:1043D00006C06081961303C062816E11D0CF2F5F3B
:1043E0003F4FE22FE770E413EACF8F8198850E9458
:1043F000E408292F22952F70903268F0225F2F70E9
:10440000223080F49F7059F0D80115969C91907FCE
:1044100031F4D12C0AC09F7011F08823D1F3805E53
:104420008830B8F3C8010E94391BFD2C74CF8F81EE
:1044300098850E94F008882309F48EC0EE2009F4C4
:104440008BC080916402803270F020915F023091C5
:1044500060023A8329831B82DD82CC828E83CE0167
:1044600001960E94391B86E0F801AFE5B2E00190A9
:104470000D928A95E1F70E94C220FF24F3944BCF5E
:10448000511135C08FE592E00E94391B86E0EFE5BF
:10449000F2E0DF011D928A95E9F778CF8F81988548
:1044A0000E94F0088111DFCF8091640281608093C7
:1044B0006402C8010E94391B2ECF21E02E2555CF62
:1044C00021E02E2543CF8413B2CF3913B0CFE110B2
:1044D000AECFF8012583C8010E94391B86E0F801A0
:1044E000AFE5B2E001900D928A95E1F714CF841305
:1044F0009ECF39139CCFE1109ACFF8012583C801D4
:104500000E94391B86E0D5011D928A95E9F703CFF9
:104510008413C4CF3913C2CF8091640280FDDECFF3
:10452000982F907FD9F2F8018583903FA1F2982FC0
:10453000907F905F8F70892B8583CDCFF090610243
:10454000F601E61BF70BBF01F110C8CE683C710500
:10455000C8F6FE2CE110DCCFC8010E94391B8DCFBC
:104560001F93CF93DF93CDB7DEB767970FB6F8945D
:10457000DEBF0FBECDBF4B8B5C8B962F6D8B7E8BC2
:104580008F8B611110922C021A8A85E0FE017396BE
:10459000DE011D9601900D928A95E1F79F8786E0D6
:1045A000FE013D96DE01179601900D928A95E1F786
:1045B000CE0107960E941821882389F016E0809189
:1045C0002E0290912D02891349C067960FB6F89478
:1045D000DEBF0FBECDBFDF91CF911F91089586E062
:1045E000FE013796DE01119601900D928A95E1F752
:1045F0008F81988520912D0240912E026A857B85BE
:10460000672BE1F289238F3FC9F230E0C90101969F
:10461000877099274817190671F40E94D2131092D7
:104620002D0210922E0286E0EFE5F2E0DF011D92EE
:104630008A95E9F7C3CF96E0929FD001939FB00D82
:104640001124A15DBD4FFE01319601900D929A9506
:10465000E1F780932D020E940D08B0CF819FC00129
:104660001124815D9D4F0E941821882309F4ADCF4C
:1046700080912E0290E001968770992780932E02F8
:104680009ECF1F93CF93DF93EC01162F8F8180FF76
:104690000BC0888180FF23C09091D90291609093D4
:1046A000D90286950E94B91A8F8181FF06C0212FF9
:1046B0004B816A8189810E94D8118F8182FF05C058
:1046C0008E81882379F00E949E1A8F8183FF03C018
:1046D00081E08093D302DF91CF911F9108950E94D2
:1046E000F50CE2CF0E94C807F0CFCDB7DEB72F9709
:1046F0000FB6F894DEBF0FBECDBF84B7877F84BFEF
:104700000FB6F894A895809160008861809360004E
:10471000109260000FBE80E890E00FB6F89480938E
:104720006100909361000FBE85B7806885BF85B733
:10473000806885BF8BE899E09093BD018093BC01B0
:104740000E94AD0B0E94260C8091E2008460809351
:10475000E20078948091F002882399F08091E9003A
:104760001091EC001795112717958F70182B109248
:10477000E9008091E80083FD0E9420141F701093CF
:10478000E90082E084BD93E095BD9AEF97BD8093E8
:104790006E001092F1011092F2011092F30110924A
:1047A000F4010E94870C8093040180910401882306
:1047B00009F41CC180E08093150186E08093160106
:1047C0000E94870C81110E941C2980910401809114
:1047D000040195E0811190E09093010385E0891B2D
:1047E0008093F50287EF0E94060581E30E9406058B
:1047F00083E30E94060582E30E94060586E30E9489
:10480000060586E60E94060587E90E94060586ECF5
:104810000E94060584E30E94060585E30E940605C2
:104820008AE0E2E0F3E0DF01282F1D922A95E9F704
:10483000E7EFF2E0DF011D928A95E9F790E080E072
:104840000E94612C8A3E9E4F11F00E94D81682E091
:1048500090E00E94532C8093EF020E947D19909368
:104860000D0380930C0383E090E00E94532C282FCB
:1048700030E050E040E02C873D874E875F87CA01DB
:10488000B9010E94390A0E94870C811102C00E945E
:1048900022298091D40181113BC090E080E00E94E8
:1048A000612C8A3E9E4F21F00E94D8160E947D11F5
:1048B00088E090E00E945B2C6093D9027093DA024A
:1048C0008093DB029093DC028091D8028360809316
:1048D000D8026E7F71F40E947D1188E090E00E9402
:1048E0005B2C6093D9027093DA028093DB02909381
:1048F000DC020E94B2070E94C8078091D90280FFA3
:1049000004C060E086950E94B91A81E08093D401CA
:1049100080910401811106C084EF8093060185EF28
:104920008093050140910601A42FA295AF70B0E0DD
:1049300091963C9191974F7081E090E0BC01042EDC
:1049400001C0660F0A94EAF7262F2095232391963B
:104950002C93919792962C919297262B92962C932A
:10496000929730910501E32FE295EF70F0E021A1DD
:104970003F70032E01C0880F0A94EAF7982F909594
:10498000922391A392A1892B82A390962C9180A12E
:1049900090E002C0959587953A95E2F78170880F6F
:1049A00030E002C0359527954A95E2F72170822BB9
:1049B0008093DB019091040181E0982790936C0231
:1049C000891B8093690287E091E09093DF028093D6
:1049D000DE0288E1682E712C90E4592E21E0A22E8F
:1049E00023E0B22ECE0101966C01B2C186E0E3CE87
:1049F0008091F002843009F430C00E94C807809191
:104A0000D601811109C0F092D6018091D90281703E
:104A10008093D5010E94F50C1092F9010FB6F8941D
:104A2000A895609260000FBE5092600083B7817FAE
:104A3000846083BF83B7816083BF7894889583B790
:104A40008E7F83BF0FB6F894A8958091600088612F
:104A500080936000109260000FBE8091E701882370
:104A600051F00E946410E7EFF2E081918111ABC236
:104A7000AE16BF06D1F78091F002853009F4B8CFA9
:104A80000E94D2130E94D5071092D6018091D501C1
:104A9000882349F08091D90281608093D90260E037
:104AA00086950E94B91A0E949E1A5BC19394FF0CCE
:104AB00045E094126BC10F5F1F4F0A30110509F0DA
:104AC0005BC18FEF8F83888719860E948D09816073
:104AD000782F9B878A874F8158856985892F0E9407
:104AE000B02275C108E210E057EFE52E5EE0F52E2A
:104AF000883109F486C1E8F48F3009F447C060F4C6
:104B0000863069F1893009F435C000ED17E08FEC8B
:104B1000E82E87E0F82E75C18531B9F7F0E0E55F42
:104B2000FD4FE4910E2F10E0E2E7EE2EEEE0FE2EB8
:104B300068C104EF11E04DE9E42E4FE0F42E843219
:104B400009F45FC1853271F18332F9F6E9E0F2E0F0
:104B50000591149178E6E72E7DE0F72E52C1F0E042
:104B6000EC5EFD4FE4910E2F10E0B8E5EB2EBDE0BA
:104B7000FB2E47C1E695F0E0EF5EFD4FE4910E2F6E
:104B800010E0A8EAEA2EADE0FA2E3BC1E695F0E08F
:104B9000E25FFD4FE4910E2F10E0F3EEEF2EFDE00B
:104BA000FF2E2FC18E2F63E00E94772BE92FF0E0BC
:104BB000EA5FFD4FE4910E2F10E069EDE62E62E111
:104BC000F62E1FC1E12FF0E0E659FD4F80818F5F87
:104BD000808361E0812F0E943C1921E08091DA01FD
:104BE0008F3F64F4E12FF0E0E659FD4F8081815062
:104BF000808360E0812F0E943C1921E08091DA01DE
:104C0000082E000C990B62E070E00E94A52B8093A7
:104C1000DA0121110E94EF0A86E0E4EEF2E0D6010B
:104C200001900D928A95E1F78090E6029090E7025C
:104C3000E090E802F090E9021092E6021092E7029A
:104C40001092E8021092E902882D89291C2D0D2D61
:104C500091F08091E2029091E3020E94F10A9C019E
:104C60008091EB02882309F459C190912901921790
:104C7000130608F461C18E2D8F2909F448C0809174
:104C8000E0029091E1020E94F10A9C018091EA0207
:104C9000882309F4AEC125363105C8F18F3F19F0DC
:104CA0008F5F8093EA02EE2059F00E941E069FEF6C
:104CB0001E140CF491E0899F802D11248093E8024A
:104CC000FF2059F00E941E069FEF1F140CF491E084
:104CD000899F802D11248093E9023091E802209170
:104CE000E9023323A1F0222391F065EB3603C001E2
:104CF0001124992309F45FC19093E80245EB240342
:104D000090011124332309F45AC13093E9028091B0
:104D1000E6029091E702892B9091E802892B90910D
:104D2000E902892B11F00E94990986E0E12FF02F0A
:104D3000A4EEB2E001900D928A95E1F70E94D507AA
:104D40009091DC01891721F00E94D5078093DC0146
:104D50008091F002FF24F39400E112E1853009F420
:104D60008ACE0E94641081110E94CF0AE7EFF2E020
:104D7000ADEDB1E010E000E0802EE1908D918E1558
:104D800009F499CE8E25912CFF24F394982F9F211E
:104D900009F48CCE0E94870C882399F099828A822C
:104DA000EF2081E009F480E08B830E948D0981600F
:104DB000782F9D838C8349815A816B81892F0E9432
:104DC000B022F801E352FE4F80818F2580838091CD
:104DD000D702882309F465C08091D602E091D902F8
:104DE000E695E81BE093D202823009F07BCEF0E03A
:104DF000E95EFD4FE4910E2F10E094E4E92E9DE072
:104E0000F92E8091D302882361F01092D3020E9480
:104E1000951A9093D1028093D0021092D5021092ED
:104E2000D4020E94951A9C018091D0029091D102E7
:104E3000A901481B590B4F3F5F4798F54091D90195
:104E40004423B1F01092D9014091D7015091D8017B
:104E5000241B350B2F3F3F4758F4405D5A48509371
:104E6000D8014093D7012091D80228602093D8021E
:104E70008090D4029090D502800F911F9093D10220
:104E80008093D00280ED92E0F70109958091D402E1
:104E90009091D502892B29F4892819F081E080931B
:104EA000D90140910601E42FE295EF70E05EF0E059
:104EB000208130910501E32FE295EF70E05EF0E094
:104EC000808190E03F7002C0959587953A95E2F712
:104ED000880F991F8270992730E04F7002C0359576
:104EE00027954A95E2F721703327822BE091DB0169
:104EF000EE0FEE0FE82BE093DB0110916C02EF70E8
:104F0000F0E0E65CFE4F80819091DA01890F80939A
:104F1000DA0120E082300CF461CE54CE4091ED02F3
:104F2000FAE04F9FA00111244217530708F0A3CEC7
:104F30008F5F8093EB0202C08F3FD1F7882059F03A
:104F40000E94D4059FEF18140CF491E0899F802DE6
:104F500011248093E602992059F00E94D4059FEF16
:104F600019140CF491E0899F802D11248093E7029D
:104F70003091E602332309F47ECE2091E70222230A
:104F800009F479CE45EB3403C0011124992359F07B
:104F90009093E60255EB250390011124332339F059
:104FA0003093E70268CE81E08093E602F3CF81E0A0
:104FB0008093E70260CE81E08093E8029FCE81E09B
:104FC0008093E902A4CE09BD19BD09B400FEFDCF4E
:104FD0008091D8008F7D8093D8008091E00082601E
:104FE0008093E0008091E00081FDFCCF0E94D2130D
:104FF00042CD232B09F054CE8ACE1F920F920FB6CA
:105000000F9211242F933F934F935F936F937F934E
:105010008F939F93AF93BF93EF93FF938091E100A2
:1050200082FF09C08091E20082FF05C08091E1000B
:105030008B7F8093E1008091DA0080FF24C0809113
:10504000D80080FF20C08091DA008E7F8093DA0044
:105050008091D90080FF99C080E189BD82E189BD3E
:1050600009B400FEFDCF81E08093F0028091CB0176
:10507000811109C00E94AD0B0E94260C8091E200B4
:1050800084608093E2008091E10080FF17C08091EE
:10509000E20080FF13C08091E2008E7F8093E200E7
:1050A0008091E20080618093E2008091D80080626C
:1050B0008093D80019BC85E08093F0028091E100D4
:1050C00084FF27C08091E20084FF23C080E189BD76
:1050D00082E189BD09B400FEFDCF8091D8008F7DAB
:1050E0008093D8008091E1008F7E8093E1008091D1
:1050F000E2008F7E8093E2008091E20081608093E5
:10510000E2008091CA01882309F445C084E08093BD
:10511000F0028091E10083FF27C08091E20083FFCD
:1051200023C08091E100877F8093E10082E080933B
:10513000F0021092CA018091E1008E7F8093E1001D
:105140008091E2008E7F8093E2008091E200806196
:105150008093E20042E060E080E00E94F60B8091E4
:10516000F00088608093F000FF91EF91BF91AF91C4
:105170009F918F917F916F915F914F913F912F916F
:105180000F900FBE0F901F90189519BC1092F0024F
:105190001092CB0178CF8091E30087FD02C081E0BF
:1051A000B6CF83E0B4CF1F920F920FB60F921124A7
:1051B000FF920F931F932F933F934F935F936F93A0
:1051C0007F938F939F93AF93BF93CF93DF93EF938F
:1051D000FF9309EE10E0F8018081C091EC00C795C3
:1051E000CC27C7958F70FC2EF82A1082C0EFD0E034
:1051F0008881877F888378940E942014F801108228
:10520000888188608883CF2DCF70C083FF91EF9114
:10521000DF91CF91BF91AF919F918F917F916F91CE
:105220005F914F913F912F911F910F91FF900F90A0
:105230000FBE0F901F90189562E070E08AE291E037
:105240000C94162A62E070E08AE291E00C941F2A26
:105250000E948B19882361F08AE193E00E949119E2
:1052600081E090E00E94F82A892B11F40C948E19A9
:10527000089580911903883039F460E08AE193E061
:105280000E944123109219030895CF93DF9300D019
:1052900000D00F92CDB7DEB76D8379830E942829A5
:1052A00090E080E00E94F82A9C0180E02115310501
:1052B00001F5ED81F981D901AD5EBC4F8C918193EF
:1052C0002F5F3F4F25303105B1F788E193E00E9411
:1052D000B1190E94641ADC01CB010296A11DB11D17
:1052E00080930F0390931003A0931103B0931203C4
:1052F00081E00F900F900F900F900F90DF91CF9162
:105300000895CF93DF9300D000D000D0CDB7DEB7A3
:105310006E837D830E94392980910F039091100341
:10532000A0911103B091120389839A83AB83BC834C
:10533000BC01CD010E943B1AEE81FD8190E080E02E
:105340002191DC01AD5EBC4F2C9301968530910517
:10535000B9F788E193E026960FB6F894DEBF0FBE4A
:10536000CDBFDF91CF910C94A8198EE1489B02C06C
:105370008150E1F7489BFECF0895589880E28A95C6
:10538000F1F7589A0895FC013BE03A95F1F720E0D7
:1053900090E080E031E040E14A95F1F7880F489BCA
:1053A00002C08160232742E04A95F1F7000040E106
:1053B0004A95F1F79F5F6913EECF90E19A95F1F767
:1053C00099B132E03A95F1F7000040E14A95F1F7E2
:1053D000917092272081920F90830895EF92FF920F
:1053E0000F931F93CF93DF930F92CDB7DEB7198240
:1053F0008C017C01E60EF11C0E151F0561F481E0A5
:105400009981911180E00F90DF91CF911F910F91C1
:10541000FF90EF9008950E94B52968E0CE010196B3
:105420000E94C329F80181938F01E6CF9093240352
:105430008093230360932203509A589A089590937F
:10544000240380932303609322035098589AE89A88
:10545000E9E6F0E080818C7F808308956150770BCE
:1054600091E001C0990F6A95EAF720E031E09111CF
:1054700008C0222391F0589A80E28A95F1F7589853
:105480000895492F482339F0589A232740E24A9536
:10549000F1F79695ECCF5898F9CF5898EDCFFF9249
:1054A0000F931F93CF93DF93EC018C01060F111D17
:1054B000C017D10731F4DF91CF911F910F91FF9069
:1054C0000895F9900E94BD2968E08F2D0E942E2A30
:1054D000EFCF1F920F920FB60F9211240F931F93CD
:1054E0002F933F934F935F936F937F938F939F93EC
:1054F000AF93BF93EF93FF93CF93DF930F92CDB70B
:10550000DEB719820E94B52967E0CE0101960E949C
:10551000C329282F269526952695982F9295957024
:10552000322F3570930F392F33709695969587707B
:10553000930F891344C08981811141C08091220356
:105540008217E8F180E18A95F1F7589A509AA2E023
:10555000AA95F1F700C0B8E02B9F900111240091AB
:10556000230310912403020F131F5898F80165813B
:10557000662321F0868197810E944F2A0E94BD29CF
:10558000F0E1FA95F1F758985098589A80E18A9589
:10559000F1F7D80112966C911297662331F11396A8
:1055A0008D919C910E94EE29D801ED91FC91882368
:1055B00011F088E001C082E080830E94B5290F903D
:1055C000DF91CF91FF91EF91BF91AF919F918F911B
:1055D0007F916F915F914F913F912F911F910F910B
:1055E0000F900FBE0F901F901895ED91FC91E1CF99
:1055F0000F931F93CF93DF939C0180912203821717
:1056000013060CF471C0890183E0000F111F8A9505
:10561000E1F7C0912303D0912403C00FD11FF89468
:10562000509A589885E08A95F1F70000922F969548
:1056300095702570920F892F837096959695890F96
:10564000082B0E94BD2900C067E0802F0E942E2AEF
:1056500080E18A95F1F75098589A489B17C087E0E7
:1056600090E0489915C06D81662321F18E819F815C
:105670000E94EE2981111EC0509A589AE881F98142
:1056800082E08083789482E090E00DC000C0E5CF96
:10569000019771F4509A589AE881F98181E08083EA
:1056A000789481E090E0DF91CF911F910F91089560
:1056B00000C0D7CF0E94B52980E28A95F1F75898AB
:1056C000509A80E18A95F1F76A81662321F08B81F7
:1056D0009C810E944F2A0E94BD29E881F981108295
:1056E000789490E080E0DFCF84E090E0DCCF991BFD
:1056F00079E004C0991F961708F0961B881F7A95C9
:10570000C9F78095089587FB082E062687FD8195A9
:1057100067FD61950E94772B0EF4919507FC8195AA
:105720000895AA1BBB1B51E107C0AA1FBB1FA617E8
:10573000B70710F0A61BB70B881F991F5A95A9F73A
:1057400080959095BC01CD01089597FB072E16F426
:10575000009407D077FD09D00E94912B07FC05D05B
:105760003EF4909581959F4F0895709561957F4F78
:105770000895EE0FFF1F0590F491E02D09940E940B
:10578000EF2C332312F48A1B9B0B0C94C92B0E9421
:10579000EF2CB7FF0895821B930B0895CF92DF92F1
:1057A000EF92FF92CF93DF93CDB7DEB72A970FB674
:1057B000F894DEBF0FBECDBF89879A87A985BA85C9
:1057C0002D913D914D915C9129833A834B835C836C
:1057D000232B242B252B41F424E239ED4BE557E014
:1057E00029833A834B835C8369817A818B819C8195
:1057F0002DE133EF41E050E00E949B2C69017A01DA
:10580000A7EAB1E49B01AC010E94BA2C69837A83B8
:105810008B839C83ACEEB4EFA70196010E94C82C49
:105820009B01AC0189819A81AB81BC81820F931F5E
:10583000A41FB51FB7FF03C00197A109B048E985B0
:10584000FA8580839183A283B3839F772A960FB6CC
:10585000F894DEBF0FBECDBFDF91CF91FF90EF90E8
:10586000DF90CF9008950E94CE2B089580E091E0C4
:105870000E94CE2B0895B0E0A0E0809300019093A9
:105880000101A0930201B09303010895FC0141506E
:10589000504030F001900616D1F73197CF010895AE
:1058A000882799270895F999FECF92BD81BDF89A6E
:1058B000992780B50895A6E1B0E044E050E00C944B
:1058C0008D2CA8E1B0E042E050E00C948D2C262F06
:1058D000F999FECF92BD81BDF89A019700B40216E6
:1058E00039F01FBA20BD0FB6F894FA9AF99A0FBE94
:1058F00008950396272F0E94682C0E94672C252F5D
:105900000E94682C242F0C94682C0196272F0E944B
:10591000682C0C94672CDC01CB01FC01F999FECFBB
:1059200006C0F2BDE1BDF89A319600B40D92415027
:105930005040B8F70895052E97FB1EF400940E947E
:10594000B22C57FD07D00E94CD2C07FC03D04EF49B
:105950000C94B22C50954095309521953F4F4F4F68
:105960005F4F089590958095709561957F4F8F4F0B
:105970009F4F08950E94EF2CA59F900DB49F900D0E
:10598000A49F800D911D11240895B7FF0C94BA2C8B
:105990000E94BA2C821B930B0895A1E21A2EAA1B17
:1059A000BB1BFD010DC0AA1FBB1FEE1FFF1FA217CF
:1059B000B307E407F50720F0A21BB30BE40BF50BCC
:1059C000661F771F881F991F1A9469F76095709555
:1059D000809590959B01AC01BD01CF010895A29FD8
:1059E000B001B39FC001A39F700D811D1124911DB3
:1059F000B29F700D811D1124911D0895F894FFCF61
:105A00006006660669066F068406840684068406B8
:105A10008406840684068406720677067B06810661
:105A2000920698069C0601152915C0162915C01660
:105A30005C157D15C0167B1688166D1764176F17D9
:105A40005A175F175F175A175F175F178B175F1784
:105A500096175F175F175F175F175F175A175F1764
:105A60005F175A175F177D175F175F17A717A717DD
:105A7000A717A717A717A717A717A717A717A1173C
:105A80005F176D176117D41BDA1BDE1BEC1BF01BB5
:105A9000F41BF81BFE1B061C0A1C0E1C121C1E1CF1
:105AA000221C261C2A1C301C4E1C381CE81B161CF1
:105AB0001A1C021C341C441C571C5D1C051D0C1DAB
:105AC000111D161D1B1D201D251D2A1D2F1D341DDA
:105AD000391D3C1D411D441D471D4A1D4D1D501DB6
