:100000000C9428030C94BE2A0C946F030C946F0379
:100010000C946F030C946F030C946F030C946F0398
:100020000C946F030C946F030C9452280C942829A1
:100030000C94411A0C946F030C946F030C946F038F
:100040000C946F030C946F030C946F030C946F0368
:100050000C946F030C94681A0C946F030C946F0348
:100060000C946F030C946F030C946F030C946F0348
:100070000C946F030C946F030C946F030C946F0338
:100080000C946F030C946F030C946F030C946F0328
:100090000C946F030C946F030C946F030C946F0318
:1000A0000C946F030C946F030C946F030501090209
:1000B000A10185020901A1000509190129081500FE
:1000C0002501950875018102050109300931158165
:1000D000257F95027508810609381581257F9501D0
:1000E00075088106050C0A38021581257F95017572
:1000F000088106C0C005010980A101850319012AF4
:10010000B700150126B700950175108100C0050CD8
:100110000901A101850419012AA002150126A002E6
:10012000950175108100C005010906A10105071997
:10013000E029E715002501950875018102950175F3
:100140000881010507190029FF150026FF00950603
:1001500075088100050819012905950575019102A9
:10016000950175039101C009023B00020100A0FA4C
:10017000090400000103010100092111010001220D
:1001800040000705810308000A090401000103007B
:100190000000092111010001227B000705820320D4
:1001A000000A12011001000000084D44363501001C
:1001B000010200012C034400610063007400790017
:1001C0006C002D004D0061006E00750066006F0030
:1001D00072006D00200028003500780036002900EC
:1001E00000000E037400730068006F00720074005A
:1001F0000000040309041E0F0500047F3F1F643242
:1002000014643214783C1E1E140A05222325262865
:10021000292A2C2D2F3032333536383A3B3D3E409B
:1002200042434547494A4C4E5051535557595A5CE1
:100230005E6062646668696B6D6F71737577797BF8
:100240007D7F81838587898A8C8E90929496989AF7
:100250009C9E9FA1A3A5A7A8AAACAEAFB1B3B4B60C
:10026000B8B9BBBCBEBFC1C2C3C5C6C7C9CACBCC67
:10027000CDCED0D1D2D2D3D4D5D6D7D7D8D9D9DA3A
:10028000DADBDBDBDCDCDCDCDCDDDDDDDDDCDCDCAF
:10029000DCDCDBDBDBDADAD9D9D8D7D7D6D5D4D3D7
:1002A000D2D2D1D0CECDCCCBCAC9C7C6C5C3C2C1AC
:1002B000BFBEBCBBB9B8B6B4B3B1AFAEACAAA8A709
:1002C000A5A3A19F9E9C9A98969492908E8C8A89C1
:1002D000878583817F7D7B79777573716F6D6B699E
:1002E00068666462605E5C5A5957555351504E4C73
:1002F0004A4947454342403E3D3B3A383635333222
:10030000302F2D2C2A292826252322FFAA7F55406D
:1003100000010101010101010101020202020202C8
:10032000020202030303030303030304040404049B
:100330000404050505050506060606060707070762
:100340000708080808090909090A0A0A0B0B0B0C17
:100350000C0C0D0D0D0E0E0E0F0F0F1010111111B4
:100360001212131314141515161617171818191935
:100370001A1A1B1B1C1D1D1E1E1F2020212222239A
:100380002424252626272829292A2B2C2D2D2E2FDB
:1003900030313232333435363738393A3B3C3D3EF2
:1003A0003F404142434445464748494A4C4D4E4FE1
:1003B00050515354555658595A5B5D5E5F616264A3
:1003C000656668696B6C6D6F7072737577787A7B30
:1003D0007D7E8082838587888A8C8E8F9193959687
:1003E000989A9C9EA0A2A3A5A7A9ABADAFB1B3B5A7
:1003F000B7BABCBEC0C2C4C6C9CBCDCFD1D4D6D883
:10040000DBDDDFE2E4E7E9EBEEF0F3F5F8FAFDFF20
:1004100029001E001F002000210022002B001400D4
:100420001A00080015001700E1000400160007007C
:1004300009000A00E0001D001B000600190005006D
:10044000000000003500000FE20001000000000085
:10045000E3002C004C00025123002400250026005C
:1004600027002D001C0018000C00120013002E00A5
:100470000B000D000E000F003300340011001000BF
:10048000360037003800310001002A002F0030000C
:100490000000000001514B0028004E000000000049
:1004A00001001E021F0220022102220201001E0082
:1004B0001F002000210022000100390049004A00ED
:1004C0004D00460001007A007B007C007D000100A9
:1004D0000000000001000100010001000000000018
:1004E000010001000100035123022402250226021B
:1004F0002702010023002400250026002700010018
:1005000001000100010001000100010001000100E3
:100510000100010001000100010001002F02300272
:100520000000000001000100005C0100000000006C
:1005300001000100010001000100010001000100B3
:1005400001005200010001000100010050005100B3
:100550004F00010001003A003B003C003D003E001E
:100560000000000001000100010001000000000087
:100570000100005C01000100010001000100010018
:100580000100010001000100010001000100010063
:100590000100010001000100010001003F004000D6
:1005A00041004200430001000100010044004500F9
:1005B0000000000003514F01010050010000000045
:1005C0000100010001000100010001000100010023
:1005D0000100010001000100C35CC65CC85CCA5C8C
:1005E00001000100C45CC75CC95CCB5C0100010078
:1005F00000000000010001000100010000000000F7
:1006000001000100010001000100010001000100E2
:1006100001000100010001000100010001000100D2
:100620000100AA00A800A900010001000100AC001F
:10063000AE00AB000100010001000100010001005B
:1006400000000000010001000100010000000000A6
:1006500011241FBECFEFDAE0DEBFCDBF04B603FE2C
:1006600027C080916A0390916B03A0916C03B091B5
:100670006D038730904BA740B04BD1F410926A03C2
:1006800010926B0310926C0310926D0314BE84B72A
:10069000877F84BF0FB6F894A89580916000886129
:1006A00080936000109260000FBEE0E0F8E30995CF
:1006B00011E0A0E0B1E0E4EAFBE502C005900D9294
:1006C000A03CB107D9F723E0A0ECB1E001C01D9236
:1006D000AA36B207E1F70E94C6230C94532D0C945E
:1006E00000009091500392FF06C0282F28712830F7
:1006F000F9F4877F846093FF06C0282F2871283182
:10070000F1F4877E84612091510320FF06C0382FC9
:1007100038713830D9F4877F816021FF06C0282FD7
:1007200028712831D1F4877E816194FD877E0895F8
:10073000282F24712430F9F68B7F8860DCCF282F96
:100740002471243101F78B7E8861DDCF382F317120
:10075000313019F78E7F8860E0CF282F2171213149
:1007600021F78E7E8861E1CF0F931F93CF93DF93A4
:10077000972F70E026E0929F600D711D1124FB0100
:1007800098E4899FE00DF11D1124EE0FFF1FE05F3B
:10079000FB4F05911491E801003E110509F464C076
:1007A00070F50133110509F4ACC098F40932110554
:1007B00009F4A0C00A32110509F4AAC001301105DC
:1007C00009F465C004501109013A110508F058C038
:1007D0005EC00933110509F440C002381105E9F182
:1007E0000533110509F47FC0083A110508F097C0D8
:1007F000053A110518F3E801A497D06448C0043EF7
:10080000110509F455C068F4023E1105E1F1033EFB
:10081000110509F442C0005E11090830110580F588
:1008200036C0063E110509F44EC0073E110509F415
:100830004FC0011523E5120708F09CC0011582E5A1
:10084000180708F001C10F3F110511F008F076C03C
:100850000D3E110548F2D0651AC080915003837097
:10086000B1F0C0EED0E013C08091500380FD15C1FF
:100870009091510390FF0BC0C3EED0E084FF07C0FE
:10088000D0E0C0E004C08091500382FDF5CFCE01DE
:10089000DF91CF911F910F9108958091500382FDB8
:1008A000FFC09091510390FDDCCF84FFF0CFE8CFE3
:1008B0008091510381FFEBCF80915003C7EED0E0D0
:1008C00084FDDECFE4CF8091500383FDF7CFDFCFEF
:1008D0008091500383FDE7C09091510391FFE5CFD4
:1008E000C4EED0E0D4CF8091500385FFD0CFC9E2D1
:1008F000D0E0CDCF8091500385FFC9CFC5E3D0E0D4
:10090000C6CF8091500386FFC2CFCAE2D0E0BFCFEE
:100910008091500386FFBBCFC1E3D0E0B8CF0F3B3F
:10092000110508F078CF085AE02FF0E0EE0FFF1F16
:10093000EF56FE4FC081D181D464A9CF011591E556
:10094000190798F4011520E5120708F062C0011597
:1009500080E2180708F49BCFC8019054811590419C
:1009600008F08ECFDF70D06A92CFD02FCC27C16F26
:10097000D06A8DCF011589E51807A0F5011598E516
:10098000190708F077C0011525E51207C8F401150D
:1009900084E5180708F069C0C80183709927C1E091
:1009A000D0E002C0CC0FDD1F8A95E2F706950695D0
:1009B00090E2099F80011124C02BD12BDA6867CF08
:1009C000C80195558F3F910511F008F059CF802F40
:1009D0000E947103C82FD0E0DC2FCC27CC27DF7119
:1009E000D06255CF01152AE5120708F448C0C801A6
:1009F00090568115904208F043CF812F8F710E944D
:100A00007103C82FD0E0DC2FCC27CC27DF71C02B9F
:100A1000E7CFC80154E0969587955A95E1F7837022
:100A2000C695C695C37090E2C99FE0011124D82BEA
:100A3000037081E090E002C0880F991F0A95E2F7E9
:100A4000C82BD92BDC6823CF98012370332781E092
:100A500090E002C0880F991F2A95E2F7C695C695C7
:100A600020E2C29FE0011124EBCFD02FCC27C46F2E
:100A7000D06A0DCFD02FCC27C06FD06A08CF802F7F
:100A80008F700E94710394E0D695C7959A95E1F70F
:100A9000CF709C2FEC01D069FACEC9E3D0E0F7CE3D
:100AA000C2EED0E0F4CEC6EED0E0F1CEF894E82F5E
:100AB000E295EF70F0E041A18F7021E030E0B901E4
:100AC00002C0660F771F8A95E2F7CB01962F9095AB
:100AD000942391A392A1892B82A3789408958430C2
:100AE000C1F138F48230C9F0833029F1813039F016
:100AF00008958530E1F1863009F447C0089580916A
:100B00002D03482F460F5527551F860F4F3F510580
:100B10000CF08FEF80932D03089580912901482FC9
:100B2000460F5527551F860F4F3F51050CF08FEF8D
:100B300080932901089580912801482F460F552759
:100B4000551F860F4F3F51050CF08FEF8093280102
:100B5000089580912701482F460F5527551F860F6E
:100B60004F3F51050CF08FEF80932701089580913E
:100B70002601482F460F5527551F860F4F3F510519
:100B80000CF08FEF80932601089580912501482F66
:100B9000460F5527551F860F4F3F51050CF08FEF1D
:100BA000809325010895843071F138F48230A9F0E2
:100BB0008330F1F0813031F00895853079F186305D
:100BC000C1F1089580912D03681720F4861B80934E
:100BD0002D03089510922D0308958091290168171F
:100BE00020F4861B8093290108951092290108950D
:100BF00080912801681720F4861B809328010895AE
:100C000010922801089580912701681720F4861B0F
:100C1000809327010895109227010895809126015D
:100C2000681720F4861B80932601089510922601F0
:100C3000089580912501681720F4861B8093250173
:100C4000089510922501089580912C0380FF12C011
:100C50006091280185E0689FB00111247595679522
:100C60007595679560387105A8F561157105A1F155
:100C7000862F089581FF09C06091280185E0689F53
:100C8000B001112475956795EDCF6091280182FD23
:100C90000AC020912B032223D1F09091270160916B
:100CA0002801291728F085E0689FB0011124DACFC8
:100CB000269F9001112485E0829FA001839F500D03
:100CC0001124692F70E0CA010E94FA2BCBCF65E096
:100CD00070E0CECF8FE7089581E0089580912C03D6
:100CE00080FF0CC06091260170E075956795759541
:100CF00067956115710549F1862F089581FF06C03A
:100D00006091260170E075956795F3CF609126019B
:100D100082FD0BC090912A039923A1F060912501D7
:100D200080912601961738F0682F70E060387105C1
:100D300000F38FE70895899FC001112470E00E949D
:100D4000FA2BF4CF61E070E0D7CF81E00895E3E1C2
:100D5000E80FE331E0F5F0E0EB5AF24D0C940E2C85
:100D60000E94240681958093270308950E942406FB
:100D7000FACF0E94240681958093260308950E944D
:100D80002406FACF0E946E068093280308950E94DD
:100D90006E068195F9CF0E946E0681958093290396
:100DA00008950E946E06FACF815F990B21E030E032
:100DB00001C0220F8A95EAF780912503822B809348
:100DC0002503089580912C03816080932C0308955E
:100DD00080912C038260F9CF80912C038460F5CF41
:100DE000409126038D3E59F48091270387FF0DC063
:100DF0001092270341110BC010922B0308C08E3EA6
:100E000081F48091270318169CF3442381F080918C
:100E1000280390912903892B09F05AC010922A03C4
:100E200008958F3E49F447FFF0CF1092260380913A
:100E300027038111ECCFE0CF803F19F41416ACF3F7
:100E4000E4CF90912803893F29F41916F4F6109203
:100E50002803DBCF8A3F19F497FFD7CFF8CF9091C3
:100E600029038B3F29F497FFD0CF10922903CDCFD0
:100E70008C3F19F41916CCF3C8CF9FE0980F983027
:100E800090F4815F990B21E030E0B90102C0660F58
:100E9000771F8A95E2F7CB018095909125038923EE
:100EA00080932503B2CF8D3F31F480912C038E7F48
:100EB00080932C03AACF8E3F21F480912C038D7F49
:100EC000F7CF8F3F09F0A1CF80912C038B7FF0CF1C
:100ED0000895AF92BF92CF92DF92EF92FF920F935D
:100EE0001F93CF93DF93082F162FE901473908F09E
:100EF00046E9E42FF0E0E05FFC4F111111C0E491EE
:100F00003E2F2E2F2983E8833A83DF91CF911F91C3
:100F10000F91FF90EF90DF90CF90BF90AF9008952A
:100F2000E12EF12C249146E0049F50011124CC24A1
:100F3000CA94D12CC501B6010E94E62B802F90E007
:100F4000880F991F35E5369FA001379F500D11245A
:100F5000841B950BF82FFF0FF80FA6014E195F09A0
:100F6000249FC001259F900D1124E92F1F9FA001F0
:100F70001124452F5527D601A41BB50B2A9FA0018C
:100F80002B9F500D1124352F86010F1B11090E9D2B
:100F9000D0010F9DB00D1E9DB00D1124AB2FBB27AE
:100FA000CA1ADB0A2C9DD0012D9DB00D112463308F
:100FB0007105D1F0FCEFAF16F3E0BF0670F46130BD
:100FC0007105B1F062307105B9F04FEFA416B104AC
:100FD00008F098CF392FEB2F95CF6430710579F059
:100FE00066307105B9F38ECFE52F322F292F8ACFC6
:100FF000E22F252F392F86CF3B2FE22FF7CF322F2D
:101000002B2F80CF80911903982F9E7F61F48170E0
:1010100082608093190380911C03873918F086E958
:1010200080931C0308958635B0F381708465F1CFF9
:10103000E6E1F3E01182828184608283089508955D
:10104000FA0181110994FB01FDCFE0911E03F0919B
:101050001F03309721F00190F081E02D099480E08A
:10106000089520917702309178022817390771F09E
:101070009093780280937702E0911E03F0911F0312
:10108000309721F00680F781E02D09940895209192
:101090007502309176022817390771F09093760225
:1010A00080937502E0911E03F0911F03309721F0A9
:1010B0000084F185E02D0994089580913E0290917D
:1010C0003D02981301C008958F5F8770FACFE92F12
:1010D000EE0FE90FEE0FE80F8E2F877041E001C091
:1010E000440F8A95EAF7E695E695E69585E0E89F50
:1010F000F0011124E050FE4F30E020E070E051910B
:10110000DF011197CB01022E02C0969587950A94B4
:10111000E2F7817081958527842385278C932F5F43
:101120003F4F2530310559F70895E92FEE0FE90FAC
:10113000EE0FE80F9E2F9770E695E695E69585E011
:10114000E89FF0011124E050FE4F50E040E080E0C5
:10115000219130E0092E02C0369527950A94E2F7D6
:1011600021703327042E01C0220F0A94EAF7822B44
:101170004F5F5F4F4530510559F70895BF92CF92A9
:10118000DF92EF92FF920F931F93CF93DF938C0127
:10119000C0903702D0903802E0903902F0903A02C5
:1011A0008091330290913402A0913502B0913602C1
:1011B000C82AD92AEA2AFB2ACFE1D0E0BC2ED701DF
:1011C000C6010C2E04C0B695A795979587950A94ED
:1011D000D2F780FD0EC0219788F7B12C8B2DDF91BF
:1011E000CF911F910F91FF90EF90DF90CF90BF9024
:1011F0000895B8018C2F0E94B403019761F3EECFDC
:10120000FF920F931F93CF93DF93FC0182810081A4
:101210001181C081F180882311F1662301F1C80199
:101220000E94BE08D82F682FC8010E946708EC2FC3
:10123000F0E086E0F89EE00DF11D112488E4D89FCF
:10124000E00DF11D1124EE0FFF1FE05FFB4F8591B4
:101250009491DF91CF911F910F91FF900895C80154
:101260000E949508D82FE3CFCF93DF93D82FC92FB3
:101270000E94BE086D2F7C2FDF91CF910C94B40398
:101280000E943409282F892F8F70392F32953F7093
:10129000903C80F43A30B0F4343020F4323090F4A2
:1012A00080E008953630E1F781E0283E88F0213F64
:1012B000B9F70EC03C3011F03F3091F78695869516
:1012C0008695089581E0203F39F018F4283E40F7D4
:1012D0000895243F29F7FCCF0895A4ECB1E0EFEF87
:1012E00090E02D91821751F0EF3F19F4211101C0C8
:1012F000E92F9F5F9630A9F7EF3F09F408950E2E6E
:10130000000CFF0BEE53FE4F82830895E4ECF1E0F6
:101310009191891303C0DF0111971C9291E0EA3C7F
:10132000F907B1F7089580913202811110923202CB
:1013300008958091310290913C02892B90912D0269
:10134000892B8093C20190913202992391F0892BCD
:101350008093C20120E084EC91E0FC013081019691
:1013600031112F5F31E08A3C9307B9F721110E94B8
:101370009309E0911E03F0911F03309731F0028032
:10138000F381E02D82EC91E009940895882339F0EF
:1013900090913102892B809331020C949909089520
:1013A000882341F080959091310289238093310206
:1013B0000C949909089580E008952FB7F8948091CE
:1013C000FB019091FC01A091FD01B091FE012FBFA6
:1013D00008950E94DD092091260330912703232BD5
:1013E00021F08093220390932303209128033091CE
:1013F0002903232B21F08093200390932103E09174
:101400001E03F0911F03309749F082E0809324037C
:101410000480F581E02D84E293E009940895882307
:1014200009F459C0823871F40E94250881FF53C025
:1014300089E30E946D090E94990989E30E94860947
:101440000C949909833859F40E94250880FF43C001
:1014500083E50E946D090E94990983E5EFCF8438E6
:1014600059F40E94250882FF36C087E40E946D0966
:101470000E94990987E4E2CF9CEF980F913AF0F22D
:1014800090E2980F983088F4877021E030E0A9014D
:1014900002C0440F551F8A95E2F7CA0180959091CA
:1014A0003102892380933102CBCF9BE5980F933093
:1014B00020F490E080E00C94310898E5980F973183
:1014C00020F490E080E00C9447088D3E20F00E94CC
:1014D000F0060C94E909089590E080E00E9431083C
:1014E00090E080E00E94470810923C0210922D028A
:1014F0000E94990986E0E4E2F3E0DF011D928A95FB
:10150000E9F710922B0310922A0310922C030C94EB
:10151000E90960933302709334028093350290930B
:1015200036020C946C0A60933702709338028093F1
:10153000390290933A020C946C0A0F931F93CF9345
:10154000DF9300D000D0CDB7DEB741E050E060E0DF
:1015500070E004C0440F551F661F771F8A95D2F7AD
:101560008091370290913802A0913902B0913A02ED
:101570008A019B01082B192B2A2B3B2B09831A83E9
:101580002B833C83C901B8010F900F900F900F90EF
:10159000DF91CF911F910F910C94930A0F931F939A
:1015A000CF93DF9300D000D0CDB7DEB741E050E05D
:1015B00060E070E004C0440F551F661F771F8A95D6
:1015C000D2F7409550956095709580913702909133
:1015D0003802A0913902B0913A028A019B01082396
:1015E00019232A233B2309831A832B833C83C901B4
:1015F000B8010F900F900F900F90DF91CF911F9136
:101600000F910C94930A90913B02809589238093CB
:101610003B02282F277039F4282F082E000C330B9B
:101620009217130621F49091510392FF07C08595FC
:10163000859585950E94CE0A10923B020895CF931E
:10164000DF9300D000D0CDB7DEB78FB7F8942091EC
:10165000FB013091FC014091FD015091FE01298375
:101660003A834B835C838FBF69817A818B819C81B4
:101670000F900F900F900F90DF91CF9108950C94E1
:101680001F0B9C014FB7F8948091FB019091FC01D6
:10169000A091FD01B091FE014FBF821B930B0895F5
:1016A0008091F6010895FC01CB012091D601309183
:1016B000D7012617370790F0009729F42091E8000A
:1016C0002E772093E80040E0009751F4411108C0C4
:1016D0008091E80082FF31C080E00895C901F3CF16
:1016E000209130032223A9F12530A9F12091E800AF
:1016F00023FD2DC02091E80022FDEACF2091E800D3
:1017000020FFE2CF3091F3002091F200009719F012
:101710002830310558F041E02830310509F040E02B
:101720002091E8002E772093E800CECF419140939E
:10173000F10001972F5F3F4FE9CF8091300388235D
:1017400041F0853041F08091E80083FFC1CF81E016
:10175000089582E0089583E008958091D00187FF85
:1017600013C08091E80082FF06C08091E8008B776B
:101770008093E80004C0809130038111F2CF089576
:10178000809130038823D9F38091E80080FFF8CF5F
:101790008091E8008E77ECCF2091E4003091E50055
:1017A00095E6A9012091EC00822F817020FF06C0F0
:1017B0008091E80080FF06C080E008952091E80055
:1017C00022FD1AC080913003882389F0853089F08A
:1017D0008091EB0085FD0FC02091E4003091E50081
:1017E00042175307F9F29150E1F684E0089582E040
:1017F000089583E0089581E00895E8EDF0E08081A8
:101800008E7F80831092E2001092DA001092E10045
:10181000A0EEB0E08C9181608C9380818F77808383
:1018200019BCA7EDB0E08C918E7F8C9380818F7E68
:1018300080831092CF010895EF92FF920F931F9330
:10184000CF937C018B010E94CC0BC82F811117C054
:101850008091E80085FD0BC08091E8008E77809331
:10186000E8000E94CC0B882399F3C82F08C0F70129
:1018700081917F018093F1000150110949F78C2F6C
:10188000CF911F910F91FF90EF900895982F909313
:10189000E900242F762F50E0891731F07091EC0089
:1018A0002091ED005091F00021FD06C09F5F973020
:1018B00071F78093E90008953091EB003E7F3093FB
:1018C000EB003091ED003D7F3093ED003091EB0067
:1018D00031603093EB007093EC002093ED00509357
:1018E000F0002091EE0027FDE1CF0895CF92DF9226
:1018F000EF92FF920F931F93CF93DF93C8EDD0E049
:1019000088818F7E8883E7EDF0E08081816080832D
:1019100084E082BF81E08093CF0188818E7F8883BD
:1019200002EE10E0F80110821092DA0081EEC82E6B
:10193000D12CF601108288818F7788838881806816
:10194000888388818F7D888319BC10923003109220
:10195000CE011092ED011092CD0190EEE92EF12C06
:10196000F70180818B7F808388818160888342E05A
:1019700060E080E00E94460CF60180818E7F8083CB
:10198000F801808181608083808188608083F70195
:1019900080818E7F8083888180618883DF91CF9171
:1019A0001F910F91FF90EF90DF90CF90089580915D
:1019B0003103811110C08091D80080618093D800DC
:1019C0008AE18A95F1F700C08091D90080FF0AC0B2
:1019D00081E08093310381E090913103913009F0EF
:1019E00080E0089582E0809331030E94FD0B109205
:1019F0003003F1CF609116018091190380FF20C060
:101A00008091150143E0849FC001112486529D4FAF
:101A1000519A2BB12D7F3BB132605FB7F894FC0136
:101A2000649FE00DF11D1124BF0168177907D1F4FF
:101A30005FBF8FE594E00197F1F700C000000895C3
:101A4000809117019091180123E0829FF0011124E9
:101A5000E652FD4F8917A0F61182108212828F5F25
:101A60003396F8CFFC014191CF01E8E03BB900008B
:101A700000C047FF2BB9440F000000C000C000C0E9
:101A80002BB900C0EA9591F7D0CFE9E1F3E080816E
:101A90008E7F80830E941808E6E1F3E082818160F6
:101AA00082832FEF80E792E0215080409040E1F761
:101AB00000C000000C94FA0C9091190390FF14C020
:101AC000909117012091180133E0939FF0011124A8
:101AD000E652FD4F921710F00C94FA0C818360834C
:101AE00042839F5F3396F6CF0895CF93DF9300D064
:101AF0000F92CDB7DEB79091190390FF0FC09E01F2
:101B00002F5F3F4F0E9469074B8169818A810F9047
:101B10000F900F90DF91CF910C945C0D0F900F9070
:101B20000F90DF91CF910895CF93DF93EC01EC817B
:101B3000F0E0E55FFD4F4491E9E1F3E062818181EE
:101B40000E94750D8C818F5F8C83DF91CF910895FA
:101B5000CF93DF93EC01E9E1F3E0438162818C8173
:101B60000E94750D8C818F5F8C83DF91CF910895DA
:101B70000F931F93CF93DF9300D00F92CDB7DEB7B3
:101B80008C018091D70281110AC09E012F5F3F4FC7
:101B900046E96FEF0E9469078A818093D702F801B6
:101BA0006481613049F06230F1F08091D70240E009
:101BB000662331F040E019C06091D70240E080E038
:101BC0000E945C0DF801848190E0019663E070E072
:101BD0000E94FA2B84830F900F900F90DF91CF918A
:101BE0001F910F9108954091D70280E060E0E8CF07
:101BF000EF92FF921F93CF93DF93EC0110E0EE245E
:101C0000EA94F12C60911901161770F00E94FA0CF9
:101C10009A818C8190FF25C08F5F8C83DF91CF915B
:101C20001F91FF90EF90089580911701810F9927E0
:101C3000991F9C01220F331F280F391F26523D4F39
:101C400070E0C7010E94FA2B962F8C8140911C03F3
:101C500060911B03199F800D11240E9469071F5F6B
:101C6000D1CF8150DACF9F92AF92BF92CF92DF92C5
:101C7000EF92FF920F931F93CF93DF93EC018A8132
:101C8000BB24BA9480FD02C0BB24B3948C81A09085
:101C90001901811109C091E0B91202C08FEF8A0DBC
:101CA0008093D90281E08C83F12CE12CEA14F0F0CE
:101CB0000E94FA0C9091D902E1E0BE1259C08091C5
:101CC00019018150992319F08FEF890F91E08093CA
:101CD000D9029C83DF91CF911F910F91FF90EF90DC
:101CE000DF90CF90BF90AF909F90089580911701A3
:101CF0008E0D9F2D911D8C01000F111F080F191FB4
:101D000006521D4FF80111821082128234E0C32E58
:101D1000D12C912C8091D902890D83312CF162E173
:101D20000E94D82B892F082E000C990B8E159F0529
:101D300091F480911C038C9DA0018D9D500D112468
:101D40005595479555954795980160911B0380914E
:101D50001A030E9469079B0CF1E0CF1AD108D1F653
:101D60008FEFE81AF80AA2CF87FFDDCF8A0DDBCF0D
:101D7000892F90E001966091190170E00E94FA2B82
:101D8000982FA5CFFF920F931F93CF93DF93EC0172
:101D90008C81811109C081E08C831092D80292E07D
:101DA00090931401809313011091170190911801E1
:101DB00083E0189FF0011124E652FD4F812F89170F
:101DC00068F100E093E0F92E60911901061760F1C7
:101DD0000E94FA0C809113012091D802280F2093C1
:101DE000D80290911401980F90931401191654F48D
:101DF000022E000C330B409119014150550B241752
:101E0000350734F0819580931301813009F41C82E9
:101E1000DF91CF911F910F91FF9008951182108251
:101E200012828F5F3396CBCFE02FF0E070E0CF01CE
:101E30000E94FA2B810F482F50E02091D802022EE9
:101E4000000C330BE217F307BCF020911401022EB3
:101E5000000C330B2E173F077CF08F9D900111244F
:101E600026523D4F40911C0360911B0380911A0341
:101E70000E9469070F5FA8CFFA01EE0FFF1FE40F62
:101E8000F51FE652FD4F118210821282F3CFEF92BE
:101E9000FF920F931F93CF93DF93CDB7DEB72E97AB
:101EA0000FB6F894DEBF0FBECDBF8D879E87AD8580
:101EB000BE8514961C91212F30E0D9010E94442D3B
:101EC0009B01AC010E940F2D69837A838B839C83D5
:101ED000E0E2F0E0E11BF109A5E5B0E09B01AC0117
:101EE0000E940F2D69877A878B879C879F01DF016E
:101EF0000E94142C9B01AC010E941A2D6D837E83DD
:101F00008F8398879B01AC0189819A81AB81BC81C9
:101F1000280F391F4A1F5B1F69857A858B859C8531
:101F20000E94222DF22E422F50E099E29F1588F157
:101F3000A3E02A9F9001112435952795122F109523
:101F400000E085E5E82EEF1880911901081778F177
:101F50000E94FA0CED85FE85948181E0992319F0A9
:101F6000903219F48FEF8093120180911201890F42
:101F7000AD85BE8514968C932E960FB6F894DEBF71
:101F80000FBECDBFDF91CF911F910F91FF90EF90CA
:101F9000089585E590E0841B950B9C01220F331F6B
:101FA000280F391F37FFC8CF2F5F3F4FC5CF8E2D6A
:101FB00001FD8F2D40911701400F5527551F9A01A4
:101FC000220F331F240F351F26523D4F412F6091A2
:101FD0001B030E9469070F5FB7CF0F931F93CF9327
:101FE000DF93EC0110E000E09091190190171106C9
:101FF00009F06CF40E94FA0C8C8190E001968170DB
:1020000099278C83DF91CF911F910F910895809133
:102010001701A801480F511D9A01220F331F240FE9
:10202000351F26523D4F4C8160911B0380911A034E
:1020300096959017110651F04CF0442349F04091C9
:102040001C030E9469070F5F1F4FCECF4423B9F3D3
:1020500040E0F7CFCF93DF93D82FC92F81E0809353
:10206000E9008FEF9091E800815095FD06C095ED55
:102070009A95F1F700008111F5CF8091E80085FF76
:1020800016C050E040E068E070E08D2F9C2F0E9469
:102090001C0C8091E8008E778093E80088E0ED2F9B
:1020A000FC2FAEEEB1E001900D928A95E1F7DF9141
:1020B000CF91089522E02093E9002FEF3091E800BE
:1020C000215035FD06C035ED3A95F1F7000021119C
:1020D000F5CF2091E80025FF0BC050E040E066E01E
:1020E00070E00E941C0C8091E8008E778093E800DD
:1020F0000895CF93DF9300D00F92CDB7DEB79091C4
:102100003003943019F589836A837B8382E080935E
:10211000E9008FEF9091E800815095FD06C095EDA4
:102120009A95F1F700008111F5CF8091E80085FFC5
:102130000DC050E040E063E070E0CE0101960E94E7
:102140001C0C8091E8008E778093E8000F900F9030
:102150000F90DF91CF910895BC0183E00C9479102A
:10216000BC0184E00C947910AF92BF92CF92DF92C1
:10217000EF92FF920F931F93CF93DF9300D000D085
:1021800000D0CDB7DEB78FE7E82E81E0F82E94E4DB
:10219000A92E93E0B92E00E0CC24C394D12CD70112
:1021A0008D917D01F894E82FE295EF70F0E021A188
:1021B0008F70A60102C0440F551F8A95E2F7CA012D
:1021C000922F982B91A392A18095892382A3789432
:1021D00000C0EBE8F1E030E020E010E04191A42FF6
:1021E000A295AF70A05EB0E08C9190E04F7002C0FD
:1021F000959587954A95E2F780FD47C08C2D022E74
:1022000001C0880F0A94EAF7182B2F5F3F4F263042
:10221000310521F7F701319780810E94560550EA78
:102220005A95F1F7D5018D915D01181781F1FD01E6
:102230003197108381E0082BB5E8EB16B1E0FB067F
:1022400009F0ADCF10914303002319F181E0809391
:1022500034030E94DD09909333038093320380910D
:102260003203909133030E94410B0697B0F0A12FE7
:10227000B0E0A95CBC4F86E0E4E4F3E001900D928D
:102280008A95E1F71092340308C080E0BDCF80E06A
:10229000D2CF809134038111E2CF0E94D70C182F46
:1022A00060914303882309F45AC01A821982FE01FF
:1022B000339684E0DF011D928A95E9F7862F90E03E
:1022C000BE016F5F7F4F895C9C4F0E949A298111EC
:1022D00026C0809136038F5F809336038630E8F105
:1022E000E0913503F0E0E95CFC4F86E0DF011D92F0
:1022F0008A95E9F7011101C0012F802F26960FB6AC
:10230000F894DEBF0FBECDBFDF91CF911F910F912B
:10231000FF90EF90DF90CF90BF90AF900895109214
:102320003603E0913503F0E0BF01695C7C4FDE01CC
:1023300011969E01295F3F4F10E0FB014191BF01C3
:102340009D91491731F0AF0141505109FA01908335
:10235000182FA217B30789F7CDCF10E0CBCF70E0CD
:10236000695C7C4F8091350390E0895C9C4F0E94B2
:10237000D629C0CF0F931F93CF93DF938B01D82F14
:10238000C92F0E940208A8016D2F7C2F88E090E0E1
:10239000DF91CF911F910F910C94CE2CE9E1F3E0E6
:1023A0008DE0808311828FEF828386E9838314829C
:1023B000E6E1F3E08281836082836DE070E08FEF7D
:1023C00096E90C94BA11CF93DF9300D000D0CDB72B
:1023D000DEB780911D03833018F48F5F80931D0357
:1023E0008091190390911A03A0911B03B0911C03D3
:1023F00089839A83AB83BC83BC01CD010F900F907E
:102400000F900F90DF91CF910C94BA11CF93DF937F
:1024100000D000D0CDB7DEB780911D03882319F01E
:10242000815080931D038091190390911A03A0910C
:102430001B03B0911C0389839A83AB83BC83BC01CB
:10244000CD010F900F900F900F90DF91CF910C94D2
:10245000BA11AF92BF92CF92DF92EF92FF920F9399
:102460001F93CF93DF9300D000D000D00F92CDB751
:10247000DEB7182FF62E042FD22E9091190390FF5D
:1024800096C0E92FE695AE2FB0E0AC5ABE4F8C91C6
:10249000809316039E7F923009F045C09E012F5F06
:1024A0003F4F812F0E9469074B8169818A810E9479
:1024B0005C0D80911A03811308C080911B038F115A
:1024C00004C080911C03801729F08091180382605A
:1024D0008093180310931A03F0921B0300931C03BC
:1024E000DD2009F464C08091190390911A03A09132
:1024F0001B03B0911C038C839D83AE83BF83BC01FF
:10250000CD0127960FB6F894DEBF0FBECDBFDF9189
:10251000CF911F910F91FF90EF90DF90CF90BF90E0
:10252000AF900C94BA11823019F400911C03C1CF02
:10253000863019F410911A03BCCF8930D9F3893150
:1025400009F0B7CFE9518E2F8170C82EE695F0E0E3
:10255000E55FFC4FA590B490E12CBB24609119017C
:10256000E61618F00E94FA0CA4CF2E2D30E0EA9C5B
:10257000C001EB9C900D112470E00E94E62B812F8E
:10258000C11013C0860F90911701A901490F511D69
:102590009A01220F331F240F351F26523D4F402F23
:1025A0006F2D0E946907E394D9CF861BECCF279645
:1025B0000FB6F894DEBF0FBECDBFDF91CF911F9154
:1025C0000F91FF90EF90DF90CF90BF90AF90089564
:1025D000E9E1F3E0818121E043816281885F0C942D
:1025E0002912E9E1F3E0818121E043816281885091
:1025F0000C942912E9E1F3E0628121E1620F08F411
:102600006FEF21E0438181810C942912E9E1F3E02D
:10261000628121E1621B08F460E021E04381818155
:102620000C942912E9E1F3E0438121E1420F08F41F
:102630004FEF21E0628181810C942912E9E1F3E0FE
:10264000438121E1421B08F440E021E06281818165
:102650000C9429124F925F926F927F928F929F9269
:10266000AF92BF92CF92DF92EF92FF920F931F93A0
:10267000CF93DF93FC016280448081E08483EBE0B0
:10268000F2E07490EAE8F2E0E491812C75E0972E94
:10269000F2E0CF2EDD24D394AA24AA94B12C5524A1
:1026A0005A94E7190E2F10E080911901881690F0C6
:1026B000DF91CF911F910F91FF90EF90DF90CF901E
:1026C000BF90AF909F908F907F906F905F904F9052
:1026D0000C94FA0CE82CF12C82E0861568F09E9C94
:1026E000F0019F9CF00D1124E358FD4F80911A03D7
:1026F000808380911B038183411023C09E9CF00145
:102700009F9CF00D1124E358FD4F1382128280919B
:1027100017018E0D9F2D911D9C01220F331F280F35
:10272000391F26523D4F9E9CF0019F9CF00D1124B5
:10273000E358FD4F4281618180810E946907839443
:10274000B3CF9E9CE0019F9CD00D1124C358DD4F58
:102750008B818823E9F081508B83859DC0011124F2
:102760006C8170E00E94E62BFB01FF27E55FFD4FC7
:102770008491E82FE719E59DC0011124B8010E945A
:10278000E62B80911C03689FB00111247A83BFCF90
:102790000E948B2CAC0190911C03969591589C9DA6
:1027A00090019D9D300D1124232F3327421753078D
:1027B0000CF0ADCF82E0861588F40E948B2CB50119
:1027C0000E94FA2B88830E948B2C20911B03269554
:1027D000622F70E00E94FA2B280F29839E9CF00143
:1027E0009F9CF00D1124E358FD4F128280911C0331
:1027F000893C58F088EC9E9CF0019F9CF00D1124C0
:10280000E358FD4F8483838382CF8431A0F784E132
:10281000F2CFCF93C0915103C2FB992790F998173B
:1028200081F080FBC2F9C09351036091500384E0B2
:1028300090E00E94BC2C6C2F82E290E0CF910C942F
:10284000BC2CCF91089510923102E4ECF1E086E0C7
:10285000DF011D928A95E9F70C946C0A0E942314FB
:102860002FEF84E39CE0215080409040E1F700C0CE
:10287000000087E797E7909301088093000888E1BC
:102880009AE00FB6F894A895809360000FBE9093DD
:102890006000FFCF0F931F93CF93DF9300D000D042
:1028A000CDB7DEB741E050E060E070E08A019B0107
:1028B00004C0000F111F221F331F8A95D2F709830E
:1028C0001A832B833C83C901B8010E94890A0F90A7
:1028D0000F900F900F90DF91CF911F910F910C945B
:1028E00023141F93CF93DF93CDB7DEB7AA970FB60C
:1028F000F894DEBF0FBECDBF80ED91E0FC010196E4
:102900002091F100208321E0883D9207B9F7809162
:10291000D101893009F456C0C8F4823009F4B1C03D
:10292000833009F480C0813071F18091E80083FF29
:1029300078C28091D0019091D1019A3008F071C293
:10294000E92FF0E0E859F24D0C940E2C8A3009F48E
:1029500087C08B3051F78091D001813231F780915F
:10296000D4019091D501892B01F78091E800877FF0
:102970008093E8000E94AD0B8091D20180931101F9
:102980000E942314D2CF8091D001813A71F68091B8
:10299000E800877F8093E8008091D4019091D50171
:1029A000892B61F468E08EEE91E070E00E94530B99
:1029B0008091E8008B778093E800B7CF60E090E0EB
:1029C00080E0F3CF8091D001813209F0AECF8091C9
:1029D000D4019091D501029708F0A7CF8091E8002B
:1029E000877F8093E8008091E80082FF17C0909174
:1029F000F3008091F200029729F48091F1008B7F1F
:102A0000813021F48091F1008093F6018091E800FB
:102A10008B778093E8000E94AD0B87CF80913003C5
:102A20008111E1CF82CF8091D001813A09F07DCF31
:102A30008091D4019091D501892B09F076CF8091B6
:102A4000E800877F8093E8008091E80080FFFCCF5A
:102A5000809111018093F1008091E8008E77D9CFA9
:102A60008091D001813209F060CF8091E800877FAA
:102A70008093E8000E94AD0B8091D3018093CC013C
:102A800054CF8091D001813A09F04FCF8091E80076
:102A9000877F8093E8008091E80080FFFCCF8091E1
:102AA000CC01D8CF803899F0823809F0BAC1809132
:102AB000D4018F70873008F0B4C18093E900809111
:102AC000EB0085FB882780F91092E90006C0809111
:102AD000CD019091ED01911182609091E800977F76
:102AE0009093E8008093F1001092F1008091E8004B
:102AF0008E7793C1882309F481C1823009F091C196
:102B00008091D201811184C18091D4018F702FEF07
:102B1000280F263008F085C18093E9002091EB0052
:102B200020FF76C1933031F48091EB008062809376
:102B3000EB006EC19091EB0090619093EB0021E06F
:102B400030E001C0220F8A95EAF72093EA00109244
:102B5000EA008091EB008860EACF811162C1109198
:102B6000D2011F778091E3008078812B8093E3006E
:102B70008091E800877F8093E8000E94AD0B8091F0
:102B8000E80080FFFCCF8091E30080688093E30041
:102B900082E0111183E08093300343C1805882307A
:102BA00008F03FC14091D2015091D3014C3D83E0E8
:102BB000580799F583E08A838AE289834FB7F894AE
:102BC000DE01139620E03EE051E2E32FF0E0509367
:102BD0005700849120FF03C082958F703F5F8F70F4
:102BE0008A30C8F0895C90E08D939D932F5F2431EB
:102BF00061F74FBF8091E800877F8093E8006AE229
:102C000070E0CE0101960E94530B8091E8008B7713
:102C10008093E80006C1805DE6CF2091D401309119
:102C2000D501852F99278330910509F160F4813012
:102C3000910509F472C0029709F0F3C08BE390E0AC
:102C4000E7E6F1E029C08132910509F45AC0829784
:102C500009F0E7C02115310509F469C021303105BB
:102C600009F0DFC08BE790E0ECEAF0E015C0CA01A4
:102C700099274130B1F18230910509F43AC0892B8E
:102C800009F0CFC0E2EFF1E0E4918E2F90E0E2EFA7
:102C9000F1E0009709F4C5C02091E800277F209358
:102CA000E8002091D6013091D7018217930708F4EC
:102CB0009C0140E02115310509F03EC041113CC0A6
:102CC0008091E80082FDA1CF80913003882309F430
:102CD0009CCF853009F499CF8091E80083FFF0CF35
:102CE00094CFE2EEF1E0E4918E2F90E0E2EEF1E09D
:102CF000D0CFE4EBF1E0E4918E2F90E0E4EBF1E053
:102D0000C8CF2115310571F02130310509F089C096
:102D100089E090E0E2E9F1E0BFCF82E190E0E2EA11
:102D2000F1E0BACF89E090E0E9E7F1E0B5CF80E4E7
:102D300090E0E7E2F1E0B0CF80913003882309F41E
:102D400064CF853009F461CF8091E80083FD5DCFC9
:102D50008091E80082FDB4CF8091E80080FFAACF87
:102D60009091F3008091F2002115310519F088301F
:102D7000910550F041E0089709F040E08091E800AB
:102D80008E778093E80096CF44914093F10031967E
:102D9000215031090196E8CF803809F042C0809176
:102DA000E800877F8093E8008091CE018093F10056
:102DB0009DCE811136C01091D201123090F58091D4
:102DC000E800877F8093E8001093CE010E94AD0B4E
:102DD000112311F084E005C08091E30087FDFACF54
:102DE00081E08093300342E061EC81E00E94460C78
:102DF00042E261EC82E00E94460C13C08091D20155
:102E0000813079F481E0933009F080E08093ED0126
:102E10001092E9008091E800877F8093E8000E948B
:102E2000AD0B8091E80083FF0AC08091E800877FA6
:102E30008093E8008091EB0080628093EB00AA967B
:102E40000FB6F894DEBF0FBECDBFDF91CF911F91BB
:102E500008956AEE7EEF90E080E00E94DA2C60E058
:102E600082E090E00E94BC2C60E083E090E00E9451
:102E7000BC2C109233021092340210923502109240
:102E8000360260E084E090E00E94BC2C60E082E2C8
:102E900090E00E94BC2C60E085E090E00E94BC2C99
:102EA00060E086E090E00E94BC2C6FEF87E090E04D
:102EB0000E94BC2C40E050E0BA0188E090E00E9403
:102EC000CE2C60E08DE090E00E94BC2C40E050E011
:102ED000BA0188E190E00E94CE2C60E087E190E0AA
:102EE0000E94BC2C40E050E0BA018CE190E00E94CE
:102EF000CE2C70E060E080E290E00E94DA2C40E0AE
:102F000050E0BA0188E190E00E94CE2C40E050E011
:102F1000BA018FE090E00E94CE2C40E050E0BA0170
:102F200083E190E00C94CE2C8B3258F48530C0F0C5
:102F3000EBEFE80FE632A0F4F0E0EE58F24D0C941F
:102F40000E2C833450F48A3308F050C0853309F4D2
:102F500049C0883329F481E00895833409F442C0DC
:102F600080E008950E942917F6CF80912F03807F7B
:102F700080932F0381E080932E0308950E942E14E6
:102F800090912F03892F8E7F90FF816080932F0374
:102F900080FDE1CF817F80932F03DDCF90912F03C0
:102FA000892F8D7F91FF826080932F0381FFD3CF84
:102FB00080912F038160EFCF90912F03892F8B7F1A
:102FC00092FF846080932F0382FDF2CFC4CF909153
:102FD0002F03892F877F93FF886080932F0383FDC2
:102FE000E7CFB9CF80E00E944A14B5CF8953FBCF19
:102FF0008D51F9CFCF93C82F882309F485C082382B
:10300000C1F40E94250881FD7FC089E30E946D09FB
:103010000E9499092FEF31EE84E02150304080402A
:10302000E1F700C0000089E30E948609CF910C946B
:1030300099098338A1F40E94250880FD65C083E5C5
:103040000E946D090E9499099FEF21EE34E0915092
:1030500020403040E1F700C0000083E5E5CF843830
:10306000A1F40E94250882FD4FC087E40E946D09EB
:103070000E9499098FEF91EE24E08150904020400A
:10308000E1F700C0000087E4CFCF8CEF8C0F813ACE
:1030900008F087C080912E03813079F0823049F1A9
:1030A000811170C080913102823209F06DC08C2F85
:1030B0000E949417811128C067C08091310282322A
:1030C000B1F3C43171F030F4CB3089F0C03161F02C
:1030D00080E005C0C93229F081E0C833C9F78170AA
:1030E000E9CF10922E03F4CF82E080932E0381E08B
:1030F000F6CFCB3481F198F4C43240F4CE3100F5F0
:10310000C73079F1C43121F0CF910895C932E1F788
:1031100080912E02882381F010922E02F5CFC135C6
:10312000C1F061E0C235C1F06AE0CE3469F7809148
:103130002E02CF910C94D30581E080932E03E4CF2F
:10314000CE51EC2FF0E0E65BFE4F808180932E02A3
:10315000DBCF61E0ECCF6AE080912E02CF910C943E
:103160006F0510922D0384E180932901C0932801FB
:103170008CE38093270188E08093260188E2809386
:103180002501C2CF10922E03E4ECF1E08191C81723
:10319000D9F131E0EA3CF307C9F78C2F0E946D09A1
:1031A00045CF80E28C0F883068F4C77021E030E0B2
:1031B00001C0220FCA95EAF780913102822B8093D9
:1031C000310234CF8BE58C0F833038F42C2F24520E
:1031D000330BC901CF910C943108E8E5EC0FE731CE
:1031E00050F4F0E0EE0FFF1FEF56FE4F808191810B
:1031F000CF910C944708CD3E08F486CF8C2F0E94C7
:10320000A706CF910C94E9098C2F0E9486090E9491
:103210009909C3CF0F931F93CF93C82F10E000E0FD
:10322000893311F400E510E08C2F0E94FA17011584
:10323000110531F48C2FCF911F910F910C940F0A2F
:103240008FE99FE00197F1F700C0000001501109DC
:10325000EECFFF920F931F93CF93DF93C62FD42F00
:10326000122F8823A9F060932F020E94DD0990930A
:10327000CB018093CA01C77081E001C0880FCA9555
:10328000EAF7DF91CF911F910F91FF900C94C6093F
:1032900080912F02681334C08091CA019091CB01B4
:1032A0000E94410B883C910558F500E20D0FCD17A7
:1032B000A9F0C770FF24F3948F2D01C0880FCA9521
:1032C000EAF70E94D009083048F48D2F877001C0BA
:1032D000FF0C8A95EAF78F2D0E94C609812F0E9464
:1032E0000A190830A0F4D77081E001C0880FDA9580
:1032F000EAF7DF91CF911F910F91FF900C94D009C5
:10330000C77081E001C0880FCA95EAF7F2CFDF915C
:10331000CF911F910F91FF900895813001F5809119
:10332000370290913802A0913902B0913A02009789
:10333000A105B10579F032E0B695A79597958795E7
:103340003A95D1F7817031F08BEA611101C08CEAB6
:103350000C940A1989EA6111FBCF8AEAF9CF81112D
:103360001CC08091370290913802A0913902B0912F
:103370003A020097A105B10559F0B695A795979522
:103380008795817029F08FE46111E2CF80E5E0CF6D
:1033900081E56111DDCF82E5DBCF0895CF9384E035
:1033A00090E00E94A82CC82F82E290E00E94A82CF6
:1033B000982F8C2FCF910895809118030895109223
:1033C00018030895CF93DF93EC0185E0E9E1F3E082
:1033D000DE0101900D928A95E1F78091160390919C
:1033E0001703A09118038D839E83AF83DF91CF9144
:1033F0000895E0917C02F0E0E658FD4F2081FC0149
:1034000020830895FF920F931F93CF93DF93D09162
:1034100079020D2F10E006581D4FFC01C081F80104
:103420008081C81BFC2E80E01F147CF09C2FC7FD00
:1034300090E0C91BC11114C08823E9F0DF91CF913E
:103440001F910F91FF900C943F0BFA94F80180812B
:103450008F5F808361E08D2F0E948D1981E0E4CF22
:10346000CF5FF80180818150808360E08D2F0E94C2
:103470008D1981E0DFCFDF91CF911F910F91FF90E8
:1034800008951F921FB61F9211248F939F93AF939D
:10349000BF938091FF01811113C08091FB01909136
:1034A000FC01A091FD01B091FE014196A11DB11D4D
:1034B0008093FB019093FC01A093FD01B093FE016A
:1034C000BF91AF919F918F911F901FBE1F90189534
:1034D00078941F921FB61F9211248F939F93AF93DE
:1034E000BF938091FB019091FC01A091FD01B091EF
:1034F000FE010196A11DB11D8093FB019093FC017B
:10350000A093FD01B093FE01BF91AF919F918F9168
:103510001F901FBE1F901895CF92DF92EF92FF92DF
:10352000CF93DF9300D000D0CDB7DEB76B017C0125
:103530000E94D70C81110EC00E941F0BC61AD70A19
:10354000E80AF90AC092F701D092F801E092F90175
:10355000F092FA010F900F900F900F90DF91CF91A2
:10356000FF90EF90DF90CF900895CF93DF9300D03E
:1035700000D0CDB7DEB70E94D70C882341F00F9062
:103580000F900F900F90DF91CF910C941F0B0E9422
:103590001F0B69837A838B839C838091F7019091C1
:1035A000F801A091F901B091FA0129813A814B818A
:1035B0005C81280F391F4A1F5B1FCA01B9010F9098
:1035C0000F900F900F90DF91CF9108950E94D70C2C
:1035D00081110C94DD090E94B51ACB010895609108
:1035E0001903669570E04BE050E08AE191E00E949B
:1035F0009B2C892B19F481E0809317030E94E61A13
:10360000909311038093100380911803846080933A
:1036100018030895CF93DF9300D000D0CDB7DEB765
:103620009091190390FF4CC0882309F442C08B325B
:1036300008F041C08F77880F909119039170892B02
:103640008093190380911803816080931803662387
:1036500081F08091190390911A03A0911B03B091FE
:103660001C0389839A83AB83BC83BC01CD010E9478
:10367000BA1160911903669570E04BE050E08AE161
:1036800091E00E949B2C892BC1F00E94180881E0D8
:103690008093130320E040911C0360911B038091F1
:1036A0001A030F900F900F900F90DF91CF910C9411
:1036B000291281E0C0CF8AE2BECF0E94EF1AE7CF85
:1036C0000F900F900F900F90DF91CF910895809100
:1036D000190386958F5F8B3208F081E061E00C94CE
:1036E0000A1B9091190396958FEF890F913009F479
:1036F0008AE261E00C940A1B9091190390FF07C0C5
:103700009695981720F0961710F40C94671B61E0BB
:103710000C940A1B8F929F92AF92BF92CF92DF922E
:10372000EF92FF920F931F93CF93DF9300D000D0BF
:103730000F92CDB7DEB78C01DC019C9111968C9174
:10374000119713962D913C91232B21F089238F3FC4
:1037500009F0D0C40F900F900F900F900F90DF9151
:10376000CF911F910F91FF90EF90DF90CF90BF907E
:10377000AF909F908F90089527E245EE65EED801B7
:1037800012968C910E94291980913B02877011F347
:10379000D80112968C918823E9F282E00F900F9065
:1037A0000F900F900F90DF91CF911F910F91FF908D
:1037B000EF90DF90CF90BF90AF909F908F900C9440
:1037C000030B26E241EE60EEF8018281DBCF26E2B8
:1037D00041EE62EEF9CF29813A812B5F3C452930D9
:1037E000310508F4C5C489809A8026E182162CE54B
:1037F000920609F405C589809A802BE582162DE58D
:10380000920609F0A4C181E0C9C1E981FA81E350BF
:10381000FC45809150038160E331F105C8F4E8561E
:10382000F24D0C940E2C89819A818B5F9C450997EF
:1038300008F0B2C4E981FA81EC5FFC45E830F1059B
:1038400090F4E555F24D0C940E2C8091500382605B
:1038500080935003A1C4809150038460F9CF80917C
:1038600050038860F5CF80915103816080935103AC
:1038700093C4809151038260F9CF8091500380619D
:10388000E7CF809150038062E3CF80915003806442
:10389000DFCF0E942314809150038068D9CF80919C
:1038A00050038C60D5CF809151038360DFCF80912E
:1038B00050038E7FCDCF809150038D7FC9CF8091F3
:1038C00050038B7FC5CF80915003877FC1CF8091FC
:1038D00051038E7FCBCF809151038D7FC7CF8091D5
:1038E00050038F7EB5CF809150038F7DB1CF8091F3
:1038F00050038F7BADCF0E942314809150038F77AC
:10390000A7CF80915003837FA3CF809151038C7FF9
:10391000ADCF8091500382FB992790F921E0922747
:1039200090FB82F990FB83F993CF80915103982FFC
:10393000909591708E7F892B90FB81F997CF0E9493
:10394000231490915003892F97FB87F9805880CFDB
:1039500061E08EE090E00E94BC2C1EC460E0F9CFD4
:1039600085E35CC480913002811104C089E20E9429
:10397000860956C485E3FBCF809131028272A9800B
:10398000BA8027EDA2162CE5B20680F433ECA3161C
:103990003CE5B306A8F0F501E45CFC45E331F10534
:1039A00008F052C0ED54F24D0C940E2C89809A8090
:1039B0006AE285E22EE582162DE5920609F4AFC093
:1039C000F8018281E080F180882309F4EEC0C7010C
:1039D0000E94BE088983682FC7010E946708B7014B
:1039E00089810E94B4038D839983D8011296AC908B
:1039F000129715969C9092943FE0932280913B02FF
:103A00008770A1F0CA2CAA2091F0892F807F803482
:103A100021F08D81805E883048F082E00E94030BA7
:103A200080913B028770CC24C3948111C12C898181
:103A300082958F70E82EF12C8C3008F0F4C0F701DD
:103A4000EA53F24D0C940E2C8091190380FF26C08E
:103A50008E7F809319038091190390911A03A0918E
:103A60001B03B0911C0389839A83AB83BC83BC0185
:103A7000CD010E94BA110E9418088091180381603C
:103A8000809318039FEFA0E7B2E09150A040B040B0
:103A9000E1F700C000000E94FA0C76CE81608093AE
:103AA000190361E086950E940A1B6ECE41E75BE137
:103AB00067E67BE10E94200867CE47E65BE161E7AD
:103AC0007BE1F8CF41EF52E168EE72E1F3CF48EECF
:103AD00052E161EF72E1EECF46E053E16AEF72E14D
:103AE000E9CF4AEF52E166E073E1E4CF4EE153E102
:103AF00062E173E1DFCF42E153E16EE173E1DACFDE
:103B000046E052E163EE71E1D5CF43EE51E166E06C
:103B100072E1D0CF61E081E0C6CF65E082E00E9433
:103B20007C1B32CE68E086E0FACF6EE089E0F7CF0A
:103B300064E18FE0F4CF67E185E1F1CF61E088E1F6
:103B4000B2CF62E289E1EBCF61E083E2ACCF898062
:103B50009A802CE582162DE5920668F481143CE5E6
:103B60009306F9F04FED84164CE5940609F028CF42
:103B70000E94291709CE89809A802CE582162DE5AE
:103B8000920689F03DE58316930609F019CF8091DE
:103B9000510382FB882780F991E089270E9409144C
:103BA0000FCF0E942E1480E0F9CFC7010E94950824
:103BB000898315CFB981BF70DB2EE981E07F19F0D1
:103BC000D29420EFD222AA20D1F0DD2071F08D8195
:103BD000805E883018F08D8081100BC0809131029A
:103BE0008D29809331020E9499098D810E94FA17D4
:103BF0001AC080913C028D2980933C02F4CF8D81C4
:103C00000E940F0ADD2079F0D0948D81805E88308B
:103C100018F09D8091103DC0809131028D218093DC
:103C200031020E94990988E0E81AF10894E0E91647
:103C3000F10410F40E942508CC20B1F080913B02E1
:103C400080FD12C0D80112961C92859585958595A8
:103C50000E949D0AC8010E948A1B80913B028595A3
:103C6000859585950E94CE0A60E0C8010F900F905F
:103C70000F900F900F90DF91CF911F910F91FF90B8
:103C8000EF90DF90CF90BF90AF909F908F900C946B
:103C9000000980913C028D2180933C02C2CF298192
:103CA0002F70D22E3981307F303219F0D29490EFBC
:103CB000D9228D80882089F0282D213099F1AA20E1
:103CC000F1F19920A9F1D80115968C91159780FFF3
:103CD0008CCF8F7015968C932BC0AA20B1F0909149
:103CE00032028D2D892B911003C00E94C6099BCFF3
:103CF00031E09312FACF2091510322FD94CF98170F
:103D000009F491CF809332028ECF911006C00E94A9
:103D100093098D2D0E94D00986CF41E0941609F4B5
:103D200082CFF5CFAA2031F055E0591508F47BCFAA
:103D30008D2DDBCF84E0891508F475CFEACF99206B
:103D400041F3BD81B93349F4EFEFF7EE23E0E150E1
:103D5000F0402040E1F700C000008D810E940F0A72
:103D600062CF898186958695837069F0813009F0EC
:103D70005ACF8D8199819370A11002C090E080E0AC
:103D80000E94470850CF8D8199819370A11002C085
:103D900090E080E00E94310846CF8D81AA2029F072
:103DA0000E94A7060E94E9093ECF0E94F006FACFC2
:103DB0008981837009F07CC0A11035CF2D812295B7
:103DC00026952770220F220F4D814F7050E070E032
:103DD00060E0022E04C0440F551F661F771F0A942F
:103DE000D2F78D8080E090E0DC0184FE0FC08FE090
:103DF00090E0A0E0B0E004C0880F991FAA1FBB1F8D
:103E00002A95D2F780959095A095B0959980969433
:103E10009694292D2370223059F1233009F441C0A2
:103E20008090330290903402A0903502B090360218
:103E3000213099F0842B952BA62BB72B9C01AD013B
:103E4000282139214A215B2129833A834B835C83D2
:103E5000CA01B9010E94890AE6CE842A952AA62AB7
:103E6000B72AA5019401282B392B4A2B5B2BECCFC9
:103E7000842B952BA62BB72B409133025091340203
:103E800060913502709136024C015D0184269526C1
:103E9000A626B72689829A82AB82BC82C501B4016C
:103EA000D9CF4A015B01882A992AAA2ABB2AF2CFD4
:103EB000AA2009F452C0998090FEB5CE2D8122959A
:103EC00026952770220F220F4D814F7050E070E031
:103ED00060E0022E04C0440F551F661F771F0A942E
:103EE000D2F7BD8080E090E0DC01B4FE0FC08FE02F
:103EF00090E0A0E0B0E004C0880F991FAA1FBB1F8C
:103F00002A95D2F780959095A095B0958980869452
:103F10008694282D2370223079F1233009F43FC094
:103F20008090370290903802A0903902B0903A0207
:103F30002130B9F0842B952BA62BB72B9C01AD011A
:103F4000282139214A215B2129833A834B835C83D1
:103F5000CA01B9010E94930A66CEA980A1FE63CE70
:103F6000ADCF842A952AA62AB72AA5019401282B29
:103F7000392B4A2B5B2BE8CF842B952BA62BB72B09
:103F800040913702509138026091390270913A02A3
:103F90004C015D0184269526A626B72606C04A0157
:103FA0005B01882A992AAA2ABB2A89829A82AB8233
:103FB000BC82C501B401CECF29812F702983AA20EC
:103FC00029F0822F0E949D0A8D818FCE8D810E94C3
:103FD000D00989810E94CE0A26CE3D81323F09F464
:103FE0004FC068F4303F41F1313F09F441C0AA208D
:103FF00009F46FC09110F9CD89818F713EC04D8158
:10400000433F09F442C0443F91F7AA2009F455C048
:1040100029812F712983822F0E949D0A809151034B
:1040200082FD49C0898038E0839EC00111248360ED
:1040300080933B02882D21C0AA20A1F054E059159D
:1040400008F4F1CD89818F71898381E090E0A0E04F
:10405000B0E0098004C0880F991FAA1FBB1F0A94F3
:10406000D2F78ECF85E0A82EA91408F4DCCDEACFD4
:1040700089818F71AA2009F4ADCF0E949D0AD3CD0A
:1040800089818F71AA20C9F3A5CF60E070E0CB01D0
:10409000AA2009F45FCF29812F7181E090E0A0E090
:1040A000B0E04C015D0104C0880C991CAA1CBB1C2B
:1040B0002A95D2F77ACF8981E0CF81E00E94030B65
:1040C000AA24A394A91408F0AECD82E00E94030BA9
:1040D000AACD992061F02D81293309F03ECE3FEF22
:1040E00047EE53E0315040405040E1F734CE8981F3
:1040F0008F7170CF61E0C8010E94000989839A83A3
:1041000089809A8024EF82162CE5920609F459CB17
:1041100008F053C049ED84164CE5940609F42CCB05
:1041200028E241E065EE5AED85165CE5950609F456
:104130004BCB26E241EE61EE88ED88168CE59806C1
:1041400009F442CBD80112969C91992309F450C0EE
:1041500010922F0289809A8026E182162CE5920621
:1041600008F039CB32E083163CE5930608F443CBE4
:104170000E94CE19909351038093500389809A80B6
:1041800026E182162CE5920608F04DCB32E083162C
:104190003CE5930608F039CB6091500380905103C1
:1041A000898284E090E00E94BC2C698182E290E0E8
:1041B0000E94BC2C0E942314E7CA89809A8026EFB3
:1041C00082162CE5920609F402CB27E245EE66EE54
:1041D00037EF83163CE5930609F4D1CA45EF841600
:1041E0004CE5940609F0AECF27E245EE64EEC7CA6F
:1041F00089809A8026E182162CE5920609F0BCCBD4
:1042000080913102992309F4ADCB8A7A91E009F4C7
:1042100090E0909330028111A3CB89E20E946D0956
:104220000E949909B1CA1F93CF93DF9380917402C2
:10423000807FA9F480917102882389F080913E02E9
:10424000C0913D0270916F0260917002A091720264
:10425000B0917302D62FD72316E0C81304C0DF91A4
:10426000CF911F91089590E0109711F0DF3F19F45E
:1042700001968770F2CF189F9001199F300D11247D
:10428000F901E15CFD4F41816413F2CF4081471396
:10429000EFCF42814111ECCF438154814A1B5B0B2C
:1042A000483C510528F7809174028F70806180939B
:1042B0007402F901EC5BFD4F80818F708061808317
:1042C0008FE692E00E948A1BDF91CF911F910C94A0
:1042D0005D08AF92BF92CF92DF92EF92FF920F9361
:1042E0001F93CF93DF93CDB7DEB72B970FB6F8941C
:1042F000DEBF0FBECDBF8C0185E0F801DE01179651
:1043000001900D928A95E1F7D8011296EC901297E0
:104310009C9111968C9111971396CD90DC902FE67D
:10432000A22E22E0B22E30916F0240917002609175
:104330007202709173026115710529F0232F2423F5
:104340002F3F09F04CC1EE2009F457C18F819885A9
:104350000E944009F82E882309F44FC186E0F80135
:10436000AFE6B2E001900D928A95E1F780916F027D
:10437000909170020E9434090E9413211DC0209167
:104380007402522F507F683C710508F0CAC0511169
:10439000EBC0FE2C841322C0391320C0E1101EC0D4
:1043A0002F702061209374028FE692E00E948A1B96
:1043B00080917402F80185838F2D2B960FB6F894A7
:1043C000DEBF0FBECDBFDF91CF911F910F91FF9048
:1043D000EF90DF90CF90BF90AF900895C114D104BB
:1043E00029F0282F29232F3F09F0BBC020E0E091BE
:1043F0003E0240913D0256E020FD2FC0CD2829F01D
:10440000282F29232F3F09F0A9C020E0F22FF170B7
:10441000DF2EE0913E0240913D0256E020FD34C087
:10442000EE2051F280917402816080937402F12C2D
:10443000C3CF2E2F30E05E9FF0011124E15CFD4FD1
:104440006181861306C06081961303C062816E117C
:104450006AC02F5F3F4FE22FE770E413EACFCECF61
:104460002E2F30E05E9FF0011124E15CFD4F618151
:10447000861306C06081961303C062816E11D0CF8F
:104480002F5F3F4FE22FE770E413EACF8F819885CB
:104490000E943409292F22952F70903268F0225FF4
:1044A0002F70223080F49F7059F0D80115969C919E
:1044B000907F31F4D12C0AC09F7011F08823D1F382
:1044C000805E8830B8F3C8010E948A1BFD2C74CF2F
:1044D0008F8198850E944009882309F48EC0EE20C0
:1044E00009F48BC080917402803270F020916F02C9
:1044F000309170023A8329831B82DD82CC828E83C5
:10450000CE0101960E948A1B86E0F801AFE6B2E078
:1045100001900D928A95E1F70E941321FF24F394F4
:104520004BCF511135C08FE692E00E948A1B86E086
:10453000EFE6F2E0DF011D928A95E9F778CF8F81EF
:1045400098850E9440098111DFCF809174028160BB
:1045500080937402C8010E948A1B2ECF21E02E2571
:1045600055CF21E02E2543CF8413B2CF3913B0CFDE
:10457000E110AECFF8012583C8010E948A1B86E0B6
:10458000F801AFE6B2E001900D928A95E1F714CF01
:1045900084139ECF39139CCFE1109ACFF801258365
:1045A000C8010E948A1B86E0D5011D928A95E9F711
:1045B00003CF8413C4CF3913C2CF8091740280FD1E
:1045C000DECF982F907FD9F2F8018583903FA1F23A
:1045D000982F907F905F8F70892B8583CDCFF0903F
:1045E0007102F601E61BF70BBF01F110C8CE683C63
:1045F0007105C8F6FE2CE110DCCFC8010E948A1BB1
:104600008DCF1F93CF93DF93CDB7DEB767970FB6EC
:10461000F894DEBF0FBECDBF4B8B5C8B962F6D8B9E
:104620007E8B8F8B611110923C021A8A85E0FE010D
:104630007396DE011D9601900D928A95E1F79F8792
:1046400086E0FE013D96DE01179601900D928A9557
:10465000E1F7CE0107960E946921882389F016E0D0
:1046600080913E0290913D02891349C067960FB632
:10467000F894DEBF0FBECDBFDF91CF911F9108959B
:1046800086E0FE013796DE01119601900D928A9523
:10469000E1F78F81988520913D0240913E026A8525
:1046A0007B85672BE1F289238F3FC9F230E0C90196
:1046B0000196877099274817190671F40E942314F0
:1046C00010923D0210923E0286E0EFE6F2E0DF013A
:1046D0001D928A95E9F7C3CF96E0929FD001939FF0
:1046E000B00D1124A15CBD4FFE01319601900D92D9
:1046F0009A95E1F780933D020E945D08B0CF819FBB
:10470000C0011124815C9D4F0E946921882309F416
:10471000ADCF80913E0290E00196877099278093FB
:104720003E029ECF1F93CF93DF93EC01162F8F8114
:1047300080FF0BC0888180FF23C090911903916096
:104740009093190386950E940A1B8F8181FF06C0F2
:10475000212F4B816A8189810E9429128F8182FFDA
:1047600005C08E81882379F00E94EF1A8F8183FF24
:1047700003C081E080931303DF91CF911F910895CF
:104780000E94450DE2CF0E941808F0CFCDB7DEB7EA
:104790002F970FB6F894DEBF0FBECDBF84B7877FCB
:1047A00084BF0FB6F894A8958091600088618093CB
:1047B0006000109260000FBE80E890E00FB6F894A1
:1047C00080936100909361000FBE85B7806885BFBC
:1047D00085B7806885BF8BED99E09093C101809388
:1047E000C0010E94FD0B0E94760C8091E200846063
:1047F0008093E200789480913003882399F080912F
:10480000E9001091EC001795112717958F70182B60
:104810001092E9008091E80083FD0E9471141F70DE
:104820001093E90082E084BD93E095BD9AEF97BDB7
:1048300080936E001092F7011092F8011092F90126
:104840001092FA010E94D70C809304018091040118
:10485000882309F422C180E08093150189E08093C8
:1048600016010E94D70C81110E94712980910401C8
:104870008091040196E0811190E09093430386E0DB
:10488000891B8093350386EF0E94560587EF0E94AF
:10489000560581E30E94560583E30E94560582E394
:1048A0000E94560586E30E94560584E90E9456053B
:1048B00086E60E94560587E90E94560586EC0E940E
:1048C000560584E30E94560585E30E9456058CE058
:1048D000E4E4F3E0DF01282F1D922A95E9F7E7E3EE
:1048E000F3E0DF011D928A95E9F790E080E00E94F5
:1048F000B62C8A3E9E4F11F00E94291782E090E06C
:104900000E94A82C80932F030E94CE1990935103EC
:104910008093500383E090E00E94A82C282F30E081
:1049200050E040E02C873D874E875F87CA01B90180
:104930000E94890A0E94D70C811102C00E94772927
:104940008091D80181113BC090E080E00E94B62C9C
:104950008A3E9E4F21F00E9429170E94CE1188E0C6
:1049600090E00E94B02C6093190370931A03809317
:104970001B0390931C03809118038360809318039A
:104980006E7F71F40E94CE1188E090E00E94B02CFE
:104990006093190370931A0380931B0390931C0375
:1049A0000E9402080E9418088091190380FF04C029
:1049B00060E086950E940A1B81E08093D801809177
:1049C0000401811106C084EF8093060185EF809376
:1049D000050140910601A42FA295AF70B0E0919619
:1049E0003C9191974F7081E090E0BC01042E01C092
:1049F000660F0A94EAF7262F2095232391962C938D
:104A0000919792962C919297262B92962C9392970F
:104A100030910501E32FE295EF70F0E021A13F70A6
:104A2000032E01C0880F0A94EAF7982F90959223DD
:104A300091A392A1892B82A390962C9180A190E0C2
:104A400002C0959587953A95E2F78170880F30E01E
:104A500002C0359527954A95E2F72170822B809305
:104A6000DF019091040181E0982790937C02891BDB
:104A70008093790287E091E090931F0380931E0357
:104A800088E1682E712C90E4592E23E4A22E23E0B5
:104A9000B22ECE0101966C0163C189E0DDCE80911A
:104AA0003003843009F430C00E9418088091DA0184
:104AB000811109C0F092DA0180911903817080930D
:104AC000D9010E94450D1092FF010FB6F894A895E8
:104AD000609260000FBE5092600083B7817F846057
:104AE00083BF83B7816083BF7894889583B78E7FB7
:104AF00083BF0FB6F894A895809160008861809379
:104B00006000109260000FBE8091ED01882351F08B
:104B10000E94B410E7E3F3E081918111A9C2AE16BF
:104B2000BF06D1F780913003853009F4B8CF0E94D9
:104B300023140E9425081092DA018091D90188235C
:104B400049F08091190381608093190360E0869594
:104B50000E940A1B0E94EF1A0CC19394FF0C46E0BE
:104B600094121CC10F5F1F4F0C30110509F00CC1CE
:104B70008FEF8F83888719860E94DD098160782FE7
:104B80009B878A874F8158856985892F0E940123D9
:104B900026C108E210E057E4E52E5FE0F52E8831EB
:104BA00009F437C1E8F48F3009F447C060F4863067
:104BB00069F1893009F435C000ED17E08FE1E82E86
:104BC00088E0F82E26C18531B9F7F0E0E550FE4FB8
:104BD000E4910E2F10E0E2ECEE2EEEE0FE2E19C175
:104BE00004EF11E04DEEE42E4FE0F42E843209F490
:104BF00010C1853271F18332F9F6E9EFF1E00591E8
:104C0000149178EBE72E7DE0F72E03C1F0E0EC5F26
:104C1000FD4FE4910E2F10E0B8EAEB2EBDE0FB2E25
:104C2000F8C0E695F0E0EF5FFD4FE4910E2F10E045
:104C3000A8EFEA2EADE0FA2EECC0E695F0E0E250E7
:104C4000FE4FE4910E2F10E0F3E3EF2EFEE0FF2E77
:104C5000E0C08E2F63E00E94CC2BE92FF0E0EA50F9
:104C6000FE4FE4910E2F10E06AE2E62E63E1F62E8D
:104C7000D0C040912D03FAE04F9FA00111244217AC
:104C8000530708F4ADC18E2D8F2909F448C08091D7
:104C90002003909121030E94410B9C0180912A03E3
:104CA000882309F4FBC125363105C8F18F3F19F07F
:104CB0008F5F80932A03EE2059F00E946E069FEFCB
:104CC0001E140CF491E0899F802D112480932803F9
:104CD000FF2059F00E946E069FEF1F140CF491E024
:104CE000899F802D112480932903309128032091DE
:104CF00029033323A1F0222391F065EB3603C00191
:104D00001124992309F4ACC19093280345EB2403A3
:104D100090011124332309F4A7C130932903809112
:104D2000260390912703892B90912803892B90913A
:104D30002903892B11F00E94E90986E0E12FF02F69
:104D4000A4E2B3E001900D928A95E1F70E94250854
:104D50009091E001891721F00E9425088093E001DD
:104D600080913003FF24F39400E112E1853009F4CF
:104D7000D9CE0E94B41081110E941F0BE7E3F3E02B
:104D8000A1EEB1E010E000E0802EE1908D918E1553
:104D900009F4E8CE8E25912CFF24F3949F2D9823BF
:104DA00009F4DBCE0E94D70C882399F099828A827D
:104DB000EF2081E009F480E08B830E94DD098160AF
:104DC000782F9D838C8349815A816B81892F0E9422
:104DD0000123F801EF51FE4F80818F258083809160
:104DE0001703882309F465C080911603E091190325
:104DF000E695E81BE0931203823009F0CACEF0E09A
:104E0000E95FFD4FE4910E2F10E094E9E92E9DE05B
:104E1000F92E80911303882361F0109213030E94EE
:104E2000E61A9093110380931003109215031092C9
:104E300014030E94E61A9C018091100390911103C3
:104E4000A901481B590B4F3F5F4798F54091DD0181
:104E50004423B1F01092DD014091DB015091DC015F
:104E6000241B350B2F3F3F4758F4405D5A48509361
:104E7000DC014093DB012091180328602093180384
:104E80008090140390901503800F911F909311034D
:104E90008093100380E193E0F7010995809114035A
:104EA00090911503892B29F4892819F081E08093CA
:104EB000DD0140910601E42FE295EF70E05EF0E045
:104EC000208130910501E32FE295EF70E05EF0E084
:104ED000808190E03F7002C0959587953A95E2F702
:104EE000880F991F8270992730E04F7002C0359566
:104EF00027954A95E2F721703327822BE091DF0155
:104F0000EE0FEE0FE82BE093DF0110917C02EF70C3
:104F1000F0E0E65CFE4F80819091DE01890F809386
:104F2000DE0120E0823064F0E12FF0E0E658FD4F32
:104F300080818F5F808361E0812F0E948D1921E045
:104F40008091DE018F3F64F4E12FF0E0E658FD4FE1
:104F500080818150808360E0812F0E948D1921E043
:104F60008091DE01082E000C990B62E070E00E9437
:104F7000FA2B8093DE0121110E943F0B86E0E4E2D0
:104F8000F3E0D60101900D928A95E1F78090260317
:104F900090902703E0902803F090290310922603B5
:104FA000109227031092280310922903882D892933
:104FB0001C2D0D2D09F467CE8091220390912303BF
:104FC0000E94410B9C0180912B03882309F451CE50
:104FD000909129019217130608F055CE8F3F19F0D2
:104FE0008F5F80932B03882059F00E9424069FEF47
:104FF00018140CF491E0899F802D112480932603CE
:10500000992059F00E9424069FEF19140CF491E0A6
:10501000899F802D11248093270330912603332309
:1050200009F431CE20912703222309F42CCE45EB3D
:105030003403C0011124992359F09093260355EBB2
:10504000250390011124332339F0309327031BCE1D
:1050500081E080932603F3CF81E08093270313CE72
:1050600081E08093280352CE81E08093290357CEBC
:1050700009BD19BD09B400FEFDCF8091D8008F7D18
:105080008093D8008091E00082608093E00080915E
:10509000E00081FDFCCF0E94231444CD232B09F0B6
:1050A00007CE3DCE1F920F920FB60F9211242F9371
:1050B0003F934F935F936F937F938F939F93AF93A0
:1050C000BF93EF93FF938091E10082FF09C080912D
:1050D000E20082FF05C08091E1008B7F8093E100B8
:1050E0008091DA0080FF24C08091D80080FF20C02A
:1050F0008091DA008E7F8093DA008091D90080FF62
:1051000099C080E189BD82E189BD09B400FEFDCF6F
:1051100081E0809330038091CF01811109C00E940A
:10512000FD0B0E94760C8091E20084608093E20087
:105130008091E10080FF17C08091E20080FF13C0E2
:105140008091E2008E7F8093E2008091E200806196
:105150008093E2008091D80080628093D80019BCCF
:1051600085E0809330038091E10084FF27C0809127
:10517000E20084FF23C080E189BD82E189BD09B4DA
:1051800000FEFDCF8091D8008F7D8093D800809164
:10519000E1008F7E8093E1008091E2008F7E80931A
:1051A000E2008091E20081608093E2008091CE0174
:1051B000882309F445C084E0809330038091E100A6
:1051C00083FF27C08091E20083FF23C08091E1002C
:1051D000877F8093E10082E0809330031092CE01BC
:1051E0008091E1008E7F8093E1008091E2008E7FCC
:1051F0008093E2008091E20080618093E20042E0CF
:1052000060E080E00E94460C8091F000886080930E
:10521000F000FF91EF91BF91AF919F918F917F919E
:105220006F915F914F913F912F910F900FBE0F9013
:105230001F90189519BC109230031092CF0178CFAF
:105240008091E30087FD02C081E0B6CF83E0B4CF58
:105250001F920F920FB60F921124FF920F931F937C
:105260002F933F934F935F936F937F938F939F936E
:10527000AF93BF93CF93DF93EF93FF9309EE10E0CB
:10528000F8018081C091EC00C795CC27C7958F703D
:10529000FC2EF82A1082C0EFD0E08881877F8883B7
:1052A00078940E947114F801108288818860888344
:1052B000CF2DCF70C083FF91EF91DF91CF91BF9140
:1052C000AF919F918F917F916F915F914F913F919E
:1052D0002F911F910F91FF900F900FBE0F901F9075
:1052E000189562E070E08AE291E00C946B2A62E02B
:1052F00070E08AE291E00C94742A0E94DC19882301
:1053000061F08FE593E00E94E21981E090E00E9455
:105310004D2B892B11F40C94DF19089580915E03B5
:10532000883039F460E08FE593E00E949223109278
:105330005E030895CF93DF9300D000D00F92CDB7D6
:10534000DEB76D8379830E947D2990E080E00E9422
:105350004D2B9C0180E02115310501F5ED81F9818E
:10536000D901A95ABC4F8C9181932F5F3F4F2630B2
:105370003105B1F78DE593E00E94021A0E94B51A3B
:10538000DC01CB010296A11DB11D809353039093C4
:105390005403A0935503B093560381E00F900F90F0
:1053A0000F900F900F90DF91CF910895CF93DF93DF
:1053B00000D000D000D0CDB7DEB76E837D830E94D1
:1053C0008E298091530390915403A0915503B0917D
:1053D000560389839A83AB83BC83BC01CD010E94B1
:1053E0008C1AEE81FD8190E080E02191DC01A95AC8
:1053F000BC4F2C93019686309105B9F78DE593E06B
:1054000026960FB6F894DEBF0FBECDBFDF91CF91C9
:105410000C94F9198EE1489B02C08150E1F7489B3A
:10542000FECF0895589880E28A95F1F7589A08952A
:10543000FC013BE03A95F1F720E090E080E031E0BC
:1054400040E14A95F1F7880F489B02C0816023270D
:1054500042E04A95F1F7000040E14A95F1F79F5F7D
:105460006913EECF90E19A95F1F799B132E03A9550
:10547000F1F7000040E14A95F1F791709227208101
:10548000920F90830895EF92FF920F931F93CF9303
:10549000DF930F92CDB7DEB719828C017C01E60E47
:1054A000F11C0E151F0561F481E09981911180E0D6
:1054B0000F90DF91CF911F910F91FF90EF90089582
:1054C0000E940A2A68E0CE0101960E94182AF8017B
:1054D00081938F01E6CF9093690380936803609373
:1054E0006703509A589A08959093690380936803CC
:1054F000609367035098589AE89AE9E6F0E0808153
:105500008C7F808308956150770B91E001C0990FE3
:105510006A95EAF720E031E0911108C0222391F06A
:10552000589A80E28A95F1F758980895492F4823B0
:1055300039F0589A232740E24A95F1F79695ECCF37
:105540005898F9CF5898EDCFFF920F931F93CF93B0
:10555000DF93EC018C01060F111DC017D10731F448
:10556000DF91CF911F910F91FF900895F9900E94C4
:10557000122A68E08F2D0E94832AEFCF1F920F928C
:105580000FB60F9211240F931F932F933F934F93B6
:105590005F936F937F938F939F93AF93BF93EF939B
:1055A000FF93CF93DF930F92CDB7DEB719820E949E
:1055B0000A2A67E0CE0101960E94182A282F269514
:1055C00026952695982F92959570322F3570930FCA
:1055D000392F3370969596958770930F891344C031
:1055E0008981811141C0809167038217E8F180E1D0
:1055F0008A95F1F7589A509AA2E0AA95F1F700C05F
:10560000B8E02B9F90011124009168031091690369
:10561000020F131F5898F8016581662321F08681D7
:1056200097810E94A42A0E94122AF0E1FA95F1F7CC
:1056300058985098589A80E18A95F1F7D8011296B7
:105640006C911297662331F113968D919C910E9473
:10565000432AD801ED91FC91882311F088E001C024
:1056600082E080830E940A2A0F90DF91CF91FF9100
:10567000EF91BF91AF919F918F917F916F915F91CA
:105680004F913F912F911F910F910F900FBE0F904F
:105690001F901895ED91FC91E1CF0F931F93CF933D
:1056A000DF939C0180916703821713060CF471C08D
:1056B000890183E0000F111F8A95E1F7C09168030B
:1056C000D0916903C00FD11FF894509A589885E083
:1056D0008A95F1F70000922F969595702570920F9C
:1056E000892F837096959695890F082B0E94122A10
:1056F00000C067E0802F0E94832A80E18A95F1F73D
:105700005098589A489B17C087E090E0489915C078
:105710006D81662321F18E819F810E94432A811130
:105720001EC0509A589AE881F98182E0808378946B
:1057300082E090E00DC000C0E5CF019771F4509A6F
:10574000589AE881F98181E08083789481E090E043
:10575000DF91CF911F910F91089500C0D7CF0E9484
:105760000A2A80E28A95F1F75898509A80E18A9542
:10577000F1F76A81662321F08B819C810E94A42A23
:105780000E94122AE881F9811082789490E080E0EA
:10579000DFCF84E090E0DCCF991B79E004C0991F53
:1057A000961708F0961B881F7A95C9F7809508957B
:1057B00087FB082E062687FD819567FD61950E946F
:1057C000CC2B0EF4919507FC81950895AA1BBB1B69
:1057D00051E107C0AA1FBB1FA617B70710F0A61BF1
:1057E000B70B881F991F5A95A9F780959095BC0112
:1057F000CD01089597FB072E16F4009407D077FD8E
:1058000009D00E94E62B07FC05D03EF490958195C7
:105810009F4F0895709561957F4F0895EE0FFF1F7C
:105820000590F491E02D09940E94442D332312F445
:105830008A1B9B0B0C941E2C0E94442DB7FF0895CD
:10584000821B930B0895CF92DF92EF92FF92CF933A
:10585000DF93CDB7DEB72A970FB6F894DEBF0FBE41
:10586000CDBF89879A87A985BA852D913D914D91A4
:105870005C9129833A834B835C83232B242B252B38
:1058800041F424E239ED4BE557E029833A834B8319
:105890005C8369817A818B819C812DE133EF41E0CA
:1058A00050E00E94F02C69017A01A7EAB1E49B0163
:1058B000AC010E940F2D69837A838B839C83ACEEAD
:1058C000B4EFA70196010E941D2D9B01AC018981B7
:1058D0009A81AB81BC81820F931FA41FB51FB7FFB4
:1058E00003C00197A109B048E985FA8580839183B7
:1058F000A283B3839F772A960FB6F894DEBF0FBEBC
:10590000CDBFDF91CF91FF90EF90DF90CF900895C2
:105910000E94232C089580E091E00E94232C08959A
:10592000B0E0A0E08093000190930101A0930201F8
:10593000B09303010895FC014150504030F00190B4
:105940000616D1F73197CF01089588279927089532
:10595000F999FECF92BD81BDF89A992780B5089537
:10596000A6E1B0E044E050E00C94E22CA8E1B0E005
:1059700042E050E00C94E22C262FF999FECF92BD24
:1059800081BDF89A019700B4021639F01FBA20BD04
:105990000FB6F894FA9AF99A0FBE08950396272F36
:1059A0000E94BD2C0E94BC2C252F0E94BD2C242FB0
:1059B0000C94BD2C0196272F0E94BD2C0C94BC2C5E
:1059C000DC01CB01FC01F999FECF06C0F2BDE1BDBF
:1059D000F89A319600B40D9241505040B8F70895AE
:1059E000052E97FB1EF400940E94072D57FD07D04B
:1059F0000E94222D07FC03D04EF40C94072D5095E5
:105A00004095309521953F4F4F4F5F4F08959095AA
:105A10008095709561957F4F8F4F9F4F08950E949D
:105A2000442DA59F900DB49F900DA49F800D911DB6
:105A300011240895B7FF0C940F2D0E940F2D821B87
:105A4000930B0895A1E21A2EAA1BBB1BFD010DC0EA
:105A5000AA1FBB1FEE1FFF1FA217B307E407F5071E
:105A600020F0A21BB30BE40BF50B661F771F881FFA
:105A7000991F1A9469F760957095809590959B0190
:105A8000AC01BD01CF010895A29FB001B39FC00139
:105A9000A39F700D811D1124911DB29F700D811D5A
:105AA0001124911D0895F894FFCFB006B606B906EB
:105AB000BF06D406D406D406D406D406D406D4062B
:105AC000D406C206C706CB06D106E206E806EC06F7
:105AD00052157A1511177A151117AD15CE15111724
